{
	"contracts/sendetherPractice.sol": {
		"transfer": {
			"abi": [
				{
					"inputs": [
						{
							"internalType": "address payable",
							"name": "to",
							"type": "address"
						}
					],
					"name": "SendEtherByCall",
					"outputs": [],
					"stateMutability": "payable",
					"type": "function"
				},
				{
					"inputs": [],
					"name": "data",
					"outputs": [
						{
							"internalType": "bytes",
							"name": "",
							"type": "bytes"
						}
					],
					"stateMutability": "view",
					"type": "function"
				},
				{
					"inputs": [
						{
							"internalType": "address payable",
							"name": "_to",
							"type": "address"
						}
					],
					"name": "sendEtherBySend",
					"outputs": [],
					"stateMutability": "payable",
					"type": "function"
				},
				{
					"inputs": [
						{
							"internalType": "address payable",
							"name": "_addr",
							"type": "address"
						}
					],
					"name": "transferFun",
					"outputs": [],
					"stateMutability": "payable",
					"type": "function"
				}
			],
			"devdoc": {
				"kind": "dev",
				"methods": {},
				"version": 1
			},
			"evm": {
				"assembly": "    /* \"contracts/sendetherPractice.sol\":66:816  contract transfer{... */\n  mstore(0x40, 0x80)\n  callvalue\n  dup1\n  iszero\n  tag_1\n  jumpi\n  0x00\n  dup1\n  revert\ntag_1:\n  pop\n  dataSize(sub_0)\n  dup1\n  dataOffset(sub_0)\n  0x00\n  codecopy\n  0x00\n  return\nstop\n\nsub_0: assembly {\n        /* \"contracts/sendetherPractice.sol\":66:816  contract transfer{... */\n      mstore(0x40, 0x80)\n      jumpi(tag_1, lt(calldatasize, 0x04))\n      shr(0xe0, calldataload(0x00))\n      dup1\n      0x0ecaa01e\n      eq\n      tag_2\n      jumpi\n      dup1\n      0x73d4a13a\n      eq\n      tag_3\n      jumpi\n      dup1\n      0x9e63c1a2\n      eq\n      tag_4\n      jumpi\n      dup1\n      0xf47f66af\n      eq\n      tag_5\n      jumpi\n    tag_1:\n      0x00\n      dup1\n      revert\n        /* \"contracts/sendetherPractice.sol\":584:809  function SendEtherByCall(address payable to)public payable{... */\n    tag_2:\n      tag_6\n      0x04\n      dup1\n      calldatasize\n      sub\n      dup2\n      add\n      swap1\n      tag_7\n      swap2\n      swap1\n      tag_8\n      jump\t// in\n    tag_7:\n      tag_9\n      jump\t// in\n    tag_6:\n      stop\n        /* \"contracts/sendetherPractice.sol\":94:111  bytes public data */\n    tag_3:\n      callvalue\n      dup1\n      iszero\n      tag_10\n      jumpi\n      0x00\n      dup1\n      revert\n    tag_10:\n      pop\n      tag_11\n      tag_12\n      jump\t// in\n    tag_11:\n      mload(0x40)\n      tag_13\n      swap2\n      swap1\n      tag_14\n      jump\t// in\n    tag_13:\n      mload(0x40)\n      dup1\n      swap2\n      sub\n      swap1\n      return\n        /* \"contracts/sendetherPractice.sol\":340:510  function sendEtherBySend(address payable _to)public payable{... */\n    tag_4:\n      tag_15\n      0x04\n      dup1\n      calldatasize\n      sub\n      dup2\n      add\n      swap1\n      tag_16\n      swap2\n      swap1\n      tag_8\n      jump\t// in\n    tag_16:\n      tag_17\n      jump\t// in\n    tag_15:\n      stop\n        /* \"contracts/sendetherPractice.sol\":182:284  function transferFun(address payable _addr) public payable{... */\n    tag_5:\n      tag_18\n      0x04\n      dup1\n      calldatasize\n      sub\n      dup2\n      add\n      swap1\n      tag_19\n      swap2\n      swap1\n      tag_8\n      jump\t// in\n    tag_19:\n      tag_20\n      jump\t// in\n    tag_18:\n      stop\n        /* \"contracts/sendetherPractice.sol\":584:809  function SendEtherByCall(address payable to)public payable{... */\n    tag_9:\n        /* \"contracts/sendetherPractice.sol\":654:666  bool success */\n      0x00\n        /* \"contracts/sendetherPractice.sol\":668:686  bytes memory _data */\n      dup1\n        /* \"contracts/sendetherPractice.sol\":690:692  to */\n      dup3\n        /* \"contracts/sendetherPractice.sol\":690:697  to.call */\n      0xffffffffffffffffffffffffffffffffffffffff\n      and\n        /* \"contracts/sendetherPractice.sol\":704:713  msg.value */\n      callvalue\n        /* \"contracts/sendetherPractice.sol\":719:723  2000 */\n      0x07d0\n        /* \"contracts/sendetherPractice.sol\":690:728  to.call{value:msg.value, gas:2000}(\"\") */\n      swap1\n      mload(0x40)\n      tag_22\n      swap1\n      tag_23\n      jump\t// in\n    tag_22:\n      0x00\n      mload(0x40)\n      dup1\n      dup4\n      sub\n      dup2\n      dup6\n      dup9\n      dup9\n      call\n      swap4\n      pop\n      pop\n      pop\n      pop\n      returndatasize\n      dup1\n      0x00\n      dup2\n      eq\n      tag_26\n      jumpi\n      mload(0x40)\n      swap2\n      pop\n      and(add(returndatasize, 0x3f), not(0x1f))\n      dup3\n      add\n      0x40\n      mstore\n      returndatasize\n      dup3\n      mstore\n      returndatasize\n      0x00\n      0x20\n      dup5\n      add\n      returndatacopy\n      jump(tag_25)\n    tag_26:\n      0x60\n      swap2\n      pop\n    tag_25:\n      pop\n        /* \"contracts/sendetherPractice.sol\":653:728  (bool success, bytes memory _data) = to.call{value:msg.value, gas:2000}(\"\") */\n      swap2\n      pop\n      swap2\n      pop\n        /* \"contracts/sendetherPractice.sol\":746:751  _data */\n      dup1\n        /* \"contracts/sendetherPractice.sol\":739:743  data */\n      0x00\n        /* \"contracts/sendetherPractice.sol\":739:751  data = _data */\n      swap1\n      dup2\n      tag_27\n      swap2\n      swap1\n      tag_28\n      jump\t// in\n    tag_27:\n      pop\n        /* \"contracts/sendetherPractice.sol\":771:778  success */\n      dup2\n        /* \"contracts/sendetherPractice.sol\":762:801  require (success, \"Failed to transfer\") */\n      tag_29\n      jumpi\n      mload(0x40)\n      0x08c379a000000000000000000000000000000000000000000000000000000000\n      dup2\n      mstore\n      0x04\n      add\n      tag_30\n      swap1\n      tag_31\n      jump\t// in\n    tag_30:\n      mload(0x40)\n      dup1\n      swap2\n      sub\n      swap1\n      revert\n    tag_29:\n        /* \"contracts/sendetherPractice.sol\":642:809  {... */\n      pop\n      pop\n        /* \"contracts/sendetherPractice.sol\":584:809  function SendEtherByCall(address payable to)public payable{... */\n      pop\n      jump\t// out\n        /* \"contracts/sendetherPractice.sol\":94:111  bytes public data */\n    tag_12:\n      0x00\n      dup1\n      sload\n      tag_32\n      swap1\n      tag_33\n      jump\t// in\n    tag_32:\n      dup1\n      0x1f\n      add\n      0x20\n      dup1\n      swap2\n      div\n      mul\n      0x20\n      add\n      mload(0x40)\n      swap1\n      dup2\n      add\n      0x40\n      mstore\n      dup1\n      swap3\n      swap2\n      swap1\n      dup2\n      dup2\n      mstore\n      0x20\n      add\n      dup3\n      dup1\n      sload\n      tag_34\n      swap1\n      tag_33\n      jump\t// in\n    tag_34:\n      dup1\n      iszero\n      tag_35\n      jumpi\n      dup1\n      0x1f\n      lt\n      tag_36\n      jumpi\n      0x0100\n      dup1\n      dup4\n      sload\n      div\n      mul\n      dup4\n      mstore\n      swap2\n      0x20\n      add\n      swap2\n      jump(tag_35)\n    tag_36:\n      dup3\n      add\n      swap2\n      swap1\n      0x00\n      mstore\n      keccak256(0x00, 0x20)\n      swap1\n    tag_37:\n      dup2\n      sload\n      dup2\n      mstore\n      swap1\n      0x01\n      add\n      swap1\n      0x20\n      add\n      dup1\n      dup4\n      gt\n      tag_37\n      jumpi\n      dup3\n      swap1\n      sub\n      0x1f\n      and\n      dup3\n      add\n      swap2\n    tag_35:\n      pop\n      pop\n      pop\n      pop\n      pop\n      dup2\n      jump\t// out\n        /* \"contracts/sendetherPractice.sol\":340:510  function sendEtherBySend(address payable _to)public payable{... */\n    tag_17:\n        /* \"contracts/sendetherPractice.sol\":419:428  bool sent */\n      0x00\n        /* \"contracts/sendetherPractice.sol\":430:433  _to */\n      dup2\n        /* \"contracts/sendetherPractice.sol\":430:438  _to.send */\n      0xffffffffffffffffffffffffffffffffffffffff\n      and\n        /* \"contracts/sendetherPractice.sol\":430:449  _to.send(msg.value) */\n      0x08fc\n        /* \"contracts/sendetherPractice.sol\":439:448  msg.value */\n      callvalue\n        /* \"contracts/sendetherPractice.sol\":430:449  _to.send(msg.value) */\n      swap1\n      dup2\n      iszero\n      mul\n      swap1\n      mload(0x40)\n      0x00\n      mload(0x40)\n      dup1\n      dup4\n      sub\n      dup2\n      dup6\n      dup9\n      dup9\n      call\n      swap4\n      pop\n      pop\n      pop\n      pop\n        /* \"contracts/sendetherPractice.sol\":419:449  bool sent =_to.send(msg.value) */\n      swap1\n      pop\n        /* \"contracts/sendetherPractice.sol\":469:473  sent */\n      dup1\n        /* \"contracts/sendetherPractice.sol\":460:502  require( sent, \"failed to transfer Ether\") */\n      tag_40\n      jumpi\n      mload(0x40)\n      0x08c379a000000000000000000000000000000000000000000000000000000000\n      dup2\n      mstore\n      0x04\n      add\n      tag_41\n      swap1\n      tag_42\n      jump\t// in\n    tag_41:\n      mload(0x40)\n      dup1\n      swap2\n      sub\n      swap1\n      revert\n    tag_40:\n        /* \"contracts/sendetherPractice.sol\":399:510  {... */\n      pop\n        /* \"contracts/sendetherPractice.sol\":340:510  function sendEtherBySend(address payable _to)public payable{... */\n      pop\n      jump\t// out\n        /* \"contracts/sendetherPractice.sol\":182:284  function transferFun(address payable _addr) public payable{... */\n    tag_20:\n        /* \"contracts/sendetherPractice.sol\":251:256  _addr */\n      dup1\n        /* \"contracts/sendetherPractice.sol\":251:265  _addr.transfer */\n      0xffffffffffffffffffffffffffffffffffffffff\n      and\n        /* \"contracts/sendetherPractice.sol\":251:276  _addr.transfer(msg.value) */\n      0x08fc\n        /* \"contracts/sendetherPractice.sol\":266:275  msg.value */\n      callvalue\n        /* \"contracts/sendetherPractice.sol\":251:276  _addr.transfer(msg.value) */\n      swap1\n      dup2\n      iszero\n      mul\n      swap1\n      mload(0x40)\n      0x00\n      mload(0x40)\n      dup1\n      dup4\n      sub\n      dup2\n      dup6\n      dup9\n      dup9\n      call\n      swap4\n      pop\n      pop\n      pop\n      pop\n      iszero\n      dup1\n      iszero\n      tag_45\n      jumpi\n      returndatasize\n      0x00\n      dup1\n      returndatacopy\n      revert(0x00, returndatasize)\n    tag_45:\n      pop\n        /* \"contracts/sendetherPractice.sol\":182:284  function transferFun(address payable _addr) public payable{... */\n      pop\n      jump\t// out\n        /* \"#utility.yul\":88:205   */\n    tag_47:\n        /* \"#utility.yul\":197:198   */\n      0x00\n        /* \"#utility.yul\":194:195   */\n      dup1\n        /* \"#utility.yul\":187:199   */\n      revert\n        /* \"#utility.yul\":334:460   */\n    tag_49:\n        /* \"#utility.yul\":371:378   */\n      0x00\n        /* \"#utility.yul\":411:453   */\n      0xffffffffffffffffffffffffffffffffffffffff\n        /* \"#utility.yul\":404:409   */\n      dup3\n        /* \"#utility.yul\":400:454   */\n      and\n        /* \"#utility.yul\":389:454   */\n      swap1\n      pop\n        /* \"#utility.yul\":334:460   */\n      swap2\n      swap1\n      pop\n      jump\t// out\n        /* \"#utility.yul\":466:570   */\n    tag_50:\n        /* \"#utility.yul\":511:518   */\n      0x00\n        /* \"#utility.yul\":540:564   */\n      tag_90\n        /* \"#utility.yul\":558:563   */\n      dup3\n        /* \"#utility.yul\":540:564   */\n      tag_49\n      jump\t// in\n    tag_90:\n        /* \"#utility.yul\":529:564   */\n      swap1\n      pop\n        /* \"#utility.yul\":466:570   */\n      swap2\n      swap1\n      pop\n      jump\t// out\n        /* \"#utility.yul\":576:714   */\n    tag_51:\n        /* \"#utility.yul\":657:689   */\n      tag_92\n        /* \"#utility.yul\":683:688   */\n      dup2\n        /* \"#utility.yul\":657:689   */\n      tag_50\n      jump\t// in\n    tag_92:\n        /* \"#utility.yul\":650:655   */\n      dup2\n        /* \"#utility.yul\":647:690   */\n      eq\n        /* \"#utility.yul\":637:708   */\n      tag_93\n      jumpi\n        /* \"#utility.yul\":704:705   */\n      0x00\n        /* \"#utility.yul\":701:702   */\n      dup1\n        /* \"#utility.yul\":694:706   */\n      revert\n        /* \"#utility.yul\":637:708   */\n    tag_93:\n        /* \"#utility.yul\":576:714   */\n      pop\n      jump\t// out\n        /* \"#utility.yul\":720:875   */\n    tag_52:\n        /* \"#utility.yul\":774:779   */\n      0x00\n        /* \"#utility.yul\":812:818   */\n      dup2\n        /* \"#utility.yul\":799:819   */\n      calldataload\n        /* \"#utility.yul\":790:819   */\n      swap1\n      pop\n        /* \"#utility.yul\":828:869   */\n      tag_95\n        /* \"#utility.yul\":863:868   */\n      dup2\n        /* \"#utility.yul\":828:869   */\n      tag_51\n      jump\t// in\n    tag_95:\n        /* \"#utility.yul\":720:875   */\n      swap3\n      swap2\n      pop\n      pop\n      jump\t// out\n        /* \"#utility.yul\":881:1226   */\n    tag_8:\n        /* \"#utility.yul\":948:954   */\n      0x00\n        /* \"#utility.yul\":997:999   */\n      0x20\n        /* \"#utility.yul\":985:994   */\n      dup3\n        /* \"#utility.yul\":976:983   */\n      dup5\n        /* \"#utility.yul\":972:995   */\n      sub\n        /* \"#utility.yul\":968:1000   */\n      slt\n        /* \"#utility.yul\":965:1084   */\n      iszero\n      tag_97\n      jumpi\n        /* \"#utility.yul\":1003:1082   */\n      tag_98\n      tag_47\n      jump\t// in\n    tag_98:\n        /* \"#utility.yul\":965:1084   */\n    tag_97:\n        /* \"#utility.yul\":1123:1124   */\n      0x00\n        /* \"#utility.yul\":1148:1209   */\n      tag_99\n        /* \"#utility.yul\":1201:1208   */\n      dup5\n        /* \"#utility.yul\":1192:1198   */\n      dup3\n        /* \"#utility.yul\":1181:1190   */\n      dup6\n        /* \"#utility.yul\":1177:1199   */\n      add\n        /* \"#utility.yul\":1148:1209   */\n      tag_52\n      jump\t// in\n    tag_99:\n        /* \"#utility.yul\":1138:1209   */\n      swap2\n      pop\n        /* \"#utility.yul\":1094:1219   */\n      pop\n        /* \"#utility.yul\":881:1226   */\n      swap3\n      swap2\n      pop\n      pop\n      jump\t// out\n        /* \"#utility.yul\":1232:1330   */\n    tag_53:\n        /* \"#utility.yul\":1283:1289   */\n      0x00\n        /* \"#utility.yul\":1317:1322   */\n      dup2\n        /* \"#utility.yul\":1311:1323   */\n      mload\n        /* \"#utility.yul\":1301:1323   */\n      swap1\n      pop\n        /* \"#utility.yul\":1232:1330   */\n      swap2\n      swap1\n      pop\n      jump\t// out\n        /* \"#utility.yul\":1336:1504   */\n    tag_54:\n        /* \"#utility.yul\":1419:1430   */\n      0x00\n        /* \"#utility.yul\":1453:1459   */\n      dup3\n        /* \"#utility.yul\":1448:1451   */\n      dup3\n        /* \"#utility.yul\":1441:1460   */\n      mstore\n        /* \"#utility.yul\":1493:1497   */\n      0x20\n        /* \"#utility.yul\":1488:1491   */\n      dup3\n        /* \"#utility.yul\":1484:1498   */\n      add\n        /* \"#utility.yul\":1469:1498   */\n      swap1\n      pop\n        /* \"#utility.yul\":1336:1504   */\n      swap3\n      swap2\n      pop\n      pop\n      jump\t// out\n        /* \"#utility.yul\":1510:1756   */\n    tag_55:\n        /* \"#utility.yul\":1591:1592   */\n      0x00\n        /* \"#utility.yul\":1601:1714   */\n    tag_103:\n        /* \"#utility.yul\":1615:1621   */\n      dup4\n        /* \"#utility.yul\":1612:1613   */\n      dup2\n        /* \"#utility.yul\":1609:1622   */\n      lt\n        /* \"#utility.yul\":1601:1714   */\n      iszero\n      tag_105\n      jumpi\n        /* \"#utility.yul\":1700:1701   */\n      dup1\n        /* \"#utility.yul\":1695:1698   */\n      dup3\n        /* \"#utility.yul\":1691:1702   */\n      add\n        /* \"#utility.yul\":1685:1703   */\n      mload\n        /* \"#utility.yul\":1681:1682   */\n      dup2\n        /* \"#utility.yul\":1676:1679   */\n      dup5\n        /* \"#utility.yul\":1672:1683   */\n      add\n        /* \"#utility.yul\":1665:1704   */\n      mstore\n        /* \"#utility.yul\":1637:1639   */\n      0x20\n        /* \"#utility.yul\":1634:1635   */\n      dup2\n        /* \"#utility.yul\":1630:1640   */\n      add\n        /* \"#utility.yul\":1625:1640   */\n      swap1\n      pop\n        /* \"#utility.yul\":1601:1714   */\n      jump(tag_103)\n    tag_105:\n        /* \"#utility.yul\":1748:1749   */\n      0x00\n        /* \"#utility.yul\":1739:1745   */\n      dup5\n        /* \"#utility.yul\":1734:1737   */\n      dup5\n        /* \"#utility.yul\":1730:1746   */\n      add\n        /* \"#utility.yul\":1723:1750   */\n      mstore\n        /* \"#utility.yul\":1572:1756   */\n      pop\n        /* \"#utility.yul\":1510:1756   */\n      pop\n      pop\n      pop\n      jump\t// out\n        /* \"#utility.yul\":1762:1864   */\n    tag_56:\n        /* \"#utility.yul\":1803:1809   */\n      0x00\n        /* \"#utility.yul\":1854:1856   */\n      0x1f\n        /* \"#utility.yul\":1850:1857   */\n      not\n        /* \"#utility.yul\":1845:1847   */\n      0x1f\n        /* \"#utility.yul\":1838:1843   */\n      dup4\n        /* \"#utility.yul\":1834:1848   */\n      add\n        /* \"#utility.yul\":1830:1858   */\n      and\n        /* \"#utility.yul\":1820:1858   */\n      swap1\n      pop\n        /* \"#utility.yul\":1762:1864   */\n      swap2\n      swap1\n      pop\n      jump\t// out\n        /* \"#utility.yul\":1870:2243   */\n    tag_57:\n        /* \"#utility.yul\":1956:1959   */\n      0x00\n        /* \"#utility.yul\":1984:2022   */\n      tag_108\n        /* \"#utility.yul\":2016:2021   */\n      dup3\n        /* \"#utility.yul\":1984:2022   */\n      tag_53\n      jump\t// in\n    tag_108:\n        /* \"#utility.yul\":2038:2108   */\n      tag_109\n        /* \"#utility.yul\":2101:2107   */\n      dup2\n        /* \"#utility.yul\":2096:2099   */\n      dup6\n        /* \"#utility.yul\":2038:2108   */\n      tag_54\n      jump\t// in\n    tag_109:\n        /* \"#utility.yul\":2031:2108   */\n      swap4\n      pop\n        /* \"#utility.yul\":2117:2182   */\n      tag_110\n        /* \"#utility.yul\":2175:2181   */\n      dup2\n        /* \"#utility.yul\":2170:2173   */\n      dup6\n        /* \"#utility.yul\":2163:2167   */\n      0x20\n        /* \"#utility.yul\":2156:2161   */\n      dup7\n        /* \"#utility.yul\":2152:2168   */\n      add\n        /* \"#utility.yul\":2117:2182   */\n      tag_55\n      jump\t// in\n    tag_110:\n        /* \"#utility.yul\":2207:2236   */\n      tag_111\n        /* \"#utility.yul\":2229:2235   */\n      dup2\n        /* \"#utility.yul\":2207:2236   */\n      tag_56\n      jump\t// in\n    tag_111:\n        /* \"#utility.yul\":2202:2205   */\n      dup5\n        /* \"#utility.yul\":2198:2237   */\n      add\n        /* \"#utility.yul\":2191:2237   */\n      swap2\n      pop\n        /* \"#utility.yul\":1960:2243   */\n      pop\n        /* \"#utility.yul\":1870:2243   */\n      swap3\n      swap2\n      pop\n      pop\n      jump\t// out\n        /* \"#utility.yul\":2249:2558   */\n    tag_14:\n        /* \"#utility.yul\":2360:2364   */\n      0x00\n        /* \"#utility.yul\":2398:2400   */\n      0x20\n        /* \"#utility.yul\":2387:2396   */\n      dup3\n        /* \"#utility.yul\":2383:2401   */\n      add\n        /* \"#utility.yul\":2375:2401   */\n      swap1\n      pop\n        /* \"#utility.yul\":2447:2456   */\n      dup2\n        /* \"#utility.yul\":2441:2445   */\n      dup2\n        /* \"#utility.yul\":2437:2457   */\n      sub\n        /* \"#utility.yul\":2433:2434   */\n      0x00\n        /* \"#utility.yul\":2422:2431   */\n      dup4\n        /* \"#utility.yul\":2418:2435   */\n      add\n        /* \"#utility.yul\":2411:2458   */\n      mstore\n        /* \"#utility.yul\":2475:2551   */\n      tag_113\n        /* \"#utility.yul\":2546:2550   */\n      dup2\n        /* \"#utility.yul\":2537:2543   */\n      dup5\n        /* \"#utility.yul\":2475:2551   */\n      tag_57\n      jump\t// in\n    tag_113:\n        /* \"#utility.yul\":2467:2551   */\n      swap1\n      pop\n        /* \"#utility.yul\":2249:2558   */\n      swap3\n      swap2\n      pop\n      pop\n      jump\t// out\n        /* \"#utility.yul\":2564:2711   */\n    tag_58:\n        /* \"#utility.yul\":2665:2676   */\n      0x00\n        /* \"#utility.yul\":2702:2705   */\n      dup2\n        /* \"#utility.yul\":2687:2705   */\n      swap1\n      pop\n        /* \"#utility.yul\":2564:2711   */\n      swap3\n      swap2\n      pop\n      pop\n      jump\t// out\n        /* \"#utility.yul\":2717:2831   */\n    tag_59:\n      pop\n      jump\t// out\n        /* \"#utility.yul\":2837:3235   */\n    tag_60:\n        /* \"#utility.yul\":2996:2999   */\n      0x00\n        /* \"#utility.yul\":3017:3100   */\n      tag_117\n        /* \"#utility.yul\":3098:3099   */\n      0x00\n        /* \"#utility.yul\":3093:3096   */\n      dup4\n        /* \"#utility.yul\":3017:3100   */\n      tag_58\n      jump\t// in\n    tag_117:\n        /* \"#utility.yul\":3010:3100   */\n      swap2\n      pop\n        /* \"#utility.yul\":3109:3202   */\n      tag_118\n        /* \"#utility.yul\":3198:3201   */\n      dup3\n        /* \"#utility.yul\":3109:3202   */\n      tag_59\n      jump\t// in\n    tag_118:\n        /* \"#utility.yul\":3227:3228   */\n      0x00\n        /* \"#utility.yul\":3222:3225   */\n      dup3\n        /* \"#utility.yul\":3218:3229   */\n      add\n        /* \"#utility.yul\":3211:3229   */\n      swap1\n      pop\n        /* \"#utility.yul\":2837:3235   */\n      swap2\n      swap1\n      pop\n      jump\t// out\n        /* \"#utility.yul\":3241:3620   */\n    tag_23:\n        /* \"#utility.yul\":3425:3428   */\n      0x00\n        /* \"#utility.yul\":3447:3594   */\n      tag_120\n        /* \"#utility.yul\":3590:3593   */\n      dup3\n        /* \"#utility.yul\":3447:3594   */\n      tag_60\n      jump\t// in\n    tag_120:\n        /* \"#utility.yul\":3440:3594   */\n      swap2\n      pop\n        /* \"#utility.yul\":3611:3614   */\n      dup2\n        /* \"#utility.yul\":3604:3614   */\n      swap1\n      pop\n        /* \"#utility.yul\":3241:3620   */\n      swap2\n      swap1\n      pop\n      jump\t// out\n        /* \"#utility.yul\":3626:3806   */\n    tag_61:\n        /* \"#utility.yul\":3674:3751   */\n      0x4e487b7100000000000000000000000000000000000000000000000000000000\n        /* \"#utility.yul\":3671:3672   */\n      0x00\n        /* \"#utility.yul\":3664:3752   */\n      mstore\n        /* \"#utility.yul\":3771:3775   */\n      0x41\n        /* \"#utility.yul\":3768:3769   */\n      0x04\n        /* \"#utility.yul\":3761:3776   */\n      mstore\n        /* \"#utility.yul\":3795:3799   */\n      0x24\n        /* \"#utility.yul\":3792:3793   */\n      0x00\n        /* \"#utility.yul\":3785:3800   */\n      revert\n        /* \"#utility.yul\":3812:3992   */\n    tag_62:\n        /* \"#utility.yul\":3860:3937   */\n      0x4e487b7100000000000000000000000000000000000000000000000000000000\n        /* \"#utility.yul\":3857:3858   */\n      0x00\n        /* \"#utility.yul\":3850:3938   */\n      mstore\n        /* \"#utility.yul\":3957:3961   */\n      0x22\n        /* \"#utility.yul\":3954:3955   */\n      0x04\n        /* \"#utility.yul\":3947:3962   */\n      mstore\n        /* \"#utility.yul\":3981:3985   */\n      0x24\n        /* \"#utility.yul\":3978:3979   */\n      0x00\n        /* \"#utility.yul\":3971:3986   */\n      revert\n        /* \"#utility.yul\":3998:4318   */\n    tag_33:\n        /* \"#utility.yul\":4042:4048   */\n      0x00\n        /* \"#utility.yul\":4079:4080   */\n      0x02\n        /* \"#utility.yul\":4073:4077   */\n      dup3\n        /* \"#utility.yul\":4069:4081   */\n      div\n        /* \"#utility.yul\":4059:4081   */\n      swap1\n      pop\n        /* \"#utility.yul\":4126:4127   */\n      0x01\n        /* \"#utility.yul\":4120:4124   */\n      dup3\n        /* \"#utility.yul\":4116:4128   */\n      and\n        /* \"#utility.yul\":4147:4165   */\n      dup1\n        /* \"#utility.yul\":4137:4218   */\n      tag_124\n      jumpi\n        /* \"#utility.yul\":4203:4207   */\n      0x7f\n        /* \"#utility.yul\":4195:4201   */\n      dup3\n        /* \"#utility.yul\":4191:4208   */\n      and\n        /* \"#utility.yul\":4181:4208   */\n      swap2\n      pop\n        /* \"#utility.yul\":4137:4218   */\n    tag_124:\n        /* \"#utility.yul\":4265:4267   */\n      0x20\n        /* \"#utility.yul\":4257:4263   */\n      dup3\n        /* \"#utility.yul\":4254:4268   */\n      lt\n        /* \"#utility.yul\":4234:4252   */\n      dup2\n        /* \"#utility.yul\":4231:4269   */\n      sub\n        /* \"#utility.yul\":4228:4312   */\n      tag_125\n      jumpi\n        /* \"#utility.yul\":4284:4302   */\n      tag_126\n      tag_62\n      jump\t// in\n    tag_126:\n        /* \"#utility.yul\":4228:4312   */\n    tag_125:\n        /* \"#utility.yul\":4049:4318   */\n      pop\n        /* \"#utility.yul\":3998:4318   */\n      swap2\n      swap1\n      pop\n      jump\t// out\n        /* \"#utility.yul\":4324:4464   */\n    tag_63:\n        /* \"#utility.yul\":4372:4376   */\n      0x00\n        /* \"#utility.yul\":4395:4398   */\n      dup2\n        /* \"#utility.yul\":4387:4398   */\n      swap1\n      pop\n        /* \"#utility.yul\":4418:4421   */\n      dup2\n        /* \"#utility.yul\":4415:4416   */\n      0x00\n        /* \"#utility.yul\":4408:4422   */\n      mstore\n        /* \"#utility.yul\":4452:4456   */\n      0x20\n        /* \"#utility.yul\":4449:4450   */\n      0x00\n        /* \"#utility.yul\":4439:4457   */\n      keccak256\n        /* \"#utility.yul\":4431:4457   */\n      swap1\n      pop\n        /* \"#utility.yul\":4324:4464   */\n      swap2\n      swap1\n      pop\n      jump\t// out\n        /* \"#utility.yul\":4470:4563   */\n    tag_64:\n        /* \"#utility.yul\":4507:4513   */\n      0x00\n        /* \"#utility.yul\":4554:4556   */\n      0x20\n        /* \"#utility.yul\":4549:4551   */\n      0x1f\n        /* \"#utility.yul\":4542:4547   */\n      dup4\n        /* \"#utility.yul\":4538:4552   */\n      add\n        /* \"#utility.yul\":4534:4557   */\n      div\n        /* \"#utility.yul\":4524:4557   */\n      swap1\n      pop\n        /* \"#utility.yul\":4470:4563   */\n      swap2\n      swap1\n      pop\n      jump\t// out\n        /* \"#utility.yul\":4569:4676   */\n    tag_65:\n        /* \"#utility.yul\":4613:4621   */\n      0x00\n        /* \"#utility.yul\":4663:4668   */\n      dup3\n        /* \"#utility.yul\":4657:4661   */\n      dup3\n        /* \"#utility.yul\":4653:4669   */\n      shl\n        /* \"#utility.yul\":4632:4669   */\n      swap1\n      pop\n        /* \"#utility.yul\":4569:4676   */\n      swap3\n      swap2\n      pop\n      pop\n      jump\t// out\n        /* \"#utility.yul\":4682:5075   */\n    tag_66:\n        /* \"#utility.yul\":4751:4757   */\n      0x00\n        /* \"#utility.yul\":4801:4802   */\n      0x08\n        /* \"#utility.yul\":4789:4799   */\n      dup4\n        /* \"#utility.yul\":4785:4803   */\n      mul\n        /* \"#utility.yul\":4824:4921   */\n      tag_131\n        /* \"#utility.yul\":4854:4920   */\n      0xffffffffffffffffffffffffffffffffffffffffffffffffffffffffffffffff\n        /* \"#utility.yul\":4843:4852   */\n      dup3\n        /* \"#utility.yul\":4824:4921   */\n      tag_65\n      jump\t// in\n    tag_131:\n        /* \"#utility.yul\":4942:4981   */\n      tag_132\n        /* \"#utility.yul\":4972:4980   */\n      dup7\n        /* \"#utility.yul\":4961:4970   */\n      dup4\n        /* \"#utility.yul\":4942:4981   */\n      tag_65\n      jump\t// in\n    tag_132:\n        /* \"#utility.yul\":4930:4981   */\n      swap6\n      pop\n        /* \"#utility.yul\":5014:5018   */\n      dup1\n        /* \"#utility.yul\":5010:5019   */\n      not\n        /* \"#utility.yul\":5003:5008   */\n      dup5\n        /* \"#utility.yul\":4999:5020   */\n      and\n        /* \"#utility.yul\":4990:5020   */\n      swap4\n      pop\n        /* \"#utility.yul\":5063:5067   */\n      dup1\n        /* \"#utility.yul\":5053:5061   */\n      dup7\n        /* \"#utility.yul\":5049:5068   */\n      and\n        /* \"#utility.yul\":5042:5047   */\n      dup5\n        /* \"#utility.yul\":5039:5069   */\n      or\n        /* \"#utility.yul\":5029:5069   */\n      swap3\n      pop\n        /* \"#utility.yul\":4758:5075   */\n      pop\n      pop\n        /* \"#utility.yul\":4682:5075   */\n      swap4\n      swap3\n      pop\n      pop\n      pop\n      jump\t// out\n        /* \"#utility.yul\":5081:5158   */\n    tag_67:\n        /* \"#utility.yul\":5118:5125   */\n      0x00\n        /* \"#utility.yul\":5147:5152   */\n      dup2\n        /* \"#utility.yul\":5136:5152   */\n      swap1\n      pop\n        /* \"#utility.yul\":5081:5158   */\n      swap2\n      swap1\n      pop\n      jump\t// out\n        /* \"#utility.yul\":5164:5224   */\n    tag_68:\n        /* \"#utility.yul\":5192:5195   */\n      0x00\n        /* \"#utility.yul\":5213:5218   */\n      dup2\n        /* \"#utility.yul\":5206:5218   */\n      swap1\n      pop\n        /* \"#utility.yul\":5164:5224   */\n      swap2\n      swap1\n      pop\n      jump\t// out\n        /* \"#utility.yul\":5230:5372   */\n    tag_69:\n        /* \"#utility.yul\":5280:5289   */\n      0x00\n        /* \"#utility.yul\":5313:5366   */\n      tag_136\n        /* \"#utility.yul\":5331:5365   */\n      tag_137\n        /* \"#utility.yul\":5340:5364   */\n      tag_138\n        /* \"#utility.yul\":5358:5363   */\n      dup5\n        /* \"#utility.yul\":5340:5364   */\n      tag_67\n      jump\t// in\n    tag_138:\n        /* \"#utility.yul\":5331:5365   */\n      tag_68\n      jump\t// in\n    tag_137:\n        /* \"#utility.yul\":5313:5366   */\n      tag_67\n      jump\t// in\n    tag_136:\n        /* \"#utility.yul\":5300:5366   */\n      swap1\n      pop\n        /* \"#utility.yul\":5230:5372   */\n      swap2\n      swap1\n      pop\n      jump\t// out\n        /* \"#utility.yul\":5378:5453   */\n    tag_70:\n        /* \"#utility.yul\":5421:5424   */\n      0x00\n        /* \"#utility.yul\":5442:5447   */\n      dup2\n        /* \"#utility.yul\":5435:5447   */\n      swap1\n      pop\n        /* \"#utility.yul\":5378:5453   */\n      swap2\n      swap1\n      pop\n      jump\t// out\n        /* \"#utility.yul\":5459:5728   */\n    tag_71:\n        /* \"#utility.yul\":5569:5608   */\n      tag_141\n        /* \"#utility.yul\":5600:5607   */\n      dup4\n        /* \"#utility.yul\":5569:5608   */\n      tag_69\n      jump\t// in\n    tag_141:\n        /* \"#utility.yul\":5630:5721   */\n      tag_142\n        /* \"#utility.yul\":5679:5720   */\n      tag_143\n        /* \"#utility.yul\":5703:5719   */\n      dup3\n        /* \"#utility.yul\":5679:5720   */\n      tag_70\n      jump\t// in\n    tag_143:\n        /* \"#utility.yul\":5671:5677   */\n      dup5\n        /* \"#utility.yul\":5664:5668   */\n      dup5\n        /* \"#utility.yul\":5658:5669   */\n      sload\n        /* \"#utility.yul\":5630:5721   */\n      tag_66\n      jump\t// in\n    tag_142:\n        /* \"#utility.yul\":5624:5628   */\n      dup3\n        /* \"#utility.yul\":5617:5722   */\n      sstore\n        /* \"#utility.yul\":5535:5728   */\n      pop\n        /* \"#utility.yul\":5459:5728   */\n      pop\n      pop\n      pop\n      jump\t// out\n        /* \"#utility.yul\":5734:5807   */\n    tag_72:\n        /* \"#utility.yul\":5779:5782   */\n      0x00\n        /* \"#utility.yul\":5734:5807   */\n      swap1\n      jump\t// out\n        /* \"#utility.yul\":5813:6002   */\n    tag_73:\n        /* \"#utility.yul\":5890:5922   */\n      tag_146\n      tag_72\n      jump\t// in\n    tag_146:\n        /* \"#utility.yul\":5931:5996   */\n      tag_147\n        /* \"#utility.yul\":5989:5995   */\n      dup2\n        /* \"#utility.yul\":5981:5987   */\n      dup5\n        /* \"#utility.yul\":5975:5979   */\n      dup5\n        /* \"#utility.yul\":5931:5996   */\n      tag_71\n      jump\t// in\n    tag_147:\n        /* \"#utility.yul\":5866:6002   */\n      pop\n        /* \"#utility.yul\":5813:6002   */\n      pop\n      pop\n      jump\t// out\n        /* \"#utility.yul\":6008:6194   */\n    tag_74:\n        /* \"#utility.yul\":6068:6188   */\n    tag_149:\n        /* \"#utility.yul\":6085:6088   */\n      dup2\n        /* \"#utility.yul\":6078:6083   */\n      dup2\n        /* \"#utility.yul\":6075:6089   */\n      lt\n        /* \"#utility.yul\":6068:6188   */\n      iszero\n      tag_151\n      jumpi\n        /* \"#utility.yul\":6139:6178   */\n      tag_152\n        /* \"#utility.yul\":6176:6177   */\n      0x00\n        /* \"#utility.yul\":6169:6174   */\n      dup3\n        /* \"#utility.yul\":6139:6178   */\n      tag_73\n      jump\t// in\n    tag_152:\n        /* \"#utility.yul\":6112:6113   */\n      0x01\n        /* \"#utility.yul\":6105:6110   */\n      dup2\n        /* \"#utility.yul\":6101:6114   */\n      add\n        /* \"#utility.yul\":6092:6114   */\n      swap1\n      pop\n        /* \"#utility.yul\":6068:6188   */\n      jump(tag_149)\n    tag_151:\n        /* \"#utility.yul\":6008:6194   */\n      pop\n      pop\n      jump\t// out\n        /* \"#utility.yul\":6200:6741   */\n    tag_75:\n        /* \"#utility.yul\":6300:6302   */\n      0x1f\n        /* \"#utility.yul\":6295:6298   */\n      dup3\n        /* \"#utility.yul\":6292:6303   */\n      gt\n        /* \"#utility.yul\":6289:6734   */\n      iszero\n      tag_154\n      jumpi\n        /* \"#utility.yul\":6334:6371   */\n      tag_155\n        /* \"#utility.yul\":6365:6370   */\n      dup2\n        /* \"#utility.yul\":6334:6371   */\n      tag_63\n      jump\t// in\n    tag_155:\n        /* \"#utility.yul\":6417:6446   */\n      tag_156\n        /* \"#utility.yul\":6435:6445   */\n      dup5\n        /* \"#utility.yul\":6417:6446   */\n      tag_64\n      jump\t// in\n    tag_156:\n        /* \"#utility.yul\":6407:6415   */\n      dup2\n        /* \"#utility.yul\":6403:6447   */\n      add\n        /* \"#utility.yul\":6600:6602   */\n      0x20\n        /* \"#utility.yul\":6588:6598   */\n      dup6\n        /* \"#utility.yul\":6585:6603   */\n      lt\n        /* \"#utility.yul\":6582:6631   */\n      iszero\n      tag_157\n      jumpi\n        /* \"#utility.yul\":6621:6629   */\n      dup2\n        /* \"#utility.yul\":6606:6629   */\n      swap1\n      pop\n        /* \"#utility.yul\":6582:6631   */\n    tag_157:\n        /* \"#utility.yul\":6644:6724   */\n      tag_158\n        /* \"#utility.yul\":6700:6722   */\n      tag_159\n        /* \"#utility.yul\":6718:6721   */\n      dup6\n        /* \"#utility.yul\":6700:6722   */\n      tag_64\n      jump\t// in\n    tag_159:\n        /* \"#utility.yul\":6690:6698   */\n      dup4\n        /* \"#utility.yul\":6686:6723   */\n      add\n        /* \"#utility.yul\":6673:6684   */\n      dup3\n        /* \"#utility.yul\":6644:6724   */\n      tag_74\n      jump\t// in\n    tag_158:\n        /* \"#utility.yul\":6304:6734   */\n      pop\n      pop\n        /* \"#utility.yul\":6289:6734   */\n    tag_154:\n        /* \"#utility.yul\":6200:6741   */\n      pop\n      pop\n      pop\n      jump\t// out\n        /* \"#utility.yul\":6747:6864   */\n    tag_76:\n        /* \"#utility.yul\":6801:6809   */\n      0x00\n        /* \"#utility.yul\":6851:6856   */\n      dup3\n        /* \"#utility.yul\":6845:6849   */\n      dup3\n        /* \"#utility.yul\":6841:6857   */\n      shr\n        /* \"#utility.yul\":6820:6857   */\n      swap1\n      pop\n        /* \"#utility.yul\":6747:6864   */\n      swap3\n      swap2\n      pop\n      pop\n      jump\t// out\n        /* \"#utility.yul\":6870:7039   */\n    tag_77:\n        /* \"#utility.yul\":6914:6920   */\n      0x00\n        /* \"#utility.yul\":6947:6998   */\n      tag_162\n        /* \"#utility.yul\":6995:6996   */\n      0x00\n        /* \"#utility.yul\":6991:6997   */\n      not\n        /* \"#utility.yul\":6983:6988   */\n      dup5\n        /* \"#utility.yul\":6980:6981   */\n      0x08\n        /* \"#utility.yul\":6976:6989   */\n      mul\n        /* \"#utility.yul\":6947:6998   */\n      tag_76\n      jump\t// in\n    tag_162:\n        /* \"#utility.yul\":6943:6999   */\n      not\n        /* \"#utility.yul\":7028:7032   */\n      dup1\n        /* \"#utility.yul\":7022:7026   */\n      dup4\n        /* \"#utility.yul\":7018:7033   */\n      and\n        /* \"#utility.yul\":7008:7033   */\n      swap2\n      pop\n        /* \"#utility.yul\":6921:7039   */\n      pop\n        /* \"#utility.yul\":6870:7039   */\n      swap3\n      swap2\n      pop\n      pop\n      jump\t// out\n        /* \"#utility.yul\":7044:7339   */\n    tag_78:\n        /* \"#utility.yul\":7120:7124   */\n      0x00\n        /* \"#utility.yul\":7266:7295   */\n      tag_164\n        /* \"#utility.yul\":7291:7294   */\n      dup4\n        /* \"#utility.yul\":7285:7289   */\n      dup4\n        /* \"#utility.yul\":7266:7295   */\n      tag_77\n      jump\t// in\n    tag_164:\n        /* \"#utility.yul\":7258:7295   */\n      swap2\n      pop\n        /* \"#utility.yul\":7328:7331   */\n      dup3\n        /* \"#utility.yul\":7325:7326   */\n      0x02\n        /* \"#utility.yul\":7321:7332   */\n      mul\n        /* \"#utility.yul\":7315:7319   */\n      dup3\n        /* \"#utility.yul\":7312:7333   */\n      or\n        /* \"#utility.yul\":7304:7333   */\n      swap1\n      pop\n        /* \"#utility.yul\":7044:7339   */\n      swap3\n      swap2\n      pop\n      pop\n      jump\t// out\n        /* \"#utility.yul\":7344:8734   */\n    tag_28:\n        /* \"#utility.yul\":7459:7495   */\n      tag_166\n        /* \"#utility.yul\":7491:7494   */\n      dup3\n        /* \"#utility.yul\":7459:7495   */\n      tag_53\n      jump\t// in\n    tag_166:\n        /* \"#utility.yul\":7560:7578   */\n      0xffffffffffffffff\n        /* \"#utility.yul\":7552:7558   */\n      dup2\n        /* \"#utility.yul\":7549:7579   */\n      gt\n        /* \"#utility.yul\":7546:7602   */\n      iszero\n      tag_167\n      jumpi\n        /* \"#utility.yul\":7582:7600   */\n      tag_168\n      tag_61\n      jump\t// in\n    tag_168:\n        /* \"#utility.yul\":7546:7602   */\n    tag_167:\n        /* \"#utility.yul\":7626:7664   */\n      tag_169\n        /* \"#utility.yul\":7658:7662   */\n      dup3\n        /* \"#utility.yul\":7652:7663   */\n      sload\n        /* \"#utility.yul\":7626:7664   */\n      tag_33\n      jump\t// in\n    tag_169:\n        /* \"#utility.yul\":7711:7777   */\n      tag_170\n        /* \"#utility.yul\":7770:7776   */\n      dup3\n        /* \"#utility.yul\":7762:7768   */\n      dup3\n        /* \"#utility.yul\":7756:7760   */\n      dup6\n        /* \"#utility.yul\":7711:7777   */\n      tag_75\n      jump\t// in\n    tag_170:\n        /* \"#utility.yul\":7804:7805   */\n      0x00\n        /* \"#utility.yul\":7828:7832   */\n      0x20\n        /* \"#utility.yul\":7815:7832   */\n      swap1\n      pop\n        /* \"#utility.yul\":7860:7862   */\n      0x1f\n        /* \"#utility.yul\":7852:7858   */\n      dup4\n        /* \"#utility.yul\":7849:7863   */\n      gt\n        /* \"#utility.yul\":7877:7878   */\n      0x01\n        /* \"#utility.yul\":7872:8489   */\n      dup2\n      eq\n      tag_172\n      jumpi\n        /* \"#utility.yul\":8533:8534   */\n      0x00\n        /* \"#utility.yul\":8550:8556   */\n      dup5\n        /* \"#utility.yul\":8547:8624   */\n      iszero\n      tag_173\n      jumpi\n        /* \"#utility.yul\":8599:8608   */\n      dup3\n        /* \"#utility.yul\":8594:8597   */\n      dup8\n        /* \"#utility.yul\":8590:8609   */\n      add\n        /* \"#utility.yul\":8584:8610   */\n      mload\n        /* \"#utility.yul\":8575:8610   */\n      swap1\n      pop\n        /* \"#utility.yul\":8547:8624   */\n    tag_173:\n        /* \"#utility.yul\":8650:8717   */\n      tag_174\n        /* \"#utility.yul\":8710:8716   */\n      dup6\n        /* \"#utility.yul\":8703:8708   */\n      dup3\n        /* \"#utility.yul\":8650:8717   */\n      tag_78\n      jump\t// in\n    tag_174:\n        /* \"#utility.yul\":8644:8648   */\n      dup7\n        /* \"#utility.yul\":8637:8718   */\n      sstore\n        /* \"#utility.yul\":8506:8728   */\n      pop\n        /* \"#utility.yul\":7842:8728   */\n      jump(tag_171)\n        /* \"#utility.yul\":7872:8489   */\n    tag_172:\n        /* \"#utility.yul\":7924:7928   */\n      0x1f\n        /* \"#utility.yul\":7920:7929   */\n      not\n        /* \"#utility.yul\":7912:7918   */\n      dup5\n        /* \"#utility.yul\":7908:7930   */\n      and\n        /* \"#utility.yul\":7958:7994   */\n      tag_175\n        /* \"#utility.yul\":7989:7993   */\n      dup7\n        /* \"#utility.yul\":7958:7994   */\n      tag_63\n      jump\t// in\n    tag_175:\n        /* \"#utility.yul\":8016:8017   */\n      0x00\n        /* \"#utility.yul\":8030:8238   */\n    tag_176:\n        /* \"#utility.yul\":8044:8051   */\n      dup3\n        /* \"#utility.yul\":8041:8042   */\n      dup2\n        /* \"#utility.yul\":8038:8052   */\n      lt\n        /* \"#utility.yul\":8030:8238   */\n      iszero\n      tag_178\n      jumpi\n        /* \"#utility.yul\":8123:8132   */\n      dup5\n        /* \"#utility.yul\":8118:8121   */\n      dup10\n        /* \"#utility.yul\":8114:8133   */\n      add\n        /* \"#utility.yul\":8108:8134   */\n      mload\n        /* \"#utility.yul\":8100:8106   */\n      dup3\n        /* \"#utility.yul\":8093:8135   */\n      sstore\n        /* \"#utility.yul\":8174:8175   */\n      0x01\n        /* \"#utility.yul\":8166:8172   */\n      dup3\n        /* \"#utility.yul\":8162:8176   */\n      add\n        /* \"#utility.yul\":8152:8176   */\n      swap2\n      pop\n        /* \"#utility.yul\":8221:8223   */\n      0x20\n        /* \"#utility.yul\":8210:8219   */\n      dup6\n        /* \"#utility.yul\":8206:8224   */\n      add\n        /* \"#utility.yul\":8193:8224   */\n      swap5\n      pop\n        /* \"#utility.yul\":8067:8071   */\n      0x20\n        /* \"#utility.yul\":8064:8065   */\n      dup2\n        /* \"#utility.yul\":8060:8072   */\n      add\n        /* \"#utility.yul\":8055:8072   */\n      swap1\n      pop\n        /* \"#utility.yul\":8030:8238   */\n      jump(tag_176)\n    tag_178:\n        /* \"#utility.yul\":8266:8272   */\n      dup7\n        /* \"#utility.yul\":8257:8264   */\n      dup4\n        /* \"#utility.yul\":8254:8273   */\n      lt\n        /* \"#utility.yul\":8251:8430   */\n      iszero\n      tag_179\n      jumpi\n        /* \"#utility.yul\":8324:8333   */\n      dup5\n        /* \"#utility.yul\":8319:8322   */\n      dup10\n        /* \"#utility.yul\":8315:8334   */\n      add\n        /* \"#utility.yul\":8309:8335   */\n      mload\n        /* \"#utility.yul\":8367:8415   */\n      tag_180\n        /* \"#utility.yul\":8409:8413   */\n      0x1f\n        /* \"#utility.yul\":8401:8407   */\n      dup10\n        /* \"#utility.yul\":8397:8414   */\n      and\n        /* \"#utility.yul\":8386:8395   */\n      dup3\n        /* \"#utility.yul\":8367:8415   */\n      tag_77\n      jump\t// in\n    tag_180:\n        /* \"#utility.yul\":8359:8365   */\n      dup4\n        /* \"#utility.yul\":8352:8416   */\n      sstore\n        /* \"#utility.yul\":8274:8430   */\n      pop\n        /* \"#utility.yul\":8251:8430   */\n    tag_179:\n        /* \"#utility.yul\":8476:8477   */\n      0x01\n        /* \"#utility.yul\":8472:8473   */\n      0x02\n        /* \"#utility.yul\":8464:8470   */\n      dup9\n        /* \"#utility.yul\":8460:8474   */\n      mul\n        /* \"#utility.yul\":8456:8478   */\n      add\n        /* \"#utility.yul\":8450:8454   */\n      dup9\n        /* \"#utility.yul\":8443:8479   */\n      sstore\n        /* \"#utility.yul\":7879:8489   */\n      pop\n      pop\n      pop\n        /* \"#utility.yul\":7842:8728   */\n    tag_171:\n      pop\n        /* \"#utility.yul\":7434:8734   */\n      pop\n      pop\n      pop\n        /* \"#utility.yul\":7344:8734   */\n      pop\n      pop\n      jump\t// out\n        /* \"#utility.yul\":8740:8909   */\n    tag_79:\n        /* \"#utility.yul\":8824:8835   */\n      0x00\n        /* \"#utility.yul\":8858:8864   */\n      dup3\n        /* \"#utility.yul\":8853:8856   */\n      dup3\n        /* \"#utility.yul\":8846:8865   */\n      mstore\n        /* \"#utility.yul\":8898:8902   */\n      0x20\n        /* \"#utility.yul\":8893:8896   */\n      dup3\n        /* \"#utility.yul\":8889:8903   */\n      add\n        /* \"#utility.yul\":8874:8903   */\n      swap1\n      pop\n        /* \"#utility.yul\":8740:8909   */\n      swap3\n      swap2\n      pop\n      pop\n      jump\t// out\n        /* \"#utility.yul\":8915:9083   */\n    tag_80:\n        /* \"#utility.yul\":9055:9075   */\n      0x4661696c656420746f207472616e736665720000000000000000000000000000\n        /* \"#utility.yul\":9051:9052   */\n      0x00\n        /* \"#utility.yul\":9043:9049   */\n      dup3\n        /* \"#utility.yul\":9039:9053   */\n      add\n        /* \"#utility.yul\":9032:9076   */\n      mstore\n        /* \"#utility.yul\":8915:9083   */\n      pop\n      jump\t// out\n        /* \"#utility.yul\":9089:9455   */\n    tag_81:\n        /* \"#utility.yul\":9231:9234   */\n      0x00\n        /* \"#utility.yul\":9252:9319   */\n      tag_184\n        /* \"#utility.yul\":9316:9318   */\n      0x12\n        /* \"#utility.yul\":9311:9314   */\n      dup4\n        /* \"#utility.yul\":9252:9319   */\n      tag_79\n      jump\t// in\n    tag_184:\n        /* \"#utility.yul\":9245:9319   */\n      swap2\n      pop\n        /* \"#utility.yul\":9328:9421   */\n      tag_185\n        /* \"#utility.yul\":9417:9420   */\n      dup3\n        /* \"#utility.yul\":9328:9421   */\n      tag_80\n      jump\t// in\n    tag_185:\n        /* \"#utility.yul\":9446:9448   */\n      0x20\n        /* \"#utility.yul\":9441:9444   */\n      dup3\n        /* \"#utility.yul\":9437:9449   */\n      add\n        /* \"#utility.yul\":9430:9449   */\n      swap1\n      pop\n        /* \"#utility.yul\":9089:9455   */\n      swap2\n      swap1\n      pop\n      jump\t// out\n        /* \"#utility.yul\":9461:9880   */\n    tag_31:\n        /* \"#utility.yul\":9627:9631   */\n      0x00\n        /* \"#utility.yul\":9665:9667   */\n      0x20\n        /* \"#utility.yul\":9654:9663   */\n      dup3\n        /* \"#utility.yul\":9650:9668   */\n      add\n        /* \"#utility.yul\":9642:9668   */\n      swap1\n      pop\n        /* \"#utility.yul\":9714:9723   */\n      dup2\n        /* \"#utility.yul\":9708:9712   */\n      dup2\n        /* \"#utility.yul\":9704:9724   */\n      sub\n        /* \"#utility.yul\":9700:9701   */\n      0x00\n        /* \"#utility.yul\":9689:9698   */\n      dup4\n        /* \"#utility.yul\":9685:9702   */\n      add\n        /* \"#utility.yul\":9678:9725   */\n      mstore\n        /* \"#utility.yul\":9742:9873   */\n      tag_187\n        /* \"#utility.yul\":9868:9872   */\n      dup2\n        /* \"#utility.yul\":9742:9873   */\n      tag_81\n      jump\t// in\n    tag_187:\n        /* \"#utility.yul\":9734:9873   */\n      swap1\n      pop\n        /* \"#utility.yul\":9461:9880   */\n      swap2\n      swap1\n      pop\n      jump\t// out\n        /* \"#utility.yul\":9886:10060   */\n    tag_82:\n        /* \"#utility.yul\":10026:10052   */\n      0x6661696c656420746f207472616e736665722045746865720000000000000000\n        /* \"#utility.yul\":10022:10023   */\n      0x00\n        /* \"#utility.yul\":10014:10020   */\n      dup3\n        /* \"#utility.yul\":10010:10024   */\n      add\n        /* \"#utility.yul\":10003:10053   */\n      mstore\n        /* \"#utility.yul\":9886:10060   */\n      pop\n      jump\t// out\n        /* \"#utility.yul\":10066:10432   */\n    tag_83:\n        /* \"#utility.yul\":10208:10211   */\n      0x00\n        /* \"#utility.yul\":10229:10296   */\n      tag_190\n        /* \"#utility.yul\":10293:10295   */\n      0x18\n        /* \"#utility.yul\":10288:10291   */\n      dup4\n        /* \"#utility.yul\":10229:10296   */\n      tag_79\n      jump\t// in\n    tag_190:\n        /* \"#utility.yul\":10222:10296   */\n      swap2\n      pop\n        /* \"#utility.yul\":10305:10398   */\n      tag_191\n        /* \"#utility.yul\":10394:10397   */\n      dup3\n        /* \"#utility.yul\":10305:10398   */\n      tag_82\n      jump\t// in\n    tag_191:\n        /* \"#utility.yul\":10423:10425   */\n      0x20\n        /* \"#utility.yul\":10418:10421   */\n      dup3\n        /* \"#utility.yul\":10414:10426   */\n      add\n        /* \"#utility.yul\":10407:10426   */\n      swap1\n      pop\n        /* \"#utility.yul\":10066:10432   */\n      swap2\n      swap1\n      pop\n      jump\t// out\n        /* \"#utility.yul\":10438:10857   */\n    tag_42:\n        /* \"#utility.yul\":10604:10608   */\n      0x00\n        /* \"#utility.yul\":10642:10644   */\n      0x20\n        /* \"#utility.yul\":10631:10640   */\n      dup3\n        /* \"#utility.yul\":10627:10645   */\n      add\n        /* \"#utility.yul\":10619:10645   */\n      swap1\n      pop\n        /* \"#utility.yul\":10691:10700   */\n      dup2\n        /* \"#utility.yul\":10685:10689   */\n      dup2\n        /* \"#utility.yul\":10681:10701   */\n      sub\n        /* \"#utility.yul\":10677:10678   */\n      0x00\n        /* \"#utility.yul\":10666:10675   */\n      dup4\n        /* \"#utility.yul\":10662:10679   */\n      add\n        /* \"#utility.yul\":10655:10702   */\n      mstore\n        /* \"#utility.yul\":10719:10850   */\n      tag_193\n        /* \"#utility.yul\":10845:10849   */\n      dup2\n        /* \"#utility.yul\":10719:10850   */\n      tag_83\n      jump\t// in\n    tag_193:\n        /* \"#utility.yul\":10711:10850   */\n      swap1\n      pop\n        /* \"#utility.yul\":10438:10857   */\n      swap2\n      swap1\n      pop\n      jump\t// out\n\n    auxdata: 0xa2646970667358221220fe3b0e9cf1de113977aa70b786f76190447d1417ee13dccdd7174ef22480a04f64736f6c63430008120033\n}\n",
				"bytecode": {
					"linkReferences": {},
					"object": "608060405234801561001057600080fd5b5061089e806100206000396000f3fe60806040526004361061003f5760003560e01c80630ecaa01e1461004457806373d4a13a146100605780639e63c1a21461008b578063f47f66af146100a7575b600080fd5b61005e60048036038101906100599190610343565b6100c3565b005b34801561006c57600080fd5b5061007561018b565b6040516100829190610400565b60405180910390f35b6100a560048036038101906100a09190610343565b610219565b005b6100c160048036038101906100bc9190610343565b610296565b005b6000808273ffffffffffffffffffffffffffffffffffffffff16346107d0906040516100ee90610453565b600060405180830381858888f193505050503d806000811461012c576040519150601f19603f3d011682016040523d82523d6000602084013e610131565b606091505b5091509150806000908161014591906106ad565b5081610186576040517f08c379a000000000000000000000000000000000000000000000000000000000815260040161017d906107dc565b60405180910390fd5b505050565b60008054610198906104c6565b80601f01602080910402602001604051908101604052809291908181526020018280546101c4906104c6565b80156102115780601f106101e657610100808354040283529160200191610211565b820191906000526020600020905b8154815290600101906020018083116101f457829003601f168201915b505050505081565b60008173ffffffffffffffffffffffffffffffffffffffff166108fc349081150290604051600060405180830381858888f19350505050905080610292576040517f08c379a000000000000000000000000000000000000000000000000000000000815260040161028990610848565b60405180910390fd5b5050565b8073ffffffffffffffffffffffffffffffffffffffff166108fc349081150290604051600060405180830381858888f193505050501580156102dc573d6000803e3d6000fd5b5050565b600080fd5b600073ffffffffffffffffffffffffffffffffffffffff82169050919050565b6000610310826102e5565b9050919050565b61032081610305565b811461032b57600080fd5b50565b60008135905061033d81610317565b92915050565b600060208284031215610359576103586102e0565b5b60006103678482850161032e565b91505092915050565b600081519050919050565b600082825260208201905092915050565b60005b838110156103aa57808201518184015260208101905061038f565b60008484015250505050565b6000601f19601f8301169050919050565b60006103d282610370565b6103dc818561037b565b93506103ec81856020860161038c565b6103f5816103b6565b840191505092915050565b6000602082019050818103600083015261041a81846103c7565b905092915050565b600081905092915050565b50565b600061043d600083610422565b91506104488261042d565b600082019050919050565b600061045e82610430565b9150819050919050565b7f4e487b7100000000000000000000000000000000000000000000000000000000600052604160045260246000fd5b7f4e487b7100000000000000000000000000000000000000000000000000000000600052602260045260246000fd5b600060028204905060018216806104de57607f821691505b6020821081036104f1576104f0610497565b5b50919050565b60008190508160005260206000209050919050565b60006020601f8301049050919050565b600082821b905092915050565b6000600883026105597fffffffffffffffffffffffffffffffffffffffffffffffffffffffffffffffff8261051c565b610563868361051c565b95508019841693508086168417925050509392505050565b6000819050919050565b6000819050919050565b60006105aa6105a56105a08461057b565b610585565b61057b565b9050919050565b6000819050919050565b6105c48361058f565b6105d86105d0826105b1565b848454610529565b825550505050565b600090565b6105ed6105e0565b6105f88184846105bb565b505050565b5b8181101561061c576106116000826105e5565b6001810190506105fe565b5050565b601f82111561066157610632816104f7565b61063b8461050c565b8101602085101561064a578190505b61065e6106568561050c565b8301826105fd565b50505b505050565b600082821c905092915050565b600061068460001984600802610666565b1980831691505092915050565b600061069d8383610673565b9150826002028217905092915050565b6106b682610370565b67ffffffffffffffff8111156106cf576106ce610468565b5b6106d982546104c6565b6106e4828285610620565b600060209050601f8311600181146107175760008415610705578287015190505b61070f8582610691565b865550610777565b601f198416610725866104f7565b60005b8281101561074d57848901518255600182019150602085019450602081019050610728565b8683101561076a5784890151610766601f891682610673565b8355505b6001600288020188555050505b505050505050565b600082825260208201905092915050565b7f4661696c656420746f207472616e736665720000000000000000000000000000600082015250565b60006107c660128361077f565b91506107d182610790565b602082019050919050565b600060208201905081810360008301526107f5816107b9565b9050919050565b7f6661696c656420746f207472616e736665722045746865720000000000000000600082015250565b600061083260188361077f565b915061083d826107fc565b602082019050919050565b6000602082019050818103600083015261086181610825565b905091905056fea2646970667358221220fe3b0e9cf1de113977aa70b786f76190447d1417ee13dccdd7174ef22480a04f64736f6c63430008120033",
					"opcodes": "PUSH1 0x80 PUSH1 0x40 MSTORE CALLVALUE DUP1 ISZERO PUSH2 0x10 JUMPI PUSH1 0x0 DUP1 REVERT JUMPDEST POP PUSH2 0x89E DUP1 PUSH2 0x20 PUSH1 0x0 CODECOPY PUSH1 0x0 RETURN INVALID PUSH1 0x80 PUSH1 0x40 MSTORE PUSH1 0x4 CALLDATASIZE LT PUSH2 0x3F JUMPI PUSH1 0x0 CALLDATALOAD PUSH1 0xE0 SHR DUP1 PUSH4 0xECAA01E EQ PUSH2 0x44 JUMPI DUP1 PUSH4 0x73D4A13A EQ PUSH2 0x60 JUMPI DUP1 PUSH4 0x9E63C1A2 EQ PUSH2 0x8B JUMPI DUP1 PUSH4 0xF47F66AF EQ PUSH2 0xA7 JUMPI JUMPDEST PUSH1 0x0 DUP1 REVERT JUMPDEST PUSH2 0x5E PUSH1 0x4 DUP1 CALLDATASIZE SUB DUP2 ADD SWAP1 PUSH2 0x59 SWAP2 SWAP1 PUSH2 0x343 JUMP JUMPDEST PUSH2 0xC3 JUMP JUMPDEST STOP JUMPDEST CALLVALUE DUP1 ISZERO PUSH2 0x6C JUMPI PUSH1 0x0 DUP1 REVERT JUMPDEST POP PUSH2 0x75 PUSH2 0x18B JUMP JUMPDEST PUSH1 0x40 MLOAD PUSH2 0x82 SWAP2 SWAP1 PUSH2 0x400 JUMP JUMPDEST PUSH1 0x40 MLOAD DUP1 SWAP2 SUB SWAP1 RETURN JUMPDEST PUSH2 0xA5 PUSH1 0x4 DUP1 CALLDATASIZE SUB DUP2 ADD SWAP1 PUSH2 0xA0 SWAP2 SWAP1 PUSH2 0x343 JUMP JUMPDEST PUSH2 0x219 JUMP JUMPDEST STOP JUMPDEST PUSH2 0xC1 PUSH1 0x4 DUP1 CALLDATASIZE SUB DUP2 ADD SWAP1 PUSH2 0xBC SWAP2 SWAP1 PUSH2 0x343 JUMP JUMPDEST PUSH2 0x296 JUMP JUMPDEST STOP JUMPDEST PUSH1 0x0 DUP1 DUP3 PUSH20 0xFFFFFFFFFFFFFFFFFFFFFFFFFFFFFFFFFFFFFFFF AND CALLVALUE PUSH2 0x7D0 SWAP1 PUSH1 0x40 MLOAD PUSH2 0xEE SWAP1 PUSH2 0x453 JUMP JUMPDEST PUSH1 0x0 PUSH1 0x40 MLOAD DUP1 DUP4 SUB DUP2 DUP6 DUP9 DUP9 CALL SWAP4 POP POP POP POP RETURNDATASIZE DUP1 PUSH1 0x0 DUP2 EQ PUSH2 0x12C JUMPI PUSH1 0x40 MLOAD SWAP2 POP PUSH1 0x1F NOT PUSH1 0x3F RETURNDATASIZE ADD AND DUP3 ADD PUSH1 0x40 MSTORE RETURNDATASIZE DUP3 MSTORE RETURNDATASIZE PUSH1 0x0 PUSH1 0x20 DUP5 ADD RETURNDATACOPY PUSH2 0x131 JUMP JUMPDEST PUSH1 0x60 SWAP2 POP JUMPDEST POP SWAP2 POP SWAP2 POP DUP1 PUSH1 0x0 SWAP1 DUP2 PUSH2 0x145 SWAP2 SWAP1 PUSH2 0x6AD JUMP JUMPDEST POP DUP2 PUSH2 0x186 JUMPI PUSH1 0x40 MLOAD PUSH32 0x8C379A000000000000000000000000000000000000000000000000000000000 DUP2 MSTORE PUSH1 0x4 ADD PUSH2 0x17D SWAP1 PUSH2 0x7DC JUMP JUMPDEST PUSH1 0x40 MLOAD DUP1 SWAP2 SUB SWAP1 REVERT JUMPDEST POP POP POP JUMP JUMPDEST PUSH1 0x0 DUP1 SLOAD PUSH2 0x198 SWAP1 PUSH2 0x4C6 JUMP JUMPDEST DUP1 PUSH1 0x1F ADD PUSH1 0x20 DUP1 SWAP2 DIV MUL PUSH1 0x20 ADD PUSH1 0x40 MLOAD SWAP1 DUP2 ADD PUSH1 0x40 MSTORE DUP1 SWAP3 SWAP2 SWAP1 DUP2 DUP2 MSTORE PUSH1 0x20 ADD DUP3 DUP1 SLOAD PUSH2 0x1C4 SWAP1 PUSH2 0x4C6 JUMP JUMPDEST DUP1 ISZERO PUSH2 0x211 JUMPI DUP1 PUSH1 0x1F LT PUSH2 0x1E6 JUMPI PUSH2 0x100 DUP1 DUP4 SLOAD DIV MUL DUP4 MSTORE SWAP2 PUSH1 0x20 ADD SWAP2 PUSH2 0x211 JUMP JUMPDEST DUP3 ADD SWAP2 SWAP1 PUSH1 0x0 MSTORE PUSH1 0x20 PUSH1 0x0 KECCAK256 SWAP1 JUMPDEST DUP2 SLOAD DUP2 MSTORE SWAP1 PUSH1 0x1 ADD SWAP1 PUSH1 0x20 ADD DUP1 DUP4 GT PUSH2 0x1F4 JUMPI DUP3 SWAP1 SUB PUSH1 0x1F AND DUP3 ADD SWAP2 JUMPDEST POP POP POP POP POP DUP2 JUMP JUMPDEST PUSH1 0x0 DUP2 PUSH20 0xFFFFFFFFFFFFFFFFFFFFFFFFFFFFFFFFFFFFFFFF AND PUSH2 0x8FC CALLVALUE SWAP1 DUP2 ISZERO MUL SWAP1 PUSH1 0x40 MLOAD PUSH1 0x0 PUSH1 0x40 MLOAD DUP1 DUP4 SUB DUP2 DUP6 DUP9 DUP9 CALL SWAP4 POP POP POP POP SWAP1 POP DUP1 PUSH2 0x292 JUMPI PUSH1 0x40 MLOAD PUSH32 0x8C379A000000000000000000000000000000000000000000000000000000000 DUP2 MSTORE PUSH1 0x4 ADD PUSH2 0x289 SWAP1 PUSH2 0x848 JUMP JUMPDEST PUSH1 0x40 MLOAD DUP1 SWAP2 SUB SWAP1 REVERT JUMPDEST POP POP JUMP JUMPDEST DUP1 PUSH20 0xFFFFFFFFFFFFFFFFFFFFFFFFFFFFFFFFFFFFFFFF AND PUSH2 0x8FC CALLVALUE SWAP1 DUP2 ISZERO MUL SWAP1 PUSH1 0x40 MLOAD PUSH1 0x0 PUSH1 0x40 MLOAD DUP1 DUP4 SUB DUP2 DUP6 DUP9 DUP9 CALL SWAP4 POP POP POP POP ISZERO DUP1 ISZERO PUSH2 0x2DC JUMPI RETURNDATASIZE PUSH1 0x0 DUP1 RETURNDATACOPY RETURNDATASIZE PUSH1 0x0 REVERT JUMPDEST POP POP JUMP JUMPDEST PUSH1 0x0 DUP1 REVERT JUMPDEST PUSH1 0x0 PUSH20 0xFFFFFFFFFFFFFFFFFFFFFFFFFFFFFFFFFFFFFFFF DUP3 AND SWAP1 POP SWAP2 SWAP1 POP JUMP JUMPDEST PUSH1 0x0 PUSH2 0x310 DUP3 PUSH2 0x2E5 JUMP JUMPDEST SWAP1 POP SWAP2 SWAP1 POP JUMP JUMPDEST PUSH2 0x320 DUP2 PUSH2 0x305 JUMP JUMPDEST DUP2 EQ PUSH2 0x32B JUMPI PUSH1 0x0 DUP1 REVERT JUMPDEST POP JUMP JUMPDEST PUSH1 0x0 DUP2 CALLDATALOAD SWAP1 POP PUSH2 0x33D DUP2 PUSH2 0x317 JUMP JUMPDEST SWAP3 SWAP2 POP POP JUMP JUMPDEST PUSH1 0x0 PUSH1 0x20 DUP3 DUP5 SUB SLT ISZERO PUSH2 0x359 JUMPI PUSH2 0x358 PUSH2 0x2E0 JUMP JUMPDEST JUMPDEST PUSH1 0x0 PUSH2 0x367 DUP5 DUP3 DUP6 ADD PUSH2 0x32E JUMP JUMPDEST SWAP2 POP POP SWAP3 SWAP2 POP POP JUMP JUMPDEST PUSH1 0x0 DUP2 MLOAD SWAP1 POP SWAP2 SWAP1 POP JUMP JUMPDEST PUSH1 0x0 DUP3 DUP3 MSTORE PUSH1 0x20 DUP3 ADD SWAP1 POP SWAP3 SWAP2 POP POP JUMP JUMPDEST PUSH1 0x0 JUMPDEST DUP4 DUP2 LT ISZERO PUSH2 0x3AA JUMPI DUP1 DUP3 ADD MLOAD DUP2 DUP5 ADD MSTORE PUSH1 0x20 DUP2 ADD SWAP1 POP PUSH2 0x38F JUMP JUMPDEST PUSH1 0x0 DUP5 DUP5 ADD MSTORE POP POP POP POP JUMP JUMPDEST PUSH1 0x0 PUSH1 0x1F NOT PUSH1 0x1F DUP4 ADD AND SWAP1 POP SWAP2 SWAP1 POP JUMP JUMPDEST PUSH1 0x0 PUSH2 0x3D2 DUP3 PUSH2 0x370 JUMP JUMPDEST PUSH2 0x3DC DUP2 DUP6 PUSH2 0x37B JUMP JUMPDEST SWAP4 POP PUSH2 0x3EC DUP2 DUP6 PUSH1 0x20 DUP7 ADD PUSH2 0x38C JUMP JUMPDEST PUSH2 0x3F5 DUP2 PUSH2 0x3B6 JUMP JUMPDEST DUP5 ADD SWAP2 POP POP SWAP3 SWAP2 POP POP JUMP JUMPDEST PUSH1 0x0 PUSH1 0x20 DUP3 ADD SWAP1 POP DUP2 DUP2 SUB PUSH1 0x0 DUP4 ADD MSTORE PUSH2 0x41A DUP2 DUP5 PUSH2 0x3C7 JUMP JUMPDEST SWAP1 POP SWAP3 SWAP2 POP POP JUMP JUMPDEST PUSH1 0x0 DUP2 SWAP1 POP SWAP3 SWAP2 POP POP JUMP JUMPDEST POP JUMP JUMPDEST PUSH1 0x0 PUSH2 0x43D PUSH1 0x0 DUP4 PUSH2 0x422 JUMP JUMPDEST SWAP2 POP PUSH2 0x448 DUP3 PUSH2 0x42D JUMP JUMPDEST PUSH1 0x0 DUP3 ADD SWAP1 POP SWAP2 SWAP1 POP JUMP JUMPDEST PUSH1 0x0 PUSH2 0x45E DUP3 PUSH2 0x430 JUMP JUMPDEST SWAP2 POP DUP2 SWAP1 POP SWAP2 SWAP1 POP JUMP JUMPDEST PUSH32 0x4E487B7100000000000000000000000000000000000000000000000000000000 PUSH1 0x0 MSTORE PUSH1 0x41 PUSH1 0x4 MSTORE PUSH1 0x24 PUSH1 0x0 REVERT JUMPDEST PUSH32 0x4E487B7100000000000000000000000000000000000000000000000000000000 PUSH1 0x0 MSTORE PUSH1 0x22 PUSH1 0x4 MSTORE PUSH1 0x24 PUSH1 0x0 REVERT JUMPDEST PUSH1 0x0 PUSH1 0x2 DUP3 DIV SWAP1 POP PUSH1 0x1 DUP3 AND DUP1 PUSH2 0x4DE JUMPI PUSH1 0x7F DUP3 AND SWAP2 POP JUMPDEST PUSH1 0x20 DUP3 LT DUP2 SUB PUSH2 0x4F1 JUMPI PUSH2 0x4F0 PUSH2 0x497 JUMP JUMPDEST JUMPDEST POP SWAP2 SWAP1 POP JUMP JUMPDEST PUSH1 0x0 DUP2 SWAP1 POP DUP2 PUSH1 0x0 MSTORE PUSH1 0x20 PUSH1 0x0 KECCAK256 SWAP1 POP SWAP2 SWAP1 POP JUMP JUMPDEST PUSH1 0x0 PUSH1 0x20 PUSH1 0x1F DUP4 ADD DIV SWAP1 POP SWAP2 SWAP1 POP JUMP JUMPDEST PUSH1 0x0 DUP3 DUP3 SHL SWAP1 POP SWAP3 SWAP2 POP POP JUMP JUMPDEST PUSH1 0x0 PUSH1 0x8 DUP4 MUL PUSH2 0x559 PUSH32 0xFFFFFFFFFFFFFFFFFFFFFFFFFFFFFFFFFFFFFFFFFFFFFFFFFFFFFFFFFFFFFFFF DUP3 PUSH2 0x51C JUMP JUMPDEST PUSH2 0x563 DUP7 DUP4 PUSH2 0x51C JUMP JUMPDEST SWAP6 POP DUP1 NOT DUP5 AND SWAP4 POP DUP1 DUP7 AND DUP5 OR SWAP3 POP POP POP SWAP4 SWAP3 POP POP POP JUMP JUMPDEST PUSH1 0x0 DUP2 SWAP1 POP SWAP2 SWAP1 POP JUMP JUMPDEST PUSH1 0x0 DUP2 SWAP1 POP SWAP2 SWAP1 POP JUMP JUMPDEST PUSH1 0x0 PUSH2 0x5AA PUSH2 0x5A5 PUSH2 0x5A0 DUP5 PUSH2 0x57B JUMP JUMPDEST PUSH2 0x585 JUMP JUMPDEST PUSH2 0x57B JUMP JUMPDEST SWAP1 POP SWAP2 SWAP1 POP JUMP JUMPDEST PUSH1 0x0 DUP2 SWAP1 POP SWAP2 SWAP1 POP JUMP JUMPDEST PUSH2 0x5C4 DUP4 PUSH2 0x58F JUMP JUMPDEST PUSH2 0x5D8 PUSH2 0x5D0 DUP3 PUSH2 0x5B1 JUMP JUMPDEST DUP5 DUP5 SLOAD PUSH2 0x529 JUMP JUMPDEST DUP3 SSTORE POP POP POP POP JUMP JUMPDEST PUSH1 0x0 SWAP1 JUMP JUMPDEST PUSH2 0x5ED PUSH2 0x5E0 JUMP JUMPDEST PUSH2 0x5F8 DUP2 DUP5 DUP5 PUSH2 0x5BB JUMP JUMPDEST POP POP POP JUMP JUMPDEST JUMPDEST DUP2 DUP2 LT ISZERO PUSH2 0x61C JUMPI PUSH2 0x611 PUSH1 0x0 DUP3 PUSH2 0x5E5 JUMP JUMPDEST PUSH1 0x1 DUP2 ADD SWAP1 POP PUSH2 0x5FE JUMP JUMPDEST POP POP JUMP JUMPDEST PUSH1 0x1F DUP3 GT ISZERO PUSH2 0x661 JUMPI PUSH2 0x632 DUP2 PUSH2 0x4F7 JUMP JUMPDEST PUSH2 0x63B DUP5 PUSH2 0x50C JUMP JUMPDEST DUP2 ADD PUSH1 0x20 DUP6 LT ISZERO PUSH2 0x64A JUMPI DUP2 SWAP1 POP JUMPDEST PUSH2 0x65E PUSH2 0x656 DUP6 PUSH2 0x50C JUMP JUMPDEST DUP4 ADD DUP3 PUSH2 0x5FD JUMP JUMPDEST POP POP JUMPDEST POP POP POP JUMP JUMPDEST PUSH1 0x0 DUP3 DUP3 SHR SWAP1 POP SWAP3 SWAP2 POP POP JUMP JUMPDEST PUSH1 0x0 PUSH2 0x684 PUSH1 0x0 NOT DUP5 PUSH1 0x8 MUL PUSH2 0x666 JUMP JUMPDEST NOT DUP1 DUP4 AND SWAP2 POP POP SWAP3 SWAP2 POP POP JUMP JUMPDEST PUSH1 0x0 PUSH2 0x69D DUP4 DUP4 PUSH2 0x673 JUMP JUMPDEST SWAP2 POP DUP3 PUSH1 0x2 MUL DUP3 OR SWAP1 POP SWAP3 SWAP2 POP POP JUMP JUMPDEST PUSH2 0x6B6 DUP3 PUSH2 0x370 JUMP JUMPDEST PUSH8 0xFFFFFFFFFFFFFFFF DUP2 GT ISZERO PUSH2 0x6CF JUMPI PUSH2 0x6CE PUSH2 0x468 JUMP JUMPDEST JUMPDEST PUSH2 0x6D9 DUP3 SLOAD PUSH2 0x4C6 JUMP JUMPDEST PUSH2 0x6E4 DUP3 DUP3 DUP6 PUSH2 0x620 JUMP JUMPDEST PUSH1 0x0 PUSH1 0x20 SWAP1 POP PUSH1 0x1F DUP4 GT PUSH1 0x1 DUP2 EQ PUSH2 0x717 JUMPI PUSH1 0x0 DUP5 ISZERO PUSH2 0x705 JUMPI DUP3 DUP8 ADD MLOAD SWAP1 POP JUMPDEST PUSH2 0x70F DUP6 DUP3 PUSH2 0x691 JUMP JUMPDEST DUP7 SSTORE POP PUSH2 0x777 JUMP JUMPDEST PUSH1 0x1F NOT DUP5 AND PUSH2 0x725 DUP7 PUSH2 0x4F7 JUMP JUMPDEST PUSH1 0x0 JUMPDEST DUP3 DUP2 LT ISZERO PUSH2 0x74D JUMPI DUP5 DUP10 ADD MLOAD DUP3 SSTORE PUSH1 0x1 DUP3 ADD SWAP2 POP PUSH1 0x20 DUP6 ADD SWAP5 POP PUSH1 0x20 DUP2 ADD SWAP1 POP PUSH2 0x728 JUMP JUMPDEST DUP7 DUP4 LT ISZERO PUSH2 0x76A JUMPI DUP5 DUP10 ADD MLOAD PUSH2 0x766 PUSH1 0x1F DUP10 AND DUP3 PUSH2 0x673 JUMP JUMPDEST DUP4 SSTORE POP JUMPDEST PUSH1 0x1 PUSH1 0x2 DUP9 MUL ADD DUP9 SSTORE POP POP POP JUMPDEST POP POP POP POP POP POP JUMP JUMPDEST PUSH1 0x0 DUP3 DUP3 MSTORE PUSH1 0x20 DUP3 ADD SWAP1 POP SWAP3 SWAP2 POP POP JUMP JUMPDEST PUSH32 0x4661696C656420746F207472616E736665720000000000000000000000000000 PUSH1 0x0 DUP3 ADD MSTORE POP JUMP JUMPDEST PUSH1 0x0 PUSH2 0x7C6 PUSH1 0x12 DUP4 PUSH2 0x77F JUMP JUMPDEST SWAP2 POP PUSH2 0x7D1 DUP3 PUSH2 0x790 JUMP JUMPDEST PUSH1 0x20 DUP3 ADD SWAP1 POP SWAP2 SWAP1 POP JUMP JUMPDEST PUSH1 0x0 PUSH1 0x20 DUP3 ADD SWAP1 POP DUP2 DUP2 SUB PUSH1 0x0 DUP4 ADD MSTORE PUSH2 0x7F5 DUP2 PUSH2 0x7B9 JUMP JUMPDEST SWAP1 POP SWAP2 SWAP1 POP JUMP JUMPDEST PUSH32 0x6661696C656420746F207472616E736665722045746865720000000000000000 PUSH1 0x0 DUP3 ADD MSTORE POP JUMP JUMPDEST PUSH1 0x0 PUSH2 0x832 PUSH1 0x18 DUP4 PUSH2 0x77F JUMP JUMPDEST SWAP2 POP PUSH2 0x83D DUP3 PUSH2 0x7FC JUMP JUMPDEST PUSH1 0x20 DUP3 ADD SWAP1 POP SWAP2 SWAP1 POP JUMP JUMPDEST PUSH1 0x0 PUSH1 0x20 DUP3 ADD SWAP1 POP DUP2 DUP2 SUB PUSH1 0x0 DUP4 ADD MSTORE PUSH2 0x861 DUP2 PUSH2 0x825 JUMP JUMPDEST SWAP1 POP SWAP2 SWAP1 POP JUMP INVALID LOG2 PUSH5 0x6970667358 0x22 SLT KECCAK256 INVALID EXTCODESIZE 0xE SWAP13 CALL 0xDE GT CODECOPY PUSH24 0xAA70B786F76190447D1417EE13DCCDD7174EF22480A04F64 PUSH20 0x6F6C634300081200330000000000000000000000 "
				},
				"gasEstimates": {
					"creation": {
						"codeDepositCost": "441200",
						"executionCost": "474",
						"totalCost": "441674"
					},
					"external": {
						"SendEtherByCall(address)": "infinite",
						"data()": "infinite",
						"sendEtherBySend(address)": "infinite",
						"transferFun(address)": "infinite"
					}
				},
				"methodIdentifiers": {
					"SendEtherByCall(address)": "0ecaa01e",
					"data()": "73d4a13a",
					"sendEtherBySend(address)": "9e63c1a2",
					"transferFun(address)": "f47f66af"
				}
			},
			"storageLayout": {
				"storage": [
					{
						"astId": 3,
						"contract": "contracts/sendetherPractice.sol:transfer",
						"label": "data",
						"offset": 0,
						"slot": "0",
						"type": "t_bytes_storage"
					}
				],
				"types": {
					"t_bytes_storage": {
						"encoding": "bytes",
						"label": "bytes",
						"numberOfBytes": "32"
					}
				}
			},
			"userdoc": {
				"kind": "user",
				"methods": {},
				"version": 1
			}
		}
	}
}