{
	"contracts/PorfolioProject.sol": {
		"Land": {
			"abi": [
				{
					"inputs": [],
					"stateMutability": "nonpayable",
					"type": "constructor"
				},
				{
					"anonymous": false,
					"inputs": [
						{
							"indexed": false,
							"internalType": "uint256",
							"name": "_landId",
							"type": "uint256"
						}
					],
					"name": "AddingLand",
					"type": "event"
				},
				{
					"anonymous": false,
					"inputs": [
						{
							"indexed": false,
							"internalType": "address",
							"name": "_sellerId",
							"type": "address"
						}
					],
					"name": "Landrequested",
					"type": "event"
				},
				{
					"anonymous": false,
					"inputs": [
						{
							"indexed": false,
							"internalType": "address",
							"name": "_registrationId",
							"type": "address"
						}
					],
					"name": "Registration",
					"type": "event"
				},
				{
					"anonymous": false,
					"inputs": [
						{
							"indexed": false,
							"internalType": "address",
							"name": "_id",
							"type": "address"
						}
					],
					"name": "Rejected",
					"type": "event"
				},
				{
					"anonymous": false,
					"inputs": [
						{
							"indexed": false,
							"internalType": "address",
							"name": "_id",
							"type": "address"
						}
					],
					"name": "Verified",
					"type": "event"
				},
				{
					"anonymous": false,
					"inputs": [
						{
							"indexed": false,
							"internalType": "address",
							"name": "_buyerId",
							"type": "address"
						}
					],
					"name": "requestApproved",
					"type": "event"
				},
				{
					"inputs": [
						{
							"internalType": "address",
							"name": "",
							"type": "address"
						}
					],
					"name": "BuyerMapping",
					"outputs": [
						{
							"internalType": "address",
							"name": "id",
							"type": "address"
						},
						{
							"internalType": "string",
							"name": "name",
							"type": "string"
						},
						{
							"internalType": "uint256",
							"name": "age",
							"type": "uint256"
						},
						{
							"internalType": "string",
							"name": "city",
							"type": "string"
						},
						{
							"internalType": "uint256",
							"name": "CNIC",
							"type": "uint256"
						},
						{
							"internalType": "string",
							"name": "email",
							"type": "string"
						}
					],
					"stateMutability": "view",
					"type": "function"
				},
				{
					"inputs": [
						{
							"internalType": "address",
							"name": "",
							"type": "address"
						}
					],
					"name": "BuyerRejection",
					"outputs": [
						{
							"internalType": "bool",
							"name": "",
							"type": "bool"
						}
					],
					"stateMutability": "view",
					"type": "function"
				},
				{
					"inputs": [
						{
							"internalType": "address",
							"name": "",
							"type": "address"
						}
					],
					"name": "BuyerVerification",
					"outputs": [
						{
							"internalType": "bool",
							"name": "",
							"type": "bool"
						}
					],
					"stateMutability": "view",
					"type": "function"
				},
				{
					"inputs": [
						{
							"internalType": "uint256",
							"name": "",
							"type": "uint256"
						}
					],
					"name": "InspectorMapping",
					"outputs": [
						{
							"internalType": "uint256",
							"name": "id",
							"type": "uint256"
						},
						{
							"internalType": "string",
							"name": "name",
							"type": "string"
						},
						{
							"internalType": "uint256",
							"name": "age",
							"type": "uint256"
						},
						{
							"internalType": "string",
							"name": "designation",
							"type": "string"
						}
					],
					"stateMutability": "view",
					"type": "function"
				},
				{
					"inputs": [
						{
							"internalType": "uint256",
							"name": "",
							"type": "uint256"
						}
					],
					"name": "LandOwner",
					"outputs": [
						{
							"internalType": "address",
							"name": "",
							"type": "address"
						}
					],
					"stateMutability": "view",
					"type": "function"
				},
				{
					"inputs": [
						{
							"internalType": "uint256",
							"name": "_landId",
							"type": "uint256"
						},
						{
							"internalType": "address",
							"name": "_newOwner",
							"type": "address"
						}
					],
					"name": "LandOwnershipTransfer",
					"outputs": [],
					"stateMutability": "nonpayable",
					"type": "function"
				},
				{
					"inputs": [
						{
							"internalType": "uint256",
							"name": "",
							"type": "uint256"
						}
					],
					"name": "LandVerification",
					"outputs": [
						{
							"internalType": "bool",
							"name": "",
							"type": "bool"
						}
					],
					"stateMutability": "view",
					"type": "function"
				},
				{
					"inputs": [],
					"name": "Land_Inspector",
					"outputs": [
						{
							"internalType": "address",
							"name": "",
							"type": "address"
						}
					],
					"stateMutability": "view",
					"type": "function"
				},
				{
					"inputs": [
						{
							"internalType": "uint256",
							"name": "",
							"type": "uint256"
						}
					],
					"name": "PaymentReceived",
					"outputs": [
						{
							"internalType": "bool",
							"name": "",
							"type": "bool"
						}
					],
					"stateMutability": "view",
					"type": "function"
				},
				{
					"inputs": [
						{
							"internalType": "address",
							"name": "",
							"type": "address"
						}
					],
					"name": "RegisteredAddressMapping",
					"outputs": [
						{
							"internalType": "bool",
							"name": "",
							"type": "bool"
						}
					],
					"stateMutability": "view",
					"type": "function"
				},
				{
					"inputs": [
						{
							"internalType": "address",
							"name": "",
							"type": "address"
						}
					],
					"name": "RegisteredBuyerMapping",
					"outputs": [
						{
							"internalType": "bool",
							"name": "",
							"type": "bool"
						}
					],
					"stateMutability": "view",
					"type": "function"
				},
				{
					"inputs": [
						{
							"internalType": "address",
							"name": "",
							"type": "address"
						}
					],
					"name": "RegisteredSellerMapping",
					"outputs": [
						{
							"internalType": "bool",
							"name": "",
							"type": "bool"
						}
					],
					"stateMutability": "view",
					"type": "function"
				},
				{
					"inputs": [
						{
							"internalType": "uint256",
							"name": "",
							"type": "uint256"
						}
					],
					"name": "RequestStatus",
					"outputs": [
						{
							"internalType": "bool",
							"name": "",
							"type": "bool"
						}
					],
					"stateMutability": "view",
					"type": "function"
				},
				{
					"inputs": [
						{
							"internalType": "uint256",
							"name": "",
							"type": "uint256"
						}
					],
					"name": "RequestedLands",
					"outputs": [
						{
							"internalType": "bool",
							"name": "",
							"type": "bool"
						}
					],
					"stateMutability": "view",
					"type": "function"
				},
				{
					"inputs": [
						{
							"internalType": "uint256",
							"name": "",
							"type": "uint256"
						}
					],
					"name": "RequestsMapping",
					"outputs": [
						{
							"internalType": "uint256",
							"name": "reqId",
							"type": "uint256"
						},
						{
							"internalType": "address",
							"name": "sellerId",
							"type": "address"
						},
						{
							"internalType": "address",
							"name": "buyerId",
							"type": "address"
						},
						{
							"internalType": "uint256",
							"name": "landId",
							"type": "uint256"
						}
					],
					"stateMutability": "view",
					"type": "function"
				},
				{
					"inputs": [
						{
							"internalType": "address",
							"name": "",
							"type": "address"
						}
					],
					"name": "SellerMapping",
					"outputs": [
						{
							"internalType": "address",
							"name": "id",
							"type": "address"
						},
						{
							"internalType": "string",
							"name": "name",
							"type": "string"
						},
						{
							"internalType": "string",
							"name": "city",
							"type": "string"
						},
						{
							"internalType": "uint256",
							"name": "age",
							"type": "uint256"
						},
						{
							"internalType": "uint256",
							"name": "CNIC",
							"type": "uint256"
						},
						{
							"internalType": "string",
							"name": "email",
							"type": "string"
						}
					],
					"stateMutability": "view",
					"type": "function"
				},
				{
					"inputs": [
						{
							"internalType": "address",
							"name": "",
							"type": "address"
						}
					],
					"name": "SellerRejection",
					"outputs": [
						{
							"internalType": "bool",
							"name": "",
							"type": "bool"
						}
					],
					"stateMutability": "view",
					"type": "function"
				},
				{
					"inputs": [
						{
							"internalType": "address",
							"name": "",
							"type": "address"
						}
					],
					"name": "SellerVerification",
					"outputs": [
						{
							"internalType": "bool",
							"name": "",
							"type": "bool"
						}
					],
					"stateMutability": "view",
					"type": "function"
				},
				{
					"inputs": [
						{
							"internalType": "uint256",
							"name": "_area",
							"type": "uint256"
						},
						{
							"internalType": "string",
							"name": "_city",
							"type": "string"
						},
						{
							"internalType": "string",
							"name": "_state",
							"type": "string"
						},
						{
							"internalType": "uint256",
							"name": "landPrice",
							"type": "uint256"
						},
						{
							"internalType": "uint256",
							"name": "_propertyPID",
							"type": "uint256"
						}
					],
					"name": "addLand",
					"outputs": [],
					"stateMutability": "nonpayable",
					"type": "function"
				},
				{
					"inputs": [
						{
							"internalType": "uint256",
							"name": "",
							"type": "uint256"
						}
					],
					"name": "buyers",
					"outputs": [
						{
							"internalType": "address",
							"name": "",
							"type": "address"
						}
					],
					"stateMutability": "view",
					"type": "function"
				},
				{
					"inputs": [
						{
							"internalType": "uint256",
							"name": "i",
							"type": "uint256"
						}
					],
					"name": "getArea",
					"outputs": [
						{
							"internalType": "uint256",
							"name": "",
							"type": "uint256"
						}
					],
					"stateMutability": "view",
					"type": "function"
				},
				{
					"inputs": [],
					"name": "getBuyer",
					"outputs": [
						{
							"internalType": "address[]",
							"name": "",
							"type": "address[]"
						}
					],
					"stateMutability": "view",
					"type": "function"
				},
				{
					"inputs": [
						{
							"internalType": "address",
							"name": "i",
							"type": "address"
						}
					],
					"name": "getBuyerDetails",
					"outputs": [
						{
							"internalType": "string",
							"name": "",
							"type": "string"
						},
						{
							"internalType": "string",
							"name": "",
							"type": "string"
						},
						{
							"internalType": "uint256",
							"name": "",
							"type": "uint256"
						},
						{
							"internalType": "string",
							"name": "",
							"type": "string"
						},
						{
							"internalType": "uint256",
							"name": "",
							"type": "uint256"
						}
					],
					"stateMutability": "view",
					"type": "function"
				},
				{
					"inputs": [],
					"name": "getBuyersCount",
					"outputs": [
						{
							"internalType": "uint256",
							"name": "",
							"type": "uint256"
						}
					],
					"stateMutability": "view",
					"type": "function"
				},
				{
					"inputs": [
						{
							"internalType": "uint256",
							"name": "i",
							"type": "uint256"
						}
					],
					"name": "getCity",
					"outputs": [
						{
							"internalType": "string",
							"name": "",
							"type": "string"
						}
					],
					"stateMutability": "view",
					"type": "function"
				},
				{
					"inputs": [
						{
							"internalType": "uint256",
							"name": "id",
							"type": "uint256"
						}
					],
					"name": "getLandOwner",
					"outputs": [
						{
							"internalType": "address",
							"name": "",
							"type": "address"
						}
					],
					"stateMutability": "view",
					"type": "function"
				},
				{
					"inputs": [],
					"name": "getLandsCount",
					"outputs": [
						{
							"internalType": "uint256",
							"name": "",
							"type": "uint256"
						}
					],
					"stateMutability": "view",
					"type": "function"
				},
				{
					"inputs": [
						{
							"internalType": "uint256",
							"name": "i",
							"type": "uint256"
						}
					],
					"name": "getPID",
					"outputs": [
						{
							"internalType": "uint256",
							"name": "",
							"type": "uint256"
						}
					],
					"stateMutability": "view",
					"type": "function"
				},
				{
					"inputs": [
						{
							"internalType": "uint256",
							"name": "i",
							"type": "uint256"
						}
					],
					"name": "getPrice",
					"outputs": [
						{
							"internalType": "uint256",
							"name": "",
							"type": "uint256"
						}
					],
					"stateMutability": "view",
					"type": "function"
				},
				{
					"inputs": [
						{
							"internalType": "uint256",
							"name": "i",
							"type": "uint256"
						}
					],
					"name": "getRequestDetails",
					"outputs": [
						{
							"internalType": "address",
							"name": "",
							"type": "address"
						},
						{
							"internalType": "address",
							"name": "",
							"type": "address"
						},
						{
							"internalType": "uint256",
							"name": "",
							"type": "uint256"
						},
						{
							"internalType": "bool",
							"name": "",
							"type": "bool"
						}
					],
					"stateMutability": "view",
					"type": "function"
				},
				{
					"inputs": [],
					"name": "getRequestsCount",
					"outputs": [
						{
							"internalType": "uint256",
							"name": "",
							"type": "uint256"
						}
					],
					"stateMutability": "view",
					"type": "function"
				},
				{
					"inputs": [],
					"name": "getSeller",
					"outputs": [
						{
							"internalType": "address[]",
							"name": "",
							"type": "address[]"
						}
					],
					"stateMutability": "view",
					"type": "function"
				},
				{
					"inputs": [
						{
							"internalType": "address",
							"name": "i",
							"type": "address"
						}
					],
					"name": "getSellerDetails",
					"outputs": [
						{
							"internalType": "string",
							"name": "",
							"type": "string"
						},
						{
							"internalType": "uint256",
							"name": "",
							"type": "uint256"
						},
						{
							"internalType": "uint256",
							"name": "",
							"type": "uint256"
						},
						{
							"internalType": "string",
							"name": "",
							"type": "string"
						}
					],
					"stateMutability": "view",
					"type": "function"
				},
				{
					"inputs": [],
					"name": "getSellersCount",
					"outputs": [
						{
							"internalType": "uint256",
							"name": "",
							"type": "uint256"
						}
					],
					"stateMutability": "view",
					"type": "function"
				},
				{
					"inputs": [
						{
							"internalType": "uint256",
							"name": "i",
							"type": "uint256"
						}
					],
					"name": "getState",
					"outputs": [
						{
							"internalType": "string",
							"name": "",
							"type": "string"
						}
					],
					"stateMutability": "view",
					"type": "function"
				},
				{
					"inputs": [
						{
							"internalType": "uint256",
							"name": "_id",
							"type": "uint256"
						}
					],
					"name": "isApproved",
					"outputs": [
						{
							"internalType": "bool",
							"name": "",
							"type": "bool"
						}
					],
					"stateMutability": "view",
					"type": "function"
				},
				{
					"inputs": [
						{
							"internalType": "address",
							"name": "_id",
							"type": "address"
						}
					],
					"name": "isBuyer",
					"outputs": [
						{
							"internalType": "bool",
							"name": "",
							"type": "bool"
						}
					],
					"stateMutability": "view",
					"type": "function"
				},
				{
					"inputs": [
						{
							"internalType": "address",
							"name": "_id",
							"type": "address"
						}
					],
					"name": "isLandInspector",
					"outputs": [
						{
							"internalType": "bool",
							"name": "",
							"type": "bool"
						}
					],
					"stateMutability": "view",
					"type": "function"
				},
				{
					"inputs": [
						{
							"internalType": "uint256",
							"name": "_id",
							"type": "uint256"
						}
					],
					"name": "isLandVerified",
					"outputs": [
						{
							"internalType": "string",
							"name": "",
							"type": "string"
						}
					],
					"stateMutability": "view",
					"type": "function"
				},
				{
					"inputs": [
						{
							"internalType": "uint256",
							"name": "_landId",
							"type": "uint256"
						}
					],
					"name": "isPaid",
					"outputs": [
						{
							"internalType": "bool",
							"name": "",
							"type": "bool"
						}
					],
					"stateMutability": "view",
					"type": "function"
				},
				{
					"inputs": [
						{
							"internalType": "address",
							"name": "_id",
							"type": "address"
						}
					],
					"name": "isRegistered",
					"outputs": [
						{
							"internalType": "bool",
							"name": "",
							"type": "bool"
						}
					],
					"stateMutability": "view",
					"type": "function"
				},
				{
					"inputs": [
						{
							"internalType": "address",
							"name": "_id",
							"type": "address"
						}
					],
					"name": "isRejected",
					"outputs": [
						{
							"internalType": "bool",
							"name": "",
							"type": "bool"
						}
					],
					"stateMutability": "view",
					"type": "function"
				},
				{
					"inputs": [
						{
							"internalType": "address",
							"name": "_id",
							"type": "address"
						}
					],
					"name": "isSeller",
					"outputs": [
						{
							"internalType": "bool",
							"name": "",
							"type": "bool"
						}
					],
					"stateMutability": "view",
					"type": "function"
				},
				{
					"inputs": [
						{
							"internalType": "address",
							"name": "_id",
							"type": "address"
						}
					],
					"name": "isVerified",
					"outputs": [
						{
							"internalType": "bool",
							"name": "",
							"type": "bool"
						}
					],
					"stateMutability": "view",
					"type": "function"
				},
				{
					"inputs": [
						{
							"internalType": "uint256",
							"name": "",
							"type": "uint256"
						}
					],
					"name": "lands",
					"outputs": [
						{
							"internalType": "uint256",
							"name": "id",
							"type": "uint256"
						},
						{
							"internalType": "uint256",
							"name": "area",
							"type": "uint256"
						},
						{
							"internalType": "string",
							"name": "city",
							"type": "string"
						},
						{
							"internalType": "string",
							"name": "state",
							"type": "string"
						},
						{
							"internalType": "uint256",
							"name": "landPrice",
							"type": "uint256"
						},
						{
							"internalType": "uint256",
							"name": "propertyPID",
							"type": "uint256"
						}
					],
					"stateMutability": "view",
					"type": "function"
				},
				{
					"inputs": [
						{
							"internalType": "address payable",
							"name": "_receiver",
							"type": "address"
						},
						{
							"internalType": "uint256",
							"name": "_landId",
							"type": "uint256"
						}
					],
					"name": "payment",
					"outputs": [],
					"stateMutability": "payable",
					"type": "function"
				},
				{
					"inputs": [
						{
							"internalType": "string",
							"name": "_name",
							"type": "string"
						},
						{
							"internalType": "uint256",
							"name": "_age",
							"type": "uint256"
						},
						{
							"internalType": "string",
							"name": "_city",
							"type": "string"
						},
						{
							"internalType": "uint256",
							"name": "_CNIC",
							"type": "uint256"
						},
						{
							"internalType": "string",
							"name": "_email",
							"type": "string"
						}
					],
					"name": "registerBuyer",
					"outputs": [],
					"stateMutability": "nonpayable",
					"type": "function"
				},
				{
					"inputs": [
						{
							"internalType": "string",
							"name": "_name",
							"type": "string"
						},
						{
							"internalType": "uint256",
							"name": "_age",
							"type": "uint256"
						},
						{
							"internalType": "string",
							"name": "_city",
							"type": "string"
						},
						{
							"internalType": "uint256",
							"name": "_CNIC",
							"type": "uint256"
						},
						{
							"internalType": "string",
							"name": "_email",
							"type": "string"
						}
					],
					"name": "registerSeller",
					"outputs": [],
					"stateMutability": "nonpayable",
					"type": "function"
				},
				{
					"inputs": [
						{
							"internalType": "address",
							"name": "_buyerId",
							"type": "address"
						}
					],
					"name": "rejectBuyer",
					"outputs": [],
					"stateMutability": "nonpayable",
					"type": "function"
				},
				{
					"inputs": [
						{
							"internalType": "address",
							"name": "_sellerId",
							"type": "address"
						}
					],
					"name": "rejectSeller",
					"outputs": [],
					"stateMutability": "nonpayable",
					"type": "function"
				},
				{
					"inputs": [
						{
							"internalType": "uint256",
							"name": "",
							"type": "uint256"
						}
					],
					"name": "sellers",
					"outputs": [
						{
							"internalType": "address",
							"name": "",
							"type": "address"
						}
					],
					"stateMutability": "view",
					"type": "function"
				},
				{
					"inputs": [
						{
							"internalType": "string",
							"name": "_name",
							"type": "string"
						},
						{
							"internalType": "uint256",
							"name": "_age",
							"type": "uint256"
						},
						{
							"internalType": "string",
							"name": "_city",
							"type": "string"
						},
						{
							"internalType": "uint256",
							"name": "_CNIC",
							"type": "uint256"
						},
						{
							"internalType": "string",
							"name": "_email",
							"type": "string"
						}
					],
					"name": "updateBuyer",
					"outputs": [],
					"stateMutability": "nonpayable",
					"type": "function"
				},
				{
					"inputs": [
						{
							"internalType": "string",
							"name": "_name",
							"type": "string"
						},
						{
							"internalType": "uint256",
							"name": "_age",
							"type": "uint256"
						},
						{
							"internalType": "string",
							"name": "_city",
							"type": "string"
						},
						{
							"internalType": "uint256",
							"name": "_CNIC",
							"type": "uint256"
						},
						{
							"internalType": "string",
							"name": "_email",
							"type": "string"
						}
					],
					"name": "updateSeller",
					"outputs": [],
					"stateMutability": "nonpayable",
					"type": "function"
				},
				{
					"inputs": [
						{
							"internalType": "address",
							"name": "_buyerId",
							"type": "address"
						}
					],
					"name": "verifyBuyer",
					"outputs": [],
					"stateMutability": "nonpayable",
					"type": "function"
				},
				{
					"inputs": [
						{
							"internalType": "uint256",
							"name": "_landId",
							"type": "uint256"
						}
					],
					"name": "verifyLand",
					"outputs": [],
					"stateMutability": "nonpayable",
					"type": "function"
				},
				{
					"inputs": [
						{
							"internalType": "address",
							"name": "_sellerId",
							"type": "address"
						}
					],
					"name": "verifySeller",
					"outputs": [],
					"stateMutability": "nonpayable",
					"type": "function"
				}
			],
			"devdoc": {
				"kind": "dev",
				"methods": {},
				"version": 1
			},
			"evm": {
				"assembly": "    /* \"contracts/PorfolioProject.sol\":66:10485  contract Land {... */\n  mstore(0x40, 0x80)\n    /* \"contracts/PorfolioProject.sol\":2515:2633  constructor() {... */\n  callvalue\n  dup1\n  iszero\n  tag_1\n  jumpi\n  0x00\n  dup1\n  revert\ntag_1:\n  pop\n    /* \"contracts/PorfolioProject.sol\":2557:2567  msg.sender */\n  caller\n    /* \"contracts/PorfolioProject.sol\":2540:2554  Land_Inspector */\n  0x11\n  0x00\n    /* \"contracts/PorfolioProject.sol\":2540:2567  Land_Inspector = msg.sender */\n  0x0100\n  exp\n  dup2\n  sload\n  dup2\n  0xffffffffffffffffffffffffffffffffffffffff\n  mul\n  not\n  and\n  swap1\n  dup4\n  0xffffffffffffffffffffffffffffffffffffffff\n  and\n  mul\n  or\n  swap1\n  sstore\n  pop\n    /* \"contracts/PorfolioProject.sol\":2579:2625  addLandInspector(\"Inspector 1\", 25, \"Manager\") */\n  tag_4\n  mload(0x40)\n  dup1\n  0x40\n  add\n  0x40\n  mstore\n  dup1\n  0x0b\n  dup2\n  mstore\n  0x20\n  add\n  0x496e73706563746f722031000000000000000000000000000000000000000000\n  dup2\n  mstore\n  pop\n    /* \"contracts/PorfolioProject.sol\":2611:2613  25 */\n  0x19\n    /* \"contracts/PorfolioProject.sol\":2579:2625  addLandInspector(\"Inspector 1\", 25, \"Manager\") */\n  mload(0x40)\n  dup1\n  0x40\n  add\n  0x40\n  mstore\n  dup1\n  0x07\n  dup2\n  mstore\n  0x20\n  add\n  0x4d616e6167657200000000000000000000000000000000000000000000000000\n  dup2\n  mstore\n  pop\n    /* \"contracts/PorfolioProject.sol\":2579:2595  addLandInspector */\n  shl(0x20, tag_5)\n    /* \"contracts/PorfolioProject.sol\":2579:2625  addLandInspector(\"Inspector 1\", 25, \"Manager\") */\n  0x20\n  shr\n  jump\t// in\ntag_4:\n    /* \"contracts/PorfolioProject.sol\":66:10485  contract Land {... */\n  jump(tag_6)\n    /* \"contracts/PorfolioProject.sol\":2700:2934  function addLandInspector(string memory _name, uint _age, string memory _designation) private {... */\ntag_5:\n    /* \"contracts/PorfolioProject.sol\":2805:2820  inspectorsCount */\n  0x15\n  0x00\n    /* \"contracts/PorfolioProject.sol\":2805:2822  inspectorsCount++ */\n  dup2\n  sload\n  dup1\n  swap3\n  swap2\n  swap1\n  tag_8\n  swap1\n  tag_9\n  jump\t// in\ntag_8:\n  swap2\n  swap1\n  pop\n  sstore\n  pop\n    /* \"contracts/PorfolioProject.sol\":2869:2926  LandInspector(inspectorsCount, _name, _age, _designation) */\n  mload(0x40)\n  dup1\n  0x80\n  add\n  0x40\n  mstore\n  dup1\n    /* \"contracts/PorfolioProject.sol\":2883:2898  inspectorsCount */\n  sload(0x15)\n    /* \"contracts/PorfolioProject.sol\":2869:2926  LandInspector(inspectorsCount, _name, _age, _designation) */\n  dup2\n  mstore\n  0x20\n  add\n    /* \"contracts/PorfolioProject.sol\":2900:2905  _name */\n  dup5\n    /* \"contracts/PorfolioProject.sol\":2869:2926  LandInspector(inspectorsCount, _name, _age, _designation) */\n  dup2\n  mstore\n  0x20\n  add\n    /* \"contracts/PorfolioProject.sol\":2907:2911  _age */\n  dup4\n    /* \"contracts/PorfolioProject.sol\":2869:2926  LandInspector(inspectorsCount, _name, _age, _designation) */\n  dup2\n  mstore\n  0x20\n  add\n    /* \"contracts/PorfolioProject.sol\":2913:2925  _designation */\n  dup3\n    /* \"contracts/PorfolioProject.sol\":2869:2926  LandInspector(inspectorsCount, _name, _age, _designation) */\n  dup2\n  mstore\n  pop\n    /* \"contracts/PorfolioProject.sol\":2833:2849  InspectorMapping */\n  0x01\n    /* \"contracts/PorfolioProject.sol\":2833:2866  InspectorMapping[inspectorsCount] */\n  0x00\n    /* \"contracts/PorfolioProject.sol\":2850:2865  inspectorsCount */\n  sload(0x15)\n    /* \"contracts/PorfolioProject.sol\":2833:2866  InspectorMapping[inspectorsCount] */\n  dup2\n  mstore\n  0x20\n  add\n  swap1\n  dup2\n  mstore\n  0x20\n  add\n  0x00\n  keccak256\n    /* \"contracts/PorfolioProject.sol\":2833:2926  InspectorMapping[inspectorsCount] = LandInspector(inspectorsCount, _name, _age, _designation) */\n  0x00\n  dup3\n  add\n  mload\n  dup2\n  0x00\n  add\n  sstore\n  0x20\n  dup3\n  add\n  mload\n  dup2\n  0x01\n  add\n  swap1\n  dup2\n  tag_10\n  swap2\n  swap1\n  tag_11\n  jump\t// in\ntag_10:\n  pop\n  0x40\n  dup3\n  add\n  mload\n  dup2\n  0x02\n  add\n  sstore\n  0x60\n  dup3\n  add\n  mload\n  dup2\n  0x03\n  add\n  swap1\n  dup2\n  tag_12\n  swap2\n  swap1\n  tag_11\n  jump\t// in\ntag_12:\n  pop\n  swap1\n  pop\n  pop\n    /* \"contracts/PorfolioProject.sol\":2700:2934  function addLandInspector(string memory _name, uint _age, string memory _designation) private {... */\n  pop\n  pop\n  pop\n  jump\t// out\n    /* \"#utility.yul\":7:187   */\ntag_13:\n    /* \"#utility.yul\":55:132   */\n  0x4e487b7100000000000000000000000000000000000000000000000000000000\n    /* \"#utility.yul\":52:53   */\n  0x00\n    /* \"#utility.yul\":45:133   */\n  mstore\n    /* \"#utility.yul\":152:156   */\n  0x11\n    /* \"#utility.yul\":149:150   */\n  0x04\n    /* \"#utility.yul\":142:157   */\n  mstore\n    /* \"#utility.yul\":176:180   */\n  0x24\n    /* \"#utility.yul\":173:174   */\n  0x00\n    /* \"#utility.yul\":166:181   */\n  revert\n    /* \"#utility.yul\":193:270   */\ntag_14:\n    /* \"#utility.yul\":230:237   */\n  0x00\n    /* \"#utility.yul\":259:264   */\n  dup2\n    /* \"#utility.yul\":248:264   */\n  swap1\n  pop\n    /* \"#utility.yul\":193:270   */\n  swap2\n  swap1\n  pop\n  jump\t// out\n    /* \"#utility.yul\":276:509   */\ntag_9:\n    /* \"#utility.yul\":315:318   */\n  0x00\n    /* \"#utility.yul\":338:362   */\n  tag_38\n    /* \"#utility.yul\":356:361   */\n  dup3\n    /* \"#utility.yul\":338:362   */\n  tag_14\n  jump\t// in\ntag_38:\n    /* \"#utility.yul\":329:362   */\n  swap2\n  pop\n    /* \"#utility.yul\":384:450   */\n  0xffffffffffffffffffffffffffffffffffffffffffffffffffffffffffffffff\n    /* \"#utility.yul\":377:382   */\n  dup3\n    /* \"#utility.yul\":374:451   */\n  sub\n    /* \"#utility.yul\":371:474   */\n  tag_39\n  jumpi\n    /* \"#utility.yul\":454:472   */\n  tag_40\n  tag_13\n  jump\t// in\ntag_40:\n    /* \"#utility.yul\":371:474   */\ntag_39:\n    /* \"#utility.yul\":501:502   */\n  0x01\n    /* \"#utility.yul\":494:499   */\n  dup3\n    /* \"#utility.yul\":490:503   */\n  add\n    /* \"#utility.yul\":483:503   */\n  swap1\n  pop\n    /* \"#utility.yul\":276:509   */\n  swap2\n  swap1\n  pop\n  jump\t// out\n    /* \"#utility.yul\":515:614   */\ntag_15:\n    /* \"#utility.yul\":567:573   */\n  0x00\n    /* \"#utility.yul\":601:606   */\n  dup2\n    /* \"#utility.yul\":595:607   */\n  mload\n    /* \"#utility.yul\":585:607   */\n  swap1\n  pop\n    /* \"#utility.yul\":515:614   */\n  swap2\n  swap1\n  pop\n  jump\t// out\n    /* \"#utility.yul\":620:800   */\ntag_16:\n    /* \"#utility.yul\":668:745   */\n  0x4e487b7100000000000000000000000000000000000000000000000000000000\n    /* \"#utility.yul\":665:666   */\n  0x00\n    /* \"#utility.yul\":658:746   */\n  mstore\n    /* \"#utility.yul\":765:769   */\n  0x41\n    /* \"#utility.yul\":762:763   */\n  0x04\n    /* \"#utility.yul\":755:770   */\n  mstore\n    /* \"#utility.yul\":789:793   */\n  0x24\n    /* \"#utility.yul\":786:787   */\n  0x00\n    /* \"#utility.yul\":779:794   */\n  revert\n    /* \"#utility.yul\":806:986   */\ntag_17:\n    /* \"#utility.yul\":854:931   */\n  0x4e487b7100000000000000000000000000000000000000000000000000000000\n    /* \"#utility.yul\":851:852   */\n  0x00\n    /* \"#utility.yul\":844:932   */\n  mstore\n    /* \"#utility.yul\":951:955   */\n  0x22\n    /* \"#utility.yul\":948:949   */\n  0x04\n    /* \"#utility.yul\":941:956   */\n  mstore\n    /* \"#utility.yul\":975:979   */\n  0x24\n    /* \"#utility.yul\":972:973   */\n  0x00\n    /* \"#utility.yul\":965:980   */\n  revert\n    /* \"#utility.yul\":992:1312   */\ntag_18:\n    /* \"#utility.yul\":1036:1042   */\n  0x00\n    /* \"#utility.yul\":1073:1074   */\n  0x02\n    /* \"#utility.yul\":1067:1071   */\n  dup3\n    /* \"#utility.yul\":1063:1075   */\n  div\n    /* \"#utility.yul\":1053:1075   */\n  swap1\n  pop\n    /* \"#utility.yul\":1120:1121   */\n  0x01\n    /* \"#utility.yul\":1114:1118   */\n  dup3\n    /* \"#utility.yul\":1110:1122   */\n  and\n    /* \"#utility.yul\":1141:1159   */\n  dup1\n    /* \"#utility.yul\":1131:1212   */\n  tag_45\n  jumpi\n    /* \"#utility.yul\":1197:1201   */\n  0x7f\n    /* \"#utility.yul\":1189:1195   */\n  dup3\n    /* \"#utility.yul\":1185:1202   */\n  and\n    /* \"#utility.yul\":1175:1202   */\n  swap2\n  pop\n    /* \"#utility.yul\":1131:1212   */\ntag_45:\n    /* \"#utility.yul\":1259:1261   */\n  0x20\n    /* \"#utility.yul\":1251:1257   */\n  dup3\n    /* \"#utility.yul\":1248:1262   */\n  lt\n    /* \"#utility.yul\":1228:1246   */\n  dup2\n    /* \"#utility.yul\":1225:1263   */\n  sub\n    /* \"#utility.yul\":1222:1306   */\n  tag_46\n  jumpi\n    /* \"#utility.yul\":1278:1296   */\n  tag_47\n  tag_17\n  jump\t// in\ntag_47:\n    /* \"#utility.yul\":1222:1306   */\ntag_46:\n    /* \"#utility.yul\":1043:1312   */\n  pop\n    /* \"#utility.yul\":992:1312   */\n  swap2\n  swap1\n  pop\n  jump\t// out\n    /* \"#utility.yul\":1318:1459   */\ntag_19:\n    /* \"#utility.yul\":1367:1371   */\n  0x00\n    /* \"#utility.yul\":1390:1393   */\n  dup2\n    /* \"#utility.yul\":1382:1393   */\n  swap1\n  pop\n    /* \"#utility.yul\":1413:1416   */\n  dup2\n    /* \"#utility.yul\":1410:1411   */\n  0x00\n    /* \"#utility.yul\":1403:1417   */\n  mstore\n    /* \"#utility.yul\":1447:1451   */\n  0x20\n    /* \"#utility.yul\":1444:1445   */\n  0x00\n    /* \"#utility.yul\":1434:1452   */\n  keccak256\n    /* \"#utility.yul\":1426:1452   */\n  swap1\n  pop\n    /* \"#utility.yul\":1318:1459   */\n  swap2\n  swap1\n  pop\n  jump\t// out\n    /* \"#utility.yul\":1465:1558   */\ntag_20:\n    /* \"#utility.yul\":1502:1508   */\n  0x00\n    /* \"#utility.yul\":1549:1551   */\n  0x20\n    /* \"#utility.yul\":1544:1546   */\n  0x1f\n    /* \"#utility.yul\":1537:1542   */\n  dup4\n    /* \"#utility.yul\":1533:1547   */\n  add\n    /* \"#utility.yul\":1529:1552   */\n  div\n    /* \"#utility.yul\":1519:1552   */\n  swap1\n  pop\n    /* \"#utility.yul\":1465:1558   */\n  swap2\n  swap1\n  pop\n  jump\t// out\n    /* \"#utility.yul\":1564:1671   */\ntag_21:\n    /* \"#utility.yul\":1608:1616   */\n  0x00\n    /* \"#utility.yul\":1658:1663   */\n  dup3\n    /* \"#utility.yul\":1652:1656   */\n  dup3\n    /* \"#utility.yul\":1648:1664   */\n  shl\n    /* \"#utility.yul\":1627:1664   */\n  swap1\n  pop\n    /* \"#utility.yul\":1564:1671   */\n  swap3\n  swap2\n  pop\n  pop\n  jump\t// out\n    /* \"#utility.yul\":1677:2070   */\ntag_22:\n    /* \"#utility.yul\":1746:1752   */\n  0x00\n    /* \"#utility.yul\":1796:1797   */\n  0x08\n    /* \"#utility.yul\":1784:1794   */\n  dup4\n    /* \"#utility.yul\":1780:1798   */\n  mul\n    /* \"#utility.yul\":1819:1916   */\n  tag_52\n    /* \"#utility.yul\":1849:1915   */\n  0xffffffffffffffffffffffffffffffffffffffffffffffffffffffffffffffff\n    /* \"#utility.yul\":1838:1847   */\n  dup3\n    /* \"#utility.yul\":1819:1916   */\n  tag_21\n  jump\t// in\ntag_52:\n    /* \"#utility.yul\":1937:1976   */\n  tag_53\n    /* \"#utility.yul\":1967:1975   */\n  dup7\n    /* \"#utility.yul\":1956:1965   */\n  dup4\n    /* \"#utility.yul\":1937:1976   */\n  tag_21\n  jump\t// in\ntag_53:\n    /* \"#utility.yul\":1925:1976   */\n  swap6\n  pop\n    /* \"#utility.yul\":2009:2013   */\n  dup1\n    /* \"#utility.yul\":2005:2014   */\n  not\n    /* \"#utility.yul\":1998:2003   */\n  dup5\n    /* \"#utility.yul\":1994:2015   */\n  and\n    /* \"#utility.yul\":1985:2015   */\n  swap4\n  pop\n    /* \"#utility.yul\":2058:2062   */\n  dup1\n    /* \"#utility.yul\":2048:2056   */\n  dup7\n    /* \"#utility.yul\":2044:2063   */\n  and\n    /* \"#utility.yul\":2037:2042   */\n  dup5\n    /* \"#utility.yul\":2034:2064   */\n  or\n    /* \"#utility.yul\":2024:2064   */\n  swap3\n  pop\n    /* \"#utility.yul\":1753:2070   */\n  pop\n  pop\n    /* \"#utility.yul\":1677:2070   */\n  swap4\n  swap3\n  pop\n  pop\n  pop\n  jump\t// out\n    /* \"#utility.yul\":2076:2136   */\ntag_23:\n    /* \"#utility.yul\":2104:2107   */\n  0x00\n    /* \"#utility.yul\":2125:2130   */\n  dup2\n    /* \"#utility.yul\":2118:2130   */\n  swap1\n  pop\n    /* \"#utility.yul\":2076:2136   */\n  swap2\n  swap1\n  pop\n  jump\t// out\n    /* \"#utility.yul\":2142:2284   */\ntag_24:\n    /* \"#utility.yul\":2192:2201   */\n  0x00\n    /* \"#utility.yul\":2225:2278   */\n  tag_56\n    /* \"#utility.yul\":2243:2277   */\n  tag_57\n    /* \"#utility.yul\":2252:2276   */\n  tag_58\n    /* \"#utility.yul\":2270:2275   */\n  dup5\n    /* \"#utility.yul\":2252:2276   */\n  tag_14\n  jump\t// in\ntag_58:\n    /* \"#utility.yul\":2243:2277   */\n  tag_23\n  jump\t// in\ntag_57:\n    /* \"#utility.yul\":2225:2278   */\n  tag_14\n  jump\t// in\ntag_56:\n    /* \"#utility.yul\":2212:2278   */\n  swap1\n  pop\n    /* \"#utility.yul\":2142:2284   */\n  swap2\n  swap1\n  pop\n  jump\t// out\n    /* \"#utility.yul\":2290:2365   */\ntag_25:\n    /* \"#utility.yul\":2333:2336   */\n  0x00\n    /* \"#utility.yul\":2354:2359   */\n  dup2\n    /* \"#utility.yul\":2347:2359   */\n  swap1\n  pop\n    /* \"#utility.yul\":2290:2365   */\n  swap2\n  swap1\n  pop\n  jump\t// out\n    /* \"#utility.yul\":2371:2640   */\ntag_26:\n    /* \"#utility.yul\":2481:2520   */\n  tag_61\n    /* \"#utility.yul\":2512:2519   */\n  dup4\n    /* \"#utility.yul\":2481:2520   */\n  tag_24\n  jump\t// in\ntag_61:\n    /* \"#utility.yul\":2542:2633   */\n  tag_62\n    /* \"#utility.yul\":2591:2632   */\n  tag_63\n    /* \"#utility.yul\":2615:2631   */\n  dup3\n    /* \"#utility.yul\":2591:2632   */\n  tag_25\n  jump\t// in\ntag_63:\n    /* \"#utility.yul\":2583:2589   */\n  dup5\n    /* \"#utility.yul\":2576:2580   */\n  dup5\n    /* \"#utility.yul\":2570:2581   */\n  sload\n    /* \"#utility.yul\":2542:2633   */\n  tag_22\n  jump\t// in\ntag_62:\n    /* \"#utility.yul\":2536:2540   */\n  dup3\n    /* \"#utility.yul\":2529:2634   */\n  sstore\n    /* \"#utility.yul\":2447:2640   */\n  pop\n    /* \"#utility.yul\":2371:2640   */\n  pop\n  pop\n  pop\n  jump\t// out\n    /* \"#utility.yul\":2646:2719   */\ntag_27:\n    /* \"#utility.yul\":2691:2694   */\n  0x00\n    /* \"#utility.yul\":2646:2719   */\n  swap1\n  jump\t// out\n    /* \"#utility.yul\":2725:2914   */\ntag_28:\n    /* \"#utility.yul\":2802:2834   */\n  tag_66\n  tag_27\n  jump\t// in\ntag_66:\n    /* \"#utility.yul\":2843:2908   */\n  tag_67\n    /* \"#utility.yul\":2901:2907   */\n  dup2\n    /* \"#utility.yul\":2893:2899   */\n  dup5\n    /* \"#utility.yul\":2887:2891   */\n  dup5\n    /* \"#utility.yul\":2843:2908   */\n  tag_26\n  jump\t// in\ntag_67:\n    /* \"#utility.yul\":2778:2914   */\n  pop\n    /* \"#utility.yul\":2725:2914   */\n  pop\n  pop\n  jump\t// out\n    /* \"#utility.yul\":2920:3106   */\ntag_29:\n    /* \"#utility.yul\":2980:3100   */\ntag_69:\n    /* \"#utility.yul\":2997:3000   */\n  dup2\n    /* \"#utility.yul\":2990:2995   */\n  dup2\n    /* \"#utility.yul\":2987:3001   */\n  lt\n    /* \"#utility.yul\":2980:3100   */\n  iszero\n  tag_71\n  jumpi\n    /* \"#utility.yul\":3051:3090   */\n  tag_72\n    /* \"#utility.yul\":3088:3089   */\n  0x00\n    /* \"#utility.yul\":3081:3086   */\n  dup3\n    /* \"#utility.yul\":3051:3090   */\n  tag_28\n  jump\t// in\ntag_72:\n    /* \"#utility.yul\":3024:3025   */\n  0x01\n    /* \"#utility.yul\":3017:3022   */\n  dup2\n    /* \"#utility.yul\":3013:3026   */\n  add\n    /* \"#utility.yul\":3004:3026   */\n  swap1\n  pop\n    /* \"#utility.yul\":2980:3100   */\n  jump(tag_69)\ntag_71:\n    /* \"#utility.yul\":2920:3106   */\n  pop\n  pop\n  jump\t// out\n    /* \"#utility.yul\":3112:3655   */\ntag_30:\n    /* \"#utility.yul\":3213:3215   */\n  0x1f\n    /* \"#utility.yul\":3208:3211   */\n  dup3\n    /* \"#utility.yul\":3205:3216   */\n  gt\n    /* \"#utility.yul\":3202:3648   */\n  iszero\n  tag_74\n  jumpi\n    /* \"#utility.yul\":3247:3285   */\n  tag_75\n    /* \"#utility.yul\":3279:3284   */\n  dup2\n    /* \"#utility.yul\":3247:3285   */\n  tag_19\n  jump\t// in\ntag_75:\n    /* \"#utility.yul\":3331:3360   */\n  tag_76\n    /* \"#utility.yul\":3349:3359   */\n  dup5\n    /* \"#utility.yul\":3331:3360   */\n  tag_20\n  jump\t// in\ntag_76:\n    /* \"#utility.yul\":3321:3329   */\n  dup2\n    /* \"#utility.yul\":3317:3361   */\n  add\n    /* \"#utility.yul\":3514:3516   */\n  0x20\n    /* \"#utility.yul\":3502:3512   */\n  dup6\n    /* \"#utility.yul\":3499:3517   */\n  lt\n    /* \"#utility.yul\":3496:3545   */\n  iszero\n  tag_77\n  jumpi\n    /* \"#utility.yul\":3535:3543   */\n  dup2\n    /* \"#utility.yul\":3520:3543   */\n  swap1\n  pop\n    /* \"#utility.yul\":3496:3545   */\ntag_77:\n    /* \"#utility.yul\":3558:3638   */\n  tag_78\n    /* \"#utility.yul\":3614:3636   */\n  tag_79\n    /* \"#utility.yul\":3632:3635   */\n  dup6\n    /* \"#utility.yul\":3614:3636   */\n  tag_20\n  jump\t// in\ntag_79:\n    /* \"#utility.yul\":3604:3612   */\n  dup4\n    /* \"#utility.yul\":3600:3637   */\n  add\n    /* \"#utility.yul\":3587:3598   */\n  dup3\n    /* \"#utility.yul\":3558:3638   */\n  tag_29\n  jump\t// in\ntag_78:\n    /* \"#utility.yul\":3217:3648   */\n  pop\n  pop\n    /* \"#utility.yul\":3202:3648   */\ntag_74:\n    /* \"#utility.yul\":3112:3655   */\n  pop\n  pop\n  pop\n  jump\t// out\n    /* \"#utility.yul\":3661:3778   */\ntag_31:\n    /* \"#utility.yul\":3715:3723   */\n  0x00\n    /* \"#utility.yul\":3765:3770   */\n  dup3\n    /* \"#utility.yul\":3759:3763   */\n  dup3\n    /* \"#utility.yul\":3755:3771   */\n  shr\n    /* \"#utility.yul\":3734:3771   */\n  swap1\n  pop\n    /* \"#utility.yul\":3661:3778   */\n  swap3\n  swap2\n  pop\n  pop\n  jump\t// out\n    /* \"#utility.yul\":3784:3953   */\ntag_32:\n    /* \"#utility.yul\":3828:3834   */\n  0x00\n    /* \"#utility.yul\":3861:3912   */\n  tag_82\n    /* \"#utility.yul\":3909:3910   */\n  0x00\n    /* \"#utility.yul\":3905:3911   */\n  not\n    /* \"#utility.yul\":3897:3902   */\n  dup5\n    /* \"#utility.yul\":3894:3895   */\n  0x08\n    /* \"#utility.yul\":3890:3903   */\n  mul\n    /* \"#utility.yul\":3861:3912   */\n  tag_31\n  jump\t// in\ntag_82:\n    /* \"#utility.yul\":3857:3913   */\n  not\n    /* \"#utility.yul\":3942:3946   */\n  dup1\n    /* \"#utility.yul\":3936:3940   */\n  dup4\n    /* \"#utility.yul\":3932:3947   */\n  and\n    /* \"#utility.yul\":3922:3947   */\n  swap2\n  pop\n    /* \"#utility.yul\":3835:3953   */\n  pop\n    /* \"#utility.yul\":3784:3953   */\n  swap3\n  swap2\n  pop\n  pop\n  jump\t// out\n    /* \"#utility.yul\":3958:4253   */\ntag_33:\n    /* \"#utility.yul\":4034:4038   */\n  0x00\n    /* \"#utility.yul\":4180:4209   */\n  tag_84\n    /* \"#utility.yul\":4205:4208   */\n  dup4\n    /* \"#utility.yul\":4199:4203   */\n  dup4\n    /* \"#utility.yul\":4180:4209   */\n  tag_32\n  jump\t// in\ntag_84:\n    /* \"#utility.yul\":4172:4209   */\n  swap2\n  pop\n    /* \"#utility.yul\":4242:4245   */\n  dup3\n    /* \"#utility.yul\":4239:4240   */\n  0x02\n    /* \"#utility.yul\":4235:4246   */\n  mul\n    /* \"#utility.yul\":4229:4233   */\n  dup3\n    /* \"#utility.yul\":4226:4247   */\n  or\n    /* \"#utility.yul\":4218:4247   */\n  swap1\n  pop\n    /* \"#utility.yul\":3958:4253   */\n  swap3\n  swap2\n  pop\n  pop\n  jump\t// out\n    /* \"#utility.yul\":4258:5653   */\ntag_11:\n    /* \"#utility.yul\":4375:4412   */\n  tag_86\n    /* \"#utility.yul\":4408:4411   */\n  dup3\n    /* \"#utility.yul\":4375:4412   */\n  tag_15\n  jump\t// in\ntag_86:\n    /* \"#utility.yul\":4477:4495   */\n  0xffffffffffffffff\n    /* \"#utility.yul\":4469:4475   */\n  dup2\n    /* \"#utility.yul\":4466:4496   */\n  gt\n    /* \"#utility.yul\":4463:4519   */\n  iszero\n  tag_87\n  jumpi\n    /* \"#utility.yul\":4499:4517   */\n  tag_88\n  tag_16\n  jump\t// in\ntag_88:\n    /* \"#utility.yul\":4463:4519   */\ntag_87:\n    /* \"#utility.yul\":4543:4581   */\n  tag_89\n    /* \"#utility.yul\":4575:4579   */\n  dup3\n    /* \"#utility.yul\":4569:4580   */\n  sload\n    /* \"#utility.yul\":4543:4581   */\n  tag_18\n  jump\t// in\ntag_89:\n    /* \"#utility.yul\":4628:4695   */\n  tag_90\n    /* \"#utility.yul\":4688:4694   */\n  dup3\n    /* \"#utility.yul\":4680:4686   */\n  dup3\n    /* \"#utility.yul\":4674:4678   */\n  dup6\n    /* \"#utility.yul\":4628:4695   */\n  tag_30\n  jump\t// in\ntag_90:\n    /* \"#utility.yul\":4722:4723   */\n  0x00\n    /* \"#utility.yul\":4746:4750   */\n  0x20\n    /* \"#utility.yul\":4733:4750   */\n  swap1\n  pop\n    /* \"#utility.yul\":4778:4780   */\n  0x1f\n    /* \"#utility.yul\":4770:4776   */\n  dup4\n    /* \"#utility.yul\":4767:4781   */\n  gt\n    /* \"#utility.yul\":4795:4796   */\n  0x01\n    /* \"#utility.yul\":4790:5408   */\n  dup2\n  eq\n  tag_92\n  jumpi\n    /* \"#utility.yul\":5452:5453   */\n  0x00\n    /* \"#utility.yul\":5469:5475   */\n  dup5\n    /* \"#utility.yul\":5466:5543   */\n  iszero\n  tag_93\n  jumpi\n    /* \"#utility.yul\":5518:5527   */\n  dup3\n    /* \"#utility.yul\":5513:5516   */\n  dup8\n    /* \"#utility.yul\":5509:5528   */\n  add\n    /* \"#utility.yul\":5503:5529   */\n  mload\n    /* \"#utility.yul\":5494:5529   */\n  swap1\n  pop\n    /* \"#utility.yul\":5466:5543   */\ntag_93:\n    /* \"#utility.yul\":5569:5636   */\n  tag_94\n    /* \"#utility.yul\":5629:5635   */\n  dup6\n    /* \"#utility.yul\":5622:5627   */\n  dup3\n    /* \"#utility.yul\":5569:5636   */\n  tag_33\n  jump\t// in\ntag_94:\n    /* \"#utility.yul\":5563:5567   */\n  dup7\n    /* \"#utility.yul\":5556:5637   */\n  sstore\n    /* \"#utility.yul\":5425:5647   */\n  pop\n    /* \"#utility.yul\":4760:5647   */\n  jump(tag_91)\n    /* \"#utility.yul\":4790:5408   */\ntag_92:\n    /* \"#utility.yul\":4842:4846   */\n  0x1f\n    /* \"#utility.yul\":4838:4847   */\n  not\n    /* \"#utility.yul\":4830:4836   */\n  dup5\n    /* \"#utility.yul\":4826:4848   */\n  and\n    /* \"#utility.yul\":4876:4913   */\n  tag_95\n    /* \"#utility.yul\":4908:4912   */\n  dup7\n    /* \"#utility.yul\":4876:4913   */\n  tag_19\n  jump\t// in\ntag_95:\n    /* \"#utility.yul\":4935:4936   */\n  0x00\n    /* \"#utility.yul\":4949:5157   */\ntag_96:\n    /* \"#utility.yul\":4963:4970   */\n  dup3\n    /* \"#utility.yul\":4960:4961   */\n  dup2\n    /* \"#utility.yul\":4957:4971   */\n  lt\n    /* \"#utility.yul\":4949:5157   */\n  iszero\n  tag_98\n  jumpi\n    /* \"#utility.yul\":5042:5051   */\n  dup5\n    /* \"#utility.yul\":5037:5040   */\n  dup10\n    /* \"#utility.yul\":5033:5052   */\n  add\n    /* \"#utility.yul\":5027:5053   */\n  mload\n    /* \"#utility.yul\":5019:5025   */\n  dup3\n    /* \"#utility.yul\":5012:5054   */\n  sstore\n    /* \"#utility.yul\":5093:5094   */\n  0x01\n    /* \"#utility.yul\":5085:5091   */\n  dup3\n    /* \"#utility.yul\":5081:5095   */\n  add\n    /* \"#utility.yul\":5071:5095   */\n  swap2\n  pop\n    /* \"#utility.yul\":5140:5142   */\n  0x20\n    /* \"#utility.yul\":5129:5138   */\n  dup6\n    /* \"#utility.yul\":5125:5143   */\n  add\n    /* \"#utility.yul\":5112:5143   */\n  swap5\n  pop\n    /* \"#utility.yul\":4986:4990   */\n  0x20\n    /* \"#utility.yul\":4983:4984   */\n  dup2\n    /* \"#utility.yul\":4979:4991   */\n  add\n    /* \"#utility.yul\":4974:4991   */\n  swap1\n  pop\n    /* \"#utility.yul\":4949:5157   */\n  jump(tag_96)\ntag_98:\n    /* \"#utility.yul\":5185:5191   */\n  dup7\n    /* \"#utility.yul\":5176:5183   */\n  dup4\n    /* \"#utility.yul\":5173:5192   */\n  lt\n    /* \"#utility.yul\":5170:5349   */\n  iszero\n  tag_99\n  jumpi\n    /* \"#utility.yul\":5243:5252   */\n  dup5\n    /* \"#utility.yul\":5238:5241   */\n  dup10\n    /* \"#utility.yul\":5234:5253   */\n  add\n    /* \"#utility.yul\":5228:5254   */\n  mload\n    /* \"#utility.yul\":5286:5334   */\n  tag_100\n    /* \"#utility.yul\":5328:5332   */\n  0x1f\n    /* \"#utility.yul\":5320:5326   */\n  dup10\n    /* \"#utility.yul\":5316:5333   */\n  and\n    /* \"#utility.yul\":5305:5314   */\n  dup3\n    /* \"#utility.yul\":5286:5334   */\n  tag_32\n  jump\t// in\ntag_100:\n    /* \"#utility.yul\":5278:5284   */\n  dup4\n    /* \"#utility.yul\":5271:5335   */\n  sstore\n    /* \"#utility.yul\":5193:5349   */\n  pop\n    /* \"#utility.yul\":5170:5349   */\ntag_99:\n    /* \"#utility.yul\":5395:5396   */\n  0x01\n    /* \"#utility.yul\":5391:5392   */\n  0x02\n    /* \"#utility.yul\":5383:5389   */\n  dup9\n    /* \"#utility.yul\":5379:5393   */\n  mul\n    /* \"#utility.yul\":5375:5397   */\n  add\n    /* \"#utility.yul\":5369:5373   */\n  dup9\n    /* \"#utility.yul\":5362:5398   */\n  sstore\n    /* \"#utility.yul\":4797:5408   */\n  pop\n  pop\n  pop\n    /* \"#utility.yul\":4760:5647   */\ntag_91:\n  pop\n    /* \"#utility.yul\":4350:5653   */\n  pop\n  pop\n  pop\n    /* \"#utility.yul\":4258:5653   */\n  pop\n  pop\n  jump\t// out\n    /* \"contracts/PorfolioProject.sol\":66:10485  contract Land {... */\ntag_6:\n  dataSize(sub_0)\n  dup1\n  dataOffset(sub_0)\n  0x00\n  codecopy\n  0x00\n  return\nstop\n\nsub_0: assembly {\n        /* \"contracts/PorfolioProject.sol\":66:10485  contract Land {... */\n      mstore(0x40, 0x80)\n      jumpi(tag_1, lt(calldatasize, 0x04))\n      shr(0xe0, calldataload(0x00))\n      dup1\n      0xa47d4c02\n      gt\n      tag_58\n      jumpi\n      dup1\n      0xdec091ad\n      gt\n      tag_59\n      jumpi\n      dup1\n      0xe7572230\n      gt\n      tag_60\n      jumpi\n      dup1\n      0xf2aa8218\n      gt\n      tag_61\n      jumpi\n      dup1\n      0xf2aa8218\n      eq\n      tag_54\n      jumpi\n      dup1\n      0xf34d4c63\n      eq\n      tag_55\n      jumpi\n      dup1\n      0xf58f85b5\n      eq\n      tag_56\n      jumpi\n      dup1\n      0xf9c43bdf\n      eq\n      tag_57\n      jumpi\n      jump(tag_1)\n    tag_61:\n      dup1\n      0xe7572230\n      eq\n      tag_51\n      jumpi\n      dup1\n      0xee95feaf\n      eq\n      tag_52\n      jumpi\n      dup1\n      0xf0d3a9df\n      eq\n      tag_53\n      jumpi\n      jump(tag_1)\n    tag_60:\n      dup1\n      0xe1ecc794\n      gt\n      tag_62\n      jumpi\n      dup1\n      0xe1ecc794\n      eq\n      tag_47\n      jumpi\n      dup1\n      0xe261f1e5\n      eq\n      tag_48\n      jumpi\n      dup1\n      0xe43bf1f4\n      eq\n      tag_49\n      jumpi\n      dup1\n      0xe4b26115\n      eq\n      tag_50\n      jumpi\n      jump(tag_1)\n    tag_62:\n      dup1\n      0xdec091ad\n      eq\n      tag_44\n      jumpi\n      dup1\n      0xdef936c3\n      eq\n      tag_45\n      jumpi\n      dup1\n      0xe165af87\n      eq\n      tag_46\n      jumpi\n      jump(tag_1)\n    tag_59:\n      dup1\n      0xc3c5a547\n      gt\n      tag_63\n      jumpi\n      dup1\n      0xd1760e60\n      gt\n      tag_64\n      jumpi\n      dup1\n      0xd1760e60\n      eq\n      tag_40\n      jumpi\n      dup1\n      0xd7130651\n      eq\n      tag_41\n      jumpi\n      dup1\n      0xdbd0e1b6\n      eq\n      tag_42\n      jumpi\n      dup1\n      0xdd9d122d\n      eq\n      tag_43\n      jumpi\n      jump(tag_1)\n    tag_64:\n      dup1\n      0xc3c5a547\n      eq\n      tag_37\n      jumpi\n      dup1\n      0xcd392a83\n      eq\n      tag_38\n      jumpi\n      dup1\n      0xcee26ed5\n      eq\n      tag_39\n      jumpi\n      jump(tag_1)\n    tag_63:\n      dup1\n      0xb0a5dcd3\n      gt\n      tag_65\n      jumpi\n      dup1\n      0xb0a5dcd3\n      eq\n      tag_33\n      jumpi\n      dup1\n      0xb3c8fe85\n      eq\n      tag_34\n      jumpi\n      dup1\n      0xb9209e33\n      eq\n      tag_35\n      jumpi\n      dup1\n      0xbed403c7\n      eq\n      tag_36\n      jumpi\n      jump(tag_1)\n    tag_65:\n      dup1\n      0xa47d4c02\n      eq\n      tag_30\n      jumpi\n      dup1\n      0xa6dc41fb\n      eq\n      tag_31\n      jumpi\n      dup1\n      0xab517074\n      eq\n      tag_32\n      jumpi\n      jump(tag_1)\n    tag_58:\n      dup1\n      0x63f17143\n      gt\n      tag_66\n      jumpi\n      dup1\n      0x83546501\n      gt\n      tag_67\n      jumpi\n      dup1\n      0x8e0fef76\n      gt\n      tag_68\n      jumpi\n      dup1\n      0x8e0fef76\n      eq\n      tag_26\n      jumpi\n      dup1\n      0x96c331bb\n      eq\n      tag_27\n      jumpi\n      dup1\n      0x989376b4\n      eq\n      tag_28\n      jumpi\n      dup1\n      0x9dc1bfa9\n      eq\n      tag_29\n      jumpi\n      jump(tag_1)\n    tag_68:\n      dup1\n      0x83546501\n      eq\n      tag_23\n      jumpi\n      dup1\n      0x8965cde1\n      eq\n      tag_24\n      jumpi\n      dup1\n      0x89d21354\n      eq\n      tag_25\n      jumpi\n      jump(tag_1)\n    tag_67:\n      dup1\n      0x6814800b\n      gt\n      tag_69\n      jumpi\n      dup1\n      0x6814800b\n      eq\n      tag_19\n      jumpi\n      dup1\n      0x68cfe6ee\n      eq\n      tag_20\n      jumpi\n      dup1\n      0x6cbf6cf8\n      eq\n      tag_21\n      jumpi\n      dup1\n      0x7910867b\n      eq\n      tag_22\n      jumpi\n      jump(tag_1)\n    tag_69:\n      dup1\n      0x63f17143\n      eq\n      tag_16\n      jumpi\n      dup1\n      0x6490c7a8\n      eq\n      tag_17\n      jumpi\n      dup1\n      0x67a09c23\n      eq\n      tag_18\n      jumpi\n      jump(tag_1)\n    tag_66:\n      dup1\n      0x3410452a\n      gt\n      tag_70\n      jumpi\n      dup1\n      0x4daa9dae\n      gt\n      tag_71\n      jumpi\n      dup1\n      0x4daa9dae\n      eq\n      tag_12\n      jumpi\n      dup1\n      0x5e7efe12\n      eq\n      tag_13\n      jumpi\n      dup1\n      0x601e7c34\n      eq\n      tag_14\n      jumpi\n      dup1\n      0x603daf9a\n      eq\n      tag_15\n      jumpi\n      jump(tag_1)\n    tag_71:\n      dup1\n      0x3410452a\n      eq\n      tag_9\n      jumpi\n      dup1\n      0x44c9af28\n      eq\n      tag_10\n      jumpi\n      dup1\n      0x48a46bd3\n      eq\n      tag_11\n      jumpi\n      jump(tag_1)\n    tag_70:\n      dup1\n      0x174f7324\n      gt\n      tag_72\n      jumpi\n      dup1\n      0x174f7324\n      eq\n      tag_5\n      jumpi\n      dup1\n      0x1869a38b\n      eq\n      tag_6\n      jumpi\n      dup1\n      0x1a07f76e\n      eq\n      tag_7\n      jumpi\n      dup1\n      0x2a55feec\n      eq\n      tag_8\n      jumpi\n      jump(tag_1)\n    tag_72:\n      dup1\n      0x07d56ac0\n      eq\n      tag_2\n      jumpi\n      dup1\n      0x16d9d666\n      eq\n      tag_3\n      jumpi\n      dup1\n      0x170f3909\n      eq\n      tag_4\n      jumpi\n    tag_1:\n      0x00\n      dup1\n      revert\n        /* \"contracts/PorfolioProject.sol\":3756:3853  function getPID(uint i) public view returns (uint) {... */\n    tag_2:\n      callvalue\n      dup1\n      iszero\n      tag_73\n      jumpi\n      0x00\n      dup1\n      revert\n    tag_73:\n      pop\n      tag_74\n      0x04\n      dup1\n      calldatasize\n      sub\n      dup2\n      add\n      swap1\n      tag_75\n      swap2\n      swap1\n      tag_76\n      jump\t// in\n    tag_75:\n      tag_77\n      jump\t// in\n    tag_74:\n      mload(0x40)\n      tag_78\n      swap2\n      swap1\n      tag_79\n      jump\t// in\n    tag_78:\n      mload(0x40)\n      dup1\n      swap2\n      sub\n      swap1\n      return\n        /* \"contracts/PorfolioProject.sol\":2942:3030  function getLandsCount() public view returns (uint) {... */\n    tag_3:\n      callvalue\n      dup1\n      iszero\n      tag_80\n      jumpi\n      0x00\n      dup1\n      revert\n    tag_80:\n      pop\n      tag_81\n      tag_82\n      jump\t// in\n    tag_81:\n      mload(0x40)\n      tag_83\n      swap2\n      swap1\n      tag_79\n      jump\t// in\n    tag_83:\n      mload(0x40)\n      dup1\n      swap2\n      sub\n      swap1\n      return\n        /* \"contracts/PorfolioProject.sol\":2000:2029  address public Land_Inspector */\n    tag_4:\n      callvalue\n      dup1\n      iszero\n      tag_84\n      jumpi\n      0x00\n      dup1\n      revert\n    tag_84:\n      pop\n      tag_85\n      tag_86\n      jump\t// in\n    tag_85:\n      mload(0x40)\n      tag_87\n      swap2\n      swap1\n      tag_88\n      jump\t// in\n    tag_87:\n      mload(0x40)\n      dup1\n      swap2\n      sub\n      swap1\n      return\n        /* \"contracts/PorfolioProject.sol\":8041:8530  function registerBuyer(string memory _name, uint _age, string memory _city, uint _CNIC , string memory _email) public {... */\n    tag_5:\n      callvalue\n      dup1\n      iszero\n      tag_89\n      jumpi\n      0x00\n      dup1\n      revert\n    tag_89:\n      pop\n      tag_90\n      0x04\n      dup1\n      calldatasize\n      sub\n      dup2\n      add\n      swap1\n      tag_91\n      swap2\n      swap1\n      tag_92\n      jump\t// in\n    tag_91:\n      tag_93\n      jump\t// in\n    tag_90:\n      stop\n        /* \"contracts/PorfolioProject.sol\":3871:3971  function getLandOwner(uint id) public view returns (address) {... */\n    tag_6:\n      callvalue\n      dup1\n      iszero\n      tag_94\n      jumpi\n      0x00\n      dup1\n      revert\n    tag_94:\n      pop\n      tag_95\n      0x04\n      dup1\n      calldatasize\n      sub\n      dup2\n      add\n      swap1\n      tag_96\n      swap2\n      swap1\n      tag_76\n      jump\t// in\n    tag_96:\n      tag_97\n      jump\t// in\n    tag_95:\n      mload(0x40)\n      tag_98\n      swap2\n      swap1\n      tag_88\n      jump\t// in\n    tag_98:\n      mload(0x40)\n      dup1\n      swap2\n      sub\n      swap1\n      return\n        /* \"contracts/PorfolioProject.sol\":1947:1991  mapping(uint => bool) public PaymentReceived */\n    tag_7:\n      callvalue\n      dup1\n      iszero\n      tag_99\n      jumpi\n      0x00\n      dup1\n      revert\n    tag_99:\n      pop\n      tag_100\n      0x04\n      dup1\n      calldatasize\n      sub\n      dup2\n      add\n      swap1\n      tag_101\n      swap2\n      swap1\n      tag_76\n      jump\t// in\n    tag_101:\n      tag_102\n      jump\t// in\n    tag_100:\n      mload(0x40)\n      tag_103\n      swap2\n      swap1\n      tag_104\n      jump\t// in\n    tag_103:\n      mload(0x40)\n      dup1\n      swap2\n      sub\n      swap1\n      return\n        /* \"contracts/PorfolioProject.sol\":5838:5982  function isBuyer(address _id) public view returns (bool) {... */\n    tag_8:\n      callvalue\n      dup1\n      iszero\n      tag_105\n      jumpi\n      0x00\n      dup1\n      revert\n    tag_105:\n      pop\n      tag_106\n      0x04\n      dup1\n      calldatasize\n      sub\n      dup2\n      add\n      swap1\n      tag_107\n      swap2\n      swap1\n      tag_108\n      jump\t// in\n    tag_107:\n      tag_109\n      jump\t// in\n    tag_106:\n      mload(0x40)\n      tag_110\n      swap2\n      swap1\n      tag_104\n      jump\t// in\n    tag_110:\n      mload(0x40)\n      dup1\n      swap2\n      sub\n      swap1\n      return\n        /* \"contracts/PorfolioProject.sol\":3236:3330  function getRequestsCount() public view returns (uint) {... */\n    tag_9:\n      callvalue\n      dup1\n      iszero\n      tag_111\n      jumpi\n      0x00\n      dup1\n      revert\n    tag_111:\n      pop\n      tag_112\n      tag_113\n      jump\t// in\n    tag_112:\n      mload(0x40)\n      tag_114\n      swap2\n      swap1\n      tag_79\n      jump\t// in\n    tag_114:\n      mload(0x40)\n      dup1\n      swap2\n      sub\n      swap1\n      return\n        /* \"contracts/PorfolioProject.sol\":3540:3642  function getState(uint i) public view returns (string memory) {... */\n    tag_10:\n      callvalue\n      dup1\n      iszero\n      tag_115\n      jumpi\n      0x00\n      dup1\n      revert\n    tag_115:\n      pop\n      tag_116\n      0x04\n      dup1\n      calldatasize\n      sub\n      dup2\n      add\n      swap1\n      tag_117\n      swap2\n      swap1\n      tag_76\n      jump\t// in\n    tag_117:\n      tag_118\n      jump\t// in\n    tag_116:\n      mload(0x40)\n      tag_119\n      swap2\n      swap1\n      tag_120\n      jump\t// in\n    tag_119:\n      mload(0x40)\n      dup1\n      swap2\n      sub\n      swap1\n      return\n        /* \"contracts/PorfolioProject.sol\":5316:5479  function isRejected(address _id) public view returns (bool) {... */\n    tag_11:\n      callvalue\n      dup1\n      iszero\n      tag_121\n      jumpi\n      0x00\n      dup1\n      revert\n    tag_121:\n      pop\n      tag_122\n      0x04\n      dup1\n      calldatasize\n      sub\n      dup2\n      add\n      swap1\n      tag_123\n      swap2\n      swap1\n      tag_108\n      jump\t// in\n    tag_123:\n      tag_124\n      jump\t// in\n    tag_122:\n      mload(0x40)\n      tag_125\n      swap2\n      swap1\n      tag_104\n      jump\t// in\n    tag_125:\n      mload(0x40)\n      dup1\n      swap2\n      sub\n      swap1\n      return\n        /* \"contracts/PorfolioProject.sol\":1897:1940  mapping(uint => bool) public RequestedLands */\n    tag_12:\n      callvalue\n      dup1\n      iszero\n      tag_126\n      jumpi\n      0x00\n      dup1\n      revert\n    tag_126:\n      pop\n      tag_127\n      0x04\n      dup1\n      calldatasize\n      sub\n      dup2\n      add\n      swap1\n      tag_128\n      swap2\n      swap1\n      tag_76\n      jump\t// in\n    tag_128:\n      tag_129\n      jump\t// in\n    tag_127:\n      mload(0x40)\n      tag_130\n      swap2\n      swap1\n      tag_104\n      jump\t// in\n    tag_130:\n      mload(0x40)\n      dup1\n      swap2\n      sub\n      swap1\n      return\n        /* \"contracts/PorfolioProject.sol\":6609:7097  function registerSeller(string memory _name, uint _age, string memory _city, uint _CNIC , string memory _email) public {... */\n    tag_13:\n      callvalue\n      dup1\n      iszero\n      tag_131\n      jumpi\n      0x00\n      dup1\n      revert\n    tag_131:\n      pop\n      tag_132\n      0x04\n      dup1\n      calldatasize\n      sub\n      dup2\n      add\n      swap1\n      tag_133\n      swap2\n      swap1\n      tag_92\n      jump\t// in\n    tag_133:\n      tag_134\n      jump\t// in\n    tag_132:\n      stop\n        /* \"contracts/PorfolioProject.sol\":1405:1460  mapping(address => bool) public RegisteredSellerMapping */\n    tag_14:\n      callvalue\n      dup1\n      iszero\n      tag_135\n      jumpi\n      0x00\n      dup1\n      revert\n    tag_135:\n      pop\n      tag_136\n      0x04\n      dup1\n      calldatasize\n      sub\n      dup2\n      add\n      swap1\n      tag_137\n      swap2\n      swap1\n      tag_108\n      jump\t// in\n    tag_137:\n      tag_138\n      jump\t// in\n    tag_136:\n      mload(0x40)\n      tag_139\n      swap2\n      swap1\n      tag_104\n      jump\t// in\n    tag_139:\n      mload(0x40)\n      dup1\n      swap2\n      sub\n      swap1\n      return\n        /* \"contracts/PorfolioProject.sol\":9042:9135  function getBuyer() public view returns( address [] memory ){... */\n    tag_15:\n      callvalue\n      dup1\n      iszero\n      tag_140\n      jumpi\n      0x00\n      dup1\n      revert\n    tag_140:\n      pop\n      tag_141\n      tag_142\n      jump\t// in\n    tag_141:\n      mload(0x40)\n      tag_143\n      swap2\n      swap1\n      tag_144\n      jump\t// in\n    tag_143:\n      mload(0x40)\n      dup1\n      swap2\n      sub\n      swap1\n      return\n        /* \"contracts/PorfolioProject.sol\":1585:1632  mapping(address => bool) public SellerRejection */\n    tag_16:\n      callvalue\n      dup1\n      iszero\n      tag_145\n      jumpi\n      0x00\n      dup1\n      revert\n    tag_145:\n      pop\n      tag_146\n      0x04\n      dup1\n      calldatasize\n      sub\n      dup2\n      add\n      swap1\n      tag_147\n      swap2\n      swap1\n      tag_108\n      jump\t// in\n    tag_147:\n      tag_148\n      jump\t// in\n    tag_146:\n      mload(0x40)\n      tag_149\n      swap2\n      swap1\n      tag_104\n      jump\t// in\n    tag_149:\n      mload(0x40)\n      dup1\n      swap2\n      sub\n      swap1\n      return\n        /* \"contracts/PorfolioProject.sol\":3336:3427  function getArea(uint i) public view returns (uint) {... */\n    tag_17:\n      callvalue\n      dup1\n      iszero\n      tag_150\n      jumpi\n      0x00\n      dup1\n      revert\n    tag_150:\n      pop\n      tag_151\n      0x04\n      dup1\n      calldatasize\n      sub\n      dup2\n      add\n      swap1\n      tag_152\n      swap2\n      swap1\n      tag_76\n      jump\t// in\n    tag_152:\n      tag_153\n      jump\t// in\n    tag_151:\n      mload(0x40)\n      tag_154\n      swap2\n      swap1\n      tag_79\n      jump\t// in\n    tag_154:\n      mload(0x40)\n      dup1\n      swap2\n      sub\n      swap1\n      return\n        /* \"contracts/PorfolioProject.sol\":10313:10476  function payment(address payable _receiver, uint _landId) public payable {... */\n    tag_18:\n      tag_155\n      0x04\n      dup1\n      calldatasize\n      sub\n      dup2\n      add\n      swap1\n      tag_156\n      swap2\n      swap1\n      tag_157\n      jump\t// in\n    tag_156:\n      tag_158\n      jump\t// in\n    tag_155:\n      stop\n        /* \"contracts/PorfolioProject.sol\":4451:4632  function verifyBuyer(address _buyerId) public{... */\n    tag_19:\n      callvalue\n      dup1\n      iszero\n      tag_159\n      jumpi\n      0x00\n      dup1\n      revert\n    tag_159:\n      pop\n      tag_160\n      0x04\n      dup1\n      calldatasize\n      sub\n      dup2\n      add\n      swap1\n      tag_161\n      swap2\n      swap1\n      tag_108\n      jump\t// in\n    tag_161:\n      tag_162\n      jump\t// in\n    tag_160:\n      stop\n        /* \"contracts/PorfolioProject.sol\":9214:9462  function getBuyerDetails(address i) public view returns ( string memory,string memory, uint, string memory,uint) {... */\n    tag_20:\n      callvalue\n      dup1\n      iszero\n      tag_163\n      jumpi\n      0x00\n      dup1\n      revert\n    tag_163:\n      pop\n      tag_164\n      0x04\n      dup1\n      calldatasize\n      sub\n      dup2\n      add\n      swap1\n      tag_165\n      swap2\n      swap1\n      tag_108\n      jump\t// in\n    tag_165:\n      tag_166\n      jump\t// in\n    tag_164:\n      mload(0x40)\n      tag_167\n      swap6\n      swap5\n      swap4\n      swap3\n      swap2\n      swap1\n      tag_168\n      jump\t// in\n    tag_167:\n      mload(0x40)\n      dup1\n      swap2\n      sub\n      swap1\n      return\n        /* \"contracts/PorfolioProject.sol\":4978:5131  function isLandVerified(uint _id) public view returns (string memory) {... */\n    tag_21:\n      callvalue\n      dup1\n      iszero\n      tag_169\n      jumpi\n      0x00\n      dup1\n      revert\n    tag_169:\n      pop\n      tag_170\n      0x04\n      dup1\n      calldatasize\n      sub\n      dup2\n      add\n      swap1\n      tag_171\n      swap2\n      swap1\n      tag_76\n      jump\t// in\n    tag_171:\n      tag_172\n      jump\t// in\n    tag_170:\n      mload(0x40)\n      tag_173\n      swap2\n      swap1\n      tag_120\n      jump\t// in\n    tag_173:\n      mload(0x40)\n      dup1\n      swap2\n      sub\n      swap1\n      return\n        /* \"contracts/PorfolioProject.sol\":9706:9841  function isApproved(uint _id) public view returns (bool) {... */\n    tag_22:\n      callvalue\n      dup1\n      iszero\n      tag_174\n      jumpi\n      0x00\n      dup1\n      revert\n    tag_174:\n      pop\n      tag_175\n      0x04\n      dup1\n      calldatasize\n      sub\n      dup2\n      add\n      swap1\n      tag_176\n      swap2\n      swap1\n      tag_76\n      jump\t// in\n    tag_176:\n      tag_177\n      jump\t// in\n    tag_175:\n      mload(0x40)\n      tag_178\n      swap2\n      swap1\n      tag_104\n      jump\t// in\n    tag_178:\n      mload(0x40)\n      dup1\n      swap2\n      sub\n      swap1\n      return\n        /* \"contracts/PorfolioProject.sol\":1748:1793  mapping(uint => bool) public LandVerification */\n    tag_23:\n      callvalue\n      dup1\n      iszero\n      tag_179\n      jumpi\n      0x00\n      dup1\n      revert\n    tag_179:\n      pop\n      tag_180\n      0x04\n      dup1\n      calldatasize\n      sub\n      dup2\n      add\n      swap1\n      tag_181\n      swap2\n      swap1\n      tag_76\n      jump\t// in\n    tag_181:\n      tag_182\n      jump\t// in\n    tag_180:\n      mload(0x40)\n      tag_183\n      swap2\n      swap1\n      tag_104\n      jump\t// in\n    tag_183:\n      mload(0x40)\n      dup1\n      swap2\n      sub\n      swap1\n      return\n        /* \"contracts/PorfolioProject.sol\":4640:4818  function rejectBuyer(address _buyerId) public{... */\n    tag_24:\n      callvalue\n      dup1\n      iszero\n      tag_184\n      jumpi\n      0x00\n      dup1\n      revert\n    tag_184:\n      pop\n      tag_185\n      0x04\n      dup1\n      calldatasize\n      sub\n      dup2\n      add\n      swap1\n      tag_186\n      swap2\n      swap1\n      tag_108\n      jump\t// in\n    tag_186:\n      tag_187\n      jump\t// in\n    tag_185:\n      stop\n        /* \"contracts/PorfolioProject.sol\":1848:1890  mapping(uint => bool) public RequestStatus */\n    tag_25:\n      callvalue\n      dup1\n      iszero\n      tag_188\n      jumpi\n      0x00\n      dup1\n      revert\n    tag_188:\n      pop\n      tag_189\n      0x04\n      dup1\n      calldatasize\n      sub\n      dup2\n      add\n      swap1\n      tag_190\n      swap2\n      swap1\n      tag_76\n      jump\t// in\n    tag_190:\n      tag_191\n      jump\t// in\n    tag_189:\n      mload(0x40)\n      tag_192\n      swap2\n      swap1\n      tag_104\n      jump\t// in\n    tag_192:\n      mload(0x40)\n      dup1\n      swap2\n      sub\n      swap1\n      return\n        /* \"contracts/PorfolioProject.sol\":6193:6556  function addLand(uint _area, string memory _city,string memory _state, uint landPrice, uint _propertyPID) public {... */\n    tag_26:\n      callvalue\n      dup1\n      iszero\n      tag_193\n      jumpi\n      0x00\n      dup1\n      revert\n    tag_193:\n      pop\n      tag_194\n      0x04\n      dup1\n      calldatasize\n      sub\n      dup2\n      add\n      swap1\n      tag_195\n      swap2\n      swap1\n      tag_196\n      jump\t// in\n    tag_195:\n      tag_197\n      jump\t// in\n    tag_194:\n      stop\n        /* \"contracts/PorfolioProject.sol\":7131:7614  function updateSeller(string memory _name, uint _age, string memory _city, uint _CNIC , string memory _email) public {... */\n    tag_27:\n      callvalue\n      dup1\n      iszero\n      tag_198\n      jumpi\n      0x00\n      dup1\n      revert\n    tag_198:\n      pop\n      tag_199\n      0x04\n      dup1\n      calldatasize\n      sub\n      dup2\n      add\n      swap1\n      tag_200\n      swap2\n      swap1\n      tag_92\n      jump\t// in\n    tag_200:\n      tag_201\n      jump\t// in\n    tag_199:\n      stop\n        /* \"contracts/PorfolioProject.sol\":1695:1741  mapping(address => bool) public BuyerRejection */\n    tag_28:\n      callvalue\n      dup1\n      iszero\n      tag_202\n      jumpi\n      0x00\n      dup1\n      revert\n    tag_202:\n      pop\n      tag_203\n      0x04\n      dup1\n      calldatasize\n      sub\n      dup2\n      add\n      swap1\n      tag_204\n      swap2\n      swap1\n      tag_108\n      jump\t// in\n    tag_204:\n      tag_205\n      jump\t// in\n    tag_203:\n      mload(0x40)\n      tag_206\n      swap2\n      swap1\n      tag_104\n      jump\t// in\n    tag_206:\n      mload(0x40)\n      dup1\n      swap2\n      sub\n      swap1\n      return\n        /* \"contracts/PorfolioProject.sol\":1800:1841  mapping(uint => address) public LandOwner */\n    tag_29:\n      callvalue\n      dup1\n      iszero\n      tag_207\n      jumpi\n      0x00\n      dup1\n      revert\n    tag_207:\n      pop\n      tag_208\n      0x04\n      dup1\n      calldatasize\n      sub\n      dup2\n      add\n      swap1\n      tag_209\n      swap2\n      swap1\n      tag_76\n      jump\t// in\n    tag_209:\n      tag_210\n      jump\t// in\n    tag_208:\n      mload(0x40)\n      tag_211\n      swap2\n      swap1\n      tag_88\n      jump\t// in\n    tag_211:\n      mload(0x40)\n      dup1\n      swap2\n      sub\n      swap1\n      return\n        /* \"contracts/PorfolioProject.sol\":1467:1521  mapping(address => bool) public RegisteredBuyerMapping */\n    tag_30:\n      callvalue\n      dup1\n      iszero\n      tag_212\n      jumpi\n      0x00\n      dup1\n      revert\n    tag_212:\n      pop\n      tag_213\n      0x04\n      dup1\n      calldatasize\n      sub\n      dup2\n      add\n      swap1\n      tag_214\n      swap2\n      swap1\n      tag_108\n      jump\t// in\n    tag_214:\n      tag_215\n      jump\t// in\n    tag_213:\n      mload(0x40)\n      tag_216\n      swap2\n      swap1\n      tag_104\n      jump\t// in\n    tag_216:\n      mload(0x40)\n      dup1\n      swap2\n      sub\n      swap1\n      return\n        /* \"contracts/PorfolioProject.sol\":1639:1688  mapping(address => bool) public BuyerVerification */\n    tag_31:\n      callvalue\n      dup1\n      iszero\n      tag_217\n      jumpi\n      0x00\n      dup1\n      revert\n    tag_217:\n      pop\n      tag_218\n      0x04\n      dup1\n      calldatasize\n      sub\n      dup2\n      add\n      swap1\n      tag_219\n      swap2\n      swap1\n      tag_108\n      jump\t// in\n    tag_219:\n      tag_220\n      jump\t// in\n    tag_218:\n      mload(0x40)\n      tag_221\n      swap2\n      swap1\n      tag_104\n      jump\t// in\n    tag_221:\n      mload(0x40)\n      dup1\n      swap2\n      sub\n      swap1\n      return\n        /* \"contracts/PorfolioProject.sol\":1230:1275  mapping(address => Buyer) public BuyerMapping */\n    tag_32:\n      callvalue\n      dup1\n      iszero\n      tag_222\n      jumpi\n      0x00\n      dup1\n      revert\n    tag_222:\n      pop\n      tag_223\n      0x04\n      dup1\n      calldatasize\n      sub\n      dup2\n      add\n      swap1\n      tag_224\n      swap2\n      swap1\n      tag_108\n      jump\t// in\n    tag_224:\n      tag_225\n      jump\t// in\n    tag_223:\n      mload(0x40)\n      tag_226\n      swap7\n      swap6\n      swap5\n      swap4\n      swap3\n      swap2\n      swap1\n      tag_227\n      jump\t// in\n    tag_226:\n      mload(0x40)\n      dup1\n      swap2\n      sub\n      swap1\n      return\n        /* \"contracts/PorfolioProject.sol\":1282:1333  mapping(uint => LandRequest) public RequestsMapping */\n    tag_33:\n      callvalue\n      dup1\n      iszero\n      tag_228\n      jumpi\n      0x00\n      dup1\n      revert\n    tag_228:\n      pop\n      tag_229\n      0x04\n      dup1\n      calldatasize\n      sub\n      dup2\n      add\n      swap1\n      tag_230\n      swap2\n      swap1\n      tag_76\n      jump\t// in\n    tag_230:\n      tag_231\n      jump\t// in\n    tag_229:\n      mload(0x40)\n      tag_232\n      swap5\n      swap4\n      swap3\n      swap2\n      swap1\n      tag_233\n      jump\t// in\n    tag_232:\n      mload(0x40)\n      dup1\n      swap2\n      sub\n      swap1\n      return\n        /* \"contracts/PorfolioProject.sol\":7772:7990  function getSellerDetails(address i) public view returns (string memory, uint, uint, string memory) {... */\n    tag_34:\n      callvalue\n      dup1\n      iszero\n      tag_234\n      jumpi\n      0x00\n      dup1\n      revert\n    tag_234:\n      pop\n      tag_235\n      0x04\n      dup1\n      calldatasize\n      sub\n      dup2\n      add\n      swap1\n      tag_236\n      swap2\n      swap1\n      tag_108\n      jump\t// in\n    tag_236:\n      tag_237\n      jump\t// in\n    tag_235:\n      mload(0x40)\n      tag_238\n      swap5\n      swap4\n      swap3\n      swap2\n      swap1\n      tag_239\n      jump\t// in\n    tag_238:\n      mload(0x40)\n      dup1\n      swap2\n      sub\n      swap1\n      return\n        /* \"contracts/PorfolioProject.sol\":5139:5308  function isVerified(address _id) public view returns (bool) {... */\n    tag_35:\n      callvalue\n      dup1\n      iszero\n      tag_240\n      jumpi\n      0x00\n      dup1\n      revert\n    tag_240:\n      pop\n      tag_241\n      0x04\n      dup1\n      calldatasize\n      sub\n      dup2\n      add\n      swap1\n      tag_242\n      swap2\n      swap1\n      tag_108\n      jump\t// in\n    tag_242:\n      tag_243\n      jump\t// in\n    tag_241:\n      mload(0x40)\n      tag_244\n      swap2\n      swap1\n      tag_104\n      jump\t// in\n    tag_244:\n      mload(0x40)\n      dup1\n      swap2\n      sub\n      swap1\n      return\n        /* \"contracts/PorfolioProject.sol\":9911:10079  function LandOwnershipTransfer(uint _landId, address _newOwner) public{... */\n    tag_36:\n      callvalue\n      dup1\n      iszero\n      tag_245\n      jumpi\n      0x00\n      dup1\n      revert\n    tag_245:\n      pop\n      tag_246\n      0x04\n      dup1\n      calldatasize\n      sub\n      dup2\n      add\n      swap1\n      tag_247\n      swap2\n      swap1\n      tag_248\n      jump\t// in\n    tag_247:\n      tag_249\n      jump\t// in\n    tag_246:\n      stop\n        /* \"contracts/PorfolioProject.sol\":5988:6139  function isRegistered(address _id) public view returns (bool) {... */\n    tag_37:\n      callvalue\n      dup1\n      iszero\n      tag_250\n      jumpi\n      0x00\n      dup1\n      revert\n    tag_250:\n      pop\n      tag_251\n      0x04\n      dup1\n      calldatasize\n      sub\n      dup2\n      add\n      swap1\n      tag_252\n      swap2\n      swap1\n      tag_108\n      jump\t// in\n    tag_252:\n      tag_253\n      jump\t// in\n    tag_251:\n      mload(0x40)\n      tag_254\n      swap2\n      swap1\n      tag_104\n      jump\t// in\n    tag_254:\n      mload(0x40)\n      dup1\n      swap2\n      sub\n      swap1\n      return\n        /* \"contracts/PorfolioProject.sol\":10120:10261  function isPaid(uint _landId) public view returns (bool) {... */\n    tag_38:\n      callvalue\n      dup1\n      iszero\n      tag_255\n      jumpi\n      0x00\n      dup1\n      revert\n    tag_255:\n      pop\n      tag_256\n      0x04\n      dup1\n      calldatasize\n      sub\n      dup2\n      add\n      swap1\n      tag_257\n      swap2\n      swap1\n      tag_76\n      jump\t// in\n    tag_257:\n      tag_258\n      jump\t// in\n    tag_256:\n      mload(0x40)\n      tag_259\n      swap2\n      swap1\n      tag_104\n      jump\t// in\n    tag_259:\n      mload(0x40)\n      dup1\n      swap2\n      sub\n      swap1\n      return\n        /* \"contracts/PorfolioProject.sol\":2036:2060  address[] public sellers */\n    tag_39:\n      callvalue\n      dup1\n      iszero\n      tag_260\n      jumpi\n      0x00\n      dup1\n      revert\n    tag_260:\n      pop\n      tag_261\n      0x04\n      dup1\n      calldatasize\n      sub\n      dup2\n      add\n      swap1\n      tag_262\n      swap2\n      swap1\n      tag_76\n      jump\t// in\n    tag_262:\n      tag_263\n      jump\t// in\n    tag_261:\n      mload(0x40)\n      tag_264\n      swap2\n      swap1\n      tag_88\n      jump\t// in\n    tag_264:\n      mload(0x40)\n      dup1\n      swap2\n      sub\n      swap1\n      return\n        /* \"contracts/PorfolioProject.sol\":4028:4214  function verifySeller(address _sellerId) public{... */\n    tag_40:\n      callvalue\n      dup1\n      iszero\n      tag_265\n      jumpi\n      0x00\n      dup1\n      revert\n    tag_265:\n      pop\n      tag_266\n      0x04\n      dup1\n      calldatasize\n      sub\n      dup2\n      add\n      swap1\n      tag_267\n      swap2\n      swap1\n      tag_108\n      jump\t// in\n    tag_267:\n      tag_268\n      jump\t// in\n    tag_266:\n      stop\n        /* \"contracts/PorfolioProject.sol\":3433:3533  function getCity(uint i) public view returns (string memory) {... */\n    tag_41:\n      callvalue\n      dup1\n      iszero\n      tag_269\n      jumpi\n      0x00\n      dup1\n      revert\n    tag_269:\n      pop\n      tag_270\n      0x04\n      dup1\n      calldatasize\n      sub\n      dup2\n      add\n      swap1\n      tag_271\n      swap2\n      swap1\n      tag_76\n      jump\t// in\n    tag_271:\n      tag_272\n      jump\t// in\n    tag_270:\n      mload(0x40)\n      tag_273\n      swap2\n      swap1\n      tag_120\n      jump\t// in\n    tag_273:\n      mload(0x40)\n      dup1\n      swap2\n      sub\n      swap1\n      return\n        /* \"contracts/PorfolioProject.sol\":7622:7717  function getSeller() public view returns( address [] memory ){... */\n    tag_42:\n      callvalue\n      dup1\n      iszero\n      tag_274\n      jumpi\n      0x00\n      dup1\n      revert\n    tag_274:\n      pop\n      tag_275\n      tag_276\n      jump\t// in\n    tag_275:\n      mload(0x40)\n      tag_277\n      swap2\n      swap1\n      tag_144\n      jump\t// in\n    tag_277:\n      mload(0x40)\n      dup1\n      swap2\n      sub\n      swap1\n      return\n        /* \"contracts/PorfolioProject.sol\":3136:3228  function getSellersCount() public view returns (uint) {... */\n    tag_43:\n      callvalue\n      dup1\n      iszero\n      tag_278\n      jumpi\n      0x00\n      dup1\n      revert\n    tag_278:\n      pop\n      tag_279\n      tag_280\n      jump\t// in\n    tag_279:\n      mload(0x40)\n      tag_281\n      swap2\n      swap1\n      tag_79\n      jump\t// in\n    tag_281:\n      mload(0x40)\n      dup1\n      swap2\n      sub\n      swap1\n      return\n        /* \"contracts/PorfolioProject.sol\":1176:1223  mapping(address => Seller) public SellerMapping */\n    tag_44:\n      callvalue\n      dup1\n      iszero\n      tag_282\n      jumpi\n      0x00\n      dup1\n      revert\n    tag_282:\n      pop\n      tag_283\n      0x04\n      dup1\n      calldatasize\n      sub\n      dup2\n      add\n      swap1\n      tag_284\n      swap2\n      swap1\n      tag_108\n      jump\t// in\n    tag_284:\n      tag_285\n      jump\t// in\n    tag_283:\n      mload(0x40)\n      tag_286\n      swap7\n      swap6\n      swap5\n      swap4\n      swap3\n      swap2\n      swap1\n      tag_287\n      jump\t// in\n    tag_286:\n      mload(0x40)\n      dup1\n      swap2\n      sub\n      swap1\n      return\n        /* \"contracts/PorfolioProject.sol\":1115:1169  mapping(uint => LandInspector) public InspectorMapping */\n    tag_45:\n      callvalue\n      dup1\n      iszero\n      tag_288\n      jumpi\n      0x00\n      dup1\n      revert\n    tag_288:\n      pop\n      tag_289\n      0x04\n      dup1\n      calldatasize\n      sub\n      dup2\n      add\n      swap1\n      tag_290\n      swap2\n      swap1\n      tag_76\n      jump\t// in\n    tag_290:\n      tag_291\n      jump\t// in\n    tag_289:\n      mload(0x40)\n      tag_292\n      swap5\n      swap4\n      swap3\n      swap2\n      swap1\n      tag_293\n      jump\t// in\n    tag_292:\n      mload(0x40)\n      dup1\n      swap2\n      sub\n      swap1\n      return\n        /* \"contracts/PorfolioProject.sol\":5641:5830  function isLandInspector(address _id) public view returns (bool) {... */\n    tag_46:\n      callvalue\n      dup1\n      iszero\n      tag_294\n      jumpi\n      0x00\n      dup1\n      revert\n    tag_294:\n      pop\n      tag_295\n      0x04\n      dup1\n      calldatasize\n      sub\n      dup2\n      add\n      swap1\n      tag_296\n      swap2\n      swap1\n      tag_108\n      jump\t// in\n    tag_296:\n      tag_297\n      jump\t// in\n    tag_295:\n      mload(0x40)\n      tag_298\n      swap2\n      swap1\n      tag_104\n      jump\t// in\n    tag_298:\n      mload(0x40)\n      dup1\n      swap2\n      sub\n      swap1\n      return\n        /* \"contracts/PorfolioProject.sol\":4222:4405  function rejectSeller(address _sellerId) public{... */\n    tag_47:\n      callvalue\n      dup1\n      iszero\n      tag_299\n      jumpi\n      0x00\n      dup1\n      revert\n    tag_299:\n      pop\n      tag_300\n      0x04\n      dup1\n      calldatasize\n      sub\n      dup2\n      add\n      swap1\n      tag_301\n      swap2\n      swap1\n      tag_108\n      jump\t// in\n    tag_301:\n      tag_302\n      jump\t// in\n    tag_300:\n      stop\n        /* \"contracts/PorfolioProject.sol\":1071:1108  mapping(uint => Landreg) public lands */\n    tag_48:\n      callvalue\n      dup1\n      iszero\n      tag_303\n      jumpi\n      0x00\n      dup1\n      revert\n    tag_303:\n      pop\n      tag_304\n      0x04\n      dup1\n      calldatasize\n      sub\n      dup2\n      add\n      swap1\n      tag_305\n      swap2\n      swap1\n      tag_76\n      jump\t// in\n    tag_305:\n      tag_306\n      jump\t// in\n    tag_304:\n      mload(0x40)\n      tag_307\n      swap7\n      swap6\n      swap5\n      swap4\n      swap3\n      swap2\n      swap1\n      tag_308\n      jump\t// in\n    tag_307:\n      mload(0x40)\n      dup1\n      swap2\n      sub\n      swap1\n      return\n        /* \"contracts/PorfolioProject.sol\":8538:9034  function updateBuyer(string memory _name,uint _age, string memory _city,uint _CNIC, string memory _email) public {... */\n    tag_49:\n      callvalue\n      dup1\n      iszero\n      tag_309\n      jumpi\n      0x00\n      dup1\n      revert\n    tag_309:\n      pop\n      tag_310\n      0x04\n      dup1\n      calldatasize\n      sub\n      dup2\n      add\n      swap1\n      tag_311\n      swap2\n      swap1\n      tag_92\n      jump\t// in\n    tag_311:\n      tag_312\n      jump\t// in\n    tag_310:\n      stop\n        /* \"contracts/PorfolioProject.sol\":1528:1578  mapping(address => bool) public SellerVerification */\n    tag_50:\n      callvalue\n      dup1\n      iszero\n      tag_313\n      jumpi\n      0x00\n      dup1\n      revert\n    tag_313:\n      pop\n      tag_314\n      0x04\n      dup1\n      calldatasize\n      sub\n      dup2\n      add\n      swap1\n      tag_315\n      swap2\n      swap1\n      tag_108\n      jump\t// in\n    tag_315:\n      tag_316\n      jump\t// in\n    tag_314:\n      mload(0x40)\n      tag_317\n      swap2\n      swap1\n      tag_104\n      jump\t// in\n    tag_317:\n      mload(0x40)\n      dup1\n      swap2\n      sub\n      swap1\n      return\n        /* \"contracts/PorfolioProject.sol\":3653:3750  function getPrice(uint i) public view returns (uint) {... */\n    tag_51:\n      callvalue\n      dup1\n      iszero\n      tag_318\n      jumpi\n      0x00\n      dup1\n      revert\n    tag_318:\n      pop\n      tag_319\n      0x04\n      dup1\n      calldatasize\n      sub\n      dup2\n      add\n      swap1\n      tag_320\n      swap2\n      swap1\n      tag_76\n      jump\t// in\n    tag_320:\n      tag_321\n      jump\t// in\n    tag_319:\n      mload(0x40)\n      tag_322\n      swap2\n      swap1\n      tag_79\n      jump\t// in\n    tag_322:\n      mload(0x40)\n      dup1\n      swap2\n      sub\n      swap1\n      return\n        /* \"contracts/PorfolioProject.sol\":5487:5633  function isSeller(address _id) public view returns (bool) {... */\n    tag_52:\n      callvalue\n      dup1\n      iszero\n      tag_323\n      jumpi\n      0x00\n      dup1\n      revert\n    tag_323:\n      pop\n      tag_324\n      0x04\n      dup1\n      calldatasize\n      sub\n      dup2\n      add\n      swap1\n      tag_325\n      swap2\n      swap1\n      tag_108\n      jump\t// in\n    tag_325:\n      tag_326\n      jump\t// in\n    tag_324:\n      mload(0x40)\n      tag_327\n      swap2\n      swap1\n      tag_104\n      jump\t// in\n    tag_327:\n      mload(0x40)\n      dup1\n      swap2\n      sub\n      swap1\n      return\n        /* \"contracts/PorfolioProject.sol\":3038:3128  function getBuyersCount() public view returns (uint) {... */\n    tag_53:\n      callvalue\n      dup1\n      iszero\n      tag_328\n      jumpi\n      0x00\n      dup1\n      revert\n    tag_328:\n      pop\n      tag_329\n      tag_330\n      jump\t// in\n    tag_329:\n      mload(0x40)\n      tag_331\n      swap2\n      swap1\n      tag_79\n      jump\t// in\n    tag_331:\n      mload(0x40)\n      dup1\n      swap2\n      sub\n      swap1\n      return\n        /* \"contracts/PorfolioProject.sol\":2067:2090  address[] public buyers */\n    tag_54:\n      callvalue\n      dup1\n      iszero\n      tag_332\n      jumpi\n      0x00\n      dup1\n      revert\n    tag_332:\n      pop\n      tag_333\n      0x04\n      dup1\n      calldatasize\n      sub\n      dup2\n      add\n      swap1\n      tag_334\n      swap2\n      swap1\n      tag_76\n      jump\t// in\n    tag_334:\n      tag_335\n      jump\t// in\n    tag_333:\n      mload(0x40)\n      tag_336\n      swap2\n      swap1\n      tag_88\n      jump\t// in\n    tag_336:\n      mload(0x40)\n      dup1\n      swap2\n      sub\n      swap1\n      return\n        /* \"contracts/PorfolioProject.sol\":9478:9692  function getRequestDetails (uint i) public view returns (address, address, uint, bool) {... */\n    tag_55:\n      callvalue\n      dup1\n      iszero\n      tag_337\n      jumpi\n      0x00\n      dup1\n      revert\n    tag_337:\n      pop\n      tag_338\n      0x04\n      dup1\n      calldatasize\n      sub\n      dup2\n      add\n      swap1\n      tag_339\n      swap2\n      swap1\n      tag_76\n      jump\t// in\n    tag_339:\n      tag_340\n      jump\t// in\n    tag_338:\n      mload(0x40)\n      tag_341\n      swap5\n      swap4\n      swap3\n      swap2\n      swap1\n      tag_342\n      jump\t// in\n    tag_341:\n      mload(0x40)\n      dup1\n      swap2\n      sub\n      swap1\n      return\n        /* \"contracts/PorfolioProject.sol\":1342:1398  mapping(address => bool) public RegisteredAddressMapping */\n    tag_56:\n      callvalue\n      dup1\n      iszero\n      tag_343\n      jumpi\n      0x00\n      dup1\n      revert\n    tag_343:\n      pop\n      tag_344\n      0x04\n      dup1\n      calldatasize\n      sub\n      dup2\n      add\n      swap1\n      tag_345\n      swap2\n      swap1\n      tag_108\n      jump\t// in\n    tag_345:\n      tag_346\n      jump\t// in\n    tag_344:\n      mload(0x40)\n      tag_347\n      swap2\n      swap1\n      tag_104\n      jump\t// in\n    tag_347:\n      mload(0x40)\n      dup1\n      swap2\n      sub\n      swap1\n      return\n        /* \"contracts/PorfolioProject.sol\":4830:4970  function verifyLand(uint _landId) public{... */\n    tag_57:\n      callvalue\n      dup1\n      iszero\n      tag_348\n      jumpi\n      0x00\n      dup1\n      revert\n    tag_348:\n      pop\n      tag_349\n      0x04\n      dup1\n      calldatasize\n      sub\n      dup2\n      add\n      swap1\n      tag_350\n      swap2\n      swap1\n      tag_76\n      jump\t// in\n    tag_350:\n      tag_351\n      jump\t// in\n    tag_349:\n      stop\n        /* \"contracts/PorfolioProject.sol\":3756:3853  function getPID(uint i) public view returns (uint) {... */\n    tag_77:\n        /* \"contracts/PorfolioProject.sol\":3801:3805  uint */\n      0x00\n        /* \"contracts/PorfolioProject.sol\":3825:3830  lands */\n      dup1\n        /* \"contracts/PorfolioProject.sol\":3825:3833  lands[i] */\n      0x00\n        /* \"contracts/PorfolioProject.sol\":3831:3832  i */\n      dup4\n        /* \"contracts/PorfolioProject.sol\":3825:3833  lands[i] */\n      dup2\n      mstore\n      0x20\n      add\n      swap1\n      dup2\n      mstore\n      0x20\n      add\n      0x00\n      keccak256\n        /* \"contracts/PorfolioProject.sol\":3825:3845  lands[i].propertyPID */\n      0x05\n      add\n      sload\n        /* \"contracts/PorfolioProject.sol\":3818:3845  return lands[i].propertyPID */\n      swap1\n      pop\n        /* \"contracts/PorfolioProject.sol\":3756:3853  function getPID(uint i) public view returns (uint) {... */\n      swap2\n      swap1\n      pop\n      jump\t// out\n        /* \"contracts/PorfolioProject.sol\":2942:3030  function getLandsCount() public view returns (uint) {... */\n    tag_82:\n        /* \"contracts/PorfolioProject.sol\":2988:2992  uint */\n      0x00\n        /* \"contracts/PorfolioProject.sol\":3012:3022  landsCount */\n      sload(0x14)\n        /* \"contracts/PorfolioProject.sol\":3005:3022  return landsCount */\n      swap1\n      pop\n        /* \"contracts/PorfolioProject.sol\":2942:3030  function getLandsCount() public view returns (uint) {... */\n      swap1\n      jump\t// out\n        /* \"contracts/PorfolioProject.sol\":2000:2029  address public Land_Inspector */\n    tag_86:\n      0x11\n      0x00\n      swap1\n      sload\n      swap1\n      0x0100\n      exp\n      swap1\n      div\n      0xffffffffffffffffffffffffffffffffffffffff\n      and\n      dup2\n      jump\t// out\n        /* \"contracts/PorfolioProject.sol\":8041:8530  function registerBuyer(string memory _name, uint _age, string memory _city, uint _CNIC , string memory _email) public {... */\n    tag_93:\n        /* \"contracts/PorfolioProject.sol\":8186:8210  RegisteredAddressMapping */\n      0x05\n        /* \"contracts/PorfolioProject.sol\":8186:8222  RegisteredAddressMapping[msg.sender] */\n      0x00\n        /* \"contracts/PorfolioProject.sol\":8211:8221  msg.sender */\n      caller\n        /* \"contracts/PorfolioProject.sol\":8186:8222  RegisteredAddressMapping[msg.sender] */\n      0xffffffffffffffffffffffffffffffffffffffff\n      and\n      0xffffffffffffffffffffffffffffffffffffffff\n      and\n      dup2\n      mstore\n      0x20\n      add\n      swap1\n      dup2\n      mstore\n      0x20\n      add\n      0x00\n      keccak256\n      0x00\n      swap1\n      sload\n      swap1\n      0x0100\n      exp\n      swap1\n      div\n      0xff\n      and\n        /* \"contracts/PorfolioProject.sol\":8178:8223  require(RegisteredAddressMapping[msg.sender]) */\n      tag_355\n      jumpi\n      0x00\n      dup1\n      revert\n    tag_355:\n        /* \"contracts/PorfolioProject.sol\":8275:8279  true */\n      0x01\n        /* \"contracts/PorfolioProject.sol\":8236:8260  RegisteredAddressMapping */\n      0x05\n        /* \"contracts/PorfolioProject.sol\":8236:8272  RegisteredAddressMapping[msg.sender] */\n      0x00\n        /* \"contracts/PorfolioProject.sol\":8261:8271  msg.sender */\n      caller\n        /* \"contracts/PorfolioProject.sol\":8236:8272  RegisteredAddressMapping[msg.sender] */\n      0xffffffffffffffffffffffffffffffffffffffff\n      and\n      0xffffffffffffffffffffffffffffffffffffffff\n      and\n      dup2\n      mstore\n      0x20\n      add\n      swap1\n      dup2\n      mstore\n      0x20\n      add\n      0x00\n      keccak256\n      0x00\n        /* \"contracts/PorfolioProject.sol\":8236:8279  RegisteredAddressMapping[msg.sender] = true */\n      0x0100\n      exp\n      dup2\n      sload\n      dup2\n      0xff\n      mul\n      not\n      and\n      swap1\n      dup4\n      iszero\n      iszero\n      mul\n      or\n      swap1\n      sstore\n      pop\n        /* \"contracts/PorfolioProject.sol\":8327:8331  true */\n      0x01\n        /* \"contracts/PorfolioProject.sol\":8290:8312  RegisteredBuyerMapping */\n      0x07\n        /* \"contracts/PorfolioProject.sol\":8290:8324  RegisteredBuyerMapping[msg.sender] */\n      0x00\n        /* \"contracts/PorfolioProject.sol\":8313:8323  msg.sender */\n      caller\n        /* \"contracts/PorfolioProject.sol\":8290:8324  RegisteredBuyerMapping[msg.sender] */\n      0xffffffffffffffffffffffffffffffffffffffff\n      and\n      0xffffffffffffffffffffffffffffffffffffffff\n      and\n      dup2\n      mstore\n      0x20\n      add\n      swap1\n      dup2\n      mstore\n      0x20\n      add\n      0x00\n      keccak256\n      0x00\n        /* \"contracts/PorfolioProject.sol\":8290:8331  RegisteredBuyerMapping[msg.sender] = true */\n      0x0100\n      exp\n      dup2\n      sload\n      dup2\n      0xff\n      mul\n      not\n      and\n      swap1\n      dup4\n      iszero\n      iszero\n      mul\n      or\n      swap1\n      sstore\n      pop\n        /* \"contracts/PorfolioProject.sol\":8343:8354  buyersCount */\n      0x17\n      0x00\n        /* \"contracts/PorfolioProject.sol\":8343:8356  buyersCount++ */\n      dup2\n      sload\n      dup1\n      swap3\n      swap2\n      swap1\n      tag_356\n      swap1\n      tag_357\n      jump\t// in\n    tag_356:\n      swap2\n      swap1\n      pop\n      sstore\n      pop\n        /* \"contracts/PorfolioProject.sol\":8394:8446  Buyer(msg.sender, _name, _age, _city, _CNIC, _email) */\n      mload(0x40)\n      dup1\n      0xc0\n      add\n      0x40\n      mstore\n      dup1\n        /* \"contracts/PorfolioProject.sol\":8400:8410  msg.sender */\n      caller\n        /* \"contracts/PorfolioProject.sol\":8394:8446  Buyer(msg.sender, _name, _age, _city, _CNIC, _email) */\n      0xffffffffffffffffffffffffffffffffffffffff\n      and\n      dup2\n      mstore\n      0x20\n      add\n        /* \"contracts/PorfolioProject.sol\":8412:8417  _name */\n      dup7\n        /* \"contracts/PorfolioProject.sol\":8394:8446  Buyer(msg.sender, _name, _age, _city, _CNIC, _email) */\n      dup2\n      mstore\n      0x20\n      add\n        /* \"contracts/PorfolioProject.sol\":8419:8423  _age */\n      dup6\n        /* \"contracts/PorfolioProject.sol\":8394:8446  Buyer(msg.sender, _name, _age, _city, _CNIC, _email) */\n      dup2\n      mstore\n      0x20\n      add\n        /* \"contracts/PorfolioProject.sol\":8425:8430  _city */\n      dup5\n        /* \"contracts/PorfolioProject.sol\":8394:8446  Buyer(msg.sender, _name, _age, _city, _CNIC, _email) */\n      dup2\n      mstore\n      0x20\n      add\n        /* \"contracts/PorfolioProject.sol\":8432:8437  _CNIC */\n      dup4\n        /* \"contracts/PorfolioProject.sol\":8394:8446  Buyer(msg.sender, _name, _age, _city, _CNIC, _email) */\n      dup2\n      mstore\n      0x20\n      add\n        /* \"contracts/PorfolioProject.sol\":8439:8445  _email */\n      dup3\n        /* \"contracts/PorfolioProject.sol\":8394:8446  Buyer(msg.sender, _name, _age, _city, _CNIC, _email) */\n      dup2\n      mstore\n      pop\n        /* \"contracts/PorfolioProject.sol\":8367:8379  BuyerMapping */\n      0x03\n        /* \"contracts/PorfolioProject.sol\":8367:8391  BuyerMapping[msg.sender] */\n      0x00\n        /* \"contracts/PorfolioProject.sol\":8380:8390  msg.sender */\n      caller\n        /* \"contracts/PorfolioProject.sol\":8367:8391  BuyerMapping[msg.sender] */\n      0xffffffffffffffffffffffffffffffffffffffff\n      and\n      0xffffffffffffffffffffffffffffffffffffffff\n      and\n      dup2\n      mstore\n      0x20\n      add\n      swap1\n      dup2\n      mstore\n      0x20\n      add\n      0x00\n      keccak256\n        /* \"contracts/PorfolioProject.sol\":8367:8446  BuyerMapping[msg.sender] = Buyer(msg.sender, _name, _age, _city, _CNIC, _email) */\n      0x00\n      dup3\n      add\n      mload\n      dup2\n      0x00\n      add\n      exp(0x0100, 0x00)\n      dup2\n      sload\n      dup2\n      0xffffffffffffffffffffffffffffffffffffffff\n      mul\n      not\n      and\n      swap1\n      dup4\n      0xffffffffffffffffffffffffffffffffffffffff\n      and\n      mul\n      or\n      swap1\n      sstore\n      pop\n      0x20\n      dup3\n      add\n      mload\n      dup2\n      0x01\n      add\n      swap1\n      dup2\n      tag_358\n      swap2\n      swap1\n      tag_359\n      jump\t// in\n    tag_358:\n      pop\n      0x40\n      dup3\n      add\n      mload\n      dup2\n      0x02\n      add\n      sstore\n      0x60\n      dup3\n      add\n      mload\n      dup2\n      0x03\n      add\n      swap1\n      dup2\n      tag_360\n      swap2\n      swap1\n      tag_359\n      jump\t// in\n    tag_360:\n      pop\n      0x80\n      dup3\n      add\n      mload\n      dup2\n      0x04\n      add\n      sstore\n      0xa0\n      dup3\n      add\n      mload\n      dup2\n      0x05\n      add\n      swap1\n      dup2\n      tag_361\n      swap2\n      swap1\n      tag_359\n      jump\t// in\n    tag_361:\n      pop\n      swap1\n      pop\n      pop\n        /* \"contracts/PorfolioProject.sol\":8457:8463  buyers */\n      0x13\n        /* \"contracts/PorfolioProject.sol\":8469:8479  msg.sender */\n      caller\n        /* \"contracts/PorfolioProject.sol\":8457:8480  buyers.push(msg.sender) */\n      swap1\n      dup1\n      0x01\n      dup2\n      sload\n      add\n      dup1\n      dup3\n      sstore\n      dup1\n      swap2\n      pop\n      pop\n      0x01\n      swap1\n      sub\n      swap1\n      0x00\n      mstore\n      keccak256(0x00, 0x20)\n      add\n      0x00\n      swap1\n      swap2\n      swap1\n      swap2\n      swap1\n      swap2\n      0x0100\n      exp\n      dup2\n      sload\n      dup2\n      0xffffffffffffffffffffffffffffffffffffffff\n      mul\n      not\n      and\n      swap1\n      dup4\n      0xffffffffffffffffffffffffffffffffffffffff\n      and\n      mul\n      or\n      swap1\n      sstore\n      pop\n        /* \"contracts/PorfolioProject.sol\":8498:8522  Registration(msg.sender) */\n      0x478f5152d8fc568db3f8de9fb402fd9d98a1a7541ecfe434e59cf574fbfc5524\n        /* \"contracts/PorfolioProject.sol\":8511:8521  msg.sender */\n      caller\n        /* \"contracts/PorfolioProject.sol\":8498:8522  Registration(msg.sender) */\n      mload(0x40)\n      tag_363\n      swap2\n      swap1\n      tag_88\n      jump\t// in\n    tag_363:\n      mload(0x40)\n      dup1\n      swap2\n      sub\n      swap1\n      log1\n        /* \"contracts/PorfolioProject.sol\":8041:8530  function registerBuyer(string memory _name, uint _age, string memory _city, uint _CNIC , string memory _email) public {... */\n      pop\n      pop\n      pop\n      pop\n      pop\n      jump\t// out\n        /* \"contracts/PorfolioProject.sol\":3871:3971  function getLandOwner(uint id) public view returns (address) {... */\n    tag_97:\n        /* \"contracts/PorfolioProject.sol\":3923:3930  address */\n      0x00\n        /* \"contracts/PorfolioProject.sol\":3950:3959  LandOwner */\n      0x0d\n        /* \"contracts/PorfolioProject.sol\":3950:3963  LandOwner[id] */\n      0x00\n        /* \"contracts/PorfolioProject.sol\":3960:3962  id */\n      dup4\n        /* \"contracts/PorfolioProject.sol\":3950:3963  LandOwner[id] */\n      dup2\n      mstore\n      0x20\n      add\n      swap1\n      dup2\n      mstore\n      0x20\n      add\n      0x00\n      keccak256\n      0x00\n      swap1\n      sload\n      swap1\n      0x0100\n      exp\n      swap1\n      div\n      0xffffffffffffffffffffffffffffffffffffffff\n      and\n        /* \"contracts/PorfolioProject.sol\":3943:3963  return LandOwner[id] */\n      swap1\n      pop\n        /* \"contracts/PorfolioProject.sol\":3871:3971  function getLandOwner(uint id) public view returns (address) {... */\n      swap2\n      swap1\n      pop\n      jump\t// out\n        /* \"contracts/PorfolioProject.sol\":1947:1991  mapping(uint => bool) public PaymentReceived */\n    tag_102:\n      mstore(0x20, 0x10)\n      dup1\n      0x00\n      mstore\n      keccak256(0x00, 0x40)\n      0x00\n      swap2\n      pop\n      sload\n      swap1\n      0x0100\n      exp\n      swap1\n      div\n      0xff\n      and\n      dup2\n      jump\t// out\n        /* \"contracts/PorfolioProject.sol\":5838:5982  function isBuyer(address _id) public view returns (bool) {... */\n    tag_109:\n        /* \"contracts/PorfolioProject.sol\":5889:5893  bool */\n      0x00\n        /* \"contracts/PorfolioProject.sol\":5909:5931  RegisteredBuyerMapping */\n      0x07\n        /* \"contracts/PorfolioProject.sol\":5909:5936  RegisteredBuyerMapping[_id] */\n      0x00\n        /* \"contracts/PorfolioProject.sol\":5932:5935  _id */\n      dup4\n        /* \"contracts/PorfolioProject.sol\":5909:5936  RegisteredBuyerMapping[_id] */\n      0xffffffffffffffffffffffffffffffffffffffff\n      and\n      0xffffffffffffffffffffffffffffffffffffffff\n      and\n      dup2\n      mstore\n      0x20\n      add\n      swap1\n      dup2\n      mstore\n      0x20\n      add\n      0x00\n      keccak256\n      0x00\n      swap1\n      sload\n      swap1\n      0x0100\n      exp\n      swap1\n      div\n      0xff\n      and\n        /* \"contracts/PorfolioProject.sol\":5906:5975  if(RegisteredBuyerMapping[_id]){... */\n      iszero\n      tag_366\n      jumpi\n        /* \"contracts/PorfolioProject.sol\":5959:5963  true */\n      0x01\n        /* \"contracts/PorfolioProject.sol\":5952:5963  return true */\n      swap1\n      pop\n      jump(tag_365)\n        /* \"contracts/PorfolioProject.sol\":5906:5975  if(RegisteredBuyerMapping[_id]){... */\n    tag_366:\n        /* \"contracts/PorfolioProject.sol\":5838:5982  function isBuyer(address _id) public view returns (bool) {... */\n    tag_365:\n      swap2\n      swap1\n      pop\n      jump\t// out\n        /* \"contracts/PorfolioProject.sol\":3236:3330  function getRequestsCount() public view returns (uint) {... */\n    tag_113:\n        /* \"contracts/PorfolioProject.sol\":3285:3289  uint */\n      0x00\n        /* \"contracts/PorfolioProject.sol\":3309:3322  requestsCount */\n      sload(0x18)\n        /* \"contracts/PorfolioProject.sol\":3302:3322  return requestsCount */\n      swap1\n      pop\n        /* \"contracts/PorfolioProject.sol\":3236:3330  function getRequestsCount() public view returns (uint) {... */\n      swap1\n      jump\t// out\n        /* \"contracts/PorfolioProject.sol\":3540:3642  function getState(uint i) public view returns (string memory) {... */\n    tag_118:\n        /* \"contracts/PorfolioProject.sol\":3587:3600  string memory */\n      0x60\n        /* \"contracts/PorfolioProject.sol\":3620:3625  lands */\n      0x00\n        /* \"contracts/PorfolioProject.sol\":3620:3628  lands[i] */\n      dup1\n        /* \"contracts/PorfolioProject.sol\":3626:3627  i */\n      dup4\n        /* \"contracts/PorfolioProject.sol\":3620:3628  lands[i] */\n      dup2\n      mstore\n      0x20\n      add\n      swap1\n      dup2\n      mstore\n      0x20\n      add\n      0x00\n      keccak256\n        /* \"contracts/PorfolioProject.sol\":3620:3634  lands[i].state */\n      0x03\n      add\n        /* \"contracts/PorfolioProject.sol\":3613:3634  return lands[i].state */\n      dup1\n      sload\n      tag_369\n      swap1\n      tag_370\n      jump\t// in\n    tag_369:\n      dup1\n      0x1f\n      add\n      0x20\n      dup1\n      swap2\n      div\n      mul\n      0x20\n      add\n      mload(0x40)\n      swap1\n      dup2\n      add\n      0x40\n      mstore\n      dup1\n      swap3\n      swap2\n      swap1\n      dup2\n      dup2\n      mstore\n      0x20\n      add\n      dup3\n      dup1\n      sload\n      tag_371\n      swap1\n      tag_370\n      jump\t// in\n    tag_371:\n      dup1\n      iszero\n      tag_372\n      jumpi\n      dup1\n      0x1f\n      lt\n      tag_373\n      jumpi\n      0x0100\n      dup1\n      dup4\n      sload\n      div\n      mul\n      dup4\n      mstore\n      swap2\n      0x20\n      add\n      swap2\n      jump(tag_372)\n    tag_373:\n      dup3\n      add\n      swap2\n      swap1\n      0x00\n      mstore\n      keccak256(0x00, 0x20)\n      swap1\n    tag_374:\n      dup2\n      sload\n      dup2\n      mstore\n      swap1\n      0x01\n      add\n      swap1\n      0x20\n      add\n      dup1\n      dup4\n      gt\n      tag_374\n      jumpi\n      dup3\n      swap1\n      sub\n      0x1f\n      and\n      dup3\n      add\n      swap2\n    tag_372:\n      pop\n      pop\n      pop\n      pop\n      pop\n      swap1\n      pop\n        /* \"contracts/PorfolioProject.sol\":3540:3642  function getState(uint i) public view returns (string memory) {... */\n      swap2\n      swap1\n      pop\n      jump\t// out\n        /* \"contracts/PorfolioProject.sol\":5316:5479  function isRejected(address _id) public view returns (bool) {... */\n    tag_124:\n        /* \"contracts/PorfolioProject.sol\":5370:5374  bool */\n      0x00\n        /* \"contracts/PorfolioProject.sol\":5390:5405  SellerRejection */\n      0x09\n        /* \"contracts/PorfolioProject.sol\":5390:5410  SellerRejection[_id] */\n      0x00\n        /* \"contracts/PorfolioProject.sol\":5406:5409  _id */\n      dup4\n        /* \"contracts/PorfolioProject.sol\":5390:5410  SellerRejection[_id] */\n      0xffffffffffffffffffffffffffffffffffffffff\n      and\n      0xffffffffffffffffffffffffffffffffffffffff\n      and\n      dup2\n      mstore\n      0x20\n      add\n      swap1\n      dup2\n      mstore\n      0x20\n      add\n      0x00\n      keccak256\n      0x00\n      swap1\n      sload\n      swap1\n      0x0100\n      exp\n      swap1\n      div\n      0xff\n      and\n        /* \"contracts/PorfolioProject.sol\":5390:5433  SellerRejection[_id] || BuyerRejection[_id] */\n      dup1\n      tag_376\n      jumpi\n      pop\n        /* \"contracts/PorfolioProject.sol\":5414:5428  BuyerRejection */\n      0x0b\n        /* \"contracts/PorfolioProject.sol\":5414:5433  BuyerRejection[_id] */\n      0x00\n        /* \"contracts/PorfolioProject.sol\":5429:5432  _id */\n      dup4\n        /* \"contracts/PorfolioProject.sol\":5414:5433  BuyerRejection[_id] */\n      0xffffffffffffffffffffffffffffffffffffffff\n      and\n      0xffffffffffffffffffffffffffffffffffffffff\n      and\n      dup2\n      mstore\n      0x20\n      add\n      swap1\n      dup2\n      mstore\n      0x20\n      add\n      0x00\n      keccak256\n      0x00\n      swap1\n      sload\n      swap1\n      0x0100\n      exp\n      swap1\n      div\n      0xff\n      and\n        /* \"contracts/PorfolioProject.sol\":5390:5433  SellerRejection[_id] || BuyerRejection[_id] */\n    tag_376:\n        /* \"contracts/PorfolioProject.sol\":5387:5472  if(SellerRejection[_id] || BuyerRejection[_id]){... */\n      iszero\n      tag_377\n      jumpi\n        /* \"contracts/PorfolioProject.sol\":5456:5460  true */\n      0x01\n        /* \"contracts/PorfolioProject.sol\":5449:5460  return true */\n      swap1\n      pop\n      jump(tag_375)\n        /* \"contracts/PorfolioProject.sol\":5387:5472  if(SellerRejection[_id] || BuyerRejection[_id]){... */\n    tag_377:\n        /* \"contracts/PorfolioProject.sol\":5316:5479  function isRejected(address _id) public view returns (bool) {... */\n    tag_375:\n      swap2\n      swap1\n      pop\n      jump\t// out\n        /* \"contracts/PorfolioProject.sol\":1897:1940  mapping(uint => bool) public RequestedLands */\n    tag_129:\n      mstore(0x20, 0x0f)\n      dup1\n      0x00\n      mstore\n      keccak256(0x00, 0x40)\n      0x00\n      swap2\n      pop\n      sload\n      swap1\n      0x0100\n      exp\n      swap1\n      div\n      0xff\n      and\n      dup2\n      jump\t// out\n        /* \"contracts/PorfolioProject.sol\":6609:7097  function registerSeller(string memory _name, uint _age, string memory _city, uint _CNIC , string memory _email) public {... */\n    tag_134:\n        /* \"contracts/PorfolioProject.sol\":6750:6774  RegisteredAddressMapping */\n      0x05\n        /* \"contracts/PorfolioProject.sol\":6750:6786  RegisteredAddressMapping[msg.sender] */\n      0x00\n        /* \"contracts/PorfolioProject.sol\":6775:6785  msg.sender */\n      caller\n        /* \"contracts/PorfolioProject.sol\":6750:6786  RegisteredAddressMapping[msg.sender] */\n      0xffffffffffffffffffffffffffffffffffffffff\n      and\n      0xffffffffffffffffffffffffffffffffffffffff\n      and\n      dup2\n      mstore\n      0x20\n      add\n      swap1\n      dup2\n      mstore\n      0x20\n      add\n      0x00\n      keccak256\n      0x00\n      swap1\n      sload\n      swap1\n      0x0100\n      exp\n      swap1\n      div\n      0xff\n      and\n        /* \"contracts/PorfolioProject.sol\":6749:6786  !RegisteredAddressMapping[msg.sender] */\n      iszero\n        /* \"contracts/PorfolioProject.sol\":6741:6787  require(!RegisteredAddressMapping[msg.sender]) */\n      tag_379\n      jumpi\n      0x00\n      dup1\n      revert\n    tag_379:\n        /* \"contracts/PorfolioProject.sol\":6839:6843  true */\n      0x01\n        /* \"contracts/PorfolioProject.sol\":6800:6824  RegisteredAddressMapping */\n      0x05\n        /* \"contracts/PorfolioProject.sol\":6800:6836  RegisteredAddressMapping[msg.sender] */\n      0x00\n        /* \"contracts/PorfolioProject.sol\":6825:6835  msg.sender */\n      caller\n        /* \"contracts/PorfolioProject.sol\":6800:6836  RegisteredAddressMapping[msg.sender] */\n      0xffffffffffffffffffffffffffffffffffffffff\n      and\n      0xffffffffffffffffffffffffffffffffffffffff\n      and\n      dup2\n      mstore\n      0x20\n      add\n      swap1\n      dup2\n      mstore\n      0x20\n      add\n      0x00\n      keccak256\n      0x00\n        /* \"contracts/PorfolioProject.sol\":6800:6843  RegisteredAddressMapping[msg.sender] = true */\n      0x0100\n      exp\n      dup2\n      sload\n      dup2\n      0xff\n      mul\n      not\n      and\n      swap1\n      dup4\n      iszero\n      iszero\n      mul\n      or\n      swap1\n      sstore\n      pop\n        /* \"contracts/PorfolioProject.sol\":6892:6896  true */\n      0x01\n        /* \"contracts/PorfolioProject.sol\":6854:6877  RegisteredSellerMapping */\n      0x06\n        /* \"contracts/PorfolioProject.sol\":6854:6889  RegisteredSellerMapping[msg.sender] */\n      0x00\n        /* \"contracts/PorfolioProject.sol\":6878:6888  msg.sender */\n      caller\n        /* \"contracts/PorfolioProject.sol\":6854:6889  RegisteredSellerMapping[msg.sender] */\n      0xffffffffffffffffffffffffffffffffffffffff\n      and\n      0xffffffffffffffffffffffffffffffffffffffff\n      and\n      dup2\n      mstore\n      0x20\n      add\n      swap1\n      dup2\n      mstore\n      0x20\n      add\n      0x00\n      keccak256\n      0x00\n        /* \"contracts/PorfolioProject.sol\":6854:6896  RegisteredSellerMapping[msg.sender] = true */\n      0x0100\n      exp\n      dup2\n      sload\n      dup2\n      0xff\n      mul\n      not\n      and\n      swap1\n      dup4\n      iszero\n      iszero\n      mul\n      or\n      swap1\n      sstore\n      pop\n        /* \"contracts/PorfolioProject.sol\":6908:6920  sellersCount */\n      0x16\n      0x00\n        /* \"contracts/PorfolioProject.sol\":6908:6922  sellersCount++ */\n      dup2\n      sload\n      dup1\n      swap3\n      swap2\n      swap1\n      tag_380\n      swap1\n      tag_357\n      jump\t// in\n    tag_380:\n      swap2\n      swap1\n      pop\n      sstore\n      pop\n        /* \"contracts/PorfolioProject.sol\":6961:7014  Seller(msg.sender, _name, _city, _age ,_CNIC, _email) */\n      mload(0x40)\n      dup1\n      0xc0\n      add\n      0x40\n      mstore\n      dup1\n        /* \"contracts/PorfolioProject.sol\":6968:6978  msg.sender */\n      caller\n        /* \"contracts/PorfolioProject.sol\":6961:7014  Seller(msg.sender, _name, _city, _age ,_CNIC, _email) */\n      0xffffffffffffffffffffffffffffffffffffffff\n      and\n      dup2\n      mstore\n      0x20\n      add\n        /* \"contracts/PorfolioProject.sol\":6980:6985  _name */\n      dup7\n        /* \"contracts/PorfolioProject.sol\":6961:7014  Seller(msg.sender, _name, _city, _age ,_CNIC, _email) */\n      dup2\n      mstore\n      0x20\n      add\n        /* \"contracts/PorfolioProject.sol\":6987:6992  _city */\n      dup5\n        /* \"contracts/PorfolioProject.sol\":6961:7014  Seller(msg.sender, _name, _city, _age ,_CNIC, _email) */\n      dup2\n      mstore\n      0x20\n      add\n        /* \"contracts/PorfolioProject.sol\":6994:6998  _age */\n      dup6\n        /* \"contracts/PorfolioProject.sol\":6961:7014  Seller(msg.sender, _name, _city, _age ,_CNIC, _email) */\n      dup2\n      mstore\n      0x20\n      add\n        /* \"contracts/PorfolioProject.sol\":7000:7005  _CNIC */\n      dup4\n        /* \"contracts/PorfolioProject.sol\":6961:7014  Seller(msg.sender, _name, _city, _age ,_CNIC, _email) */\n      dup2\n      mstore\n      0x20\n      add\n        /* \"contracts/PorfolioProject.sol\":7007:7013  _email */\n      dup3\n        /* \"contracts/PorfolioProject.sol\":6961:7014  Seller(msg.sender, _name, _city, _age ,_CNIC, _email) */\n      dup2\n      mstore\n      pop\n        /* \"contracts/PorfolioProject.sol\":6933:6946  SellerMapping */\n      0x02\n        /* \"contracts/PorfolioProject.sol\":6933:6958  SellerMapping[msg.sender] */\n      0x00\n        /* \"contracts/PorfolioProject.sol\":6947:6957  msg.sender */\n      caller\n        /* \"contracts/PorfolioProject.sol\":6933:6958  SellerMapping[msg.sender] */\n      0xffffffffffffffffffffffffffffffffffffffff\n      and\n      0xffffffffffffffffffffffffffffffffffffffff\n      and\n      dup2\n      mstore\n      0x20\n      add\n      swap1\n      dup2\n      mstore\n      0x20\n      add\n      0x00\n      keccak256\n        /* \"contracts/PorfolioProject.sol\":6933:7014  SellerMapping[msg.sender] = Seller(msg.sender, _name, _city, _age ,_CNIC, _email) */\n      0x00\n      dup3\n      add\n      mload\n      dup2\n      0x00\n      add\n      exp(0x0100, 0x00)\n      dup2\n      sload\n      dup2\n      0xffffffffffffffffffffffffffffffffffffffff\n      mul\n      not\n      and\n      swap1\n      dup4\n      0xffffffffffffffffffffffffffffffffffffffff\n      and\n      mul\n      or\n      swap1\n      sstore\n      pop\n      0x20\n      dup3\n      add\n      mload\n      dup2\n      0x01\n      add\n      swap1\n      dup2\n      tag_381\n      swap2\n      swap1\n      tag_359\n      jump\t// in\n    tag_381:\n      pop\n      0x40\n      dup3\n      add\n      mload\n      dup2\n      0x02\n      add\n      swap1\n      dup2\n      tag_382\n      swap2\n      swap1\n      tag_359\n      jump\t// in\n    tag_382:\n      pop\n      0x60\n      dup3\n      add\n      mload\n      dup2\n      0x03\n      add\n      sstore\n      0x80\n      dup3\n      add\n      mload\n      dup2\n      0x04\n      add\n      sstore\n      0xa0\n      dup3\n      add\n      mload\n      dup2\n      0x05\n      add\n      swap1\n      dup2\n      tag_383\n      swap2\n      swap1\n      tag_359\n      jump\t// in\n    tag_383:\n      pop\n      swap1\n      pop\n      pop\n        /* \"contracts/PorfolioProject.sol\":7025:7032  sellers */\n      0x12\n        /* \"contracts/PorfolioProject.sol\":7038:7048  msg.sender */\n      caller\n        /* \"contracts/PorfolioProject.sol\":7025:7049  sellers.push(msg.sender) */\n      swap1\n      dup1\n      0x01\n      dup2\n      sload\n      add\n      dup1\n      dup3\n      sstore\n      dup1\n      swap2\n      pop\n      pop\n      0x01\n      swap1\n      sub\n      swap1\n      0x00\n      mstore\n      keccak256(0x00, 0x20)\n      add\n      0x00\n      swap1\n      swap2\n      swap1\n      swap2\n      swap1\n      swap2\n      0x0100\n      exp\n      dup2\n      sload\n      dup2\n      0xffffffffffffffffffffffffffffffffffffffff\n      mul\n      not\n      and\n      swap1\n      dup4\n      0xffffffffffffffffffffffffffffffffffffffff\n      and\n      mul\n      or\n      swap1\n      sstore\n      pop\n        /* \"contracts/PorfolioProject.sol\":7065:7089  Registration(msg.sender) */\n      0x478f5152d8fc568db3f8de9fb402fd9d98a1a7541ecfe434e59cf574fbfc5524\n        /* \"contracts/PorfolioProject.sol\":7078:7088  msg.sender */\n      caller\n        /* \"contracts/PorfolioProject.sol\":7065:7089  Registration(msg.sender) */\n      mload(0x40)\n      tag_385\n      swap2\n      swap1\n      tag_88\n      jump\t// in\n    tag_385:\n      mload(0x40)\n      dup1\n      swap2\n      sub\n      swap1\n      log1\n        /* \"contracts/PorfolioProject.sol\":6609:7097  function registerSeller(string memory _name, uint _age, string memory _city, uint _CNIC , string memory _email) public {... */\n      pop\n      pop\n      pop\n      pop\n      pop\n      jump\t// out\n        /* \"contracts/PorfolioProject.sol\":1405:1460  mapping(address => bool) public RegisteredSellerMapping */\n    tag_138:\n      mstore(0x20, 0x06)\n      dup1\n      0x00\n      mstore\n      keccak256(0x00, 0x40)\n      0x00\n      swap2\n      pop\n      sload\n      swap1\n      0x0100\n      exp\n      swap1\n      div\n      0xff\n      and\n      dup2\n      jump\t// out\n        /* \"contracts/PorfolioProject.sol\":9042:9135  function getBuyer() public view returns( address [] memory ){... */\n    tag_142:\n        /* \"contracts/PorfolioProject.sol\":9083:9100  address [] memory */\n      0x60\n        /* \"contracts/PorfolioProject.sol\":9120:9126  buyers */\n      0x13\n        /* \"contracts/PorfolioProject.sol\":9113:9127  return(buyers) */\n      dup1\n      sload\n      dup1\n      0x20\n      mul\n      0x20\n      add\n      mload(0x40)\n      swap1\n      dup2\n      add\n      0x40\n      mstore\n      dup1\n      swap3\n      swap2\n      swap1\n      dup2\n      dup2\n      mstore\n      0x20\n      add\n      dup3\n      dup1\n      sload\n      dup1\n      iszero\n      tag_387\n      jumpi\n      0x20\n      mul\n      dup3\n      add\n      swap2\n      swap1\n      0x00\n      mstore\n      keccak256(0x00, 0x20)\n      swap1\n    tag_388:\n      dup2\n      0x00\n      swap1\n      sload\n      swap1\n      0x0100\n      exp\n      swap1\n      div\n      0xffffffffffffffffffffffffffffffffffffffff\n      and\n      0xffffffffffffffffffffffffffffffffffffffff\n      and\n      dup2\n      mstore\n      0x20\n      add\n      swap1\n      0x01\n      add\n      swap1\n      dup1\n      dup4\n      gt\n      tag_388\n      jumpi\n    tag_387:\n      pop\n      pop\n      pop\n      pop\n      pop\n      swap1\n      pop\n        /* \"contracts/PorfolioProject.sol\":9042:9135  function getBuyer() public view returns( address [] memory ){... */\n      swap1\n      jump\t// out\n        /* \"contracts/PorfolioProject.sol\":1585:1632  mapping(address => bool) public SellerRejection */\n    tag_148:\n      mstore(0x20, 0x09)\n      dup1\n      0x00\n      mstore\n      keccak256(0x00, 0x40)\n      0x00\n      swap2\n      pop\n      sload\n      swap1\n      0x0100\n      exp\n      swap1\n      div\n      0xff\n      and\n      dup2\n      jump\t// out\n        /* \"contracts/PorfolioProject.sol\":3336:3427  function getArea(uint i) public view returns (uint) {... */\n    tag_153:\n        /* \"contracts/PorfolioProject.sol\":3382:3386  uint */\n      0x00\n        /* \"contracts/PorfolioProject.sol\":3406:3411  lands */\n      dup1\n        /* \"contracts/PorfolioProject.sol\":3406:3414  lands[i] */\n      0x00\n        /* \"contracts/PorfolioProject.sol\":3412:3413  i */\n      dup4\n        /* \"contracts/PorfolioProject.sol\":3406:3414  lands[i] */\n      dup2\n      mstore\n      0x20\n      add\n      swap1\n      dup2\n      mstore\n      0x20\n      add\n      0x00\n      keccak256\n        /* \"contracts/PorfolioProject.sol\":3406:3419  lands[i].area */\n      0x01\n      add\n      sload\n        /* \"contracts/PorfolioProject.sol\":3399:3419  return lands[i].area */\n      swap1\n      pop\n        /* \"contracts/PorfolioProject.sol\":3336:3427  function getArea(uint i) public view returns (uint) {... */\n      swap2\n      swap1\n      pop\n      jump\t// out\n        /* \"contracts/PorfolioProject.sol\":10313:10476  function payment(address payable _receiver, uint _landId) public payable {... */\n    tag_158:\n        /* \"contracts/PorfolioProject.sol\":10424:10428  true */\n      0x01\n        /* \"contracts/PorfolioProject.sol\":10397:10412  PaymentReceived */\n      0x10\n        /* \"contracts/PorfolioProject.sol\":10397:10421  PaymentReceived[_landId] */\n      0x00\n        /* \"contracts/PorfolioProject.sol\":10413:10420  _landId */\n      dup4\n        /* \"contracts/PorfolioProject.sol\":10397:10421  PaymentReceived[_landId] */\n      dup2\n      mstore\n      0x20\n      add\n      swap1\n      dup2\n      mstore\n      0x20\n      add\n      0x00\n      keccak256\n      0x00\n        /* \"contracts/PorfolioProject.sol\":10397:10428  PaymentReceived[_landId] = true */\n      0x0100\n      exp\n      dup2\n      sload\n      dup2\n      0xff\n      mul\n      not\n      and\n      swap1\n      dup4\n      iszero\n      iszero\n      mul\n      or\n      swap1\n      sstore\n      pop\n        /* \"contracts/PorfolioProject.sol\":10439:10448  _receiver */\n      dup2\n        /* \"contracts/PorfolioProject.sol\":10439:10457  _receiver.transfer */\n      0xffffffffffffffffffffffffffffffffffffffff\n      and\n        /* \"contracts/PorfolioProject.sol\":10439:10468  _receiver.transfer(msg.value) */\n      0x08fc\n        /* \"contracts/PorfolioProject.sol\":10458:10467  msg.value */\n      callvalue\n        /* \"contracts/PorfolioProject.sol\":10439:10468  _receiver.transfer(msg.value) */\n      swap1\n      dup2\n      iszero\n      mul\n      swap1\n      mload(0x40)\n      0x00\n      mload(0x40)\n      dup1\n      dup4\n      sub\n      dup2\n      dup6\n      dup9\n      dup9\n      call\n      swap4\n      pop\n      pop\n      pop\n      pop\n      iszero\n      dup1\n      iszero\n      tag_392\n      jumpi\n      returndatasize\n      0x00\n      dup1\n      returndatacopy\n      revert(0x00, returndatasize)\n    tag_392:\n      pop\n        /* \"contracts/PorfolioProject.sol\":10313:10476  function payment(address payable _receiver, uint _landId) public payable {... */\n      pop\n      pop\n      jump\t// out\n        /* \"contracts/PorfolioProject.sol\":4451:4632  function verifyBuyer(address _buyerId) public{... */\n    tag_162:\n        /* \"contracts/PorfolioProject.sol\":4515:4542  isLandInspector(msg.sender) */\n      tag_394\n        /* \"contracts/PorfolioProject.sol\":4531:4541  msg.sender */\n      caller\n        /* \"contracts/PorfolioProject.sol\":4515:4530  isLandInspector */\n      tag_297\n        /* \"contracts/PorfolioProject.sol\":4515:4542  isLandInspector(msg.sender) */\n      jump\t// in\n    tag_394:\n        /* \"contracts/PorfolioProject.sol\":4507:4543  require(isLandInspector(msg.sender)) */\n      tag_395\n      jumpi\n      0x00\n      dup1\n      revert\n    tag_395:\n        /* \"contracts/PorfolioProject.sol\":4586:4590  true */\n      0x01\n        /* \"contracts/PorfolioProject.sol\":4556:4573  BuyerVerification */\n      0x0a\n        /* \"contracts/PorfolioProject.sol\":4556:4583  BuyerVerification[_buyerId] */\n      0x00\n        /* \"contracts/PorfolioProject.sol\":4574:4582  _buyerId */\n      dup4\n        /* \"contracts/PorfolioProject.sol\":4556:4583  BuyerVerification[_buyerId] */\n      0xffffffffffffffffffffffffffffffffffffffff\n      and\n      0xffffffffffffffffffffffffffffffffffffffff\n      and\n      dup2\n      mstore\n      0x20\n      add\n      swap1\n      dup2\n      mstore\n      0x20\n      add\n      0x00\n      keccak256\n      0x00\n        /* \"contracts/PorfolioProject.sol\":4556:4590  BuyerVerification[_buyerId] = true */\n      0x0100\n      exp\n      dup2\n      sload\n      dup2\n      0xff\n      mul\n      not\n      and\n      swap1\n      dup4\n      iszero\n      iszero\n      mul\n      or\n      swap1\n      sstore\n      pop\n        /* \"contracts/PorfolioProject.sol\":4606:4624  Verified(_buyerId) */\n      0x6a6455914f452787eb3985452aceedc1000fb545e394eb3b370e3d08958e0a5b\n        /* \"contracts/PorfolioProject.sol\":4615:4623  _buyerId */\n      dup2\n        /* \"contracts/PorfolioProject.sol\":4606:4624  Verified(_buyerId) */\n      mload(0x40)\n      tag_396\n      swap2\n      swap1\n      tag_88\n      jump\t// in\n    tag_396:\n      mload(0x40)\n      dup1\n      swap2\n      sub\n      swap1\n      log1\n        /* \"contracts/PorfolioProject.sol\":4451:4632  function verifyBuyer(address _buyerId) public{... */\n      pop\n      jump\t// out\n        /* \"contracts/PorfolioProject.sol\":9214:9462  function getBuyerDetails(address i) public view returns ( string memory,string memory, uint, string memory,uint) {... */\n    tag_166:\n        /* \"contracts/PorfolioProject.sol\":9272:9285  string memory */\n      0x60\n        /* \"contracts/PorfolioProject.sol\":9286:9299  string memory */\n      dup1\n        /* \"contracts/PorfolioProject.sol\":9301:9305  uint */\n      0x00\n        /* \"contracts/PorfolioProject.sol\":9307:9320  string memory */\n      0x60\n        /* \"contracts/PorfolioProject.sol\":9321:9325  uint */\n      0x00\n        /* \"contracts/PorfolioProject.sol\":9346:9358  BuyerMapping */\n      0x03\n        /* \"contracts/PorfolioProject.sol\":9346:9361  BuyerMapping[i] */\n      0x00\n        /* \"contracts/PorfolioProject.sol\":9359:9360  i */\n      dup8\n        /* \"contracts/PorfolioProject.sol\":9346:9361  BuyerMapping[i] */\n      0xffffffffffffffffffffffffffffffffffffffff\n      and\n      0xffffffffffffffffffffffffffffffffffffffff\n      and\n      dup2\n      mstore\n      0x20\n      add\n      swap1\n      dup2\n      mstore\n      0x20\n      add\n      0x00\n      keccak256\n        /* \"contracts/PorfolioProject.sol\":9346:9366  BuyerMapping[i].name */\n      0x01\n      add\n        /* \"contracts/PorfolioProject.sol\":9367:9379  BuyerMapping */\n      0x03\n        /* \"contracts/PorfolioProject.sol\":9367:9382  BuyerMapping[i] */\n      0x00\n        /* \"contracts/PorfolioProject.sol\":9380:9381  i */\n      dup9\n        /* \"contracts/PorfolioProject.sol\":9367:9382  BuyerMapping[i] */\n      0xffffffffffffffffffffffffffffffffffffffff\n      and\n      0xffffffffffffffffffffffffffffffffffffffff\n      and\n      dup2\n      mstore\n      0x20\n      add\n      swap1\n      dup2\n      mstore\n      0x20\n      add\n      0x00\n      keccak256\n        /* \"contracts/PorfolioProject.sol\":9367:9387  BuyerMapping[i].city */\n      0x03\n      add\n        /* \"contracts/PorfolioProject.sol\":9389:9401  BuyerMapping */\n      0x03\n        /* \"contracts/PorfolioProject.sol\":9389:9404  BuyerMapping[i] */\n      0x00\n        /* \"contracts/PorfolioProject.sol\":9402:9403  i */\n      dup10\n        /* \"contracts/PorfolioProject.sol\":9389:9404  BuyerMapping[i] */\n      0xffffffffffffffffffffffffffffffffffffffff\n      and\n      0xffffffffffffffffffffffffffffffffffffffff\n      and\n      dup2\n      mstore\n      0x20\n      add\n      swap1\n      dup2\n      mstore\n      0x20\n      add\n      0x00\n      keccak256\n        /* \"contracts/PorfolioProject.sol\":9389:9409  BuyerMapping[i].CNIC */\n      0x04\n      add\n      sload\n        /* \"contracts/PorfolioProject.sol\":9411:9423  BuyerMapping */\n      0x03\n        /* \"contracts/PorfolioProject.sol\":9411:9426  BuyerMapping[i] */\n      0x00\n        /* \"contracts/PorfolioProject.sol\":9424:9425  i */\n      dup11\n        /* \"contracts/PorfolioProject.sol\":9411:9426  BuyerMapping[i] */\n      0xffffffffffffffffffffffffffffffffffffffff\n      and\n      0xffffffffffffffffffffffffffffffffffffffff\n      and\n      dup2\n      mstore\n      0x20\n      add\n      swap1\n      dup2\n      mstore\n      0x20\n      add\n      0x00\n      keccak256\n        /* \"contracts/PorfolioProject.sol\":9411:9432  BuyerMapping[i].email */\n      0x05\n      add\n        /* \"contracts/PorfolioProject.sol\":9434:9446  BuyerMapping */\n      0x03\n        /* \"contracts/PorfolioProject.sol\":9434:9449  BuyerMapping[i] */\n      0x00\n        /* \"contracts/PorfolioProject.sol\":9447:9448  i */\n      dup12\n        /* \"contracts/PorfolioProject.sol\":9434:9449  BuyerMapping[i] */\n      0xffffffffffffffffffffffffffffffffffffffff\n      and\n      0xffffffffffffffffffffffffffffffffffffffff\n      and\n      dup2\n      mstore\n      0x20\n      add\n      swap1\n      dup2\n      mstore\n      0x20\n      add\n      0x00\n      keccak256\n        /* \"contracts/PorfolioProject.sol\":9434:9453  BuyerMapping[i].age */\n      0x02\n      add\n      sload\n        /* \"contracts/PorfolioProject.sol\":9338:9454  return (BuyerMapping[i].name,BuyerMapping[i].city ,BuyerMapping[i].CNIC, BuyerMapping[i].email, BuyerMapping[i].age) */\n      dup5\n      dup1\n      sload\n      tag_398\n      swap1\n      tag_370\n      jump\t// in\n    tag_398:\n      dup1\n      0x1f\n      add\n      0x20\n      dup1\n      swap2\n      div\n      mul\n      0x20\n      add\n      mload(0x40)\n      swap1\n      dup2\n      add\n      0x40\n      mstore\n      dup1\n      swap3\n      swap2\n      swap1\n      dup2\n      dup2\n      mstore\n      0x20\n      add\n      dup3\n      dup1\n      sload\n      tag_399\n      swap1\n      tag_370\n      jump\t// in\n    tag_399:\n      dup1\n      iszero\n      tag_400\n      jumpi\n      dup1\n      0x1f\n      lt\n      tag_401\n      jumpi\n      0x0100\n      dup1\n      dup4\n      sload\n      div\n      mul\n      dup4\n      mstore\n      swap2\n      0x20\n      add\n      swap2\n      jump(tag_400)\n    tag_401:\n      dup3\n      add\n      swap2\n      swap1\n      0x00\n      mstore\n      keccak256(0x00, 0x20)\n      swap1\n    tag_402:\n      dup2\n      sload\n      dup2\n      mstore\n      swap1\n      0x01\n      add\n      swap1\n      0x20\n      add\n      dup1\n      dup4\n      gt\n      tag_402\n      jumpi\n      dup3\n      swap1\n      sub\n      0x1f\n      and\n      dup3\n      add\n      swap2\n    tag_400:\n      pop\n      pop\n      pop\n      pop\n      pop\n      swap5\n      pop\n      dup4\n      dup1\n      sload\n      tag_403\n      swap1\n      tag_370\n      jump\t// in\n    tag_403:\n      dup1\n      0x1f\n      add\n      0x20\n      dup1\n      swap2\n      div\n      mul\n      0x20\n      add\n      mload(0x40)\n      swap1\n      dup2\n      add\n      0x40\n      mstore\n      dup1\n      swap3\n      swap2\n      swap1\n      dup2\n      dup2\n      mstore\n      0x20\n      add\n      dup3\n      dup1\n      sload\n      tag_404\n      swap1\n      tag_370\n      jump\t// in\n    tag_404:\n      dup1\n      iszero\n      tag_405\n      jumpi\n      dup1\n      0x1f\n      lt\n      tag_406\n      jumpi\n      0x0100\n      dup1\n      dup4\n      sload\n      div\n      mul\n      dup4\n      mstore\n      swap2\n      0x20\n      add\n      swap2\n      jump(tag_405)\n    tag_406:\n      dup3\n      add\n      swap2\n      swap1\n      0x00\n      mstore\n      keccak256(0x00, 0x20)\n      swap1\n    tag_407:\n      dup2\n      sload\n      dup2\n      mstore\n      swap1\n      0x01\n      add\n      swap1\n      0x20\n      add\n      dup1\n      dup4\n      gt\n      tag_407\n      jumpi\n      dup3\n      swap1\n      sub\n      0x1f\n      and\n      dup3\n      add\n      swap2\n    tag_405:\n      pop\n      pop\n      pop\n      pop\n      pop\n      swap4\n      pop\n      dup2\n      dup1\n      sload\n      tag_408\n      swap1\n      tag_370\n      jump\t// in\n    tag_408:\n      dup1\n      0x1f\n      add\n      0x20\n      dup1\n      swap2\n      div\n      mul\n      0x20\n      add\n      mload(0x40)\n      swap1\n      dup2\n      add\n      0x40\n      mstore\n      dup1\n      swap3\n      swap2\n      swap1\n      dup2\n      dup2\n      mstore\n      0x20\n      add\n      dup3\n      dup1\n      sload\n      tag_409\n      swap1\n      tag_370\n      jump\t// in\n    tag_409:\n      dup1\n      iszero\n      tag_410\n      jumpi\n      dup1\n      0x1f\n      lt\n      tag_411\n      jumpi\n      0x0100\n      dup1\n      dup4\n      sload\n      div\n      mul\n      dup4\n      mstore\n      swap2\n      0x20\n      add\n      swap2\n      jump(tag_410)\n    tag_411:\n      dup3\n      add\n      swap2\n      swap1\n      0x00\n      mstore\n      keccak256(0x00, 0x20)\n      swap1\n    tag_412:\n      dup2\n      sload\n      dup2\n      mstore\n      swap1\n      0x01\n      add\n      swap1\n      0x20\n      add\n      dup1\n      dup4\n      gt\n      tag_412\n      jumpi\n      dup3\n      swap1\n      sub\n      0x1f\n      and\n      dup3\n      add\n      swap2\n    tag_410:\n      pop\n      pop\n      pop\n      pop\n      pop\n      swap2\n      pop\n      swap5\n      pop\n      swap5\n      pop\n      swap5\n      pop\n      swap5\n      pop\n      swap5\n      pop\n        /* \"contracts/PorfolioProject.sol\":9214:9462  function getBuyerDetails(address i) public view returns ( string memory,string memory, uint, string memory,uint) {... */\n      swap2\n      swap4\n      swap6\n      swap1\n      swap3\n      swap5\n      pop\n      jump\t// out\n        /* \"contracts/PorfolioProject.sol\":4978:5131  function isLandVerified(uint _id) public view returns (string memory) {... */\n    tag_172:\n        /* \"contracts/PorfolioProject.sol\":5033:5046  string memory */\n      0x60\n        /* \"contracts/PorfolioProject.sol\":5062:5078  LandVerification */\n      0x0c\n        /* \"contracts/PorfolioProject.sol\":5062:5083  LandVerification[_id] */\n      0x00\n        /* \"contracts/PorfolioProject.sol\":5079:5082  _id */\n      dup4\n        /* \"contracts/PorfolioProject.sol\":5062:5083  LandVerification[_id] */\n      dup2\n      mstore\n      0x20\n      add\n      swap1\n      dup2\n      mstore\n      0x20\n      add\n      0x00\n      keccak256\n      0x00\n      swap1\n      sload\n      swap1\n      0x0100\n      exp\n      swap1\n      div\n      0xff\n      and\n        /* \"contracts/PorfolioProject.sol\":5059:5124  if(LandVerification[_id]){... */\n      iszero\n      tag_414\n      jumpi\n        /* \"contracts/PorfolioProject.sol\":5099:5112  return \"true\" */\n      mload(0x40)\n      dup1\n      0x40\n      add\n      0x40\n      mstore\n      dup1\n      0x04\n      dup2\n      mstore\n      0x20\n      add\n      0x7472756500000000000000000000000000000000000000000000000000000000\n      dup2\n      mstore\n      pop\n      swap1\n      pop\n      jump(tag_413)\n        /* \"contracts/PorfolioProject.sol\":5059:5124  if(LandVerification[_id]){... */\n    tag_414:\n        /* \"contracts/PorfolioProject.sol\":4978:5131  function isLandVerified(uint _id) public view returns (string memory) {... */\n    tag_413:\n      swap2\n      swap1\n      pop\n      jump\t// out\n        /* \"contracts/PorfolioProject.sol\":9706:9841  function isApproved(uint _id) public view returns (bool) {... */\n    tag_177:\n        /* \"contracts/PorfolioProject.sol\":9757:9761  bool */\n      0x00\n        /* \"contracts/PorfolioProject.sol\":9777:9790  RequestStatus */\n      0x0e\n        /* \"contracts/PorfolioProject.sol\":9777:9795  RequestStatus[_id] */\n      0x00\n        /* \"contracts/PorfolioProject.sol\":9791:9794  _id */\n      dup4\n        /* \"contracts/PorfolioProject.sol\":9777:9795  RequestStatus[_id] */\n      dup2\n      mstore\n      0x20\n      add\n      swap1\n      dup2\n      mstore\n      0x20\n      add\n      0x00\n      keccak256\n      0x00\n      swap1\n      sload\n      swap1\n      0x0100\n      exp\n      swap1\n      div\n      0xff\n      and\n        /* \"contracts/PorfolioProject.sol\":9774:9834  if(RequestStatus[_id]){... */\n      iszero\n      tag_416\n      jumpi\n        /* \"contracts/PorfolioProject.sol\":9818:9822  true */\n      0x01\n        /* \"contracts/PorfolioProject.sol\":9811:9822  return true */\n      swap1\n      pop\n      jump(tag_415)\n        /* \"contracts/PorfolioProject.sol\":9774:9834  if(RequestStatus[_id]){... */\n    tag_416:\n        /* \"contracts/PorfolioProject.sol\":9706:9841  function isApproved(uint _id) public view returns (bool) {... */\n    tag_415:\n      swap2\n      swap1\n      pop\n      jump\t// out\n        /* \"contracts/PorfolioProject.sol\":1748:1793  mapping(uint => bool) public LandVerification */\n    tag_182:\n      mstore(0x20, 0x0c)\n      dup1\n      0x00\n      mstore\n      keccak256(0x00, 0x40)\n      0x00\n      swap2\n      pop\n      sload\n      swap1\n      0x0100\n      exp\n      swap1\n      div\n      0xff\n      and\n      dup2\n      jump\t// out\n        /* \"contracts/PorfolioProject.sol\":4640:4818  function rejectBuyer(address _buyerId) public{... */\n    tag_187:\n        /* \"contracts/PorfolioProject.sol\":4704:4731  isLandInspector(msg.sender) */\n      tag_418\n        /* \"contracts/PorfolioProject.sol\":4720:4730  msg.sender */\n      caller\n        /* \"contracts/PorfolioProject.sol\":4704:4719  isLandInspector */\n      tag_297\n        /* \"contracts/PorfolioProject.sol\":4704:4731  isLandInspector(msg.sender) */\n      jump\t// in\n    tag_418:\n        /* \"contracts/PorfolioProject.sol\":4696:4732  require(isLandInspector(msg.sender)) */\n      tag_419\n      jumpi\n      0x00\n      dup1\n      revert\n    tag_419:\n        /* \"contracts/PorfolioProject.sol\":4772:4776  true */\n      0x01\n        /* \"contracts/PorfolioProject.sol\":4745:4759  BuyerRejection */\n      0x0b\n        /* \"contracts/PorfolioProject.sol\":4745:4769  BuyerRejection[_buyerId] */\n      0x00\n        /* \"contracts/PorfolioProject.sol\":4760:4768  _buyerId */\n      dup4\n        /* \"contracts/PorfolioProject.sol\":4745:4769  BuyerRejection[_buyerId] */\n      0xffffffffffffffffffffffffffffffffffffffff\n      and\n      0xffffffffffffffffffffffffffffffffffffffff\n      and\n      dup2\n      mstore\n      0x20\n      add\n      swap1\n      dup2\n      mstore\n      0x20\n      add\n      0x00\n      keccak256\n      0x00\n        /* \"contracts/PorfolioProject.sol\":4745:4776  BuyerRejection[_buyerId] = true */\n      0x0100\n      exp\n      dup2\n      sload\n      dup2\n      0xff\n      mul\n      not\n      and\n      swap1\n      dup4\n      iszero\n      iszero\n      mul\n      or\n      swap1\n      sstore\n      pop\n        /* \"contracts/PorfolioProject.sol\":4792:4810  Rejected(_buyerId) */\n      0xaf77f8960cf590e245ec8b6d41c193a5dcacad8986ae4eb57ac9e5be7b6af031\n        /* \"contracts/PorfolioProject.sol\":4801:4809  _buyerId */\n      dup2\n        /* \"contracts/PorfolioProject.sol\":4792:4810  Rejected(_buyerId) */\n      mload(0x40)\n      tag_420\n      swap2\n      swap1\n      tag_88\n      jump\t// in\n    tag_420:\n      mload(0x40)\n      dup1\n      swap2\n      sub\n      swap1\n      log1\n        /* \"contracts/PorfolioProject.sol\":4640:4818  function rejectBuyer(address _buyerId) public{... */\n      pop\n      jump\t// out\n        /* \"contracts/PorfolioProject.sol\":1848:1890  mapping(uint => bool) public RequestStatus */\n    tag_191:\n      mstore(0x20, 0x0e)\n      dup1\n      0x00\n      mstore\n      keccak256(0x00, 0x40)\n      0x00\n      swap2\n      pop\n      sload\n      swap1\n      0x0100\n      exp\n      swap1\n      div\n      0xff\n      and\n      dup2\n      jump\t// out\n        /* \"contracts/PorfolioProject.sol\":6193:6556  function addLand(uint _area, string memory _city,string memory _state, uint landPrice, uint _propertyPID) public {... */\n    tag_197:\n        /* \"contracts/PorfolioProject.sol\":6326:6346  isSeller(msg.sender) */\n      tag_422\n        /* \"contracts/PorfolioProject.sol\":6335:6345  msg.sender */\n      caller\n        /* \"contracts/PorfolioProject.sol\":6326:6334  isSeller */\n      tag_326\n        /* \"contracts/PorfolioProject.sol\":6326:6346  isSeller(msg.sender) */\n      jump\t// in\n    tag_422:\n        /* \"contracts/PorfolioProject.sol\":6325:6375  (isSeller(msg.sender)) && (isVerified(msg.sender)) */\n      dup1\n      iszero\n      tag_423\n      jumpi\n      pop\n        /* \"contracts/PorfolioProject.sol\":6352:6374  isVerified(msg.sender) */\n      tag_424\n        /* \"contracts/PorfolioProject.sol\":6363:6373  msg.sender */\n      caller\n        /* \"contracts/PorfolioProject.sol\":6352:6362  isVerified */\n      tag_243\n        /* \"contracts/PorfolioProject.sol\":6352:6374  isVerified(msg.sender) */\n      jump\t// in\n    tag_424:\n        /* \"contracts/PorfolioProject.sol\":6325:6375  (isSeller(msg.sender)) && (isVerified(msg.sender)) */\n    tag_423:\n        /* \"contracts/PorfolioProject.sol\":6317:6376  require((isSeller(msg.sender)) && (isVerified(msg.sender))) */\n      tag_425\n      jumpi\n      0x00\n      dup1\n      revert\n    tag_425:\n        /* \"contracts/PorfolioProject.sol\":6387:6397  landsCount */\n      0x14\n      0x00\n        /* \"contracts/PorfolioProject.sol\":6387:6399  landsCount++ */\n      dup2\n      sload\n      dup1\n      swap3\n      swap2\n      swap1\n      tag_426\n      swap1\n      tag_357\n      jump\t// in\n    tag_426:\n      swap2\n      swap1\n      pop\n      sstore\n      pop\n        /* \"contracts/PorfolioProject.sol\":6430:6495  Landreg(landsCount, _area, _city, _state, landPrice,_propertyPID) */\n      mload(0x40)\n      dup1\n      0xc0\n      add\n      0x40\n      mstore\n      dup1\n        /* \"contracts/PorfolioProject.sol\":6438:6448  landsCount */\n      sload(0x14)\n        /* \"contracts/PorfolioProject.sol\":6430:6495  Landreg(landsCount, _area, _city, _state, landPrice,_propertyPID) */\n      dup2\n      mstore\n      0x20\n      add\n        /* \"contracts/PorfolioProject.sol\":6450:6455  _area */\n      dup7\n        /* \"contracts/PorfolioProject.sol\":6430:6495  Landreg(landsCount, _area, _city, _state, landPrice,_propertyPID) */\n      dup2\n      mstore\n      0x20\n      add\n        /* \"contracts/PorfolioProject.sol\":6457:6462  _city */\n      dup6\n        /* \"contracts/PorfolioProject.sol\":6430:6495  Landreg(landsCount, _area, _city, _state, landPrice,_propertyPID) */\n      dup2\n      mstore\n      0x20\n      add\n        /* \"contracts/PorfolioProject.sol\":6464:6470  _state */\n      dup5\n        /* \"contracts/PorfolioProject.sol\":6430:6495  Landreg(landsCount, _area, _city, _state, landPrice,_propertyPID) */\n      dup2\n      mstore\n      0x20\n      add\n        /* \"contracts/PorfolioProject.sol\":6472:6481  landPrice */\n      dup4\n        /* \"contracts/PorfolioProject.sol\":6430:6495  Landreg(landsCount, _area, _city, _state, landPrice,_propertyPID) */\n      dup2\n      mstore\n      0x20\n      add\n        /* \"contracts/PorfolioProject.sol\":6482:6494  _propertyPID */\n      dup3\n        /* \"contracts/PorfolioProject.sol\":6430:6495  Landreg(landsCount, _area, _city, _state, landPrice,_propertyPID) */\n      dup2\n      mstore\n      pop\n        /* \"contracts/PorfolioProject.sol\":6410:6415  lands */\n      0x00\n        /* \"contracts/PorfolioProject.sol\":6410:6427  lands[landsCount] */\n      dup1\n        /* \"contracts/PorfolioProject.sol\":6416:6426  landsCount */\n      sload(0x14)\n        /* \"contracts/PorfolioProject.sol\":6410:6427  lands[landsCount] */\n      dup2\n      mstore\n      0x20\n      add\n      swap1\n      dup2\n      mstore\n      0x20\n      add\n      0x00\n      keccak256\n        /* \"contracts/PorfolioProject.sol\":6410:6495  lands[landsCount] = Landreg(landsCount, _area, _city, _state, landPrice,_propertyPID) */\n      0x00\n      dup3\n      add\n      mload\n      dup2\n      0x00\n      add\n      sstore\n      0x20\n      dup3\n      add\n      mload\n      dup2\n      0x01\n      add\n      sstore\n      0x40\n      dup3\n      add\n      mload\n      dup2\n      0x02\n      add\n      swap1\n      dup2\n      tag_427\n      swap2\n      swap1\n      tag_359\n      jump\t// in\n    tag_427:\n      pop\n      0x60\n      dup3\n      add\n      mload\n      dup2\n      0x03\n      add\n      swap1\n      dup2\n      tag_428\n      swap2\n      swap1\n      tag_359\n      jump\t// in\n    tag_428:\n      pop\n      0x80\n      dup3\n      add\n      mload\n      dup2\n      0x04\n      add\n      sstore\n      0xa0\n      dup3\n      add\n      mload\n      dup2\n      0x05\n      add\n      sstore\n      swap1\n      pop\n      pop\n        /* \"contracts/PorfolioProject.sol\":6530:6540  msg.sender */\n      caller\n        /* \"contracts/PorfolioProject.sol\":6506:6515  LandOwner */\n      0x0d\n        /* \"contracts/PorfolioProject.sol\":6506:6527  LandOwner[landsCount] */\n      0x00\n        /* \"contracts/PorfolioProject.sol\":6516:6526  landsCount */\n      sload(0x14)\n        /* \"contracts/PorfolioProject.sol\":6506:6527  LandOwner[landsCount] */\n      dup2\n      mstore\n      0x20\n      add\n      swap1\n      dup2\n      mstore\n      0x20\n      add\n      0x00\n      keccak256\n      0x00\n        /* \"contracts/PorfolioProject.sol\":6506:6540  LandOwner[landsCount] = msg.sender */\n      0x0100\n      exp\n      dup2\n      sload\n      dup2\n      0xffffffffffffffffffffffffffffffffffffffff\n      mul\n      not\n      and\n      swap1\n      dup4\n      0xffffffffffffffffffffffffffffffffffffffff\n      and\n      mul\n      or\n      swap1\n      sstore\n      pop\n        /* \"contracts/PorfolioProject.sol\":6193:6556  function addLand(uint _area, string memory _city,string memory _state, uint landPrice, uint _propertyPID) public {... */\n      pop\n      pop\n      pop\n      pop\n      pop\n      jump\t// out\n        /* \"contracts/PorfolioProject.sol\":7131:7614  function updateSeller(string memory _name, uint _age, string memory _city, uint _CNIC , string memory _email) public {... */\n    tag_201:\n        /* \"contracts/PorfolioProject.sol\":7272:7296  RegisteredAddressMapping */\n      0x05\n        /* \"contracts/PorfolioProject.sol\":7272:7308  RegisteredAddressMapping[msg.sender] */\n      0x00\n        /* \"contracts/PorfolioProject.sol\":7297:7307  msg.sender */\n      caller\n        /* \"contracts/PorfolioProject.sol\":7272:7308  RegisteredAddressMapping[msg.sender] */\n      0xffffffffffffffffffffffffffffffffffffffff\n      and\n      0xffffffffffffffffffffffffffffffffffffffff\n      and\n      dup2\n      mstore\n      0x20\n      add\n      swap1\n      dup2\n      mstore\n      0x20\n      add\n      0x00\n      keccak256\n      0x00\n      swap1\n      sload\n      swap1\n      0x0100\n      exp\n      swap1\n      div\n      0xff\n      and\n        /* \"contracts/PorfolioProject.sol\":7272:7356  RegisteredAddressMapping[msg.sender] && (SellerMapping[msg.sender].id == msg.sender) */\n      dup1\n      iszero\n      tag_430\n      jumpi\n      pop\n        /* \"contracts/PorfolioProject.sol\":7345:7355  msg.sender */\n      caller\n        /* \"contracts/PorfolioProject.sol\":7313:7355  SellerMapping[msg.sender].id == msg.sender */\n      0xffffffffffffffffffffffffffffffffffffffff\n      and\n        /* \"contracts/PorfolioProject.sol\":7313:7326  SellerMapping */\n      0x02\n        /* \"contracts/PorfolioProject.sol\":7313:7338  SellerMapping[msg.sender] */\n      0x00\n        /* \"contracts/PorfolioProject.sol\":7327:7337  msg.sender */\n      caller\n        /* \"contracts/PorfolioProject.sol\":7313:7338  SellerMapping[msg.sender] */\n      0xffffffffffffffffffffffffffffffffffffffff\n      and\n      0xffffffffffffffffffffffffffffffffffffffff\n      and\n      dup2\n      mstore\n      0x20\n      add\n      swap1\n      dup2\n      mstore\n      0x20\n      add\n      0x00\n      keccak256\n        /* \"contracts/PorfolioProject.sol\":7313:7341  SellerMapping[msg.sender].id */\n      0x00\n      add\n      0x00\n      swap1\n      sload\n      swap1\n      0x0100\n      exp\n      swap1\n      div\n      0xffffffffffffffffffffffffffffffffffffffff\n      and\n        /* \"contracts/PorfolioProject.sol\":7313:7355  SellerMapping[msg.sender].id == msg.sender */\n      0xffffffffffffffffffffffffffffffffffffffff\n      and\n      eq\n        /* \"contracts/PorfolioProject.sol\":7272:7356  RegisteredAddressMapping[msg.sender] && (SellerMapping[msg.sender].id == msg.sender) */\n    tag_430:\n        /* \"contracts/PorfolioProject.sol\":7264:7357  require(RegisteredAddressMapping[msg.sender] && (SellerMapping[msg.sender].id == msg.sender)) */\n      tag_431\n      jumpi\n      0x00\n      dup1\n      revert\n    tag_431:\n        /* \"contracts/PorfolioProject.sol\":7403:7408  _name */\n      dup5\n        /* \"contracts/PorfolioProject.sol\":7370:7383  SellerMapping */\n      0x02\n        /* \"contracts/PorfolioProject.sol\":7370:7395  SellerMapping[msg.sender] */\n      0x00\n        /* \"contracts/PorfolioProject.sol\":7384:7394  msg.sender */\n      caller\n        /* \"contracts/PorfolioProject.sol\":7370:7395  SellerMapping[msg.sender] */\n      0xffffffffffffffffffffffffffffffffffffffff\n      and\n      0xffffffffffffffffffffffffffffffffffffffff\n      and\n      dup2\n      mstore\n      0x20\n      add\n      swap1\n      dup2\n      mstore\n      0x20\n      add\n      0x00\n      keccak256\n        /* \"contracts/PorfolioProject.sol\":7370:7400  SellerMapping[msg.sender].name */\n      0x01\n      add\n        /* \"contracts/PorfolioProject.sol\":7370:7408  SellerMapping[msg.sender].name = _name */\n      swap1\n      dup2\n      tag_432\n      swap2\n      swap1\n      tag_359\n      jump\t// in\n    tag_432:\n      pop\n        /* \"contracts/PorfolioProject.sol\":7451:7455  _age */\n      dup4\n        /* \"contracts/PorfolioProject.sol\":7419:7432  SellerMapping */\n      0x02\n        /* \"contracts/PorfolioProject.sol\":7419:7444  SellerMapping[msg.sender] */\n      0x00\n        /* \"contracts/PorfolioProject.sol\":7433:7443  msg.sender */\n      caller\n        /* \"contracts/PorfolioProject.sol\":7419:7444  SellerMapping[msg.sender] */\n      0xffffffffffffffffffffffffffffffffffffffff\n      and\n      0xffffffffffffffffffffffffffffffffffffffff\n      and\n      dup2\n      mstore\n      0x20\n      add\n      swap1\n      dup2\n      mstore\n      0x20\n      add\n      0x00\n      keccak256\n        /* \"contracts/PorfolioProject.sol\":7419:7448  SellerMapping[msg.sender].age */\n      0x03\n      add\n        /* \"contracts/PorfolioProject.sol\":7419:7455  SellerMapping[msg.sender].age = _age */\n      dup2\n      swap1\n      sstore\n      pop\n        /* \"contracts/PorfolioProject.sol\":7499:7504  _city */\n      dup3\n        /* \"contracts/PorfolioProject.sol\":7466:7479  SellerMapping */\n      0x02\n        /* \"contracts/PorfolioProject.sol\":7466:7491  SellerMapping[msg.sender] */\n      0x00\n        /* \"contracts/PorfolioProject.sol\":7480:7490  msg.sender */\n      caller\n        /* \"contracts/PorfolioProject.sol\":7466:7491  SellerMapping[msg.sender] */\n      0xffffffffffffffffffffffffffffffffffffffff\n      and\n      0xffffffffffffffffffffffffffffffffffffffff\n      and\n      dup2\n      mstore\n      0x20\n      add\n      swap1\n      dup2\n      mstore\n      0x20\n      add\n      0x00\n      keccak256\n        /* \"contracts/PorfolioProject.sol\":7466:7496  SellerMapping[msg.sender].city */\n      0x02\n      add\n        /* \"contracts/PorfolioProject.sol\":7466:7504  SellerMapping[msg.sender].city = _city */\n      swap1\n      dup2\n      tag_433\n      swap2\n      swap1\n      tag_359\n      jump\t// in\n    tag_433:\n      pop\n        /* \"contracts/PorfolioProject.sol\":7548:7553  _CNIC */\n      dup2\n        /* \"contracts/PorfolioProject.sol\":7515:7528  SellerMapping */\n      0x02\n        /* \"contracts/PorfolioProject.sol\":7515:7540  SellerMapping[msg.sender] */\n      0x00\n        /* \"contracts/PorfolioProject.sol\":7529:7539  msg.sender */\n      caller\n        /* \"contracts/PorfolioProject.sol\":7515:7540  SellerMapping[msg.sender] */\n      0xffffffffffffffffffffffffffffffffffffffff\n      and\n      0xffffffffffffffffffffffffffffffffffffffff\n      and\n      dup2\n      mstore\n      0x20\n      add\n      swap1\n      dup2\n      mstore\n      0x20\n      add\n      0x00\n      keccak256\n        /* \"contracts/PorfolioProject.sol\":7515:7545  SellerMapping[msg.sender].CNIC */\n      0x04\n      add\n        /* \"contracts/PorfolioProject.sol\":7515:7553  SellerMapping[msg.sender].CNIC = _CNIC */\n      dup2\n      swap1\n      sstore\n      pop\n        /* \"contracts/PorfolioProject.sol\":7598:7604  _email */\n      dup1\n        /* \"contracts/PorfolioProject.sol\":7564:7577  SellerMapping */\n      0x02\n        /* \"contracts/PorfolioProject.sol\":7564:7589  SellerMapping[msg.sender] */\n      0x00\n        /* \"contracts/PorfolioProject.sol\":7578:7588  msg.sender */\n      caller\n        /* \"contracts/PorfolioProject.sol\":7564:7589  SellerMapping[msg.sender] */\n      0xffffffffffffffffffffffffffffffffffffffff\n      and\n      0xffffffffffffffffffffffffffffffffffffffff\n      and\n      dup2\n      mstore\n      0x20\n      add\n      swap1\n      dup2\n      mstore\n      0x20\n      add\n      0x00\n      keccak256\n        /* \"contracts/PorfolioProject.sol\":7564:7595  SellerMapping[msg.sender].email */\n      0x05\n      add\n        /* \"contracts/PorfolioProject.sol\":7564:7604  SellerMapping[msg.sender].email = _email */\n      swap1\n      dup2\n      tag_434\n      swap2\n      swap1\n      tag_359\n      jump\t// in\n    tag_434:\n      pop\n        /* \"contracts/PorfolioProject.sol\":7131:7614  function updateSeller(string memory _name, uint _age, string memory _city, uint _CNIC , string memory _email) public {... */\n      pop\n      pop\n      pop\n      pop\n      pop\n      jump\t// out\n        /* \"contracts/PorfolioProject.sol\":1695:1741  mapping(address => bool) public BuyerRejection */\n    tag_205:\n      mstore(0x20, 0x0b)\n      dup1\n      0x00\n      mstore\n      keccak256(0x00, 0x40)\n      0x00\n      swap2\n      pop\n      sload\n      swap1\n      0x0100\n      exp\n      swap1\n      div\n      0xff\n      and\n      dup2\n      jump\t// out\n        /* \"contracts/PorfolioProject.sol\":1800:1841  mapping(uint => address) public LandOwner */\n    tag_210:\n      mstore(0x20, 0x0d)\n      dup1\n      0x00\n      mstore\n      keccak256(0x00, 0x40)\n      0x00\n      swap2\n      pop\n      sload\n      swap1\n      0x0100\n      exp\n      swap1\n      div\n      0xffffffffffffffffffffffffffffffffffffffff\n      and\n      dup2\n      jump\t// out\n        /* \"contracts/PorfolioProject.sol\":1467:1521  mapping(address => bool) public RegisteredBuyerMapping */\n    tag_215:\n      mstore(0x20, 0x07)\n      dup1\n      0x00\n      mstore\n      keccak256(0x00, 0x40)\n      0x00\n      swap2\n      pop\n      sload\n      swap1\n      0x0100\n      exp\n      swap1\n      div\n      0xff\n      and\n      dup2\n      jump\t// out\n        /* \"contracts/PorfolioProject.sol\":1639:1688  mapping(address => bool) public BuyerVerification */\n    tag_220:\n      mstore(0x20, 0x0a)\n      dup1\n      0x00\n      mstore\n      keccak256(0x00, 0x40)\n      0x00\n      swap2\n      pop\n      sload\n      swap1\n      0x0100\n      exp\n      swap1\n      div\n      0xff\n      and\n      dup2\n      jump\t// out\n        /* \"contracts/PorfolioProject.sol\":1230:1275  mapping(address => Buyer) public BuyerMapping */\n    tag_225:\n      mstore(0x20, 0x03)\n      dup1\n      0x00\n      mstore\n      keccak256(0x00, 0x40)\n      0x00\n      swap2\n      pop\n      swap1\n      pop\n      dup1\n      0x00\n      add\n      0x00\n      swap1\n      sload\n      swap1\n      0x0100\n      exp\n      swap1\n      div\n      0xffffffffffffffffffffffffffffffffffffffff\n      and\n      swap1\n      dup1\n      0x01\n      add\n      dup1\n      sload\n      tag_435\n      swap1\n      tag_370\n      jump\t// in\n    tag_435:\n      dup1\n      0x1f\n      add\n      0x20\n      dup1\n      swap2\n      div\n      mul\n      0x20\n      add\n      mload(0x40)\n      swap1\n      dup2\n      add\n      0x40\n      mstore\n      dup1\n      swap3\n      swap2\n      swap1\n      dup2\n      dup2\n      mstore\n      0x20\n      add\n      dup3\n      dup1\n      sload\n      tag_436\n      swap1\n      tag_370\n      jump\t// in\n    tag_436:\n      dup1\n      iszero\n      tag_437\n      jumpi\n      dup1\n      0x1f\n      lt\n      tag_438\n      jumpi\n      0x0100\n      dup1\n      dup4\n      sload\n      div\n      mul\n      dup4\n      mstore\n      swap2\n      0x20\n      add\n      swap2\n      jump(tag_437)\n    tag_438:\n      dup3\n      add\n      swap2\n      swap1\n      0x00\n      mstore\n      keccak256(0x00, 0x20)\n      swap1\n    tag_439:\n      dup2\n      sload\n      dup2\n      mstore\n      swap1\n      0x01\n      add\n      swap1\n      0x20\n      add\n      dup1\n      dup4\n      gt\n      tag_439\n      jumpi\n      dup3\n      swap1\n      sub\n      0x1f\n      and\n      dup3\n      add\n      swap2\n    tag_437:\n      pop\n      pop\n      pop\n      pop\n      pop\n      swap1\n      dup1\n      0x02\n      add\n      sload\n      swap1\n      dup1\n      0x03\n      add\n      dup1\n      sload\n      tag_440\n      swap1\n      tag_370\n      jump\t// in\n    tag_440:\n      dup1\n      0x1f\n      add\n      0x20\n      dup1\n      swap2\n      div\n      mul\n      0x20\n      add\n      mload(0x40)\n      swap1\n      dup2\n      add\n      0x40\n      mstore\n      dup1\n      swap3\n      swap2\n      swap1\n      dup2\n      dup2\n      mstore\n      0x20\n      add\n      dup3\n      dup1\n      sload\n      tag_441\n      swap1\n      tag_370\n      jump\t// in\n    tag_441:\n      dup1\n      iszero\n      tag_442\n      jumpi\n      dup1\n      0x1f\n      lt\n      tag_443\n      jumpi\n      0x0100\n      dup1\n      dup4\n      sload\n      div\n      mul\n      dup4\n      mstore\n      swap2\n      0x20\n      add\n      swap2\n      jump(tag_442)\n    tag_443:\n      dup3\n      add\n      swap2\n      swap1\n      0x00\n      mstore\n      keccak256(0x00, 0x20)\n      swap1\n    tag_444:\n      dup2\n      sload\n      dup2\n      mstore\n      swap1\n      0x01\n      add\n      swap1\n      0x20\n      add\n      dup1\n      dup4\n      gt\n      tag_444\n      jumpi\n      dup3\n      swap1\n      sub\n      0x1f\n      and\n      dup3\n      add\n      swap2\n    tag_442:\n      pop\n      pop\n      pop\n      pop\n      pop\n      swap1\n      dup1\n      0x04\n      add\n      sload\n      swap1\n      dup1\n      0x05\n      add\n      dup1\n      sload\n      tag_445\n      swap1\n      tag_370\n      jump\t// in\n    tag_445:\n      dup1\n      0x1f\n      add\n      0x20\n      dup1\n      swap2\n      div\n      mul\n      0x20\n      add\n      mload(0x40)\n      swap1\n      dup2\n      add\n      0x40\n      mstore\n      dup1\n      swap3\n      swap2\n      swap1\n      dup2\n      dup2\n      mstore\n      0x20\n      add\n      dup3\n      dup1\n      sload\n      tag_446\n      swap1\n      tag_370\n      jump\t// in\n    tag_446:\n      dup1\n      iszero\n      tag_447\n      jumpi\n      dup1\n      0x1f\n      lt\n      tag_448\n      jumpi\n      0x0100\n      dup1\n      dup4\n      sload\n      div\n      mul\n      dup4\n      mstore\n      swap2\n      0x20\n      add\n      swap2\n      jump(tag_447)\n    tag_448:\n      dup3\n      add\n      swap2\n      swap1\n      0x00\n      mstore\n      keccak256(0x00, 0x20)\n      swap1\n    tag_449:\n      dup2\n      sload\n      dup2\n      mstore\n      swap1\n      0x01\n      add\n      swap1\n      0x20\n      add\n      dup1\n      dup4\n      gt\n      tag_449\n      jumpi\n      dup3\n      swap1\n      sub\n      0x1f\n      and\n      dup3\n      add\n      swap2\n    tag_447:\n      pop\n      pop\n      pop\n      pop\n      pop\n      swap1\n      pop\n      dup7\n      jump\t// out\n        /* \"contracts/PorfolioProject.sol\":1282:1333  mapping(uint => LandRequest) public RequestsMapping */\n    tag_231:\n      mstore(0x20, 0x04)\n      dup1\n      0x00\n      mstore\n      keccak256(0x00, 0x40)\n      0x00\n      swap2\n      pop\n      swap1\n      pop\n      dup1\n      0x00\n      add\n      sload\n      swap1\n      dup1\n      0x01\n      add\n      0x00\n      swap1\n      sload\n      swap1\n      0x0100\n      exp\n      swap1\n      div\n      0xffffffffffffffffffffffffffffffffffffffff\n      and\n      swap1\n      dup1\n      0x02\n      add\n      0x00\n      swap1\n      sload\n      swap1\n      0x0100\n      exp\n      swap1\n      div\n      0xffffffffffffffffffffffffffffffffffffffff\n      and\n      swap1\n      dup1\n      0x03\n      add\n      sload\n      swap1\n      pop\n      dup5\n      jump\t// out\n        /* \"contracts/PorfolioProject.sol\":7772:7990  function getSellerDetails(address i) public view returns (string memory, uint, uint, string memory) {... */\n    tag_237:\n        /* \"contracts/PorfolioProject.sol\":7830:7843  string memory */\n      0x60\n        /* \"contracts/PorfolioProject.sol\":7845:7849  uint */\n      0x00\n        /* \"contracts/PorfolioProject.sol\":7851:7855  uint */\n      dup1\n        /* \"contracts/PorfolioProject.sol\":7857:7870  string memory */\n      0x60\n        /* \"contracts/PorfolioProject.sol\":7891:7904  SellerMapping */\n      0x02\n        /* \"contracts/PorfolioProject.sol\":7891:7907  SellerMapping[i] */\n      0x00\n        /* \"contracts/PorfolioProject.sol\":7905:7906  i */\n      dup7\n        /* \"contracts/PorfolioProject.sol\":7891:7907  SellerMapping[i] */\n      0xffffffffffffffffffffffffffffffffffffffff\n      and\n      0xffffffffffffffffffffffffffffffffffffffff\n      and\n      dup2\n      mstore\n      0x20\n      add\n      swap1\n      dup2\n      mstore\n      0x20\n      add\n      0x00\n      keccak256\n        /* \"contracts/PorfolioProject.sol\":7891:7912  SellerMapping[i].name */\n      0x01\n      add\n        /* \"contracts/PorfolioProject.sol\":7914:7927  SellerMapping */\n      0x02\n        /* \"contracts/PorfolioProject.sol\":7914:7930  SellerMapping[i] */\n      0x00\n        /* \"contracts/PorfolioProject.sol\":7928:7929  i */\n      dup8\n        /* \"contracts/PorfolioProject.sol\":7914:7930  SellerMapping[i] */\n      0xffffffffffffffffffffffffffffffffffffffff\n      and\n      0xffffffffffffffffffffffffffffffffffffffff\n      and\n      dup2\n      mstore\n      0x20\n      add\n      swap1\n      dup2\n      mstore\n      0x20\n      add\n      0x00\n      keccak256\n        /* \"contracts/PorfolioProject.sol\":7914:7934  SellerMapping[i].age */\n      0x03\n      add\n      sload\n        /* \"contracts/PorfolioProject.sol\":7936:7949  SellerMapping */\n      0x02\n        /* \"contracts/PorfolioProject.sol\":7936:7952  SellerMapping[i] */\n      0x00\n        /* \"contracts/PorfolioProject.sol\":7950:7951  i */\n      dup9\n        /* \"contracts/PorfolioProject.sol\":7936:7952  SellerMapping[i] */\n      0xffffffffffffffffffffffffffffffffffffffff\n      and\n      0xffffffffffffffffffffffffffffffffffffffff\n      and\n      dup2\n      mstore\n      0x20\n      add\n      swap1\n      dup2\n      mstore\n      0x20\n      add\n      0x00\n      keccak256\n        /* \"contracts/PorfolioProject.sol\":7936:7957  SellerMapping[i].CNIC */\n      0x04\n      add\n      sload\n        /* \"contracts/PorfolioProject.sol\":7959:7972  SellerMapping */\n      0x02\n        /* \"contracts/PorfolioProject.sol\":7959:7975  SellerMapping[i] */\n      0x00\n        /* \"contracts/PorfolioProject.sol\":7973:7974  i */\n      dup10\n        /* \"contracts/PorfolioProject.sol\":7959:7975  SellerMapping[i] */\n      0xffffffffffffffffffffffffffffffffffffffff\n      and\n      0xffffffffffffffffffffffffffffffffffffffff\n      and\n      dup2\n      mstore\n      0x20\n      add\n      swap1\n      dup2\n      mstore\n      0x20\n      add\n      0x00\n      keccak256\n        /* \"contracts/PorfolioProject.sol\":7959:7981  SellerMapping[i].email */\n      0x05\n      add\n        /* \"contracts/PorfolioProject.sol\":7883:7982  return (SellerMapping[i].name, SellerMapping[i].age, SellerMapping[i].CNIC, SellerMapping[i].email) */\n      dup4\n      dup1\n      sload\n      tag_451\n      swap1\n      tag_370\n      jump\t// in\n    tag_451:\n      dup1\n      0x1f\n      add\n      0x20\n      dup1\n      swap2\n      div\n      mul\n      0x20\n      add\n      mload(0x40)\n      swap1\n      dup2\n      add\n      0x40\n      mstore\n      dup1\n      swap3\n      swap2\n      swap1\n      dup2\n      dup2\n      mstore\n      0x20\n      add\n      dup3\n      dup1\n      sload\n      tag_452\n      swap1\n      tag_370\n      jump\t// in\n    tag_452:\n      dup1\n      iszero\n      tag_453\n      jumpi\n      dup1\n      0x1f\n      lt\n      tag_454\n      jumpi\n      0x0100\n      dup1\n      dup4\n      sload\n      div\n      mul\n      dup4\n      mstore\n      swap2\n      0x20\n      add\n      swap2\n      jump(tag_453)\n    tag_454:\n      dup3\n      add\n      swap2\n      swap1\n      0x00\n      mstore\n      keccak256(0x00, 0x20)\n      swap1\n    tag_455:\n      dup2\n      sload\n      dup2\n      mstore\n      swap1\n      0x01\n      add\n      swap1\n      0x20\n      add\n      dup1\n      dup4\n      gt\n      tag_455\n      jumpi\n      dup3\n      swap1\n      sub\n      0x1f\n      and\n      dup3\n      add\n      swap2\n    tag_453:\n      pop\n      pop\n      pop\n      pop\n      pop\n      swap4\n      pop\n      dup1\n      dup1\n      sload\n      tag_456\n      swap1\n      tag_370\n      jump\t// in\n    tag_456:\n      dup1\n      0x1f\n      add\n      0x20\n      dup1\n      swap2\n      div\n      mul\n      0x20\n      add\n      mload(0x40)\n      swap1\n      dup2\n      add\n      0x40\n      mstore\n      dup1\n      swap3\n      swap2\n      swap1\n      dup2\n      dup2\n      mstore\n      0x20\n      add\n      dup3\n      dup1\n      sload\n      tag_457\n      swap1\n      tag_370\n      jump\t// in\n    tag_457:\n      dup1\n      iszero\n      tag_458\n      jumpi\n      dup1\n      0x1f\n      lt\n      tag_459\n      jumpi\n      0x0100\n      dup1\n      dup4\n      sload\n      div\n      mul\n      dup4\n      mstore\n      swap2\n      0x20\n      add\n      swap2\n      jump(tag_458)\n    tag_459:\n      dup3\n      add\n      swap2\n      swap1\n      0x00\n      mstore\n      keccak256(0x00, 0x20)\n      swap1\n    tag_460:\n      dup2\n      sload\n      dup2\n      mstore\n      swap1\n      0x01\n      add\n      swap1\n      0x20\n      add\n      dup1\n      dup4\n      gt\n      tag_460\n      jumpi\n      dup3\n      swap1\n      sub\n      0x1f\n      and\n      dup3\n      add\n      swap2\n    tag_458:\n      pop\n      pop\n      pop\n      pop\n      pop\n      swap1\n      pop\n      swap4\n      pop\n      swap4\n      pop\n      swap4\n      pop\n      swap4\n      pop\n        /* \"contracts/PorfolioProject.sol\":7772:7990  function getSellerDetails(address i) public view returns (string memory, uint, uint, string memory) {... */\n      swap2\n      swap4\n      pop\n      swap2\n      swap4\n      jump\t// out\n        /* \"contracts/PorfolioProject.sol\":5139:5308  function isVerified(address _id) public view returns (bool) {... */\n    tag_243:\n        /* \"contracts/PorfolioProject.sol\":5193:5197  bool */\n      0x00\n        /* \"contracts/PorfolioProject.sol\":5213:5231  SellerVerification */\n      0x08\n        /* \"contracts/PorfolioProject.sol\":5213:5236  SellerVerification[_id] */\n      0x00\n        /* \"contracts/PorfolioProject.sol\":5232:5235  _id */\n      dup4\n        /* \"contracts/PorfolioProject.sol\":5213:5236  SellerVerification[_id] */\n      0xffffffffffffffffffffffffffffffffffffffff\n      and\n      0xffffffffffffffffffffffffffffffffffffffff\n      and\n      dup2\n      mstore\n      0x20\n      add\n      swap1\n      dup2\n      mstore\n      0x20\n      add\n      0x00\n      keccak256\n      0x00\n      swap1\n      sload\n      swap1\n      0x0100\n      exp\n      swap1\n      div\n      0xff\n      and\n        /* \"contracts/PorfolioProject.sol\":5213:5262  SellerVerification[_id] || BuyerVerification[_id] */\n      dup1\n      tag_462\n      jumpi\n      pop\n        /* \"contracts/PorfolioProject.sol\":5240:5257  BuyerVerification */\n      0x0a\n        /* \"contracts/PorfolioProject.sol\":5240:5262  BuyerVerification[_id] */\n      0x00\n        /* \"contracts/PorfolioProject.sol\":5258:5261  _id */\n      dup4\n        /* \"contracts/PorfolioProject.sol\":5240:5262  BuyerVerification[_id] */\n      0xffffffffffffffffffffffffffffffffffffffff\n      and\n      0xffffffffffffffffffffffffffffffffffffffff\n      and\n      dup2\n      mstore\n      0x20\n      add\n      swap1\n      dup2\n      mstore\n      0x20\n      add\n      0x00\n      keccak256\n      0x00\n      swap1\n      sload\n      swap1\n      0x0100\n      exp\n      swap1\n      div\n      0xff\n      and\n        /* \"contracts/PorfolioProject.sol\":5213:5262  SellerVerification[_id] || BuyerVerification[_id] */\n    tag_462:\n        /* \"contracts/PorfolioProject.sol\":5210:5301  if(SellerVerification[_id] || BuyerVerification[_id]){... */\n      iszero\n      tag_463\n      jumpi\n        /* \"contracts/PorfolioProject.sol\":5285:5289  true */\n      0x01\n        /* \"contracts/PorfolioProject.sol\":5278:5289  return true */\n      swap1\n      pop\n      jump(tag_461)\n        /* \"contracts/PorfolioProject.sol\":5210:5301  if(SellerVerification[_id] || BuyerVerification[_id]){... */\n    tag_463:\n        /* \"contracts/PorfolioProject.sol\":5139:5308  function isVerified(address _id) public view returns (bool) {... */\n    tag_461:\n      swap2\n      swap1\n      pop\n      jump\t// out\n        /* \"contracts/PorfolioProject.sol\":9911:10079  function LandOwnershipTransfer(uint _landId, address _newOwner) public{... */\n    tag_249:\n        /* \"contracts/PorfolioProject.sol\":10000:10027  isLandInspector(msg.sender) */\n      tag_465\n        /* \"contracts/PorfolioProject.sol\":10016:10026  msg.sender */\n      caller\n        /* \"contracts/PorfolioProject.sol\":10000:10015  isLandInspector */\n      tag_297\n        /* \"contracts/PorfolioProject.sol\":10000:10027  isLandInspector(msg.sender) */\n      jump\t// in\n    tag_465:\n        /* \"contracts/PorfolioProject.sol\":9992:10028  require(isLandInspector(msg.sender)) */\n      tag_466\n      jumpi\n      0x00\n      dup1\n      revert\n    tag_466:\n        /* \"contracts/PorfolioProject.sol\":10062:10071  _newOwner */\n      dup1\n        /* \"contracts/PorfolioProject.sol\":10041:10050  LandOwner */\n      0x0d\n        /* \"contracts/PorfolioProject.sol\":10041:10059  LandOwner[_landId] */\n      0x00\n        /* \"contracts/PorfolioProject.sol\":10051:10058  _landId */\n      dup5\n        /* \"contracts/PorfolioProject.sol\":10041:10059  LandOwner[_landId] */\n      dup2\n      mstore\n      0x20\n      add\n      swap1\n      dup2\n      mstore\n      0x20\n      add\n      0x00\n      keccak256\n      0x00\n        /* \"contracts/PorfolioProject.sol\":10041:10071  LandOwner[_landId] = _newOwner */\n      0x0100\n      exp\n      dup2\n      sload\n      dup2\n      0xffffffffffffffffffffffffffffffffffffffff\n      mul\n      not\n      and\n      swap1\n      dup4\n      0xffffffffffffffffffffffffffffffffffffffff\n      and\n      mul\n      or\n      swap1\n      sstore\n      pop\n        /* \"contracts/PorfolioProject.sol\":9911:10079  function LandOwnershipTransfer(uint _landId, address _newOwner) public{... */\n      pop\n      pop\n      jump\t// out\n        /* \"contracts/PorfolioProject.sol\":5988:6139  function isRegistered(address _id) public view returns (bool) {... */\n    tag_253:\n        /* \"contracts/PorfolioProject.sol\":6044:6048  bool */\n      0x00\n        /* \"contracts/PorfolioProject.sol\":6064:6088  RegisteredAddressMapping */\n      0x05\n        /* \"contracts/PorfolioProject.sol\":6064:6093  RegisteredAddressMapping[_id] */\n      0x00\n        /* \"contracts/PorfolioProject.sol\":6089:6092  _id */\n      dup4\n        /* \"contracts/PorfolioProject.sol\":6064:6093  RegisteredAddressMapping[_id] */\n      0xffffffffffffffffffffffffffffffffffffffff\n      and\n      0xffffffffffffffffffffffffffffffffffffffff\n      and\n      dup2\n      mstore\n      0x20\n      add\n      swap1\n      dup2\n      mstore\n      0x20\n      add\n      0x00\n      keccak256\n      0x00\n      swap1\n      sload\n      swap1\n      0x0100\n      exp\n      swap1\n      div\n      0xff\n      and\n        /* \"contracts/PorfolioProject.sol\":6061:6132  if(RegisteredAddressMapping[_id]){... */\n      iszero\n      tag_468\n      jumpi\n        /* \"contracts/PorfolioProject.sol\":6116:6120  true */\n      0x01\n        /* \"contracts/PorfolioProject.sol\":6109:6120  return true */\n      swap1\n      pop\n      jump(tag_467)\n        /* \"contracts/PorfolioProject.sol\":6061:6132  if(RegisteredAddressMapping[_id]){... */\n    tag_468:\n        /* \"contracts/PorfolioProject.sol\":5988:6139  function isRegistered(address _id) public view returns (bool) {... */\n    tag_467:\n      swap2\n      swap1\n      pop\n      jump\t// out\n        /* \"contracts/PorfolioProject.sol\":10120:10261  function isPaid(uint _landId) public view returns (bool) {... */\n    tag_258:\n        /* \"contracts/PorfolioProject.sol\":10171:10175  bool */\n      0x00\n        /* \"contracts/PorfolioProject.sol\":10191:10206  PaymentReceived */\n      0x10\n        /* \"contracts/PorfolioProject.sol\":10191:10215  PaymentReceived[_landId] */\n      0x00\n        /* \"contracts/PorfolioProject.sol\":10207:10214  _landId */\n      dup4\n        /* \"contracts/PorfolioProject.sol\":10191:10215  PaymentReceived[_landId] */\n      dup2\n      mstore\n      0x20\n      add\n      swap1\n      dup2\n      mstore\n      0x20\n      add\n      0x00\n      keccak256\n      0x00\n      swap1\n      sload\n      swap1\n      0x0100\n      exp\n      swap1\n      div\n      0xff\n      and\n        /* \"contracts/PorfolioProject.sol\":10188:10254  if(PaymentReceived[_landId]){... */\n      iszero\n      tag_470\n      jumpi\n        /* \"contracts/PorfolioProject.sol\":10238:10242  true */\n      0x01\n        /* \"contracts/PorfolioProject.sol\":10231:10242  return true */\n      swap1\n      pop\n      jump(tag_469)\n        /* \"contracts/PorfolioProject.sol\":10188:10254  if(PaymentReceived[_landId]){... */\n    tag_470:\n        /* \"contracts/PorfolioProject.sol\":10120:10261  function isPaid(uint _landId) public view returns (bool) {... */\n    tag_469:\n      swap2\n      swap1\n      pop\n      jump\t// out\n        /* \"contracts/PorfolioProject.sol\":2036:2060  address[] public sellers */\n    tag_263:\n      0x12\n      dup2\n      dup2\n      sload\n      dup2\n      lt\n      tag_471\n      jumpi\n      0x00\n      dup1\n      revert\n    tag_471:\n      swap1\n      0x00\n      mstore\n      keccak256(0x00, 0x20)\n      add\n      0x00\n      swap2\n      pop\n      sload\n      swap1\n      0x0100\n      exp\n      swap1\n      div\n      0xffffffffffffffffffffffffffffffffffffffff\n      and\n      dup2\n      jump\t// out\n        /* \"contracts/PorfolioProject.sol\":4028:4214  function verifySeller(address _sellerId) public{... */\n    tag_268:\n        /* \"contracts/PorfolioProject.sol\":4094:4121  isLandInspector(msg.sender) */\n      tag_474\n        /* \"contracts/PorfolioProject.sol\":4110:4120  msg.sender */\n      caller\n        /* \"contracts/PorfolioProject.sol\":4094:4109  isLandInspector */\n      tag_297\n        /* \"contracts/PorfolioProject.sol\":4094:4121  isLandInspector(msg.sender) */\n      jump\t// in\n    tag_474:\n        /* \"contracts/PorfolioProject.sol\":4086:4122  require(isLandInspector(msg.sender)) */\n      tag_475\n      jumpi\n      0x00\n      dup1\n      revert\n    tag_475:\n        /* \"contracts/PorfolioProject.sol\":4167:4171  true */\n      0x01\n        /* \"contracts/PorfolioProject.sol\":4135:4153  SellerVerification */\n      0x08\n        /* \"contracts/PorfolioProject.sol\":4135:4164  SellerVerification[_sellerId] */\n      0x00\n        /* \"contracts/PorfolioProject.sol\":4154:4163  _sellerId */\n      dup4\n        /* \"contracts/PorfolioProject.sol\":4135:4164  SellerVerification[_sellerId] */\n      0xffffffffffffffffffffffffffffffffffffffff\n      and\n      0xffffffffffffffffffffffffffffffffffffffff\n      and\n      dup2\n      mstore\n      0x20\n      add\n      swap1\n      dup2\n      mstore\n      0x20\n      add\n      0x00\n      keccak256\n      0x00\n        /* \"contracts/PorfolioProject.sol\":4135:4171  SellerVerification[_sellerId] = true */\n      0x0100\n      exp\n      dup2\n      sload\n      dup2\n      0xff\n      mul\n      not\n      and\n      swap1\n      dup4\n      iszero\n      iszero\n      mul\n      or\n      swap1\n      sstore\n      pop\n        /* \"contracts/PorfolioProject.sol\":4187:4206  Verified(_sellerId) */\n      0x6a6455914f452787eb3985452aceedc1000fb545e394eb3b370e3d08958e0a5b\n        /* \"contracts/PorfolioProject.sol\":4196:4205  _sellerId */\n      dup2\n        /* \"contracts/PorfolioProject.sol\":4187:4206  Verified(_sellerId) */\n      mload(0x40)\n      tag_476\n      swap2\n      swap1\n      tag_88\n      jump\t// in\n    tag_476:\n      mload(0x40)\n      dup1\n      swap2\n      sub\n      swap1\n      log1\n        /* \"contracts/PorfolioProject.sol\":4028:4214  function verifySeller(address _sellerId) public{... */\n      pop\n      jump\t// out\n        /* \"contracts/PorfolioProject.sol\":3433:3533  function getCity(uint i) public view returns (string memory) {... */\n    tag_272:\n        /* \"contracts/PorfolioProject.sol\":3479:3492  string memory */\n      0x60\n        /* \"contracts/PorfolioProject.sol\":3512:3517  lands */\n      0x00\n        /* \"contracts/PorfolioProject.sol\":3512:3520  lands[i] */\n      dup1\n        /* \"contracts/PorfolioProject.sol\":3518:3519  i */\n      dup4\n        /* \"contracts/PorfolioProject.sol\":3512:3520  lands[i] */\n      dup2\n      mstore\n      0x20\n      add\n      swap1\n      dup2\n      mstore\n      0x20\n      add\n      0x00\n      keccak256\n        /* \"contracts/PorfolioProject.sol\":3512:3525  lands[i].city */\n      0x02\n      add\n        /* \"contracts/PorfolioProject.sol\":3505:3525  return lands[i].city */\n      dup1\n      sload\n      tag_478\n      swap1\n      tag_370\n      jump\t// in\n    tag_478:\n      dup1\n      0x1f\n      add\n      0x20\n      dup1\n      swap2\n      div\n      mul\n      0x20\n      add\n      mload(0x40)\n      swap1\n      dup2\n      add\n      0x40\n      mstore\n      dup1\n      swap3\n      swap2\n      swap1\n      dup2\n      dup2\n      mstore\n      0x20\n      add\n      dup3\n      dup1\n      sload\n      tag_479\n      swap1\n      tag_370\n      jump\t// in\n    tag_479:\n      dup1\n      iszero\n      tag_480\n      jumpi\n      dup1\n      0x1f\n      lt\n      tag_481\n      jumpi\n      0x0100\n      dup1\n      dup4\n      sload\n      div\n      mul\n      dup4\n      mstore\n      swap2\n      0x20\n      add\n      swap2\n      jump(tag_480)\n    tag_481:\n      dup3\n      add\n      swap2\n      swap1\n      0x00\n      mstore\n      keccak256(0x00, 0x20)\n      swap1\n    tag_482:\n      dup2\n      sload\n      dup2\n      mstore\n      swap1\n      0x01\n      add\n      swap1\n      0x20\n      add\n      dup1\n      dup4\n      gt\n      tag_482\n      jumpi\n      dup3\n      swap1\n      sub\n      0x1f\n      and\n      dup3\n      add\n      swap2\n    tag_480:\n      pop\n      pop\n      pop\n      pop\n      pop\n      swap1\n      pop\n        /* \"contracts/PorfolioProject.sol\":3433:3533  function getCity(uint i) public view returns (string memory) {... */\n      swap2\n      swap1\n      pop\n      jump\t// out\n        /* \"contracts/PorfolioProject.sol\":7622:7717  function getSeller() public view returns( address [] memory ){... */\n    tag_276:\n        /* \"contracts/PorfolioProject.sol\":7664:7681  address [] memory */\n      0x60\n        /* \"contracts/PorfolioProject.sol\":7701:7708  sellers */\n      0x12\n        /* \"contracts/PorfolioProject.sol\":7694:7709  return(sellers) */\n      dup1\n      sload\n      dup1\n      0x20\n      mul\n      0x20\n      add\n      mload(0x40)\n      swap1\n      dup2\n      add\n      0x40\n      mstore\n      dup1\n      swap3\n      swap2\n      swap1\n      dup2\n      dup2\n      mstore\n      0x20\n      add\n      dup3\n      dup1\n      sload\n      dup1\n      iszero\n      tag_484\n      jumpi\n      0x20\n      mul\n      dup3\n      add\n      swap2\n      swap1\n      0x00\n      mstore\n      keccak256(0x00, 0x20)\n      swap1\n    tag_485:\n      dup2\n      0x00\n      swap1\n      sload\n      swap1\n      0x0100\n      exp\n      swap1\n      div\n      0xffffffffffffffffffffffffffffffffffffffff\n      and\n      0xffffffffffffffffffffffffffffffffffffffff\n      and\n      dup2\n      mstore\n      0x20\n      add\n      swap1\n      0x01\n      add\n      swap1\n      dup1\n      dup4\n      gt\n      tag_485\n      jumpi\n    tag_484:\n      pop\n      pop\n      pop\n      pop\n      pop\n      swap1\n      pop\n        /* \"contracts/PorfolioProject.sol\":7622:7717  function getSeller() public view returns( address [] memory ){... */\n      swap1\n      jump\t// out\n        /* \"contracts/PorfolioProject.sol\":3136:3228  function getSellersCount() public view returns (uint) {... */\n    tag_280:\n        /* \"contracts/PorfolioProject.sol\":3184:3188  uint */\n      0x00\n        /* \"contracts/PorfolioProject.sol\":3208:3220  sellersCount */\n      sload(0x16)\n        /* \"contracts/PorfolioProject.sol\":3201:3220  return sellersCount */\n      swap1\n      pop\n        /* \"contracts/PorfolioProject.sol\":3136:3228  function getSellersCount() public view returns (uint) {... */\n      swap1\n      jump\t// out\n        /* \"contracts/PorfolioProject.sol\":1176:1223  mapping(address => Seller) public SellerMapping */\n    tag_285:\n      mstore(0x20, 0x02)\n      dup1\n      0x00\n      mstore\n      keccak256(0x00, 0x40)\n      0x00\n      swap2\n      pop\n      swap1\n      pop\n      dup1\n      0x00\n      add\n      0x00\n      swap1\n      sload\n      swap1\n      0x0100\n      exp\n      swap1\n      div\n      0xffffffffffffffffffffffffffffffffffffffff\n      and\n      swap1\n      dup1\n      0x01\n      add\n      dup1\n      sload\n      tag_487\n      swap1\n      tag_370\n      jump\t// in\n    tag_487:\n      dup1\n      0x1f\n      add\n      0x20\n      dup1\n      swap2\n      div\n      mul\n      0x20\n      add\n      mload(0x40)\n      swap1\n      dup2\n      add\n      0x40\n      mstore\n      dup1\n      swap3\n      swap2\n      swap1\n      dup2\n      dup2\n      mstore\n      0x20\n      add\n      dup3\n      dup1\n      sload\n      tag_488\n      swap1\n      tag_370\n      jump\t// in\n    tag_488:\n      dup1\n      iszero\n      tag_489\n      jumpi\n      dup1\n      0x1f\n      lt\n      tag_490\n      jumpi\n      0x0100\n      dup1\n      dup4\n      sload\n      div\n      mul\n      dup4\n      mstore\n      swap2\n      0x20\n      add\n      swap2\n      jump(tag_489)\n    tag_490:\n      dup3\n      add\n      swap2\n      swap1\n      0x00\n      mstore\n      keccak256(0x00, 0x20)\n      swap1\n    tag_491:\n      dup2\n      sload\n      dup2\n      mstore\n      swap1\n      0x01\n      add\n      swap1\n      0x20\n      add\n      dup1\n      dup4\n      gt\n      tag_491\n      jumpi\n      dup3\n      swap1\n      sub\n      0x1f\n      and\n      dup3\n      add\n      swap2\n    tag_489:\n      pop\n      pop\n      pop\n      pop\n      pop\n      swap1\n      dup1\n      0x02\n      add\n      dup1\n      sload\n      tag_492\n      swap1\n      tag_370\n      jump\t// in\n    tag_492:\n      dup1\n      0x1f\n      add\n      0x20\n      dup1\n      swap2\n      div\n      mul\n      0x20\n      add\n      mload(0x40)\n      swap1\n      dup2\n      add\n      0x40\n      mstore\n      dup1\n      swap3\n      swap2\n      swap1\n      dup2\n      dup2\n      mstore\n      0x20\n      add\n      dup3\n      dup1\n      sload\n      tag_493\n      swap1\n      tag_370\n      jump\t// in\n    tag_493:\n      dup1\n      iszero\n      tag_494\n      jumpi\n      dup1\n      0x1f\n      lt\n      tag_495\n      jumpi\n      0x0100\n      dup1\n      dup4\n      sload\n      div\n      mul\n      dup4\n      mstore\n      swap2\n      0x20\n      add\n      swap2\n      jump(tag_494)\n    tag_495:\n      dup3\n      add\n      swap2\n      swap1\n      0x00\n      mstore\n      keccak256(0x00, 0x20)\n      swap1\n    tag_496:\n      dup2\n      sload\n      dup2\n      mstore\n      swap1\n      0x01\n      add\n      swap1\n      0x20\n      add\n      dup1\n      dup4\n      gt\n      tag_496\n      jumpi\n      dup3\n      swap1\n      sub\n      0x1f\n      and\n      dup3\n      add\n      swap2\n    tag_494:\n      pop\n      pop\n      pop\n      pop\n      pop\n      swap1\n      dup1\n      0x03\n      add\n      sload\n      swap1\n      dup1\n      0x04\n      add\n      sload\n      swap1\n      dup1\n      0x05\n      add\n      dup1\n      sload\n      tag_497\n      swap1\n      tag_370\n      jump\t// in\n    tag_497:\n      dup1\n      0x1f\n      add\n      0x20\n      dup1\n      swap2\n      div\n      mul\n      0x20\n      add\n      mload(0x40)\n      swap1\n      dup2\n      add\n      0x40\n      mstore\n      dup1\n      swap3\n      swap2\n      swap1\n      dup2\n      dup2\n      mstore\n      0x20\n      add\n      dup3\n      dup1\n      sload\n      tag_498\n      swap1\n      tag_370\n      jump\t// in\n    tag_498:\n      dup1\n      iszero\n      tag_499\n      jumpi\n      dup1\n      0x1f\n      lt\n      tag_500\n      jumpi\n      0x0100\n      dup1\n      dup4\n      sload\n      div\n      mul\n      dup4\n      mstore\n      swap2\n      0x20\n      add\n      swap2\n      jump(tag_499)\n    tag_500:\n      dup3\n      add\n      swap2\n      swap1\n      0x00\n      mstore\n      keccak256(0x00, 0x20)\n      swap1\n    tag_501:\n      dup2\n      sload\n      dup2\n      mstore\n      swap1\n      0x01\n      add\n      swap1\n      0x20\n      add\n      dup1\n      dup4\n      gt\n      tag_501\n      jumpi\n      dup3\n      swap1\n      sub\n      0x1f\n      and\n      dup3\n      add\n      swap2\n    tag_499:\n      pop\n      pop\n      pop\n      pop\n      pop\n      swap1\n      pop\n      dup7\n      jump\t// out\n        /* \"contracts/PorfolioProject.sol\":1115:1169  mapping(uint => LandInspector) public InspectorMapping */\n    tag_291:\n      mstore(0x20, 0x01)\n      dup1\n      0x00\n      mstore\n      keccak256(0x00, 0x40)\n      0x00\n      swap2\n      pop\n      swap1\n      pop\n      dup1\n      0x00\n      add\n      sload\n      swap1\n      dup1\n      0x01\n      add\n      dup1\n      sload\n      tag_502\n      swap1\n      tag_370\n      jump\t// in\n    tag_502:\n      dup1\n      0x1f\n      add\n      0x20\n      dup1\n      swap2\n      div\n      mul\n      0x20\n      add\n      mload(0x40)\n      swap1\n      dup2\n      add\n      0x40\n      mstore\n      dup1\n      swap3\n      swap2\n      swap1\n      dup2\n      dup2\n      mstore\n      0x20\n      add\n      dup3\n      dup1\n      sload\n      tag_503\n      swap1\n      tag_370\n      jump\t// in\n    tag_503:\n      dup1\n      iszero\n      tag_504\n      jumpi\n      dup1\n      0x1f\n      lt\n      tag_505\n      jumpi\n      0x0100\n      dup1\n      dup4\n      sload\n      div\n      mul\n      dup4\n      mstore\n      swap2\n      0x20\n      add\n      swap2\n      jump(tag_504)\n    tag_505:\n      dup3\n      add\n      swap2\n      swap1\n      0x00\n      mstore\n      keccak256(0x00, 0x20)\n      swap1\n    tag_506:\n      dup2\n      sload\n      dup2\n      mstore\n      swap1\n      0x01\n      add\n      swap1\n      0x20\n      add\n      dup1\n      dup4\n      gt\n      tag_506\n      jumpi\n      dup3\n      swap1\n      sub\n      0x1f\n      and\n      dup3\n      add\n      swap2\n    tag_504:\n      pop\n      pop\n      pop\n      pop\n      pop\n      swap1\n      dup1\n      0x02\n      add\n      sload\n      swap1\n      dup1\n      0x03\n      add\n      dup1\n      sload\n      tag_507\n      swap1\n      tag_370\n      jump\t// in\n    tag_507:\n      dup1\n      0x1f\n      add\n      0x20\n      dup1\n      swap2\n      div\n      mul\n      0x20\n      add\n      mload(0x40)\n      swap1\n      dup2\n      add\n      0x40\n      mstore\n      dup1\n      swap3\n      swap2\n      swap1\n      dup2\n      dup2\n      mstore\n      0x20\n      add\n      dup3\n      dup1\n      sload\n      tag_508\n      swap1\n      tag_370\n      jump\t// in\n    tag_508:\n      dup1\n      iszero\n      tag_509\n      jumpi\n      dup1\n      0x1f\n      lt\n      tag_510\n      jumpi\n      0x0100\n      dup1\n      dup4\n      sload\n      div\n      mul\n      dup4\n      mstore\n      swap2\n      0x20\n      add\n      swap2\n      jump(tag_509)\n    tag_510:\n      dup3\n      add\n      swap2\n      swap1\n      0x00\n      mstore\n      keccak256(0x00, 0x20)\n      swap1\n    tag_511:\n      dup2\n      sload\n      dup2\n      mstore\n      swap1\n      0x01\n      add\n      swap1\n      0x20\n      add\n      dup1\n      dup4\n      gt\n      tag_511\n      jumpi\n      dup3\n      swap1\n      sub\n      0x1f\n      and\n      dup3\n      add\n      swap2\n    tag_509:\n      pop\n      pop\n      pop\n      pop\n      pop\n      swap1\n      pop\n      dup5\n      jump\t// out\n        /* \"contracts/PorfolioProject.sol\":5641:5830  function isLandInspector(address _id) public view returns (bool) {... */\n    tag_297:\n        /* \"contracts/PorfolioProject.sol\":5700:5704  bool */\n      0x00\n        /* \"contracts/PorfolioProject.sol\":5738:5741  _id */\n      dup2\n        /* \"contracts/PorfolioProject.sol\":5720:5741  Land_Inspector == _id */\n      0xffffffffffffffffffffffffffffffffffffffff\n      and\n        /* \"contracts/PorfolioProject.sol\":5720:5734  Land_Inspector */\n      0x11\n      0x00\n      swap1\n      sload\n      swap1\n      0x0100\n      exp\n      swap1\n      div\n      0xffffffffffffffffffffffffffffffffffffffff\n      and\n        /* \"contracts/PorfolioProject.sol\":5720:5741  Land_Inspector == _id */\n      0xffffffffffffffffffffffffffffffffffffffff\n      and\n      sub\n        /* \"contracts/PorfolioProject.sol\":5717:5823  if(Land_Inspector == _id){... */\n      tag_513\n      jumpi\n        /* \"contracts/PorfolioProject.sol\":5764:5768  true */\n      0x01\n        /* \"contracts/PorfolioProject.sol\":5757:5768  return true */\n      swap1\n      pop\n      jump(tag_512)\n        /* \"contracts/PorfolioProject.sol\":5717:5823  if(Land_Inspector == _id){... */\n    tag_513:\n        /* \"contracts/PorfolioProject.sol\":5806:5811  false */\n      0x00\n        /* \"contracts/PorfolioProject.sol\":5799:5811  return false */\n      swap1\n      pop\n        /* \"contracts/PorfolioProject.sol\":5641:5830  function isLandInspector(address _id) public view returns (bool) {... */\n    tag_512:\n      swap2\n      swap1\n      pop\n      jump\t// out\n        /* \"contracts/PorfolioProject.sol\":4222:4405  function rejectSeller(address _sellerId) public{... */\n    tag_302:\n        /* \"contracts/PorfolioProject.sol\":4288:4315  isLandInspector(msg.sender) */\n      tag_516\n        /* \"contracts/PorfolioProject.sol\":4304:4314  msg.sender */\n      caller\n        /* \"contracts/PorfolioProject.sol\":4288:4303  isLandInspector */\n      tag_297\n        /* \"contracts/PorfolioProject.sol\":4288:4315  isLandInspector(msg.sender) */\n      jump\t// in\n    tag_516:\n        /* \"contracts/PorfolioProject.sol\":4280:4316  require(isLandInspector(msg.sender)) */\n      tag_517\n      jumpi\n      0x00\n      dup1\n      revert\n    tag_517:\n        /* \"contracts/PorfolioProject.sol\":4358:4362  true */\n      0x01\n        /* \"contracts/PorfolioProject.sol\":4329:4344  SellerRejection */\n      0x09\n        /* \"contracts/PorfolioProject.sol\":4329:4355  SellerRejection[_sellerId] */\n      0x00\n        /* \"contracts/PorfolioProject.sol\":4345:4354  _sellerId */\n      dup4\n        /* \"contracts/PorfolioProject.sol\":4329:4355  SellerRejection[_sellerId] */\n      0xffffffffffffffffffffffffffffffffffffffff\n      and\n      0xffffffffffffffffffffffffffffffffffffffff\n      and\n      dup2\n      mstore\n      0x20\n      add\n      swap1\n      dup2\n      mstore\n      0x20\n      add\n      0x00\n      keccak256\n      0x00\n        /* \"contracts/PorfolioProject.sol\":4329:4362  SellerRejection[_sellerId] = true */\n      0x0100\n      exp\n      dup2\n      sload\n      dup2\n      0xff\n      mul\n      not\n      and\n      swap1\n      dup4\n      iszero\n      iszero\n      mul\n      or\n      swap1\n      sstore\n      pop\n        /* \"contracts/PorfolioProject.sol\":4378:4397  Rejected(_sellerId) */\n      0xaf77f8960cf590e245ec8b6d41c193a5dcacad8986ae4eb57ac9e5be7b6af031\n        /* \"contracts/PorfolioProject.sol\":4387:4396  _sellerId */\n      dup2\n        /* \"contracts/PorfolioProject.sol\":4378:4397  Rejected(_sellerId) */\n      mload(0x40)\n      tag_518\n      swap2\n      swap1\n      tag_88\n      jump\t// in\n    tag_518:\n      mload(0x40)\n      dup1\n      swap2\n      sub\n      swap1\n      log1\n        /* \"contracts/PorfolioProject.sol\":4222:4405  function rejectSeller(address _sellerId) public{... */\n      pop\n      jump\t// out\n        /* \"contracts/PorfolioProject.sol\":1071:1108  mapping(uint => Landreg) public lands */\n    tag_306:\n      mstore(0x20, 0x00)\n      dup1\n      0x00\n      mstore\n      keccak256(0x00, 0x40)\n      0x00\n      swap2\n      pop\n      swap1\n      pop\n      dup1\n      0x00\n      add\n      sload\n      swap1\n      dup1\n      0x01\n      add\n      sload\n      swap1\n      dup1\n      0x02\n      add\n      dup1\n      sload\n      tag_519\n      swap1\n      tag_370\n      jump\t// in\n    tag_519:\n      dup1\n      0x1f\n      add\n      0x20\n      dup1\n      swap2\n      div\n      mul\n      0x20\n      add\n      mload(0x40)\n      swap1\n      dup2\n      add\n      0x40\n      mstore\n      dup1\n      swap3\n      swap2\n      swap1\n      dup2\n      dup2\n      mstore\n      0x20\n      add\n      dup3\n      dup1\n      sload\n      tag_520\n      swap1\n      tag_370\n      jump\t// in\n    tag_520:\n      dup1\n      iszero\n      tag_521\n      jumpi\n      dup1\n      0x1f\n      lt\n      tag_522\n      jumpi\n      0x0100\n      dup1\n      dup4\n      sload\n      div\n      mul\n      dup4\n      mstore\n      swap2\n      0x20\n      add\n      swap2\n      jump(tag_521)\n    tag_522:\n      dup3\n      add\n      swap2\n      swap1\n      0x00\n      mstore\n      keccak256(0x00, 0x20)\n      swap1\n    tag_523:\n      dup2\n      sload\n      dup2\n      mstore\n      swap1\n      0x01\n      add\n      swap1\n      0x20\n      add\n      dup1\n      dup4\n      gt\n      tag_523\n      jumpi\n      dup3\n      swap1\n      sub\n      0x1f\n      and\n      dup3\n      add\n      swap2\n    tag_521:\n      pop\n      pop\n      pop\n      pop\n      pop\n      swap1\n      dup1\n      0x03\n      add\n      dup1\n      sload\n      tag_524\n      swap1\n      tag_370\n      jump\t// in\n    tag_524:\n      dup1\n      0x1f\n      add\n      0x20\n      dup1\n      swap2\n      div\n      mul\n      0x20\n      add\n      mload(0x40)\n      swap1\n      dup2\n      add\n      0x40\n      mstore\n      dup1\n      swap3\n      swap2\n      swap1\n      dup2\n      dup2\n      mstore\n      0x20\n      add\n      dup3\n      dup1\n      sload\n      tag_525\n      swap1\n      tag_370\n      jump\t// in\n    tag_525:\n      dup1\n      iszero\n      tag_526\n      jumpi\n      dup1\n      0x1f\n      lt\n      tag_527\n      jumpi\n      0x0100\n      dup1\n      dup4\n      sload\n      div\n      mul\n      dup4\n      mstore\n      swap2\n      0x20\n      add\n      swap2\n      jump(tag_526)\n    tag_527:\n      dup3\n      add\n      swap2\n      swap1\n      0x00\n      mstore\n      keccak256(0x00, 0x20)\n      swap1\n    tag_528:\n      dup2\n      sload\n      dup2\n      mstore\n      swap1\n      0x01\n      add\n      swap1\n      0x20\n      add\n      dup1\n      dup4\n      gt\n      tag_528\n      jumpi\n      dup3\n      swap1\n      sub\n      0x1f\n      and\n      dup3\n      add\n      swap2\n    tag_526:\n      pop\n      pop\n      pop\n      pop\n      pop\n      swap1\n      dup1\n      0x04\n      add\n      sload\n      swap1\n      dup1\n      0x05\n      add\n      sload\n      swap1\n      pop\n      dup7\n      jump\t// out\n        /* \"contracts/PorfolioProject.sol\":8538:9034  function updateBuyer(string memory _name,uint _age, string memory _city,uint _CNIC, string memory _email) public {... */\n    tag_312:\n        /* \"contracts/PorfolioProject.sol\":8680:8704  RegisteredAddressMapping */\n      0x05\n        /* \"contracts/PorfolioProject.sol\":8680:8716  RegisteredAddressMapping[msg.sender] */\n      0x00\n        /* \"contracts/PorfolioProject.sol\":8705:8715  msg.sender */\n      caller\n        /* \"contracts/PorfolioProject.sol\":8680:8716  RegisteredAddressMapping[msg.sender] */\n      0xffffffffffffffffffffffffffffffffffffffff\n      and\n      0xffffffffffffffffffffffffffffffffffffffff\n      and\n      dup2\n      mstore\n      0x20\n      add\n      swap1\n      dup2\n      mstore\n      0x20\n      add\n      0x00\n      keccak256\n      0x00\n      swap1\n      sload\n      swap1\n      0x0100\n      exp\n      swap1\n      div\n      0xff\n      and\n        /* \"contracts/PorfolioProject.sol\":8680:8763  RegisteredAddressMapping[msg.sender] && (BuyerMapping[msg.sender].id == msg.sender) */\n      dup1\n      iszero\n      tag_530\n      jumpi\n      pop\n        /* \"contracts/PorfolioProject.sol\":8752:8762  msg.sender */\n      caller\n        /* \"contracts/PorfolioProject.sol\":8721:8762  BuyerMapping[msg.sender].id == msg.sender */\n      0xffffffffffffffffffffffffffffffffffffffff\n      and\n        /* \"contracts/PorfolioProject.sol\":8721:8733  BuyerMapping */\n      0x03\n        /* \"contracts/PorfolioProject.sol\":8721:8745  BuyerMapping[msg.sender] */\n      0x00\n        /* \"contracts/PorfolioProject.sol\":8734:8744  msg.sender */\n      caller\n        /* \"contracts/PorfolioProject.sol\":8721:8745  BuyerMapping[msg.sender] */\n      0xffffffffffffffffffffffffffffffffffffffff\n      and\n      0xffffffffffffffffffffffffffffffffffffffff\n      and\n      dup2\n      mstore\n      0x20\n      add\n      swap1\n      dup2\n      mstore\n      0x20\n      add\n      0x00\n      keccak256\n        /* \"contracts/PorfolioProject.sol\":8721:8748  BuyerMapping[msg.sender].id */\n      0x00\n      add\n      0x00\n      swap1\n      sload\n      swap1\n      0x0100\n      exp\n      swap1\n      div\n      0xffffffffffffffffffffffffffffffffffffffff\n      and\n        /* \"contracts/PorfolioProject.sol\":8721:8762  BuyerMapping[msg.sender].id == msg.sender */\n      0xffffffffffffffffffffffffffffffffffffffff\n      and\n      eq\n        /* \"contracts/PorfolioProject.sol\":8680:8763  RegisteredAddressMapping[msg.sender] && (BuyerMapping[msg.sender].id == msg.sender) */\n    tag_530:\n        /* \"contracts/PorfolioProject.sol\":8672:8764  require(RegisteredAddressMapping[msg.sender] && (BuyerMapping[msg.sender].id == msg.sender)) */\n      tag_531\n      jumpi\n      0x00\n      dup1\n      revert\n    tag_531:\n        /* \"contracts/PorfolioProject.sol\":8809:8814  _name */\n      dup5\n        /* \"contracts/PorfolioProject.sol\":8777:8789  BuyerMapping */\n      0x03\n        /* \"contracts/PorfolioProject.sol\":8777:8801  BuyerMapping[msg.sender] */\n      0x00\n        /* \"contracts/PorfolioProject.sol\":8790:8800  msg.sender */\n      caller\n        /* \"contracts/PorfolioProject.sol\":8777:8801  BuyerMapping[msg.sender] */\n      0xffffffffffffffffffffffffffffffffffffffff\n      and\n      0xffffffffffffffffffffffffffffffffffffffff\n      and\n      dup2\n      mstore\n      0x20\n      add\n      swap1\n      dup2\n      mstore\n      0x20\n      add\n      0x00\n      keccak256\n        /* \"contracts/PorfolioProject.sol\":8777:8806  BuyerMapping[msg.sender].name */\n      0x01\n      add\n        /* \"contracts/PorfolioProject.sol\":8777:8814  BuyerMapping[msg.sender].name = _name */\n      swap1\n      dup2\n      tag_532\n      swap2\n      swap1\n      tag_359\n      jump\t// in\n    tag_532:\n      pop\n        /* \"contracts/PorfolioProject.sol\":8856:8860  _age */\n      dup4\n        /* \"contracts/PorfolioProject.sol\":8825:8837  BuyerMapping */\n      0x03\n        /* \"contracts/PorfolioProject.sol\":8825:8849  BuyerMapping[msg.sender] */\n      0x00\n        /* \"contracts/PorfolioProject.sol\":8838:8848  msg.sender */\n      caller\n        /* \"contracts/PorfolioProject.sol\":8825:8849  BuyerMapping[msg.sender] */\n      0xffffffffffffffffffffffffffffffffffffffff\n      and\n      0xffffffffffffffffffffffffffffffffffffffff\n      and\n      dup2\n      mstore\n      0x20\n      add\n      swap1\n      dup2\n      mstore\n      0x20\n      add\n      0x00\n      keccak256\n        /* \"contracts/PorfolioProject.sol\":8825:8853  BuyerMapping[msg.sender].age */\n      0x02\n      add\n        /* \"contracts/PorfolioProject.sol\":8825:8860  BuyerMapping[msg.sender].age = _age */\n      dup2\n      swap1\n      sstore\n      pop\n        /* \"contracts/PorfolioProject.sol\":8903:8908  _city */\n      dup3\n        /* \"contracts/PorfolioProject.sol\":8871:8883  BuyerMapping */\n      0x03\n        /* \"contracts/PorfolioProject.sol\":8871:8895  BuyerMapping[msg.sender] */\n      0x00\n        /* \"contracts/PorfolioProject.sol\":8884:8894  msg.sender */\n      caller\n        /* \"contracts/PorfolioProject.sol\":8871:8895  BuyerMapping[msg.sender] */\n      0xffffffffffffffffffffffffffffffffffffffff\n      and\n      0xffffffffffffffffffffffffffffffffffffffff\n      and\n      dup2\n      mstore\n      0x20\n      add\n      swap1\n      dup2\n      mstore\n      0x20\n      add\n      0x00\n      keccak256\n        /* \"contracts/PorfolioProject.sol\":8871:8900  BuyerMapping[msg.sender].city */\n      0x03\n      add\n        /* \"contracts/PorfolioProject.sol\":8871:8908  BuyerMapping[msg.sender].city = _city */\n      swap1\n      dup2\n      tag_533\n      swap2\n      swap1\n      tag_359\n      jump\t// in\n    tag_533:\n      pop\n        /* \"contracts/PorfolioProject.sol\":8951:8956  _CNIC */\n      dup2\n        /* \"contracts/PorfolioProject.sol\":8919:8931  BuyerMapping */\n      0x03\n        /* \"contracts/PorfolioProject.sol\":8919:8943  BuyerMapping[msg.sender] */\n      0x00\n        /* \"contracts/PorfolioProject.sol\":8932:8942  msg.sender */\n      caller\n        /* \"contracts/PorfolioProject.sol\":8919:8943  BuyerMapping[msg.sender] */\n      0xffffffffffffffffffffffffffffffffffffffff\n      and\n      0xffffffffffffffffffffffffffffffffffffffff\n      and\n      dup2\n      mstore\n      0x20\n      add\n      swap1\n      dup2\n      mstore\n      0x20\n      add\n      0x00\n      keccak256\n        /* \"contracts/PorfolioProject.sol\":8919:8948  BuyerMapping[msg.sender].CNIC */\n      0x04\n      add\n        /* \"contracts/PorfolioProject.sol\":8919:8956  BuyerMapping[msg.sender].CNIC = _CNIC */\n      dup2\n      swap1\n      sstore\n      pop\n        /* \"contracts/PorfolioProject.sol\":9000:9006  _email */\n      dup1\n        /* \"contracts/PorfolioProject.sol\":8967:8979  BuyerMapping */\n      0x03\n        /* \"contracts/PorfolioProject.sol\":8967:8991  BuyerMapping[msg.sender] */\n      0x00\n        /* \"contracts/PorfolioProject.sol\":8980:8990  msg.sender */\n      caller\n        /* \"contracts/PorfolioProject.sol\":8967:8991  BuyerMapping[msg.sender] */\n      0xffffffffffffffffffffffffffffffffffffffff\n      and\n      0xffffffffffffffffffffffffffffffffffffffff\n      and\n      dup2\n      mstore\n      0x20\n      add\n      swap1\n      dup2\n      mstore\n      0x20\n      add\n      0x00\n      keccak256\n        /* \"contracts/PorfolioProject.sol\":8967:8997  BuyerMapping[msg.sender].email */\n      0x05\n      add\n        /* \"contracts/PorfolioProject.sol\":8967:9006  BuyerMapping[msg.sender].email = _email */\n      swap1\n      dup2\n      tag_534\n      swap2\n      swap1\n      tag_359\n      jump\t// in\n    tag_534:\n      pop\n        /* \"contracts/PorfolioProject.sol\":8538:9034  function updateBuyer(string memory _name,uint _age, string memory _city,uint _CNIC, string memory _email) public {... */\n      pop\n      pop\n      pop\n      pop\n      pop\n      jump\t// out\n        /* \"contracts/PorfolioProject.sol\":1528:1578  mapping(address => bool) public SellerVerification */\n    tag_316:\n      mstore(0x20, 0x08)\n      dup1\n      0x00\n      mstore\n      keccak256(0x00, 0x40)\n      0x00\n      swap2\n      pop\n      sload\n      swap1\n      0x0100\n      exp\n      swap1\n      div\n      0xff\n      and\n      dup2\n      jump\t// out\n        /* \"contracts/PorfolioProject.sol\":3653:3750  function getPrice(uint i) public view returns (uint) {... */\n    tag_321:\n        /* \"contracts/PorfolioProject.sol\":3700:3704  uint */\n      0x00\n        /* \"contracts/PorfolioProject.sol\":3724:3729  lands */\n      dup1\n        /* \"contracts/PorfolioProject.sol\":3724:3732  lands[i] */\n      0x00\n        /* \"contracts/PorfolioProject.sol\":3730:3731  i */\n      dup4\n        /* \"contracts/PorfolioProject.sol\":3724:3732  lands[i] */\n      dup2\n      mstore\n      0x20\n      add\n      swap1\n      dup2\n      mstore\n      0x20\n      add\n      0x00\n      keccak256\n        /* \"contracts/PorfolioProject.sol\":3724:3742  lands[i].landPrice */\n      0x04\n      add\n      sload\n        /* \"contracts/PorfolioProject.sol\":3717:3742  return lands[i].landPrice */\n      swap1\n      pop\n        /* \"contracts/PorfolioProject.sol\":3653:3750  function getPrice(uint i) public view returns (uint) {... */\n      swap2\n      swap1\n      pop\n      jump\t// out\n        /* \"contracts/PorfolioProject.sol\":5487:5633  function isSeller(address _id) public view returns (bool) {... */\n    tag_326:\n        /* \"contracts/PorfolioProject.sol\":5539:5543  bool */\n      0x00\n        /* \"contracts/PorfolioProject.sol\":5559:5582  RegisteredSellerMapping */\n      0x06\n        /* \"contracts/PorfolioProject.sol\":5559:5587  RegisteredSellerMapping[_id] */\n      0x00\n        /* \"contracts/PorfolioProject.sol\":5583:5586  _id */\n      dup4\n        /* \"contracts/PorfolioProject.sol\":5559:5587  RegisteredSellerMapping[_id] */\n      0xffffffffffffffffffffffffffffffffffffffff\n      and\n      0xffffffffffffffffffffffffffffffffffffffff\n      and\n      dup2\n      mstore\n      0x20\n      add\n      swap1\n      dup2\n      mstore\n      0x20\n      add\n      0x00\n      keccak256\n      0x00\n      swap1\n      sload\n      swap1\n      0x0100\n      exp\n      swap1\n      div\n      0xff\n      and\n        /* \"contracts/PorfolioProject.sol\":5556:5626  if(RegisteredSellerMapping[_id]){... */\n      iszero\n      tag_537\n      jumpi\n        /* \"contracts/PorfolioProject.sol\":5610:5614  true */\n      0x01\n        /* \"contracts/PorfolioProject.sol\":5603:5614  return true */\n      swap1\n      pop\n      jump(tag_536)\n        /* \"contracts/PorfolioProject.sol\":5556:5626  if(RegisteredSellerMapping[_id]){... */\n    tag_537:\n        /* \"contracts/PorfolioProject.sol\":5487:5633  function isSeller(address _id) public view returns (bool) {... */\n    tag_536:\n      swap2\n      swap1\n      pop\n      jump\t// out\n        /* \"contracts/PorfolioProject.sol\":3038:3128  function getBuyersCount() public view returns (uint) {... */\n    tag_330:\n        /* \"contracts/PorfolioProject.sol\":3085:3089  uint */\n      0x00\n        /* \"contracts/PorfolioProject.sol\":3109:3120  buyersCount */\n      sload(0x17)\n        /* \"contracts/PorfolioProject.sol\":3102:3120  return buyersCount */\n      swap1\n      pop\n        /* \"contracts/PorfolioProject.sol\":3038:3128  function getBuyersCount() public view returns (uint) {... */\n      swap1\n      jump\t// out\n        /* \"contracts/PorfolioProject.sol\":2067:2090  address[] public buyers */\n    tag_335:\n      0x13\n      dup2\n      dup2\n      sload\n      dup2\n      lt\n      tag_539\n      jumpi\n      0x00\n      dup1\n      revert\n    tag_539:\n      swap1\n      0x00\n      mstore\n      keccak256(0x00, 0x20)\n      add\n      0x00\n      swap2\n      pop\n      sload\n      swap1\n      0x0100\n      exp\n      swap1\n      div\n      0xffffffffffffffffffffffffffffffffffffffff\n      and\n      dup2\n      jump\t// out\n        /* \"contracts/PorfolioProject.sol\":9478:9692  function getRequestDetails (uint i) public view returns (address, address, uint, bool) {... */\n    tag_340:\n        /* \"contracts/PorfolioProject.sol\":9535:9542  address */\n      0x00\n        /* \"contracts/PorfolioProject.sol\":9544:9551  address */\n      dup1\n        /* \"contracts/PorfolioProject.sol\":9553:9557  uint */\n      0x00\n        /* \"contracts/PorfolioProject.sol\":9559:9563  bool */\n      dup1\n        /* \"contracts/PorfolioProject.sol\":9583:9598  RequestsMapping */\n      0x04\n        /* \"contracts/PorfolioProject.sol\":9583:9601  RequestsMapping[i] */\n      0x00\n        /* \"contracts/PorfolioProject.sol\":9599:9600  i */\n      dup7\n        /* \"contracts/PorfolioProject.sol\":9583:9601  RequestsMapping[i] */\n      dup2\n      mstore\n      0x20\n      add\n      swap1\n      dup2\n      mstore\n      0x20\n      add\n      0x00\n      keccak256\n        /* \"contracts/PorfolioProject.sol\":9583:9610  RequestsMapping[i].sellerId */\n      0x01\n      add\n      0x00\n      swap1\n      sload\n      swap1\n      0x0100\n      exp\n      swap1\n      div\n      0xffffffffffffffffffffffffffffffffffffffff\n      and\n        /* \"contracts/PorfolioProject.sol\":9612:9627  RequestsMapping */\n      0x04\n        /* \"contracts/PorfolioProject.sol\":9612:9630  RequestsMapping[i] */\n      0x00\n        /* \"contracts/PorfolioProject.sol\":9628:9629  i */\n      dup8\n        /* \"contracts/PorfolioProject.sol\":9612:9630  RequestsMapping[i] */\n      dup2\n      mstore\n      0x20\n      add\n      swap1\n      dup2\n      mstore\n      0x20\n      add\n      0x00\n      keccak256\n        /* \"contracts/PorfolioProject.sol\":9612:9638  RequestsMapping[i].buyerId */\n      0x02\n      add\n      0x00\n      swap1\n      sload\n      swap1\n      0x0100\n      exp\n      swap1\n      div\n      0xffffffffffffffffffffffffffffffffffffffff\n      and\n        /* \"contracts/PorfolioProject.sol\":9640:9655  RequestsMapping */\n      0x04\n        /* \"contracts/PorfolioProject.sol\":9640:9658  RequestsMapping[i] */\n      0x00\n        /* \"contracts/PorfolioProject.sol\":9656:9657  i */\n      dup9\n        /* \"contracts/PorfolioProject.sol\":9640:9658  RequestsMapping[i] */\n      dup2\n      mstore\n      0x20\n      add\n      swap1\n      dup2\n      mstore\n      0x20\n      add\n      0x00\n      keccak256\n        /* \"contracts/PorfolioProject.sol\":9640:9665  RequestsMapping[i].landId */\n      0x03\n      add\n      sload\n        /* \"contracts/PorfolioProject.sol\":9667:9680  RequestStatus */\n      0x0e\n        /* \"contracts/PorfolioProject.sol\":9667:9683  RequestStatus[i] */\n      0x00\n        /* \"contracts/PorfolioProject.sol\":9681:9682  i */\n      dup10\n        /* \"contracts/PorfolioProject.sol\":9667:9683  RequestStatus[i] */\n      dup2\n      mstore\n      0x20\n      add\n      swap1\n      dup2\n      mstore\n      0x20\n      add\n      0x00\n      keccak256\n      0x00\n      swap1\n      sload\n      swap1\n      0x0100\n      exp\n      swap1\n      div\n      0xff\n      and\n        /* \"contracts/PorfolioProject.sol\":9576:9684  return(RequestsMapping[i].sellerId, RequestsMapping[i].buyerId, RequestsMapping[i].landId, RequestStatus[i]) */\n      swap4\n      pop\n      swap4\n      pop\n      swap4\n      pop\n      swap4\n      pop\n        /* \"contracts/PorfolioProject.sol\":9478:9692  function getRequestDetails (uint i) public view returns (address, address, uint, bool) {... */\n      swap2\n      swap4\n      pop\n      swap2\n      swap4\n      jump\t// out\n        /* \"contracts/PorfolioProject.sol\":1342:1398  mapping(address => bool) public RegisteredAddressMapping */\n    tag_346:\n      mstore(0x20, 0x05)\n      dup1\n      0x00\n      mstore\n      keccak256(0x00, 0x40)\n      0x00\n      swap2\n      pop\n      sload\n      swap1\n      0x0100\n      exp\n      swap1\n      div\n      0xff\n      and\n      dup2\n      jump\t// out\n        /* \"contracts/PorfolioProject.sol\":4830:4970  function verifyLand(uint _landId) public{... */\n    tag_351:\n        /* \"contracts/PorfolioProject.sol\":4889:4916  isLandInspector(msg.sender) */\n      tag_543\n        /* \"contracts/PorfolioProject.sol\":4905:4915  msg.sender */\n      caller\n        /* \"contracts/PorfolioProject.sol\":4889:4904  isLandInspector */\n      tag_297\n        /* \"contracts/PorfolioProject.sol\":4889:4916  isLandInspector(msg.sender) */\n      jump\t// in\n    tag_543:\n        /* \"contracts/PorfolioProject.sol\":4881:4917  require(isLandInspector(msg.sender)) */\n      tag_544\n      jumpi\n      0x00\n      dup1\n      revert\n    tag_544:\n        /* \"contracts/PorfolioProject.sol\":4958:4962  true */\n      0x01\n        /* \"contracts/PorfolioProject.sol\":4930:4946  LandVerification */\n      0x0c\n        /* \"contracts/PorfolioProject.sol\":4930:4955  LandVerification[_landId] */\n      0x00\n        /* \"contracts/PorfolioProject.sol\":4947:4954  _landId */\n      dup4\n        /* \"contracts/PorfolioProject.sol\":4930:4955  LandVerification[_landId] */\n      dup2\n      mstore\n      0x20\n      add\n      swap1\n      dup2\n      mstore\n      0x20\n      add\n      0x00\n      keccak256\n      0x00\n        /* \"contracts/PorfolioProject.sol\":4930:4962  LandVerification[_landId] = true */\n      0x0100\n      exp\n      dup2\n      sload\n      dup2\n      0xff\n      mul\n      not\n      and\n      swap1\n      dup4\n      iszero\n      iszero\n      mul\n      or\n      swap1\n      sstore\n      pop\n        /* \"contracts/PorfolioProject.sol\":4830:4970  function verifyLand(uint _landId) public{... */\n      pop\n      jump\t// out\n        /* \"#utility.yul\":7:82   */\n    tag_545:\n        /* \"#utility.yul\":40:46   */\n      0x00\n        /* \"#utility.yul\":73:75   */\n      0x40\n        /* \"#utility.yul\":67:76   */\n      mload\n        /* \"#utility.yul\":57:76   */\n      swap1\n      pop\n        /* \"#utility.yul\":7:82   */\n      swap1\n      jump\t// out\n        /* \"#utility.yul\":88:205   */\n    tag_546:\n        /* \"#utility.yul\":197:198   */\n      0x00\n        /* \"#utility.yul\":194:195   */\n      dup1\n        /* \"#utility.yul\":187:199   */\n      revert\n        /* \"#utility.yul\":211:328   */\n    tag_547:\n        /* \"#utility.yul\":320:321   */\n      0x00\n        /* \"#utility.yul\":317:318   */\n      dup1\n        /* \"#utility.yul\":310:322   */\n      revert\n        /* \"#utility.yul\":334:411   */\n    tag_548:\n        /* \"#utility.yul\":371:378   */\n      0x00\n        /* \"#utility.yul\":400:405   */\n      dup2\n        /* \"#utility.yul\":389:405   */\n      swap1\n      pop\n        /* \"#utility.yul\":334:411   */\n      swap2\n      swap1\n      pop\n      jump\t// out\n        /* \"#utility.yul\":417:539   */\n    tag_549:\n        /* \"#utility.yul\":490:514   */\n      tag_606\n        /* \"#utility.yul\":508:513   */\n      dup2\n        /* \"#utility.yul\":490:514   */\n      tag_548\n      jump\t// in\n    tag_606:\n        /* \"#utility.yul\":483:488   */\n      dup2\n        /* \"#utility.yul\":480:515   */\n      eq\n        /* \"#utility.yul\":470:533   */\n      tag_607\n      jumpi\n        /* \"#utility.yul\":529:530   */\n      0x00\n        /* \"#utility.yul\":526:527   */\n      dup1\n        /* \"#utility.yul\":519:531   */\n      revert\n        /* \"#utility.yul\":470:533   */\n    tag_607:\n        /* \"#utility.yul\":417:539   */\n      pop\n      jump\t// out\n        /* \"#utility.yul\":545:684   */\n    tag_550:\n        /* \"#utility.yul\":591:596   */\n      0x00\n        /* \"#utility.yul\":629:635   */\n      dup2\n        /* \"#utility.yul\":616:636   */\n      calldataload\n        /* \"#utility.yul\":607:636   */\n      swap1\n      pop\n        /* \"#utility.yul\":645:678   */\n      tag_609\n        /* \"#utility.yul\":672:677   */\n      dup2\n        /* \"#utility.yul\":645:678   */\n      tag_549\n      jump\t// in\n    tag_609:\n        /* \"#utility.yul\":545:684   */\n      swap3\n      swap2\n      pop\n      pop\n      jump\t// out\n        /* \"#utility.yul\":690:1019   */\n    tag_76:\n        /* \"#utility.yul\":749:755   */\n      0x00\n        /* \"#utility.yul\":798:800   */\n      0x20\n        /* \"#utility.yul\":786:795   */\n      dup3\n        /* \"#utility.yul\":777:784   */\n      dup5\n        /* \"#utility.yul\":773:796   */\n      sub\n        /* \"#utility.yul\":769:801   */\n      slt\n        /* \"#utility.yul\":766:885   */\n      iszero\n      tag_611\n      jumpi\n        /* \"#utility.yul\":804:883   */\n      tag_612\n      tag_546\n      jump\t// in\n    tag_612:\n        /* \"#utility.yul\":766:885   */\n    tag_611:\n        /* \"#utility.yul\":924:925   */\n      0x00\n        /* \"#utility.yul\":949:1002   */\n      tag_613\n        /* \"#utility.yul\":994:1001   */\n      dup5\n        /* \"#utility.yul\":985:991   */\n      dup3\n        /* \"#utility.yul\":974:983   */\n      dup6\n        /* \"#utility.yul\":970:992   */\n      add\n        /* \"#utility.yul\":949:1002   */\n      tag_550\n      jump\t// in\n    tag_613:\n        /* \"#utility.yul\":939:1002   */\n      swap2\n      pop\n        /* \"#utility.yul\":895:1012   */\n      pop\n        /* \"#utility.yul\":690:1019   */\n      swap3\n      swap2\n      pop\n      pop\n      jump\t// out\n        /* \"#utility.yul\":1025:1143   */\n    tag_551:\n        /* \"#utility.yul\":1112:1136   */\n      tag_615\n        /* \"#utility.yul\":1130:1135   */\n      dup2\n        /* \"#utility.yul\":1112:1136   */\n      tag_548\n      jump\t// in\n    tag_615:\n        /* \"#utility.yul\":1107:1110   */\n      dup3\n        /* \"#utility.yul\":1100:1137   */\n      mstore\n        /* \"#utility.yul\":1025:1143   */\n      pop\n      pop\n      jump\t// out\n        /* \"#utility.yul\":1149:1371   */\n    tag_79:\n        /* \"#utility.yul\":1242:1246   */\n      0x00\n        /* \"#utility.yul\":1280:1282   */\n      0x20\n        /* \"#utility.yul\":1269:1278   */\n      dup3\n        /* \"#utility.yul\":1265:1283   */\n      add\n        /* \"#utility.yul\":1257:1283   */\n      swap1\n      pop\n        /* \"#utility.yul\":1293:1364   */\n      tag_617\n        /* \"#utility.yul\":1361:1362   */\n      0x00\n        /* \"#utility.yul\":1350:1359   */\n      dup4\n        /* \"#utility.yul\":1346:1363   */\n      add\n        /* \"#utility.yul\":1337:1343   */\n      dup5\n        /* \"#utility.yul\":1293:1364   */\n      tag_551\n      jump\t// in\n    tag_617:\n        /* \"#utility.yul\":1149:1371   */\n      swap3\n      swap2\n      pop\n      pop\n      jump\t// out\n        /* \"#utility.yul\":1377:1503   */\n    tag_552:\n        /* \"#utility.yul\":1414:1421   */\n      0x00\n        /* \"#utility.yul\":1454:1496   */\n      0xffffffffffffffffffffffffffffffffffffffff\n        /* \"#utility.yul\":1447:1452   */\n      dup3\n        /* \"#utility.yul\":1443:1497   */\n      and\n        /* \"#utility.yul\":1432:1497   */\n      swap1\n      pop\n        /* \"#utility.yul\":1377:1503   */\n      swap2\n      swap1\n      pop\n      jump\t// out\n        /* \"#utility.yul\":1509:1605   */\n    tag_553:\n        /* \"#utility.yul\":1546:1553   */\n      0x00\n        /* \"#utility.yul\":1575:1599   */\n      tag_620\n        /* \"#utility.yul\":1593:1598   */\n      dup3\n        /* \"#utility.yul\":1575:1599   */\n      tag_552\n      jump\t// in\n    tag_620:\n        /* \"#utility.yul\":1564:1599   */\n      swap1\n      pop\n        /* \"#utility.yul\":1509:1605   */\n      swap2\n      swap1\n      pop\n      jump\t// out\n        /* \"#utility.yul\":1611:1729   */\n    tag_554:\n        /* \"#utility.yul\":1698:1722   */\n      tag_622\n        /* \"#utility.yul\":1716:1721   */\n      dup2\n        /* \"#utility.yul\":1698:1722   */\n      tag_553\n      jump\t// in\n    tag_622:\n        /* \"#utility.yul\":1693:1696   */\n      dup3\n        /* \"#utility.yul\":1686:1723   */\n      mstore\n        /* \"#utility.yul\":1611:1729   */\n      pop\n      pop\n      jump\t// out\n        /* \"#utility.yul\":1735:1957   */\n    tag_88:\n        /* \"#utility.yul\":1828:1832   */\n      0x00\n        /* \"#utility.yul\":1866:1868   */\n      0x20\n        /* \"#utility.yul\":1855:1864   */\n      dup3\n        /* \"#utility.yul\":1851:1869   */\n      add\n        /* \"#utility.yul\":1843:1869   */\n      swap1\n      pop\n        /* \"#utility.yul\":1879:1950   */\n      tag_624\n        /* \"#utility.yul\":1947:1948   */\n      0x00\n        /* \"#utility.yul\":1936:1945   */\n      dup4\n        /* \"#utility.yul\":1932:1949   */\n      add\n        /* \"#utility.yul\":1923:1929   */\n      dup5\n        /* \"#utility.yul\":1879:1950   */\n      tag_554\n      jump\t// in\n    tag_624:\n        /* \"#utility.yul\":1735:1957   */\n      swap3\n      swap2\n      pop\n      pop\n      jump\t// out\n        /* \"#utility.yul\":1963:2080   */\n    tag_555:\n        /* \"#utility.yul\":2072:2073   */\n      0x00\n        /* \"#utility.yul\":2069:2070   */\n      dup1\n        /* \"#utility.yul\":2062:2074   */\n      revert\n        /* \"#utility.yul\":2086:2203   */\n    tag_556:\n        /* \"#utility.yul\":2195:2196   */\n      0x00\n        /* \"#utility.yul\":2192:2193   */\n      dup1\n        /* \"#utility.yul\":2185:2197   */\n      revert\n        /* \"#utility.yul\":2209:2311   */\n    tag_557:\n        /* \"#utility.yul\":2250:2256   */\n      0x00\n        /* \"#utility.yul\":2301:2303   */\n      0x1f\n        /* \"#utility.yul\":2297:2304   */\n      not\n        /* \"#utility.yul\":2292:2294   */\n      0x1f\n        /* \"#utility.yul\":2285:2290   */\n      dup4\n        /* \"#utility.yul\":2281:2295   */\n      add\n        /* \"#utility.yul\":2277:2305   */\n      and\n        /* \"#utility.yul\":2267:2305   */\n      swap1\n      pop\n        /* \"#utility.yul\":2209:2311   */\n      swap2\n      swap1\n      pop\n      jump\t// out\n        /* \"#utility.yul\":2317:2497   */\n    tag_558:\n        /* \"#utility.yul\":2365:2442   */\n      0x4e487b7100000000000000000000000000000000000000000000000000000000\n        /* \"#utility.yul\":2362:2363   */\n      0x00\n        /* \"#utility.yul\":2355:2443   */\n      mstore\n        /* \"#utility.yul\":2462:2466   */\n      0x41\n        /* \"#utility.yul\":2459:2460   */\n      0x04\n        /* \"#utility.yul\":2452:2467   */\n      mstore\n        /* \"#utility.yul\":2486:2490   */\n      0x24\n        /* \"#utility.yul\":2483:2484   */\n      0x00\n        /* \"#utility.yul\":2476:2491   */\n      revert\n        /* \"#utility.yul\":2503:2784   */\n    tag_559:\n        /* \"#utility.yul\":2586:2613   */\n      tag_630\n        /* \"#utility.yul\":2608:2612   */\n      dup3\n        /* \"#utility.yul\":2586:2613   */\n      tag_557\n      jump\t// in\n    tag_630:\n        /* \"#utility.yul\":2578:2584   */\n      dup2\n        /* \"#utility.yul\":2574:2614   */\n      add\n        /* \"#utility.yul\":2716:2722   */\n      dup2\n        /* \"#utility.yul\":2704:2714   */\n      dup2\n        /* \"#utility.yul\":2701:2723   */\n      lt\n        /* \"#utility.yul\":2680:2698   */\n      0xffffffffffffffff\n        /* \"#utility.yul\":2668:2678   */\n      dup3\n        /* \"#utility.yul\":2665:2699   */\n      gt\n        /* \"#utility.yul\":2662:2724   */\n      or\n        /* \"#utility.yul\":2659:2747   */\n      iszero\n      tag_631\n      jumpi\n        /* \"#utility.yul\":2727:2745   */\n      tag_632\n      tag_558\n      jump\t// in\n    tag_632:\n        /* \"#utility.yul\":2659:2747   */\n    tag_631:\n        /* \"#utility.yul\":2767:2777   */\n      dup1\n        /* \"#utility.yul\":2763:2765   */\n      0x40\n        /* \"#utility.yul\":2756:2778   */\n      mstore\n        /* \"#utility.yul\":2546:2784   */\n      pop\n        /* \"#utility.yul\":2503:2784   */\n      pop\n      pop\n      jump\t// out\n        /* \"#utility.yul\":2790:2919   */\n    tag_560:\n        /* \"#utility.yul\":2824:2830   */\n      0x00\n        /* \"#utility.yul\":2851:2871   */\n      tag_634\n      tag_545\n      jump\t// in\n    tag_634:\n        /* \"#utility.yul\":2841:2871   */\n      swap1\n      pop\n        /* \"#utility.yul\":2880:2913   */\n      tag_635\n        /* \"#utility.yul\":2908:2912   */\n      dup3\n        /* \"#utility.yul\":2900:2906   */\n      dup3\n        /* \"#utility.yul\":2880:2913   */\n      tag_559\n      jump\t// in\n    tag_635:\n        /* \"#utility.yul\":2790:2919   */\n      swap2\n      swap1\n      pop\n      jump\t// out\n        /* \"#utility.yul\":2925:3233   */\n    tag_561:\n        /* \"#utility.yul\":2987:2991   */\n      0x00\n        /* \"#utility.yul\":3077:3095   */\n      0xffffffffffffffff\n        /* \"#utility.yul\":3069:3075   */\n      dup3\n        /* \"#utility.yul\":3066:3096   */\n      gt\n        /* \"#utility.yul\":3063:3119   */\n      iszero\n      tag_637\n      jumpi\n        /* \"#utility.yul\":3099:3117   */\n      tag_638\n      tag_558\n      jump\t// in\n    tag_638:\n        /* \"#utility.yul\":3063:3119   */\n    tag_637:\n        /* \"#utility.yul\":3137:3166   */\n      tag_639\n        /* \"#utility.yul\":3159:3165   */\n      dup3\n        /* \"#utility.yul\":3137:3166   */\n      tag_557\n      jump\t// in\n    tag_639:\n        /* \"#utility.yul\":3129:3166   */\n      swap1\n      pop\n        /* \"#utility.yul\":3221:3225   */\n      0x20\n        /* \"#utility.yul\":3215:3219   */\n      dup2\n        /* \"#utility.yul\":3211:3226   */\n      add\n        /* \"#utility.yul\":3203:3226   */\n      swap1\n      pop\n        /* \"#utility.yul\":2925:3233   */\n      swap2\n      swap1\n      pop\n      jump\t// out\n        /* \"#utility.yul\":3239:3385   */\n    tag_562:\n        /* \"#utility.yul\":3336:3342   */\n      dup3\n        /* \"#utility.yul\":3331:3334   */\n      dup2\n        /* \"#utility.yul\":3326:3329   */\n      dup4\n        /* \"#utility.yul\":3313:3343   */\n      calldatacopy\n        /* \"#utility.yul\":3377:3378   */\n      0x00\n        /* \"#utility.yul\":3368:3374   */\n      dup4\n        /* \"#utility.yul\":3363:3366   */\n      dup4\n        /* \"#utility.yul\":3359:3375   */\n      add\n        /* \"#utility.yul\":3352:3379   */\n      mstore\n        /* \"#utility.yul\":3239:3385   */\n      pop\n      pop\n      pop\n      jump\t// out\n        /* \"#utility.yul\":3391:3816   */\n    tag_563:\n        /* \"#utility.yul\":3469:3474   */\n      0x00\n        /* \"#utility.yul\":3494:3560   */\n      tag_642\n        /* \"#utility.yul\":3510:3559   */\n      tag_643\n        /* \"#utility.yul\":3552:3558   */\n      dup5\n        /* \"#utility.yul\":3510:3559   */\n      tag_561\n      jump\t// in\n    tag_643:\n        /* \"#utility.yul\":3494:3560   */\n      tag_560\n      jump\t// in\n    tag_642:\n        /* \"#utility.yul\":3485:3560   */\n      swap1\n      pop\n        /* \"#utility.yul\":3583:3589   */\n      dup3\n        /* \"#utility.yul\":3576:3581   */\n      dup2\n        /* \"#utility.yul\":3569:3590   */\n      mstore\n        /* \"#utility.yul\":3621:3625   */\n      0x20\n        /* \"#utility.yul\":3614:3619   */\n      dup2\n        /* \"#utility.yul\":3610:3626   */\n      add\n        /* \"#utility.yul\":3659:3662   */\n      dup5\n        /* \"#utility.yul\":3650:3656   */\n      dup5\n        /* \"#utility.yul\":3645:3648   */\n      dup5\n        /* \"#utility.yul\":3641:3657   */\n      add\n        /* \"#utility.yul\":3638:3663   */\n      gt\n        /* \"#utility.yul\":3635:3747   */\n      iszero\n      tag_644\n      jumpi\n        /* \"#utility.yul\":3666:3745   */\n      tag_645\n      tag_556\n      jump\t// in\n    tag_645:\n        /* \"#utility.yul\":3635:3747   */\n    tag_644:\n        /* \"#utility.yul\":3756:3810   */\n      tag_646\n        /* \"#utility.yul\":3803:3809   */\n      dup5\n        /* \"#utility.yul\":3798:3801   */\n      dup3\n        /* \"#utility.yul\":3793:3796   */\n      dup6\n        /* \"#utility.yul\":3756:3810   */\n      tag_562\n      jump\t// in\n    tag_646:\n        /* \"#utility.yul\":3475:3816   */\n      pop\n        /* \"#utility.yul\":3391:3816   */\n      swap4\n      swap3\n      pop\n      pop\n      pop\n      jump\t// out\n        /* \"#utility.yul\":3836:4176   */\n    tag_564:\n        /* \"#utility.yul\":3892:3897   */\n      0x00\n        /* \"#utility.yul\":3941:3944   */\n      dup3\n        /* \"#utility.yul\":3934:3938   */\n      0x1f\n        /* \"#utility.yul\":3926:3932   */\n      dup4\n        /* \"#utility.yul\":3922:3939   */\n      add\n        /* \"#utility.yul\":3918:3945   */\n      slt\n        /* \"#utility.yul\":3908:4030   */\n      tag_648\n      jumpi\n        /* \"#utility.yul\":3949:4028   */\n      tag_649\n      tag_555\n      jump\t// in\n    tag_649:\n        /* \"#utility.yul\":3908:4030   */\n    tag_648:\n        /* \"#utility.yul\":4066:4072   */\n      dup2\n        /* \"#utility.yul\":4053:4073   */\n      calldataload\n        /* \"#utility.yul\":4091:4170   */\n      tag_650\n        /* \"#utility.yul\":4166:4169   */\n      dup5\n        /* \"#utility.yul\":4158:4164   */\n      dup3\n        /* \"#utility.yul\":4151:4155   */\n      0x20\n        /* \"#utility.yul\":4143:4149   */\n      dup7\n        /* \"#utility.yul\":4139:4156   */\n      add\n        /* \"#utility.yul\":4091:4170   */\n      tag_563\n      jump\t// in\n    tag_650:\n        /* \"#utility.yul\":4082:4170   */\n      swap2\n      pop\n        /* \"#utility.yul\":3898:4176   */\n      pop\n        /* \"#utility.yul\":3836:4176   */\n      swap3\n      swap2\n      pop\n      pop\n      jump\t// out\n        /* \"#utility.yul\":4182:5633   */\n    tag_92:\n        /* \"#utility.yul\":4307:4313   */\n      0x00\n        /* \"#utility.yul\":4315:4321   */\n      dup1\n        /* \"#utility.yul\":4323:4329   */\n      0x00\n        /* \"#utility.yul\":4331:4337   */\n      dup1\n        /* \"#utility.yul\":4339:4345   */\n      0x00\n        /* \"#utility.yul\":4388:4391   */\n      0xa0\n        /* \"#utility.yul\":4376:4385   */\n      dup7\n        /* \"#utility.yul\":4367:4374   */\n      dup9\n        /* \"#utility.yul\":4363:4386   */\n      sub\n        /* \"#utility.yul\":4359:4392   */\n      slt\n        /* \"#utility.yul\":4356:4476   */\n      iszero\n      tag_652\n      jumpi\n        /* \"#utility.yul\":4395:4474   */\n      tag_653\n      tag_546\n      jump\t// in\n    tag_653:\n        /* \"#utility.yul\":4356:4476   */\n    tag_652:\n        /* \"#utility.yul\":4543:4544   */\n      0x00\n        /* \"#utility.yul\":4532:4541   */\n      dup7\n        /* \"#utility.yul\":4528:4545   */\n      add\n        /* \"#utility.yul\":4515:4546   */\n      calldataload\n        /* \"#utility.yul\":4573:4591   */\n      0xffffffffffffffff\n        /* \"#utility.yul\":4565:4571   */\n      dup2\n        /* \"#utility.yul\":4562:4592   */\n      gt\n        /* \"#utility.yul\":4559:4676   */\n      iszero\n      tag_654\n      jumpi\n        /* \"#utility.yul\":4595:4674   */\n      tag_655\n      tag_547\n      jump\t// in\n    tag_655:\n        /* \"#utility.yul\":4559:4676   */\n    tag_654:\n        /* \"#utility.yul\":4700:4763   */\n      tag_656\n        /* \"#utility.yul\":4755:4762   */\n      dup9\n        /* \"#utility.yul\":4746:4752   */\n      dup3\n        /* \"#utility.yul\":4735:4744   */\n      dup10\n        /* \"#utility.yul\":4731:4753   */\n      add\n        /* \"#utility.yul\":4700:4763   */\n      tag_564\n      jump\t// in\n    tag_656:\n        /* \"#utility.yul\":4690:4763   */\n      swap6\n      pop\n        /* \"#utility.yul\":4486:4773   */\n      pop\n        /* \"#utility.yul\":4812:4814   */\n      0x20\n        /* \"#utility.yul\":4838:4891   */\n      tag_657\n        /* \"#utility.yul\":4883:4890   */\n      dup9\n        /* \"#utility.yul\":4874:4880   */\n      dup3\n        /* \"#utility.yul\":4863:4872   */\n      dup10\n        /* \"#utility.yul\":4859:4881   */\n      add\n        /* \"#utility.yul\":4838:4891   */\n      tag_550\n      jump\t// in\n    tag_657:\n        /* \"#utility.yul\":4828:4891   */\n      swap5\n      pop\n        /* \"#utility.yul\":4783:4901   */\n      pop\n        /* \"#utility.yul\":4968:4970   */\n      0x40\n        /* \"#utility.yul\":4957:4966   */\n      dup7\n        /* \"#utility.yul\":4953:4971   */\n      add\n        /* \"#utility.yul\":4940:4972   */\n      calldataload\n        /* \"#utility.yul\":4999:5017   */\n      0xffffffffffffffff\n        /* \"#utility.yul\":4991:4997   */\n      dup2\n        /* \"#utility.yul\":4988:5018   */\n      gt\n        /* \"#utility.yul\":4985:5102   */\n      iszero\n      tag_658\n      jumpi\n        /* \"#utility.yul\":5021:5100   */\n      tag_659\n      tag_547\n      jump\t// in\n    tag_659:\n        /* \"#utility.yul\":4985:5102   */\n    tag_658:\n        /* \"#utility.yul\":5126:5189   */\n      tag_660\n        /* \"#utility.yul\":5181:5188   */\n      dup9\n        /* \"#utility.yul\":5172:5178   */\n      dup3\n        /* \"#utility.yul\":5161:5170   */\n      dup10\n        /* \"#utility.yul\":5157:5179   */\n      add\n        /* \"#utility.yul\":5126:5189   */\n      tag_564\n      jump\t// in\n    tag_660:\n        /* \"#utility.yul\":5116:5189   */\n      swap4\n      pop\n        /* \"#utility.yul\":4911:5199   */\n      pop\n        /* \"#utility.yul\":5238:5240   */\n      0x60\n        /* \"#utility.yul\":5264:5317   */\n      tag_661\n        /* \"#utility.yul\":5309:5316   */\n      dup9\n        /* \"#utility.yul\":5300:5306   */\n      dup3\n        /* \"#utility.yul\":5289:5298   */\n      dup10\n        /* \"#utility.yul\":5285:5307   */\n      add\n        /* \"#utility.yul\":5264:5317   */\n      tag_550\n      jump\t// in\n    tag_661:\n        /* \"#utility.yul\":5254:5317   */\n      swap3\n      pop\n        /* \"#utility.yul\":5209:5327   */\n      pop\n        /* \"#utility.yul\":5394:5397   */\n      0x80\n        /* \"#utility.yul\":5383:5392   */\n      dup7\n        /* \"#utility.yul\":5379:5398   */\n      add\n        /* \"#utility.yul\":5366:5399   */\n      calldataload\n        /* \"#utility.yul\":5426:5444   */\n      0xffffffffffffffff\n        /* \"#utility.yul\":5418:5424   */\n      dup2\n        /* \"#utility.yul\":5415:5445   */\n      gt\n        /* \"#utility.yul\":5412:5529   */\n      iszero\n      tag_662\n      jumpi\n        /* \"#utility.yul\":5448:5527   */\n      tag_663\n      tag_547\n      jump\t// in\n    tag_663:\n        /* \"#utility.yul\":5412:5529   */\n    tag_662:\n        /* \"#utility.yul\":5553:5616   */\n      tag_664\n        /* \"#utility.yul\":5608:5615   */\n      dup9\n        /* \"#utility.yul\":5599:5605   */\n      dup3\n        /* \"#utility.yul\":5588:5597   */\n      dup10\n        /* \"#utility.yul\":5584:5606   */\n      add\n        /* \"#utility.yul\":5553:5616   */\n      tag_564\n      jump\t// in\n    tag_664:\n        /* \"#utility.yul\":5543:5616   */\n      swap2\n      pop\n        /* \"#utility.yul\":5337:5626   */\n      pop\n        /* \"#utility.yul\":4182:5633   */\n      swap3\n      swap6\n      pop\n      swap3\n      swap6\n      swap1\n      swap4\n      pop\n      jump\t// out\n        /* \"#utility.yul\":5639:5729   */\n    tag_565:\n        /* \"#utility.yul\":5673:5680   */\n      0x00\n        /* \"#utility.yul\":5716:5721   */\n      dup2\n        /* \"#utility.yul\":5709:5722   */\n      iszero\n        /* \"#utility.yul\":5702:5723   */\n      iszero\n        /* \"#utility.yul\":5691:5723   */\n      swap1\n      pop\n        /* \"#utility.yul\":5639:5729   */\n      swap2\n      swap1\n      pop\n      jump\t// out\n        /* \"#utility.yul\":5735:5844   */\n    tag_566:\n        /* \"#utility.yul\":5816:5837   */\n      tag_667\n        /* \"#utility.yul\":5831:5836   */\n      dup2\n        /* \"#utility.yul\":5816:5837   */\n      tag_565\n      jump\t// in\n    tag_667:\n        /* \"#utility.yul\":5811:5814   */\n      dup3\n        /* \"#utility.yul\":5804:5838   */\n      mstore\n        /* \"#utility.yul\":5735:5844   */\n      pop\n      pop\n      jump\t// out\n        /* \"#utility.yul\":5850:6060   */\n    tag_104:\n        /* \"#utility.yul\":5937:5941   */\n      0x00\n        /* \"#utility.yul\":5975:5977   */\n      0x20\n        /* \"#utility.yul\":5964:5973   */\n      dup3\n        /* \"#utility.yul\":5960:5978   */\n      add\n        /* \"#utility.yul\":5952:5978   */\n      swap1\n      pop\n        /* \"#utility.yul\":5988:6053   */\n      tag_669\n        /* \"#utility.yul\":6050:6051   */\n      0x00\n        /* \"#utility.yul\":6039:6048   */\n      dup4\n        /* \"#utility.yul\":6035:6052   */\n      add\n        /* \"#utility.yul\":6026:6032   */\n      dup5\n        /* \"#utility.yul\":5988:6053   */\n      tag_566\n      jump\t// in\n    tag_669:\n        /* \"#utility.yul\":5850:6060   */\n      swap3\n      swap2\n      pop\n      pop\n      jump\t// out\n        /* \"#utility.yul\":6066:6188   */\n    tag_567:\n        /* \"#utility.yul\":6139:6163   */\n      tag_671\n        /* \"#utility.yul\":6157:6162   */\n      dup2\n        /* \"#utility.yul\":6139:6163   */\n      tag_553\n      jump\t// in\n    tag_671:\n        /* \"#utility.yul\":6132:6137   */\n      dup2\n        /* \"#utility.yul\":6129:6164   */\n      eq\n        /* \"#utility.yul\":6119:6182   */\n      tag_672\n      jumpi\n        /* \"#utility.yul\":6178:6179   */\n      0x00\n        /* \"#utility.yul\":6175:6176   */\n      dup1\n        /* \"#utility.yul\":6168:6180   */\n      revert\n        /* \"#utility.yul\":6119:6182   */\n    tag_672:\n        /* \"#utility.yul\":6066:6188   */\n      pop\n      jump\t// out\n        /* \"#utility.yul\":6194:6333   */\n    tag_568:\n        /* \"#utility.yul\":6240:6245   */\n      0x00\n        /* \"#utility.yul\":6278:6284   */\n      dup2\n        /* \"#utility.yul\":6265:6285   */\n      calldataload\n        /* \"#utility.yul\":6256:6285   */\n      swap1\n      pop\n        /* \"#utility.yul\":6294:6327   */\n      tag_674\n        /* \"#utility.yul\":6321:6326   */\n      dup2\n        /* \"#utility.yul\":6294:6327   */\n      tag_567\n      jump\t// in\n    tag_674:\n        /* \"#utility.yul\":6194:6333   */\n      swap3\n      swap2\n      pop\n      pop\n      jump\t// out\n        /* \"#utility.yul\":6339:6668   */\n    tag_108:\n        /* \"#utility.yul\":6398:6404   */\n      0x00\n        /* \"#utility.yul\":6447:6449   */\n      0x20\n        /* \"#utility.yul\":6435:6444   */\n      dup3\n        /* \"#utility.yul\":6426:6433   */\n      dup5\n        /* \"#utility.yul\":6422:6445   */\n      sub\n        /* \"#utility.yul\":6418:6450   */\n      slt\n        /* \"#utility.yul\":6415:6534   */\n      iszero\n      tag_676\n      jumpi\n        /* \"#utility.yul\":6453:6532   */\n      tag_677\n      tag_546\n      jump\t// in\n    tag_677:\n        /* \"#utility.yul\":6415:6534   */\n    tag_676:\n        /* \"#utility.yul\":6573:6574   */\n      0x00\n        /* \"#utility.yul\":6598:6651   */\n      tag_678\n        /* \"#utility.yul\":6643:6650   */\n      dup5\n        /* \"#utility.yul\":6634:6640   */\n      dup3\n        /* \"#utility.yul\":6623:6632   */\n      dup6\n        /* \"#utility.yul\":6619:6641   */\n      add\n        /* \"#utility.yul\":6598:6651   */\n      tag_568\n      jump\t// in\n    tag_678:\n        /* \"#utility.yul\":6588:6651   */\n      swap2\n      pop\n        /* \"#utility.yul\":6544:6661   */\n      pop\n        /* \"#utility.yul\":6339:6668   */\n      swap3\n      swap2\n      pop\n      pop\n      jump\t// out\n        /* \"#utility.yul\":6674:6773   */\n    tag_569:\n        /* \"#utility.yul\":6726:6732   */\n      0x00\n        /* \"#utility.yul\":6760:6765   */\n      dup2\n        /* \"#utility.yul\":6754:6766   */\n      mload\n        /* \"#utility.yul\":6744:6766   */\n      swap1\n      pop\n        /* \"#utility.yul\":6674:6773   */\n      swap2\n      swap1\n      pop\n      jump\t// out\n        /* \"#utility.yul\":6779:6948   */\n    tag_570:\n        /* \"#utility.yul\":6863:6874   */\n      0x00\n        /* \"#utility.yul\":6897:6903   */\n      dup3\n        /* \"#utility.yul\":6892:6895   */\n      dup3\n        /* \"#utility.yul\":6885:6904   */\n      mstore\n        /* \"#utility.yul\":6937:6941   */\n      0x20\n        /* \"#utility.yul\":6932:6935   */\n      dup3\n        /* \"#utility.yul\":6928:6942   */\n      add\n        /* \"#utility.yul\":6913:6942   */\n      swap1\n      pop\n        /* \"#utility.yul\":6779:6948   */\n      swap3\n      swap2\n      pop\n      pop\n      jump\t// out\n        /* \"#utility.yul\":6954:7200   */\n    tag_571:\n        /* \"#utility.yul\":7035:7036   */\n      0x00\n        /* \"#utility.yul\":7045:7158   */\n    tag_682:\n        /* \"#utility.yul\":7059:7065   */\n      dup4\n        /* \"#utility.yul\":7056:7057   */\n      dup2\n        /* \"#utility.yul\":7053:7066   */\n      lt\n        /* \"#utility.yul\":7045:7158   */\n      iszero\n      tag_684\n      jumpi\n        /* \"#utility.yul\":7144:7145   */\n      dup1\n        /* \"#utility.yul\":7139:7142   */\n      dup3\n        /* \"#utility.yul\":7135:7146   */\n      add\n        /* \"#utility.yul\":7129:7147   */\n      mload\n        /* \"#utility.yul\":7125:7126   */\n      dup2\n        /* \"#utility.yul\":7120:7123   */\n      dup5\n        /* \"#utility.yul\":7116:7127   */\n      add\n        /* \"#utility.yul\":7109:7148   */\n      mstore\n        /* \"#utility.yul\":7081:7083   */\n      0x20\n        /* \"#utility.yul\":7078:7079   */\n      dup2\n        /* \"#utility.yul\":7074:7084   */\n      add\n        /* \"#utility.yul\":7069:7084   */\n      swap1\n      pop\n        /* \"#utility.yul\":7045:7158   */\n      jump(tag_682)\n    tag_684:\n        /* \"#utility.yul\":7192:7193   */\n      0x00\n        /* \"#utility.yul\":7183:7189   */\n      dup5\n        /* \"#utility.yul\":7178:7181   */\n      dup5\n        /* \"#utility.yul\":7174:7190   */\n      add\n        /* \"#utility.yul\":7167:7194   */\n      mstore\n        /* \"#utility.yul\":7016:7200   */\n      pop\n        /* \"#utility.yul\":6954:7200   */\n      pop\n      pop\n      pop\n      jump\t// out\n        /* \"#utility.yul\":7206:7583   */\n    tag_572:\n        /* \"#utility.yul\":7294:7297   */\n      0x00\n        /* \"#utility.yul\":7322:7361   */\n      tag_686\n        /* \"#utility.yul\":7355:7360   */\n      dup3\n        /* \"#utility.yul\":7322:7361   */\n      tag_569\n      jump\t// in\n    tag_686:\n        /* \"#utility.yul\":7377:7448   */\n      tag_687\n        /* \"#utility.yul\":7441:7447   */\n      dup2\n        /* \"#utility.yul\":7436:7439   */\n      dup6\n        /* \"#utility.yul\":7377:7448   */\n      tag_570\n      jump\t// in\n    tag_687:\n        /* \"#utility.yul\":7370:7448   */\n      swap4\n      pop\n        /* \"#utility.yul\":7457:7522   */\n      tag_688\n        /* \"#utility.yul\":7515:7521   */\n      dup2\n        /* \"#utility.yul\":7510:7513   */\n      dup6\n        /* \"#utility.yul\":7503:7507   */\n      0x20\n        /* \"#utility.yul\":7496:7501   */\n      dup7\n        /* \"#utility.yul\":7492:7508   */\n      add\n        /* \"#utility.yul\":7457:7522   */\n      tag_571\n      jump\t// in\n    tag_688:\n        /* \"#utility.yul\":7547:7576   */\n      tag_689\n        /* \"#utility.yul\":7569:7575   */\n      dup2\n        /* \"#utility.yul\":7547:7576   */\n      tag_557\n      jump\t// in\n    tag_689:\n        /* \"#utility.yul\":7542:7545   */\n      dup5\n        /* \"#utility.yul\":7538:7577   */\n      add\n        /* \"#utility.yul\":7531:7577   */\n      swap2\n      pop\n        /* \"#utility.yul\":7298:7583   */\n      pop\n        /* \"#utility.yul\":7206:7583   */\n      swap3\n      swap2\n      pop\n      pop\n      jump\t// out\n        /* \"#utility.yul\":7589:7902   */\n    tag_120:\n        /* \"#utility.yul\":7702:7706   */\n      0x00\n        /* \"#utility.yul\":7740:7742   */\n      0x20\n        /* \"#utility.yul\":7729:7738   */\n      dup3\n        /* \"#utility.yul\":7725:7743   */\n      add\n        /* \"#utility.yul\":7717:7743   */\n      swap1\n      pop\n        /* \"#utility.yul\":7789:7798   */\n      dup2\n        /* \"#utility.yul\":7783:7787   */\n      dup2\n        /* \"#utility.yul\":7779:7799   */\n      sub\n        /* \"#utility.yul\":7775:7776   */\n      0x00\n        /* \"#utility.yul\":7764:7773   */\n      dup4\n        /* \"#utility.yul\":7760:7777   */\n      add\n        /* \"#utility.yul\":7753:7800   */\n      mstore\n        /* \"#utility.yul\":7817:7895   */\n      tag_691\n        /* \"#utility.yul\":7890:7894   */\n      dup2\n        /* \"#utility.yul\":7881:7887   */\n      dup5\n        /* \"#utility.yul\":7817:7895   */\n      tag_572\n      jump\t// in\n    tag_691:\n        /* \"#utility.yul\":7809:7895   */\n      swap1\n      pop\n        /* \"#utility.yul\":7589:7902   */\n      swap3\n      swap2\n      pop\n      pop\n      jump\t// out\n        /* \"#utility.yul\":7908:8022   */\n    tag_573:\n        /* \"#utility.yul\":7975:7981   */\n      0x00\n        /* \"#utility.yul\":8009:8014   */\n      dup2\n        /* \"#utility.yul\":8003:8015   */\n      mload\n        /* \"#utility.yul\":7993:8015   */\n      swap1\n      pop\n        /* \"#utility.yul\":7908:8022   */\n      swap2\n      swap1\n      pop\n      jump\t// out\n        /* \"#utility.yul\":8028:8212   */\n    tag_574:\n        /* \"#utility.yul\":8127:8138   */\n      0x00\n        /* \"#utility.yul\":8161:8167   */\n      dup3\n        /* \"#utility.yul\":8156:8159   */\n      dup3\n        /* \"#utility.yul\":8149:8168   */\n      mstore\n        /* \"#utility.yul\":8201:8205   */\n      0x20\n        /* \"#utility.yul\":8196:8199   */\n      dup3\n        /* \"#utility.yul\":8192:8206   */\n      add\n        /* \"#utility.yul\":8177:8206   */\n      swap1\n      pop\n        /* \"#utility.yul\":8028:8212   */\n      swap3\n      swap2\n      pop\n      pop\n      jump\t// out\n        /* \"#utility.yul\":8218:8350   */\n    tag_575:\n        /* \"#utility.yul\":8285:8289   */\n      0x00\n        /* \"#utility.yul\":8308:8311   */\n      dup2\n        /* \"#utility.yul\":8300:8311   */\n      swap1\n      pop\n        /* \"#utility.yul\":8338:8342   */\n      0x20\n        /* \"#utility.yul\":8333:8336   */\n      dup3\n        /* \"#utility.yul\":8329:8343   */\n      add\n        /* \"#utility.yul\":8321:8343   */\n      swap1\n      pop\n        /* \"#utility.yul\":8218:8350   */\n      swap2\n      swap1\n      pop\n      jump\t// out\n        /* \"#utility.yul\":8356:8464   */\n    tag_576:\n        /* \"#utility.yul\":8433:8457   */\n      tag_696\n        /* \"#utility.yul\":8451:8456   */\n      dup2\n        /* \"#utility.yul\":8433:8457   */\n      tag_553\n      jump\t// in\n    tag_696:\n        /* \"#utility.yul\":8428:8431   */\n      dup3\n        /* \"#utility.yul\":8421:8458   */\n      mstore\n        /* \"#utility.yul\":8356:8464   */\n      pop\n      pop\n      jump\t// out\n        /* \"#utility.yul\":8470:8649   */\n    tag_577:\n        /* \"#utility.yul\":8539:8549   */\n      0x00\n        /* \"#utility.yul\":8560:8606   */\n      tag_698\n        /* \"#utility.yul\":8602:8605   */\n      dup4\n        /* \"#utility.yul\":8594:8600   */\n      dup4\n        /* \"#utility.yul\":8560:8606   */\n      tag_576\n      jump\t// in\n    tag_698:\n        /* \"#utility.yul\":8638:8642   */\n      0x20\n        /* \"#utility.yul\":8633:8636   */\n      dup4\n        /* \"#utility.yul\":8629:8643   */\n      add\n        /* \"#utility.yul\":8615:8643   */\n      swap1\n      pop\n        /* \"#utility.yul\":8470:8649   */\n      swap3\n      swap2\n      pop\n      pop\n      jump\t// out\n        /* \"#utility.yul\":8655:8768   */\n    tag_578:\n        /* \"#utility.yul\":8725:8729   */\n      0x00\n        /* \"#utility.yul\":8757:8761   */\n      0x20\n        /* \"#utility.yul\":8752:8755   */\n      dup3\n        /* \"#utility.yul\":8748:8762   */\n      add\n        /* \"#utility.yul\":8740:8762   */\n      swap1\n      pop\n        /* \"#utility.yul\":8655:8768   */\n      swap2\n      swap1\n      pop\n      jump\t// out\n        /* \"#utility.yul\":8804:9536   */\n    tag_579:\n        /* \"#utility.yul\":8923:8926   */\n      0x00\n        /* \"#utility.yul\":8952:9006   */\n      tag_701\n        /* \"#utility.yul\":9000:9005   */\n      dup3\n        /* \"#utility.yul\":8952:9006   */\n      tag_573\n      jump\t// in\n    tag_701:\n        /* \"#utility.yul\":9022:9108   */\n      tag_702\n        /* \"#utility.yul\":9101:9107   */\n      dup2\n        /* \"#utility.yul\":9096:9099   */\n      dup6\n        /* \"#utility.yul\":9022:9108   */\n      tag_574\n      jump\t// in\n    tag_702:\n        /* \"#utility.yul\":9015:9108   */\n      swap4\n      pop\n        /* \"#utility.yul\":9132:9188   */\n      tag_703\n        /* \"#utility.yul\":9182:9187   */\n      dup4\n        /* \"#utility.yul\":9132:9188   */\n      tag_575\n      jump\t// in\n    tag_703:\n        /* \"#utility.yul\":9211:9218   */\n      dup1\n        /* \"#utility.yul\":9242:9243   */\n      0x00\n        /* \"#utility.yul\":9227:9511   */\n    tag_704:\n        /* \"#utility.yul\":9252:9258   */\n      dup4\n        /* \"#utility.yul\":9249:9250   */\n      dup2\n        /* \"#utility.yul\":9246:9259   */\n      lt\n        /* \"#utility.yul\":9227:9511   */\n      iszero\n      tag_706\n      jumpi\n        /* \"#utility.yul\":9328:9334   */\n      dup2\n        /* \"#utility.yul\":9322:9335   */\n      mload\n        /* \"#utility.yul\":9355:9418   */\n      tag_707\n        /* \"#utility.yul\":9414:9417   */\n      dup9\n        /* \"#utility.yul\":9399:9412   */\n      dup3\n        /* \"#utility.yul\":9355:9418   */\n      tag_577\n      jump\t// in\n    tag_707:\n        /* \"#utility.yul\":9348:9418   */\n      swap8\n      pop\n        /* \"#utility.yul\":9441:9501   */\n      tag_708\n        /* \"#utility.yul\":9494:9500   */\n      dup4\n        /* \"#utility.yul\":9441:9501   */\n      tag_578\n      jump\t// in\n    tag_708:\n        /* \"#utility.yul\":9431:9501   */\n      swap3\n      pop\n        /* \"#utility.yul\":9287:9511   */\n      pop\n        /* \"#utility.yul\":9274:9275   */\n      0x01\n        /* \"#utility.yul\":9271:9272   */\n      dup2\n        /* \"#utility.yul\":9267:9276   */\n      add\n        /* \"#utility.yul\":9262:9276   */\n      swap1\n      pop\n        /* \"#utility.yul\":9227:9511   */\n      jump(tag_704)\n    tag_706:\n        /* \"#utility.yul\":9231:9245   */\n      pop\n        /* \"#utility.yul\":9527:9530   */\n      dup6\n        /* \"#utility.yul\":9520:9530   */\n      swap4\n      pop\n        /* \"#utility.yul\":8928:9536   */\n      pop\n      pop\n      pop\n        /* \"#utility.yul\":8804:9536   */\n      swap3\n      swap2\n      pop\n      pop\n      jump\t// out\n        /* \"#utility.yul\":9542:9915   */\n    tag_144:\n        /* \"#utility.yul\":9685:9689   */\n      0x00\n        /* \"#utility.yul\":9723:9725   */\n      0x20\n        /* \"#utility.yul\":9712:9721   */\n      dup3\n        /* \"#utility.yul\":9708:9726   */\n      add\n        /* \"#utility.yul\":9700:9726   */\n      swap1\n      pop\n        /* \"#utility.yul\":9772:9781   */\n      dup2\n        /* \"#utility.yul\":9766:9770   */\n      dup2\n        /* \"#utility.yul\":9762:9782   */\n      sub\n        /* \"#utility.yul\":9758:9759   */\n      0x00\n        /* \"#utility.yul\":9747:9756   */\n      dup4\n        /* \"#utility.yul\":9743:9760   */\n      add\n        /* \"#utility.yul\":9736:9783   */\n      mstore\n        /* \"#utility.yul\":9800:9908   */\n      tag_710\n        /* \"#utility.yul\":9903:9907   */\n      dup2\n        /* \"#utility.yul\":9894:9900   */\n      dup5\n        /* \"#utility.yul\":9800:9908   */\n      tag_579\n      jump\t// in\n    tag_710:\n        /* \"#utility.yul\":9792:9908   */\n      swap1\n      pop\n        /* \"#utility.yul\":9542:9915   */\n      swap3\n      swap2\n      pop\n      pop\n      jump\t// out\n        /* \"#utility.yul\":9921:10025   */\n    tag_580:\n        /* \"#utility.yul\":9966:9973   */\n      0x00\n        /* \"#utility.yul\":9995:10019   */\n      tag_712\n        /* \"#utility.yul\":10013:10018   */\n      dup3\n        /* \"#utility.yul\":9995:10019   */\n      tag_552\n      jump\t// in\n    tag_712:\n        /* \"#utility.yul\":9984:10019   */\n      swap1\n      pop\n        /* \"#utility.yul\":9921:10025   */\n      swap2\n      swap1\n      pop\n      jump\t// out\n        /* \"#utility.yul\":10031:10169   */\n    tag_581:\n        /* \"#utility.yul\":10112:10144   */\n      tag_714\n        /* \"#utility.yul\":10138:10143   */\n      dup2\n        /* \"#utility.yul\":10112:10144   */\n      tag_580\n      jump\t// in\n    tag_714:\n        /* \"#utility.yul\":10105:10110   */\n      dup2\n        /* \"#utility.yul\":10102:10145   */\n      eq\n        /* \"#utility.yul\":10092:10163   */\n      tag_715\n      jumpi\n        /* \"#utility.yul\":10159:10160   */\n      0x00\n        /* \"#utility.yul\":10156:10157   */\n      dup1\n        /* \"#utility.yul\":10149:10161   */\n      revert\n        /* \"#utility.yul\":10092:10163   */\n    tag_715:\n        /* \"#utility.yul\":10031:10169   */\n      pop\n      jump\t// out\n        /* \"#utility.yul\":10175:10330   */\n    tag_582:\n        /* \"#utility.yul\":10229:10234   */\n      0x00\n        /* \"#utility.yul\":10267:10273   */\n      dup2\n        /* \"#utility.yul\":10254:10274   */\n      calldataload\n        /* \"#utility.yul\":10245:10274   */\n      swap1\n      pop\n        /* \"#utility.yul\":10283:10324   */\n      tag_717\n        /* \"#utility.yul\":10318:10323   */\n      dup2\n        /* \"#utility.yul\":10283:10324   */\n      tag_581\n      jump\t// in\n    tag_717:\n        /* \"#utility.yul\":10175:10330   */\n      swap3\n      swap2\n      pop\n      pop\n      jump\t// out\n        /* \"#utility.yul\":10336:10826   */\n    tag_157:\n        /* \"#utility.yul\":10412:10418   */\n      0x00\n        /* \"#utility.yul\":10420:10426   */\n      dup1\n        /* \"#utility.yul\":10469:10471   */\n      0x40\n        /* \"#utility.yul\":10457:10466   */\n      dup4\n        /* \"#utility.yul\":10448:10455   */\n      dup6\n        /* \"#utility.yul\":10444:10467   */\n      sub\n        /* \"#utility.yul\":10440:10472   */\n      slt\n        /* \"#utility.yul\":10437:10556   */\n      iszero\n      tag_719\n      jumpi\n        /* \"#utility.yul\":10475:10554   */\n      tag_720\n      tag_546\n      jump\t// in\n    tag_720:\n        /* \"#utility.yul\":10437:10556   */\n    tag_719:\n        /* \"#utility.yul\":10595:10596   */\n      0x00\n        /* \"#utility.yul\":10620:10681   */\n      tag_721\n        /* \"#utility.yul\":10673:10680   */\n      dup6\n        /* \"#utility.yul\":10664:10670   */\n      dup3\n        /* \"#utility.yul\":10653:10662   */\n      dup7\n        /* \"#utility.yul\":10649:10671   */\n      add\n        /* \"#utility.yul\":10620:10681   */\n      tag_582\n      jump\t// in\n    tag_721:\n        /* \"#utility.yul\":10610:10681   */\n      swap3\n      pop\n        /* \"#utility.yul\":10566:10691   */\n      pop\n        /* \"#utility.yul\":10730:10732   */\n      0x20\n        /* \"#utility.yul\":10756:10809   */\n      tag_722\n        /* \"#utility.yul\":10801:10808   */\n      dup6\n        /* \"#utility.yul\":10792:10798   */\n      dup3\n        /* \"#utility.yul\":10781:10790   */\n      dup7\n        /* \"#utility.yul\":10777:10799   */\n      add\n        /* \"#utility.yul\":10756:10809   */\n      tag_550\n      jump\t// in\n    tag_722:\n        /* \"#utility.yul\":10746:10809   */\n      swap2\n      pop\n        /* \"#utility.yul\":10701:10819   */\n      pop\n        /* \"#utility.yul\":10336:10826   */\n      swap3\n      pop\n      swap3\n      swap1\n      pop\n      jump\t// out\n        /* \"#utility.yul\":10832:11769   */\n    tag_168:\n        /* \"#utility.yul\":11097:11101   */\n      0x00\n        /* \"#utility.yul\":11135:11138   */\n      0xa0\n        /* \"#utility.yul\":11124:11133   */\n      dup3\n        /* \"#utility.yul\":11120:11139   */\n      add\n        /* \"#utility.yul\":11112:11139   */\n      swap1\n      pop\n        /* \"#utility.yul\":11185:11194   */\n      dup2\n        /* \"#utility.yul\":11179:11183   */\n      dup2\n        /* \"#utility.yul\":11175:11195   */\n      sub\n        /* \"#utility.yul\":11171:11172   */\n      0x00\n        /* \"#utility.yul\":11160:11169   */\n      dup4\n        /* \"#utility.yul\":11156:11173   */\n      add\n        /* \"#utility.yul\":11149:11196   */\n      mstore\n        /* \"#utility.yul\":11213:11291   */\n      tag_724\n        /* \"#utility.yul\":11286:11290   */\n      dup2\n        /* \"#utility.yul\":11277:11283   */\n      dup9\n        /* \"#utility.yul\":11213:11291   */\n      tag_572\n      jump\t// in\n    tag_724:\n        /* \"#utility.yul\":11205:11291   */\n      swap1\n      pop\n        /* \"#utility.yul\":11338:11347   */\n      dup2\n        /* \"#utility.yul\":11332:11336   */\n      dup2\n        /* \"#utility.yul\":11328:11348   */\n      sub\n        /* \"#utility.yul\":11323:11325   */\n      0x20\n        /* \"#utility.yul\":11312:11321   */\n      dup4\n        /* \"#utility.yul\":11308:11326   */\n      add\n        /* \"#utility.yul\":11301:11349   */\n      mstore\n        /* \"#utility.yul\":11366:11444   */\n      tag_725\n        /* \"#utility.yul\":11439:11443   */\n      dup2\n        /* \"#utility.yul\":11430:11436   */\n      dup8\n        /* \"#utility.yul\":11366:11444   */\n      tag_572\n      jump\t// in\n    tag_725:\n        /* \"#utility.yul\":11358:11444   */\n      swap1\n      pop\n        /* \"#utility.yul\":11454:11526   */\n      tag_726\n        /* \"#utility.yul\":11522:11524   */\n      0x40\n        /* \"#utility.yul\":11511:11520   */\n      dup4\n        /* \"#utility.yul\":11507:11525   */\n      add\n        /* \"#utility.yul\":11498:11504   */\n      dup7\n        /* \"#utility.yul\":11454:11526   */\n      tag_551\n      jump\t// in\n    tag_726:\n        /* \"#utility.yul\":11573:11582   */\n      dup2\n        /* \"#utility.yul\":11567:11571   */\n      dup2\n        /* \"#utility.yul\":11563:11583   */\n      sub\n        /* \"#utility.yul\":11558:11560   */\n      0x60\n        /* \"#utility.yul\":11547:11556   */\n      dup4\n        /* \"#utility.yul\":11543:11561   */\n      add\n        /* \"#utility.yul\":11536:11584   */\n      mstore\n        /* \"#utility.yul\":11601:11679   */\n      tag_727\n        /* \"#utility.yul\":11674:11678   */\n      dup2\n        /* \"#utility.yul\":11665:11671   */\n      dup6\n        /* \"#utility.yul\":11601:11679   */\n      tag_572\n      jump\t// in\n    tag_727:\n        /* \"#utility.yul\":11593:11679   */\n      swap1\n      pop\n        /* \"#utility.yul\":11689:11762   */\n      tag_728\n        /* \"#utility.yul\":11757:11760   */\n      0x80\n        /* \"#utility.yul\":11746:11755   */\n      dup4\n        /* \"#utility.yul\":11742:11761   */\n      add\n        /* \"#utility.yul\":11733:11739   */\n      dup5\n        /* \"#utility.yul\":11689:11762   */\n      tag_551\n      jump\t// in\n    tag_728:\n        /* \"#utility.yul\":10832:11769   */\n      swap7\n      swap6\n      pop\n      pop\n      pop\n      pop\n      pop\n      pop\n      jump\t// out\n        /* \"#utility.yul\":11775:13046   */\n    tag_196:\n        /* \"#utility.yul\":11890:11896   */\n      0x00\n        /* \"#utility.yul\":11898:11904   */\n      dup1\n        /* \"#utility.yul\":11906:11912   */\n      0x00\n        /* \"#utility.yul\":11914:11920   */\n      dup1\n        /* \"#utility.yul\":11922:11928   */\n      0x00\n        /* \"#utility.yul\":11971:11974   */\n      0xa0\n        /* \"#utility.yul\":11959:11968   */\n      dup7\n        /* \"#utility.yul\":11950:11957   */\n      dup9\n        /* \"#utility.yul\":11946:11969   */\n      sub\n        /* \"#utility.yul\":11942:11975   */\n      slt\n        /* \"#utility.yul\":11939:12059   */\n      iszero\n      tag_730\n      jumpi\n        /* \"#utility.yul\":11978:12057   */\n      tag_731\n      tag_546\n      jump\t// in\n    tag_731:\n        /* \"#utility.yul\":11939:12059   */\n    tag_730:\n        /* \"#utility.yul\":12098:12099   */\n      0x00\n        /* \"#utility.yul\":12123:12176   */\n      tag_732\n        /* \"#utility.yul\":12168:12175   */\n      dup9\n        /* \"#utility.yul\":12159:12165   */\n      dup3\n        /* \"#utility.yul\":12148:12157   */\n      dup10\n        /* \"#utility.yul\":12144:12166   */\n      add\n        /* \"#utility.yul\":12123:12176   */\n      tag_550\n      jump\t// in\n    tag_732:\n        /* \"#utility.yul\":12113:12176   */\n      swap6\n      pop\n        /* \"#utility.yul\":12069:12186   */\n      pop\n        /* \"#utility.yul\":12253:12255   */\n      0x20\n        /* \"#utility.yul\":12242:12251   */\n      dup7\n        /* \"#utility.yul\":12238:12256   */\n      add\n        /* \"#utility.yul\":12225:12257   */\n      calldataload\n        /* \"#utility.yul\":12284:12302   */\n      0xffffffffffffffff\n        /* \"#utility.yul\":12276:12282   */\n      dup2\n        /* \"#utility.yul\":12273:12303   */\n      gt\n        /* \"#utility.yul\":12270:12387   */\n      iszero\n      tag_733\n      jumpi\n        /* \"#utility.yul\":12306:12385   */\n      tag_734\n      tag_547\n      jump\t// in\n    tag_734:\n        /* \"#utility.yul\":12270:12387   */\n    tag_733:\n        /* \"#utility.yul\":12411:12474   */\n      tag_735\n        /* \"#utility.yul\":12466:12473   */\n      dup9\n        /* \"#utility.yul\":12457:12463   */\n      dup3\n        /* \"#utility.yul\":12446:12455   */\n      dup10\n        /* \"#utility.yul\":12442:12464   */\n      add\n        /* \"#utility.yul\":12411:12474   */\n      tag_564\n      jump\t// in\n    tag_735:\n        /* \"#utility.yul\":12401:12474   */\n      swap5\n      pop\n        /* \"#utility.yul\":12196:12484   */\n      pop\n        /* \"#utility.yul\":12551:12553   */\n      0x40\n        /* \"#utility.yul\":12540:12549   */\n      dup7\n        /* \"#utility.yul\":12536:12554   */\n      add\n        /* \"#utility.yul\":12523:12555   */\n      calldataload\n        /* \"#utility.yul\":12582:12600   */\n      0xffffffffffffffff\n        /* \"#utility.yul\":12574:12580   */\n      dup2\n        /* \"#utility.yul\":12571:12601   */\n      gt\n        /* \"#utility.yul\":12568:12685   */\n      iszero\n      tag_736\n      jumpi\n        /* \"#utility.yul\":12604:12683   */\n      tag_737\n      tag_547\n      jump\t// in\n    tag_737:\n        /* \"#utility.yul\":12568:12685   */\n    tag_736:\n        /* \"#utility.yul\":12709:12772   */\n      tag_738\n        /* \"#utility.yul\":12764:12771   */\n      dup9\n        /* \"#utility.yul\":12755:12761   */\n      dup3\n        /* \"#utility.yul\":12744:12753   */\n      dup10\n        /* \"#utility.yul\":12740:12762   */\n      add\n        /* \"#utility.yul\":12709:12772   */\n      tag_564\n      jump\t// in\n    tag_738:\n        /* \"#utility.yul\":12699:12772   */\n      swap4\n      pop\n        /* \"#utility.yul\":12494:12782   */\n      pop\n        /* \"#utility.yul\":12821:12823   */\n      0x60\n        /* \"#utility.yul\":12847:12900   */\n      tag_739\n        /* \"#utility.yul\":12892:12899   */\n      dup9\n        /* \"#utility.yul\":12883:12889   */\n      dup3\n        /* \"#utility.yul\":12872:12881   */\n      dup10\n        /* \"#utility.yul\":12868:12890   */\n      add\n        /* \"#utility.yul\":12847:12900   */\n      tag_550\n      jump\t// in\n    tag_739:\n        /* \"#utility.yul\":12837:12900   */\n      swap3\n      pop\n        /* \"#utility.yul\":12792:12910   */\n      pop\n        /* \"#utility.yul\":12949:12952   */\n      0x80\n        /* \"#utility.yul\":12976:13029   */\n      tag_740\n        /* \"#utility.yul\":13021:13028   */\n      dup9\n        /* \"#utility.yul\":13012:13018   */\n      dup3\n        /* \"#utility.yul\":13001:13010   */\n      dup10\n        /* \"#utility.yul\":12997:13019   */\n      add\n        /* \"#utility.yul\":12976:13029   */\n      tag_550\n      jump\t// in\n    tag_740:\n        /* \"#utility.yul\":12966:13029   */\n      swap2\n      pop\n        /* \"#utility.yul\":12920:13039   */\n      pop\n        /* \"#utility.yul\":11775:13046   */\n      swap3\n      swap6\n      pop\n      swap3\n      swap6\n      swap1\n      swap4\n      pop\n      jump\t// out\n        /* \"#utility.yul\":13052:14100   */\n    tag_227:\n        /* \"#utility.yul\":13345:13349   */\n      0x00\n        /* \"#utility.yul\":13383:13386   */\n      0xc0\n        /* \"#utility.yul\":13372:13381   */\n      dup3\n        /* \"#utility.yul\":13368:13387   */\n      add\n        /* \"#utility.yul\":13360:13387   */\n      swap1\n      pop\n        /* \"#utility.yul\":13397:13468   */\n      tag_742\n        /* \"#utility.yul\":13465:13466   */\n      0x00\n        /* \"#utility.yul\":13454:13463   */\n      dup4\n        /* \"#utility.yul\":13450:13467   */\n      add\n        /* \"#utility.yul\":13441:13447   */\n      dup10\n        /* \"#utility.yul\":13397:13468   */\n      tag_554\n      jump\t// in\n    tag_742:\n        /* \"#utility.yul\":13515:13524   */\n      dup2\n        /* \"#utility.yul\":13509:13513   */\n      dup2\n        /* \"#utility.yul\":13505:13525   */\n      sub\n        /* \"#utility.yul\":13500:13502   */\n      0x20\n        /* \"#utility.yul\":13489:13498   */\n      dup4\n        /* \"#utility.yul\":13485:13503   */\n      add\n        /* \"#utility.yul\":13478:13526   */\n      mstore\n        /* \"#utility.yul\":13543:13621   */\n      tag_743\n        /* \"#utility.yul\":13616:13620   */\n      dup2\n        /* \"#utility.yul\":13607:13613   */\n      dup9\n        /* \"#utility.yul\":13543:13621   */\n      tag_572\n      jump\t// in\n    tag_743:\n        /* \"#utility.yul\":13535:13621   */\n      swap1\n      pop\n        /* \"#utility.yul\":13631:13703   */\n      tag_744\n        /* \"#utility.yul\":13699:13701   */\n      0x40\n        /* \"#utility.yul\":13688:13697   */\n      dup4\n        /* \"#utility.yul\":13684:13702   */\n      add\n        /* \"#utility.yul\":13675:13681   */\n      dup8\n        /* \"#utility.yul\":13631:13703   */\n      tag_551\n      jump\t// in\n    tag_744:\n        /* \"#utility.yul\":13750:13759   */\n      dup2\n        /* \"#utility.yul\":13744:13748   */\n      dup2\n        /* \"#utility.yul\":13740:13760   */\n      sub\n        /* \"#utility.yul\":13735:13737   */\n      0x60\n        /* \"#utility.yul\":13724:13733   */\n      dup4\n        /* \"#utility.yul\":13720:13738   */\n      add\n        /* \"#utility.yul\":13713:13761   */\n      mstore\n        /* \"#utility.yul\":13778:13856   */\n      tag_745\n        /* \"#utility.yul\":13851:13855   */\n      dup2\n        /* \"#utility.yul\":13842:13848   */\n      dup7\n        /* \"#utility.yul\":13778:13856   */\n      tag_572\n      jump\t// in\n    tag_745:\n        /* \"#utility.yul\":13770:13856   */\n      swap1\n      pop\n        /* \"#utility.yul\":13866:13939   */\n      tag_746\n        /* \"#utility.yul\":13934:13937   */\n      0x80\n        /* \"#utility.yul\":13923:13932   */\n      dup4\n        /* \"#utility.yul\":13919:13938   */\n      add\n        /* \"#utility.yul\":13910:13916   */\n      dup6\n        /* \"#utility.yul\":13866:13939   */\n      tag_551\n      jump\t// in\n    tag_746:\n        /* \"#utility.yul\":13987:13996   */\n      dup2\n        /* \"#utility.yul\":13981:13985   */\n      dup2\n        /* \"#utility.yul\":13977:13997   */\n      sub\n        /* \"#utility.yul\":13971:13974   */\n      0xa0\n        /* \"#utility.yul\":13960:13969   */\n      dup4\n        /* \"#utility.yul\":13956:13975   */\n      add\n        /* \"#utility.yul\":13949:13998   */\n      mstore\n        /* \"#utility.yul\":14015:14093   */\n      tag_747\n        /* \"#utility.yul\":14088:14092   */\n      dup2\n        /* \"#utility.yul\":14079:14085   */\n      dup5\n        /* \"#utility.yul\":14015:14093   */\n      tag_572\n      jump\t// in\n    tag_747:\n        /* \"#utility.yul\":14007:14093   */\n      swap1\n      pop\n        /* \"#utility.yul\":13052:14100   */\n      swap8\n      swap7\n      pop\n      pop\n      pop\n      pop\n      pop\n      pop\n      pop\n      jump\t// out\n        /* \"#utility.yul\":14106:14659   */\n    tag_233:\n        /* \"#utility.yul\":14283:14287   */\n      0x00\n        /* \"#utility.yul\":14321:14324   */\n      0x80\n        /* \"#utility.yul\":14310:14319   */\n      dup3\n        /* \"#utility.yul\":14306:14325   */\n      add\n        /* \"#utility.yul\":14298:14325   */\n      swap1\n      pop\n        /* \"#utility.yul\":14335:14406   */\n      tag_749\n        /* \"#utility.yul\":14403:14404   */\n      0x00\n        /* \"#utility.yul\":14392:14401   */\n      dup4\n        /* \"#utility.yul\":14388:14405   */\n      add\n        /* \"#utility.yul\":14379:14385   */\n      dup8\n        /* \"#utility.yul\":14335:14406   */\n      tag_551\n      jump\t// in\n    tag_749:\n        /* \"#utility.yul\":14416:14488   */\n      tag_750\n        /* \"#utility.yul\":14484:14486   */\n      0x20\n        /* \"#utility.yul\":14473:14482   */\n      dup4\n        /* \"#utility.yul\":14469:14487   */\n      add\n        /* \"#utility.yul\":14460:14466   */\n      dup7\n        /* \"#utility.yul\":14416:14488   */\n      tag_554\n      jump\t// in\n    tag_750:\n        /* \"#utility.yul\":14498:14570   */\n      tag_751\n        /* \"#utility.yul\":14566:14568   */\n      0x40\n        /* \"#utility.yul\":14555:14564   */\n      dup4\n        /* \"#utility.yul\":14551:14569   */\n      add\n        /* \"#utility.yul\":14542:14548   */\n      dup6\n        /* \"#utility.yul\":14498:14570   */\n      tag_554\n      jump\t// in\n    tag_751:\n        /* \"#utility.yul\":14580:14652   */\n      tag_752\n        /* \"#utility.yul\":14648:14650   */\n      0x60\n        /* \"#utility.yul\":14637:14646   */\n      dup4\n        /* \"#utility.yul\":14633:14651   */\n      add\n        /* \"#utility.yul\":14624:14630   */\n      dup5\n        /* \"#utility.yul\":14580:14652   */\n      tag_551\n      jump\t// in\n    tag_752:\n        /* \"#utility.yul\":14106:14659   */\n      swap6\n      swap5\n      pop\n      pop\n      pop\n      pop\n      pop\n      jump\t// out\n        /* \"#utility.yul\":14665:15400   */\n    tag_239:\n        /* \"#utility.yul\":14882:14886   */\n      0x00\n        /* \"#utility.yul\":14920:14923   */\n      0x80\n        /* \"#utility.yul\":14909:14918   */\n      dup3\n        /* \"#utility.yul\":14905:14924   */\n      add\n        /* \"#utility.yul\":14897:14924   */\n      swap1\n      pop\n        /* \"#utility.yul\":14970:14979   */\n      dup2\n        /* \"#utility.yul\":14964:14968   */\n      dup2\n        /* \"#utility.yul\":14960:14980   */\n      sub\n        /* \"#utility.yul\":14956:14957   */\n      0x00\n        /* \"#utility.yul\":14945:14954   */\n      dup4\n        /* \"#utility.yul\":14941:14958   */\n      add\n        /* \"#utility.yul\":14934:14981   */\n      mstore\n        /* \"#utility.yul\":14998:15076   */\n      tag_754\n        /* \"#utility.yul\":15071:15075   */\n      dup2\n        /* \"#utility.yul\":15062:15068   */\n      dup8\n        /* \"#utility.yul\":14998:15076   */\n      tag_572\n      jump\t// in\n    tag_754:\n        /* \"#utility.yul\":14990:15076   */\n      swap1\n      pop\n        /* \"#utility.yul\":15086:15158   */\n      tag_755\n        /* \"#utility.yul\":15154:15156   */\n      0x20\n        /* \"#utility.yul\":15143:15152   */\n      dup4\n        /* \"#utility.yul\":15139:15157   */\n      add\n        /* \"#utility.yul\":15130:15136   */\n      dup7\n        /* \"#utility.yul\":15086:15158   */\n      tag_551\n      jump\t// in\n    tag_755:\n        /* \"#utility.yul\":15168:15240   */\n      tag_756\n        /* \"#utility.yul\":15236:15238   */\n      0x40\n        /* \"#utility.yul\":15225:15234   */\n      dup4\n        /* \"#utility.yul\":15221:15239   */\n      add\n        /* \"#utility.yul\":15212:15218   */\n      dup6\n        /* \"#utility.yul\":15168:15240   */\n      tag_551\n      jump\t// in\n    tag_756:\n        /* \"#utility.yul\":15287:15296   */\n      dup2\n        /* \"#utility.yul\":15281:15285   */\n      dup2\n        /* \"#utility.yul\":15277:15297   */\n      sub\n        /* \"#utility.yul\":15272:15274   */\n      0x60\n        /* \"#utility.yul\":15261:15270   */\n      dup4\n        /* \"#utility.yul\":15257:15275   */\n      add\n        /* \"#utility.yul\":15250:15298   */\n      mstore\n        /* \"#utility.yul\":15315:15393   */\n      tag_757\n        /* \"#utility.yul\":15388:15392   */\n      dup2\n        /* \"#utility.yul\":15379:15385   */\n      dup5\n        /* \"#utility.yul\":15315:15393   */\n      tag_572\n      jump\t// in\n    tag_757:\n        /* \"#utility.yul\":15307:15393   */\n      swap1\n      pop\n        /* \"#utility.yul\":14665:15400   */\n      swap6\n      swap5\n      pop\n      pop\n      pop\n      pop\n      pop\n      jump\t// out\n        /* \"#utility.yul\":15406:15880   */\n    tag_248:\n        /* \"#utility.yul\":15474:15480   */\n      0x00\n        /* \"#utility.yul\":15482:15488   */\n      dup1\n        /* \"#utility.yul\":15531:15533   */\n      0x40\n        /* \"#utility.yul\":15519:15528   */\n      dup4\n        /* \"#utility.yul\":15510:15517   */\n      dup6\n        /* \"#utility.yul\":15506:15529   */\n      sub\n        /* \"#utility.yul\":15502:15534   */\n      slt\n        /* \"#utility.yul\":15499:15618   */\n      iszero\n      tag_759\n      jumpi\n        /* \"#utility.yul\":15537:15616   */\n      tag_760\n      tag_546\n      jump\t// in\n    tag_760:\n        /* \"#utility.yul\":15499:15618   */\n    tag_759:\n        /* \"#utility.yul\":15657:15658   */\n      0x00\n        /* \"#utility.yul\":15682:15735   */\n      tag_761\n        /* \"#utility.yul\":15727:15734   */\n      dup6\n        /* \"#utility.yul\":15718:15724   */\n      dup3\n        /* \"#utility.yul\":15707:15716   */\n      dup7\n        /* \"#utility.yul\":15703:15725   */\n      add\n        /* \"#utility.yul\":15682:15735   */\n      tag_550\n      jump\t// in\n    tag_761:\n        /* \"#utility.yul\":15672:15735   */\n      swap3\n      pop\n        /* \"#utility.yul\":15628:15745   */\n      pop\n        /* \"#utility.yul\":15784:15786   */\n      0x20\n        /* \"#utility.yul\":15810:15863   */\n      tag_762\n        /* \"#utility.yul\":15855:15862   */\n      dup6\n        /* \"#utility.yul\":15846:15852   */\n      dup3\n        /* \"#utility.yul\":15835:15844   */\n      dup7\n        /* \"#utility.yul\":15831:15853   */\n      add\n        /* \"#utility.yul\":15810:15863   */\n      tag_568\n      jump\t// in\n    tag_762:\n        /* \"#utility.yul\":15800:15863   */\n      swap2\n      pop\n        /* \"#utility.yul\":15755:15873   */\n      pop\n        /* \"#utility.yul\":15406:15880   */\n      swap3\n      pop\n      swap3\n      swap1\n      pop\n      jump\t// out\n        /* \"#utility.yul\":15886:16934   */\n    tag_287:\n        /* \"#utility.yul\":16179:16183   */\n      0x00\n        /* \"#utility.yul\":16217:16220   */\n      0xc0\n        /* \"#utility.yul\":16206:16215   */\n      dup3\n        /* \"#utility.yul\":16202:16221   */\n      add\n        /* \"#utility.yul\":16194:16221   */\n      swap1\n      pop\n        /* \"#utility.yul\":16231:16302   */\n      tag_764\n        /* \"#utility.yul\":16299:16300   */\n      0x00\n        /* \"#utility.yul\":16288:16297   */\n      dup4\n        /* \"#utility.yul\":16284:16301   */\n      add\n        /* \"#utility.yul\":16275:16281   */\n      dup10\n        /* \"#utility.yul\":16231:16302   */\n      tag_554\n      jump\t// in\n    tag_764:\n        /* \"#utility.yul\":16349:16358   */\n      dup2\n        /* \"#utility.yul\":16343:16347   */\n      dup2\n        /* \"#utility.yul\":16339:16359   */\n      sub\n        /* \"#utility.yul\":16334:16336   */\n      0x20\n        /* \"#utility.yul\":16323:16332   */\n      dup4\n        /* \"#utility.yul\":16319:16337   */\n      add\n        /* \"#utility.yul\":16312:16360   */\n      mstore\n        /* \"#utility.yul\":16377:16455   */\n      tag_765\n        /* \"#utility.yul\":16450:16454   */\n      dup2\n        /* \"#utility.yul\":16441:16447   */\n      dup9\n        /* \"#utility.yul\":16377:16455   */\n      tag_572\n      jump\t// in\n    tag_765:\n        /* \"#utility.yul\":16369:16455   */\n      swap1\n      pop\n        /* \"#utility.yul\":16502:16511   */\n      dup2\n        /* \"#utility.yul\":16496:16500   */\n      dup2\n        /* \"#utility.yul\":16492:16512   */\n      sub\n        /* \"#utility.yul\":16487:16489   */\n      0x40\n        /* \"#utility.yul\":16476:16485   */\n      dup4\n        /* \"#utility.yul\":16472:16490   */\n      add\n        /* \"#utility.yul\":16465:16513   */\n      mstore\n        /* \"#utility.yul\":16530:16608   */\n      tag_766\n        /* \"#utility.yul\":16603:16607   */\n      dup2\n        /* \"#utility.yul\":16594:16600   */\n      dup8\n        /* \"#utility.yul\":16530:16608   */\n      tag_572\n      jump\t// in\n    tag_766:\n        /* \"#utility.yul\":16522:16608   */\n      swap1\n      pop\n        /* \"#utility.yul\":16618:16690   */\n      tag_767\n        /* \"#utility.yul\":16686:16688   */\n      0x60\n        /* \"#utility.yul\":16675:16684   */\n      dup4\n        /* \"#utility.yul\":16671:16689   */\n      add\n        /* \"#utility.yul\":16662:16668   */\n      dup7\n        /* \"#utility.yul\":16618:16690   */\n      tag_551\n      jump\t// in\n    tag_767:\n        /* \"#utility.yul\":16700:16773   */\n      tag_768\n        /* \"#utility.yul\":16768:16771   */\n      0x80\n        /* \"#utility.yul\":16757:16766   */\n      dup4\n        /* \"#utility.yul\":16753:16772   */\n      add\n        /* \"#utility.yul\":16744:16750   */\n      dup6\n        /* \"#utility.yul\":16700:16773   */\n      tag_551\n      jump\t// in\n    tag_768:\n        /* \"#utility.yul\":16821:16830   */\n      dup2\n        /* \"#utility.yul\":16815:16819   */\n      dup2\n        /* \"#utility.yul\":16811:16831   */\n      sub\n        /* \"#utility.yul\":16805:16808   */\n      0xa0\n        /* \"#utility.yul\":16794:16803   */\n      dup4\n        /* \"#utility.yul\":16790:16809   */\n      add\n        /* \"#utility.yul\":16783:16832   */\n      mstore\n        /* \"#utility.yul\":16849:16927   */\n      tag_769\n        /* \"#utility.yul\":16922:16926   */\n      dup2\n        /* \"#utility.yul\":16913:16919   */\n      dup5\n        /* \"#utility.yul\":16849:16927   */\n      tag_572\n      jump\t// in\n    tag_769:\n        /* \"#utility.yul\":16841:16927   */\n      swap1\n      pop\n        /* \"#utility.yul\":15886:16934   */\n      swap8\n      swap7\n      pop\n      pop\n      pop\n      pop\n      pop\n      pop\n      pop\n      jump\t// out\n        /* \"#utility.yul\":16940:17675   */\n    tag_293:\n        /* \"#utility.yul\":17157:17161   */\n      0x00\n        /* \"#utility.yul\":17195:17198   */\n      0x80\n        /* \"#utility.yul\":17184:17193   */\n      dup3\n        /* \"#utility.yul\":17180:17199   */\n      add\n        /* \"#utility.yul\":17172:17199   */\n      swap1\n      pop\n        /* \"#utility.yul\":17209:17280   */\n      tag_771\n        /* \"#utility.yul\":17277:17278   */\n      0x00\n        /* \"#utility.yul\":17266:17275   */\n      dup4\n        /* \"#utility.yul\":17262:17279   */\n      add\n        /* \"#utility.yul\":17253:17259   */\n      dup8\n        /* \"#utility.yul\":17209:17280   */\n      tag_551\n      jump\t// in\n    tag_771:\n        /* \"#utility.yul\":17327:17336   */\n      dup2\n        /* \"#utility.yul\":17321:17325   */\n      dup2\n        /* \"#utility.yul\":17317:17337   */\n      sub\n        /* \"#utility.yul\":17312:17314   */\n      0x20\n        /* \"#utility.yul\":17301:17310   */\n      dup4\n        /* \"#utility.yul\":17297:17315   */\n      add\n        /* \"#utility.yul\":17290:17338   */\n      mstore\n        /* \"#utility.yul\":17355:17433   */\n      tag_772\n        /* \"#utility.yul\":17428:17432   */\n      dup2\n        /* \"#utility.yul\":17419:17425   */\n      dup7\n        /* \"#utility.yul\":17355:17433   */\n      tag_572\n      jump\t// in\n    tag_772:\n        /* \"#utility.yul\":17347:17433   */\n      swap1\n      pop\n        /* \"#utility.yul\":17443:17515   */\n      tag_773\n        /* \"#utility.yul\":17511:17513   */\n      0x40\n        /* \"#utility.yul\":17500:17509   */\n      dup4\n        /* \"#utility.yul\":17496:17514   */\n      add\n        /* \"#utility.yul\":17487:17493   */\n      dup6\n        /* \"#utility.yul\":17443:17515   */\n      tag_551\n      jump\t// in\n    tag_773:\n        /* \"#utility.yul\":17562:17571   */\n      dup2\n        /* \"#utility.yul\":17556:17560   */\n      dup2\n        /* \"#utility.yul\":17552:17572   */\n      sub\n        /* \"#utility.yul\":17547:17549   */\n      0x60\n        /* \"#utility.yul\":17536:17545   */\n      dup4\n        /* \"#utility.yul\":17532:17550   */\n      add\n        /* \"#utility.yul\":17525:17573   */\n      mstore\n        /* \"#utility.yul\":17590:17668   */\n      tag_774\n        /* \"#utility.yul\":17663:17667   */\n      dup2\n        /* \"#utility.yul\":17654:17660   */\n      dup5\n        /* \"#utility.yul\":17590:17668   */\n      tag_572\n      jump\t// in\n    tag_774:\n        /* \"#utility.yul\":17582:17668   */\n      swap1\n      pop\n        /* \"#utility.yul\":16940:17675   */\n      swap6\n      swap5\n      pop\n      pop\n      pop\n      pop\n      pop\n      jump\t// out\n        /* \"#utility.yul\":17681:18638   */\n    tag_308:\n        /* \"#utility.yul\":17954:17958   */\n      0x00\n        /* \"#utility.yul\":17992:17995   */\n      0xc0\n        /* \"#utility.yul\":17981:17990   */\n      dup3\n        /* \"#utility.yul\":17977:17996   */\n      add\n        /* \"#utility.yul\":17969:17996   */\n      swap1\n      pop\n        /* \"#utility.yul\":18006:18077   */\n      tag_776\n        /* \"#utility.yul\":18074:18075   */\n      0x00\n        /* \"#utility.yul\":18063:18072   */\n      dup4\n        /* \"#utility.yul\":18059:18076   */\n      add\n        /* \"#utility.yul\":18050:18056   */\n      dup10\n        /* \"#utility.yul\":18006:18077   */\n      tag_551\n      jump\t// in\n    tag_776:\n        /* \"#utility.yul\":18087:18159   */\n      tag_777\n        /* \"#utility.yul\":18155:18157   */\n      0x20\n        /* \"#utility.yul\":18144:18153   */\n      dup4\n        /* \"#utility.yul\":18140:18158   */\n      add\n        /* \"#utility.yul\":18131:18137   */\n      dup9\n        /* \"#utility.yul\":18087:18159   */\n      tag_551\n      jump\t// in\n    tag_777:\n        /* \"#utility.yul\":18206:18215   */\n      dup2\n        /* \"#utility.yul\":18200:18204   */\n      dup2\n        /* \"#utility.yul\":18196:18216   */\n      sub\n        /* \"#utility.yul\":18191:18193   */\n      0x40\n        /* \"#utility.yul\":18180:18189   */\n      dup4\n        /* \"#utility.yul\":18176:18194   */\n      add\n        /* \"#utility.yul\":18169:18217   */\n      mstore\n        /* \"#utility.yul\":18234:18312   */\n      tag_778\n        /* \"#utility.yul\":18307:18311   */\n      dup2\n        /* \"#utility.yul\":18298:18304   */\n      dup8\n        /* \"#utility.yul\":18234:18312   */\n      tag_572\n      jump\t// in\n    tag_778:\n        /* \"#utility.yul\":18226:18312   */\n      swap1\n      pop\n        /* \"#utility.yul\":18359:18368   */\n      dup2\n        /* \"#utility.yul\":18353:18357   */\n      dup2\n        /* \"#utility.yul\":18349:18369   */\n      sub\n        /* \"#utility.yul\":18344:18346   */\n      0x60\n        /* \"#utility.yul\":18333:18342   */\n      dup4\n        /* \"#utility.yul\":18329:18347   */\n      add\n        /* \"#utility.yul\":18322:18370   */\n      mstore\n        /* \"#utility.yul\":18387:18465   */\n      tag_779\n        /* \"#utility.yul\":18460:18464   */\n      dup2\n        /* \"#utility.yul\":18451:18457   */\n      dup7\n        /* \"#utility.yul\":18387:18465   */\n      tag_572\n      jump\t// in\n    tag_779:\n        /* \"#utility.yul\":18379:18465   */\n      swap1\n      pop\n        /* \"#utility.yul\":18475:18548   */\n      tag_780\n        /* \"#utility.yul\":18543:18546   */\n      0x80\n        /* \"#utility.yul\":18532:18541   */\n      dup4\n        /* \"#utility.yul\":18528:18547   */\n      add\n        /* \"#utility.yul\":18519:18525   */\n      dup6\n        /* \"#utility.yul\":18475:18548   */\n      tag_551\n      jump\t// in\n    tag_780:\n        /* \"#utility.yul\":18558:18631   */\n      tag_781\n        /* \"#utility.yul\":18626:18629   */\n      0xa0\n        /* \"#utility.yul\":18615:18624   */\n      dup4\n        /* \"#utility.yul\":18611:18630   */\n      add\n        /* \"#utility.yul\":18602:18608   */\n      dup5\n        /* \"#utility.yul\":18558:18631   */\n      tag_551\n      jump\t// in\n    tag_781:\n        /* \"#utility.yul\":17681:18638   */\n      swap8\n      swap7\n      pop\n      pop\n      pop\n      pop\n      pop\n      pop\n      pop\n      jump\t// out\n        /* \"#utility.yul\":18644:19185   */\n    tag_342:\n        /* \"#utility.yul\":18815:18819   */\n      0x00\n        /* \"#utility.yul\":18853:18856   */\n      0x80\n        /* \"#utility.yul\":18842:18851   */\n      dup3\n        /* \"#utility.yul\":18838:18857   */\n      add\n        /* \"#utility.yul\":18830:18857   */\n      swap1\n      pop\n        /* \"#utility.yul\":18867:18938   */\n      tag_783\n        /* \"#utility.yul\":18935:18936   */\n      0x00\n        /* \"#utility.yul\":18924:18933   */\n      dup4\n        /* \"#utility.yul\":18920:18937   */\n      add\n        /* \"#utility.yul\":18911:18917   */\n      dup8\n        /* \"#utility.yul\":18867:18938   */\n      tag_554\n      jump\t// in\n    tag_783:\n        /* \"#utility.yul\":18948:19020   */\n      tag_784\n        /* \"#utility.yul\":19016:19018   */\n      0x20\n        /* \"#utility.yul\":19005:19014   */\n      dup4\n        /* \"#utility.yul\":19001:19019   */\n      add\n        /* \"#utility.yul\":18992:18998   */\n      dup7\n        /* \"#utility.yul\":18948:19020   */\n      tag_554\n      jump\t// in\n    tag_784:\n        /* \"#utility.yul\":19030:19102   */\n      tag_785\n        /* \"#utility.yul\":19098:19100   */\n      0x40\n        /* \"#utility.yul\":19087:19096   */\n      dup4\n        /* \"#utility.yul\":19083:19101   */\n      add\n        /* \"#utility.yul\":19074:19080   */\n      dup6\n        /* \"#utility.yul\":19030:19102   */\n      tag_551\n      jump\t// in\n    tag_785:\n        /* \"#utility.yul\":19112:19178   */\n      tag_786\n        /* \"#utility.yul\":19174:19176   */\n      0x60\n        /* \"#utility.yul\":19163:19172   */\n      dup4\n        /* \"#utility.yul\":19159:19177   */\n      add\n        /* \"#utility.yul\":19150:19156   */\n      dup5\n        /* \"#utility.yul\":19112:19178   */\n      tag_566\n      jump\t// in\n    tag_786:\n        /* \"#utility.yul\":18644:19185   */\n      swap6\n      swap5\n      pop\n      pop\n      pop\n      pop\n      pop\n      jump\t// out\n        /* \"#utility.yul\":19191:19371   */\n    tag_583:\n        /* \"#utility.yul\":19239:19316   */\n      0x4e487b7100000000000000000000000000000000000000000000000000000000\n        /* \"#utility.yul\":19236:19237   */\n      0x00\n        /* \"#utility.yul\":19229:19317   */\n      mstore\n        /* \"#utility.yul\":19336:19340   */\n      0x11\n        /* \"#utility.yul\":19333:19334   */\n      0x04\n        /* \"#utility.yul\":19326:19341   */\n      mstore\n        /* \"#utility.yul\":19360:19364   */\n      0x24\n        /* \"#utility.yul\":19357:19358   */\n      0x00\n        /* \"#utility.yul\":19350:19365   */\n      revert\n        /* \"#utility.yul\":19377:19610   */\n    tag_357:\n        /* \"#utility.yul\":19416:19419   */\n      0x00\n        /* \"#utility.yul\":19439:19463   */\n      tag_789\n        /* \"#utility.yul\":19457:19462   */\n      dup3\n        /* \"#utility.yul\":19439:19463   */\n      tag_548\n      jump\t// in\n    tag_789:\n        /* \"#utility.yul\":19430:19463   */\n      swap2\n      pop\n        /* \"#utility.yul\":19485:19551   */\n      0xffffffffffffffffffffffffffffffffffffffffffffffffffffffffffffffff\n        /* \"#utility.yul\":19478:19483   */\n      dup3\n        /* \"#utility.yul\":19475:19552   */\n      sub\n        /* \"#utility.yul\":19472:19575   */\n      tag_790\n      jumpi\n        /* \"#utility.yul\":19555:19573   */\n      tag_791\n      tag_583\n      jump\t// in\n    tag_791:\n        /* \"#utility.yul\":19472:19575   */\n    tag_790:\n        /* \"#utility.yul\":19602:19603   */\n      0x01\n        /* \"#utility.yul\":19595:19600   */\n      dup3\n        /* \"#utility.yul\":19591:19604   */\n      add\n        /* \"#utility.yul\":19584:19604   */\n      swap1\n      pop\n        /* \"#utility.yul\":19377:19610   */\n      swap2\n      swap1\n      pop\n      jump\t// out\n        /* \"#utility.yul\":19616:19796   */\n    tag_584:\n        /* \"#utility.yul\":19664:19741   */\n      0x4e487b7100000000000000000000000000000000000000000000000000000000\n        /* \"#utility.yul\":19661:19662   */\n      0x00\n        /* \"#utility.yul\":19654:19742   */\n      mstore\n        /* \"#utility.yul\":19761:19765   */\n      0x22\n        /* \"#utility.yul\":19758:19759   */\n      0x04\n        /* \"#utility.yul\":19751:19766   */\n      mstore\n        /* \"#utility.yul\":19785:19789   */\n      0x24\n        /* \"#utility.yul\":19782:19783   */\n      0x00\n        /* \"#utility.yul\":19775:19790   */\n      revert\n        /* \"#utility.yul\":19802:20122   */\n    tag_370:\n        /* \"#utility.yul\":19846:19852   */\n      0x00\n        /* \"#utility.yul\":19883:19884   */\n      0x02\n        /* \"#utility.yul\":19877:19881   */\n      dup3\n        /* \"#utility.yul\":19873:19885   */\n      div\n        /* \"#utility.yul\":19863:19885   */\n      swap1\n      pop\n        /* \"#utility.yul\":19930:19931   */\n      0x01\n        /* \"#utility.yul\":19924:19928   */\n      dup3\n        /* \"#utility.yul\":19920:19932   */\n      and\n        /* \"#utility.yul\":19951:19969   */\n      dup1\n        /* \"#utility.yul\":19941:20022   */\n      tag_794\n      jumpi\n        /* \"#utility.yul\":20007:20011   */\n      0x7f\n        /* \"#utility.yul\":19999:20005   */\n      dup3\n        /* \"#utility.yul\":19995:20012   */\n      and\n        /* \"#utility.yul\":19985:20012   */\n      swap2\n      pop\n        /* \"#utility.yul\":19941:20022   */\n    tag_794:\n        /* \"#utility.yul\":20069:20071   */\n      0x20\n        /* \"#utility.yul\":20061:20067   */\n      dup3\n        /* \"#utility.yul\":20058:20072   */\n      lt\n        /* \"#utility.yul\":20038:20056   */\n      dup2\n        /* \"#utility.yul\":20035:20073   */\n      sub\n        /* \"#utility.yul\":20032:20116   */\n      tag_795\n      jumpi\n        /* \"#utility.yul\":20088:20106   */\n      tag_796\n      tag_584\n      jump\t// in\n    tag_796:\n        /* \"#utility.yul\":20032:20116   */\n    tag_795:\n        /* \"#utility.yul\":19853:20122   */\n      pop\n        /* \"#utility.yul\":19802:20122   */\n      swap2\n      swap1\n      pop\n      jump\t// out\n        /* \"#utility.yul\":20128:20269   */\n    tag_585:\n        /* \"#utility.yul\":20177:20181   */\n      0x00\n        /* \"#utility.yul\":20200:20203   */\n      dup2\n        /* \"#utility.yul\":20192:20203   */\n      swap1\n      pop\n        /* \"#utility.yul\":20223:20226   */\n      dup2\n        /* \"#utility.yul\":20220:20221   */\n      0x00\n        /* \"#utility.yul\":20213:20227   */\n      mstore\n        /* \"#utility.yul\":20257:20261   */\n      0x20\n        /* \"#utility.yul\":20254:20255   */\n      0x00\n        /* \"#utility.yul\":20244:20262   */\n      keccak256\n        /* \"#utility.yul\":20236:20262   */\n      swap1\n      pop\n        /* \"#utility.yul\":20128:20269   */\n      swap2\n      swap1\n      pop\n      jump\t// out\n        /* \"#utility.yul\":20275:20368   */\n    tag_586:\n        /* \"#utility.yul\":20312:20318   */\n      0x00\n        /* \"#utility.yul\":20359:20361   */\n      0x20\n        /* \"#utility.yul\":20354:20356   */\n      0x1f\n        /* \"#utility.yul\":20347:20352   */\n      dup4\n        /* \"#utility.yul\":20343:20357   */\n      add\n        /* \"#utility.yul\":20339:20362   */\n      div\n        /* \"#utility.yul\":20329:20362   */\n      swap1\n      pop\n        /* \"#utility.yul\":20275:20368   */\n      swap2\n      swap1\n      pop\n      jump\t// out\n        /* \"#utility.yul\":20374:20481   */\n    tag_587:\n        /* \"#utility.yul\":20418:20426   */\n      0x00\n        /* \"#utility.yul\":20468:20473   */\n      dup3\n        /* \"#utility.yul\":20462:20466   */\n      dup3\n        /* \"#utility.yul\":20458:20474   */\n      shl\n        /* \"#utility.yul\":20437:20474   */\n      swap1\n      pop\n        /* \"#utility.yul\":20374:20481   */\n      swap3\n      swap2\n      pop\n      pop\n      jump\t// out\n        /* \"#utility.yul\":20487:20880   */\n    tag_588:\n        /* \"#utility.yul\":20556:20562   */\n      0x00\n        /* \"#utility.yul\":20606:20607   */\n      0x08\n        /* \"#utility.yul\":20594:20604   */\n      dup4\n        /* \"#utility.yul\":20590:20608   */\n      mul\n        /* \"#utility.yul\":20629:20726   */\n      tag_801\n        /* \"#utility.yul\":20659:20725   */\n      0xffffffffffffffffffffffffffffffffffffffffffffffffffffffffffffffff\n        /* \"#utility.yul\":20648:20657   */\n      dup3\n        /* \"#utility.yul\":20629:20726   */\n      tag_587\n      jump\t// in\n    tag_801:\n        /* \"#utility.yul\":20747:20786   */\n      tag_802\n        /* \"#utility.yul\":20777:20785   */\n      dup7\n        /* \"#utility.yul\":20766:20775   */\n      dup4\n        /* \"#utility.yul\":20747:20786   */\n      tag_587\n      jump\t// in\n    tag_802:\n        /* \"#utility.yul\":20735:20786   */\n      swap6\n      pop\n        /* \"#utility.yul\":20819:20823   */\n      dup1\n        /* \"#utility.yul\":20815:20824   */\n      not\n        /* \"#utility.yul\":20808:20813   */\n      dup5\n        /* \"#utility.yul\":20804:20825   */\n      and\n        /* \"#utility.yul\":20795:20825   */\n      swap4\n      pop\n        /* \"#utility.yul\":20868:20872   */\n      dup1\n        /* \"#utility.yul\":20858:20866   */\n      dup7\n        /* \"#utility.yul\":20854:20873   */\n      and\n        /* \"#utility.yul\":20847:20852   */\n      dup5\n        /* \"#utility.yul\":20844:20874   */\n      or\n        /* \"#utility.yul\":20834:20874   */\n      swap3\n      pop\n        /* \"#utility.yul\":20563:20880   */\n      pop\n      pop\n        /* \"#utility.yul\":20487:20880   */\n      swap4\n      swap3\n      pop\n      pop\n      pop\n      jump\t// out\n        /* \"#utility.yul\":20886:20946   */\n    tag_589:\n        /* \"#utility.yul\":20914:20917   */\n      0x00\n        /* \"#utility.yul\":20935:20940   */\n      dup2\n        /* \"#utility.yul\":20928:20940   */\n      swap1\n      pop\n        /* \"#utility.yul\":20886:20946   */\n      swap2\n      swap1\n      pop\n      jump\t// out\n        /* \"#utility.yul\":20952:21094   */\n    tag_590:\n        /* \"#utility.yul\":21002:21011   */\n      0x00\n        /* \"#utility.yul\":21035:21088   */\n      tag_805\n        /* \"#utility.yul\":21053:21087   */\n      tag_806\n        /* \"#utility.yul\":21062:21086   */\n      tag_807\n        /* \"#utility.yul\":21080:21085   */\n      dup5\n        /* \"#utility.yul\":21062:21086   */\n      tag_548\n      jump\t// in\n    tag_807:\n        /* \"#utility.yul\":21053:21087   */\n      tag_589\n      jump\t// in\n    tag_806:\n        /* \"#utility.yul\":21035:21088   */\n      tag_548\n      jump\t// in\n    tag_805:\n        /* \"#utility.yul\":21022:21088   */\n      swap1\n      pop\n        /* \"#utility.yul\":20952:21094   */\n      swap2\n      swap1\n      pop\n      jump\t// out\n        /* \"#utility.yul\":21100:21175   */\n    tag_591:\n        /* \"#utility.yul\":21143:21146   */\n      0x00\n        /* \"#utility.yul\":21164:21169   */\n      dup2\n        /* \"#utility.yul\":21157:21169   */\n      swap1\n      pop\n        /* \"#utility.yul\":21100:21175   */\n      swap2\n      swap1\n      pop\n      jump\t// out\n        /* \"#utility.yul\":21181:21450   */\n    tag_592:\n        /* \"#utility.yul\":21291:21330   */\n      tag_810\n        /* \"#utility.yul\":21322:21329   */\n      dup4\n        /* \"#utility.yul\":21291:21330   */\n      tag_590\n      jump\t// in\n    tag_810:\n        /* \"#utility.yul\":21352:21443   */\n      tag_811\n        /* \"#utility.yul\":21401:21442   */\n      tag_812\n        /* \"#utility.yul\":21425:21441   */\n      dup3\n        /* \"#utility.yul\":21401:21442   */\n      tag_591\n      jump\t// in\n    tag_812:\n        /* \"#utility.yul\":21393:21399   */\n      dup5\n        /* \"#utility.yul\":21386:21390   */\n      dup5\n        /* \"#utility.yul\":21380:21391   */\n      sload\n        /* \"#utility.yul\":21352:21443   */\n      tag_588\n      jump\t// in\n    tag_811:\n        /* \"#utility.yul\":21346:21350   */\n      dup3\n        /* \"#utility.yul\":21339:21444   */\n      sstore\n        /* \"#utility.yul\":21257:21450   */\n      pop\n        /* \"#utility.yul\":21181:21450   */\n      pop\n      pop\n      pop\n      jump\t// out\n        /* \"#utility.yul\":21456:21529   */\n    tag_593:\n        /* \"#utility.yul\":21501:21504   */\n      0x00\n        /* \"#utility.yul\":21456:21529   */\n      swap1\n      jump\t// out\n        /* \"#utility.yul\":21535:21724   */\n    tag_594:\n        /* \"#utility.yul\":21612:21644   */\n      tag_815\n      tag_593\n      jump\t// in\n    tag_815:\n        /* \"#utility.yul\":21653:21718   */\n      tag_816\n        /* \"#utility.yul\":21711:21717   */\n      dup2\n        /* \"#utility.yul\":21703:21709   */\n      dup5\n        /* \"#utility.yul\":21697:21701   */\n      dup5\n        /* \"#utility.yul\":21653:21718   */\n      tag_592\n      jump\t// in\n    tag_816:\n        /* \"#utility.yul\":21588:21724   */\n      pop\n        /* \"#utility.yul\":21535:21724   */\n      pop\n      pop\n      jump\t// out\n        /* \"#utility.yul\":21730:21916   */\n    tag_595:\n        /* \"#utility.yul\":21790:21910   */\n    tag_818:\n        /* \"#utility.yul\":21807:21810   */\n      dup2\n        /* \"#utility.yul\":21800:21805   */\n      dup2\n        /* \"#utility.yul\":21797:21811   */\n      lt\n        /* \"#utility.yul\":21790:21910   */\n      iszero\n      tag_820\n      jumpi\n        /* \"#utility.yul\":21861:21900   */\n      tag_821\n        /* \"#utility.yul\":21898:21899   */\n      0x00\n        /* \"#utility.yul\":21891:21896   */\n      dup3\n        /* \"#utility.yul\":21861:21900   */\n      tag_594\n      jump\t// in\n    tag_821:\n        /* \"#utility.yul\":21834:21835   */\n      0x01\n        /* \"#utility.yul\":21827:21832   */\n      dup2\n        /* \"#utility.yul\":21823:21836   */\n      add\n        /* \"#utility.yul\":21814:21836   */\n      swap1\n      pop\n        /* \"#utility.yul\":21790:21910   */\n      jump(tag_818)\n    tag_820:\n        /* \"#utility.yul\":21730:21916   */\n      pop\n      pop\n      jump\t// out\n        /* \"#utility.yul\":21922:22465   */\n    tag_596:\n        /* \"#utility.yul\":22023:22025   */\n      0x1f\n        /* \"#utility.yul\":22018:22021   */\n      dup3\n        /* \"#utility.yul\":22015:22026   */\n      gt\n        /* \"#utility.yul\":22012:22458   */\n      iszero\n      tag_823\n      jumpi\n        /* \"#utility.yul\":22057:22095   */\n      tag_824\n        /* \"#utility.yul\":22089:22094   */\n      dup2\n        /* \"#utility.yul\":22057:22095   */\n      tag_585\n      jump\t// in\n    tag_824:\n        /* \"#utility.yul\":22141:22170   */\n      tag_825\n        /* \"#utility.yul\":22159:22169   */\n      dup5\n        /* \"#utility.yul\":22141:22170   */\n      tag_586\n      jump\t// in\n    tag_825:\n        /* \"#utility.yul\":22131:22139   */\n      dup2\n        /* \"#utility.yul\":22127:22171   */\n      add\n        /* \"#utility.yul\":22324:22326   */\n      0x20\n        /* \"#utility.yul\":22312:22322   */\n      dup6\n        /* \"#utility.yul\":22309:22327   */\n      lt\n        /* \"#utility.yul\":22306:22355   */\n      iszero\n      tag_826\n      jumpi\n        /* \"#utility.yul\":22345:22353   */\n      dup2\n        /* \"#utility.yul\":22330:22353   */\n      swap1\n      pop\n        /* \"#utility.yul\":22306:22355   */\n    tag_826:\n        /* \"#utility.yul\":22368:22448   */\n      tag_827\n        /* \"#utility.yul\":22424:22446   */\n      tag_828\n        /* \"#utility.yul\":22442:22445   */\n      dup6\n        /* \"#utility.yul\":22424:22446   */\n      tag_586\n      jump\t// in\n    tag_828:\n        /* \"#utility.yul\":22414:22422   */\n      dup4\n        /* \"#utility.yul\":22410:22447   */\n      add\n        /* \"#utility.yul\":22397:22408   */\n      dup3\n        /* \"#utility.yul\":22368:22448   */\n      tag_595\n      jump\t// in\n    tag_827:\n        /* \"#utility.yul\":22027:22458   */\n      pop\n      pop\n        /* \"#utility.yul\":22012:22458   */\n    tag_823:\n        /* \"#utility.yul\":21922:22465   */\n      pop\n      pop\n      pop\n      jump\t// out\n        /* \"#utility.yul\":22471:22588   */\n    tag_597:\n        /* \"#utility.yul\":22525:22533   */\n      0x00\n        /* \"#utility.yul\":22575:22580   */\n      dup3\n        /* \"#utility.yul\":22569:22573   */\n      dup3\n        /* \"#utility.yul\":22565:22581   */\n      shr\n        /* \"#utility.yul\":22544:22581   */\n      swap1\n      pop\n        /* \"#utility.yul\":22471:22588   */\n      swap3\n      swap2\n      pop\n      pop\n      jump\t// out\n        /* \"#utility.yul\":22594:22763   */\n    tag_598:\n        /* \"#utility.yul\":22638:22644   */\n      0x00\n        /* \"#utility.yul\":22671:22722   */\n      tag_831\n        /* \"#utility.yul\":22719:22720   */\n      0x00\n        /* \"#utility.yul\":22715:22721   */\n      not\n        /* \"#utility.yul\":22707:22712   */\n      dup5\n        /* \"#utility.yul\":22704:22705   */\n      0x08\n        /* \"#utility.yul\":22700:22713   */\n      mul\n        /* \"#utility.yul\":22671:22722   */\n      tag_597\n      jump\t// in\n    tag_831:\n        /* \"#utility.yul\":22667:22723   */\n      not\n        /* \"#utility.yul\":22752:22756   */\n      dup1\n        /* \"#utility.yul\":22746:22750   */\n      dup4\n        /* \"#utility.yul\":22742:22757   */\n      and\n        /* \"#utility.yul\":22732:22757   */\n      swap2\n      pop\n        /* \"#utility.yul\":22645:22763   */\n      pop\n        /* \"#utility.yul\":22594:22763   */\n      swap3\n      swap2\n      pop\n      pop\n      jump\t// out\n        /* \"#utility.yul\":22768:23063   */\n    tag_599:\n        /* \"#utility.yul\":22844:22848   */\n      0x00\n        /* \"#utility.yul\":22990:23019   */\n      tag_833\n        /* \"#utility.yul\":23015:23018   */\n      dup4\n        /* \"#utility.yul\":23009:23013   */\n      dup4\n        /* \"#utility.yul\":22990:23019   */\n      tag_598\n      jump\t// in\n    tag_833:\n        /* \"#utility.yul\":22982:23019   */\n      swap2\n      pop\n        /* \"#utility.yul\":23052:23055   */\n      dup3\n        /* \"#utility.yul\":23049:23050   */\n      0x02\n        /* \"#utility.yul\":23045:23056   */\n      mul\n        /* \"#utility.yul\":23039:23043   */\n      dup3\n        /* \"#utility.yul\":23036:23057   */\n      or\n        /* \"#utility.yul\":23028:23057   */\n      swap1\n      pop\n        /* \"#utility.yul\":22768:23063   */\n      swap3\n      swap2\n      pop\n      pop\n      jump\t// out\n        /* \"#utility.yul\":23068:24463   */\n    tag_359:\n        /* \"#utility.yul\":23185:23222   */\n      tag_835\n        /* \"#utility.yul\":23218:23221   */\n      dup3\n        /* \"#utility.yul\":23185:23222   */\n      tag_569\n      jump\t// in\n    tag_835:\n        /* \"#utility.yul\":23287:23305   */\n      0xffffffffffffffff\n        /* \"#utility.yul\":23279:23285   */\n      dup2\n        /* \"#utility.yul\":23276:23306   */\n      gt\n        /* \"#utility.yul\":23273:23329   */\n      iszero\n      tag_836\n      jumpi\n        /* \"#utility.yul\":23309:23327   */\n      tag_837\n      tag_558\n      jump\t// in\n    tag_837:\n        /* \"#utility.yul\":23273:23329   */\n    tag_836:\n        /* \"#utility.yul\":23353:23391   */\n      tag_838\n        /* \"#utility.yul\":23385:23389   */\n      dup3\n        /* \"#utility.yul\":23379:23390   */\n      sload\n        /* \"#utility.yul\":23353:23391   */\n      tag_370\n      jump\t// in\n    tag_838:\n        /* \"#utility.yul\":23438:23505   */\n      tag_839\n        /* \"#utility.yul\":23498:23504   */\n      dup3\n        /* \"#utility.yul\":23490:23496   */\n      dup3\n        /* \"#utility.yul\":23484:23488   */\n      dup6\n        /* \"#utility.yul\":23438:23505   */\n      tag_596\n      jump\t// in\n    tag_839:\n        /* \"#utility.yul\":23532:23533   */\n      0x00\n        /* \"#utility.yul\":23556:23560   */\n      0x20\n        /* \"#utility.yul\":23543:23560   */\n      swap1\n      pop\n        /* \"#utility.yul\":23588:23590   */\n      0x1f\n        /* \"#utility.yul\":23580:23586   */\n      dup4\n        /* \"#utility.yul\":23577:23591   */\n      gt\n        /* \"#utility.yul\":23605:23606   */\n      0x01\n        /* \"#utility.yul\":23600:24218   */\n      dup2\n      eq\n      tag_841\n      jumpi\n        /* \"#utility.yul\":24262:24263   */\n      0x00\n        /* \"#utility.yul\":24279:24285   */\n      dup5\n        /* \"#utility.yul\":24276:24353   */\n      iszero\n      tag_842\n      jumpi\n        /* \"#utility.yul\":24328:24337   */\n      dup3\n        /* \"#utility.yul\":24323:24326   */\n      dup8\n        /* \"#utility.yul\":24319:24338   */\n      add\n        /* \"#utility.yul\":24313:24339   */\n      mload\n        /* \"#utility.yul\":24304:24339   */\n      swap1\n      pop\n        /* \"#utility.yul\":24276:24353   */\n    tag_842:\n        /* \"#utility.yul\":24379:24446   */\n      tag_843\n        /* \"#utility.yul\":24439:24445   */\n      dup6\n        /* \"#utility.yul\":24432:24437   */\n      dup3\n        /* \"#utility.yul\":24379:24446   */\n      tag_599\n      jump\t// in\n    tag_843:\n        /* \"#utility.yul\":24373:24377   */\n      dup7\n        /* \"#utility.yul\":24366:24447   */\n      sstore\n        /* \"#utility.yul\":24235:24457   */\n      pop\n        /* \"#utility.yul\":23570:24457   */\n      jump(tag_840)\n        /* \"#utility.yul\":23600:24218   */\n    tag_841:\n        /* \"#utility.yul\":23652:23656   */\n      0x1f\n        /* \"#utility.yul\":23648:23657   */\n      not\n        /* \"#utility.yul\":23640:23646   */\n      dup5\n        /* \"#utility.yul\":23636:23658   */\n      and\n        /* \"#utility.yul\":23686:23723   */\n      tag_844\n        /* \"#utility.yul\":23718:23722   */\n      dup7\n        /* \"#utility.yul\":23686:23723   */\n      tag_585\n      jump\t// in\n    tag_844:\n        /* \"#utility.yul\":23745:23746   */\n      0x00\n        /* \"#utility.yul\":23759:23967   */\n    tag_845:\n        /* \"#utility.yul\":23773:23780   */\n      dup3\n        /* \"#utility.yul\":23770:23771   */\n      dup2\n        /* \"#utility.yul\":23767:23781   */\n      lt\n        /* \"#utility.yul\":23759:23967   */\n      iszero\n      tag_847\n      jumpi\n        /* \"#utility.yul\":23852:23861   */\n      dup5\n        /* \"#utility.yul\":23847:23850   */\n      dup10\n        /* \"#utility.yul\":23843:23862   */\n      add\n        /* \"#utility.yul\":23837:23863   */\n      mload\n        /* \"#utility.yul\":23829:23835   */\n      dup3\n        /* \"#utility.yul\":23822:23864   */\n      sstore\n        /* \"#utility.yul\":23903:23904   */\n      0x01\n        /* \"#utility.yul\":23895:23901   */\n      dup3\n        /* \"#utility.yul\":23891:23905   */\n      add\n        /* \"#utility.yul\":23881:23905   */\n      swap2\n      pop\n        /* \"#utility.yul\":23950:23952   */\n      0x20\n        /* \"#utility.yul\":23939:23948   */\n      dup6\n        /* \"#utility.yul\":23935:23953   */\n      add\n        /* \"#utility.yul\":23922:23953   */\n      swap5\n      pop\n        /* \"#utility.yul\":23796:23800   */\n      0x20\n        /* \"#utility.yul\":23793:23794   */\n      dup2\n        /* \"#utility.yul\":23789:23801   */\n      add\n        /* \"#utility.yul\":23784:23801   */\n      swap1\n      pop\n        /* \"#utility.yul\":23759:23967   */\n      jump(tag_845)\n    tag_847:\n        /* \"#utility.yul\":23995:24001   */\n      dup7\n        /* \"#utility.yul\":23986:23993   */\n      dup4\n        /* \"#utility.yul\":23983:24002   */\n      lt\n        /* \"#utility.yul\":23980:24159   */\n      iszero\n      tag_848\n      jumpi\n        /* \"#utility.yul\":24053:24062   */\n      dup5\n        /* \"#utility.yul\":24048:24051   */\n      dup10\n        /* \"#utility.yul\":24044:24063   */\n      add\n        /* \"#utility.yul\":24038:24064   */\n      mload\n        /* \"#utility.yul\":24096:24144   */\n      tag_849\n        /* \"#utility.yul\":24138:24142   */\n      0x1f\n        /* \"#utility.yul\":24130:24136   */\n      dup10\n        /* \"#utility.yul\":24126:24143   */\n      and\n        /* \"#utility.yul\":24115:24124   */\n      dup3\n        /* \"#utility.yul\":24096:24144   */\n      tag_598\n      jump\t// in\n    tag_849:\n        /* \"#utility.yul\":24088:24094   */\n      dup4\n        /* \"#utility.yul\":24081:24145   */\n      sstore\n        /* \"#utility.yul\":24003:24159   */\n      pop\n        /* \"#utility.yul\":23980:24159   */\n    tag_848:\n        /* \"#utility.yul\":24205:24206   */\n      0x01\n        /* \"#utility.yul\":24201:24202   */\n      0x02\n        /* \"#utility.yul\":24193:24199   */\n      dup9\n        /* \"#utility.yul\":24189:24203   */\n      mul\n        /* \"#utility.yul\":24185:24207   */\n      add\n        /* \"#utility.yul\":24179:24183   */\n      dup9\n        /* \"#utility.yul\":24172:24208   */\n      sstore\n        /* \"#utility.yul\":23607:24218   */\n      pop\n      pop\n      pop\n        /* \"#utility.yul\":23570:24457   */\n    tag_840:\n      pop\n        /* \"#utility.yul\":23160:24463   */\n      pop\n      pop\n      pop\n        /* \"#utility.yul\":23068:24463   */\n      pop\n      pop\n      jump\t// out\n\n    auxdata: 0xa2646970667358221220463ea4bf3a955d79c2ce639c8a9a0b2d78a682dde951d97186af2a619964cc0464736f6c63430008120033\n}\n",
				"bytecode": {
					"linkReferences": {},
					"object": "60806040523480156200001157600080fd5b5033601160006101000a81548173ffffffffffffffffffffffffffffffffffffffff021916908373ffffffffffffffffffffffffffffffffffffffff160217905550620000d16040518060400160405280600b81526020017f496e73706563746f72203100000000000000000000000000000000000000000081525060196040518060400160405280600781526020017f4d616e6167657200000000000000000000000000000000000000000000000000815250620000d760201b60201c565b62000552565b60156000815480929190620000ec90620001ae565b919050555060405180608001604052806015548152602001848152602001838152602001828152506001600060155481526020019081526020016000206000820151816000015560208201518160010190816200014a91906200046b565b506040820151816002015560608201518160030190816200016c91906200046b565b50905050505050565b7f4e487b7100000000000000000000000000000000000000000000000000000000600052601160045260246000fd5b6000819050919050565b6000620001bb82620001a4565b91507fffffffffffffffffffffffffffffffffffffffffffffffffffffffffffffffff8203620001f057620001ef62000175565b5b600182019050919050565b600081519050919050565b7f4e487b7100000000000000000000000000000000000000000000000000000000600052604160045260246000fd5b7f4e487b7100000000000000000000000000000000000000000000000000000000600052602260045260246000fd5b600060028204905060018216806200027d57607f821691505b60208210810362000293576200029262000235565b5b50919050565b60008190508160005260206000209050919050565b60006020601f8301049050919050565b600082821b905092915050565b600060088302620002fd7fffffffffffffffffffffffffffffffffffffffffffffffffffffffffffffffff82620002be565b620003098683620002be565b95508019841693508086168417925050509392505050565b6000819050919050565b60006200034c620003466200034084620001a4565b62000321565b620001a4565b9050919050565b6000819050919050565b62000368836200032b565b62000380620003778262000353565b848454620002cb565b825550505050565b600090565b6200039762000388565b620003a48184846200035d565b505050565b5b81811015620003cc57620003c06000826200038d565b600181019050620003aa565b5050565b601f8211156200041b57620003e58162000299565b620003f084620002ae565b8101602085101562000400578190505b620004186200040f85620002ae565b830182620003a9565b50505b505050565b600082821c905092915050565b6000620004406000198460080262000420565b1980831691505092915050565b60006200045b83836200042d565b9150826002028217905092915050565b6200047682620001fb565b67ffffffffffffffff81111562000492576200049162000206565b5b6200049e825462000264565b620004ab828285620003d0565b600060209050601f831160018114620004e35760008415620004ce578287015190505b620004da85826200044d565b8655506200054a565b601f198416620004f38662000299565b60005b828110156200051d57848901518255600182019150602085019450602081019050620004f6565b868310156200053d578489015162000539601f8916826200042d565b8355505b6001600288020188555050505b505050505050565b61422880620005626000396000f3fe60806040526004361061036b5760003560e01c8063a47d4c02116101c6578063dec091ad116100f7578063e757223011610095578063f2aa82181161006f578063f2aa821814610e89578063f34d4c6314610ec6578063f58f85b514610f06578063f9c43bdf14610f435761036b565b8063e757223014610de4578063ee95feaf14610e21578063f0d3a9df14610e5e5761036b565b8063e1ecc794116100d1578063e1ecc79414610d13578063e261f1e514610d3c578063e43bf1f414610d7e578063e4b2611514610da75761036b565b8063dec091ad14610c54578063def936c314610c96578063e165af8714610cd65761036b565b8063c3c5a54711610164578063d1760e601161013e578063d1760e6014610b98578063d713065114610bc1578063dbd0e1b614610bfe578063dd9d122d14610c295761036b565b8063c3c5a54714610ae1578063cd392a8314610b1e578063cee26ed514610b5b5761036b565b8063b0a5dcd3116101a0578063b0a5dcd3146109fb578063b3c8fe8514610a3b578063b9209e3314610a7b578063bed403c714610ab85761036b565b8063a47d4c021461093f578063a6dc41fb1461097c578063ab517074146109b95761036b565b806363f17143116102a0578063835465011161023e5780638e0fef76116102185780638e0fef761461087357806396c331bb1461089c578063989376b4146108c55780639dc1bfa9146109025761036b565b806383546501146107d05780638965cde11461080d57806389d21354146108365761036b565b80636814800b1161027a5780636814800b146106ec57806368cfe6ee146107155780636cbf6cf8146107565780637910867b146107935761036b565b806363f17143146106565780636490c7a81461069357806367a09c23146106d05761036b565b80633410452a1161030d5780634daa9dae116102e75780634daa9dae146105885780635e7efe12146105c5578063601e7c34146105ee578063603daf9a1461062b5761036b565b80633410452a146104e357806344c9af281461050e57806348a46bd31461054b5761036b565b8063174f732411610349578063174f7324146104035780631869a38b1461042c5780631a07f76e146104695780632a55feec146104a65761036b565b806307d56ac01461037057806316d9d666146103ad578063170f3909146103d8575b600080fd5b34801561037c57600080fd5b5061039760048036038101906103929190613561565b610f6c565b6040516103a4919061359d565b60405180910390f35b3480156103b957600080fd5b506103c2610f8b565b6040516103cf919061359d565b60405180910390f35b3480156103e457600080fd5b506103ed610f95565b6040516103fa91906135f9565b60405180910390f35b34801561040f57600080fd5b5061042a6004803603810190610425919061375a565b610fbb565b005b34801561043857600080fd5b50610453600480360381019061044e9190613561565b61129c565b60405161046091906135f9565b60405180910390f35b34801561047557600080fd5b50610490600480360381019061048b9190613561565b6112d9565b60405161049d9190613844565b60405180910390f35b3480156104b257600080fd5b506104cd60048036038101906104c8919061388b565b6112f9565b6040516104da9190613844565b60405180910390f35b3480156104ef57600080fd5b506104f861135c565b604051610505919061359d565b60405180910390f35b34801561051a57600080fd5b5061053560048036038101906105309190613561565b611366565b6040516105429190613937565b60405180910390f35b34801561055757600080fd5b50610572600480360381019061056d919061388b565b61140d565b60405161057f9190613844565b60405180910390f35b34801561059457600080fd5b506105af60048036038101906105aa9190613561565b6114c4565b6040516105bc9190613844565b60405180910390f35b3480156105d157600080fd5b506105ec60048036038101906105e7919061375a565b6114e4565b005b3480156105fa57600080fd5b506106156004803603810190610610919061388b565b6117c6565b6040516106229190613844565b60405180910390f35b34801561063757600080fd5b506106406117e6565b60405161064d9190613a17565b60405180910390f35b34801561066257600080fd5b5061067d6004803603810190610678919061388b565b611874565b60405161068a9190613844565b60405180910390f35b34801561069f57600080fd5b506106ba60048036038101906106b59190613561565b611894565b6040516106c7919061359d565b60405180910390f35b6106ea60048036038101906106e59190613a77565b6118b3565b005b3480156106f857600080fd5b50610713600480360381019061070e919061388b565b61192a565b005b34801561072157600080fd5b5061073c6004803603810190610737919061388b565b6119ce565b60405161074d959493929190613ab7565b60405180910390f35b34801561076257600080fd5b5061077d60048036038101906107789190613561565b611cda565b60405161078a9190613937565b60405180910390f35b34801561079f57600080fd5b506107ba60048036038101906107b59190613561565b611d45565b6040516107c79190613844565b60405180910390f35b3480156107dc57600080fd5b506107f760048036038101906107f29190613561565b611d7c565b6040516108049190613844565b60405180910390f35b34801561081957600080fd5b50610834600480360381019061082f919061388b565b611d9c565b005b34801561084257600080fd5b5061085d60048036038101906108589190613561565b611e40565b60405161086a9190613844565b60405180910390f35b34801561087f57600080fd5b5061089a60048036038101906108959190613b1f565b611e60565b005b3480156108a857600080fd5b506108c360048036038101906108be919061375a565b611f90565b005b3480156108d157600080fd5b506108ec60048036038101906108e7919061388b565b612204565b6040516108f99190613844565b60405180910390f35b34801561090e57600080fd5b5061092960048036038101906109249190613561565b612224565b60405161093691906135f9565b60405180910390f35b34801561094b57600080fd5b506109666004803603810190610961919061388b565b612257565b6040516109739190613844565b60405180910390f35b34801561098857600080fd5b506109a3600480360381019061099e919061388b565b612277565b6040516109b09190613844565b60405180910390f35b3480156109c557600080fd5b506109e060048036038101906109db919061388b565b612297565b6040516109f296959493929190613bd2565b60405180910390f35b348015610a0757600080fd5b50610a226004803603810190610a1d9190613561565b61248b565b604051610a329493929190613c48565b60405180910390f35b348015610a4757600080fd5b50610a626004803603810190610a5d919061388b565b6124fb565b604051610a729493929190613c8d565b60405180910390f35b348015610a8757600080fd5b50610aa26004803603810190610a9d919061388b565b612733565b604051610aaf9190613844565b60405180910390f35b348015610ac457600080fd5b50610adf6004803603810190610ada9190613ce0565b6127ea565b005b348015610aed57600080fd5b50610b086004803603810190610b03919061388b565b612852565b604051610b159190613844565b60405180910390f35b348015610b2a57600080fd5b50610b456004803603810190610b409190613561565b6128b5565b604051610b529190613844565b60405180910390f35b348015610b6757600080fd5b50610b826004803603810190610b7d9190613561565b6128ec565b604051610b8f91906135f9565b60405180910390f35b348015610ba457600080fd5b50610bbf6004803603810190610bba919061388b565b61292b565b005b348015610bcd57600080fd5b50610be86004803603810190610be39190613561565b6129cf565b604051610bf59190613937565b60405180910390f35b348015610c0a57600080fd5b50610c13612a76565b604051610c209190613a17565b60405180910390f35b348015610c3557600080fd5b50610c3e612b04565b604051610c4b919061359d565b60405180910390f35b348015610c6057600080fd5b50610c7b6004803603810190610c76919061388b565b612b0e565b604051610c8d96959493929190613d20565b60405180910390f35b348015610ca257600080fd5b50610cbd6004803603810190610cb89190613561565b612d02565b604051610ccd9493929190613d96565b60405180910390f35b348015610ce257600080fd5b50610cfd6004803603810190610cf8919061388b565b612e42565b604051610d0a9190613844565b60405180910390f35b348015610d1f57600080fd5b50610d3a6004803603810190610d35919061388b565b612eac565b005b348015610d4857600080fd5b50610d636004803603810190610d5e9190613561565b612f50565b604051610d7596959493929190613de9565b60405180910390f35b348015610d8a57600080fd5b50610da56004803603810190610da0919061375a565b61309c565b005b348015610db357600080fd5b50610dce6004803603810190610dc9919061388b565b613310565b604051610ddb9190613844565b60405180910390f35b348015610df057600080fd5b50610e0b6004803603810190610e069190613561565b613330565b604051610e18919061359d565b60405180910390f35b348015610e2d57600080fd5b50610e486004803603810190610e43919061388b565b61334f565b604051610e559190613844565b60405180910390f35b348015610e6a57600080fd5b50610e736133b2565b604051610e80919061359d565b60405180910390f35b348015610e9557600080fd5b50610eb06004803603810190610eab9190613561565b6133bc565b604051610ebd91906135f9565b60405180910390f35b348015610ed257600080fd5b50610eed6004803603810190610ee89190613561565b6133fb565b604051610efd9493929190613e58565b60405180910390f35b348015610f1257600080fd5b50610f2d6004803603810190610f28919061388b565b6134b6565b604051610f3a9190613844565b60405180910390f35b348015610f4f57600080fd5b50610f6a6004803603810190610f659190613561565b6134d6565b005b6000806000838152602001908152602001600020600501549050919050565b6000601454905090565b601160009054906101000a900473ffffffffffffffffffffffffffffffffffffffff1681565b600560003373ffffffffffffffffffffffffffffffffffffffff1673ffffffffffffffffffffffffffffffffffffffff16815260200190815260200160002060009054906101000a900460ff1661101157600080fd5b6001600560003373ffffffffffffffffffffffffffffffffffffffff1673ffffffffffffffffffffffffffffffffffffffff16815260200190815260200160002060006101000a81548160ff0219169083151502179055506001600760003373ffffffffffffffffffffffffffffffffffffffff1673ffffffffffffffffffffffffffffffffffffffff16815260200190815260200160002060006101000a81548160ff021916908315150217905550601760008154809291906110d490613ecc565b91905055506040518060c001604052803373ffffffffffffffffffffffffffffffffffffffff16815260200186815260200185815260200184815260200183815260200182815250600360003373ffffffffffffffffffffffffffffffffffffffff1673ffffffffffffffffffffffffffffffffffffffff16815260200190815260200160002060008201518160000160006101000a81548173ffffffffffffffffffffffffffffffffffffffff021916908373ffffffffffffffffffffffffffffffffffffffff16021790555060208201518160010190816111b79190614120565b506040820151816002015560608201518160030190816111d79190614120565b506080820151816004015560a08201518160050190816111f79190614120565b509050506013339080600181540180825580915050600190039060005260206000200160009091909190916101000a81548173ffffffffffffffffffffffffffffffffffffffff021916908373ffffffffffffffffffffffffffffffffffffffff1602179055507f478f5152d8fc568db3f8de9fb402fd9d98a1a7541ecfe434e59cf574fbfc55243360405161128d91906135f9565b60405180910390a15050505050565b6000600d600083815260200190815260200160002060009054906101000a900473ffffffffffffffffffffffffffffffffffffffff169050919050565b60106020528060005260406000206000915054906101000a900460ff1681565b6000600760008373ffffffffffffffffffffffffffffffffffffffff1673ffffffffffffffffffffffffffffffffffffffff16815260200190815260200160002060009054906101000a900460ff16156113565760019050611357565b5b919050565b6000601854905090565b6060600080838152602001908152602001600020600301805461138890613f43565b80601f01602080910402602001604051908101604052809291908181526020018280546113b490613f43565b80156114015780601f106113d657610100808354040283529160200191611401565b820191906000526020600020905b8154815290600101906020018083116113e457829003601f168201915b50505050509050919050565b6000600960008373ffffffffffffffffffffffffffffffffffffffff1673ffffffffffffffffffffffffffffffffffffffff16815260200190815260200160002060009054906101000a900460ff16806114b05750600b60008373ffffffffffffffffffffffffffffffffffffffff1673ffffffffffffffffffffffffffffffffffffffff16815260200190815260200160002060009054906101000a900460ff165b156114be57600190506114bf565b5b919050565b600f6020528060005260406000206000915054906101000a900460ff1681565b600560003373ffffffffffffffffffffffffffffffffffffffff1673ffffffffffffffffffffffffffffffffffffffff16815260200190815260200160002060009054906101000a900460ff161561153b57600080fd5b6001600560003373ffffffffffffffffffffffffffffffffffffffff1673ffffffffffffffffffffffffffffffffffffffff16815260200190815260200160002060006101000a81548160ff0219169083151502179055506001600660003373ffffffffffffffffffffffffffffffffffffffff1673ffffffffffffffffffffffffffffffffffffffff16815260200190815260200160002060006101000a81548160ff021916908315150217905550601660008154809291906115fe90613ecc565b91905055506040518060c001604052803373ffffffffffffffffffffffffffffffffffffffff16815260200186815260200184815260200185815260200183815260200182815250600260003373ffffffffffffffffffffffffffffffffffffffff1673ffffffffffffffffffffffffffffffffffffffff16815260200190815260200160002060008201518160000160006101000a81548173ffffffffffffffffffffffffffffffffffffffff021916908373ffffffffffffffffffffffffffffffffffffffff16021790555060208201518160010190816116e19190614120565b5060408201518160020190816116f79190614120565b50606082015181600301556080820151816004015560a08201518160050190816117219190614120565b509050506012339080600181540180825580915050600190039060005260206000200160009091909190916101000a81548173ffffffffffffffffffffffffffffffffffffffff021916908373ffffffffffffffffffffffffffffffffffffffff1602179055507f478f5152d8fc568db3f8de9fb402fd9d98a1a7541ecfe434e59cf574fbfc5524336040516117b791906135f9565b60405180910390a15050505050565b60066020528060005260406000206000915054906101000a900460ff1681565b6060601380548060200260200160405190810160405280929190818152602001828054801561186a57602002820191906000526020600020905b8160009054906101000a900473ffffffffffffffffffffffffffffffffffffffff1673ffffffffffffffffffffffffffffffffffffffff1681526020019060010190808311611820575b5050505050905090565b60096020528060005260406000206000915054906101000a900460ff1681565b6000806000838152602001908152602001600020600101549050919050565b60016010600083815260200190815260200160002060006101000a81548160ff0219169083151502179055508173ffffffffffffffffffffffffffffffffffffffff166108fc349081150290604051600060405180830381858888f19350505050158015611925573d6000803e3d6000fd5b505050565b61193333612e42565b61193c57600080fd5b6001600a60008373ffffffffffffffffffffffffffffffffffffffff1673ffffffffffffffffffffffffffffffffffffffff16815260200190815260200160002060006101000a81548160ff0219169083151502179055507f6a6455914f452787eb3985452aceedc1000fb545e394eb3b370e3d08958e0a5b816040516119c391906135f9565b60405180910390a150565b606080600060606000600360008773ffffffffffffffffffffffffffffffffffffffff1673ffffffffffffffffffffffffffffffffffffffff168152602001908152602001600020600101600360008873ffffffffffffffffffffffffffffffffffffffff1673ffffffffffffffffffffffffffffffffffffffff168152602001908152602001600020600301600360008973ffffffffffffffffffffffffffffffffffffffff1673ffffffffffffffffffffffffffffffffffffffff16815260200190815260200160002060040154600360008a73ffffffffffffffffffffffffffffffffffffffff1673ffffffffffffffffffffffffffffffffffffffff168152602001908152602001600020600501600360008b73ffffffffffffffffffffffffffffffffffffffff1673ffffffffffffffffffffffffffffffffffffffff16815260200190815260200160002060020154848054611b2f90613f43565b80601f0160208091040260200160405190810160405280929190818152602001828054611b5b90613f43565b8015611ba85780601f10611b7d57610100808354040283529160200191611ba8565b820191906000526020600020905b815481529060010190602001808311611b8b57829003601f168201915b50505050509450838054611bbb90613f43565b80601f0160208091040260200160405190810160405280929190818152602001828054611be790613f43565b8015611c345780601f10611c0957610100808354040283529160200191611c34565b820191906000526020600020905b815481529060010190602001808311611c1757829003601f168201915b50505050509350818054611c4790613f43565b80601f0160208091040260200160405190810160405280929190818152602001828054611c7390613f43565b8015611cc05780601f10611c9557610100808354040283529160200191611cc0565b820191906000526020600020905b815481529060010190602001808311611ca357829003601f168201915b505050505091509450945094509450945091939590929450565b6060600c600083815260200190815260200160002060009054906101000a900460ff1615611d3f576040518060400160405280600481526020017f74727565000000000000000000000000000000000000000000000000000000008152509050611d40565b5b919050565b6000600e600083815260200190815260200160002060009054906101000a900460ff1615611d765760019050611d77565b5b919050565b600c6020528060005260406000206000915054906101000a900460ff1681565b611da533612e42565b611dae57600080fd5b6001600b60008373ffffffffffffffffffffffffffffffffffffffff1673ffffffffffffffffffffffffffffffffffffffff16815260200190815260200160002060006101000a81548160ff0219169083151502179055507faf77f8960cf590e245ec8b6d41c193a5dcacad8986ae4eb57ac9e5be7b6af03181604051611e3591906135f9565b60405180910390a150565b600e6020528060005260406000206000915054906101000a900460ff1681565b611e693361334f565b8015611e7a5750611e7933612733565b5b611e8357600080fd5b60146000815480929190611e9690613ecc565b91905055506040518060c00160405280601454815260200186815260200185815260200184815260200183815260200182815250600080601454815260200190815260200160002060008201518160000155602082015181600101556040820151816002019081611f079190614120565b506060820151816003019081611f1d9190614120565b506080820151816004015560a0820151816005015590505033600d6000601454815260200190815260200160002060006101000a81548173ffffffffffffffffffffffffffffffffffffffff021916908373ffffffffffffffffffffffffffffffffffffffff1602179055505050505050565b600560003373ffffffffffffffffffffffffffffffffffffffff1673ffffffffffffffffffffffffffffffffffffffff16815260200190815260200160002060009054906101000a900460ff16801561207657503373ffffffffffffffffffffffffffffffffffffffff16600260003373ffffffffffffffffffffffffffffffffffffffff1673ffffffffffffffffffffffffffffffffffffffff16815260200190815260200160002060000160009054906101000a900473ffffffffffffffffffffffffffffffffffffffff1673ffffffffffffffffffffffffffffffffffffffff16145b61207f57600080fd5b84600260003373ffffffffffffffffffffffffffffffffffffffff1673ffffffffffffffffffffffffffffffffffffffff16815260200190815260200160002060010190816120ce9190614120565b5083600260003373ffffffffffffffffffffffffffffffffffffffff1673ffffffffffffffffffffffffffffffffffffffff1681526020019081526020016000206003018190555082600260003373ffffffffffffffffffffffffffffffffffffffff1673ffffffffffffffffffffffffffffffffffffffff16815260200190815260200160002060020190816121659190614120565b5081600260003373ffffffffffffffffffffffffffffffffffffffff1673ffffffffffffffffffffffffffffffffffffffff1681526020019081526020016000206004018190555080600260003373ffffffffffffffffffffffffffffffffffffffff1673ffffffffffffffffffffffffffffffffffffffff16815260200190815260200160002060050190816121fc9190614120565b505050505050565b600b6020528060005260406000206000915054906101000a900460ff1681565b600d6020528060005260406000206000915054906101000a900473ffffffffffffffffffffffffffffffffffffffff1681565b60076020528060005260406000206000915054906101000a900460ff1681565b600a6020528060005260406000206000915054906101000a900460ff1681565b60036020528060005260406000206000915090508060000160009054906101000a900473ffffffffffffffffffffffffffffffffffffffff16908060010180546122e090613f43565b80601f016020809104026020016040519081016040528092919081815260200182805461230c90613f43565b80156123595780601f1061232e57610100808354040283529160200191612359565b820191906000526020600020905b81548152906001019060200180831161233c57829003601f168201915b50505050509080600201549080600301805461237490613f43565b80601f01602080910402602001604051908101604052809291908181526020018280546123a090613f43565b80156123ed5780601f106123c2576101008083540402835291602001916123ed565b820191906000526020600020905b8154815290600101906020018083116123d057829003601f168201915b50505050509080600401549080600501805461240890613f43565b80601f016020809104026020016040519081016040528092919081815260200182805461243490613f43565b80156124815780601f1061245657610100808354040283529160200191612481565b820191906000526020600020905b81548152906001019060200180831161246457829003601f168201915b5050505050905086565b60046020528060005260406000206000915090508060000154908060010160009054906101000a900473ffffffffffffffffffffffffffffffffffffffff16908060020160009054906101000a900473ffffffffffffffffffffffffffffffffffffffff16908060030154905084565b60606000806060600260008673ffffffffffffffffffffffffffffffffffffffff1673ffffffffffffffffffffffffffffffffffffffff168152602001908152602001600020600101600260008773ffffffffffffffffffffffffffffffffffffffff1673ffffffffffffffffffffffffffffffffffffffff16815260200190815260200160002060030154600260008873ffffffffffffffffffffffffffffffffffffffff1673ffffffffffffffffffffffffffffffffffffffff16815260200190815260200160002060040154600260008973ffffffffffffffffffffffffffffffffffffffff1673ffffffffffffffffffffffffffffffffffffffff16815260200190815260200160002060050183805461261890613f43565b80601f016020809104026020016040519081016040528092919081815260200182805461264490613f43565b80156126915780601f1061266657610100808354040283529160200191612691565b820191906000526020600020905b81548152906001019060200180831161267457829003601f168201915b505050505093508080546126a490613f43565b80601f01602080910402602001604051908101604052809291908181526020018280546126d090613f43565b801561271d5780601f106126f25761010080835404028352916020019161271d565b820191906000526020600020905b81548152906001019060200180831161270057829003601f168201915b5050505050905093509350935093509193509193565b6000600860008373ffffffffffffffffffffffffffffffffffffffff1673ffffffffffffffffffffffffffffffffffffffff16815260200190815260200160002060009054906101000a900460ff16806127d65750600a60008373ffffffffffffffffffffffffffffffffffffffff1673ffffffffffffffffffffffffffffffffffffffff16815260200190815260200160002060009054906101000a900460ff165b156127e457600190506127e5565b5b919050565b6127f333612e42565b6127fc57600080fd5b80600d600084815260200190815260200160002060006101000a81548173ffffffffffffffffffffffffffffffffffffffff021916908373ffffffffffffffffffffffffffffffffffffffff1602179055505050565b6000600560008373ffffffffffffffffffffffffffffffffffffffff1673ffffffffffffffffffffffffffffffffffffffff16815260200190815260200160002060009054906101000a900460ff16156128af57600190506128b0565b5b919050565b60006010600083815260200190815260200160002060009054906101000a900460ff16156128e657600190506128e7565b5b919050565b601281815481106128fc57600080fd5b906000526020600020016000915054906101000a900473ffffffffffffffffffffffffffffffffffffffff1681565b61293433612e42565b61293d57600080fd5b6001600860008373ffffffffffffffffffffffffffffffffffffffff1673ffffffffffffffffffffffffffffffffffffffff16815260200190815260200160002060006101000a81548160ff0219169083151502179055507f6a6455914f452787eb3985452aceedc1000fb545e394eb3b370e3d08958e0a5b816040516129c491906135f9565b60405180910390a150565b606060008083815260200190815260200160002060020180546129f190613f43565b80601f0160208091040260200160405190810160405280929190818152602001828054612a1d90613f43565b8015612a6a5780601f10612a3f57610100808354040283529160200191612a6a565b820191906000526020600020905b815481529060010190602001808311612a4d57829003601f168201915b50505050509050919050565b60606012805480602002602001604051908101604052809291908181526020018280548015612afa57602002820191906000526020600020905b8160009054906101000a900473ffffffffffffffffffffffffffffffffffffffff1673ffffffffffffffffffffffffffffffffffffffff1681526020019060010190808311612ab0575b5050505050905090565b6000601654905090565b60026020528060005260406000206000915090508060000160009054906101000a900473ffffffffffffffffffffffffffffffffffffffff1690806001018054612b5790613f43565b80601f0160208091040260200160405190810160405280929190818152602001828054612b8390613f43565b8015612bd05780601f10612ba557610100808354040283529160200191612bd0565b820191906000526020600020905b815481529060010190602001808311612bb357829003601f168201915b505050505090806002018054612be590613f43565b80601f0160208091040260200160405190810160405280929190818152602001828054612c1190613f43565b8015612c5e5780601f10612c3357610100808354040283529160200191612c5e565b820191906000526020600020905b815481529060010190602001808311612c4157829003601f168201915b505050505090806003015490806004015490806005018054612c7f90613f43565b80601f0160208091040260200160405190810160405280929190818152602001828054612cab90613f43565b8015612cf85780601f10612ccd57610100808354040283529160200191612cf8565b820191906000526020600020905b815481529060010190602001808311612cdb57829003601f168201915b5050505050905086565b6001602052806000526040600020600091509050806000015490806001018054612d2b90613f43565b80601f0160208091040260200160405190810160405280929190818152602001828054612d5790613f43565b8015612da45780601f10612d7957610100808354040283529160200191612da4565b820191906000526020600020905b815481529060010190602001808311612d8757829003601f168201915b505050505090806002015490806003018054612dbf90613f43565b80601f0160208091040260200160405190810160405280929190818152602001828054612deb90613f43565b8015612e385780601f10612e0d57610100808354040283529160200191612e38565b820191906000526020600020905b815481529060010190602001808311612e1b57829003601f168201915b5050505050905084565b60008173ffffffffffffffffffffffffffffffffffffffff16601160009054906101000a900473ffffffffffffffffffffffffffffffffffffffff1673ffffffffffffffffffffffffffffffffffffffff1603612ea25760019050612ea7565b600090505b919050565b612eb533612e42565b612ebe57600080fd5b6001600960008373ffffffffffffffffffffffffffffffffffffffff1673ffffffffffffffffffffffffffffffffffffffff16815260200190815260200160002060006101000a81548160ff0219169083151502179055507faf77f8960cf590e245ec8b6d41c193a5dcacad8986ae4eb57ac9e5be7b6af03181604051612f4591906135f9565b60405180910390a150565b6000602052806000526040600020600091509050806000015490806001015490806002018054612f7f90613f43565b80601f0160208091040260200160405190810160405280929190818152602001828054612fab90613f43565b8015612ff85780601f10612fcd57610100808354040283529160200191612ff8565b820191906000526020600020905b815481529060010190602001808311612fdb57829003601f168201915b50505050509080600301805461300d90613f43565b80601f016020809104026020016040519081016040528092919081815260200182805461303990613f43565b80156130865780601f1061305b57610100808354040283529160200191613086565b820191906000526020600020905b81548152906001019060200180831161306957829003601f168201915b5050505050908060040154908060050154905086565b600560003373ffffffffffffffffffffffffffffffffffffffff1673ffffffffffffffffffffffffffffffffffffffff16815260200190815260200160002060009054906101000a900460ff16801561318257503373ffffffffffffffffffffffffffffffffffffffff16600360003373ffffffffffffffffffffffffffffffffffffffff1673ffffffffffffffffffffffffffffffffffffffff16815260200190815260200160002060000160009054906101000a900473ffffffffffffffffffffffffffffffffffffffff1673ffffffffffffffffffffffffffffffffffffffff16145b61318b57600080fd5b84600360003373ffffffffffffffffffffffffffffffffffffffff1673ffffffffffffffffffffffffffffffffffffffff16815260200190815260200160002060010190816131da9190614120565b5083600360003373ffffffffffffffffffffffffffffffffffffffff1673ffffffffffffffffffffffffffffffffffffffff1681526020019081526020016000206002018190555082600360003373ffffffffffffffffffffffffffffffffffffffff1673ffffffffffffffffffffffffffffffffffffffff16815260200190815260200160002060030190816132719190614120565b5081600360003373ffffffffffffffffffffffffffffffffffffffff1673ffffffffffffffffffffffffffffffffffffffff1681526020019081526020016000206004018190555080600360003373ffffffffffffffffffffffffffffffffffffffff1673ffffffffffffffffffffffffffffffffffffffff16815260200190815260200160002060050190816133089190614120565b505050505050565b60086020528060005260406000206000915054906101000a900460ff1681565b6000806000838152602001908152602001600020600401549050919050565b6000600660008373ffffffffffffffffffffffffffffffffffffffff1673ffffffffffffffffffffffffffffffffffffffff16815260200190815260200160002060009054906101000a900460ff16156133ac57600190506133ad565b5b919050565b6000601754905090565b601381815481106133cc57600080fd5b906000526020600020016000915054906101000a900473ffffffffffffffffffffffffffffffffffffffff1681565b6000806000806004600086815260200190815260200160002060010160009054906101000a900473ffffffffffffffffffffffffffffffffffffffff166004600087815260200190815260200160002060020160009054906101000a900473ffffffffffffffffffffffffffffffffffffffff166004600088815260200190815260200160002060030154600e600089815260200190815260200160002060009054906101000a900460ff1693509350935093509193509193565b60056020528060005260406000206000915054906101000a900460ff1681565b6134df33612e42565b6134e857600080fd5b6001600c600083815260200190815260200160002060006101000a81548160ff02191690831515021790555050565b6000604051905090565b600080fd5b600080fd5b6000819050919050565b61353e8161352b565b811461354957600080fd5b50565b60008135905061355b81613535565b92915050565b60006020828403121561357757613576613521565b5b60006135858482850161354c565b91505092915050565b6135978161352b565b82525050565b60006020820190506135b2600083018461358e565b92915050565b600073ffffffffffffffffffffffffffffffffffffffff82169050919050565b60006135e3826135b8565b9050919050565b6135f3816135d8565b82525050565b600060208201905061360e60008301846135ea565b92915050565b600080fd5b600080fd5b6000601f19601f8301169050919050565b7f4e487b7100000000000000000000000000000000000000000000000000000000600052604160045260246000fd5b6136678261361e565b810181811067ffffffffffffffff821117156136865761368561362f565b5b80604052505050565b6000613699613517565b90506136a5828261365e565b919050565b600067ffffffffffffffff8211156136c5576136c461362f565b5b6136ce8261361e565b9050602081019050919050565b82818337600083830152505050565b60006136fd6136f8846136aa565b61368f565b90508281526020810184848401111561371957613718613619565b5b6137248482856136db565b509392505050565b600082601f83011261374157613740613614565b5b81356137518482602086016136ea565b91505092915050565b600080600080600060a0868803121561377657613775613521565b5b600086013567ffffffffffffffff81111561379457613793613526565b5b6137a08882890161372c565b95505060206137b18882890161354c565b945050604086013567ffffffffffffffff8111156137d2576137d1613526565b5b6137de8882890161372c565b93505060606137ef8882890161354c565b925050608086013567ffffffffffffffff8111156138105761380f613526565b5b61381c8882890161372c565b9150509295509295909350565b60008115159050919050565b61383e81613829565b82525050565b60006020820190506138596000830184613835565b92915050565b613868816135d8565b811461387357600080fd5b50565b6000813590506138858161385f565b92915050565b6000602082840312156138a1576138a0613521565b5b60006138af84828501613876565b91505092915050565b600081519050919050565b600082825260208201905092915050565b60005b838110156138f25780820151818401526020810190506138d7565b60008484015250505050565b6000613909826138b8565b61391381856138c3565b93506139238185602086016138d4565b61392c8161361e565b840191505092915050565b6000602082019050818103600083015261395181846138fe565b905092915050565b600081519050919050565b600082825260208201905092915050565b6000819050602082019050919050565b61398e816135d8565b82525050565b60006139a08383613985565b60208301905092915050565b6000602082019050919050565b60006139c482613959565b6139ce8185613964565b93506139d983613975565b8060005b83811015613a0a5781516139f18882613994565b97506139fc836139ac565b9250506001810190506139dd565b5085935050505092915050565b60006020820190508181036000830152613a3181846139b9565b905092915050565b6000613a44826135b8565b9050919050565b613a5481613a39565b8114613a5f57600080fd5b50565b600081359050613a7181613a4b565b92915050565b60008060408385031215613a8e57613a8d613521565b5b6000613a9c85828601613a62565b9250506020613aad8582860161354c565b9150509250929050565b600060a0820190508181036000830152613ad181886138fe565b90508181036020830152613ae581876138fe565b9050613af4604083018661358e565b8181036060830152613b0681856138fe565b9050613b15608083018461358e565b9695505050505050565b600080600080600060a08688031215613b3b57613b3a613521565b5b6000613b498882890161354c565b955050602086013567ffffffffffffffff811115613b6a57613b69613526565b5b613b768882890161372c565b945050604086013567ffffffffffffffff811115613b9757613b96613526565b5b613ba38882890161372c565b9350506060613bb48882890161354c565b9250506080613bc58882890161354c565b9150509295509295909350565b600060c082019050613be760008301896135ea565b8181036020830152613bf981886138fe565b9050613c08604083018761358e565b8181036060830152613c1a81866138fe565b9050613c29608083018561358e565b81810360a0830152613c3b81846138fe565b9050979650505050505050565b6000608082019050613c5d600083018761358e565b613c6a60208301866135ea565b613c7760408301856135ea565b613c84606083018461358e565b95945050505050565b60006080820190508181036000830152613ca781876138fe565b9050613cb6602083018661358e565b613cc3604083018561358e565b8181036060830152613cd581846138fe565b905095945050505050565b60008060408385031215613cf757613cf6613521565b5b6000613d058582860161354c565b9250506020613d1685828601613876565b9150509250929050565b600060c082019050613d3560008301896135ea565b8181036020830152613d4781886138fe565b90508181036040830152613d5b81876138fe565b9050613d6a606083018661358e565b613d77608083018561358e565b81810360a0830152613d8981846138fe565b9050979650505050505050565b6000608082019050613dab600083018761358e565b8181036020830152613dbd81866138fe565b9050613dcc604083018561358e565b8181036060830152613dde81846138fe565b905095945050505050565b600060c082019050613dfe600083018961358e565b613e0b602083018861358e565b8181036040830152613e1d81876138fe565b90508181036060830152613e3181866138fe565b9050613e40608083018561358e565b613e4d60a083018461358e565b979650505050505050565b6000608082019050613e6d60008301876135ea565b613e7a60208301866135ea565b613e87604083018561358e565b613e946060830184613835565b95945050505050565b7f4e487b7100000000000000000000000000000000000000000000000000000000600052601160045260246000fd5b6000613ed78261352b565b91507fffffffffffffffffffffffffffffffffffffffffffffffffffffffffffffffff8203613f0957613f08613e9d565b5b600182019050919050565b7f4e487b7100000000000000000000000000000000000000000000000000000000600052602260045260246000fd5b60006002820490506001821680613f5b57607f821691505b602082108103613f6e57613f6d613f14565b5b50919050565b60008190508160005260206000209050919050565b60006020601f8301049050919050565b600082821b905092915050565b600060088302613fd67fffffffffffffffffffffffffffffffffffffffffffffffffffffffffffffffff82613f99565b613fe08683613f99565b95508019841693508086168417925050509392505050565b6000819050919050565b600061401d6140186140138461352b565b613ff8565b61352b565b9050919050565b6000819050919050565b61403783614002565b61404b61404382614024565b848454613fa6565b825550505050565b600090565b614060614053565b61406b81848461402e565b505050565b5b8181101561408f57614084600082614058565b600181019050614071565b5050565b601f8211156140d4576140a581613f74565b6140ae84613f89565b810160208510156140bd578190505b6140d16140c985613f89565b830182614070565b50505b505050565b600082821c905092915050565b60006140f7600019846008026140d9565b1980831691505092915050565b600061411083836140e6565b9150826002028217905092915050565b614129826138b8565b67ffffffffffffffff8111156141425761414161362f565b5b61414c8254613f43565b614157828285614093565b600060209050601f83116001811461418a5760008415614178578287015190505b6141828582614104565b8655506141ea565b601f19841661419886613f74565b60005b828110156141c05784890151825560018201915060208501945060208101905061419b565b868310156141dd57848901516141d9601f8916826140e6565b8355505b6001600288020188555050505b50505050505056fea2646970667358221220463ea4bf3a955d79c2ce639c8a9a0b2d78a682dde951d97186af2a619964cc0464736f6c63430008120033",
					"opcodes": "PUSH1 0x80 PUSH1 0x40 MSTORE CALLVALUE DUP1 ISZERO PUSH3 0x11 JUMPI PUSH1 0x0 DUP1 REVERT JUMPDEST POP CALLER PUSH1 0x11 PUSH1 0x0 PUSH2 0x100 EXP DUP2 SLOAD DUP2 PUSH20 0xFFFFFFFFFFFFFFFFFFFFFFFFFFFFFFFFFFFFFFFF MUL NOT AND SWAP1 DUP4 PUSH20 0xFFFFFFFFFFFFFFFFFFFFFFFFFFFFFFFFFFFFFFFF AND MUL OR SWAP1 SSTORE POP PUSH3 0xD1 PUSH1 0x40 MLOAD DUP1 PUSH1 0x40 ADD PUSH1 0x40 MSTORE DUP1 PUSH1 0xB DUP2 MSTORE PUSH1 0x20 ADD PUSH32 0x496E73706563746F722031000000000000000000000000000000000000000000 DUP2 MSTORE POP PUSH1 0x19 PUSH1 0x40 MLOAD DUP1 PUSH1 0x40 ADD PUSH1 0x40 MSTORE DUP1 PUSH1 0x7 DUP2 MSTORE PUSH1 0x20 ADD PUSH32 0x4D616E6167657200000000000000000000000000000000000000000000000000 DUP2 MSTORE POP PUSH3 0xD7 PUSH1 0x20 SHL PUSH1 0x20 SHR JUMP JUMPDEST PUSH3 0x552 JUMP JUMPDEST PUSH1 0x15 PUSH1 0x0 DUP2 SLOAD DUP1 SWAP3 SWAP2 SWAP1 PUSH3 0xEC SWAP1 PUSH3 0x1AE JUMP JUMPDEST SWAP2 SWAP1 POP SSTORE POP PUSH1 0x40 MLOAD DUP1 PUSH1 0x80 ADD PUSH1 0x40 MSTORE DUP1 PUSH1 0x15 SLOAD DUP2 MSTORE PUSH1 0x20 ADD DUP5 DUP2 MSTORE PUSH1 0x20 ADD DUP4 DUP2 MSTORE PUSH1 0x20 ADD DUP3 DUP2 MSTORE POP PUSH1 0x1 PUSH1 0x0 PUSH1 0x15 SLOAD DUP2 MSTORE PUSH1 0x20 ADD SWAP1 DUP2 MSTORE PUSH1 0x20 ADD PUSH1 0x0 KECCAK256 PUSH1 0x0 DUP3 ADD MLOAD DUP2 PUSH1 0x0 ADD SSTORE PUSH1 0x20 DUP3 ADD MLOAD DUP2 PUSH1 0x1 ADD SWAP1 DUP2 PUSH3 0x14A SWAP2 SWAP1 PUSH3 0x46B JUMP JUMPDEST POP PUSH1 0x40 DUP3 ADD MLOAD DUP2 PUSH1 0x2 ADD SSTORE PUSH1 0x60 DUP3 ADD MLOAD DUP2 PUSH1 0x3 ADD SWAP1 DUP2 PUSH3 0x16C SWAP2 SWAP1 PUSH3 0x46B JUMP JUMPDEST POP SWAP1 POP POP POP POP POP JUMP JUMPDEST PUSH32 0x4E487B7100000000000000000000000000000000000000000000000000000000 PUSH1 0x0 MSTORE PUSH1 0x11 PUSH1 0x4 MSTORE PUSH1 0x24 PUSH1 0x0 REVERT JUMPDEST PUSH1 0x0 DUP2 SWAP1 POP SWAP2 SWAP1 POP JUMP JUMPDEST PUSH1 0x0 PUSH3 0x1BB DUP3 PUSH3 0x1A4 JUMP JUMPDEST SWAP2 POP PUSH32 0xFFFFFFFFFFFFFFFFFFFFFFFFFFFFFFFFFFFFFFFFFFFFFFFFFFFFFFFFFFFFFFFF DUP3 SUB PUSH3 0x1F0 JUMPI PUSH3 0x1EF PUSH3 0x175 JUMP JUMPDEST JUMPDEST PUSH1 0x1 DUP3 ADD SWAP1 POP SWAP2 SWAP1 POP JUMP JUMPDEST PUSH1 0x0 DUP2 MLOAD SWAP1 POP SWAP2 SWAP1 POP JUMP JUMPDEST PUSH32 0x4E487B7100000000000000000000000000000000000000000000000000000000 PUSH1 0x0 MSTORE PUSH1 0x41 PUSH1 0x4 MSTORE PUSH1 0x24 PUSH1 0x0 REVERT JUMPDEST PUSH32 0x4E487B7100000000000000000000000000000000000000000000000000000000 PUSH1 0x0 MSTORE PUSH1 0x22 PUSH1 0x4 MSTORE PUSH1 0x24 PUSH1 0x0 REVERT JUMPDEST PUSH1 0x0 PUSH1 0x2 DUP3 DIV SWAP1 POP PUSH1 0x1 DUP3 AND DUP1 PUSH3 0x27D JUMPI PUSH1 0x7F DUP3 AND SWAP2 POP JUMPDEST PUSH1 0x20 DUP3 LT DUP2 SUB PUSH3 0x293 JUMPI PUSH3 0x292 PUSH3 0x235 JUMP JUMPDEST JUMPDEST POP SWAP2 SWAP1 POP JUMP JUMPDEST PUSH1 0x0 DUP2 SWAP1 POP DUP2 PUSH1 0x0 MSTORE PUSH1 0x20 PUSH1 0x0 KECCAK256 SWAP1 POP SWAP2 SWAP1 POP JUMP JUMPDEST PUSH1 0x0 PUSH1 0x20 PUSH1 0x1F DUP4 ADD DIV SWAP1 POP SWAP2 SWAP1 POP JUMP JUMPDEST PUSH1 0x0 DUP3 DUP3 SHL SWAP1 POP SWAP3 SWAP2 POP POP JUMP JUMPDEST PUSH1 0x0 PUSH1 0x8 DUP4 MUL PUSH3 0x2FD PUSH32 0xFFFFFFFFFFFFFFFFFFFFFFFFFFFFFFFFFFFFFFFFFFFFFFFFFFFFFFFFFFFFFFFF DUP3 PUSH3 0x2BE JUMP JUMPDEST PUSH3 0x309 DUP7 DUP4 PUSH3 0x2BE JUMP JUMPDEST SWAP6 POP DUP1 NOT DUP5 AND SWAP4 POP DUP1 DUP7 AND DUP5 OR SWAP3 POP POP POP SWAP4 SWAP3 POP POP POP JUMP JUMPDEST PUSH1 0x0 DUP2 SWAP1 POP SWAP2 SWAP1 POP JUMP JUMPDEST PUSH1 0x0 PUSH3 0x34C PUSH3 0x346 PUSH3 0x340 DUP5 PUSH3 0x1A4 JUMP JUMPDEST PUSH3 0x321 JUMP JUMPDEST PUSH3 0x1A4 JUMP JUMPDEST SWAP1 POP SWAP2 SWAP1 POP JUMP JUMPDEST PUSH1 0x0 DUP2 SWAP1 POP SWAP2 SWAP1 POP JUMP JUMPDEST PUSH3 0x368 DUP4 PUSH3 0x32B JUMP JUMPDEST PUSH3 0x380 PUSH3 0x377 DUP3 PUSH3 0x353 JUMP JUMPDEST DUP5 DUP5 SLOAD PUSH3 0x2CB JUMP JUMPDEST DUP3 SSTORE POP POP POP POP JUMP JUMPDEST PUSH1 0x0 SWAP1 JUMP JUMPDEST PUSH3 0x397 PUSH3 0x388 JUMP JUMPDEST PUSH3 0x3A4 DUP2 DUP5 DUP5 PUSH3 0x35D JUMP JUMPDEST POP POP POP JUMP JUMPDEST JUMPDEST DUP2 DUP2 LT ISZERO PUSH3 0x3CC JUMPI PUSH3 0x3C0 PUSH1 0x0 DUP3 PUSH3 0x38D JUMP JUMPDEST PUSH1 0x1 DUP2 ADD SWAP1 POP PUSH3 0x3AA JUMP JUMPDEST POP POP JUMP JUMPDEST PUSH1 0x1F DUP3 GT ISZERO PUSH3 0x41B JUMPI PUSH3 0x3E5 DUP2 PUSH3 0x299 JUMP JUMPDEST PUSH3 0x3F0 DUP5 PUSH3 0x2AE JUMP JUMPDEST DUP2 ADD PUSH1 0x20 DUP6 LT ISZERO PUSH3 0x400 JUMPI DUP2 SWAP1 POP JUMPDEST PUSH3 0x418 PUSH3 0x40F DUP6 PUSH3 0x2AE JUMP JUMPDEST DUP4 ADD DUP3 PUSH3 0x3A9 JUMP JUMPDEST POP POP JUMPDEST POP POP POP JUMP JUMPDEST PUSH1 0x0 DUP3 DUP3 SHR SWAP1 POP SWAP3 SWAP2 POP POP JUMP JUMPDEST PUSH1 0x0 PUSH3 0x440 PUSH1 0x0 NOT DUP5 PUSH1 0x8 MUL PUSH3 0x420 JUMP JUMPDEST NOT DUP1 DUP4 AND SWAP2 POP POP SWAP3 SWAP2 POP POP JUMP JUMPDEST PUSH1 0x0 PUSH3 0x45B DUP4 DUP4 PUSH3 0x42D JUMP JUMPDEST SWAP2 POP DUP3 PUSH1 0x2 MUL DUP3 OR SWAP1 POP SWAP3 SWAP2 POP POP JUMP JUMPDEST PUSH3 0x476 DUP3 PUSH3 0x1FB JUMP JUMPDEST PUSH8 0xFFFFFFFFFFFFFFFF DUP2 GT ISZERO PUSH3 0x492 JUMPI PUSH3 0x491 PUSH3 0x206 JUMP JUMPDEST JUMPDEST PUSH3 0x49E DUP3 SLOAD PUSH3 0x264 JUMP JUMPDEST PUSH3 0x4AB DUP3 DUP3 DUP6 PUSH3 0x3D0 JUMP JUMPDEST PUSH1 0x0 PUSH1 0x20 SWAP1 POP PUSH1 0x1F DUP4 GT PUSH1 0x1 DUP2 EQ PUSH3 0x4E3 JUMPI PUSH1 0x0 DUP5 ISZERO PUSH3 0x4CE JUMPI DUP3 DUP8 ADD MLOAD SWAP1 POP JUMPDEST PUSH3 0x4DA DUP6 DUP3 PUSH3 0x44D JUMP JUMPDEST DUP7 SSTORE POP PUSH3 0x54A JUMP JUMPDEST PUSH1 0x1F NOT DUP5 AND PUSH3 0x4F3 DUP7 PUSH3 0x299 JUMP JUMPDEST PUSH1 0x0 JUMPDEST DUP3 DUP2 LT ISZERO PUSH3 0x51D JUMPI DUP5 DUP10 ADD MLOAD DUP3 SSTORE PUSH1 0x1 DUP3 ADD SWAP2 POP PUSH1 0x20 DUP6 ADD SWAP5 POP PUSH1 0x20 DUP2 ADD SWAP1 POP PUSH3 0x4F6 JUMP JUMPDEST DUP7 DUP4 LT ISZERO PUSH3 0x53D JUMPI DUP5 DUP10 ADD MLOAD PUSH3 0x539 PUSH1 0x1F DUP10 AND DUP3 PUSH3 0x42D JUMP JUMPDEST DUP4 SSTORE POP JUMPDEST PUSH1 0x1 PUSH1 0x2 DUP9 MUL ADD DUP9 SSTORE POP POP POP JUMPDEST POP POP POP POP POP POP JUMP JUMPDEST PUSH2 0x4228 DUP1 PUSH3 0x562 PUSH1 0x0 CODECOPY PUSH1 0x0 RETURN INVALID PUSH1 0x80 PUSH1 0x40 MSTORE PUSH1 0x4 CALLDATASIZE LT PUSH2 0x36B JUMPI PUSH1 0x0 CALLDATALOAD PUSH1 0xE0 SHR DUP1 PUSH4 0xA47D4C02 GT PUSH2 0x1C6 JUMPI DUP1 PUSH4 0xDEC091AD GT PUSH2 0xF7 JUMPI DUP1 PUSH4 0xE7572230 GT PUSH2 0x95 JUMPI DUP1 PUSH4 0xF2AA8218 GT PUSH2 0x6F JUMPI DUP1 PUSH4 0xF2AA8218 EQ PUSH2 0xE89 JUMPI DUP1 PUSH4 0xF34D4C63 EQ PUSH2 0xEC6 JUMPI DUP1 PUSH4 0xF58F85B5 EQ PUSH2 0xF06 JUMPI DUP1 PUSH4 0xF9C43BDF EQ PUSH2 0xF43 JUMPI PUSH2 0x36B JUMP JUMPDEST DUP1 PUSH4 0xE7572230 EQ PUSH2 0xDE4 JUMPI DUP1 PUSH4 0xEE95FEAF EQ PUSH2 0xE21 JUMPI DUP1 PUSH4 0xF0D3A9DF EQ PUSH2 0xE5E JUMPI PUSH2 0x36B JUMP JUMPDEST DUP1 PUSH4 0xE1ECC794 GT PUSH2 0xD1 JUMPI DUP1 PUSH4 0xE1ECC794 EQ PUSH2 0xD13 JUMPI DUP1 PUSH4 0xE261F1E5 EQ PUSH2 0xD3C JUMPI DUP1 PUSH4 0xE43BF1F4 EQ PUSH2 0xD7E JUMPI DUP1 PUSH4 0xE4B26115 EQ PUSH2 0xDA7 JUMPI PUSH2 0x36B JUMP JUMPDEST DUP1 PUSH4 0xDEC091AD EQ PUSH2 0xC54 JUMPI DUP1 PUSH4 0xDEF936C3 EQ PUSH2 0xC96 JUMPI DUP1 PUSH4 0xE165AF87 EQ PUSH2 0xCD6 JUMPI PUSH2 0x36B JUMP JUMPDEST DUP1 PUSH4 0xC3C5A547 GT PUSH2 0x164 JUMPI DUP1 PUSH4 0xD1760E60 GT PUSH2 0x13E JUMPI DUP1 PUSH4 0xD1760E60 EQ PUSH2 0xB98 JUMPI DUP1 PUSH4 0xD7130651 EQ PUSH2 0xBC1 JUMPI DUP1 PUSH4 0xDBD0E1B6 EQ PUSH2 0xBFE JUMPI DUP1 PUSH4 0xDD9D122D EQ PUSH2 0xC29 JUMPI PUSH2 0x36B JUMP JUMPDEST DUP1 PUSH4 0xC3C5A547 EQ PUSH2 0xAE1 JUMPI DUP1 PUSH4 0xCD392A83 EQ PUSH2 0xB1E JUMPI DUP1 PUSH4 0xCEE26ED5 EQ PUSH2 0xB5B JUMPI PUSH2 0x36B JUMP JUMPDEST DUP1 PUSH4 0xB0A5DCD3 GT PUSH2 0x1A0 JUMPI DUP1 PUSH4 0xB0A5DCD3 EQ PUSH2 0x9FB JUMPI DUP1 PUSH4 0xB3C8FE85 EQ PUSH2 0xA3B JUMPI DUP1 PUSH4 0xB9209E33 EQ PUSH2 0xA7B JUMPI DUP1 PUSH4 0xBED403C7 EQ PUSH2 0xAB8 JUMPI PUSH2 0x36B JUMP JUMPDEST DUP1 PUSH4 0xA47D4C02 EQ PUSH2 0x93F JUMPI DUP1 PUSH4 0xA6DC41FB EQ PUSH2 0x97C JUMPI DUP1 PUSH4 0xAB517074 EQ PUSH2 0x9B9 JUMPI PUSH2 0x36B JUMP JUMPDEST DUP1 PUSH4 0x63F17143 GT PUSH2 0x2A0 JUMPI DUP1 PUSH4 0x83546501 GT PUSH2 0x23E JUMPI DUP1 PUSH4 0x8E0FEF76 GT PUSH2 0x218 JUMPI DUP1 PUSH4 0x8E0FEF76 EQ PUSH2 0x873 JUMPI DUP1 PUSH4 0x96C331BB EQ PUSH2 0x89C JUMPI DUP1 PUSH4 0x989376B4 EQ PUSH2 0x8C5 JUMPI DUP1 PUSH4 0x9DC1BFA9 EQ PUSH2 0x902 JUMPI PUSH2 0x36B JUMP JUMPDEST DUP1 PUSH4 0x83546501 EQ PUSH2 0x7D0 JUMPI DUP1 PUSH4 0x8965CDE1 EQ PUSH2 0x80D JUMPI DUP1 PUSH4 0x89D21354 EQ PUSH2 0x836 JUMPI PUSH2 0x36B JUMP JUMPDEST DUP1 PUSH4 0x6814800B GT PUSH2 0x27A JUMPI DUP1 PUSH4 0x6814800B EQ PUSH2 0x6EC JUMPI DUP1 PUSH4 0x68CFE6EE EQ PUSH2 0x715 JUMPI DUP1 PUSH4 0x6CBF6CF8 EQ PUSH2 0x756 JUMPI DUP1 PUSH4 0x7910867B EQ PUSH2 0x793 JUMPI PUSH2 0x36B JUMP JUMPDEST DUP1 PUSH4 0x63F17143 EQ PUSH2 0x656 JUMPI DUP1 PUSH4 0x6490C7A8 EQ PUSH2 0x693 JUMPI DUP1 PUSH4 0x67A09C23 EQ PUSH2 0x6D0 JUMPI PUSH2 0x36B JUMP JUMPDEST DUP1 PUSH4 0x3410452A GT PUSH2 0x30D JUMPI DUP1 PUSH4 0x4DAA9DAE GT PUSH2 0x2E7 JUMPI DUP1 PUSH4 0x4DAA9DAE EQ PUSH2 0x588 JUMPI DUP1 PUSH4 0x5E7EFE12 EQ PUSH2 0x5C5 JUMPI DUP1 PUSH4 0x601E7C34 EQ PUSH2 0x5EE JUMPI DUP1 PUSH4 0x603DAF9A EQ PUSH2 0x62B JUMPI PUSH2 0x36B JUMP JUMPDEST DUP1 PUSH4 0x3410452A EQ PUSH2 0x4E3 JUMPI DUP1 PUSH4 0x44C9AF28 EQ PUSH2 0x50E JUMPI DUP1 PUSH4 0x48A46BD3 EQ PUSH2 0x54B JUMPI PUSH2 0x36B JUMP JUMPDEST DUP1 PUSH4 0x174F7324 GT PUSH2 0x349 JUMPI DUP1 PUSH4 0x174F7324 EQ PUSH2 0x403 JUMPI DUP1 PUSH4 0x1869A38B EQ PUSH2 0x42C JUMPI DUP1 PUSH4 0x1A07F76E EQ PUSH2 0x469 JUMPI DUP1 PUSH4 0x2A55FEEC EQ PUSH2 0x4A6 JUMPI PUSH2 0x36B JUMP JUMPDEST DUP1 PUSH4 0x7D56AC0 EQ PUSH2 0x370 JUMPI DUP1 PUSH4 0x16D9D666 EQ PUSH2 0x3AD JUMPI DUP1 PUSH4 0x170F3909 EQ PUSH2 0x3D8 JUMPI JUMPDEST PUSH1 0x0 DUP1 REVERT JUMPDEST CALLVALUE DUP1 ISZERO PUSH2 0x37C JUMPI PUSH1 0x0 DUP1 REVERT JUMPDEST POP PUSH2 0x397 PUSH1 0x4 DUP1 CALLDATASIZE SUB DUP2 ADD SWAP1 PUSH2 0x392 SWAP2 SWAP1 PUSH2 0x3561 JUMP JUMPDEST PUSH2 0xF6C JUMP JUMPDEST PUSH1 0x40 MLOAD PUSH2 0x3A4 SWAP2 SWAP1 PUSH2 0x359D JUMP JUMPDEST PUSH1 0x40 MLOAD DUP1 SWAP2 SUB SWAP1 RETURN JUMPDEST CALLVALUE DUP1 ISZERO PUSH2 0x3B9 JUMPI PUSH1 0x0 DUP1 REVERT JUMPDEST POP PUSH2 0x3C2 PUSH2 0xF8B JUMP JUMPDEST PUSH1 0x40 MLOAD PUSH2 0x3CF SWAP2 SWAP1 PUSH2 0x359D JUMP JUMPDEST PUSH1 0x40 MLOAD DUP1 SWAP2 SUB SWAP1 RETURN JUMPDEST CALLVALUE DUP1 ISZERO PUSH2 0x3E4 JUMPI PUSH1 0x0 DUP1 REVERT JUMPDEST POP PUSH2 0x3ED PUSH2 0xF95 JUMP JUMPDEST PUSH1 0x40 MLOAD PUSH2 0x3FA SWAP2 SWAP1 PUSH2 0x35F9 JUMP JUMPDEST PUSH1 0x40 MLOAD DUP1 SWAP2 SUB SWAP1 RETURN JUMPDEST CALLVALUE DUP1 ISZERO PUSH2 0x40F JUMPI PUSH1 0x0 DUP1 REVERT JUMPDEST POP PUSH2 0x42A PUSH1 0x4 DUP1 CALLDATASIZE SUB DUP2 ADD SWAP1 PUSH2 0x425 SWAP2 SWAP1 PUSH2 0x375A JUMP JUMPDEST PUSH2 0xFBB JUMP JUMPDEST STOP JUMPDEST CALLVALUE DUP1 ISZERO PUSH2 0x438 JUMPI PUSH1 0x0 DUP1 REVERT JUMPDEST POP PUSH2 0x453 PUSH1 0x4 DUP1 CALLDATASIZE SUB DUP2 ADD SWAP1 PUSH2 0x44E SWAP2 SWAP1 PUSH2 0x3561 JUMP JUMPDEST PUSH2 0x129C JUMP JUMPDEST PUSH1 0x40 MLOAD PUSH2 0x460 SWAP2 SWAP1 PUSH2 0x35F9 JUMP JUMPDEST PUSH1 0x40 MLOAD DUP1 SWAP2 SUB SWAP1 RETURN JUMPDEST CALLVALUE DUP1 ISZERO PUSH2 0x475 JUMPI PUSH1 0x0 DUP1 REVERT JUMPDEST POP PUSH2 0x490 PUSH1 0x4 DUP1 CALLDATASIZE SUB DUP2 ADD SWAP1 PUSH2 0x48B SWAP2 SWAP1 PUSH2 0x3561 JUMP JUMPDEST PUSH2 0x12D9 JUMP JUMPDEST PUSH1 0x40 MLOAD PUSH2 0x49D SWAP2 SWAP1 PUSH2 0x3844 JUMP JUMPDEST PUSH1 0x40 MLOAD DUP1 SWAP2 SUB SWAP1 RETURN JUMPDEST CALLVALUE DUP1 ISZERO PUSH2 0x4B2 JUMPI PUSH1 0x0 DUP1 REVERT JUMPDEST POP PUSH2 0x4CD PUSH1 0x4 DUP1 CALLDATASIZE SUB DUP2 ADD SWAP1 PUSH2 0x4C8 SWAP2 SWAP1 PUSH2 0x388B JUMP JUMPDEST PUSH2 0x12F9 JUMP JUMPDEST PUSH1 0x40 MLOAD PUSH2 0x4DA SWAP2 SWAP1 PUSH2 0x3844 JUMP JUMPDEST PUSH1 0x40 MLOAD DUP1 SWAP2 SUB SWAP1 RETURN JUMPDEST CALLVALUE DUP1 ISZERO PUSH2 0x4EF JUMPI PUSH1 0x0 DUP1 REVERT JUMPDEST POP PUSH2 0x4F8 PUSH2 0x135C JUMP JUMPDEST PUSH1 0x40 MLOAD PUSH2 0x505 SWAP2 SWAP1 PUSH2 0x359D JUMP JUMPDEST PUSH1 0x40 MLOAD DUP1 SWAP2 SUB SWAP1 RETURN JUMPDEST CALLVALUE DUP1 ISZERO PUSH2 0x51A JUMPI PUSH1 0x0 DUP1 REVERT JUMPDEST POP PUSH2 0x535 PUSH1 0x4 DUP1 CALLDATASIZE SUB DUP2 ADD SWAP1 PUSH2 0x530 SWAP2 SWAP1 PUSH2 0x3561 JUMP JUMPDEST PUSH2 0x1366 JUMP JUMPDEST PUSH1 0x40 MLOAD PUSH2 0x542 SWAP2 SWAP1 PUSH2 0x3937 JUMP JUMPDEST PUSH1 0x40 MLOAD DUP1 SWAP2 SUB SWAP1 RETURN JUMPDEST CALLVALUE DUP1 ISZERO PUSH2 0x557 JUMPI PUSH1 0x0 DUP1 REVERT JUMPDEST POP PUSH2 0x572 PUSH1 0x4 DUP1 CALLDATASIZE SUB DUP2 ADD SWAP1 PUSH2 0x56D SWAP2 SWAP1 PUSH2 0x388B JUMP JUMPDEST PUSH2 0x140D JUMP JUMPDEST PUSH1 0x40 MLOAD PUSH2 0x57F SWAP2 SWAP1 PUSH2 0x3844 JUMP JUMPDEST PUSH1 0x40 MLOAD DUP1 SWAP2 SUB SWAP1 RETURN JUMPDEST CALLVALUE DUP1 ISZERO PUSH2 0x594 JUMPI PUSH1 0x0 DUP1 REVERT JUMPDEST POP PUSH2 0x5AF PUSH1 0x4 DUP1 CALLDATASIZE SUB DUP2 ADD SWAP1 PUSH2 0x5AA SWAP2 SWAP1 PUSH2 0x3561 JUMP JUMPDEST PUSH2 0x14C4 JUMP JUMPDEST PUSH1 0x40 MLOAD PUSH2 0x5BC SWAP2 SWAP1 PUSH2 0x3844 JUMP JUMPDEST PUSH1 0x40 MLOAD DUP1 SWAP2 SUB SWAP1 RETURN JUMPDEST CALLVALUE DUP1 ISZERO PUSH2 0x5D1 JUMPI PUSH1 0x0 DUP1 REVERT JUMPDEST POP PUSH2 0x5EC PUSH1 0x4 DUP1 CALLDATASIZE SUB DUP2 ADD SWAP1 PUSH2 0x5E7 SWAP2 SWAP1 PUSH2 0x375A JUMP JUMPDEST PUSH2 0x14E4 JUMP JUMPDEST STOP JUMPDEST CALLVALUE DUP1 ISZERO PUSH2 0x5FA JUMPI PUSH1 0x0 DUP1 REVERT JUMPDEST POP PUSH2 0x615 PUSH1 0x4 DUP1 CALLDATASIZE SUB DUP2 ADD SWAP1 PUSH2 0x610 SWAP2 SWAP1 PUSH2 0x388B JUMP JUMPDEST PUSH2 0x17C6 JUMP JUMPDEST PUSH1 0x40 MLOAD PUSH2 0x622 SWAP2 SWAP1 PUSH2 0x3844 JUMP JUMPDEST PUSH1 0x40 MLOAD DUP1 SWAP2 SUB SWAP1 RETURN JUMPDEST CALLVALUE DUP1 ISZERO PUSH2 0x637 JUMPI PUSH1 0x0 DUP1 REVERT JUMPDEST POP PUSH2 0x640 PUSH2 0x17E6 JUMP JUMPDEST PUSH1 0x40 MLOAD PUSH2 0x64D SWAP2 SWAP1 PUSH2 0x3A17 JUMP JUMPDEST PUSH1 0x40 MLOAD DUP1 SWAP2 SUB SWAP1 RETURN JUMPDEST CALLVALUE DUP1 ISZERO PUSH2 0x662 JUMPI PUSH1 0x0 DUP1 REVERT JUMPDEST POP PUSH2 0x67D PUSH1 0x4 DUP1 CALLDATASIZE SUB DUP2 ADD SWAP1 PUSH2 0x678 SWAP2 SWAP1 PUSH2 0x388B JUMP JUMPDEST PUSH2 0x1874 JUMP JUMPDEST PUSH1 0x40 MLOAD PUSH2 0x68A SWAP2 SWAP1 PUSH2 0x3844 JUMP JUMPDEST PUSH1 0x40 MLOAD DUP1 SWAP2 SUB SWAP1 RETURN JUMPDEST CALLVALUE DUP1 ISZERO PUSH2 0x69F JUMPI PUSH1 0x0 DUP1 REVERT JUMPDEST POP PUSH2 0x6BA PUSH1 0x4 DUP1 CALLDATASIZE SUB DUP2 ADD SWAP1 PUSH2 0x6B5 SWAP2 SWAP1 PUSH2 0x3561 JUMP JUMPDEST PUSH2 0x1894 JUMP JUMPDEST PUSH1 0x40 MLOAD PUSH2 0x6C7 SWAP2 SWAP1 PUSH2 0x359D JUMP JUMPDEST PUSH1 0x40 MLOAD DUP1 SWAP2 SUB SWAP1 RETURN JUMPDEST PUSH2 0x6EA PUSH1 0x4 DUP1 CALLDATASIZE SUB DUP2 ADD SWAP1 PUSH2 0x6E5 SWAP2 SWAP1 PUSH2 0x3A77 JUMP JUMPDEST PUSH2 0x18B3 JUMP JUMPDEST STOP JUMPDEST CALLVALUE DUP1 ISZERO PUSH2 0x6F8 JUMPI PUSH1 0x0 DUP1 REVERT JUMPDEST POP PUSH2 0x713 PUSH1 0x4 DUP1 CALLDATASIZE SUB DUP2 ADD SWAP1 PUSH2 0x70E SWAP2 SWAP1 PUSH2 0x388B JUMP JUMPDEST PUSH2 0x192A JUMP JUMPDEST STOP JUMPDEST CALLVALUE DUP1 ISZERO PUSH2 0x721 JUMPI PUSH1 0x0 DUP1 REVERT JUMPDEST POP PUSH2 0x73C PUSH1 0x4 DUP1 CALLDATASIZE SUB DUP2 ADD SWAP1 PUSH2 0x737 SWAP2 SWAP1 PUSH2 0x388B JUMP JUMPDEST PUSH2 0x19CE JUMP JUMPDEST PUSH1 0x40 MLOAD PUSH2 0x74D SWAP6 SWAP5 SWAP4 SWAP3 SWAP2 SWAP1 PUSH2 0x3AB7 JUMP JUMPDEST PUSH1 0x40 MLOAD DUP1 SWAP2 SUB SWAP1 RETURN JUMPDEST CALLVALUE DUP1 ISZERO PUSH2 0x762 JUMPI PUSH1 0x0 DUP1 REVERT JUMPDEST POP PUSH2 0x77D PUSH1 0x4 DUP1 CALLDATASIZE SUB DUP2 ADD SWAP1 PUSH2 0x778 SWAP2 SWAP1 PUSH2 0x3561 JUMP JUMPDEST PUSH2 0x1CDA JUMP JUMPDEST PUSH1 0x40 MLOAD PUSH2 0x78A SWAP2 SWAP1 PUSH2 0x3937 JUMP JUMPDEST PUSH1 0x40 MLOAD DUP1 SWAP2 SUB SWAP1 RETURN JUMPDEST CALLVALUE DUP1 ISZERO PUSH2 0x79F JUMPI PUSH1 0x0 DUP1 REVERT JUMPDEST POP PUSH2 0x7BA PUSH1 0x4 DUP1 CALLDATASIZE SUB DUP2 ADD SWAP1 PUSH2 0x7B5 SWAP2 SWAP1 PUSH2 0x3561 JUMP JUMPDEST PUSH2 0x1D45 JUMP JUMPDEST PUSH1 0x40 MLOAD PUSH2 0x7C7 SWAP2 SWAP1 PUSH2 0x3844 JUMP JUMPDEST PUSH1 0x40 MLOAD DUP1 SWAP2 SUB SWAP1 RETURN JUMPDEST CALLVALUE DUP1 ISZERO PUSH2 0x7DC JUMPI PUSH1 0x0 DUP1 REVERT JUMPDEST POP PUSH2 0x7F7 PUSH1 0x4 DUP1 CALLDATASIZE SUB DUP2 ADD SWAP1 PUSH2 0x7F2 SWAP2 SWAP1 PUSH2 0x3561 JUMP JUMPDEST PUSH2 0x1D7C JUMP JUMPDEST PUSH1 0x40 MLOAD PUSH2 0x804 SWAP2 SWAP1 PUSH2 0x3844 JUMP JUMPDEST PUSH1 0x40 MLOAD DUP1 SWAP2 SUB SWAP1 RETURN JUMPDEST CALLVALUE DUP1 ISZERO PUSH2 0x819 JUMPI PUSH1 0x0 DUP1 REVERT JUMPDEST POP PUSH2 0x834 PUSH1 0x4 DUP1 CALLDATASIZE SUB DUP2 ADD SWAP1 PUSH2 0x82F SWAP2 SWAP1 PUSH2 0x388B JUMP JUMPDEST PUSH2 0x1D9C JUMP JUMPDEST STOP JUMPDEST CALLVALUE DUP1 ISZERO PUSH2 0x842 JUMPI PUSH1 0x0 DUP1 REVERT JUMPDEST POP PUSH2 0x85D PUSH1 0x4 DUP1 CALLDATASIZE SUB DUP2 ADD SWAP1 PUSH2 0x858 SWAP2 SWAP1 PUSH2 0x3561 JUMP JUMPDEST PUSH2 0x1E40 JUMP JUMPDEST PUSH1 0x40 MLOAD PUSH2 0x86A SWAP2 SWAP1 PUSH2 0x3844 JUMP JUMPDEST PUSH1 0x40 MLOAD DUP1 SWAP2 SUB SWAP1 RETURN JUMPDEST CALLVALUE DUP1 ISZERO PUSH2 0x87F JUMPI PUSH1 0x0 DUP1 REVERT JUMPDEST POP PUSH2 0x89A PUSH1 0x4 DUP1 CALLDATASIZE SUB DUP2 ADD SWAP1 PUSH2 0x895 SWAP2 SWAP1 PUSH2 0x3B1F JUMP JUMPDEST PUSH2 0x1E60 JUMP JUMPDEST STOP JUMPDEST CALLVALUE DUP1 ISZERO PUSH2 0x8A8 JUMPI PUSH1 0x0 DUP1 REVERT JUMPDEST POP PUSH2 0x8C3 PUSH1 0x4 DUP1 CALLDATASIZE SUB DUP2 ADD SWAP1 PUSH2 0x8BE SWAP2 SWAP1 PUSH2 0x375A JUMP JUMPDEST PUSH2 0x1F90 JUMP JUMPDEST STOP JUMPDEST CALLVALUE DUP1 ISZERO PUSH2 0x8D1 JUMPI PUSH1 0x0 DUP1 REVERT JUMPDEST POP PUSH2 0x8EC PUSH1 0x4 DUP1 CALLDATASIZE SUB DUP2 ADD SWAP1 PUSH2 0x8E7 SWAP2 SWAP1 PUSH2 0x388B JUMP JUMPDEST PUSH2 0x2204 JUMP JUMPDEST PUSH1 0x40 MLOAD PUSH2 0x8F9 SWAP2 SWAP1 PUSH2 0x3844 JUMP JUMPDEST PUSH1 0x40 MLOAD DUP1 SWAP2 SUB SWAP1 RETURN JUMPDEST CALLVALUE DUP1 ISZERO PUSH2 0x90E JUMPI PUSH1 0x0 DUP1 REVERT JUMPDEST POP PUSH2 0x929 PUSH1 0x4 DUP1 CALLDATASIZE SUB DUP2 ADD SWAP1 PUSH2 0x924 SWAP2 SWAP1 PUSH2 0x3561 JUMP JUMPDEST PUSH2 0x2224 JUMP JUMPDEST PUSH1 0x40 MLOAD PUSH2 0x936 SWAP2 SWAP1 PUSH2 0x35F9 JUMP JUMPDEST PUSH1 0x40 MLOAD DUP1 SWAP2 SUB SWAP1 RETURN JUMPDEST CALLVALUE DUP1 ISZERO PUSH2 0x94B JUMPI PUSH1 0x0 DUP1 REVERT JUMPDEST POP PUSH2 0x966 PUSH1 0x4 DUP1 CALLDATASIZE SUB DUP2 ADD SWAP1 PUSH2 0x961 SWAP2 SWAP1 PUSH2 0x388B JUMP JUMPDEST PUSH2 0x2257 JUMP JUMPDEST PUSH1 0x40 MLOAD PUSH2 0x973 SWAP2 SWAP1 PUSH2 0x3844 JUMP JUMPDEST PUSH1 0x40 MLOAD DUP1 SWAP2 SUB SWAP1 RETURN JUMPDEST CALLVALUE DUP1 ISZERO PUSH2 0x988 JUMPI PUSH1 0x0 DUP1 REVERT JUMPDEST POP PUSH2 0x9A3 PUSH1 0x4 DUP1 CALLDATASIZE SUB DUP2 ADD SWAP1 PUSH2 0x99E SWAP2 SWAP1 PUSH2 0x388B JUMP JUMPDEST PUSH2 0x2277 JUMP JUMPDEST PUSH1 0x40 MLOAD PUSH2 0x9B0 SWAP2 SWAP1 PUSH2 0x3844 JUMP JUMPDEST PUSH1 0x40 MLOAD DUP1 SWAP2 SUB SWAP1 RETURN JUMPDEST CALLVALUE DUP1 ISZERO PUSH2 0x9C5 JUMPI PUSH1 0x0 DUP1 REVERT JUMPDEST POP PUSH2 0x9E0 PUSH1 0x4 DUP1 CALLDATASIZE SUB DUP2 ADD SWAP1 PUSH2 0x9DB SWAP2 SWAP1 PUSH2 0x388B JUMP JUMPDEST PUSH2 0x2297 JUMP JUMPDEST PUSH1 0x40 MLOAD PUSH2 0x9F2 SWAP7 SWAP6 SWAP5 SWAP4 SWAP3 SWAP2 SWAP1 PUSH2 0x3BD2 JUMP JUMPDEST PUSH1 0x40 MLOAD DUP1 SWAP2 SUB SWAP1 RETURN JUMPDEST CALLVALUE DUP1 ISZERO PUSH2 0xA07 JUMPI PUSH1 0x0 DUP1 REVERT JUMPDEST POP PUSH2 0xA22 PUSH1 0x4 DUP1 CALLDATASIZE SUB DUP2 ADD SWAP1 PUSH2 0xA1D SWAP2 SWAP1 PUSH2 0x3561 JUMP JUMPDEST PUSH2 0x248B JUMP JUMPDEST PUSH1 0x40 MLOAD PUSH2 0xA32 SWAP5 SWAP4 SWAP3 SWAP2 SWAP1 PUSH2 0x3C48 JUMP JUMPDEST PUSH1 0x40 MLOAD DUP1 SWAP2 SUB SWAP1 RETURN JUMPDEST CALLVALUE DUP1 ISZERO PUSH2 0xA47 JUMPI PUSH1 0x0 DUP1 REVERT JUMPDEST POP PUSH2 0xA62 PUSH1 0x4 DUP1 CALLDATASIZE SUB DUP2 ADD SWAP1 PUSH2 0xA5D SWAP2 SWAP1 PUSH2 0x388B JUMP JUMPDEST PUSH2 0x24FB JUMP JUMPDEST PUSH1 0x40 MLOAD PUSH2 0xA72 SWAP5 SWAP4 SWAP3 SWAP2 SWAP1 PUSH2 0x3C8D JUMP JUMPDEST PUSH1 0x40 MLOAD DUP1 SWAP2 SUB SWAP1 RETURN JUMPDEST CALLVALUE DUP1 ISZERO PUSH2 0xA87 JUMPI PUSH1 0x0 DUP1 REVERT JUMPDEST POP PUSH2 0xAA2 PUSH1 0x4 DUP1 CALLDATASIZE SUB DUP2 ADD SWAP1 PUSH2 0xA9D SWAP2 SWAP1 PUSH2 0x388B JUMP JUMPDEST PUSH2 0x2733 JUMP JUMPDEST PUSH1 0x40 MLOAD PUSH2 0xAAF SWAP2 SWAP1 PUSH2 0x3844 JUMP JUMPDEST PUSH1 0x40 MLOAD DUP1 SWAP2 SUB SWAP1 RETURN JUMPDEST CALLVALUE DUP1 ISZERO PUSH2 0xAC4 JUMPI PUSH1 0x0 DUP1 REVERT JUMPDEST POP PUSH2 0xADF PUSH1 0x4 DUP1 CALLDATASIZE SUB DUP2 ADD SWAP1 PUSH2 0xADA SWAP2 SWAP1 PUSH2 0x3CE0 JUMP JUMPDEST PUSH2 0x27EA JUMP JUMPDEST STOP JUMPDEST CALLVALUE DUP1 ISZERO PUSH2 0xAED JUMPI PUSH1 0x0 DUP1 REVERT JUMPDEST POP PUSH2 0xB08 PUSH1 0x4 DUP1 CALLDATASIZE SUB DUP2 ADD SWAP1 PUSH2 0xB03 SWAP2 SWAP1 PUSH2 0x388B JUMP JUMPDEST PUSH2 0x2852 JUMP JUMPDEST PUSH1 0x40 MLOAD PUSH2 0xB15 SWAP2 SWAP1 PUSH2 0x3844 JUMP JUMPDEST PUSH1 0x40 MLOAD DUP1 SWAP2 SUB SWAP1 RETURN JUMPDEST CALLVALUE DUP1 ISZERO PUSH2 0xB2A JUMPI PUSH1 0x0 DUP1 REVERT JUMPDEST POP PUSH2 0xB45 PUSH1 0x4 DUP1 CALLDATASIZE SUB DUP2 ADD SWAP1 PUSH2 0xB40 SWAP2 SWAP1 PUSH2 0x3561 JUMP JUMPDEST PUSH2 0x28B5 JUMP JUMPDEST PUSH1 0x40 MLOAD PUSH2 0xB52 SWAP2 SWAP1 PUSH2 0x3844 JUMP JUMPDEST PUSH1 0x40 MLOAD DUP1 SWAP2 SUB SWAP1 RETURN JUMPDEST CALLVALUE DUP1 ISZERO PUSH2 0xB67 JUMPI PUSH1 0x0 DUP1 REVERT JUMPDEST POP PUSH2 0xB82 PUSH1 0x4 DUP1 CALLDATASIZE SUB DUP2 ADD SWAP1 PUSH2 0xB7D SWAP2 SWAP1 PUSH2 0x3561 JUMP JUMPDEST PUSH2 0x28EC JUMP JUMPDEST PUSH1 0x40 MLOAD PUSH2 0xB8F SWAP2 SWAP1 PUSH2 0x35F9 JUMP JUMPDEST PUSH1 0x40 MLOAD DUP1 SWAP2 SUB SWAP1 RETURN JUMPDEST CALLVALUE DUP1 ISZERO PUSH2 0xBA4 JUMPI PUSH1 0x0 DUP1 REVERT JUMPDEST POP PUSH2 0xBBF PUSH1 0x4 DUP1 CALLDATASIZE SUB DUP2 ADD SWAP1 PUSH2 0xBBA SWAP2 SWAP1 PUSH2 0x388B JUMP JUMPDEST PUSH2 0x292B JUMP JUMPDEST STOP JUMPDEST CALLVALUE DUP1 ISZERO PUSH2 0xBCD JUMPI PUSH1 0x0 DUP1 REVERT JUMPDEST POP PUSH2 0xBE8 PUSH1 0x4 DUP1 CALLDATASIZE SUB DUP2 ADD SWAP1 PUSH2 0xBE3 SWAP2 SWAP1 PUSH2 0x3561 JUMP JUMPDEST PUSH2 0x29CF JUMP JUMPDEST PUSH1 0x40 MLOAD PUSH2 0xBF5 SWAP2 SWAP1 PUSH2 0x3937 JUMP JUMPDEST PUSH1 0x40 MLOAD DUP1 SWAP2 SUB SWAP1 RETURN JUMPDEST CALLVALUE DUP1 ISZERO PUSH2 0xC0A JUMPI PUSH1 0x0 DUP1 REVERT JUMPDEST POP PUSH2 0xC13 PUSH2 0x2A76 JUMP JUMPDEST PUSH1 0x40 MLOAD PUSH2 0xC20 SWAP2 SWAP1 PUSH2 0x3A17 JUMP JUMPDEST PUSH1 0x40 MLOAD DUP1 SWAP2 SUB SWAP1 RETURN JUMPDEST CALLVALUE DUP1 ISZERO PUSH2 0xC35 JUMPI PUSH1 0x0 DUP1 REVERT JUMPDEST POP PUSH2 0xC3E PUSH2 0x2B04 JUMP JUMPDEST PUSH1 0x40 MLOAD PUSH2 0xC4B SWAP2 SWAP1 PUSH2 0x359D JUMP JUMPDEST PUSH1 0x40 MLOAD DUP1 SWAP2 SUB SWAP1 RETURN JUMPDEST CALLVALUE DUP1 ISZERO PUSH2 0xC60 JUMPI PUSH1 0x0 DUP1 REVERT JUMPDEST POP PUSH2 0xC7B PUSH1 0x4 DUP1 CALLDATASIZE SUB DUP2 ADD SWAP1 PUSH2 0xC76 SWAP2 SWAP1 PUSH2 0x388B JUMP JUMPDEST PUSH2 0x2B0E JUMP JUMPDEST PUSH1 0x40 MLOAD PUSH2 0xC8D SWAP7 SWAP6 SWAP5 SWAP4 SWAP3 SWAP2 SWAP1 PUSH2 0x3D20 JUMP JUMPDEST PUSH1 0x40 MLOAD DUP1 SWAP2 SUB SWAP1 RETURN JUMPDEST CALLVALUE DUP1 ISZERO PUSH2 0xCA2 JUMPI PUSH1 0x0 DUP1 REVERT JUMPDEST POP PUSH2 0xCBD PUSH1 0x4 DUP1 CALLDATASIZE SUB DUP2 ADD SWAP1 PUSH2 0xCB8 SWAP2 SWAP1 PUSH2 0x3561 JUMP JUMPDEST PUSH2 0x2D02 JUMP JUMPDEST PUSH1 0x40 MLOAD PUSH2 0xCCD SWAP5 SWAP4 SWAP3 SWAP2 SWAP1 PUSH2 0x3D96 JUMP JUMPDEST PUSH1 0x40 MLOAD DUP1 SWAP2 SUB SWAP1 RETURN JUMPDEST CALLVALUE DUP1 ISZERO PUSH2 0xCE2 JUMPI PUSH1 0x0 DUP1 REVERT JUMPDEST POP PUSH2 0xCFD PUSH1 0x4 DUP1 CALLDATASIZE SUB DUP2 ADD SWAP1 PUSH2 0xCF8 SWAP2 SWAP1 PUSH2 0x388B JUMP JUMPDEST PUSH2 0x2E42 JUMP JUMPDEST PUSH1 0x40 MLOAD PUSH2 0xD0A SWAP2 SWAP1 PUSH2 0x3844 JUMP JUMPDEST PUSH1 0x40 MLOAD DUP1 SWAP2 SUB SWAP1 RETURN JUMPDEST CALLVALUE DUP1 ISZERO PUSH2 0xD1F JUMPI PUSH1 0x0 DUP1 REVERT JUMPDEST POP PUSH2 0xD3A PUSH1 0x4 DUP1 CALLDATASIZE SUB DUP2 ADD SWAP1 PUSH2 0xD35 SWAP2 SWAP1 PUSH2 0x388B JUMP JUMPDEST PUSH2 0x2EAC JUMP JUMPDEST STOP JUMPDEST CALLVALUE DUP1 ISZERO PUSH2 0xD48 JUMPI PUSH1 0x0 DUP1 REVERT JUMPDEST POP PUSH2 0xD63 PUSH1 0x4 DUP1 CALLDATASIZE SUB DUP2 ADD SWAP1 PUSH2 0xD5E SWAP2 SWAP1 PUSH2 0x3561 JUMP JUMPDEST PUSH2 0x2F50 JUMP JUMPDEST PUSH1 0x40 MLOAD PUSH2 0xD75 SWAP7 SWAP6 SWAP5 SWAP4 SWAP3 SWAP2 SWAP1 PUSH2 0x3DE9 JUMP JUMPDEST PUSH1 0x40 MLOAD DUP1 SWAP2 SUB SWAP1 RETURN JUMPDEST CALLVALUE DUP1 ISZERO PUSH2 0xD8A JUMPI PUSH1 0x0 DUP1 REVERT JUMPDEST POP PUSH2 0xDA5 PUSH1 0x4 DUP1 CALLDATASIZE SUB DUP2 ADD SWAP1 PUSH2 0xDA0 SWAP2 SWAP1 PUSH2 0x375A JUMP JUMPDEST PUSH2 0x309C JUMP JUMPDEST STOP JUMPDEST CALLVALUE DUP1 ISZERO PUSH2 0xDB3 JUMPI PUSH1 0x0 DUP1 REVERT JUMPDEST POP PUSH2 0xDCE PUSH1 0x4 DUP1 CALLDATASIZE SUB DUP2 ADD SWAP1 PUSH2 0xDC9 SWAP2 SWAP1 PUSH2 0x388B JUMP JUMPDEST PUSH2 0x3310 JUMP JUMPDEST PUSH1 0x40 MLOAD PUSH2 0xDDB SWAP2 SWAP1 PUSH2 0x3844 JUMP JUMPDEST PUSH1 0x40 MLOAD DUP1 SWAP2 SUB SWAP1 RETURN JUMPDEST CALLVALUE DUP1 ISZERO PUSH2 0xDF0 JUMPI PUSH1 0x0 DUP1 REVERT JUMPDEST POP PUSH2 0xE0B PUSH1 0x4 DUP1 CALLDATASIZE SUB DUP2 ADD SWAP1 PUSH2 0xE06 SWAP2 SWAP1 PUSH2 0x3561 JUMP JUMPDEST PUSH2 0x3330 JUMP JUMPDEST PUSH1 0x40 MLOAD PUSH2 0xE18 SWAP2 SWAP1 PUSH2 0x359D JUMP JUMPDEST PUSH1 0x40 MLOAD DUP1 SWAP2 SUB SWAP1 RETURN JUMPDEST CALLVALUE DUP1 ISZERO PUSH2 0xE2D JUMPI PUSH1 0x0 DUP1 REVERT JUMPDEST POP PUSH2 0xE48 PUSH1 0x4 DUP1 CALLDATASIZE SUB DUP2 ADD SWAP1 PUSH2 0xE43 SWAP2 SWAP1 PUSH2 0x388B JUMP JUMPDEST PUSH2 0x334F JUMP JUMPDEST PUSH1 0x40 MLOAD PUSH2 0xE55 SWAP2 SWAP1 PUSH2 0x3844 JUMP JUMPDEST PUSH1 0x40 MLOAD DUP1 SWAP2 SUB SWAP1 RETURN JUMPDEST CALLVALUE DUP1 ISZERO PUSH2 0xE6A JUMPI PUSH1 0x0 DUP1 REVERT JUMPDEST POP PUSH2 0xE73 PUSH2 0x33B2 JUMP JUMPDEST PUSH1 0x40 MLOAD PUSH2 0xE80 SWAP2 SWAP1 PUSH2 0x359D JUMP JUMPDEST PUSH1 0x40 MLOAD DUP1 SWAP2 SUB SWAP1 RETURN JUMPDEST CALLVALUE DUP1 ISZERO PUSH2 0xE95 JUMPI PUSH1 0x0 DUP1 REVERT JUMPDEST POP PUSH2 0xEB0 PUSH1 0x4 DUP1 CALLDATASIZE SUB DUP2 ADD SWAP1 PUSH2 0xEAB SWAP2 SWAP1 PUSH2 0x3561 JUMP JUMPDEST PUSH2 0x33BC JUMP JUMPDEST PUSH1 0x40 MLOAD PUSH2 0xEBD SWAP2 SWAP1 PUSH2 0x35F9 JUMP JUMPDEST PUSH1 0x40 MLOAD DUP1 SWAP2 SUB SWAP1 RETURN JUMPDEST CALLVALUE DUP1 ISZERO PUSH2 0xED2 JUMPI PUSH1 0x0 DUP1 REVERT JUMPDEST POP PUSH2 0xEED PUSH1 0x4 DUP1 CALLDATASIZE SUB DUP2 ADD SWAP1 PUSH2 0xEE8 SWAP2 SWAP1 PUSH2 0x3561 JUMP JUMPDEST PUSH2 0x33FB JUMP JUMPDEST PUSH1 0x40 MLOAD PUSH2 0xEFD SWAP5 SWAP4 SWAP3 SWAP2 SWAP1 PUSH2 0x3E58 JUMP JUMPDEST PUSH1 0x40 MLOAD DUP1 SWAP2 SUB SWAP1 RETURN JUMPDEST CALLVALUE DUP1 ISZERO PUSH2 0xF12 JUMPI PUSH1 0x0 DUP1 REVERT JUMPDEST POP PUSH2 0xF2D PUSH1 0x4 DUP1 CALLDATASIZE SUB DUP2 ADD SWAP1 PUSH2 0xF28 SWAP2 SWAP1 PUSH2 0x388B JUMP JUMPDEST PUSH2 0x34B6 JUMP JUMPDEST PUSH1 0x40 MLOAD PUSH2 0xF3A SWAP2 SWAP1 PUSH2 0x3844 JUMP JUMPDEST PUSH1 0x40 MLOAD DUP1 SWAP2 SUB SWAP1 RETURN JUMPDEST CALLVALUE DUP1 ISZERO PUSH2 0xF4F JUMPI PUSH1 0x0 DUP1 REVERT JUMPDEST POP PUSH2 0xF6A PUSH1 0x4 DUP1 CALLDATASIZE SUB DUP2 ADD SWAP1 PUSH2 0xF65 SWAP2 SWAP1 PUSH2 0x3561 JUMP JUMPDEST PUSH2 0x34D6 JUMP JUMPDEST STOP JUMPDEST PUSH1 0x0 DUP1 PUSH1 0x0 DUP4 DUP2 MSTORE PUSH1 0x20 ADD SWAP1 DUP2 MSTORE PUSH1 0x20 ADD PUSH1 0x0 KECCAK256 PUSH1 0x5 ADD SLOAD SWAP1 POP SWAP2 SWAP1 POP JUMP JUMPDEST PUSH1 0x0 PUSH1 0x14 SLOAD SWAP1 POP SWAP1 JUMP JUMPDEST PUSH1 0x11 PUSH1 0x0 SWAP1 SLOAD SWAP1 PUSH2 0x100 EXP SWAP1 DIV PUSH20 0xFFFFFFFFFFFFFFFFFFFFFFFFFFFFFFFFFFFFFFFF AND DUP2 JUMP JUMPDEST PUSH1 0x5 PUSH1 0x0 CALLER PUSH20 0xFFFFFFFFFFFFFFFFFFFFFFFFFFFFFFFFFFFFFFFF AND PUSH20 0xFFFFFFFFFFFFFFFFFFFFFFFFFFFFFFFFFFFFFFFF AND DUP2 MSTORE PUSH1 0x20 ADD SWAP1 DUP2 MSTORE PUSH1 0x20 ADD PUSH1 0x0 KECCAK256 PUSH1 0x0 SWAP1 SLOAD SWAP1 PUSH2 0x100 EXP SWAP1 DIV PUSH1 0xFF AND PUSH2 0x1011 JUMPI PUSH1 0x0 DUP1 REVERT JUMPDEST PUSH1 0x1 PUSH1 0x5 PUSH1 0x0 CALLER PUSH20 0xFFFFFFFFFFFFFFFFFFFFFFFFFFFFFFFFFFFFFFFF AND PUSH20 0xFFFFFFFFFFFFFFFFFFFFFFFFFFFFFFFFFFFFFFFF AND DUP2 MSTORE PUSH1 0x20 ADD SWAP1 DUP2 MSTORE PUSH1 0x20 ADD PUSH1 0x0 KECCAK256 PUSH1 0x0 PUSH2 0x100 EXP DUP2 SLOAD DUP2 PUSH1 0xFF MUL NOT AND SWAP1 DUP4 ISZERO ISZERO MUL OR SWAP1 SSTORE POP PUSH1 0x1 PUSH1 0x7 PUSH1 0x0 CALLER PUSH20 0xFFFFFFFFFFFFFFFFFFFFFFFFFFFFFFFFFFFFFFFF AND PUSH20 0xFFFFFFFFFFFFFFFFFFFFFFFFFFFFFFFFFFFFFFFF AND DUP2 MSTORE PUSH1 0x20 ADD SWAP1 DUP2 MSTORE PUSH1 0x20 ADD PUSH1 0x0 KECCAK256 PUSH1 0x0 PUSH2 0x100 EXP DUP2 SLOAD DUP2 PUSH1 0xFF MUL NOT AND SWAP1 DUP4 ISZERO ISZERO MUL OR SWAP1 SSTORE POP PUSH1 0x17 PUSH1 0x0 DUP2 SLOAD DUP1 SWAP3 SWAP2 SWAP1 PUSH2 0x10D4 SWAP1 PUSH2 0x3ECC JUMP JUMPDEST SWAP2 SWAP1 POP SSTORE POP PUSH1 0x40 MLOAD DUP1 PUSH1 0xC0 ADD PUSH1 0x40 MSTORE DUP1 CALLER PUSH20 0xFFFFFFFFFFFFFFFFFFFFFFFFFFFFFFFFFFFFFFFF AND DUP2 MSTORE PUSH1 0x20 ADD DUP7 DUP2 MSTORE PUSH1 0x20 ADD DUP6 DUP2 MSTORE PUSH1 0x20 ADD DUP5 DUP2 MSTORE PUSH1 0x20 ADD DUP4 DUP2 MSTORE PUSH1 0x20 ADD DUP3 DUP2 MSTORE POP PUSH1 0x3 PUSH1 0x0 CALLER PUSH20 0xFFFFFFFFFFFFFFFFFFFFFFFFFFFFFFFFFFFFFFFF AND PUSH20 0xFFFFFFFFFFFFFFFFFFFFFFFFFFFFFFFFFFFFFFFF AND DUP2 MSTORE PUSH1 0x20 ADD SWAP1 DUP2 MSTORE PUSH1 0x20 ADD PUSH1 0x0 KECCAK256 PUSH1 0x0 DUP3 ADD MLOAD DUP2 PUSH1 0x0 ADD PUSH1 0x0 PUSH2 0x100 EXP DUP2 SLOAD DUP2 PUSH20 0xFFFFFFFFFFFFFFFFFFFFFFFFFFFFFFFFFFFFFFFF MUL NOT AND SWAP1 DUP4 PUSH20 0xFFFFFFFFFFFFFFFFFFFFFFFFFFFFFFFFFFFFFFFF AND MUL OR SWAP1 SSTORE POP PUSH1 0x20 DUP3 ADD MLOAD DUP2 PUSH1 0x1 ADD SWAP1 DUP2 PUSH2 0x11B7 SWAP2 SWAP1 PUSH2 0x4120 JUMP JUMPDEST POP PUSH1 0x40 DUP3 ADD MLOAD DUP2 PUSH1 0x2 ADD SSTORE PUSH1 0x60 DUP3 ADD MLOAD DUP2 PUSH1 0x3 ADD SWAP1 DUP2 PUSH2 0x11D7 SWAP2 SWAP1 PUSH2 0x4120 JUMP JUMPDEST POP PUSH1 0x80 DUP3 ADD MLOAD DUP2 PUSH1 0x4 ADD SSTORE PUSH1 0xA0 DUP3 ADD MLOAD DUP2 PUSH1 0x5 ADD SWAP1 DUP2 PUSH2 0x11F7 SWAP2 SWAP1 PUSH2 0x4120 JUMP JUMPDEST POP SWAP1 POP POP PUSH1 0x13 CALLER SWAP1 DUP1 PUSH1 0x1 DUP2 SLOAD ADD DUP1 DUP3 SSTORE DUP1 SWAP2 POP POP PUSH1 0x1 SWAP1 SUB SWAP1 PUSH1 0x0 MSTORE PUSH1 0x20 PUSH1 0x0 KECCAK256 ADD PUSH1 0x0 SWAP1 SWAP2 SWAP1 SWAP2 SWAP1 SWAP2 PUSH2 0x100 EXP DUP2 SLOAD DUP2 PUSH20 0xFFFFFFFFFFFFFFFFFFFFFFFFFFFFFFFFFFFFFFFF MUL NOT AND SWAP1 DUP4 PUSH20 0xFFFFFFFFFFFFFFFFFFFFFFFFFFFFFFFFFFFFFFFF AND MUL OR SWAP1 SSTORE POP PUSH32 0x478F5152D8FC568DB3F8DE9FB402FD9D98A1A7541ECFE434E59CF574FBFC5524 CALLER PUSH1 0x40 MLOAD PUSH2 0x128D SWAP2 SWAP1 PUSH2 0x35F9 JUMP JUMPDEST PUSH1 0x40 MLOAD DUP1 SWAP2 SUB SWAP1 LOG1 POP POP POP POP POP JUMP JUMPDEST PUSH1 0x0 PUSH1 0xD PUSH1 0x0 DUP4 DUP2 MSTORE PUSH1 0x20 ADD SWAP1 DUP2 MSTORE PUSH1 0x20 ADD PUSH1 0x0 KECCAK256 PUSH1 0x0 SWAP1 SLOAD SWAP1 PUSH2 0x100 EXP SWAP1 DIV PUSH20 0xFFFFFFFFFFFFFFFFFFFFFFFFFFFFFFFFFFFFFFFF AND SWAP1 POP SWAP2 SWAP1 POP JUMP JUMPDEST PUSH1 0x10 PUSH1 0x20 MSTORE DUP1 PUSH1 0x0 MSTORE PUSH1 0x40 PUSH1 0x0 KECCAK256 PUSH1 0x0 SWAP2 POP SLOAD SWAP1 PUSH2 0x100 EXP SWAP1 DIV PUSH1 0xFF AND DUP2 JUMP JUMPDEST PUSH1 0x0 PUSH1 0x7 PUSH1 0x0 DUP4 PUSH20 0xFFFFFFFFFFFFFFFFFFFFFFFFFFFFFFFFFFFFFFFF AND PUSH20 0xFFFFFFFFFFFFFFFFFFFFFFFFFFFFFFFFFFFFFFFF AND DUP2 MSTORE PUSH1 0x20 ADD SWAP1 DUP2 MSTORE PUSH1 0x20 ADD PUSH1 0x0 KECCAK256 PUSH1 0x0 SWAP1 SLOAD SWAP1 PUSH2 0x100 EXP SWAP1 DIV PUSH1 0xFF AND ISZERO PUSH2 0x1356 JUMPI PUSH1 0x1 SWAP1 POP PUSH2 0x1357 JUMP JUMPDEST JUMPDEST SWAP2 SWAP1 POP JUMP JUMPDEST PUSH1 0x0 PUSH1 0x18 SLOAD SWAP1 POP SWAP1 JUMP JUMPDEST PUSH1 0x60 PUSH1 0x0 DUP1 DUP4 DUP2 MSTORE PUSH1 0x20 ADD SWAP1 DUP2 MSTORE PUSH1 0x20 ADD PUSH1 0x0 KECCAK256 PUSH1 0x3 ADD DUP1 SLOAD PUSH2 0x1388 SWAP1 PUSH2 0x3F43 JUMP JUMPDEST DUP1 PUSH1 0x1F ADD PUSH1 0x20 DUP1 SWAP2 DIV MUL PUSH1 0x20 ADD PUSH1 0x40 MLOAD SWAP1 DUP2 ADD PUSH1 0x40 MSTORE DUP1 SWAP3 SWAP2 SWAP1 DUP2 DUP2 MSTORE PUSH1 0x20 ADD DUP3 DUP1 SLOAD PUSH2 0x13B4 SWAP1 PUSH2 0x3F43 JUMP JUMPDEST DUP1 ISZERO PUSH2 0x1401 JUMPI DUP1 PUSH1 0x1F LT PUSH2 0x13D6 JUMPI PUSH2 0x100 DUP1 DUP4 SLOAD DIV MUL DUP4 MSTORE SWAP2 PUSH1 0x20 ADD SWAP2 PUSH2 0x1401 JUMP JUMPDEST DUP3 ADD SWAP2 SWAP1 PUSH1 0x0 MSTORE PUSH1 0x20 PUSH1 0x0 KECCAK256 SWAP1 JUMPDEST DUP2 SLOAD DUP2 MSTORE SWAP1 PUSH1 0x1 ADD SWAP1 PUSH1 0x20 ADD DUP1 DUP4 GT PUSH2 0x13E4 JUMPI DUP3 SWAP1 SUB PUSH1 0x1F AND DUP3 ADD SWAP2 JUMPDEST POP POP POP POP POP SWAP1 POP SWAP2 SWAP1 POP JUMP JUMPDEST PUSH1 0x0 PUSH1 0x9 PUSH1 0x0 DUP4 PUSH20 0xFFFFFFFFFFFFFFFFFFFFFFFFFFFFFFFFFFFFFFFF AND PUSH20 0xFFFFFFFFFFFFFFFFFFFFFFFFFFFFFFFFFFFFFFFF AND DUP2 MSTORE PUSH1 0x20 ADD SWAP1 DUP2 MSTORE PUSH1 0x20 ADD PUSH1 0x0 KECCAK256 PUSH1 0x0 SWAP1 SLOAD SWAP1 PUSH2 0x100 EXP SWAP1 DIV PUSH1 0xFF AND DUP1 PUSH2 0x14B0 JUMPI POP PUSH1 0xB PUSH1 0x0 DUP4 PUSH20 0xFFFFFFFFFFFFFFFFFFFFFFFFFFFFFFFFFFFFFFFF AND PUSH20 0xFFFFFFFFFFFFFFFFFFFFFFFFFFFFFFFFFFFFFFFF AND DUP2 MSTORE PUSH1 0x20 ADD SWAP1 DUP2 MSTORE PUSH1 0x20 ADD PUSH1 0x0 KECCAK256 PUSH1 0x0 SWAP1 SLOAD SWAP1 PUSH2 0x100 EXP SWAP1 DIV PUSH1 0xFF AND JUMPDEST ISZERO PUSH2 0x14BE JUMPI PUSH1 0x1 SWAP1 POP PUSH2 0x14BF JUMP JUMPDEST JUMPDEST SWAP2 SWAP1 POP JUMP JUMPDEST PUSH1 0xF PUSH1 0x20 MSTORE DUP1 PUSH1 0x0 MSTORE PUSH1 0x40 PUSH1 0x0 KECCAK256 PUSH1 0x0 SWAP2 POP SLOAD SWAP1 PUSH2 0x100 EXP SWAP1 DIV PUSH1 0xFF AND DUP2 JUMP JUMPDEST PUSH1 0x5 PUSH1 0x0 CALLER PUSH20 0xFFFFFFFFFFFFFFFFFFFFFFFFFFFFFFFFFFFFFFFF AND PUSH20 0xFFFFFFFFFFFFFFFFFFFFFFFFFFFFFFFFFFFFFFFF AND DUP2 MSTORE PUSH1 0x20 ADD SWAP1 DUP2 MSTORE PUSH1 0x20 ADD PUSH1 0x0 KECCAK256 PUSH1 0x0 SWAP1 SLOAD SWAP1 PUSH2 0x100 EXP SWAP1 DIV PUSH1 0xFF AND ISZERO PUSH2 0x153B JUMPI PUSH1 0x0 DUP1 REVERT JUMPDEST PUSH1 0x1 PUSH1 0x5 PUSH1 0x0 CALLER PUSH20 0xFFFFFFFFFFFFFFFFFFFFFFFFFFFFFFFFFFFFFFFF AND PUSH20 0xFFFFFFFFFFFFFFFFFFFFFFFFFFFFFFFFFFFFFFFF AND DUP2 MSTORE PUSH1 0x20 ADD SWAP1 DUP2 MSTORE PUSH1 0x20 ADD PUSH1 0x0 KECCAK256 PUSH1 0x0 PUSH2 0x100 EXP DUP2 SLOAD DUP2 PUSH1 0xFF MUL NOT AND SWAP1 DUP4 ISZERO ISZERO MUL OR SWAP1 SSTORE POP PUSH1 0x1 PUSH1 0x6 PUSH1 0x0 CALLER PUSH20 0xFFFFFFFFFFFFFFFFFFFFFFFFFFFFFFFFFFFFFFFF AND PUSH20 0xFFFFFFFFFFFFFFFFFFFFFFFFFFFFFFFFFFFFFFFF AND DUP2 MSTORE PUSH1 0x20 ADD SWAP1 DUP2 MSTORE PUSH1 0x20 ADD PUSH1 0x0 KECCAK256 PUSH1 0x0 PUSH2 0x100 EXP DUP2 SLOAD DUP2 PUSH1 0xFF MUL NOT AND SWAP1 DUP4 ISZERO ISZERO MUL OR SWAP1 SSTORE POP PUSH1 0x16 PUSH1 0x0 DUP2 SLOAD DUP1 SWAP3 SWAP2 SWAP1 PUSH2 0x15FE SWAP1 PUSH2 0x3ECC JUMP JUMPDEST SWAP2 SWAP1 POP SSTORE POP PUSH1 0x40 MLOAD DUP1 PUSH1 0xC0 ADD PUSH1 0x40 MSTORE DUP1 CALLER PUSH20 0xFFFFFFFFFFFFFFFFFFFFFFFFFFFFFFFFFFFFFFFF AND DUP2 MSTORE PUSH1 0x20 ADD DUP7 DUP2 MSTORE PUSH1 0x20 ADD DUP5 DUP2 MSTORE PUSH1 0x20 ADD DUP6 DUP2 MSTORE PUSH1 0x20 ADD DUP4 DUP2 MSTORE PUSH1 0x20 ADD DUP3 DUP2 MSTORE POP PUSH1 0x2 PUSH1 0x0 CALLER PUSH20 0xFFFFFFFFFFFFFFFFFFFFFFFFFFFFFFFFFFFFFFFF AND PUSH20 0xFFFFFFFFFFFFFFFFFFFFFFFFFFFFFFFFFFFFFFFF AND DUP2 MSTORE PUSH1 0x20 ADD SWAP1 DUP2 MSTORE PUSH1 0x20 ADD PUSH1 0x0 KECCAK256 PUSH1 0x0 DUP3 ADD MLOAD DUP2 PUSH1 0x0 ADD PUSH1 0x0 PUSH2 0x100 EXP DUP2 SLOAD DUP2 PUSH20 0xFFFFFFFFFFFFFFFFFFFFFFFFFFFFFFFFFFFFFFFF MUL NOT AND SWAP1 DUP4 PUSH20 0xFFFFFFFFFFFFFFFFFFFFFFFFFFFFFFFFFFFFFFFF AND MUL OR SWAP1 SSTORE POP PUSH1 0x20 DUP3 ADD MLOAD DUP2 PUSH1 0x1 ADD SWAP1 DUP2 PUSH2 0x16E1 SWAP2 SWAP1 PUSH2 0x4120 JUMP JUMPDEST POP PUSH1 0x40 DUP3 ADD MLOAD DUP2 PUSH1 0x2 ADD SWAP1 DUP2 PUSH2 0x16F7 SWAP2 SWAP1 PUSH2 0x4120 JUMP JUMPDEST POP PUSH1 0x60 DUP3 ADD MLOAD DUP2 PUSH1 0x3 ADD SSTORE PUSH1 0x80 DUP3 ADD MLOAD DUP2 PUSH1 0x4 ADD SSTORE PUSH1 0xA0 DUP3 ADD MLOAD DUP2 PUSH1 0x5 ADD SWAP1 DUP2 PUSH2 0x1721 SWAP2 SWAP1 PUSH2 0x4120 JUMP JUMPDEST POP SWAP1 POP POP PUSH1 0x12 CALLER SWAP1 DUP1 PUSH1 0x1 DUP2 SLOAD ADD DUP1 DUP3 SSTORE DUP1 SWAP2 POP POP PUSH1 0x1 SWAP1 SUB SWAP1 PUSH1 0x0 MSTORE PUSH1 0x20 PUSH1 0x0 KECCAK256 ADD PUSH1 0x0 SWAP1 SWAP2 SWAP1 SWAP2 SWAP1 SWAP2 PUSH2 0x100 EXP DUP2 SLOAD DUP2 PUSH20 0xFFFFFFFFFFFFFFFFFFFFFFFFFFFFFFFFFFFFFFFF MUL NOT AND SWAP1 DUP4 PUSH20 0xFFFFFFFFFFFFFFFFFFFFFFFFFFFFFFFFFFFFFFFF AND MUL OR SWAP1 SSTORE POP PUSH32 0x478F5152D8FC568DB3F8DE9FB402FD9D98A1A7541ECFE434E59CF574FBFC5524 CALLER PUSH1 0x40 MLOAD PUSH2 0x17B7 SWAP2 SWAP1 PUSH2 0x35F9 JUMP JUMPDEST PUSH1 0x40 MLOAD DUP1 SWAP2 SUB SWAP1 LOG1 POP POP POP POP POP JUMP JUMPDEST PUSH1 0x6 PUSH1 0x20 MSTORE DUP1 PUSH1 0x0 MSTORE PUSH1 0x40 PUSH1 0x0 KECCAK256 PUSH1 0x0 SWAP2 POP SLOAD SWAP1 PUSH2 0x100 EXP SWAP1 DIV PUSH1 0xFF AND DUP2 JUMP JUMPDEST PUSH1 0x60 PUSH1 0x13 DUP1 SLOAD DUP1 PUSH1 0x20 MUL PUSH1 0x20 ADD PUSH1 0x40 MLOAD SWAP1 DUP2 ADD PUSH1 0x40 MSTORE DUP1 SWAP3 SWAP2 SWAP1 DUP2 DUP2 MSTORE PUSH1 0x20 ADD DUP3 DUP1 SLOAD DUP1 ISZERO PUSH2 0x186A JUMPI PUSH1 0x20 MUL DUP3 ADD SWAP2 SWAP1 PUSH1 0x0 MSTORE PUSH1 0x20 PUSH1 0x0 KECCAK256 SWAP1 JUMPDEST DUP2 PUSH1 0x0 SWAP1 SLOAD SWAP1 PUSH2 0x100 EXP SWAP1 DIV PUSH20 0xFFFFFFFFFFFFFFFFFFFFFFFFFFFFFFFFFFFFFFFF AND PUSH20 0xFFFFFFFFFFFFFFFFFFFFFFFFFFFFFFFFFFFFFFFF AND DUP2 MSTORE PUSH1 0x20 ADD SWAP1 PUSH1 0x1 ADD SWAP1 DUP1 DUP4 GT PUSH2 0x1820 JUMPI JUMPDEST POP POP POP POP POP SWAP1 POP SWAP1 JUMP JUMPDEST PUSH1 0x9 PUSH1 0x20 MSTORE DUP1 PUSH1 0x0 MSTORE PUSH1 0x40 PUSH1 0x0 KECCAK256 PUSH1 0x0 SWAP2 POP SLOAD SWAP1 PUSH2 0x100 EXP SWAP1 DIV PUSH1 0xFF AND DUP2 JUMP JUMPDEST PUSH1 0x0 DUP1 PUSH1 0x0 DUP4 DUP2 MSTORE PUSH1 0x20 ADD SWAP1 DUP2 MSTORE PUSH1 0x20 ADD PUSH1 0x0 KECCAK256 PUSH1 0x1 ADD SLOAD SWAP1 POP SWAP2 SWAP1 POP JUMP JUMPDEST PUSH1 0x1 PUSH1 0x10 PUSH1 0x0 DUP4 DUP2 MSTORE PUSH1 0x20 ADD SWAP1 DUP2 MSTORE PUSH1 0x20 ADD PUSH1 0x0 KECCAK256 PUSH1 0x0 PUSH2 0x100 EXP DUP2 SLOAD DUP2 PUSH1 0xFF MUL NOT AND SWAP1 DUP4 ISZERO ISZERO MUL OR SWAP1 SSTORE POP DUP2 PUSH20 0xFFFFFFFFFFFFFFFFFFFFFFFFFFFFFFFFFFFFFFFF AND PUSH2 0x8FC CALLVALUE SWAP1 DUP2 ISZERO MUL SWAP1 PUSH1 0x40 MLOAD PUSH1 0x0 PUSH1 0x40 MLOAD DUP1 DUP4 SUB DUP2 DUP6 DUP9 DUP9 CALL SWAP4 POP POP POP POP ISZERO DUP1 ISZERO PUSH2 0x1925 JUMPI RETURNDATASIZE PUSH1 0x0 DUP1 RETURNDATACOPY RETURNDATASIZE PUSH1 0x0 REVERT JUMPDEST POP POP POP JUMP JUMPDEST PUSH2 0x1933 CALLER PUSH2 0x2E42 JUMP JUMPDEST PUSH2 0x193C JUMPI PUSH1 0x0 DUP1 REVERT JUMPDEST PUSH1 0x1 PUSH1 0xA PUSH1 0x0 DUP4 PUSH20 0xFFFFFFFFFFFFFFFFFFFFFFFFFFFFFFFFFFFFFFFF AND PUSH20 0xFFFFFFFFFFFFFFFFFFFFFFFFFFFFFFFFFFFFFFFF AND DUP2 MSTORE PUSH1 0x20 ADD SWAP1 DUP2 MSTORE PUSH1 0x20 ADD PUSH1 0x0 KECCAK256 PUSH1 0x0 PUSH2 0x100 EXP DUP2 SLOAD DUP2 PUSH1 0xFF MUL NOT AND SWAP1 DUP4 ISZERO ISZERO MUL OR SWAP1 SSTORE POP PUSH32 0x6A6455914F452787EB3985452ACEEDC1000FB545E394EB3B370E3D08958E0A5B DUP2 PUSH1 0x40 MLOAD PUSH2 0x19C3 SWAP2 SWAP1 PUSH2 0x35F9 JUMP JUMPDEST PUSH1 0x40 MLOAD DUP1 SWAP2 SUB SWAP1 LOG1 POP JUMP JUMPDEST PUSH1 0x60 DUP1 PUSH1 0x0 PUSH1 0x60 PUSH1 0x0 PUSH1 0x3 PUSH1 0x0 DUP8 PUSH20 0xFFFFFFFFFFFFFFFFFFFFFFFFFFFFFFFFFFFFFFFF AND PUSH20 0xFFFFFFFFFFFFFFFFFFFFFFFFFFFFFFFFFFFFFFFF AND DUP2 MSTORE PUSH1 0x20 ADD SWAP1 DUP2 MSTORE PUSH1 0x20 ADD PUSH1 0x0 KECCAK256 PUSH1 0x1 ADD PUSH1 0x3 PUSH1 0x0 DUP9 PUSH20 0xFFFFFFFFFFFFFFFFFFFFFFFFFFFFFFFFFFFFFFFF AND PUSH20 0xFFFFFFFFFFFFFFFFFFFFFFFFFFFFFFFFFFFFFFFF AND DUP2 MSTORE PUSH1 0x20 ADD SWAP1 DUP2 MSTORE PUSH1 0x20 ADD PUSH1 0x0 KECCAK256 PUSH1 0x3 ADD PUSH1 0x3 PUSH1 0x0 DUP10 PUSH20 0xFFFFFFFFFFFFFFFFFFFFFFFFFFFFFFFFFFFFFFFF AND PUSH20 0xFFFFFFFFFFFFFFFFFFFFFFFFFFFFFFFFFFFFFFFF AND DUP2 MSTORE PUSH1 0x20 ADD SWAP1 DUP2 MSTORE PUSH1 0x20 ADD PUSH1 0x0 KECCAK256 PUSH1 0x4 ADD SLOAD PUSH1 0x3 PUSH1 0x0 DUP11 PUSH20 0xFFFFFFFFFFFFFFFFFFFFFFFFFFFFFFFFFFFFFFFF AND PUSH20 0xFFFFFFFFFFFFFFFFFFFFFFFFFFFFFFFFFFFFFFFF AND DUP2 MSTORE PUSH1 0x20 ADD SWAP1 DUP2 MSTORE PUSH1 0x20 ADD PUSH1 0x0 KECCAK256 PUSH1 0x5 ADD PUSH1 0x3 PUSH1 0x0 DUP12 PUSH20 0xFFFFFFFFFFFFFFFFFFFFFFFFFFFFFFFFFFFFFFFF AND PUSH20 0xFFFFFFFFFFFFFFFFFFFFFFFFFFFFFFFFFFFFFFFF AND DUP2 MSTORE PUSH1 0x20 ADD SWAP1 DUP2 MSTORE PUSH1 0x20 ADD PUSH1 0x0 KECCAK256 PUSH1 0x2 ADD SLOAD DUP5 DUP1 SLOAD PUSH2 0x1B2F SWAP1 PUSH2 0x3F43 JUMP JUMPDEST DUP1 PUSH1 0x1F ADD PUSH1 0x20 DUP1 SWAP2 DIV MUL PUSH1 0x20 ADD PUSH1 0x40 MLOAD SWAP1 DUP2 ADD PUSH1 0x40 MSTORE DUP1 SWAP3 SWAP2 SWAP1 DUP2 DUP2 MSTORE PUSH1 0x20 ADD DUP3 DUP1 SLOAD PUSH2 0x1B5B SWAP1 PUSH2 0x3F43 JUMP JUMPDEST DUP1 ISZERO PUSH2 0x1BA8 JUMPI DUP1 PUSH1 0x1F LT PUSH2 0x1B7D JUMPI PUSH2 0x100 DUP1 DUP4 SLOAD DIV MUL DUP4 MSTORE SWAP2 PUSH1 0x20 ADD SWAP2 PUSH2 0x1BA8 JUMP JUMPDEST DUP3 ADD SWAP2 SWAP1 PUSH1 0x0 MSTORE PUSH1 0x20 PUSH1 0x0 KECCAK256 SWAP1 JUMPDEST DUP2 SLOAD DUP2 MSTORE SWAP1 PUSH1 0x1 ADD SWAP1 PUSH1 0x20 ADD DUP1 DUP4 GT PUSH2 0x1B8B JUMPI DUP3 SWAP1 SUB PUSH1 0x1F AND DUP3 ADD SWAP2 JUMPDEST POP POP POP POP POP SWAP5 POP DUP4 DUP1 SLOAD PUSH2 0x1BBB SWAP1 PUSH2 0x3F43 JUMP JUMPDEST DUP1 PUSH1 0x1F ADD PUSH1 0x20 DUP1 SWAP2 DIV MUL PUSH1 0x20 ADD PUSH1 0x40 MLOAD SWAP1 DUP2 ADD PUSH1 0x40 MSTORE DUP1 SWAP3 SWAP2 SWAP1 DUP2 DUP2 MSTORE PUSH1 0x20 ADD DUP3 DUP1 SLOAD PUSH2 0x1BE7 SWAP1 PUSH2 0x3F43 JUMP JUMPDEST DUP1 ISZERO PUSH2 0x1C34 JUMPI DUP1 PUSH1 0x1F LT PUSH2 0x1C09 JUMPI PUSH2 0x100 DUP1 DUP4 SLOAD DIV MUL DUP4 MSTORE SWAP2 PUSH1 0x20 ADD SWAP2 PUSH2 0x1C34 JUMP JUMPDEST DUP3 ADD SWAP2 SWAP1 PUSH1 0x0 MSTORE PUSH1 0x20 PUSH1 0x0 KECCAK256 SWAP1 JUMPDEST DUP2 SLOAD DUP2 MSTORE SWAP1 PUSH1 0x1 ADD SWAP1 PUSH1 0x20 ADD DUP1 DUP4 GT PUSH2 0x1C17 JUMPI DUP3 SWAP1 SUB PUSH1 0x1F AND DUP3 ADD SWAP2 JUMPDEST POP POP POP POP POP SWAP4 POP DUP2 DUP1 SLOAD PUSH2 0x1C47 SWAP1 PUSH2 0x3F43 JUMP JUMPDEST DUP1 PUSH1 0x1F ADD PUSH1 0x20 DUP1 SWAP2 DIV MUL PUSH1 0x20 ADD PUSH1 0x40 MLOAD SWAP1 DUP2 ADD PUSH1 0x40 MSTORE DUP1 SWAP3 SWAP2 SWAP1 DUP2 DUP2 MSTORE PUSH1 0x20 ADD DUP3 DUP1 SLOAD PUSH2 0x1C73 SWAP1 PUSH2 0x3F43 JUMP JUMPDEST DUP1 ISZERO PUSH2 0x1CC0 JUMPI DUP1 PUSH1 0x1F LT PUSH2 0x1C95 JUMPI PUSH2 0x100 DUP1 DUP4 SLOAD DIV MUL DUP4 MSTORE SWAP2 PUSH1 0x20 ADD SWAP2 PUSH2 0x1CC0 JUMP JUMPDEST DUP3 ADD SWAP2 SWAP1 PUSH1 0x0 MSTORE PUSH1 0x20 PUSH1 0x0 KECCAK256 SWAP1 JUMPDEST DUP2 SLOAD DUP2 MSTORE SWAP1 PUSH1 0x1 ADD SWAP1 PUSH1 0x20 ADD DUP1 DUP4 GT PUSH2 0x1CA3 JUMPI DUP3 SWAP1 SUB PUSH1 0x1F AND DUP3 ADD SWAP2 JUMPDEST POP POP POP POP POP SWAP2 POP SWAP5 POP SWAP5 POP SWAP5 POP SWAP5 POP SWAP5 POP SWAP2 SWAP4 SWAP6 SWAP1 SWAP3 SWAP5 POP JUMP JUMPDEST PUSH1 0x60 PUSH1 0xC PUSH1 0x0 DUP4 DUP2 MSTORE PUSH1 0x20 ADD SWAP1 DUP2 MSTORE PUSH1 0x20 ADD PUSH1 0x0 KECCAK256 PUSH1 0x0 SWAP1 SLOAD SWAP1 PUSH2 0x100 EXP SWAP1 DIV PUSH1 0xFF AND ISZERO PUSH2 0x1D3F JUMPI PUSH1 0x40 MLOAD DUP1 PUSH1 0x40 ADD PUSH1 0x40 MSTORE DUP1 PUSH1 0x4 DUP2 MSTORE PUSH1 0x20 ADD PUSH32 0x7472756500000000000000000000000000000000000000000000000000000000 DUP2 MSTORE POP SWAP1 POP PUSH2 0x1D40 JUMP JUMPDEST JUMPDEST SWAP2 SWAP1 POP JUMP JUMPDEST PUSH1 0x0 PUSH1 0xE PUSH1 0x0 DUP4 DUP2 MSTORE PUSH1 0x20 ADD SWAP1 DUP2 MSTORE PUSH1 0x20 ADD PUSH1 0x0 KECCAK256 PUSH1 0x0 SWAP1 SLOAD SWAP1 PUSH2 0x100 EXP SWAP1 DIV PUSH1 0xFF AND ISZERO PUSH2 0x1D76 JUMPI PUSH1 0x1 SWAP1 POP PUSH2 0x1D77 JUMP JUMPDEST JUMPDEST SWAP2 SWAP1 POP JUMP JUMPDEST PUSH1 0xC PUSH1 0x20 MSTORE DUP1 PUSH1 0x0 MSTORE PUSH1 0x40 PUSH1 0x0 KECCAK256 PUSH1 0x0 SWAP2 POP SLOAD SWAP1 PUSH2 0x100 EXP SWAP1 DIV PUSH1 0xFF AND DUP2 JUMP JUMPDEST PUSH2 0x1DA5 CALLER PUSH2 0x2E42 JUMP JUMPDEST PUSH2 0x1DAE JUMPI PUSH1 0x0 DUP1 REVERT JUMPDEST PUSH1 0x1 PUSH1 0xB PUSH1 0x0 DUP4 PUSH20 0xFFFFFFFFFFFFFFFFFFFFFFFFFFFFFFFFFFFFFFFF AND PUSH20 0xFFFFFFFFFFFFFFFFFFFFFFFFFFFFFFFFFFFFFFFF AND DUP2 MSTORE PUSH1 0x20 ADD SWAP1 DUP2 MSTORE PUSH1 0x20 ADD PUSH1 0x0 KECCAK256 PUSH1 0x0 PUSH2 0x100 EXP DUP2 SLOAD DUP2 PUSH1 0xFF MUL NOT AND SWAP1 DUP4 ISZERO ISZERO MUL OR SWAP1 SSTORE POP PUSH32 0xAF77F8960CF590E245EC8B6D41C193A5DCACAD8986AE4EB57AC9E5BE7B6AF031 DUP2 PUSH1 0x40 MLOAD PUSH2 0x1E35 SWAP2 SWAP1 PUSH2 0x35F9 JUMP JUMPDEST PUSH1 0x40 MLOAD DUP1 SWAP2 SUB SWAP1 LOG1 POP JUMP JUMPDEST PUSH1 0xE PUSH1 0x20 MSTORE DUP1 PUSH1 0x0 MSTORE PUSH1 0x40 PUSH1 0x0 KECCAK256 PUSH1 0x0 SWAP2 POP SLOAD SWAP1 PUSH2 0x100 EXP SWAP1 DIV PUSH1 0xFF AND DUP2 JUMP JUMPDEST PUSH2 0x1E69 CALLER PUSH2 0x334F JUMP JUMPDEST DUP1 ISZERO PUSH2 0x1E7A JUMPI POP PUSH2 0x1E79 CALLER PUSH2 0x2733 JUMP JUMPDEST JUMPDEST PUSH2 0x1E83 JUMPI PUSH1 0x0 DUP1 REVERT JUMPDEST PUSH1 0x14 PUSH1 0x0 DUP2 SLOAD DUP1 SWAP3 SWAP2 SWAP1 PUSH2 0x1E96 SWAP1 PUSH2 0x3ECC JUMP JUMPDEST SWAP2 SWAP1 POP SSTORE POP PUSH1 0x40 MLOAD DUP1 PUSH1 0xC0 ADD PUSH1 0x40 MSTORE DUP1 PUSH1 0x14 SLOAD DUP2 MSTORE PUSH1 0x20 ADD DUP7 DUP2 MSTORE PUSH1 0x20 ADD DUP6 DUP2 MSTORE PUSH1 0x20 ADD DUP5 DUP2 MSTORE PUSH1 0x20 ADD DUP4 DUP2 MSTORE PUSH1 0x20 ADD DUP3 DUP2 MSTORE POP PUSH1 0x0 DUP1 PUSH1 0x14 SLOAD DUP2 MSTORE PUSH1 0x20 ADD SWAP1 DUP2 MSTORE PUSH1 0x20 ADD PUSH1 0x0 KECCAK256 PUSH1 0x0 DUP3 ADD MLOAD DUP2 PUSH1 0x0 ADD SSTORE PUSH1 0x20 DUP3 ADD MLOAD DUP2 PUSH1 0x1 ADD SSTORE PUSH1 0x40 DUP3 ADD MLOAD DUP2 PUSH1 0x2 ADD SWAP1 DUP2 PUSH2 0x1F07 SWAP2 SWAP1 PUSH2 0x4120 JUMP JUMPDEST POP PUSH1 0x60 DUP3 ADD MLOAD DUP2 PUSH1 0x3 ADD SWAP1 DUP2 PUSH2 0x1F1D SWAP2 SWAP1 PUSH2 0x4120 JUMP JUMPDEST POP PUSH1 0x80 DUP3 ADD MLOAD DUP2 PUSH1 0x4 ADD SSTORE PUSH1 0xA0 DUP3 ADD MLOAD DUP2 PUSH1 0x5 ADD SSTORE SWAP1 POP POP CALLER PUSH1 0xD PUSH1 0x0 PUSH1 0x14 SLOAD DUP2 MSTORE PUSH1 0x20 ADD SWAP1 DUP2 MSTORE PUSH1 0x20 ADD PUSH1 0x0 KECCAK256 PUSH1 0x0 PUSH2 0x100 EXP DUP2 SLOAD DUP2 PUSH20 0xFFFFFFFFFFFFFFFFFFFFFFFFFFFFFFFFFFFFFFFF MUL NOT AND SWAP1 DUP4 PUSH20 0xFFFFFFFFFFFFFFFFFFFFFFFFFFFFFFFFFFFFFFFF AND MUL OR SWAP1 SSTORE POP POP POP POP POP POP JUMP JUMPDEST PUSH1 0x5 PUSH1 0x0 CALLER PUSH20 0xFFFFFFFFFFFFFFFFFFFFFFFFFFFFFFFFFFFFFFFF AND PUSH20 0xFFFFFFFFFFFFFFFFFFFFFFFFFFFFFFFFFFFFFFFF AND DUP2 MSTORE PUSH1 0x20 ADD SWAP1 DUP2 MSTORE PUSH1 0x20 ADD PUSH1 0x0 KECCAK256 PUSH1 0x0 SWAP1 SLOAD SWAP1 PUSH2 0x100 EXP SWAP1 DIV PUSH1 0xFF AND DUP1 ISZERO PUSH2 0x2076 JUMPI POP CALLER PUSH20 0xFFFFFFFFFFFFFFFFFFFFFFFFFFFFFFFFFFFFFFFF AND PUSH1 0x2 PUSH1 0x0 CALLER PUSH20 0xFFFFFFFFFFFFFFFFFFFFFFFFFFFFFFFFFFFFFFFF AND PUSH20 0xFFFFFFFFFFFFFFFFFFFFFFFFFFFFFFFFFFFFFFFF AND DUP2 MSTORE PUSH1 0x20 ADD SWAP1 DUP2 MSTORE PUSH1 0x20 ADD PUSH1 0x0 KECCAK256 PUSH1 0x0 ADD PUSH1 0x0 SWAP1 SLOAD SWAP1 PUSH2 0x100 EXP SWAP1 DIV PUSH20 0xFFFFFFFFFFFFFFFFFFFFFFFFFFFFFFFFFFFFFFFF AND PUSH20 0xFFFFFFFFFFFFFFFFFFFFFFFFFFFFFFFFFFFFFFFF AND EQ JUMPDEST PUSH2 0x207F JUMPI PUSH1 0x0 DUP1 REVERT JUMPDEST DUP5 PUSH1 0x2 PUSH1 0x0 CALLER PUSH20 0xFFFFFFFFFFFFFFFFFFFFFFFFFFFFFFFFFFFFFFFF AND PUSH20 0xFFFFFFFFFFFFFFFFFFFFFFFFFFFFFFFFFFFFFFFF AND DUP2 MSTORE PUSH1 0x20 ADD SWAP1 DUP2 MSTORE PUSH1 0x20 ADD PUSH1 0x0 KECCAK256 PUSH1 0x1 ADD SWAP1 DUP2 PUSH2 0x20CE SWAP2 SWAP1 PUSH2 0x4120 JUMP JUMPDEST POP DUP4 PUSH1 0x2 PUSH1 0x0 CALLER PUSH20 0xFFFFFFFFFFFFFFFFFFFFFFFFFFFFFFFFFFFFFFFF AND PUSH20 0xFFFFFFFFFFFFFFFFFFFFFFFFFFFFFFFFFFFFFFFF AND DUP2 MSTORE PUSH1 0x20 ADD SWAP1 DUP2 MSTORE PUSH1 0x20 ADD PUSH1 0x0 KECCAK256 PUSH1 0x3 ADD DUP2 SWAP1 SSTORE POP DUP3 PUSH1 0x2 PUSH1 0x0 CALLER PUSH20 0xFFFFFFFFFFFFFFFFFFFFFFFFFFFFFFFFFFFFFFFF AND PUSH20 0xFFFFFFFFFFFFFFFFFFFFFFFFFFFFFFFFFFFFFFFF AND DUP2 MSTORE PUSH1 0x20 ADD SWAP1 DUP2 MSTORE PUSH1 0x20 ADD PUSH1 0x0 KECCAK256 PUSH1 0x2 ADD SWAP1 DUP2 PUSH2 0x2165 SWAP2 SWAP1 PUSH2 0x4120 JUMP JUMPDEST POP DUP2 PUSH1 0x2 PUSH1 0x0 CALLER PUSH20 0xFFFFFFFFFFFFFFFFFFFFFFFFFFFFFFFFFFFFFFFF AND PUSH20 0xFFFFFFFFFFFFFFFFFFFFFFFFFFFFFFFFFFFFFFFF AND DUP2 MSTORE PUSH1 0x20 ADD SWAP1 DUP2 MSTORE PUSH1 0x20 ADD PUSH1 0x0 KECCAK256 PUSH1 0x4 ADD DUP2 SWAP1 SSTORE POP DUP1 PUSH1 0x2 PUSH1 0x0 CALLER PUSH20 0xFFFFFFFFFFFFFFFFFFFFFFFFFFFFFFFFFFFFFFFF AND PUSH20 0xFFFFFFFFFFFFFFFFFFFFFFFFFFFFFFFFFFFFFFFF AND DUP2 MSTORE PUSH1 0x20 ADD SWAP1 DUP2 MSTORE PUSH1 0x20 ADD PUSH1 0x0 KECCAK256 PUSH1 0x5 ADD SWAP1 DUP2 PUSH2 0x21FC SWAP2 SWAP1 PUSH2 0x4120 JUMP JUMPDEST POP POP POP POP POP POP JUMP JUMPDEST PUSH1 0xB PUSH1 0x20 MSTORE DUP1 PUSH1 0x0 MSTORE PUSH1 0x40 PUSH1 0x0 KECCAK256 PUSH1 0x0 SWAP2 POP SLOAD SWAP1 PUSH2 0x100 EXP SWAP1 DIV PUSH1 0xFF AND DUP2 JUMP JUMPDEST PUSH1 0xD PUSH1 0x20 MSTORE DUP1 PUSH1 0x0 MSTORE PUSH1 0x40 PUSH1 0x0 KECCAK256 PUSH1 0x0 SWAP2 POP SLOAD SWAP1 PUSH2 0x100 EXP SWAP1 DIV PUSH20 0xFFFFFFFFFFFFFFFFFFFFFFFFFFFFFFFFFFFFFFFF AND DUP2 JUMP JUMPDEST PUSH1 0x7 PUSH1 0x20 MSTORE DUP1 PUSH1 0x0 MSTORE PUSH1 0x40 PUSH1 0x0 KECCAK256 PUSH1 0x0 SWAP2 POP SLOAD SWAP1 PUSH2 0x100 EXP SWAP1 DIV PUSH1 0xFF AND DUP2 JUMP JUMPDEST PUSH1 0xA PUSH1 0x20 MSTORE DUP1 PUSH1 0x0 MSTORE PUSH1 0x40 PUSH1 0x0 KECCAK256 PUSH1 0x0 SWAP2 POP SLOAD SWAP1 PUSH2 0x100 EXP SWAP1 DIV PUSH1 0xFF AND DUP2 JUMP JUMPDEST PUSH1 0x3 PUSH1 0x20 MSTORE DUP1 PUSH1 0x0 MSTORE PUSH1 0x40 PUSH1 0x0 KECCAK256 PUSH1 0x0 SWAP2 POP SWAP1 POP DUP1 PUSH1 0x0 ADD PUSH1 0x0 SWAP1 SLOAD SWAP1 PUSH2 0x100 EXP SWAP1 DIV PUSH20 0xFFFFFFFFFFFFFFFFFFFFFFFFFFFFFFFFFFFFFFFF AND SWAP1 DUP1 PUSH1 0x1 ADD DUP1 SLOAD PUSH2 0x22E0 SWAP1 PUSH2 0x3F43 JUMP JUMPDEST DUP1 PUSH1 0x1F ADD PUSH1 0x20 DUP1 SWAP2 DIV MUL PUSH1 0x20 ADD PUSH1 0x40 MLOAD SWAP1 DUP2 ADD PUSH1 0x40 MSTORE DUP1 SWAP3 SWAP2 SWAP1 DUP2 DUP2 MSTORE PUSH1 0x20 ADD DUP3 DUP1 SLOAD PUSH2 0x230C SWAP1 PUSH2 0x3F43 JUMP JUMPDEST DUP1 ISZERO PUSH2 0x2359 JUMPI DUP1 PUSH1 0x1F LT PUSH2 0x232E JUMPI PUSH2 0x100 DUP1 DUP4 SLOAD DIV MUL DUP4 MSTORE SWAP2 PUSH1 0x20 ADD SWAP2 PUSH2 0x2359 JUMP JUMPDEST DUP3 ADD SWAP2 SWAP1 PUSH1 0x0 MSTORE PUSH1 0x20 PUSH1 0x0 KECCAK256 SWAP1 JUMPDEST DUP2 SLOAD DUP2 MSTORE SWAP1 PUSH1 0x1 ADD SWAP1 PUSH1 0x20 ADD DUP1 DUP4 GT PUSH2 0x233C JUMPI DUP3 SWAP1 SUB PUSH1 0x1F AND DUP3 ADD SWAP2 JUMPDEST POP POP POP POP POP SWAP1 DUP1 PUSH1 0x2 ADD SLOAD SWAP1 DUP1 PUSH1 0x3 ADD DUP1 SLOAD PUSH2 0x2374 SWAP1 PUSH2 0x3F43 JUMP JUMPDEST DUP1 PUSH1 0x1F ADD PUSH1 0x20 DUP1 SWAP2 DIV MUL PUSH1 0x20 ADD PUSH1 0x40 MLOAD SWAP1 DUP2 ADD PUSH1 0x40 MSTORE DUP1 SWAP3 SWAP2 SWAP1 DUP2 DUP2 MSTORE PUSH1 0x20 ADD DUP3 DUP1 SLOAD PUSH2 0x23A0 SWAP1 PUSH2 0x3F43 JUMP JUMPDEST DUP1 ISZERO PUSH2 0x23ED JUMPI DUP1 PUSH1 0x1F LT PUSH2 0x23C2 JUMPI PUSH2 0x100 DUP1 DUP4 SLOAD DIV MUL DUP4 MSTORE SWAP2 PUSH1 0x20 ADD SWAP2 PUSH2 0x23ED JUMP JUMPDEST DUP3 ADD SWAP2 SWAP1 PUSH1 0x0 MSTORE PUSH1 0x20 PUSH1 0x0 KECCAK256 SWAP1 JUMPDEST DUP2 SLOAD DUP2 MSTORE SWAP1 PUSH1 0x1 ADD SWAP1 PUSH1 0x20 ADD DUP1 DUP4 GT PUSH2 0x23D0 JUMPI DUP3 SWAP1 SUB PUSH1 0x1F AND DUP3 ADD SWAP2 JUMPDEST POP POP POP POP POP SWAP1 DUP1 PUSH1 0x4 ADD SLOAD SWAP1 DUP1 PUSH1 0x5 ADD DUP1 SLOAD PUSH2 0x2408 SWAP1 PUSH2 0x3F43 JUMP JUMPDEST DUP1 PUSH1 0x1F ADD PUSH1 0x20 DUP1 SWAP2 DIV MUL PUSH1 0x20 ADD PUSH1 0x40 MLOAD SWAP1 DUP2 ADD PUSH1 0x40 MSTORE DUP1 SWAP3 SWAP2 SWAP1 DUP2 DUP2 MSTORE PUSH1 0x20 ADD DUP3 DUP1 SLOAD PUSH2 0x2434 SWAP1 PUSH2 0x3F43 JUMP JUMPDEST DUP1 ISZERO PUSH2 0x2481 JUMPI DUP1 PUSH1 0x1F LT PUSH2 0x2456 JUMPI PUSH2 0x100 DUP1 DUP4 SLOAD DIV MUL DUP4 MSTORE SWAP2 PUSH1 0x20 ADD SWAP2 PUSH2 0x2481 JUMP JUMPDEST DUP3 ADD SWAP2 SWAP1 PUSH1 0x0 MSTORE PUSH1 0x20 PUSH1 0x0 KECCAK256 SWAP1 JUMPDEST DUP2 SLOAD DUP2 MSTORE SWAP1 PUSH1 0x1 ADD SWAP1 PUSH1 0x20 ADD DUP1 DUP4 GT PUSH2 0x2464 JUMPI DUP3 SWAP1 SUB PUSH1 0x1F AND DUP3 ADD SWAP2 JUMPDEST POP POP POP POP POP SWAP1 POP DUP7 JUMP JUMPDEST PUSH1 0x4 PUSH1 0x20 MSTORE DUP1 PUSH1 0x0 MSTORE PUSH1 0x40 PUSH1 0x0 KECCAK256 PUSH1 0x0 SWAP2 POP SWAP1 POP DUP1 PUSH1 0x0 ADD SLOAD SWAP1 DUP1 PUSH1 0x1 ADD PUSH1 0x0 SWAP1 SLOAD SWAP1 PUSH2 0x100 EXP SWAP1 DIV PUSH20 0xFFFFFFFFFFFFFFFFFFFFFFFFFFFFFFFFFFFFFFFF AND SWAP1 DUP1 PUSH1 0x2 ADD PUSH1 0x0 SWAP1 SLOAD SWAP1 PUSH2 0x100 EXP SWAP1 DIV PUSH20 0xFFFFFFFFFFFFFFFFFFFFFFFFFFFFFFFFFFFFFFFF AND SWAP1 DUP1 PUSH1 0x3 ADD SLOAD SWAP1 POP DUP5 JUMP JUMPDEST PUSH1 0x60 PUSH1 0x0 DUP1 PUSH1 0x60 PUSH1 0x2 PUSH1 0x0 DUP7 PUSH20 0xFFFFFFFFFFFFFFFFFFFFFFFFFFFFFFFFFFFFFFFF AND PUSH20 0xFFFFFFFFFFFFFFFFFFFFFFFFFFFFFFFFFFFFFFFF AND DUP2 MSTORE PUSH1 0x20 ADD SWAP1 DUP2 MSTORE PUSH1 0x20 ADD PUSH1 0x0 KECCAK256 PUSH1 0x1 ADD PUSH1 0x2 PUSH1 0x0 DUP8 PUSH20 0xFFFFFFFFFFFFFFFFFFFFFFFFFFFFFFFFFFFFFFFF AND PUSH20 0xFFFFFFFFFFFFFFFFFFFFFFFFFFFFFFFFFFFFFFFF AND DUP2 MSTORE PUSH1 0x20 ADD SWAP1 DUP2 MSTORE PUSH1 0x20 ADD PUSH1 0x0 KECCAK256 PUSH1 0x3 ADD SLOAD PUSH1 0x2 PUSH1 0x0 DUP9 PUSH20 0xFFFFFFFFFFFFFFFFFFFFFFFFFFFFFFFFFFFFFFFF AND PUSH20 0xFFFFFFFFFFFFFFFFFFFFFFFFFFFFFFFFFFFFFFFF AND DUP2 MSTORE PUSH1 0x20 ADD SWAP1 DUP2 MSTORE PUSH1 0x20 ADD PUSH1 0x0 KECCAK256 PUSH1 0x4 ADD SLOAD PUSH1 0x2 PUSH1 0x0 DUP10 PUSH20 0xFFFFFFFFFFFFFFFFFFFFFFFFFFFFFFFFFFFFFFFF AND PUSH20 0xFFFFFFFFFFFFFFFFFFFFFFFFFFFFFFFFFFFFFFFF AND DUP2 MSTORE PUSH1 0x20 ADD SWAP1 DUP2 MSTORE PUSH1 0x20 ADD PUSH1 0x0 KECCAK256 PUSH1 0x5 ADD DUP4 DUP1 SLOAD PUSH2 0x2618 SWAP1 PUSH2 0x3F43 JUMP JUMPDEST DUP1 PUSH1 0x1F ADD PUSH1 0x20 DUP1 SWAP2 DIV MUL PUSH1 0x20 ADD PUSH1 0x40 MLOAD SWAP1 DUP2 ADD PUSH1 0x40 MSTORE DUP1 SWAP3 SWAP2 SWAP1 DUP2 DUP2 MSTORE PUSH1 0x20 ADD DUP3 DUP1 SLOAD PUSH2 0x2644 SWAP1 PUSH2 0x3F43 JUMP JUMPDEST DUP1 ISZERO PUSH2 0x2691 JUMPI DUP1 PUSH1 0x1F LT PUSH2 0x2666 JUMPI PUSH2 0x100 DUP1 DUP4 SLOAD DIV MUL DUP4 MSTORE SWAP2 PUSH1 0x20 ADD SWAP2 PUSH2 0x2691 JUMP JUMPDEST DUP3 ADD SWAP2 SWAP1 PUSH1 0x0 MSTORE PUSH1 0x20 PUSH1 0x0 KECCAK256 SWAP1 JUMPDEST DUP2 SLOAD DUP2 MSTORE SWAP1 PUSH1 0x1 ADD SWAP1 PUSH1 0x20 ADD DUP1 DUP4 GT PUSH2 0x2674 JUMPI DUP3 SWAP1 SUB PUSH1 0x1F AND DUP3 ADD SWAP2 JUMPDEST POP POP POP POP POP SWAP4 POP DUP1 DUP1 SLOAD PUSH2 0x26A4 SWAP1 PUSH2 0x3F43 JUMP JUMPDEST DUP1 PUSH1 0x1F ADD PUSH1 0x20 DUP1 SWAP2 DIV MUL PUSH1 0x20 ADD PUSH1 0x40 MLOAD SWAP1 DUP2 ADD PUSH1 0x40 MSTORE DUP1 SWAP3 SWAP2 SWAP1 DUP2 DUP2 MSTORE PUSH1 0x20 ADD DUP3 DUP1 SLOAD PUSH2 0x26D0 SWAP1 PUSH2 0x3F43 JUMP JUMPDEST DUP1 ISZERO PUSH2 0x271D JUMPI DUP1 PUSH1 0x1F LT PUSH2 0x26F2 JUMPI PUSH2 0x100 DUP1 DUP4 SLOAD DIV MUL DUP4 MSTORE SWAP2 PUSH1 0x20 ADD SWAP2 PUSH2 0x271D JUMP JUMPDEST DUP3 ADD SWAP2 SWAP1 PUSH1 0x0 MSTORE PUSH1 0x20 PUSH1 0x0 KECCAK256 SWAP1 JUMPDEST DUP2 SLOAD DUP2 MSTORE SWAP1 PUSH1 0x1 ADD SWAP1 PUSH1 0x20 ADD DUP1 DUP4 GT PUSH2 0x2700 JUMPI DUP3 SWAP1 SUB PUSH1 0x1F AND DUP3 ADD SWAP2 JUMPDEST POP POP POP POP POP SWAP1 POP SWAP4 POP SWAP4 POP SWAP4 POP SWAP4 POP SWAP2 SWAP4 POP SWAP2 SWAP4 JUMP JUMPDEST PUSH1 0x0 PUSH1 0x8 PUSH1 0x0 DUP4 PUSH20 0xFFFFFFFFFFFFFFFFFFFFFFFFFFFFFFFFFFFFFFFF AND PUSH20 0xFFFFFFFFFFFFFFFFFFFFFFFFFFFFFFFFFFFFFFFF AND DUP2 MSTORE PUSH1 0x20 ADD SWAP1 DUP2 MSTORE PUSH1 0x20 ADD PUSH1 0x0 KECCAK256 PUSH1 0x0 SWAP1 SLOAD SWAP1 PUSH2 0x100 EXP SWAP1 DIV PUSH1 0xFF AND DUP1 PUSH2 0x27D6 JUMPI POP PUSH1 0xA PUSH1 0x0 DUP4 PUSH20 0xFFFFFFFFFFFFFFFFFFFFFFFFFFFFFFFFFFFFFFFF AND PUSH20 0xFFFFFFFFFFFFFFFFFFFFFFFFFFFFFFFFFFFFFFFF AND DUP2 MSTORE PUSH1 0x20 ADD SWAP1 DUP2 MSTORE PUSH1 0x20 ADD PUSH1 0x0 KECCAK256 PUSH1 0x0 SWAP1 SLOAD SWAP1 PUSH2 0x100 EXP SWAP1 DIV PUSH1 0xFF AND JUMPDEST ISZERO PUSH2 0x27E4 JUMPI PUSH1 0x1 SWAP1 POP PUSH2 0x27E5 JUMP JUMPDEST JUMPDEST SWAP2 SWAP1 POP JUMP JUMPDEST PUSH2 0x27F3 CALLER PUSH2 0x2E42 JUMP JUMPDEST PUSH2 0x27FC JUMPI PUSH1 0x0 DUP1 REVERT JUMPDEST DUP1 PUSH1 0xD PUSH1 0x0 DUP5 DUP2 MSTORE PUSH1 0x20 ADD SWAP1 DUP2 MSTORE PUSH1 0x20 ADD PUSH1 0x0 KECCAK256 PUSH1 0x0 PUSH2 0x100 EXP DUP2 SLOAD DUP2 PUSH20 0xFFFFFFFFFFFFFFFFFFFFFFFFFFFFFFFFFFFFFFFF MUL NOT AND SWAP1 DUP4 PUSH20 0xFFFFFFFFFFFFFFFFFFFFFFFFFFFFFFFFFFFFFFFF AND MUL OR SWAP1 SSTORE POP POP POP JUMP JUMPDEST PUSH1 0x0 PUSH1 0x5 PUSH1 0x0 DUP4 PUSH20 0xFFFFFFFFFFFFFFFFFFFFFFFFFFFFFFFFFFFFFFFF AND PUSH20 0xFFFFFFFFFFFFFFFFFFFFFFFFFFFFFFFFFFFFFFFF AND DUP2 MSTORE PUSH1 0x20 ADD SWAP1 DUP2 MSTORE PUSH1 0x20 ADD PUSH1 0x0 KECCAK256 PUSH1 0x0 SWAP1 SLOAD SWAP1 PUSH2 0x100 EXP SWAP1 DIV PUSH1 0xFF AND ISZERO PUSH2 0x28AF JUMPI PUSH1 0x1 SWAP1 POP PUSH2 0x28B0 JUMP JUMPDEST JUMPDEST SWAP2 SWAP1 POP JUMP JUMPDEST PUSH1 0x0 PUSH1 0x10 PUSH1 0x0 DUP4 DUP2 MSTORE PUSH1 0x20 ADD SWAP1 DUP2 MSTORE PUSH1 0x20 ADD PUSH1 0x0 KECCAK256 PUSH1 0x0 SWAP1 SLOAD SWAP1 PUSH2 0x100 EXP SWAP1 DIV PUSH1 0xFF AND ISZERO PUSH2 0x28E6 JUMPI PUSH1 0x1 SWAP1 POP PUSH2 0x28E7 JUMP JUMPDEST JUMPDEST SWAP2 SWAP1 POP JUMP JUMPDEST PUSH1 0x12 DUP2 DUP2 SLOAD DUP2 LT PUSH2 0x28FC JUMPI PUSH1 0x0 DUP1 REVERT JUMPDEST SWAP1 PUSH1 0x0 MSTORE PUSH1 0x20 PUSH1 0x0 KECCAK256 ADD PUSH1 0x0 SWAP2 POP SLOAD SWAP1 PUSH2 0x100 EXP SWAP1 DIV PUSH20 0xFFFFFFFFFFFFFFFFFFFFFFFFFFFFFFFFFFFFFFFF AND DUP2 JUMP JUMPDEST PUSH2 0x2934 CALLER PUSH2 0x2E42 JUMP JUMPDEST PUSH2 0x293D JUMPI PUSH1 0x0 DUP1 REVERT JUMPDEST PUSH1 0x1 PUSH1 0x8 PUSH1 0x0 DUP4 PUSH20 0xFFFFFFFFFFFFFFFFFFFFFFFFFFFFFFFFFFFFFFFF AND PUSH20 0xFFFFFFFFFFFFFFFFFFFFFFFFFFFFFFFFFFFFFFFF AND DUP2 MSTORE PUSH1 0x20 ADD SWAP1 DUP2 MSTORE PUSH1 0x20 ADD PUSH1 0x0 KECCAK256 PUSH1 0x0 PUSH2 0x100 EXP DUP2 SLOAD DUP2 PUSH1 0xFF MUL NOT AND SWAP1 DUP4 ISZERO ISZERO MUL OR SWAP1 SSTORE POP PUSH32 0x6A6455914F452787EB3985452ACEEDC1000FB545E394EB3B370E3D08958E0A5B DUP2 PUSH1 0x40 MLOAD PUSH2 0x29C4 SWAP2 SWAP1 PUSH2 0x35F9 JUMP JUMPDEST PUSH1 0x40 MLOAD DUP1 SWAP2 SUB SWAP1 LOG1 POP JUMP JUMPDEST PUSH1 0x60 PUSH1 0x0 DUP1 DUP4 DUP2 MSTORE PUSH1 0x20 ADD SWAP1 DUP2 MSTORE PUSH1 0x20 ADD PUSH1 0x0 KECCAK256 PUSH1 0x2 ADD DUP1 SLOAD PUSH2 0x29F1 SWAP1 PUSH2 0x3F43 JUMP JUMPDEST DUP1 PUSH1 0x1F ADD PUSH1 0x20 DUP1 SWAP2 DIV MUL PUSH1 0x20 ADD PUSH1 0x40 MLOAD SWAP1 DUP2 ADD PUSH1 0x40 MSTORE DUP1 SWAP3 SWAP2 SWAP1 DUP2 DUP2 MSTORE PUSH1 0x20 ADD DUP3 DUP1 SLOAD PUSH2 0x2A1D SWAP1 PUSH2 0x3F43 JUMP JUMPDEST DUP1 ISZERO PUSH2 0x2A6A JUMPI DUP1 PUSH1 0x1F LT PUSH2 0x2A3F JUMPI PUSH2 0x100 DUP1 DUP4 SLOAD DIV MUL DUP4 MSTORE SWAP2 PUSH1 0x20 ADD SWAP2 PUSH2 0x2A6A JUMP JUMPDEST DUP3 ADD SWAP2 SWAP1 PUSH1 0x0 MSTORE PUSH1 0x20 PUSH1 0x0 KECCAK256 SWAP1 JUMPDEST DUP2 SLOAD DUP2 MSTORE SWAP1 PUSH1 0x1 ADD SWAP1 PUSH1 0x20 ADD DUP1 DUP4 GT PUSH2 0x2A4D JUMPI DUP3 SWAP1 SUB PUSH1 0x1F AND DUP3 ADD SWAP2 JUMPDEST POP POP POP POP POP SWAP1 POP SWAP2 SWAP1 POP JUMP JUMPDEST PUSH1 0x60 PUSH1 0x12 DUP1 SLOAD DUP1 PUSH1 0x20 MUL PUSH1 0x20 ADD PUSH1 0x40 MLOAD SWAP1 DUP2 ADD PUSH1 0x40 MSTORE DUP1 SWAP3 SWAP2 SWAP1 DUP2 DUP2 MSTORE PUSH1 0x20 ADD DUP3 DUP1 SLOAD DUP1 ISZERO PUSH2 0x2AFA JUMPI PUSH1 0x20 MUL DUP3 ADD SWAP2 SWAP1 PUSH1 0x0 MSTORE PUSH1 0x20 PUSH1 0x0 KECCAK256 SWAP1 JUMPDEST DUP2 PUSH1 0x0 SWAP1 SLOAD SWAP1 PUSH2 0x100 EXP SWAP1 DIV PUSH20 0xFFFFFFFFFFFFFFFFFFFFFFFFFFFFFFFFFFFFFFFF AND PUSH20 0xFFFFFFFFFFFFFFFFFFFFFFFFFFFFFFFFFFFFFFFF AND DUP2 MSTORE PUSH1 0x20 ADD SWAP1 PUSH1 0x1 ADD SWAP1 DUP1 DUP4 GT PUSH2 0x2AB0 JUMPI JUMPDEST POP POP POP POP POP SWAP1 POP SWAP1 JUMP JUMPDEST PUSH1 0x0 PUSH1 0x16 SLOAD SWAP1 POP SWAP1 JUMP JUMPDEST PUSH1 0x2 PUSH1 0x20 MSTORE DUP1 PUSH1 0x0 MSTORE PUSH1 0x40 PUSH1 0x0 KECCAK256 PUSH1 0x0 SWAP2 POP SWAP1 POP DUP1 PUSH1 0x0 ADD PUSH1 0x0 SWAP1 SLOAD SWAP1 PUSH2 0x100 EXP SWAP1 DIV PUSH20 0xFFFFFFFFFFFFFFFFFFFFFFFFFFFFFFFFFFFFFFFF AND SWAP1 DUP1 PUSH1 0x1 ADD DUP1 SLOAD PUSH2 0x2B57 SWAP1 PUSH2 0x3F43 JUMP JUMPDEST DUP1 PUSH1 0x1F ADD PUSH1 0x20 DUP1 SWAP2 DIV MUL PUSH1 0x20 ADD PUSH1 0x40 MLOAD SWAP1 DUP2 ADD PUSH1 0x40 MSTORE DUP1 SWAP3 SWAP2 SWAP1 DUP2 DUP2 MSTORE PUSH1 0x20 ADD DUP3 DUP1 SLOAD PUSH2 0x2B83 SWAP1 PUSH2 0x3F43 JUMP JUMPDEST DUP1 ISZERO PUSH2 0x2BD0 JUMPI DUP1 PUSH1 0x1F LT PUSH2 0x2BA5 JUMPI PUSH2 0x100 DUP1 DUP4 SLOAD DIV MUL DUP4 MSTORE SWAP2 PUSH1 0x20 ADD SWAP2 PUSH2 0x2BD0 JUMP JUMPDEST DUP3 ADD SWAP2 SWAP1 PUSH1 0x0 MSTORE PUSH1 0x20 PUSH1 0x0 KECCAK256 SWAP1 JUMPDEST DUP2 SLOAD DUP2 MSTORE SWAP1 PUSH1 0x1 ADD SWAP1 PUSH1 0x20 ADD DUP1 DUP4 GT PUSH2 0x2BB3 JUMPI DUP3 SWAP1 SUB PUSH1 0x1F AND DUP3 ADD SWAP2 JUMPDEST POP POP POP POP POP SWAP1 DUP1 PUSH1 0x2 ADD DUP1 SLOAD PUSH2 0x2BE5 SWAP1 PUSH2 0x3F43 JUMP JUMPDEST DUP1 PUSH1 0x1F ADD PUSH1 0x20 DUP1 SWAP2 DIV MUL PUSH1 0x20 ADD PUSH1 0x40 MLOAD SWAP1 DUP2 ADD PUSH1 0x40 MSTORE DUP1 SWAP3 SWAP2 SWAP1 DUP2 DUP2 MSTORE PUSH1 0x20 ADD DUP3 DUP1 SLOAD PUSH2 0x2C11 SWAP1 PUSH2 0x3F43 JUMP JUMPDEST DUP1 ISZERO PUSH2 0x2C5E JUMPI DUP1 PUSH1 0x1F LT PUSH2 0x2C33 JUMPI PUSH2 0x100 DUP1 DUP4 SLOAD DIV MUL DUP4 MSTORE SWAP2 PUSH1 0x20 ADD SWAP2 PUSH2 0x2C5E JUMP JUMPDEST DUP3 ADD SWAP2 SWAP1 PUSH1 0x0 MSTORE PUSH1 0x20 PUSH1 0x0 KECCAK256 SWAP1 JUMPDEST DUP2 SLOAD DUP2 MSTORE SWAP1 PUSH1 0x1 ADD SWAP1 PUSH1 0x20 ADD DUP1 DUP4 GT PUSH2 0x2C41 JUMPI DUP3 SWAP1 SUB PUSH1 0x1F AND DUP3 ADD SWAP2 JUMPDEST POP POP POP POP POP SWAP1 DUP1 PUSH1 0x3 ADD SLOAD SWAP1 DUP1 PUSH1 0x4 ADD SLOAD SWAP1 DUP1 PUSH1 0x5 ADD DUP1 SLOAD PUSH2 0x2C7F SWAP1 PUSH2 0x3F43 JUMP JUMPDEST DUP1 PUSH1 0x1F ADD PUSH1 0x20 DUP1 SWAP2 DIV MUL PUSH1 0x20 ADD PUSH1 0x40 MLOAD SWAP1 DUP2 ADD PUSH1 0x40 MSTORE DUP1 SWAP3 SWAP2 SWAP1 DUP2 DUP2 MSTORE PUSH1 0x20 ADD DUP3 DUP1 SLOAD PUSH2 0x2CAB SWAP1 PUSH2 0x3F43 JUMP JUMPDEST DUP1 ISZERO PUSH2 0x2CF8 JUMPI DUP1 PUSH1 0x1F LT PUSH2 0x2CCD JUMPI PUSH2 0x100 DUP1 DUP4 SLOAD DIV MUL DUP4 MSTORE SWAP2 PUSH1 0x20 ADD SWAP2 PUSH2 0x2CF8 JUMP JUMPDEST DUP3 ADD SWAP2 SWAP1 PUSH1 0x0 MSTORE PUSH1 0x20 PUSH1 0x0 KECCAK256 SWAP1 JUMPDEST DUP2 SLOAD DUP2 MSTORE SWAP1 PUSH1 0x1 ADD SWAP1 PUSH1 0x20 ADD DUP1 DUP4 GT PUSH2 0x2CDB JUMPI DUP3 SWAP1 SUB PUSH1 0x1F AND DUP3 ADD SWAP2 JUMPDEST POP POP POP POP POP SWAP1 POP DUP7 JUMP JUMPDEST PUSH1 0x1 PUSH1 0x20 MSTORE DUP1 PUSH1 0x0 MSTORE PUSH1 0x40 PUSH1 0x0 KECCAK256 PUSH1 0x0 SWAP2 POP SWAP1 POP DUP1 PUSH1 0x0 ADD SLOAD SWAP1 DUP1 PUSH1 0x1 ADD DUP1 SLOAD PUSH2 0x2D2B SWAP1 PUSH2 0x3F43 JUMP JUMPDEST DUP1 PUSH1 0x1F ADD PUSH1 0x20 DUP1 SWAP2 DIV MUL PUSH1 0x20 ADD PUSH1 0x40 MLOAD SWAP1 DUP2 ADD PUSH1 0x40 MSTORE DUP1 SWAP3 SWAP2 SWAP1 DUP2 DUP2 MSTORE PUSH1 0x20 ADD DUP3 DUP1 SLOAD PUSH2 0x2D57 SWAP1 PUSH2 0x3F43 JUMP JUMPDEST DUP1 ISZERO PUSH2 0x2DA4 JUMPI DUP1 PUSH1 0x1F LT PUSH2 0x2D79 JUMPI PUSH2 0x100 DUP1 DUP4 SLOAD DIV MUL DUP4 MSTORE SWAP2 PUSH1 0x20 ADD SWAP2 PUSH2 0x2DA4 JUMP JUMPDEST DUP3 ADD SWAP2 SWAP1 PUSH1 0x0 MSTORE PUSH1 0x20 PUSH1 0x0 KECCAK256 SWAP1 JUMPDEST DUP2 SLOAD DUP2 MSTORE SWAP1 PUSH1 0x1 ADD SWAP1 PUSH1 0x20 ADD DUP1 DUP4 GT PUSH2 0x2D87 JUMPI DUP3 SWAP1 SUB PUSH1 0x1F AND DUP3 ADD SWAP2 JUMPDEST POP POP POP POP POP SWAP1 DUP1 PUSH1 0x2 ADD SLOAD SWAP1 DUP1 PUSH1 0x3 ADD DUP1 SLOAD PUSH2 0x2DBF SWAP1 PUSH2 0x3F43 JUMP JUMPDEST DUP1 PUSH1 0x1F ADD PUSH1 0x20 DUP1 SWAP2 DIV MUL PUSH1 0x20 ADD PUSH1 0x40 MLOAD SWAP1 DUP2 ADD PUSH1 0x40 MSTORE DUP1 SWAP3 SWAP2 SWAP1 DUP2 DUP2 MSTORE PUSH1 0x20 ADD DUP3 DUP1 SLOAD PUSH2 0x2DEB SWAP1 PUSH2 0x3F43 JUMP JUMPDEST DUP1 ISZERO PUSH2 0x2E38 JUMPI DUP1 PUSH1 0x1F LT PUSH2 0x2E0D JUMPI PUSH2 0x100 DUP1 DUP4 SLOAD DIV MUL DUP4 MSTORE SWAP2 PUSH1 0x20 ADD SWAP2 PUSH2 0x2E38 JUMP JUMPDEST DUP3 ADD SWAP2 SWAP1 PUSH1 0x0 MSTORE PUSH1 0x20 PUSH1 0x0 KECCAK256 SWAP1 JUMPDEST DUP2 SLOAD DUP2 MSTORE SWAP1 PUSH1 0x1 ADD SWAP1 PUSH1 0x20 ADD DUP1 DUP4 GT PUSH2 0x2E1B JUMPI DUP3 SWAP1 SUB PUSH1 0x1F AND DUP3 ADD SWAP2 JUMPDEST POP POP POP POP POP SWAP1 POP DUP5 JUMP JUMPDEST PUSH1 0x0 DUP2 PUSH20 0xFFFFFFFFFFFFFFFFFFFFFFFFFFFFFFFFFFFFFFFF AND PUSH1 0x11 PUSH1 0x0 SWAP1 SLOAD SWAP1 PUSH2 0x100 EXP SWAP1 DIV PUSH20 0xFFFFFFFFFFFFFFFFFFFFFFFFFFFFFFFFFFFFFFFF AND PUSH20 0xFFFFFFFFFFFFFFFFFFFFFFFFFFFFFFFFFFFFFFFF AND SUB PUSH2 0x2EA2 JUMPI PUSH1 0x1 SWAP1 POP PUSH2 0x2EA7 JUMP JUMPDEST PUSH1 0x0 SWAP1 POP JUMPDEST SWAP2 SWAP1 POP JUMP JUMPDEST PUSH2 0x2EB5 CALLER PUSH2 0x2E42 JUMP JUMPDEST PUSH2 0x2EBE JUMPI PUSH1 0x0 DUP1 REVERT JUMPDEST PUSH1 0x1 PUSH1 0x9 PUSH1 0x0 DUP4 PUSH20 0xFFFFFFFFFFFFFFFFFFFFFFFFFFFFFFFFFFFFFFFF AND PUSH20 0xFFFFFFFFFFFFFFFFFFFFFFFFFFFFFFFFFFFFFFFF AND DUP2 MSTORE PUSH1 0x20 ADD SWAP1 DUP2 MSTORE PUSH1 0x20 ADD PUSH1 0x0 KECCAK256 PUSH1 0x0 PUSH2 0x100 EXP DUP2 SLOAD DUP2 PUSH1 0xFF MUL NOT AND SWAP1 DUP4 ISZERO ISZERO MUL OR SWAP1 SSTORE POP PUSH32 0xAF77F8960CF590E245EC8B6D41C193A5DCACAD8986AE4EB57AC9E5BE7B6AF031 DUP2 PUSH1 0x40 MLOAD PUSH2 0x2F45 SWAP2 SWAP1 PUSH2 0x35F9 JUMP JUMPDEST PUSH1 0x40 MLOAD DUP1 SWAP2 SUB SWAP1 LOG1 POP JUMP JUMPDEST PUSH1 0x0 PUSH1 0x20 MSTORE DUP1 PUSH1 0x0 MSTORE PUSH1 0x40 PUSH1 0x0 KECCAK256 PUSH1 0x0 SWAP2 POP SWAP1 POP DUP1 PUSH1 0x0 ADD SLOAD SWAP1 DUP1 PUSH1 0x1 ADD SLOAD SWAP1 DUP1 PUSH1 0x2 ADD DUP1 SLOAD PUSH2 0x2F7F SWAP1 PUSH2 0x3F43 JUMP JUMPDEST DUP1 PUSH1 0x1F ADD PUSH1 0x20 DUP1 SWAP2 DIV MUL PUSH1 0x20 ADD PUSH1 0x40 MLOAD SWAP1 DUP2 ADD PUSH1 0x40 MSTORE DUP1 SWAP3 SWAP2 SWAP1 DUP2 DUP2 MSTORE PUSH1 0x20 ADD DUP3 DUP1 SLOAD PUSH2 0x2FAB SWAP1 PUSH2 0x3F43 JUMP JUMPDEST DUP1 ISZERO PUSH2 0x2FF8 JUMPI DUP1 PUSH1 0x1F LT PUSH2 0x2FCD JUMPI PUSH2 0x100 DUP1 DUP4 SLOAD DIV MUL DUP4 MSTORE SWAP2 PUSH1 0x20 ADD SWAP2 PUSH2 0x2FF8 JUMP JUMPDEST DUP3 ADD SWAP2 SWAP1 PUSH1 0x0 MSTORE PUSH1 0x20 PUSH1 0x0 KECCAK256 SWAP1 JUMPDEST DUP2 SLOAD DUP2 MSTORE SWAP1 PUSH1 0x1 ADD SWAP1 PUSH1 0x20 ADD DUP1 DUP4 GT PUSH2 0x2FDB JUMPI DUP3 SWAP1 SUB PUSH1 0x1F AND DUP3 ADD SWAP2 JUMPDEST POP POP POP POP POP SWAP1 DUP1 PUSH1 0x3 ADD DUP1 SLOAD PUSH2 0x300D SWAP1 PUSH2 0x3F43 JUMP JUMPDEST DUP1 PUSH1 0x1F ADD PUSH1 0x20 DUP1 SWAP2 DIV MUL PUSH1 0x20 ADD PUSH1 0x40 MLOAD SWAP1 DUP2 ADD PUSH1 0x40 MSTORE DUP1 SWAP3 SWAP2 SWAP1 DUP2 DUP2 MSTORE PUSH1 0x20 ADD DUP3 DUP1 SLOAD PUSH2 0x3039 SWAP1 PUSH2 0x3F43 JUMP JUMPDEST DUP1 ISZERO PUSH2 0x3086 JUMPI DUP1 PUSH1 0x1F LT PUSH2 0x305B JUMPI PUSH2 0x100 DUP1 DUP4 SLOAD DIV MUL DUP4 MSTORE SWAP2 PUSH1 0x20 ADD SWAP2 PUSH2 0x3086 JUMP JUMPDEST DUP3 ADD SWAP2 SWAP1 PUSH1 0x0 MSTORE PUSH1 0x20 PUSH1 0x0 KECCAK256 SWAP1 JUMPDEST DUP2 SLOAD DUP2 MSTORE SWAP1 PUSH1 0x1 ADD SWAP1 PUSH1 0x20 ADD DUP1 DUP4 GT PUSH2 0x3069 JUMPI DUP3 SWAP1 SUB PUSH1 0x1F AND DUP3 ADD SWAP2 JUMPDEST POP POP POP POP POP SWAP1 DUP1 PUSH1 0x4 ADD SLOAD SWAP1 DUP1 PUSH1 0x5 ADD SLOAD SWAP1 POP DUP7 JUMP JUMPDEST PUSH1 0x5 PUSH1 0x0 CALLER PUSH20 0xFFFFFFFFFFFFFFFFFFFFFFFFFFFFFFFFFFFFFFFF AND PUSH20 0xFFFFFFFFFFFFFFFFFFFFFFFFFFFFFFFFFFFFFFFF AND DUP2 MSTORE PUSH1 0x20 ADD SWAP1 DUP2 MSTORE PUSH1 0x20 ADD PUSH1 0x0 KECCAK256 PUSH1 0x0 SWAP1 SLOAD SWAP1 PUSH2 0x100 EXP SWAP1 DIV PUSH1 0xFF AND DUP1 ISZERO PUSH2 0x3182 JUMPI POP CALLER PUSH20 0xFFFFFFFFFFFFFFFFFFFFFFFFFFFFFFFFFFFFFFFF AND PUSH1 0x3 PUSH1 0x0 CALLER PUSH20 0xFFFFFFFFFFFFFFFFFFFFFFFFFFFFFFFFFFFFFFFF AND PUSH20 0xFFFFFFFFFFFFFFFFFFFFFFFFFFFFFFFFFFFFFFFF AND DUP2 MSTORE PUSH1 0x20 ADD SWAP1 DUP2 MSTORE PUSH1 0x20 ADD PUSH1 0x0 KECCAK256 PUSH1 0x0 ADD PUSH1 0x0 SWAP1 SLOAD SWAP1 PUSH2 0x100 EXP SWAP1 DIV PUSH20 0xFFFFFFFFFFFFFFFFFFFFFFFFFFFFFFFFFFFFFFFF AND PUSH20 0xFFFFFFFFFFFFFFFFFFFFFFFFFFFFFFFFFFFFFFFF AND EQ JUMPDEST PUSH2 0x318B JUMPI PUSH1 0x0 DUP1 REVERT JUMPDEST DUP5 PUSH1 0x3 PUSH1 0x0 CALLER PUSH20 0xFFFFFFFFFFFFFFFFFFFFFFFFFFFFFFFFFFFFFFFF AND PUSH20 0xFFFFFFFFFFFFFFFFFFFFFFFFFFFFFFFFFFFFFFFF AND DUP2 MSTORE PUSH1 0x20 ADD SWAP1 DUP2 MSTORE PUSH1 0x20 ADD PUSH1 0x0 KECCAK256 PUSH1 0x1 ADD SWAP1 DUP2 PUSH2 0x31DA SWAP2 SWAP1 PUSH2 0x4120 JUMP JUMPDEST POP DUP4 PUSH1 0x3 PUSH1 0x0 CALLER PUSH20 0xFFFFFFFFFFFFFFFFFFFFFFFFFFFFFFFFFFFFFFFF AND PUSH20 0xFFFFFFFFFFFFFFFFFFFFFFFFFFFFFFFFFFFFFFFF AND DUP2 MSTORE PUSH1 0x20 ADD SWAP1 DUP2 MSTORE PUSH1 0x20 ADD PUSH1 0x0 KECCAK256 PUSH1 0x2 ADD DUP2 SWAP1 SSTORE POP DUP3 PUSH1 0x3 PUSH1 0x0 CALLER PUSH20 0xFFFFFFFFFFFFFFFFFFFFFFFFFFFFFFFFFFFFFFFF AND PUSH20 0xFFFFFFFFFFFFFFFFFFFFFFFFFFFFFFFFFFFFFFFF AND DUP2 MSTORE PUSH1 0x20 ADD SWAP1 DUP2 MSTORE PUSH1 0x20 ADD PUSH1 0x0 KECCAK256 PUSH1 0x3 ADD SWAP1 DUP2 PUSH2 0x3271 SWAP2 SWAP1 PUSH2 0x4120 JUMP JUMPDEST POP DUP2 PUSH1 0x3 PUSH1 0x0 CALLER PUSH20 0xFFFFFFFFFFFFFFFFFFFFFFFFFFFFFFFFFFFFFFFF AND PUSH20 0xFFFFFFFFFFFFFFFFFFFFFFFFFFFFFFFFFFFFFFFF AND DUP2 MSTORE PUSH1 0x20 ADD SWAP1 DUP2 MSTORE PUSH1 0x20 ADD PUSH1 0x0 KECCAK256 PUSH1 0x4 ADD DUP2 SWAP1 SSTORE POP DUP1 PUSH1 0x3 PUSH1 0x0 CALLER PUSH20 0xFFFFFFFFFFFFFFFFFFFFFFFFFFFFFFFFFFFFFFFF AND PUSH20 0xFFFFFFFFFFFFFFFFFFFFFFFFFFFFFFFFFFFFFFFF AND DUP2 MSTORE PUSH1 0x20 ADD SWAP1 DUP2 MSTORE PUSH1 0x20 ADD PUSH1 0x0 KECCAK256 PUSH1 0x5 ADD SWAP1 DUP2 PUSH2 0x3308 SWAP2 SWAP1 PUSH2 0x4120 JUMP JUMPDEST POP POP POP POP POP POP JUMP JUMPDEST PUSH1 0x8 PUSH1 0x20 MSTORE DUP1 PUSH1 0x0 MSTORE PUSH1 0x40 PUSH1 0x0 KECCAK256 PUSH1 0x0 SWAP2 POP SLOAD SWAP1 PUSH2 0x100 EXP SWAP1 DIV PUSH1 0xFF AND DUP2 JUMP JUMPDEST PUSH1 0x0 DUP1 PUSH1 0x0 DUP4 DUP2 MSTORE PUSH1 0x20 ADD SWAP1 DUP2 MSTORE PUSH1 0x20 ADD PUSH1 0x0 KECCAK256 PUSH1 0x4 ADD SLOAD SWAP1 POP SWAP2 SWAP1 POP JUMP JUMPDEST PUSH1 0x0 PUSH1 0x6 PUSH1 0x0 DUP4 PUSH20 0xFFFFFFFFFFFFFFFFFFFFFFFFFFFFFFFFFFFFFFFF AND PUSH20 0xFFFFFFFFFFFFFFFFFFFFFFFFFFFFFFFFFFFFFFFF AND DUP2 MSTORE PUSH1 0x20 ADD SWAP1 DUP2 MSTORE PUSH1 0x20 ADD PUSH1 0x0 KECCAK256 PUSH1 0x0 SWAP1 SLOAD SWAP1 PUSH2 0x100 EXP SWAP1 DIV PUSH1 0xFF AND ISZERO PUSH2 0x33AC JUMPI PUSH1 0x1 SWAP1 POP PUSH2 0x33AD JUMP JUMPDEST JUMPDEST SWAP2 SWAP1 POP JUMP JUMPDEST PUSH1 0x0 PUSH1 0x17 SLOAD SWAP1 POP SWAP1 JUMP JUMPDEST PUSH1 0x13 DUP2 DUP2 SLOAD DUP2 LT PUSH2 0x33CC JUMPI PUSH1 0x0 DUP1 REVERT JUMPDEST SWAP1 PUSH1 0x0 MSTORE PUSH1 0x20 PUSH1 0x0 KECCAK256 ADD PUSH1 0x0 SWAP2 POP SLOAD SWAP1 PUSH2 0x100 EXP SWAP1 DIV PUSH20 0xFFFFFFFFFFFFFFFFFFFFFFFFFFFFFFFFFFFFFFFF AND DUP2 JUMP JUMPDEST PUSH1 0x0 DUP1 PUSH1 0x0 DUP1 PUSH1 0x4 PUSH1 0x0 DUP7 DUP2 MSTORE PUSH1 0x20 ADD SWAP1 DUP2 MSTORE PUSH1 0x20 ADD PUSH1 0x0 KECCAK256 PUSH1 0x1 ADD PUSH1 0x0 SWAP1 SLOAD SWAP1 PUSH2 0x100 EXP SWAP1 DIV PUSH20 0xFFFFFFFFFFFFFFFFFFFFFFFFFFFFFFFFFFFFFFFF AND PUSH1 0x4 PUSH1 0x0 DUP8 DUP2 MSTORE PUSH1 0x20 ADD SWAP1 DUP2 MSTORE PUSH1 0x20 ADD PUSH1 0x0 KECCAK256 PUSH1 0x2 ADD PUSH1 0x0 SWAP1 SLOAD SWAP1 PUSH2 0x100 EXP SWAP1 DIV PUSH20 0xFFFFFFFFFFFFFFFFFFFFFFFFFFFFFFFFFFFFFFFF AND PUSH1 0x4 PUSH1 0x0 DUP9 DUP2 MSTORE PUSH1 0x20 ADD SWAP1 DUP2 MSTORE PUSH1 0x20 ADD PUSH1 0x0 KECCAK256 PUSH1 0x3 ADD SLOAD PUSH1 0xE PUSH1 0x0 DUP10 DUP2 MSTORE PUSH1 0x20 ADD SWAP1 DUP2 MSTORE PUSH1 0x20 ADD PUSH1 0x0 KECCAK256 PUSH1 0x0 SWAP1 SLOAD SWAP1 PUSH2 0x100 EXP SWAP1 DIV PUSH1 0xFF AND SWAP4 POP SWAP4 POP SWAP4 POP SWAP4 POP SWAP2 SWAP4 POP SWAP2 SWAP4 JUMP JUMPDEST PUSH1 0x5 PUSH1 0x20 MSTORE DUP1 PUSH1 0x0 MSTORE PUSH1 0x40 PUSH1 0x0 KECCAK256 PUSH1 0x0 SWAP2 POP SLOAD SWAP1 PUSH2 0x100 EXP SWAP1 DIV PUSH1 0xFF AND DUP2 JUMP JUMPDEST PUSH2 0x34DF CALLER PUSH2 0x2E42 JUMP JUMPDEST PUSH2 0x34E8 JUMPI PUSH1 0x0 DUP1 REVERT JUMPDEST PUSH1 0x1 PUSH1 0xC PUSH1 0x0 DUP4 DUP2 MSTORE PUSH1 0x20 ADD SWAP1 DUP2 MSTORE PUSH1 0x20 ADD PUSH1 0x0 KECCAK256 PUSH1 0x0 PUSH2 0x100 EXP DUP2 SLOAD DUP2 PUSH1 0xFF MUL NOT AND SWAP1 DUP4 ISZERO ISZERO MUL OR SWAP1 SSTORE POP POP JUMP JUMPDEST PUSH1 0x0 PUSH1 0x40 MLOAD SWAP1 POP SWAP1 JUMP JUMPDEST PUSH1 0x0 DUP1 REVERT JUMPDEST PUSH1 0x0 DUP1 REVERT JUMPDEST PUSH1 0x0 DUP2 SWAP1 POP SWAP2 SWAP1 POP JUMP JUMPDEST PUSH2 0x353E DUP2 PUSH2 0x352B JUMP JUMPDEST DUP2 EQ PUSH2 0x3549 JUMPI PUSH1 0x0 DUP1 REVERT JUMPDEST POP JUMP JUMPDEST PUSH1 0x0 DUP2 CALLDATALOAD SWAP1 POP PUSH2 0x355B DUP2 PUSH2 0x3535 JUMP JUMPDEST SWAP3 SWAP2 POP POP JUMP JUMPDEST PUSH1 0x0 PUSH1 0x20 DUP3 DUP5 SUB SLT ISZERO PUSH2 0x3577 JUMPI PUSH2 0x3576 PUSH2 0x3521 JUMP JUMPDEST JUMPDEST PUSH1 0x0 PUSH2 0x3585 DUP5 DUP3 DUP6 ADD PUSH2 0x354C JUMP JUMPDEST SWAP2 POP POP SWAP3 SWAP2 POP POP JUMP JUMPDEST PUSH2 0x3597 DUP2 PUSH2 0x352B JUMP JUMPDEST DUP3 MSTORE POP POP JUMP JUMPDEST PUSH1 0x0 PUSH1 0x20 DUP3 ADD SWAP1 POP PUSH2 0x35B2 PUSH1 0x0 DUP4 ADD DUP5 PUSH2 0x358E JUMP JUMPDEST SWAP3 SWAP2 POP POP JUMP JUMPDEST PUSH1 0x0 PUSH20 0xFFFFFFFFFFFFFFFFFFFFFFFFFFFFFFFFFFFFFFFF DUP3 AND SWAP1 POP SWAP2 SWAP1 POP JUMP JUMPDEST PUSH1 0x0 PUSH2 0x35E3 DUP3 PUSH2 0x35B8 JUMP JUMPDEST SWAP1 POP SWAP2 SWAP1 POP JUMP JUMPDEST PUSH2 0x35F3 DUP2 PUSH2 0x35D8 JUMP JUMPDEST DUP3 MSTORE POP POP JUMP JUMPDEST PUSH1 0x0 PUSH1 0x20 DUP3 ADD SWAP1 POP PUSH2 0x360E PUSH1 0x0 DUP4 ADD DUP5 PUSH2 0x35EA JUMP JUMPDEST SWAP3 SWAP2 POP POP JUMP JUMPDEST PUSH1 0x0 DUP1 REVERT JUMPDEST PUSH1 0x0 DUP1 REVERT JUMPDEST PUSH1 0x0 PUSH1 0x1F NOT PUSH1 0x1F DUP4 ADD AND SWAP1 POP SWAP2 SWAP1 POP JUMP JUMPDEST PUSH32 0x4E487B7100000000000000000000000000000000000000000000000000000000 PUSH1 0x0 MSTORE PUSH1 0x41 PUSH1 0x4 MSTORE PUSH1 0x24 PUSH1 0x0 REVERT JUMPDEST PUSH2 0x3667 DUP3 PUSH2 0x361E JUMP JUMPDEST DUP2 ADD DUP2 DUP2 LT PUSH8 0xFFFFFFFFFFFFFFFF DUP3 GT OR ISZERO PUSH2 0x3686 JUMPI PUSH2 0x3685 PUSH2 0x362F JUMP JUMPDEST JUMPDEST DUP1 PUSH1 0x40 MSTORE POP POP POP JUMP JUMPDEST PUSH1 0x0 PUSH2 0x3699 PUSH2 0x3517 JUMP JUMPDEST SWAP1 POP PUSH2 0x36A5 DUP3 DUP3 PUSH2 0x365E JUMP JUMPDEST SWAP2 SWAP1 POP JUMP JUMPDEST PUSH1 0x0 PUSH8 0xFFFFFFFFFFFFFFFF DUP3 GT ISZERO PUSH2 0x36C5 JUMPI PUSH2 0x36C4 PUSH2 0x362F JUMP JUMPDEST JUMPDEST PUSH2 0x36CE DUP3 PUSH2 0x361E JUMP JUMPDEST SWAP1 POP PUSH1 0x20 DUP2 ADD SWAP1 POP SWAP2 SWAP1 POP JUMP JUMPDEST DUP3 DUP2 DUP4 CALLDATACOPY PUSH1 0x0 DUP4 DUP4 ADD MSTORE POP POP POP JUMP JUMPDEST PUSH1 0x0 PUSH2 0x36FD PUSH2 0x36F8 DUP5 PUSH2 0x36AA JUMP JUMPDEST PUSH2 0x368F JUMP JUMPDEST SWAP1 POP DUP3 DUP2 MSTORE PUSH1 0x20 DUP2 ADD DUP5 DUP5 DUP5 ADD GT ISZERO PUSH2 0x3719 JUMPI PUSH2 0x3718 PUSH2 0x3619 JUMP JUMPDEST JUMPDEST PUSH2 0x3724 DUP5 DUP3 DUP6 PUSH2 0x36DB JUMP JUMPDEST POP SWAP4 SWAP3 POP POP POP JUMP JUMPDEST PUSH1 0x0 DUP3 PUSH1 0x1F DUP4 ADD SLT PUSH2 0x3741 JUMPI PUSH2 0x3740 PUSH2 0x3614 JUMP JUMPDEST JUMPDEST DUP2 CALLDATALOAD PUSH2 0x3751 DUP5 DUP3 PUSH1 0x20 DUP7 ADD PUSH2 0x36EA JUMP JUMPDEST SWAP2 POP POP SWAP3 SWAP2 POP POP JUMP JUMPDEST PUSH1 0x0 DUP1 PUSH1 0x0 DUP1 PUSH1 0x0 PUSH1 0xA0 DUP7 DUP9 SUB SLT ISZERO PUSH2 0x3776 JUMPI PUSH2 0x3775 PUSH2 0x3521 JUMP JUMPDEST JUMPDEST PUSH1 0x0 DUP7 ADD CALLDATALOAD PUSH8 0xFFFFFFFFFFFFFFFF DUP2 GT ISZERO PUSH2 0x3794 JUMPI PUSH2 0x3793 PUSH2 0x3526 JUMP JUMPDEST JUMPDEST PUSH2 0x37A0 DUP9 DUP3 DUP10 ADD PUSH2 0x372C JUMP JUMPDEST SWAP6 POP POP PUSH1 0x20 PUSH2 0x37B1 DUP9 DUP3 DUP10 ADD PUSH2 0x354C JUMP JUMPDEST SWAP5 POP POP PUSH1 0x40 DUP7 ADD CALLDATALOAD PUSH8 0xFFFFFFFFFFFFFFFF DUP2 GT ISZERO PUSH2 0x37D2 JUMPI PUSH2 0x37D1 PUSH2 0x3526 JUMP JUMPDEST JUMPDEST PUSH2 0x37DE DUP9 DUP3 DUP10 ADD PUSH2 0x372C JUMP JUMPDEST SWAP4 POP POP PUSH1 0x60 PUSH2 0x37EF DUP9 DUP3 DUP10 ADD PUSH2 0x354C JUMP JUMPDEST SWAP3 POP POP PUSH1 0x80 DUP7 ADD CALLDATALOAD PUSH8 0xFFFFFFFFFFFFFFFF DUP2 GT ISZERO PUSH2 0x3810 JUMPI PUSH2 0x380F PUSH2 0x3526 JUMP JUMPDEST JUMPDEST PUSH2 0x381C DUP9 DUP3 DUP10 ADD PUSH2 0x372C JUMP JUMPDEST SWAP2 POP POP SWAP3 SWAP6 POP SWAP3 SWAP6 SWAP1 SWAP4 POP JUMP JUMPDEST PUSH1 0x0 DUP2 ISZERO ISZERO SWAP1 POP SWAP2 SWAP1 POP JUMP JUMPDEST PUSH2 0x383E DUP2 PUSH2 0x3829 JUMP JUMPDEST DUP3 MSTORE POP POP JUMP JUMPDEST PUSH1 0x0 PUSH1 0x20 DUP3 ADD SWAP1 POP PUSH2 0x3859 PUSH1 0x0 DUP4 ADD DUP5 PUSH2 0x3835 JUMP JUMPDEST SWAP3 SWAP2 POP POP JUMP JUMPDEST PUSH2 0x3868 DUP2 PUSH2 0x35D8 JUMP JUMPDEST DUP2 EQ PUSH2 0x3873 JUMPI PUSH1 0x0 DUP1 REVERT JUMPDEST POP JUMP JUMPDEST PUSH1 0x0 DUP2 CALLDATALOAD SWAP1 POP PUSH2 0x3885 DUP2 PUSH2 0x385F JUMP JUMPDEST SWAP3 SWAP2 POP POP JUMP JUMPDEST PUSH1 0x0 PUSH1 0x20 DUP3 DUP5 SUB SLT ISZERO PUSH2 0x38A1 JUMPI PUSH2 0x38A0 PUSH2 0x3521 JUMP JUMPDEST JUMPDEST PUSH1 0x0 PUSH2 0x38AF DUP5 DUP3 DUP6 ADD PUSH2 0x3876 JUMP JUMPDEST SWAP2 POP POP SWAP3 SWAP2 POP POP JUMP JUMPDEST PUSH1 0x0 DUP2 MLOAD SWAP1 POP SWAP2 SWAP1 POP JUMP JUMPDEST PUSH1 0x0 DUP3 DUP3 MSTORE PUSH1 0x20 DUP3 ADD SWAP1 POP SWAP3 SWAP2 POP POP JUMP JUMPDEST PUSH1 0x0 JUMPDEST DUP4 DUP2 LT ISZERO PUSH2 0x38F2 JUMPI DUP1 DUP3 ADD MLOAD DUP2 DUP5 ADD MSTORE PUSH1 0x20 DUP2 ADD SWAP1 POP PUSH2 0x38D7 JUMP JUMPDEST PUSH1 0x0 DUP5 DUP5 ADD MSTORE POP POP POP POP JUMP JUMPDEST PUSH1 0x0 PUSH2 0x3909 DUP3 PUSH2 0x38B8 JUMP JUMPDEST PUSH2 0x3913 DUP2 DUP6 PUSH2 0x38C3 JUMP JUMPDEST SWAP4 POP PUSH2 0x3923 DUP2 DUP6 PUSH1 0x20 DUP7 ADD PUSH2 0x38D4 JUMP JUMPDEST PUSH2 0x392C DUP2 PUSH2 0x361E JUMP JUMPDEST DUP5 ADD SWAP2 POP POP SWAP3 SWAP2 POP POP JUMP JUMPDEST PUSH1 0x0 PUSH1 0x20 DUP3 ADD SWAP1 POP DUP2 DUP2 SUB PUSH1 0x0 DUP4 ADD MSTORE PUSH2 0x3951 DUP2 DUP5 PUSH2 0x38FE JUMP JUMPDEST SWAP1 POP SWAP3 SWAP2 POP POP JUMP JUMPDEST PUSH1 0x0 DUP2 MLOAD SWAP1 POP SWAP2 SWAP1 POP JUMP JUMPDEST PUSH1 0x0 DUP3 DUP3 MSTORE PUSH1 0x20 DUP3 ADD SWAP1 POP SWAP3 SWAP2 POP POP JUMP JUMPDEST PUSH1 0x0 DUP2 SWAP1 POP PUSH1 0x20 DUP3 ADD SWAP1 POP SWAP2 SWAP1 POP JUMP JUMPDEST PUSH2 0x398E DUP2 PUSH2 0x35D8 JUMP JUMPDEST DUP3 MSTORE POP POP JUMP JUMPDEST PUSH1 0x0 PUSH2 0x39A0 DUP4 DUP4 PUSH2 0x3985 JUMP JUMPDEST PUSH1 0x20 DUP4 ADD SWAP1 POP SWAP3 SWAP2 POP POP JUMP JUMPDEST PUSH1 0x0 PUSH1 0x20 DUP3 ADD SWAP1 POP SWAP2 SWAP1 POP JUMP JUMPDEST PUSH1 0x0 PUSH2 0x39C4 DUP3 PUSH2 0x3959 JUMP JUMPDEST PUSH2 0x39CE DUP2 DUP6 PUSH2 0x3964 JUMP JUMPDEST SWAP4 POP PUSH2 0x39D9 DUP4 PUSH2 0x3975 JUMP JUMPDEST DUP1 PUSH1 0x0 JUMPDEST DUP4 DUP2 LT ISZERO PUSH2 0x3A0A JUMPI DUP2 MLOAD PUSH2 0x39F1 DUP9 DUP3 PUSH2 0x3994 JUMP JUMPDEST SWAP8 POP PUSH2 0x39FC DUP4 PUSH2 0x39AC JUMP JUMPDEST SWAP3 POP POP PUSH1 0x1 DUP2 ADD SWAP1 POP PUSH2 0x39DD JUMP JUMPDEST POP DUP6 SWAP4 POP POP POP POP SWAP3 SWAP2 POP POP JUMP JUMPDEST PUSH1 0x0 PUSH1 0x20 DUP3 ADD SWAP1 POP DUP2 DUP2 SUB PUSH1 0x0 DUP4 ADD MSTORE PUSH2 0x3A31 DUP2 DUP5 PUSH2 0x39B9 JUMP JUMPDEST SWAP1 POP SWAP3 SWAP2 POP POP JUMP JUMPDEST PUSH1 0x0 PUSH2 0x3A44 DUP3 PUSH2 0x35B8 JUMP JUMPDEST SWAP1 POP SWAP2 SWAP1 POP JUMP JUMPDEST PUSH2 0x3A54 DUP2 PUSH2 0x3A39 JUMP JUMPDEST DUP2 EQ PUSH2 0x3A5F JUMPI PUSH1 0x0 DUP1 REVERT JUMPDEST POP JUMP JUMPDEST PUSH1 0x0 DUP2 CALLDATALOAD SWAP1 POP PUSH2 0x3A71 DUP2 PUSH2 0x3A4B JUMP JUMPDEST SWAP3 SWAP2 POP POP JUMP JUMPDEST PUSH1 0x0 DUP1 PUSH1 0x40 DUP4 DUP6 SUB SLT ISZERO PUSH2 0x3A8E JUMPI PUSH2 0x3A8D PUSH2 0x3521 JUMP JUMPDEST JUMPDEST PUSH1 0x0 PUSH2 0x3A9C DUP6 DUP3 DUP7 ADD PUSH2 0x3A62 JUMP JUMPDEST SWAP3 POP POP PUSH1 0x20 PUSH2 0x3AAD DUP6 DUP3 DUP7 ADD PUSH2 0x354C JUMP JUMPDEST SWAP2 POP POP SWAP3 POP SWAP3 SWAP1 POP JUMP JUMPDEST PUSH1 0x0 PUSH1 0xA0 DUP3 ADD SWAP1 POP DUP2 DUP2 SUB PUSH1 0x0 DUP4 ADD MSTORE PUSH2 0x3AD1 DUP2 DUP9 PUSH2 0x38FE JUMP JUMPDEST SWAP1 POP DUP2 DUP2 SUB PUSH1 0x20 DUP4 ADD MSTORE PUSH2 0x3AE5 DUP2 DUP8 PUSH2 0x38FE JUMP JUMPDEST SWAP1 POP PUSH2 0x3AF4 PUSH1 0x40 DUP4 ADD DUP7 PUSH2 0x358E JUMP JUMPDEST DUP2 DUP2 SUB PUSH1 0x60 DUP4 ADD MSTORE PUSH2 0x3B06 DUP2 DUP6 PUSH2 0x38FE JUMP JUMPDEST SWAP1 POP PUSH2 0x3B15 PUSH1 0x80 DUP4 ADD DUP5 PUSH2 0x358E JUMP JUMPDEST SWAP7 SWAP6 POP POP POP POP POP POP JUMP JUMPDEST PUSH1 0x0 DUP1 PUSH1 0x0 DUP1 PUSH1 0x0 PUSH1 0xA0 DUP7 DUP9 SUB SLT ISZERO PUSH2 0x3B3B JUMPI PUSH2 0x3B3A PUSH2 0x3521 JUMP JUMPDEST JUMPDEST PUSH1 0x0 PUSH2 0x3B49 DUP9 DUP3 DUP10 ADD PUSH2 0x354C JUMP JUMPDEST SWAP6 POP POP PUSH1 0x20 DUP7 ADD CALLDATALOAD PUSH8 0xFFFFFFFFFFFFFFFF DUP2 GT ISZERO PUSH2 0x3B6A JUMPI PUSH2 0x3B69 PUSH2 0x3526 JUMP JUMPDEST JUMPDEST PUSH2 0x3B76 DUP9 DUP3 DUP10 ADD PUSH2 0x372C JUMP JUMPDEST SWAP5 POP POP PUSH1 0x40 DUP7 ADD CALLDATALOAD PUSH8 0xFFFFFFFFFFFFFFFF DUP2 GT ISZERO PUSH2 0x3B97 JUMPI PUSH2 0x3B96 PUSH2 0x3526 JUMP JUMPDEST JUMPDEST PUSH2 0x3BA3 DUP9 DUP3 DUP10 ADD PUSH2 0x372C JUMP JUMPDEST SWAP4 POP POP PUSH1 0x60 PUSH2 0x3BB4 DUP9 DUP3 DUP10 ADD PUSH2 0x354C JUMP JUMPDEST SWAP3 POP POP PUSH1 0x80 PUSH2 0x3BC5 DUP9 DUP3 DUP10 ADD PUSH2 0x354C JUMP JUMPDEST SWAP2 POP POP SWAP3 SWAP6 POP SWAP3 SWAP6 SWAP1 SWAP4 POP JUMP JUMPDEST PUSH1 0x0 PUSH1 0xC0 DUP3 ADD SWAP1 POP PUSH2 0x3BE7 PUSH1 0x0 DUP4 ADD DUP10 PUSH2 0x35EA JUMP JUMPDEST DUP2 DUP2 SUB PUSH1 0x20 DUP4 ADD MSTORE PUSH2 0x3BF9 DUP2 DUP9 PUSH2 0x38FE JUMP JUMPDEST SWAP1 POP PUSH2 0x3C08 PUSH1 0x40 DUP4 ADD DUP8 PUSH2 0x358E JUMP JUMPDEST DUP2 DUP2 SUB PUSH1 0x60 DUP4 ADD MSTORE PUSH2 0x3C1A DUP2 DUP7 PUSH2 0x38FE JUMP JUMPDEST SWAP1 POP PUSH2 0x3C29 PUSH1 0x80 DUP4 ADD DUP6 PUSH2 0x358E JUMP JUMPDEST DUP2 DUP2 SUB PUSH1 0xA0 DUP4 ADD MSTORE PUSH2 0x3C3B DUP2 DUP5 PUSH2 0x38FE JUMP JUMPDEST SWAP1 POP SWAP8 SWAP7 POP POP POP POP POP POP POP JUMP JUMPDEST PUSH1 0x0 PUSH1 0x80 DUP3 ADD SWAP1 POP PUSH2 0x3C5D PUSH1 0x0 DUP4 ADD DUP8 PUSH2 0x358E JUMP JUMPDEST PUSH2 0x3C6A PUSH1 0x20 DUP4 ADD DUP7 PUSH2 0x35EA JUMP JUMPDEST PUSH2 0x3C77 PUSH1 0x40 DUP4 ADD DUP6 PUSH2 0x35EA JUMP JUMPDEST PUSH2 0x3C84 PUSH1 0x60 DUP4 ADD DUP5 PUSH2 0x358E JUMP JUMPDEST SWAP6 SWAP5 POP POP POP POP POP JUMP JUMPDEST PUSH1 0x0 PUSH1 0x80 DUP3 ADD SWAP1 POP DUP2 DUP2 SUB PUSH1 0x0 DUP4 ADD MSTORE PUSH2 0x3CA7 DUP2 DUP8 PUSH2 0x38FE JUMP JUMPDEST SWAP1 POP PUSH2 0x3CB6 PUSH1 0x20 DUP4 ADD DUP7 PUSH2 0x358E JUMP JUMPDEST PUSH2 0x3CC3 PUSH1 0x40 DUP4 ADD DUP6 PUSH2 0x358E JUMP JUMPDEST DUP2 DUP2 SUB PUSH1 0x60 DUP4 ADD MSTORE PUSH2 0x3CD5 DUP2 DUP5 PUSH2 0x38FE JUMP JUMPDEST SWAP1 POP SWAP6 SWAP5 POP POP POP POP POP JUMP JUMPDEST PUSH1 0x0 DUP1 PUSH1 0x40 DUP4 DUP6 SUB SLT ISZERO PUSH2 0x3CF7 JUMPI PUSH2 0x3CF6 PUSH2 0x3521 JUMP JUMPDEST JUMPDEST PUSH1 0x0 PUSH2 0x3D05 DUP6 DUP3 DUP7 ADD PUSH2 0x354C JUMP JUMPDEST SWAP3 POP POP PUSH1 0x20 PUSH2 0x3D16 DUP6 DUP3 DUP7 ADD PUSH2 0x3876 JUMP JUMPDEST SWAP2 POP POP SWAP3 POP SWAP3 SWAP1 POP JUMP JUMPDEST PUSH1 0x0 PUSH1 0xC0 DUP3 ADD SWAP1 POP PUSH2 0x3D35 PUSH1 0x0 DUP4 ADD DUP10 PUSH2 0x35EA JUMP JUMPDEST DUP2 DUP2 SUB PUSH1 0x20 DUP4 ADD MSTORE PUSH2 0x3D47 DUP2 DUP9 PUSH2 0x38FE JUMP JUMPDEST SWAP1 POP DUP2 DUP2 SUB PUSH1 0x40 DUP4 ADD MSTORE PUSH2 0x3D5B DUP2 DUP8 PUSH2 0x38FE JUMP JUMPDEST SWAP1 POP PUSH2 0x3D6A PUSH1 0x60 DUP4 ADD DUP7 PUSH2 0x358E JUMP JUMPDEST PUSH2 0x3D77 PUSH1 0x80 DUP4 ADD DUP6 PUSH2 0x358E JUMP JUMPDEST DUP2 DUP2 SUB PUSH1 0xA0 DUP4 ADD MSTORE PUSH2 0x3D89 DUP2 DUP5 PUSH2 0x38FE JUMP JUMPDEST SWAP1 POP SWAP8 SWAP7 POP POP POP POP POP POP POP JUMP JUMPDEST PUSH1 0x0 PUSH1 0x80 DUP3 ADD SWAP1 POP PUSH2 0x3DAB PUSH1 0x0 DUP4 ADD DUP8 PUSH2 0x358E JUMP JUMPDEST DUP2 DUP2 SUB PUSH1 0x20 DUP4 ADD MSTORE PUSH2 0x3DBD DUP2 DUP7 PUSH2 0x38FE JUMP JUMPDEST SWAP1 POP PUSH2 0x3DCC PUSH1 0x40 DUP4 ADD DUP6 PUSH2 0x358E JUMP JUMPDEST DUP2 DUP2 SUB PUSH1 0x60 DUP4 ADD MSTORE PUSH2 0x3DDE DUP2 DUP5 PUSH2 0x38FE JUMP JUMPDEST SWAP1 POP SWAP6 SWAP5 POP POP POP POP POP JUMP JUMPDEST PUSH1 0x0 PUSH1 0xC0 DUP3 ADD SWAP1 POP PUSH2 0x3DFE PUSH1 0x0 DUP4 ADD DUP10 PUSH2 0x358E JUMP JUMPDEST PUSH2 0x3E0B PUSH1 0x20 DUP4 ADD DUP9 PUSH2 0x358E JUMP JUMPDEST DUP2 DUP2 SUB PUSH1 0x40 DUP4 ADD MSTORE PUSH2 0x3E1D DUP2 DUP8 PUSH2 0x38FE JUMP JUMPDEST SWAP1 POP DUP2 DUP2 SUB PUSH1 0x60 DUP4 ADD MSTORE PUSH2 0x3E31 DUP2 DUP7 PUSH2 0x38FE JUMP JUMPDEST SWAP1 POP PUSH2 0x3E40 PUSH1 0x80 DUP4 ADD DUP6 PUSH2 0x358E JUMP JUMPDEST PUSH2 0x3E4D PUSH1 0xA0 DUP4 ADD DUP5 PUSH2 0x358E JUMP JUMPDEST SWAP8 SWAP7 POP POP POP POP POP POP POP JUMP JUMPDEST PUSH1 0x0 PUSH1 0x80 DUP3 ADD SWAP1 POP PUSH2 0x3E6D PUSH1 0x0 DUP4 ADD DUP8 PUSH2 0x35EA JUMP JUMPDEST PUSH2 0x3E7A PUSH1 0x20 DUP4 ADD DUP7 PUSH2 0x35EA JUMP JUMPDEST PUSH2 0x3E87 PUSH1 0x40 DUP4 ADD DUP6 PUSH2 0x358E JUMP JUMPDEST PUSH2 0x3E94 PUSH1 0x60 DUP4 ADD DUP5 PUSH2 0x3835 JUMP JUMPDEST SWAP6 SWAP5 POP POP POP POP POP JUMP JUMPDEST PUSH32 0x4E487B7100000000000000000000000000000000000000000000000000000000 PUSH1 0x0 MSTORE PUSH1 0x11 PUSH1 0x4 MSTORE PUSH1 0x24 PUSH1 0x0 REVERT JUMPDEST PUSH1 0x0 PUSH2 0x3ED7 DUP3 PUSH2 0x352B JUMP JUMPDEST SWAP2 POP PUSH32 0xFFFFFFFFFFFFFFFFFFFFFFFFFFFFFFFFFFFFFFFFFFFFFFFFFFFFFFFFFFFFFFFF DUP3 SUB PUSH2 0x3F09 JUMPI PUSH2 0x3F08 PUSH2 0x3E9D JUMP JUMPDEST JUMPDEST PUSH1 0x1 DUP3 ADD SWAP1 POP SWAP2 SWAP1 POP JUMP JUMPDEST PUSH32 0x4E487B7100000000000000000000000000000000000000000000000000000000 PUSH1 0x0 MSTORE PUSH1 0x22 PUSH1 0x4 MSTORE PUSH1 0x24 PUSH1 0x0 REVERT JUMPDEST PUSH1 0x0 PUSH1 0x2 DUP3 DIV SWAP1 POP PUSH1 0x1 DUP3 AND DUP1 PUSH2 0x3F5B JUMPI PUSH1 0x7F DUP3 AND SWAP2 POP JUMPDEST PUSH1 0x20 DUP3 LT DUP2 SUB PUSH2 0x3F6E JUMPI PUSH2 0x3F6D PUSH2 0x3F14 JUMP JUMPDEST JUMPDEST POP SWAP2 SWAP1 POP JUMP JUMPDEST PUSH1 0x0 DUP2 SWAP1 POP DUP2 PUSH1 0x0 MSTORE PUSH1 0x20 PUSH1 0x0 KECCAK256 SWAP1 POP SWAP2 SWAP1 POP JUMP JUMPDEST PUSH1 0x0 PUSH1 0x20 PUSH1 0x1F DUP4 ADD DIV SWAP1 POP SWAP2 SWAP1 POP JUMP JUMPDEST PUSH1 0x0 DUP3 DUP3 SHL SWAP1 POP SWAP3 SWAP2 POP POP JUMP JUMPDEST PUSH1 0x0 PUSH1 0x8 DUP4 MUL PUSH2 0x3FD6 PUSH32 0xFFFFFFFFFFFFFFFFFFFFFFFFFFFFFFFFFFFFFFFFFFFFFFFFFFFFFFFFFFFFFFFF DUP3 PUSH2 0x3F99 JUMP JUMPDEST PUSH2 0x3FE0 DUP7 DUP4 PUSH2 0x3F99 JUMP JUMPDEST SWAP6 POP DUP1 NOT DUP5 AND SWAP4 POP DUP1 DUP7 AND DUP5 OR SWAP3 POP POP POP SWAP4 SWAP3 POP POP POP JUMP JUMPDEST PUSH1 0x0 DUP2 SWAP1 POP SWAP2 SWAP1 POP JUMP JUMPDEST PUSH1 0x0 PUSH2 0x401D PUSH2 0x4018 PUSH2 0x4013 DUP5 PUSH2 0x352B JUMP JUMPDEST PUSH2 0x3FF8 JUMP JUMPDEST PUSH2 0x352B JUMP JUMPDEST SWAP1 POP SWAP2 SWAP1 POP JUMP JUMPDEST PUSH1 0x0 DUP2 SWAP1 POP SWAP2 SWAP1 POP JUMP JUMPDEST PUSH2 0x4037 DUP4 PUSH2 0x4002 JUMP JUMPDEST PUSH2 0x404B PUSH2 0x4043 DUP3 PUSH2 0x4024 JUMP JUMPDEST DUP5 DUP5 SLOAD PUSH2 0x3FA6 JUMP JUMPDEST DUP3 SSTORE POP POP POP POP JUMP JUMPDEST PUSH1 0x0 SWAP1 JUMP JUMPDEST PUSH2 0x4060 PUSH2 0x4053 JUMP JUMPDEST PUSH2 0x406B DUP2 DUP5 DUP5 PUSH2 0x402E JUMP JUMPDEST POP POP POP JUMP JUMPDEST JUMPDEST DUP2 DUP2 LT ISZERO PUSH2 0x408F JUMPI PUSH2 0x4084 PUSH1 0x0 DUP3 PUSH2 0x4058 JUMP JUMPDEST PUSH1 0x1 DUP2 ADD SWAP1 POP PUSH2 0x4071 JUMP JUMPDEST POP POP JUMP JUMPDEST PUSH1 0x1F DUP3 GT ISZERO PUSH2 0x40D4 JUMPI PUSH2 0x40A5 DUP2 PUSH2 0x3F74 JUMP JUMPDEST PUSH2 0x40AE DUP5 PUSH2 0x3F89 JUMP JUMPDEST DUP2 ADD PUSH1 0x20 DUP6 LT ISZERO PUSH2 0x40BD JUMPI DUP2 SWAP1 POP JUMPDEST PUSH2 0x40D1 PUSH2 0x40C9 DUP6 PUSH2 0x3F89 JUMP JUMPDEST DUP4 ADD DUP3 PUSH2 0x4070 JUMP JUMPDEST POP POP JUMPDEST POP POP POP JUMP JUMPDEST PUSH1 0x0 DUP3 DUP3 SHR SWAP1 POP SWAP3 SWAP2 POP POP JUMP JUMPDEST PUSH1 0x0 PUSH2 0x40F7 PUSH1 0x0 NOT DUP5 PUSH1 0x8 MUL PUSH2 0x40D9 JUMP JUMPDEST NOT DUP1 DUP4 AND SWAP2 POP POP SWAP3 SWAP2 POP POP JUMP JUMPDEST PUSH1 0x0 PUSH2 0x4110 DUP4 DUP4 PUSH2 0x40E6 JUMP JUMPDEST SWAP2 POP DUP3 PUSH1 0x2 MUL DUP3 OR SWAP1 POP SWAP3 SWAP2 POP POP JUMP JUMPDEST PUSH2 0x4129 DUP3 PUSH2 0x38B8 JUMP JUMPDEST PUSH8 0xFFFFFFFFFFFFFFFF DUP2 GT ISZERO PUSH2 0x4142 JUMPI PUSH2 0x4141 PUSH2 0x362F JUMP JUMPDEST JUMPDEST PUSH2 0x414C DUP3 SLOAD PUSH2 0x3F43 JUMP JUMPDEST PUSH2 0x4157 DUP3 DUP3 DUP6 PUSH2 0x4093 JUMP JUMPDEST PUSH1 0x0 PUSH1 0x20 SWAP1 POP PUSH1 0x1F DUP4 GT PUSH1 0x1 DUP2 EQ PUSH2 0x418A JUMPI PUSH1 0x0 DUP5 ISZERO PUSH2 0x4178 JUMPI DUP3 DUP8 ADD MLOAD SWAP1 POP JUMPDEST PUSH2 0x4182 DUP6 DUP3 PUSH2 0x4104 JUMP JUMPDEST DUP7 SSTORE POP PUSH2 0x41EA JUMP JUMPDEST PUSH1 0x1F NOT DUP5 AND PUSH2 0x4198 DUP7 PUSH2 0x3F74 JUMP JUMPDEST PUSH1 0x0 JUMPDEST DUP3 DUP2 LT ISZERO PUSH2 0x41C0 JUMPI DUP5 DUP10 ADD MLOAD DUP3 SSTORE PUSH1 0x1 DUP3 ADD SWAP2 POP PUSH1 0x20 DUP6 ADD SWAP5 POP PUSH1 0x20 DUP2 ADD SWAP1 POP PUSH2 0x419B JUMP JUMPDEST DUP7 DUP4 LT ISZERO PUSH2 0x41DD JUMPI DUP5 DUP10 ADD MLOAD PUSH2 0x41D9 PUSH1 0x1F DUP10 AND DUP3 PUSH2 0x40E6 JUMP JUMPDEST DUP4 SSTORE POP JUMPDEST PUSH1 0x1 PUSH1 0x2 DUP9 MUL ADD DUP9 SSTORE POP POP POP JUMPDEST POP POP POP POP POP POP JUMP INVALID LOG2 PUSH5 0x6970667358 0x22 SLT KECCAK256 CHAINID RETURNDATACOPY LOG4 0xBF GASPRICE SWAP6 0x5D PUSH26 0xC2CE639C8A9A0B2D78A682DDE951D97186AF2A619964CC046473 PUSH16 0x6C634300081200330000000000000000 "
				},
				"gasEstimates": {
					"creation": {
						"codeDepositCost": "3387200",
						"executionCost": "infinite",
						"totalCost": "infinite"
					},
					"external": {
						"BuyerMapping(address)": "infinite",
						"BuyerRejection(address)": "2956",
						"BuyerVerification(address)": "2936",
						"InspectorMapping(uint256)": "infinite",
						"LandOwner(uint256)": "2972",
						"LandOwnershipTransfer(uint256,address)": "27348",
						"LandVerification(uint256)": "2864",
						"Land_Inspector()": "2628",
						"PaymentReceived(uint256)": "2909",
						"RegisteredAddressMapping(address)": "2955",
						"RegisteredBuyerMapping(address)": "2914",
						"RegisteredSellerMapping(address)": "2957",
						"RequestStatus(uint256)": "2908",
						"RequestedLands(uint256)": "2864",
						"RequestsMapping(uint256)": "infinite",
						"SellerMapping(address)": "infinite",
						"SellerRejection(address)": "2914",
						"SellerVerification(address)": "2978",
						"addLand(uint256,string,string,uint256,uint256)": "infinite",
						"buyers(uint256)": "5022",
						"getArea(uint256)": "infinite",
						"getBuyer()": "infinite",
						"getBuyerDetails(address)": "infinite",
						"getBuyersCount()": "2548",
						"getCity(uint256)": "infinite",
						"getLandOwner(uint256)": "2956",
						"getLandsCount()": "2529",
						"getPID(uint256)": "infinite",
						"getPrice(uint256)": "infinite",
						"getRequestDetails(uint256)": "infinite",
						"getRequestsCount()": "2506",
						"getSeller()": "infinite",
						"getSellerDetails(address)": "infinite",
						"getSellersCount()": "2570",
						"getState(uint256)": "infinite",
						"isApproved(uint256)": "2987",
						"isBuyer(address)": "3049",
						"isLandInspector(address)": "2951",
						"isLandVerified(uint256)": "infinite",
						"isPaid(uint256)": "2943",
						"isRegistered(address)": "2982",
						"isRejected(address)": "5275",
						"isSeller(address)": "3003",
						"isVerified(address)": "5274",
						"lands(uint256)": "infinite",
						"payment(address,uint256)": "infinite",
						"registerBuyer(string,uint256,string,uint256,string)": "infinite",
						"registerSeller(string,uint256,string,uint256,string)": "infinite",
						"rejectBuyer(address)": "infinite",
						"rejectSeller(address)": "infinite",
						"sellers(uint256)": "5068",
						"updateBuyer(string,uint256,string,uint256,string)": "infinite",
						"updateSeller(string,uint256,string,uint256,string)": "infinite",
						"verifyBuyer(address)": "infinite",
						"verifyLand(uint256)": "27124",
						"verifySeller(address)": "infinite"
					},
					"internal": {
						"addLandInspector(string memory,uint256,string memory)": "infinite"
					}
				},
				"methodIdentifiers": {
					"BuyerMapping(address)": "ab517074",
					"BuyerRejection(address)": "989376b4",
					"BuyerVerification(address)": "a6dc41fb",
					"InspectorMapping(uint256)": "def936c3",
					"LandOwner(uint256)": "9dc1bfa9",
					"LandOwnershipTransfer(uint256,address)": "bed403c7",
					"LandVerification(uint256)": "83546501",
					"Land_Inspector()": "170f3909",
					"PaymentReceived(uint256)": "1a07f76e",
					"RegisteredAddressMapping(address)": "f58f85b5",
					"RegisteredBuyerMapping(address)": "a47d4c02",
					"RegisteredSellerMapping(address)": "601e7c34",
					"RequestStatus(uint256)": "89d21354",
					"RequestedLands(uint256)": "4daa9dae",
					"RequestsMapping(uint256)": "b0a5dcd3",
					"SellerMapping(address)": "dec091ad",
					"SellerRejection(address)": "63f17143",
					"SellerVerification(address)": "e4b26115",
					"addLand(uint256,string,string,uint256,uint256)": "8e0fef76",
					"buyers(uint256)": "f2aa8218",
					"getArea(uint256)": "6490c7a8",
					"getBuyer()": "603daf9a",
					"getBuyerDetails(address)": "68cfe6ee",
					"getBuyersCount()": "f0d3a9df",
					"getCity(uint256)": "d7130651",
					"getLandOwner(uint256)": "1869a38b",
					"getLandsCount()": "16d9d666",
					"getPID(uint256)": "07d56ac0",
					"getPrice(uint256)": "e7572230",
					"getRequestDetails(uint256)": "f34d4c63",
					"getRequestsCount()": "3410452a",
					"getSeller()": "dbd0e1b6",
					"getSellerDetails(address)": "b3c8fe85",
					"getSellersCount()": "dd9d122d",
					"getState(uint256)": "44c9af28",
					"isApproved(uint256)": "7910867b",
					"isBuyer(address)": "2a55feec",
					"isLandInspector(address)": "e165af87",
					"isLandVerified(uint256)": "6cbf6cf8",
					"isPaid(uint256)": "cd392a83",
					"isRegistered(address)": "c3c5a547",
					"isRejected(address)": "48a46bd3",
					"isSeller(address)": "ee95feaf",
					"isVerified(address)": "b9209e33",
					"lands(uint256)": "e261f1e5",
					"payment(address,uint256)": "67a09c23",
					"registerBuyer(string,uint256,string,uint256,string)": "174f7324",
					"registerSeller(string,uint256,string,uint256,string)": "5e7efe12",
					"rejectBuyer(address)": "8965cde1",
					"rejectSeller(address)": "e1ecc794",
					"sellers(uint256)": "cee26ed5",
					"updateBuyer(string,uint256,string,uint256,string)": "e43bf1f4",
					"updateSeller(string,uint256,string,uint256,string)": "96c331bb",
					"verifyBuyer(address)": "6814800b",
					"verifyLand(uint256)": "f9c43bdf",
					"verifySeller(address)": "d1760e60"
				}
			},
			"storageLayout": {
				"storage": [
					{
						"astId": 63,
						"contract": "contracts/PorfolioProject.sol:Land",
						"label": "lands",
						"offset": 0,
						"slot": "0",
						"type": "t_mapping(t_uint256,t_struct(Landreg)14_storage)"
					},
					{
						"astId": 68,
						"contract": "contracts/PorfolioProject.sol:Land",
						"label": "InspectorMapping",
						"offset": 0,
						"slot": "1",
						"type": "t_mapping(t_uint256,t_struct(LandInspector)49_storage)"
					},
					{
						"astId": 73,
						"contract": "contracts/PorfolioProject.sol:Land",
						"label": "SellerMapping",
						"offset": 0,
						"slot": "2",
						"type": "t_mapping(t_address,t_struct(Seller)40_storage)"
					},
					{
						"astId": 78,
						"contract": "contracts/PorfolioProject.sol:Land",
						"label": "BuyerMapping",
						"offset": 0,
						"slot": "3",
						"type": "t_mapping(t_address,t_struct(Buyer)27_storage)"
					},
					{
						"astId": 83,
						"contract": "contracts/PorfolioProject.sol:Land",
						"label": "RequestsMapping",
						"offset": 0,
						"slot": "4",
						"type": "t_mapping(t_uint256,t_struct(LandRequest)58_storage)"
					},
					{
						"astId": 87,
						"contract": "contracts/PorfolioProject.sol:Land",
						"label": "RegisteredAddressMapping",
						"offset": 0,
						"slot": "5",
						"type": "t_mapping(t_address,t_bool)"
					},
					{
						"astId": 91,
						"contract": "contracts/PorfolioProject.sol:Land",
						"label": "RegisteredSellerMapping",
						"offset": 0,
						"slot": "6",
						"type": "t_mapping(t_address,t_bool)"
					},
					{
						"astId": 95,
						"contract": "contracts/PorfolioProject.sol:Land",
						"label": "RegisteredBuyerMapping",
						"offset": 0,
						"slot": "7",
						"type": "t_mapping(t_address,t_bool)"
					},
					{
						"astId": 99,
						"contract": "contracts/PorfolioProject.sol:Land",
						"label": "SellerVerification",
						"offset": 0,
						"slot": "8",
						"type": "t_mapping(t_address,t_bool)"
					},
					{
						"astId": 103,
						"contract": "contracts/PorfolioProject.sol:Land",
						"label": "SellerRejection",
						"offset": 0,
						"slot": "9",
						"type": "t_mapping(t_address,t_bool)"
					},
					{
						"astId": 107,
						"contract": "contracts/PorfolioProject.sol:Land",
						"label": "BuyerVerification",
						"offset": 0,
						"slot": "10",
						"type": "t_mapping(t_address,t_bool)"
					},
					{
						"astId": 111,
						"contract": "contracts/PorfolioProject.sol:Land",
						"label": "BuyerRejection",
						"offset": 0,
						"slot": "11",
						"type": "t_mapping(t_address,t_bool)"
					},
					{
						"astId": 115,
						"contract": "contracts/PorfolioProject.sol:Land",
						"label": "LandVerification",
						"offset": 0,
						"slot": "12",
						"type": "t_mapping(t_uint256,t_bool)"
					},
					{
						"astId": 119,
						"contract": "contracts/PorfolioProject.sol:Land",
						"label": "LandOwner",
						"offset": 0,
						"slot": "13",
						"type": "t_mapping(t_uint256,t_address)"
					},
					{
						"astId": 123,
						"contract": "contracts/PorfolioProject.sol:Land",
						"label": "RequestStatus",
						"offset": 0,
						"slot": "14",
						"type": "t_mapping(t_uint256,t_bool)"
					},
					{
						"astId": 127,
						"contract": "contracts/PorfolioProject.sol:Land",
						"label": "RequestedLands",
						"offset": 0,
						"slot": "15",
						"type": "t_mapping(t_uint256,t_bool)"
					},
					{
						"astId": 131,
						"contract": "contracts/PorfolioProject.sol:Land",
						"label": "PaymentReceived",
						"offset": 0,
						"slot": "16",
						"type": "t_mapping(t_uint256,t_bool)"
					},
					{
						"astId": 133,
						"contract": "contracts/PorfolioProject.sol:Land",
						"label": "Land_Inspector",
						"offset": 0,
						"slot": "17",
						"type": "t_address"
					},
					{
						"astId": 136,
						"contract": "contracts/PorfolioProject.sol:Land",
						"label": "sellers",
						"offset": 0,
						"slot": "18",
						"type": "t_array(t_address)dyn_storage"
					},
					{
						"astId": 139,
						"contract": "contracts/PorfolioProject.sol:Land",
						"label": "buyers",
						"offset": 0,
						"slot": "19",
						"type": "t_array(t_address)dyn_storage"
					},
					{
						"astId": 141,
						"contract": "contracts/PorfolioProject.sol:Land",
						"label": "landsCount",
						"offset": 0,
						"slot": "20",
						"type": "t_uint256"
					},
					{
						"astId": 143,
						"contract": "contracts/PorfolioProject.sol:Land",
						"label": "inspectorsCount",
						"offset": 0,
						"slot": "21",
						"type": "t_uint256"
					},
					{
						"astId": 145,
						"contract": "contracts/PorfolioProject.sol:Land",
						"label": "sellersCount",
						"offset": 0,
						"slot": "22",
						"type": "t_uint256"
					},
					{
						"astId": 147,
						"contract": "contracts/PorfolioProject.sol:Land",
						"label": "buyersCount",
						"offset": 0,
						"slot": "23",
						"type": "t_uint256"
					},
					{
						"astId": 149,
						"contract": "contracts/PorfolioProject.sol:Land",
						"label": "requestsCount",
						"offset": 0,
						"slot": "24",
						"type": "t_uint256"
					}
				],
				"types": {
					"t_address": {
						"encoding": "inplace",
						"label": "address",
						"numberOfBytes": "20"
					},
					"t_array(t_address)dyn_storage": {
						"base": "t_address",
						"encoding": "dynamic_array",
						"label": "address[]",
						"numberOfBytes": "32"
					},
					"t_bool": {
						"encoding": "inplace",
						"label": "bool",
						"numberOfBytes": "1"
					},
					"t_mapping(t_address,t_bool)": {
						"encoding": "mapping",
						"key": "t_address",
						"label": "mapping(address => bool)",
						"numberOfBytes": "32",
						"value": "t_bool"
					},
					"t_mapping(t_address,t_struct(Buyer)27_storage)": {
						"encoding": "mapping",
						"key": "t_address",
						"label": "mapping(address => struct Land.Buyer)",
						"numberOfBytes": "32",
						"value": "t_struct(Buyer)27_storage"
					},
					"t_mapping(t_address,t_struct(Seller)40_storage)": {
						"encoding": "mapping",
						"key": "t_address",
						"label": "mapping(address => struct Land.Seller)",
						"numberOfBytes": "32",
						"value": "t_struct(Seller)40_storage"
					},
					"t_mapping(t_uint256,t_address)": {
						"encoding": "mapping",
						"key": "t_uint256",
						"label": "mapping(uint256 => address)",
						"numberOfBytes": "32",
						"value": "t_address"
					},
					"t_mapping(t_uint256,t_bool)": {
						"encoding": "mapping",
						"key": "t_uint256",
						"label": "mapping(uint256 => bool)",
						"numberOfBytes": "32",
						"value": "t_bool"
					},
					"t_mapping(t_uint256,t_struct(LandInspector)49_storage)": {
						"encoding": "mapping",
						"key": "t_uint256",
						"label": "mapping(uint256 => struct Land.LandInspector)",
						"numberOfBytes": "32",
						"value": "t_struct(LandInspector)49_storage"
					},
					"t_mapping(t_uint256,t_struct(LandRequest)58_storage)": {
						"encoding": "mapping",
						"key": "t_uint256",
						"label": "mapping(uint256 => struct Land.LandRequest)",
						"numberOfBytes": "32",
						"value": "t_struct(LandRequest)58_storage"
					},
					"t_mapping(t_uint256,t_struct(Landreg)14_storage)": {
						"encoding": "mapping",
						"key": "t_uint256",
						"label": "mapping(uint256 => struct Land.Landreg)",
						"numberOfBytes": "32",
						"value": "t_struct(Landreg)14_storage"
					},
					"t_string_storage": {
						"encoding": "bytes",
						"label": "string",
						"numberOfBytes": "32"
					},
					"t_struct(Buyer)27_storage": {
						"encoding": "inplace",
						"label": "struct Land.Buyer",
						"members": [
							{
								"astId": 16,
								"contract": "contracts/PorfolioProject.sol:Land",
								"label": "id",
								"offset": 0,
								"slot": "0",
								"type": "t_address"
							},
							{
								"astId": 18,
								"contract": "contracts/PorfolioProject.sol:Land",
								"label": "name",
								"offset": 0,
								"slot": "1",
								"type": "t_string_storage"
							},
							{
								"astId": 20,
								"contract": "contracts/PorfolioProject.sol:Land",
								"label": "age",
								"offset": 0,
								"slot": "2",
								"type": "t_uint256"
							},
							{
								"astId": 22,
								"contract": "contracts/PorfolioProject.sol:Land",
								"label": "city",
								"offset": 0,
								"slot": "3",
								"type": "t_string_storage"
							},
							{
								"astId": 24,
								"contract": "contracts/PorfolioProject.sol:Land",
								"label": "CNIC",
								"offset": 0,
								"slot": "4",
								"type": "t_uint256"
							},
							{
								"astId": 26,
								"contract": "contracts/PorfolioProject.sol:Land",
								"label": "email",
								"offset": 0,
								"slot": "5",
								"type": "t_string_storage"
							}
						],
						"numberOfBytes": "192"
					},
					"t_struct(LandInspector)49_storage": {
						"encoding": "inplace",
						"label": "struct Land.LandInspector",
						"members": [
							{
								"astId": 42,
								"contract": "contracts/PorfolioProject.sol:Land",
								"label": "id",
								"offset": 0,
								"slot": "0",
								"type": "t_uint256"
							},
							{
								"astId": 44,
								"contract": "contracts/PorfolioProject.sol:Land",
								"label": "name",
								"offset": 0,
								"slot": "1",
								"type": "t_string_storage"
							},
							{
								"astId": 46,
								"contract": "contracts/PorfolioProject.sol:Land",
								"label": "age",
								"offset": 0,
								"slot": "2",
								"type": "t_uint256"
							},
							{
								"astId": 48,
								"contract": "contracts/PorfolioProject.sol:Land",
								"label": "designation",
								"offset": 0,
								"slot": "3",
								"type": "t_string_storage"
							}
						],
						"numberOfBytes": "128"
					},
					"t_struct(LandRequest)58_storage": {
						"encoding": "inplace",
						"label": "struct Land.LandRequest",
						"members": [
							{
								"astId": 51,
								"contract": "contracts/PorfolioProject.sol:Land",
								"label": "reqId",
								"offset": 0,
								"slot": "0",
								"type": "t_uint256"
							},
							{
								"astId": 53,
								"contract": "contracts/PorfolioProject.sol:Land",
								"label": "sellerId",
								"offset": 0,
								"slot": "1",
								"type": "t_address"
							},
							{
								"astId": 55,
								"contract": "contracts/PorfolioProject.sol:Land",
								"label": "buyerId",
								"offset": 0,
								"slot": "2",
								"type": "t_address"
							},
							{
								"astId": 57,
								"contract": "contracts/PorfolioProject.sol:Land",
								"label": "landId",
								"offset": 0,
								"slot": "3",
								"type": "t_uint256"
							}
						],
						"numberOfBytes": "128"
					},
					"t_struct(Landreg)14_storage": {
						"encoding": "inplace",
						"label": "struct Land.Landreg",
						"members": [
							{
								"astId": 3,
								"contract": "contracts/PorfolioProject.sol:Land",
								"label": "id",
								"offset": 0,
								"slot": "0",
								"type": "t_uint256"
							},
							{
								"astId": 5,
								"contract": "contracts/PorfolioProject.sol:Land",
								"label": "area",
								"offset": 0,
								"slot": "1",
								"type": "t_uint256"
							},
							{
								"astId": 7,
								"contract": "contracts/PorfolioProject.sol:Land",
								"label": "city",
								"offset": 0,
								"slot": "2",
								"type": "t_string_storage"
							},
							{
								"astId": 9,
								"contract": "contracts/PorfolioProject.sol:Land",
								"label": "state",
								"offset": 0,
								"slot": "3",
								"type": "t_string_storage"
							},
							{
								"astId": 11,
								"contract": "contracts/PorfolioProject.sol:Land",
								"label": "landPrice",
								"offset": 0,
								"slot": "4",
								"type": "t_uint256"
							},
							{
								"astId": 13,
								"contract": "contracts/PorfolioProject.sol:Land",
								"label": "propertyPID",
								"offset": 0,
								"slot": "5",
								"type": "t_uint256"
							}
						],
						"numberOfBytes": "192"
					},
					"t_struct(Seller)40_storage": {
						"encoding": "inplace",
						"label": "struct Land.Seller",
						"members": [
							{
								"astId": 29,
								"contract": "contracts/PorfolioProject.sol:Land",
								"label": "id",
								"offset": 0,
								"slot": "0",
								"type": "t_address"
							},
							{
								"astId": 31,
								"contract": "contracts/PorfolioProject.sol:Land",
								"label": "name",
								"offset": 0,
								"slot": "1",
								"type": "t_string_storage"
							},
							{
								"astId": 33,
								"contract": "contracts/PorfolioProject.sol:Land",
								"label": "city",
								"offset": 0,
								"slot": "2",
								"type": "t_string_storage"
							},
							{
								"astId": 35,
								"contract": "contracts/PorfolioProject.sol:Land",
								"label": "age",
								"offset": 0,
								"slot": "3",
								"type": "t_uint256"
							},
							{
								"astId": 37,
								"contract": "contracts/PorfolioProject.sol:Land",
								"label": "CNIC",
								"offset": 0,
								"slot": "4",
								"type": "t_uint256"
							},
							{
								"astId": 39,
								"contract": "contracts/PorfolioProject.sol:Land",
								"label": "email",
								"offset": 0,
								"slot": "5",
								"type": "t_string_storage"
							}
						],
						"numberOfBytes": "192"
					},
					"t_uint256": {
						"encoding": "inplace",
						"label": "uint256",
						"numberOfBytes": "32"
					}
				}
			},
			"userdoc": {
				"kind": "user",
				"methods": {},
				"version": 1
			}
		}
	}
}