{
	"contracts/mapping.sol": {
		"mapping1": {
			"abi": [
				{
					"inputs": [],
					"name": "GetAllName",
					"outputs": [
						{
							"internalType": "string[]",
							"name": "",
							"type": "string[]"
						}
					],
					"stateMutability": "view",
					"type": "function"
				},
				{
					"inputs": [
						{
							"internalType": "uint256",
							"name": "key",
							"type": "uint256"
						},
						{
							"internalType": "string",
							"name": "_name",
							"type": "string"
						},
						{
							"internalType": "uint256",
							"name": "_rollno",
							"type": "uint256"
						},
						{
							"internalType": "string",
							"name": "_uni",
							"type": "string"
						},
						{
							"internalType": "address",
							"name": "_acount",
							"type": "address"
						}
					],
					"name": "addData",
					"outputs": [],
					"stateMutability": "nonpayable",
					"type": "function"
				},
				{
					"inputs": [],
					"name": "counter",
					"outputs": [
						{
							"internalType": "uint256",
							"name": "",
							"type": "uint256"
						}
					],
					"stateMutability": "view",
					"type": "function"
				},
				{
					"inputs": [
						{
							"internalType": "uint256",
							"name": "key",
							"type": "uint256"
						}
					],
					"name": "deleteData",
					"outputs": [],
					"stateMutability": "nonpayable",
					"type": "function"
				},
				{
					"inputs": [
						{
							"internalType": "uint256",
							"name": "",
							"type": "uint256"
						}
					],
					"name": "mymapping",
					"outputs": [
						{
							"internalType": "string",
							"name": "name",
							"type": "string"
						},
						{
							"internalType": "uint256",
							"name": "rollno",
							"type": "uint256"
						},
						{
							"internalType": "string",
							"name": "uni",
							"type": "string"
						},
						{
							"internalType": "address",
							"name": "account",
							"type": "address"
						}
					],
					"stateMutability": "view",
					"type": "function"
				}
			],
			"devdoc": {
				"kind": "dev",
				"methods": {},
				"version": 1
			},
			"evm": {
				"assembly": "    /* \"contracts/mapping.sol\":66:1063  contract mapping1{... */\n  mstore(0x40, 0x80)\n  callvalue\n  dup1\n  iszero\n  tag_1\n  jumpi\n  0x00\n  dup1\n  revert\ntag_1:\n  pop\n  dataSize(sub_0)\n  dup1\n  dataOffset(sub_0)\n  0x00\n  codecopy\n  0x00\n  return\nstop\n\nsub_0: assembly {\n        /* \"contracts/mapping.sol\":66:1063  contract mapping1{... */\n      mstore(0x40, 0x80)\n      callvalue\n      dup1\n      iszero\n      tag_1\n      jumpi\n      0x00\n      dup1\n      revert\n    tag_1:\n      pop\n      jumpi(tag_2, lt(calldatasize, 0x04))\n      shr(0xe0, calldataload(0x00))\n      dup1\n      0x07a290ad\n      eq\n      tag_3\n      jumpi\n      dup1\n      0x4fe8b4c1\n      eq\n      tag_4\n      jumpi\n      dup1\n      0x61bc221a\n      eq\n      tag_5\n      jumpi\n      dup1\n      0xbb58e356\n      eq\n      tag_6\n      jumpi\n      dup1\n      0xf1ab1b73\n      eq\n      tag_7\n      jumpi\n    tag_2:\n      0x00\n      dup1\n      revert\n        /* \"contracts/mapping.sol\":738:970  function GetAllName() public view returns (string[] memory) {... */\n    tag_3:\n      tag_8\n      tag_9\n      jump\t// in\n    tag_8:\n      mload(0x40)\n      tag_10\n      swap2\n      swap1\n      tag_11\n      jump\t// in\n    tag_10:\n      mload(0x40)\n      dup1\n      swap2\n      sub\n      swap1\n      return\n        /* \"contracts/mapping.sol\":982:1058  function deleteData(uint key )public{... */\n    tag_4:\n      tag_12\n      0x04\n      dup1\n      calldatasize\n      sub\n      dup2\n      add\n      swap1\n      tag_13\n      swap2\n      swap1\n      tag_14\n      jump\t// in\n    tag_13:\n      tag_15\n      jump\t// in\n    tag_12:\n      stop\n        /* \"contracts/mapping.sol\":94:113  uint public counter */\n    tag_5:\n      tag_16\n      tag_17\n      jump\t// in\n    tag_16:\n      mload(0x40)\n      tag_18\n      swap2\n      swap1\n      tag_19\n      jump\t// in\n    tag_18:\n      mload(0x40)\n      dup1\n      swap2\n      sub\n      swap1\n      return\n        /* \"contracts/mapping.sol\":299:341  mapping (uint => student )public mymapping */\n    tag_6:\n      tag_20\n      0x04\n      dup1\n      calldatasize\n      sub\n      dup2\n      add\n      swap1\n      tag_21\n      swap2\n      swap1\n      tag_14\n      jump\t// in\n    tag_21:\n      tag_22\n      jump\t// in\n    tag_20:\n      mload(0x40)\n      tag_23\n      swap5\n      swap4\n      swap3\n      swap2\n      swap1\n      tag_24\n      jump\t// in\n    tag_23:\n      mload(0x40)\n      dup1\n      swap2\n      sub\n      swap1\n      return\n        /* \"contracts/mapping.sol\":352:732  function addData... */\n    tag_7:\n      tag_25\n      0x04\n      dup1\n      calldatasize\n      sub\n      dup2\n      add\n      swap1\n      tag_26\n      swap2\n      swap1\n      tag_27\n      jump\t// in\n    tag_26:\n      tag_28\n      jump\t// in\n    tag_25:\n      stop\n        /* \"contracts/mapping.sol\":738:970  function GetAllName() public view returns (string[] memory) {... */\n    tag_9:\n        /* \"contracts/mapping.sol\":781:796  string[] memory */\n      0x60\n        /* \"contracts/mapping.sol\":805:826  string[] memory names */\n      0x00\n        /* \"contracts/mapping.sol\":852:853  1 */\n      0x01\n        /* \"contracts/mapping.sol\":842:849  counter */\n      sload(0x00)\n        /* \"contracts/mapping.sol\":842:853  counter + 1 */\n      tag_30\n      swap2\n      swap1\n      tag_31\n      jump\t// in\n    tag_30:\n        /* \"contracts/mapping.sol\":829:854  new string[](counter + 1) */\n      0xffffffffffffffff\n      dup2\n      gt\n      iszero\n      tag_32\n      jumpi\n      tag_33\n      tag_34\n      jump\t// in\n    tag_33:\n    tag_32:\n      mload(0x40)\n      swap1\n      dup1\n      dup3\n      mstore\n      dup1\n      0x20\n      mul\n      0x20\n      add\n      dup3\n      add\n      0x40\n      mstore\n      dup1\n      iszero\n      tag_35\n      jumpi\n      dup2\n      0x20\n      add\n    tag_36:\n      0x60\n      dup2\n      mstore\n      0x20\n      add\n      swap1\n      0x01\n      swap1\n      sub\n      swap1\n      dup2\n      tag_36\n      jumpi\n      swap1\n      pop\n    tag_35:\n      pop\n        /* \"contracts/mapping.sol\":805:854  string[] memory names = new string[](counter + 1) */\n      swap1\n      pop\n        /* \"contracts/mapping.sol\":868:874  uint i */\n      0x00\n        /* \"contracts/mapping.sol\":863:946  for (uint i = 0; i <= counter; i++) {... */\n    tag_37:\n        /* \"contracts/mapping.sol\":885:892  counter */\n      sload(0x00)\n        /* \"contracts/mapping.sol\":880:881  i */\n      dup2\n        /* \"contracts/mapping.sol\":880:892  i <= counter */\n      gt\n        /* \"contracts/mapping.sol\":863:946  for (uint i = 0; i <= counter; i++) {... */\n      tag_38\n      jumpi\n        /* \"contracts/mapping.sol\":921:930  mymapping */\n      0x02\n        /* \"contracts/mapping.sol\":921:933  mymapping[i] */\n      0x00\n        /* \"contracts/mapping.sol\":931:932  i */\n      dup3\n        /* \"contracts/mapping.sol\":921:933  mymapping[i] */\n      dup2\n      mstore\n      0x20\n      add\n      swap1\n      dup2\n      mstore\n      0x20\n      add\n      0x00\n      keccak256\n        /* \"contracts/mapping.sol\":921:938  mymapping[i].name */\n      0x00\n      add\n        /* \"contracts/mapping.sol\":910:938  names[i] = mymapping[i].name */\n      dup1\n      sload\n      tag_40\n      swap1\n      tag_41\n      jump\t// in\n    tag_40:\n      dup1\n      0x1f\n      add\n      0x20\n      dup1\n      swap2\n      div\n      mul\n      0x20\n      add\n      mload(0x40)\n      swap1\n      dup2\n      add\n      0x40\n      mstore\n      dup1\n      swap3\n      swap2\n      swap1\n      dup2\n      dup2\n      mstore\n      0x20\n      add\n      dup3\n      dup1\n      sload\n      tag_42\n      swap1\n      tag_41\n      jump\t// in\n    tag_42:\n      dup1\n      iszero\n      tag_43\n      jumpi\n      dup1\n      0x1f\n      lt\n      tag_44\n      jumpi\n      0x0100\n      dup1\n      dup4\n      sload\n      div\n      mul\n      dup4\n      mstore\n      swap2\n      0x20\n      add\n      swap2\n      jump(tag_43)\n    tag_44:\n      dup3\n      add\n      swap2\n      swap1\n      0x00\n      mstore\n      keccak256(0x00, 0x20)\n      swap1\n    tag_45:\n      dup2\n      sload\n      dup2\n      mstore\n      swap1\n      0x01\n      add\n      swap1\n      0x20\n      add\n      dup1\n      dup4\n      gt\n      tag_45\n      jumpi\n      dup3\n      swap1\n      sub\n      0x1f\n      and\n      dup3\n      add\n      swap2\n    tag_43:\n      pop\n      pop\n      pop\n      pop\n      pop\n        /* \"contracts/mapping.sol\":910:915  names */\n      dup3\n        /* \"contracts/mapping.sol\":916:917  i */\n      dup3\n        /* \"contracts/mapping.sol\":910:918  names[i] */\n      dup2\n      mload\n      dup2\n      lt\n      tag_46\n      jumpi\n      tag_47\n      tag_48\n      jump\t// in\n    tag_47:\n    tag_46:\n      0x20\n      mul\n      0x20\n      add\n      add\n        /* \"contracts/mapping.sol\":910:938  names[i] = mymapping[i].name */\n      dup2\n      swap1\n      mstore\n      pop\n        /* \"contracts/mapping.sol\":894:897  i++ */\n      dup1\n      dup1\n      tag_49\n      swap1\n      tag_50\n      jump\t// in\n    tag_49:\n      swap2\n      pop\n      pop\n        /* \"contracts/mapping.sol\":863:946  for (uint i = 0; i <= counter; i++) {... */\n      jump(tag_37)\n    tag_38:\n      pop\n        /* \"contracts/mapping.sol\":961:966  names */\n      dup1\n        /* \"contracts/mapping.sol\":954:966  return names */\n      swap2\n      pop\n      pop\n        /* \"contracts/mapping.sol\":738:970  function GetAllName() public view returns (string[] memory) {... */\n      swap1\n      jump\t// out\n        /* \"contracts/mapping.sol\":982:1058  function deleteData(uint key )public{... */\n    tag_15:\n        /* \"contracts/mapping.sol\":1036:1045  mymapping */\n      0x02\n        /* \"contracts/mapping.sol\":1036:1050  mymapping[key] */\n      0x00\n        /* \"contracts/mapping.sol\":1046:1049  key */\n      dup3\n        /* \"contracts/mapping.sol\":1036:1050  mymapping[key] */\n      dup2\n      mstore\n      0x20\n      add\n      swap1\n      dup2\n      mstore\n      0x20\n      add\n      0x00\n      keccak256\n      0x00\n        /* \"contracts/mapping.sol\":1029:1050  delete mymapping[key] */\n      dup1\n      dup3\n      add\n      0x00\n      tag_52\n      swap2\n      swap1\n      tag_53\n      jump\t// in\n    tag_52:\n      0x01\n      dup3\n      add\n      0x00\n      swap1\n      sstore\n      0x02\n      dup3\n      add\n      0x00\n      tag_54\n      swap2\n      swap1\n      tag_53\n      jump\t// in\n    tag_54:\n      0x03\n      dup3\n      add\n      exp(0x0100, 0x00)\n      dup2\n      sload\n      swap1\n      0xffffffffffffffffffffffffffffffffffffffff\n      mul\n      not\n      and\n      swap1\n      sstore\n      pop\n      pop\n        /* \"contracts/mapping.sol\":982:1058  function deleteData(uint key )public{... */\n      pop\n      jump\t// out\n        /* \"contracts/mapping.sol\":94:113  uint public counter */\n    tag_17:\n      sload(0x00)\n      dup2\n      jump\t// out\n        /* \"contracts/mapping.sol\":299:341  mapping (uint => student )public mymapping */\n    tag_22:\n      mstore(0x20, 0x02)\n      dup1\n      0x00\n      mstore\n      keccak256(0x00, 0x40)\n      0x00\n      swap2\n      pop\n      swap1\n      pop\n      dup1\n      0x00\n      add\n      dup1\n      sload\n      tag_55\n      swap1\n      tag_41\n      jump\t// in\n    tag_55:\n      dup1\n      0x1f\n      add\n      0x20\n      dup1\n      swap2\n      div\n      mul\n      0x20\n      add\n      mload(0x40)\n      swap1\n      dup2\n      add\n      0x40\n      mstore\n      dup1\n      swap3\n      swap2\n      swap1\n      dup2\n      dup2\n      mstore\n      0x20\n      add\n      dup3\n      dup1\n      sload\n      tag_56\n      swap1\n      tag_41\n      jump\t// in\n    tag_56:\n      dup1\n      iszero\n      tag_57\n      jumpi\n      dup1\n      0x1f\n      lt\n      tag_58\n      jumpi\n      0x0100\n      dup1\n      dup4\n      sload\n      div\n      mul\n      dup4\n      mstore\n      swap2\n      0x20\n      add\n      swap2\n      jump(tag_57)\n    tag_58:\n      dup3\n      add\n      swap2\n      swap1\n      0x00\n      mstore\n      keccak256(0x00, 0x20)\n      swap1\n    tag_59:\n      dup2\n      sload\n      dup2\n      mstore\n      swap1\n      0x01\n      add\n      swap1\n      0x20\n      add\n      dup1\n      dup4\n      gt\n      tag_59\n      jumpi\n      dup3\n      swap1\n      sub\n      0x1f\n      and\n      dup3\n      add\n      swap2\n    tag_57:\n      pop\n      pop\n      pop\n      pop\n      pop\n      swap1\n      dup1\n      0x01\n      add\n      sload\n      swap1\n      dup1\n      0x02\n      add\n      dup1\n      sload\n      tag_60\n      swap1\n      tag_41\n      jump\t// in\n    tag_60:\n      dup1\n      0x1f\n      add\n      0x20\n      dup1\n      swap2\n      div\n      mul\n      0x20\n      add\n      mload(0x40)\n      swap1\n      dup2\n      add\n      0x40\n      mstore\n      dup1\n      swap3\n      swap2\n      swap1\n      dup2\n      dup2\n      mstore\n      0x20\n      add\n      dup3\n      dup1\n      sload\n      tag_61\n      swap1\n      tag_41\n      jump\t// in\n    tag_61:\n      dup1\n      iszero\n      tag_62\n      jumpi\n      dup1\n      0x1f\n      lt\n      tag_63\n      jumpi\n      0x0100\n      dup1\n      dup4\n      sload\n      div\n      mul\n      dup4\n      mstore\n      swap2\n      0x20\n      add\n      swap2\n      jump(tag_62)\n    tag_63:\n      dup3\n      add\n      swap2\n      swap1\n      0x00\n      mstore\n      keccak256(0x00, 0x20)\n      swap1\n    tag_64:\n      dup2\n      sload\n      dup2\n      mstore\n      swap1\n      0x01\n      add\n      swap1\n      0x20\n      add\n      dup1\n      dup4\n      gt\n      tag_64\n      jumpi\n      dup3\n      swap1\n      sub\n      0x1f\n      and\n      dup3\n      add\n      swap2\n    tag_62:\n      pop\n      pop\n      pop\n      pop\n      pop\n      swap1\n      dup1\n      0x03\n      add\n      0x00\n      swap1\n      sload\n      swap1\n      0x0100\n      exp\n      swap1\n      div\n      0xffffffffffffffffffffffffffffffffffffffff\n      and\n      swap1\n      pop\n      dup5\n      jump\t// out\n        /* \"contracts/mapping.sol\":352:732  function addData... */\n    tag_28:\n        /* \"contracts/mapping.sol\":577:582  _name */\n      dup4\n        /* \"contracts/mapping.sol\":555:564  mymapping */\n      0x02\n        /* \"contracts/mapping.sol\":555:569  mymapping[key] */\n      0x00\n        /* \"contracts/mapping.sol\":565:568  key */\n      dup8\n        /* \"contracts/mapping.sol\":555:569  mymapping[key] */\n      dup2\n      mstore\n      0x20\n      add\n      swap1\n      dup2\n      mstore\n      0x20\n      add\n      0x00\n      keccak256\n        /* \"contracts/mapping.sol\":555:574  mymapping[key].name */\n      0x00\n      add\n        /* \"contracts/mapping.sol\":555:582  mymapping[key].name = _name */\n      swap1\n      dup2\n      tag_66\n      swap2\n      swap1\n      tag_67\n      jump\t// in\n    tag_66:\n      pop\n        /* \"contracts/mapping.sol\":621:628  _rollno */\n      dup3\n        /* \"contracts/mapping.sol\":597:606  mymapping */\n      0x02\n        /* \"contracts/mapping.sol\":597:611  mymapping[key] */\n      0x00\n        /* \"contracts/mapping.sol\":607:610  key */\n      dup8\n        /* \"contracts/mapping.sol\":597:611  mymapping[key] */\n      dup2\n      mstore\n      0x20\n      add\n      swap1\n      dup2\n      mstore\n      0x20\n      add\n      0x00\n      keccak256\n        /* \"contracts/mapping.sol\":597:618  mymapping[key].rollno */\n      0x01\n      add\n        /* \"contracts/mapping.sol\":597:628  mymapping[key].rollno = _rollno */\n      dup2\n      swap1\n      sstore\n      pop\n        /* \"contracts/mapping.sol\":664:668  _uni */\n      dup2\n        /* \"contracts/mapping.sol\":643:652  mymapping */\n      0x02\n        /* \"contracts/mapping.sol\":643:657  mymapping[key] */\n      0x00\n        /* \"contracts/mapping.sol\":653:656  key */\n      dup8\n        /* \"contracts/mapping.sol\":643:657  mymapping[key] */\n      dup2\n      mstore\n      0x20\n      add\n      swap1\n      dup2\n      mstore\n      0x20\n      add\n      0x00\n      keccak256\n        /* \"contracts/mapping.sol\":643:661  mymapping[key].uni */\n      0x02\n      add\n        /* \"contracts/mapping.sol\":643:668  mymapping[key].uni = _uni */\n      swap1\n      dup2\n      tag_68\n      swap2\n      swap1\n      tag_67\n      jump\t// in\n    tag_68:\n      pop\n        /* \"contracts/mapping.sol\":708:715  _acount */\n      dup1\n        /* \"contracts/mapping.sol\":683:692  mymapping */\n      0x02\n        /* \"contracts/mapping.sol\":683:697  mymapping[key] */\n      0x00\n        /* \"contracts/mapping.sol\":693:696  key */\n      dup8\n        /* \"contracts/mapping.sol\":683:697  mymapping[key] */\n      dup2\n      mstore\n      0x20\n      add\n      swap1\n      dup2\n      mstore\n      0x20\n      add\n      0x00\n      keccak256\n        /* \"contracts/mapping.sol\":683:705  mymapping[key].account */\n      0x03\n      add\n      0x00\n        /* \"contracts/mapping.sol\":683:715  mymapping[key].account = _acount */\n      0x0100\n      exp\n      dup2\n      sload\n      dup2\n      0xffffffffffffffffffffffffffffffffffffffff\n      mul\n      not\n      and\n      swap1\n      dup4\n      0xffffffffffffffffffffffffffffffffffffffff\n      and\n      mul\n      or\n      swap1\n      sstore\n      pop\n        /* \"contracts/mapping.sol\":352:732  function addData... */\n      pop\n      pop\n      pop\n      pop\n      pop\n      jump\t// out\n    tag_53:\n      pop\n      dup1\n      sload\n      tag_69\n      swap1\n      tag_41\n      jump\t// in\n    tag_69:\n      0x00\n      dup3\n      sstore\n      dup1\n      0x1f\n      lt\n      tag_71\n      jumpi\n      pop\n      jump(tag_70)\n    tag_71:\n      0x1f\n      add\n      0x20\n      swap1\n      div\n      swap1\n      0x00\n      mstore\n      keccak256(0x00, 0x20)\n      swap1\n      dup2\n      add\n      swap1\n      tag_72\n      swap2\n      swap1\n      tag_73\n      jump\t// in\n    tag_72:\n    tag_70:\n      pop\n      jump\t// out\n    tag_73:\n    tag_74:\n      dup1\n      dup3\n      gt\n      iszero\n      tag_75\n      jumpi\n      0x00\n      dup2\n      0x00\n      swap1\n      sstore\n      pop\n      0x01\n      add\n      jump(tag_74)\n    tag_75:\n      pop\n      swap1\n      jump\t// out\n        /* \"#utility.yul\":7:131   */\n    tag_76:\n        /* \"#utility.yul\":84:90   */\n      0x00\n        /* \"#utility.yul\":118:123   */\n      dup2\n        /* \"#utility.yul\":112:124   */\n      mload\n        /* \"#utility.yul\":102:124   */\n      swap1\n      pop\n        /* \"#utility.yul\":7:131   */\n      swap2\n      swap1\n      pop\n      jump\t// out\n        /* \"#utility.yul\":137:331   */\n    tag_77:\n        /* \"#utility.yul\":246:257   */\n      0x00\n        /* \"#utility.yul\":280:286   */\n      dup3\n        /* \"#utility.yul\":275:278   */\n      dup3\n        /* \"#utility.yul\":268:287   */\n      mstore\n        /* \"#utility.yul\":320:324   */\n      0x20\n        /* \"#utility.yul\":315:318   */\n      dup3\n        /* \"#utility.yul\":311:325   */\n      add\n        /* \"#utility.yul\":296:325   */\n      swap1\n      pop\n        /* \"#utility.yul\":137:331   */\n      swap3\n      swap2\n      pop\n      pop\n      jump\t// out\n        /* \"#utility.yul\":337:479   */\n    tag_78:\n        /* \"#utility.yul\":414:418   */\n      0x00\n        /* \"#utility.yul\":437:440   */\n      dup2\n        /* \"#utility.yul\":429:440   */\n      swap1\n      pop\n        /* \"#utility.yul\":467:471   */\n      0x20\n        /* \"#utility.yul\":462:465   */\n      dup3\n        /* \"#utility.yul\":458:472   */\n      add\n        /* \"#utility.yul\":450:472   */\n      swap1\n      pop\n        /* \"#utility.yul\":337:479   */\n      swap2\n      swap1\n      pop\n      jump\t// out\n        /* \"#utility.yul\":485:584   */\n    tag_79:\n        /* \"#utility.yul\":537:543   */\n      0x00\n        /* \"#utility.yul\":571:576   */\n      dup2\n        /* \"#utility.yul\":565:577   */\n      mload\n        /* \"#utility.yul\":555:577   */\n      swap1\n      pop\n        /* \"#utility.yul\":485:584   */\n      swap2\n      swap1\n      pop\n      jump\t// out\n        /* \"#utility.yul\":590:749   */\n    tag_80:\n        /* \"#utility.yul\":664:675   */\n      0x00\n        /* \"#utility.yul\":698:704   */\n      dup3\n        /* \"#utility.yul\":693:696   */\n      dup3\n        /* \"#utility.yul\":686:705   */\n      mstore\n        /* \"#utility.yul\":738:742   */\n      0x20\n        /* \"#utility.yul\":733:736   */\n      dup3\n        /* \"#utility.yul\":729:743   */\n      add\n        /* \"#utility.yul\":714:743   */\n      swap1\n      pop\n        /* \"#utility.yul\":590:749   */\n      swap3\n      swap2\n      pop\n      pop\n      jump\t// out\n        /* \"#utility.yul\":755:1001   */\n    tag_81:\n        /* \"#utility.yul\":836:837   */\n      0x00\n        /* \"#utility.yul\":846:959   */\n    tag_133:\n        /* \"#utility.yul\":860:866   */\n      dup4\n        /* \"#utility.yul\":857:858   */\n      dup2\n        /* \"#utility.yul\":854:867   */\n      lt\n        /* \"#utility.yul\":846:959   */\n      iszero\n      tag_135\n      jumpi\n        /* \"#utility.yul\":945:946   */\n      dup1\n        /* \"#utility.yul\":940:943   */\n      dup3\n        /* \"#utility.yul\":936:947   */\n      add\n        /* \"#utility.yul\":930:948   */\n      mload\n        /* \"#utility.yul\":926:927   */\n      dup2\n        /* \"#utility.yul\":921:924   */\n      dup5\n        /* \"#utility.yul\":917:928   */\n      add\n        /* \"#utility.yul\":910:949   */\n      mstore\n        /* \"#utility.yul\":882:884   */\n      0x20\n        /* \"#utility.yul\":879:880   */\n      dup2\n        /* \"#utility.yul\":875:885   */\n      add\n        /* \"#utility.yul\":870:885   */\n      swap1\n      pop\n        /* \"#utility.yul\":846:959   */\n      jump(tag_133)\n    tag_135:\n        /* \"#utility.yul\":993:994   */\n      0x00\n        /* \"#utility.yul\":984:990   */\n      dup5\n        /* \"#utility.yul\":979:982   */\n      dup5\n        /* \"#utility.yul\":975:991   */\n      add\n        /* \"#utility.yul\":968:995   */\n      mstore\n        /* \"#utility.yul\":817:1001   */\n      pop\n        /* \"#utility.yul\":755:1001   */\n      pop\n      pop\n      pop\n      jump\t// out\n        /* \"#utility.yul\":1007:1109   */\n    tag_82:\n        /* \"#utility.yul\":1048:1054   */\n      0x00\n        /* \"#utility.yul\":1099:1101   */\n      0x1f\n        /* \"#utility.yul\":1095:1102   */\n      not\n        /* \"#utility.yul\":1090:1092   */\n      0x1f\n        /* \"#utility.yul\":1083:1088   */\n      dup4\n        /* \"#utility.yul\":1079:1093   */\n      add\n        /* \"#utility.yul\":1075:1103   */\n      and\n        /* \"#utility.yul\":1065:1103   */\n      swap1\n      pop\n        /* \"#utility.yul\":1007:1109   */\n      swap2\n      swap1\n      pop\n      jump\t// out\n        /* \"#utility.yul\":1115:1472   */\n    tag_83:\n        /* \"#utility.yul\":1193:1196   */\n      0x00\n        /* \"#utility.yul\":1221:1260   */\n      tag_138\n        /* \"#utility.yul\":1254:1259   */\n      dup3\n        /* \"#utility.yul\":1221:1260   */\n      tag_79\n      jump\t// in\n    tag_138:\n        /* \"#utility.yul\":1276:1337   */\n      tag_139\n        /* \"#utility.yul\":1330:1336   */\n      dup2\n        /* \"#utility.yul\":1325:1328   */\n      dup6\n        /* \"#utility.yul\":1276:1337   */\n      tag_80\n      jump\t// in\n    tag_139:\n        /* \"#utility.yul\":1269:1337   */\n      swap4\n      pop\n        /* \"#utility.yul\":1346:1411   */\n      tag_140\n        /* \"#utility.yul\":1404:1410   */\n      dup2\n        /* \"#utility.yul\":1399:1402   */\n      dup6\n        /* \"#utility.yul\":1392:1396   */\n      0x20\n        /* \"#utility.yul\":1385:1390   */\n      dup7\n        /* \"#utility.yul\":1381:1397   */\n      add\n        /* \"#utility.yul\":1346:1411   */\n      tag_81\n      jump\t// in\n    tag_140:\n        /* \"#utility.yul\":1436:1465   */\n      tag_141\n        /* \"#utility.yul\":1458:1464   */\n      dup2\n        /* \"#utility.yul\":1436:1465   */\n      tag_82\n      jump\t// in\n    tag_141:\n        /* \"#utility.yul\":1431:1434   */\n      dup5\n        /* \"#utility.yul\":1427:1466   */\n      add\n        /* \"#utility.yul\":1420:1466   */\n      swap2\n      pop\n        /* \"#utility.yul\":1197:1472   */\n      pop\n        /* \"#utility.yul\":1115:1472   */\n      swap3\n      swap2\n      pop\n      pop\n      jump\t// out\n        /* \"#utility.yul\":1478:1674   */\n    tag_84:\n        /* \"#utility.yul\":1567:1577   */\n      0x00\n        /* \"#utility.yul\":1602:1668   */\n      tag_143\n        /* \"#utility.yul\":1664:1667   */\n      dup4\n        /* \"#utility.yul\":1656:1662   */\n      dup4\n        /* \"#utility.yul\":1602:1668   */\n      tag_83\n      jump\t// in\n    tag_143:\n        /* \"#utility.yul\":1588:1668   */\n      swap1\n      pop\n        /* \"#utility.yul\":1478:1674   */\n      swap3\n      swap2\n      pop\n      pop\n      jump\t// out\n        /* \"#utility.yul\":1680:1803   */\n    tag_85:\n        /* \"#utility.yul\":1760:1764   */\n      0x00\n        /* \"#utility.yul\":1792:1796   */\n      0x20\n        /* \"#utility.yul\":1787:1790   */\n      dup3\n        /* \"#utility.yul\":1783:1797   */\n      add\n        /* \"#utility.yul\":1775:1797   */\n      swap1\n      pop\n        /* \"#utility.yul\":1680:1803   */\n      swap2\n      swap1\n      pop\n      jump\t// out\n        /* \"#utility.yul\":1837:2828   */\n    tag_86:\n        /* \"#utility.yul\":1976:1979   */\n      0x00\n        /* \"#utility.yul\":2005:2069   */\n      tag_146\n        /* \"#utility.yul\":2063:2068   */\n      dup3\n        /* \"#utility.yul\":2005:2069   */\n      tag_76\n      jump\t// in\n    tag_146:\n        /* \"#utility.yul\":2085:2181   */\n      tag_147\n        /* \"#utility.yul\":2174:2180   */\n      dup2\n        /* \"#utility.yul\":2169:2172   */\n      dup6\n        /* \"#utility.yul\":2085:2181   */\n      tag_77\n      jump\t// in\n    tag_147:\n        /* \"#utility.yul\":2078:2181   */\n      swap4\n      pop\n        /* \"#utility.yul\":2207:2210   */\n      dup4\n        /* \"#utility.yul\":2252:2256   */\n      0x20\n        /* \"#utility.yul\":2244:2250   */\n      dup3\n        /* \"#utility.yul\":2240:2257   */\n      mul\n        /* \"#utility.yul\":2235:2238   */\n      dup6\n        /* \"#utility.yul\":2231:2258   */\n      add\n        /* \"#utility.yul\":2282:2348   */\n      tag_148\n        /* \"#utility.yul\":2342:2347   */\n      dup6\n        /* \"#utility.yul\":2282:2348   */\n      tag_78\n      jump\t// in\n    tag_148:\n        /* \"#utility.yul\":2371:2378   */\n      dup1\n        /* \"#utility.yul\":2402:2403   */\n      0x00\n        /* \"#utility.yul\":2387:2783   */\n    tag_149:\n        /* \"#utility.yul\":2412:2418   */\n      dup6\n        /* \"#utility.yul\":2409:2410   */\n      dup2\n        /* \"#utility.yul\":2406:2419   */\n      lt\n        /* \"#utility.yul\":2387:2783   */\n      iszero\n      tag_151\n      jumpi\n        /* \"#utility.yul\":2483:2492   */\n      dup5\n        /* \"#utility.yul\":2477:2481   */\n      dup5\n        /* \"#utility.yul\":2473:2493   */\n      sub\n        /* \"#utility.yul\":2468:2471   */\n      dup10\n        /* \"#utility.yul\":2461:2494   */\n      mstore\n        /* \"#utility.yul\":2534:2540   */\n      dup2\n        /* \"#utility.yul\":2528:2541   */\n      mload\n        /* \"#utility.yul\":2562:2646   */\n      tag_152\n        /* \"#utility.yul\":2641:2645   */\n      dup6\n        /* \"#utility.yul\":2626:2639   */\n      dup3\n        /* \"#utility.yul\":2562:2646   */\n      tag_84\n      jump\t// in\n    tag_152:\n        /* \"#utility.yul\":2554:2646   */\n      swap5\n      pop\n        /* \"#utility.yul\":2669:2739   */\n      tag_153\n        /* \"#utility.yul\":2732:2738   */\n      dup4\n        /* \"#utility.yul\":2669:2739   */\n      tag_85\n      jump\t// in\n    tag_153:\n        /* \"#utility.yul\":2659:2739   */\n      swap3\n      pop\n        /* \"#utility.yul\":2768:2772   */\n      0x20\n        /* \"#utility.yul\":2763:2766   */\n      dup11\n        /* \"#utility.yul\":2759:2773   */\n      add\n        /* \"#utility.yul\":2752:2773   */\n      swap10\n      pop\n        /* \"#utility.yul\":2447:2783   */\n      pop\n        /* \"#utility.yul\":2434:2435   */\n      0x01\n        /* \"#utility.yul\":2431:2432   */\n      dup2\n        /* \"#utility.yul\":2427:2436   */\n      add\n        /* \"#utility.yul\":2422:2436   */\n      swap1\n      pop\n        /* \"#utility.yul\":2387:2783   */\n      jump(tag_149)\n    tag_151:\n        /* \"#utility.yul\":2391:2405   */\n      pop\n        /* \"#utility.yul\":2799:2803   */\n      dup3\n        /* \"#utility.yul\":2792:2803   */\n      swap8\n      pop\n        /* \"#utility.yul\":2819:2822   */\n      dup8\n        /* \"#utility.yul\":2812:2822   */\n      swap6\n      pop\n        /* \"#utility.yul\":1981:2828   */\n      pop\n      pop\n      pop\n      pop\n      pop\n        /* \"#utility.yul\":1837:2828   */\n      swap3\n      swap2\n      pop\n      pop\n      jump\t// out\n        /* \"#utility.yul\":2834:3247   */\n    tag_11:\n        /* \"#utility.yul\":2997:3001   */\n      0x00\n        /* \"#utility.yul\":3035:3037   */\n      0x20\n        /* \"#utility.yul\":3024:3033   */\n      dup3\n        /* \"#utility.yul\":3020:3038   */\n      add\n        /* \"#utility.yul\":3012:3038   */\n      swap1\n      pop\n        /* \"#utility.yul\":3084:3093   */\n      dup2\n        /* \"#utility.yul\":3078:3082   */\n      dup2\n        /* \"#utility.yul\":3074:3094   */\n      sub\n        /* \"#utility.yul\":3070:3071   */\n      0x00\n        /* \"#utility.yul\":3059:3068   */\n      dup4\n        /* \"#utility.yul\":3055:3072   */\n      add\n        /* \"#utility.yul\":3048:3095   */\n      mstore\n        /* \"#utility.yul\":3112:3240   */\n      tag_155\n        /* \"#utility.yul\":3235:3239   */\n      dup2\n        /* \"#utility.yul\":3226:3232   */\n      dup5\n        /* \"#utility.yul\":3112:3240   */\n      tag_86\n      jump\t// in\n    tag_155:\n        /* \"#utility.yul\":3104:3240   */\n      swap1\n      pop\n        /* \"#utility.yul\":2834:3247   */\n      swap3\n      swap2\n      pop\n      pop\n      jump\t// out\n        /* \"#utility.yul\":3253:3328   */\n    tag_87:\n        /* \"#utility.yul\":3286:3292   */\n      0x00\n        /* \"#utility.yul\":3319:3321   */\n      0x40\n        /* \"#utility.yul\":3313:3322   */\n      mload\n        /* \"#utility.yul\":3303:3322   */\n      swap1\n      pop\n        /* \"#utility.yul\":3253:3328   */\n      swap1\n      jump\t// out\n        /* \"#utility.yul\":3334:3451   */\n    tag_88:\n        /* \"#utility.yul\":3443:3444   */\n      0x00\n        /* \"#utility.yul\":3440:3441   */\n      dup1\n        /* \"#utility.yul\":3433:3445   */\n      revert\n        /* \"#utility.yul\":3457:3574   */\n    tag_89:\n        /* \"#utility.yul\":3566:3567   */\n      0x00\n        /* \"#utility.yul\":3563:3564   */\n      dup1\n        /* \"#utility.yul\":3556:3568   */\n      revert\n        /* \"#utility.yul\":3580:3657   */\n    tag_90:\n        /* \"#utility.yul\":3617:3624   */\n      0x00\n        /* \"#utility.yul\":3646:3651   */\n      dup2\n        /* \"#utility.yul\":3635:3651   */\n      swap1\n      pop\n        /* \"#utility.yul\":3580:3657   */\n      swap2\n      swap1\n      pop\n      jump\t// out\n        /* \"#utility.yul\":3663:3785   */\n    tag_91:\n        /* \"#utility.yul\":3736:3760   */\n      tag_161\n        /* \"#utility.yul\":3754:3759   */\n      dup2\n        /* \"#utility.yul\":3736:3760   */\n      tag_90\n      jump\t// in\n    tag_161:\n        /* \"#utility.yul\":3729:3734   */\n      dup2\n        /* \"#utility.yul\":3726:3761   */\n      eq\n        /* \"#utility.yul\":3716:3779   */\n      tag_162\n      jumpi\n        /* \"#utility.yul\":3775:3776   */\n      0x00\n        /* \"#utility.yul\":3772:3773   */\n      dup1\n        /* \"#utility.yul\":3765:3777   */\n      revert\n        /* \"#utility.yul\":3716:3779   */\n    tag_162:\n        /* \"#utility.yul\":3663:3785   */\n      pop\n      jump\t// out\n        /* \"#utility.yul\":3791:3930   */\n    tag_92:\n        /* \"#utility.yul\":3837:3842   */\n      0x00\n        /* \"#utility.yul\":3875:3881   */\n      dup2\n        /* \"#utility.yul\":3862:3882   */\n      calldataload\n        /* \"#utility.yul\":3853:3882   */\n      swap1\n      pop\n        /* \"#utility.yul\":3891:3924   */\n      tag_164\n        /* \"#utility.yul\":3918:3923   */\n      dup2\n        /* \"#utility.yul\":3891:3924   */\n      tag_91\n      jump\t// in\n    tag_164:\n        /* \"#utility.yul\":3791:3930   */\n      swap3\n      swap2\n      pop\n      pop\n      jump\t// out\n        /* \"#utility.yul\":3936:4265   */\n    tag_14:\n        /* \"#utility.yul\":3995:4001   */\n      0x00\n        /* \"#utility.yul\":4044:4046   */\n      0x20\n        /* \"#utility.yul\":4032:4041   */\n      dup3\n        /* \"#utility.yul\":4023:4030   */\n      dup5\n        /* \"#utility.yul\":4019:4042   */\n      sub\n        /* \"#utility.yul\":4015:4047   */\n      slt\n        /* \"#utility.yul\":4012:4131   */\n      iszero\n      tag_166\n      jumpi\n        /* \"#utility.yul\":4050:4129   */\n      tag_167\n      tag_88\n      jump\t// in\n    tag_167:\n        /* \"#utility.yul\":4012:4131   */\n    tag_166:\n        /* \"#utility.yul\":4170:4171   */\n      0x00\n        /* \"#utility.yul\":4195:4248   */\n      tag_168\n        /* \"#utility.yul\":4240:4247   */\n      dup5\n        /* \"#utility.yul\":4231:4237   */\n      dup3\n        /* \"#utility.yul\":4220:4229   */\n      dup6\n        /* \"#utility.yul\":4216:4238   */\n      add\n        /* \"#utility.yul\":4195:4248   */\n      tag_92\n      jump\t// in\n    tag_168:\n        /* \"#utility.yul\":4185:4248   */\n      swap2\n      pop\n        /* \"#utility.yul\":4141:4258   */\n      pop\n        /* \"#utility.yul\":3936:4265   */\n      swap3\n      swap2\n      pop\n      pop\n      jump\t// out\n        /* \"#utility.yul\":4271:4389   */\n    tag_93:\n        /* \"#utility.yul\":4358:4382   */\n      tag_170\n        /* \"#utility.yul\":4376:4381   */\n      dup2\n        /* \"#utility.yul\":4358:4382   */\n      tag_90\n      jump\t// in\n    tag_170:\n        /* \"#utility.yul\":4353:4356   */\n      dup3\n        /* \"#utility.yul\":4346:4383   */\n      mstore\n        /* \"#utility.yul\":4271:4389   */\n      pop\n      pop\n      jump\t// out\n        /* \"#utility.yul\":4395:4617   */\n    tag_19:\n        /* \"#utility.yul\":4488:4492   */\n      0x00\n        /* \"#utility.yul\":4526:4528   */\n      0x20\n        /* \"#utility.yul\":4515:4524   */\n      dup3\n        /* \"#utility.yul\":4511:4529   */\n      add\n        /* \"#utility.yul\":4503:4529   */\n      swap1\n      pop\n        /* \"#utility.yul\":4539:4610   */\n      tag_172\n        /* \"#utility.yul\":4607:4608   */\n      0x00\n        /* \"#utility.yul\":4596:4605   */\n      dup4\n        /* \"#utility.yul\":4592:4609   */\n      add\n        /* \"#utility.yul\":4583:4589   */\n      dup5\n        /* \"#utility.yul\":4539:4610   */\n      tag_93\n      jump\t// in\n    tag_172:\n        /* \"#utility.yul\":4395:4617   */\n      swap3\n      swap2\n      pop\n      pop\n      jump\t// out\n        /* \"#utility.yul\":4623:4792   */\n    tag_94:\n        /* \"#utility.yul\":4707:4718   */\n      0x00\n        /* \"#utility.yul\":4741:4747   */\n      dup3\n        /* \"#utility.yul\":4736:4739   */\n      dup3\n        /* \"#utility.yul\":4729:4748   */\n      mstore\n        /* \"#utility.yul\":4781:4785   */\n      0x20\n        /* \"#utility.yul\":4776:4779   */\n      dup3\n        /* \"#utility.yul\":4772:4786   */\n      add\n        /* \"#utility.yul\":4757:4786   */\n      swap1\n      pop\n        /* \"#utility.yul\":4623:4792   */\n      swap3\n      swap2\n      pop\n      pop\n      jump\t// out\n        /* \"#utility.yul\":4798:5175   */\n    tag_95:\n        /* \"#utility.yul\":4886:4889   */\n      0x00\n        /* \"#utility.yul\":4914:4953   */\n      tag_175\n        /* \"#utility.yul\":4947:4952   */\n      dup3\n        /* \"#utility.yul\":4914:4953   */\n      tag_79\n      jump\t// in\n    tag_175:\n        /* \"#utility.yul\":4969:5040   */\n      tag_176\n        /* \"#utility.yul\":5033:5039   */\n      dup2\n        /* \"#utility.yul\":5028:5031   */\n      dup6\n        /* \"#utility.yul\":4969:5040   */\n      tag_94\n      jump\t// in\n    tag_176:\n        /* \"#utility.yul\":4962:5040   */\n      swap4\n      pop\n        /* \"#utility.yul\":5049:5114   */\n      tag_177\n        /* \"#utility.yul\":5107:5113   */\n      dup2\n        /* \"#utility.yul\":5102:5105   */\n      dup6\n        /* \"#utility.yul\":5095:5099   */\n      0x20\n        /* \"#utility.yul\":5088:5093   */\n      dup7\n        /* \"#utility.yul\":5084:5100   */\n      add\n        /* \"#utility.yul\":5049:5114   */\n      tag_81\n      jump\t// in\n    tag_177:\n        /* \"#utility.yul\":5139:5168   */\n      tag_178\n        /* \"#utility.yul\":5161:5167   */\n      dup2\n        /* \"#utility.yul\":5139:5168   */\n      tag_82\n      jump\t// in\n    tag_178:\n        /* \"#utility.yul\":5134:5137   */\n      dup5\n        /* \"#utility.yul\":5130:5169   */\n      add\n        /* \"#utility.yul\":5123:5169   */\n      swap2\n      pop\n        /* \"#utility.yul\":4890:5175   */\n      pop\n        /* \"#utility.yul\":4798:5175   */\n      swap3\n      swap2\n      pop\n      pop\n      jump\t// out\n        /* \"#utility.yul\":5181:5307   */\n    tag_96:\n        /* \"#utility.yul\":5218:5225   */\n      0x00\n        /* \"#utility.yul\":5258:5300   */\n      0xffffffffffffffffffffffffffffffffffffffff\n        /* \"#utility.yul\":5251:5256   */\n      dup3\n        /* \"#utility.yul\":5247:5301   */\n      and\n        /* \"#utility.yul\":5236:5301   */\n      swap1\n      pop\n        /* \"#utility.yul\":5181:5307   */\n      swap2\n      swap1\n      pop\n      jump\t// out\n        /* \"#utility.yul\":5313:5409   */\n    tag_97:\n        /* \"#utility.yul\":5350:5357   */\n      0x00\n        /* \"#utility.yul\":5379:5403   */\n      tag_181\n        /* \"#utility.yul\":5397:5402   */\n      dup3\n        /* \"#utility.yul\":5379:5403   */\n      tag_96\n      jump\t// in\n    tag_181:\n        /* \"#utility.yul\":5368:5403   */\n      swap1\n      pop\n        /* \"#utility.yul\":5313:5409   */\n      swap2\n      swap1\n      pop\n      jump\t// out\n        /* \"#utility.yul\":5415:5533   */\n    tag_98:\n        /* \"#utility.yul\":5502:5526   */\n      tag_183\n        /* \"#utility.yul\":5520:5525   */\n      dup2\n        /* \"#utility.yul\":5502:5526   */\n      tag_97\n      jump\t// in\n    tag_183:\n        /* \"#utility.yul\":5497:5500   */\n      dup3\n        /* \"#utility.yul\":5490:5527   */\n      mstore\n        /* \"#utility.yul\":5415:5533   */\n      pop\n      pop\n      jump\t// out\n        /* \"#utility.yul\":5539:6274   */\n    tag_24:\n        /* \"#utility.yul\":5756:5760   */\n      0x00\n        /* \"#utility.yul\":5794:5797   */\n      0x80\n        /* \"#utility.yul\":5783:5792   */\n      dup3\n        /* \"#utility.yul\":5779:5798   */\n      add\n        /* \"#utility.yul\":5771:5798   */\n      swap1\n      pop\n        /* \"#utility.yul\":5844:5853   */\n      dup2\n        /* \"#utility.yul\":5838:5842   */\n      dup2\n        /* \"#utility.yul\":5834:5854   */\n      sub\n        /* \"#utility.yul\":5830:5831   */\n      0x00\n        /* \"#utility.yul\":5819:5828   */\n      dup4\n        /* \"#utility.yul\":5815:5832   */\n      add\n        /* \"#utility.yul\":5808:5855   */\n      mstore\n        /* \"#utility.yul\":5872:5950   */\n      tag_185\n        /* \"#utility.yul\":5945:5949   */\n      dup2\n        /* \"#utility.yul\":5936:5942   */\n      dup8\n        /* \"#utility.yul\":5872:5950   */\n      tag_95\n      jump\t// in\n    tag_185:\n        /* \"#utility.yul\":5864:5950   */\n      swap1\n      pop\n        /* \"#utility.yul\":5960:6032   */\n      tag_186\n        /* \"#utility.yul\":6028:6030   */\n      0x20\n        /* \"#utility.yul\":6017:6026   */\n      dup4\n        /* \"#utility.yul\":6013:6031   */\n      add\n        /* \"#utility.yul\":6004:6010   */\n      dup7\n        /* \"#utility.yul\":5960:6032   */\n      tag_93\n      jump\t// in\n    tag_186:\n        /* \"#utility.yul\":6079:6088   */\n      dup2\n        /* \"#utility.yul\":6073:6077   */\n      dup2\n        /* \"#utility.yul\":6069:6089   */\n      sub\n        /* \"#utility.yul\":6064:6066   */\n      0x40\n        /* \"#utility.yul\":6053:6062   */\n      dup4\n        /* \"#utility.yul\":6049:6067   */\n      add\n        /* \"#utility.yul\":6042:6090   */\n      mstore\n        /* \"#utility.yul\":6107:6185   */\n      tag_187\n        /* \"#utility.yul\":6180:6184   */\n      dup2\n        /* \"#utility.yul\":6171:6177   */\n      dup6\n        /* \"#utility.yul\":6107:6185   */\n      tag_95\n      jump\t// in\n    tag_187:\n        /* \"#utility.yul\":6099:6185   */\n      swap1\n      pop\n        /* \"#utility.yul\":6195:6267   */\n      tag_188\n        /* \"#utility.yul\":6263:6265   */\n      0x60\n        /* \"#utility.yul\":6252:6261   */\n      dup4\n        /* \"#utility.yul\":6248:6266   */\n      add\n        /* \"#utility.yul\":6239:6245   */\n      dup5\n        /* \"#utility.yul\":6195:6267   */\n      tag_98\n      jump\t// in\n    tag_188:\n        /* \"#utility.yul\":5539:6274   */\n      swap6\n      swap5\n      pop\n      pop\n      pop\n      pop\n      pop\n      jump\t// out\n        /* \"#utility.yul\":6280:6397   */\n    tag_99:\n        /* \"#utility.yul\":6389:6390   */\n      0x00\n        /* \"#utility.yul\":6386:6387   */\n      dup1\n        /* \"#utility.yul\":6379:6391   */\n      revert\n        /* \"#utility.yul\":6403:6520   */\n    tag_100:\n        /* \"#utility.yul\":6512:6513   */\n      0x00\n        /* \"#utility.yul\":6509:6510   */\n      dup1\n        /* \"#utility.yul\":6502:6514   */\n      revert\n        /* \"#utility.yul\":6526:6706   */\n    tag_34:\n        /* \"#utility.yul\":6574:6651   */\n      0x4e487b7100000000000000000000000000000000000000000000000000000000\n        /* \"#utility.yul\":6571:6572   */\n      0x00\n        /* \"#utility.yul\":6564:6652   */\n      mstore\n        /* \"#utility.yul\":6671:6675   */\n      0x41\n        /* \"#utility.yul\":6668:6669   */\n      0x04\n        /* \"#utility.yul\":6661:6676   */\n      mstore\n        /* \"#utility.yul\":6695:6699   */\n      0x24\n        /* \"#utility.yul\":6692:6693   */\n      0x00\n        /* \"#utility.yul\":6685:6700   */\n      revert\n        /* \"#utility.yul\":6712:6993   */\n    tag_101:\n        /* \"#utility.yul\":6795:6822   */\n      tag_193\n        /* \"#utility.yul\":6817:6821   */\n      dup3\n        /* \"#utility.yul\":6795:6822   */\n      tag_82\n      jump\t// in\n    tag_193:\n        /* \"#utility.yul\":6787:6793   */\n      dup2\n        /* \"#utility.yul\":6783:6823   */\n      add\n        /* \"#utility.yul\":6925:6931   */\n      dup2\n        /* \"#utility.yul\":6913:6923   */\n      dup2\n        /* \"#utility.yul\":6910:6932   */\n      lt\n        /* \"#utility.yul\":6889:6907   */\n      0xffffffffffffffff\n        /* \"#utility.yul\":6877:6887   */\n      dup3\n        /* \"#utility.yul\":6874:6908   */\n      gt\n        /* \"#utility.yul\":6871:6933   */\n      or\n        /* \"#utility.yul\":6868:6956   */\n      iszero\n      tag_194\n      jumpi\n        /* \"#utility.yul\":6936:6954   */\n      tag_195\n      tag_34\n      jump\t// in\n    tag_195:\n        /* \"#utility.yul\":6868:6956   */\n    tag_194:\n        /* \"#utility.yul\":6976:6986   */\n      dup1\n        /* \"#utility.yul\":6972:6974   */\n      0x40\n        /* \"#utility.yul\":6965:6987   */\n      mstore\n        /* \"#utility.yul\":6755:6993   */\n      pop\n        /* \"#utility.yul\":6712:6993   */\n      pop\n      pop\n      jump\t// out\n        /* \"#utility.yul\":6999:7128   */\n    tag_102:\n        /* \"#utility.yul\":7033:7039   */\n      0x00\n        /* \"#utility.yul\":7060:7080   */\n      tag_197\n      tag_87\n      jump\t// in\n    tag_197:\n        /* \"#utility.yul\":7050:7080   */\n      swap1\n      pop\n        /* \"#utility.yul\":7089:7122   */\n      tag_198\n        /* \"#utility.yul\":7117:7121   */\n      dup3\n        /* \"#utility.yul\":7109:7115   */\n      dup3\n        /* \"#utility.yul\":7089:7122   */\n      tag_101\n      jump\t// in\n    tag_198:\n        /* \"#utility.yul\":6999:7128   */\n      swap2\n      swap1\n      pop\n      jump\t// out\n        /* \"#utility.yul\":7134:7442   */\n    tag_103:\n        /* \"#utility.yul\":7196:7200   */\n      0x00\n        /* \"#utility.yul\":7286:7304   */\n      0xffffffffffffffff\n        /* \"#utility.yul\":7278:7284   */\n      dup3\n        /* \"#utility.yul\":7275:7305   */\n      gt\n        /* \"#utility.yul\":7272:7328   */\n      iszero\n      tag_200\n      jumpi\n        /* \"#utility.yul\":7308:7326   */\n      tag_201\n      tag_34\n      jump\t// in\n    tag_201:\n        /* \"#utility.yul\":7272:7328   */\n    tag_200:\n        /* \"#utility.yul\":7346:7375   */\n      tag_202\n        /* \"#utility.yul\":7368:7374   */\n      dup3\n        /* \"#utility.yul\":7346:7375   */\n      tag_82\n      jump\t// in\n    tag_202:\n        /* \"#utility.yul\":7338:7375   */\n      swap1\n      pop\n        /* \"#utility.yul\":7430:7434   */\n      0x20\n        /* \"#utility.yul\":7424:7428   */\n      dup2\n        /* \"#utility.yul\":7420:7435   */\n      add\n        /* \"#utility.yul\":7412:7435   */\n      swap1\n      pop\n        /* \"#utility.yul\":7134:7442   */\n      swap2\n      swap1\n      pop\n      jump\t// out\n        /* \"#utility.yul\":7448:7594   */\n    tag_104:\n        /* \"#utility.yul\":7545:7551   */\n      dup3\n        /* \"#utility.yul\":7540:7543   */\n      dup2\n        /* \"#utility.yul\":7535:7538   */\n      dup4\n        /* \"#utility.yul\":7522:7552   */\n      calldatacopy\n        /* \"#utility.yul\":7586:7587   */\n      0x00\n        /* \"#utility.yul\":7577:7583   */\n      dup4\n        /* \"#utility.yul\":7572:7575   */\n      dup4\n        /* \"#utility.yul\":7568:7584   */\n      add\n        /* \"#utility.yul\":7561:7588   */\n      mstore\n        /* \"#utility.yul\":7448:7594   */\n      pop\n      pop\n      pop\n      jump\t// out\n        /* \"#utility.yul\":7600:8025   */\n    tag_105:\n        /* \"#utility.yul\":7678:7683   */\n      0x00\n        /* \"#utility.yul\":7703:7769   */\n      tag_205\n        /* \"#utility.yul\":7719:7768   */\n      tag_206\n        /* \"#utility.yul\":7761:7767   */\n      dup5\n        /* \"#utility.yul\":7719:7768   */\n      tag_103\n      jump\t// in\n    tag_206:\n        /* \"#utility.yul\":7703:7769   */\n      tag_102\n      jump\t// in\n    tag_205:\n        /* \"#utility.yul\":7694:7769   */\n      swap1\n      pop\n        /* \"#utility.yul\":7792:7798   */\n      dup3\n        /* \"#utility.yul\":7785:7790   */\n      dup2\n        /* \"#utility.yul\":7778:7799   */\n      mstore\n        /* \"#utility.yul\":7830:7834   */\n      0x20\n        /* \"#utility.yul\":7823:7828   */\n      dup2\n        /* \"#utility.yul\":7819:7835   */\n      add\n        /* \"#utility.yul\":7868:7871   */\n      dup5\n        /* \"#utility.yul\":7859:7865   */\n      dup5\n        /* \"#utility.yul\":7854:7857   */\n      dup5\n        /* \"#utility.yul\":7850:7866   */\n      add\n        /* \"#utility.yul\":7847:7872   */\n      gt\n        /* \"#utility.yul\":7844:7956   */\n      iszero\n      tag_207\n      jumpi\n        /* \"#utility.yul\":7875:7954   */\n      tag_208\n      tag_100\n      jump\t// in\n    tag_208:\n        /* \"#utility.yul\":7844:7956   */\n    tag_207:\n        /* \"#utility.yul\":7965:8019   */\n      tag_209\n        /* \"#utility.yul\":8012:8018   */\n      dup5\n        /* \"#utility.yul\":8007:8010   */\n      dup3\n        /* \"#utility.yul\":8002:8005   */\n      dup6\n        /* \"#utility.yul\":7965:8019   */\n      tag_104\n      jump\t// in\n    tag_209:\n        /* \"#utility.yul\":7684:8025   */\n      pop\n        /* \"#utility.yul\":7600:8025   */\n      swap4\n      swap3\n      pop\n      pop\n      pop\n      jump\t// out\n        /* \"#utility.yul\":8045:8385   */\n    tag_106:\n        /* \"#utility.yul\":8101:8106   */\n      0x00\n        /* \"#utility.yul\":8150:8153   */\n      dup3\n        /* \"#utility.yul\":8143:8147   */\n      0x1f\n        /* \"#utility.yul\":8135:8141   */\n      dup4\n        /* \"#utility.yul\":8131:8148   */\n      add\n        /* \"#utility.yul\":8127:8154   */\n      slt\n        /* \"#utility.yul\":8117:8239   */\n      tag_211\n      jumpi\n        /* \"#utility.yul\":8158:8237   */\n      tag_212\n      tag_99\n      jump\t// in\n    tag_212:\n        /* \"#utility.yul\":8117:8239   */\n    tag_211:\n        /* \"#utility.yul\":8275:8281   */\n      dup2\n        /* \"#utility.yul\":8262:8282   */\n      calldataload\n        /* \"#utility.yul\":8300:8379   */\n      tag_213\n        /* \"#utility.yul\":8375:8378   */\n      dup5\n        /* \"#utility.yul\":8367:8373   */\n      dup3\n        /* \"#utility.yul\":8360:8364   */\n      0x20\n        /* \"#utility.yul\":8352:8358   */\n      dup7\n        /* \"#utility.yul\":8348:8365   */\n      add\n        /* \"#utility.yul\":8300:8379   */\n      tag_105\n      jump\t// in\n    tag_213:\n        /* \"#utility.yul\":8291:8379   */\n      swap2\n      pop\n        /* \"#utility.yul\":8107:8385   */\n      pop\n        /* \"#utility.yul\":8045:8385   */\n      swap3\n      swap2\n      pop\n      pop\n      jump\t// out\n        /* \"#utility.yul\":8391:8513   */\n    tag_107:\n        /* \"#utility.yul\":8464:8488   */\n      tag_215\n        /* \"#utility.yul\":8482:8487   */\n      dup2\n        /* \"#utility.yul\":8464:8488   */\n      tag_97\n      jump\t// in\n    tag_215:\n        /* \"#utility.yul\":8457:8462   */\n      dup2\n        /* \"#utility.yul\":8454:8489   */\n      eq\n        /* \"#utility.yul\":8444:8507   */\n      tag_216\n      jumpi\n        /* \"#utility.yul\":8503:8504   */\n      0x00\n        /* \"#utility.yul\":8500:8501   */\n      dup1\n        /* \"#utility.yul\":8493:8505   */\n      revert\n        /* \"#utility.yul\":8444:8507   */\n    tag_216:\n        /* \"#utility.yul\":8391:8513   */\n      pop\n      jump\t// out\n        /* \"#utility.yul\":8519:8658   */\n    tag_108:\n        /* \"#utility.yul\":8565:8570   */\n      0x00\n        /* \"#utility.yul\":8603:8609   */\n      dup2\n        /* \"#utility.yul\":8590:8610   */\n      calldataload\n        /* \"#utility.yul\":8581:8610   */\n      swap1\n      pop\n        /* \"#utility.yul\":8619:8652   */\n      tag_218\n        /* \"#utility.yul\":8646:8651   */\n      dup2\n        /* \"#utility.yul\":8619:8652   */\n      tag_107\n      jump\t// in\n    tag_218:\n        /* \"#utility.yul\":8519:8658   */\n      swap3\n      swap2\n      pop\n      pop\n      jump\t// out\n        /* \"#utility.yul\":8664:9935   */\n    tag_27:\n        /* \"#utility.yul\":8779:8785   */\n      0x00\n        /* \"#utility.yul\":8787:8793   */\n      dup1\n        /* \"#utility.yul\":8795:8801   */\n      0x00\n        /* \"#utility.yul\":8803:8809   */\n      dup1\n        /* \"#utility.yul\":8811:8817   */\n      0x00\n        /* \"#utility.yul\":8860:8863   */\n      0xa0\n        /* \"#utility.yul\":8848:8857   */\n      dup7\n        /* \"#utility.yul\":8839:8846   */\n      dup9\n        /* \"#utility.yul\":8835:8858   */\n      sub\n        /* \"#utility.yul\":8831:8864   */\n      slt\n        /* \"#utility.yul\":8828:8948   */\n      iszero\n      tag_220\n      jumpi\n        /* \"#utility.yul\":8867:8946   */\n      tag_221\n      tag_88\n      jump\t// in\n    tag_221:\n        /* \"#utility.yul\":8828:8948   */\n    tag_220:\n        /* \"#utility.yul\":8987:8988   */\n      0x00\n        /* \"#utility.yul\":9012:9065   */\n      tag_222\n        /* \"#utility.yul\":9057:9064   */\n      dup9\n        /* \"#utility.yul\":9048:9054   */\n      dup3\n        /* \"#utility.yul\":9037:9046   */\n      dup10\n        /* \"#utility.yul\":9033:9055   */\n      add\n        /* \"#utility.yul\":9012:9065   */\n      tag_92\n      jump\t// in\n    tag_222:\n        /* \"#utility.yul\":9002:9065   */\n      swap6\n      pop\n        /* \"#utility.yul\":8958:9075   */\n      pop\n        /* \"#utility.yul\":9142:9144   */\n      0x20\n        /* \"#utility.yul\":9131:9140   */\n      dup7\n        /* \"#utility.yul\":9127:9145   */\n      add\n        /* \"#utility.yul\":9114:9146   */\n      calldataload\n        /* \"#utility.yul\":9173:9191   */\n      0xffffffffffffffff\n        /* \"#utility.yul\":9165:9171   */\n      dup2\n        /* \"#utility.yul\":9162:9192   */\n      gt\n        /* \"#utility.yul\":9159:9276   */\n      iszero\n      tag_223\n      jumpi\n        /* \"#utility.yul\":9195:9274   */\n      tag_224\n      tag_89\n      jump\t// in\n    tag_224:\n        /* \"#utility.yul\":9159:9276   */\n    tag_223:\n        /* \"#utility.yul\":9300:9363   */\n      tag_225\n        /* \"#utility.yul\":9355:9362   */\n      dup9\n        /* \"#utility.yul\":9346:9352   */\n      dup3\n        /* \"#utility.yul\":9335:9344   */\n      dup10\n        /* \"#utility.yul\":9331:9353   */\n      add\n        /* \"#utility.yul\":9300:9363   */\n      tag_106\n      jump\t// in\n    tag_225:\n        /* \"#utility.yul\":9290:9363   */\n      swap5\n      pop\n        /* \"#utility.yul\":9085:9373   */\n      pop\n        /* \"#utility.yul\":9412:9414   */\n      0x40\n        /* \"#utility.yul\":9438:9491   */\n      tag_226\n        /* \"#utility.yul\":9483:9490   */\n      dup9\n        /* \"#utility.yul\":9474:9480   */\n      dup3\n        /* \"#utility.yul\":9463:9472   */\n      dup10\n        /* \"#utility.yul\":9459:9481   */\n      add\n        /* \"#utility.yul\":9438:9491   */\n      tag_92\n      jump\t// in\n    tag_226:\n        /* \"#utility.yul\":9428:9491   */\n      swap4\n      pop\n        /* \"#utility.yul\":9383:9501   */\n      pop\n        /* \"#utility.yul\":9568:9570   */\n      0x60\n        /* \"#utility.yul\":9557:9566   */\n      dup7\n        /* \"#utility.yul\":9553:9571   */\n      add\n        /* \"#utility.yul\":9540:9572   */\n      calldataload\n        /* \"#utility.yul\":9599:9617   */\n      0xffffffffffffffff\n        /* \"#utility.yul\":9591:9597   */\n      dup2\n        /* \"#utility.yul\":9588:9618   */\n      gt\n        /* \"#utility.yul\":9585:9702   */\n      iszero\n      tag_227\n      jumpi\n        /* \"#utility.yul\":9621:9700   */\n      tag_228\n      tag_89\n      jump\t// in\n    tag_228:\n        /* \"#utility.yul\":9585:9702   */\n    tag_227:\n        /* \"#utility.yul\":9726:9789   */\n      tag_229\n        /* \"#utility.yul\":9781:9788   */\n      dup9\n        /* \"#utility.yul\":9772:9778   */\n      dup3\n        /* \"#utility.yul\":9761:9770   */\n      dup10\n        /* \"#utility.yul\":9757:9779   */\n      add\n        /* \"#utility.yul\":9726:9789   */\n      tag_106\n      jump\t// in\n    tag_229:\n        /* \"#utility.yul\":9716:9789   */\n      swap3\n      pop\n        /* \"#utility.yul\":9511:9799   */\n      pop\n        /* \"#utility.yul\":9838:9841   */\n      0x80\n        /* \"#utility.yul\":9865:9918   */\n      tag_230\n        /* \"#utility.yul\":9910:9917   */\n      dup9\n        /* \"#utility.yul\":9901:9907   */\n      dup3\n        /* \"#utility.yul\":9890:9899   */\n      dup10\n        /* \"#utility.yul\":9886:9908   */\n      add\n        /* \"#utility.yul\":9865:9918   */\n      tag_108\n      jump\t// in\n    tag_230:\n        /* \"#utility.yul\":9855:9918   */\n      swap2\n      pop\n        /* \"#utility.yul\":9809:9928   */\n      pop\n        /* \"#utility.yul\":8664:9935   */\n      swap3\n      swap6\n      pop\n      swap3\n      swap6\n      swap1\n      swap4\n      pop\n      jump\t// out\n        /* \"#utility.yul\":9941:10121   */\n    tag_109:\n        /* \"#utility.yul\":9989:10066   */\n      0x4e487b7100000000000000000000000000000000000000000000000000000000\n        /* \"#utility.yul\":9986:9987   */\n      0x00\n        /* \"#utility.yul\":9979:10067   */\n      mstore\n        /* \"#utility.yul\":10086:10090   */\n      0x11\n        /* \"#utility.yul\":10083:10084   */\n      0x04\n        /* \"#utility.yul\":10076:10091   */\n      mstore\n        /* \"#utility.yul\":10110:10114   */\n      0x24\n        /* \"#utility.yul\":10107:10108   */\n      0x00\n        /* \"#utility.yul\":10100:10115   */\n      revert\n        /* \"#utility.yul\":10127:10318   */\n    tag_31:\n        /* \"#utility.yul\":10167:10170   */\n      0x00\n        /* \"#utility.yul\":10186:10206   */\n      tag_233\n        /* \"#utility.yul\":10204:10205   */\n      dup3\n        /* \"#utility.yul\":10186:10206   */\n      tag_90\n      jump\t// in\n    tag_233:\n        /* \"#utility.yul\":10181:10206   */\n      swap2\n      pop\n        /* \"#utility.yul\":10220:10240   */\n      tag_234\n        /* \"#utility.yul\":10238:10239   */\n      dup4\n        /* \"#utility.yul\":10220:10240   */\n      tag_90\n      jump\t// in\n    tag_234:\n        /* \"#utility.yul\":10215:10240   */\n      swap3\n      pop\n        /* \"#utility.yul\":10263:10264   */\n      dup3\n        /* \"#utility.yul\":10260:10261   */\n      dup3\n        /* \"#utility.yul\":10256:10265   */\n      add\n        /* \"#utility.yul\":10249:10265   */\n      swap1\n      pop\n        /* \"#utility.yul\":10284:10287   */\n      dup1\n        /* \"#utility.yul\":10281:10282   */\n      dup3\n        /* \"#utility.yul\":10278:10288   */\n      gt\n        /* \"#utility.yul\":10275:10311   */\n      iszero\n      tag_235\n      jumpi\n        /* \"#utility.yul\":10291:10309   */\n      tag_236\n      tag_109\n      jump\t// in\n    tag_236:\n        /* \"#utility.yul\":10275:10311   */\n    tag_235:\n        /* \"#utility.yul\":10127:10318   */\n      swap3\n      swap2\n      pop\n      pop\n      jump\t// out\n        /* \"#utility.yul\":10324:10504   */\n    tag_110:\n        /* \"#utility.yul\":10372:10449   */\n      0x4e487b7100000000000000000000000000000000000000000000000000000000\n        /* \"#utility.yul\":10369:10370   */\n      0x00\n        /* \"#utility.yul\":10362:10450   */\n      mstore\n        /* \"#utility.yul\":10469:10473   */\n      0x22\n        /* \"#utility.yul\":10466:10467   */\n      0x04\n        /* \"#utility.yul\":10459:10474   */\n      mstore\n        /* \"#utility.yul\":10493:10497   */\n      0x24\n        /* \"#utility.yul\":10490:10491   */\n      0x00\n        /* \"#utility.yul\":10483:10498   */\n      revert\n        /* \"#utility.yul\":10510:10830   */\n    tag_41:\n        /* \"#utility.yul\":10554:10560   */\n      0x00\n        /* \"#utility.yul\":10591:10592   */\n      0x02\n        /* \"#utility.yul\":10585:10589   */\n      dup3\n        /* \"#utility.yul\":10581:10593   */\n      div\n        /* \"#utility.yul\":10571:10593   */\n      swap1\n      pop\n        /* \"#utility.yul\":10638:10639   */\n      0x01\n        /* \"#utility.yul\":10632:10636   */\n      dup3\n        /* \"#utility.yul\":10628:10640   */\n      and\n        /* \"#utility.yul\":10659:10677   */\n      dup1\n        /* \"#utility.yul\":10649:10730   */\n      tag_239\n      jumpi\n        /* \"#utility.yul\":10715:10719   */\n      0x7f\n        /* \"#utility.yul\":10707:10713   */\n      dup3\n        /* \"#utility.yul\":10703:10720   */\n      and\n        /* \"#utility.yul\":10693:10720   */\n      swap2\n      pop\n        /* \"#utility.yul\":10649:10730   */\n    tag_239:\n        /* \"#utility.yul\":10777:10779   */\n      0x20\n        /* \"#utility.yul\":10769:10775   */\n      dup3\n        /* \"#utility.yul\":10766:10780   */\n      lt\n        /* \"#utility.yul\":10746:10764   */\n      dup2\n        /* \"#utility.yul\":10743:10781   */\n      sub\n        /* \"#utility.yul\":10740:10824   */\n      tag_240\n      jumpi\n        /* \"#utility.yul\":10796:10814   */\n      tag_241\n      tag_110\n      jump\t// in\n    tag_241:\n        /* \"#utility.yul\":10740:10824   */\n    tag_240:\n        /* \"#utility.yul\":10561:10830   */\n      pop\n        /* \"#utility.yul\":10510:10830   */\n      swap2\n      swap1\n      pop\n      jump\t// out\n        /* \"#utility.yul\":10836:11016   */\n    tag_48:\n        /* \"#utility.yul\":10884:10961   */\n      0x4e487b7100000000000000000000000000000000000000000000000000000000\n        /* \"#utility.yul\":10881:10882   */\n      0x00\n        /* \"#utility.yul\":10874:10962   */\n      mstore\n        /* \"#utility.yul\":10981:10985   */\n      0x32\n        /* \"#utility.yul\":10978:10979   */\n      0x04\n        /* \"#utility.yul\":10971:10986   */\n      mstore\n        /* \"#utility.yul\":11005:11009   */\n      0x24\n        /* \"#utility.yul\":11002:11003   */\n      0x00\n        /* \"#utility.yul\":10995:11010   */\n      revert\n        /* \"#utility.yul\":11022:11255   */\n    tag_50:\n        /* \"#utility.yul\":11061:11064   */\n      0x00\n        /* \"#utility.yul\":11084:11108   */\n      tag_244\n        /* \"#utility.yul\":11102:11107   */\n      dup3\n        /* \"#utility.yul\":11084:11108   */\n      tag_90\n      jump\t// in\n    tag_244:\n        /* \"#utility.yul\":11075:11108   */\n      swap2\n      pop\n        /* \"#utility.yul\":11130:11196   */\n      0xffffffffffffffffffffffffffffffffffffffffffffffffffffffffffffffff\n        /* \"#utility.yul\":11123:11128   */\n      dup3\n        /* \"#utility.yul\":11120:11197   */\n      sub\n        /* \"#utility.yul\":11117:11220   */\n      tag_245\n      jumpi\n        /* \"#utility.yul\":11200:11218   */\n      tag_246\n      tag_109\n      jump\t// in\n    tag_246:\n        /* \"#utility.yul\":11117:11220   */\n    tag_245:\n        /* \"#utility.yul\":11247:11248   */\n      0x01\n        /* \"#utility.yul\":11240:11245   */\n      dup3\n        /* \"#utility.yul\":11236:11249   */\n      add\n        /* \"#utility.yul\":11229:11249   */\n      swap1\n      pop\n        /* \"#utility.yul\":11022:11255   */\n      swap2\n      swap1\n      pop\n      jump\t// out\n        /* \"#utility.yul\":11261:11402   */\n    tag_111:\n        /* \"#utility.yul\":11310:11314   */\n      0x00\n        /* \"#utility.yul\":11333:11336   */\n      dup2\n        /* \"#utility.yul\":11325:11336   */\n      swap1\n      pop\n        /* \"#utility.yul\":11356:11359   */\n      dup2\n        /* \"#utility.yul\":11353:11354   */\n      0x00\n        /* \"#utility.yul\":11346:11360   */\n      mstore\n        /* \"#utility.yul\":11390:11394   */\n      0x20\n        /* \"#utility.yul\":11387:11388   */\n      0x00\n        /* \"#utility.yul\":11377:11395   */\n      keccak256\n        /* \"#utility.yul\":11369:11395   */\n      swap1\n      pop\n        /* \"#utility.yul\":11261:11402   */\n      swap2\n      swap1\n      pop\n      jump\t// out\n        /* \"#utility.yul\":11408:11501   */\n    tag_112:\n        /* \"#utility.yul\":11445:11451   */\n      0x00\n        /* \"#utility.yul\":11492:11494   */\n      0x20\n        /* \"#utility.yul\":11487:11489   */\n      0x1f\n        /* \"#utility.yul\":11480:11485   */\n      dup4\n        /* \"#utility.yul\":11476:11490   */\n      add\n        /* \"#utility.yul\":11472:11495   */\n      div\n        /* \"#utility.yul\":11462:11495   */\n      swap1\n      pop\n        /* \"#utility.yul\":11408:11501   */\n      swap2\n      swap1\n      pop\n      jump\t// out\n        /* \"#utility.yul\":11507:11614   */\n    tag_113:\n        /* \"#utility.yul\":11551:11559   */\n      0x00\n        /* \"#utility.yul\":11601:11606   */\n      dup3\n        /* \"#utility.yul\":11595:11599   */\n      dup3\n        /* \"#utility.yul\":11591:11607   */\n      shl\n        /* \"#utility.yul\":11570:11607   */\n      swap1\n      pop\n        /* \"#utility.yul\":11507:11614   */\n      swap3\n      swap2\n      pop\n      pop\n      jump\t// out\n        /* \"#utility.yul\":11620:12013   */\n    tag_114:\n        /* \"#utility.yul\":11689:11695   */\n      0x00\n        /* \"#utility.yul\":11739:11740   */\n      0x08\n        /* \"#utility.yul\":11727:11737   */\n      dup4\n        /* \"#utility.yul\":11723:11741   */\n      mul\n        /* \"#utility.yul\":11762:11859   */\n      tag_251\n        /* \"#utility.yul\":11792:11858   */\n      0xffffffffffffffffffffffffffffffffffffffffffffffffffffffffffffffff\n        /* \"#utility.yul\":11781:11790   */\n      dup3\n        /* \"#utility.yul\":11762:11859   */\n      tag_113\n      jump\t// in\n    tag_251:\n        /* \"#utility.yul\":11880:11919   */\n      tag_252\n        /* \"#utility.yul\":11910:11918   */\n      dup7\n        /* \"#utility.yul\":11899:11908   */\n      dup4\n        /* \"#utility.yul\":11880:11919   */\n      tag_113\n      jump\t// in\n    tag_252:\n        /* \"#utility.yul\":11868:11919   */\n      swap6\n      pop\n        /* \"#utility.yul\":11952:11956   */\n      dup1\n        /* \"#utility.yul\":11948:11957   */\n      not\n        /* \"#utility.yul\":11941:11946   */\n      dup5\n        /* \"#utility.yul\":11937:11958   */\n      and\n        /* \"#utility.yul\":11928:11958   */\n      swap4\n      pop\n        /* \"#utility.yul\":12001:12005   */\n      dup1\n        /* \"#utility.yul\":11991:11999   */\n      dup7\n        /* \"#utility.yul\":11987:12006   */\n      and\n        /* \"#utility.yul\":11980:11985   */\n      dup5\n        /* \"#utility.yul\":11977:12007   */\n      or\n        /* \"#utility.yul\":11967:12007   */\n      swap3\n      pop\n        /* \"#utility.yul\":11696:12013   */\n      pop\n      pop\n        /* \"#utility.yul\":11620:12013   */\n      swap4\n      swap3\n      pop\n      pop\n      pop\n      jump\t// out\n        /* \"#utility.yul\":12019:12079   */\n    tag_115:\n        /* \"#utility.yul\":12047:12050   */\n      0x00\n        /* \"#utility.yul\":12068:12073   */\n      dup2\n        /* \"#utility.yul\":12061:12073   */\n      swap1\n      pop\n        /* \"#utility.yul\":12019:12079   */\n      swap2\n      swap1\n      pop\n      jump\t// out\n        /* \"#utility.yul\":12085:12227   */\n    tag_116:\n        /* \"#utility.yul\":12135:12144   */\n      0x00\n        /* \"#utility.yul\":12168:12221   */\n      tag_255\n        /* \"#utility.yul\":12186:12220   */\n      tag_256\n        /* \"#utility.yul\":12195:12219   */\n      tag_257\n        /* \"#utility.yul\":12213:12218   */\n      dup5\n        /* \"#utility.yul\":12195:12219   */\n      tag_90\n      jump\t// in\n    tag_257:\n        /* \"#utility.yul\":12186:12220   */\n      tag_115\n      jump\t// in\n    tag_256:\n        /* \"#utility.yul\":12168:12221   */\n      tag_90\n      jump\t// in\n    tag_255:\n        /* \"#utility.yul\":12155:12221   */\n      swap1\n      pop\n        /* \"#utility.yul\":12085:12227   */\n      swap2\n      swap1\n      pop\n      jump\t// out\n        /* \"#utility.yul\":12233:12308   */\n    tag_117:\n        /* \"#utility.yul\":12276:12279   */\n      0x00\n        /* \"#utility.yul\":12297:12302   */\n      dup2\n        /* \"#utility.yul\":12290:12302   */\n      swap1\n      pop\n        /* \"#utility.yul\":12233:12308   */\n      swap2\n      swap1\n      pop\n      jump\t// out\n        /* \"#utility.yul\":12314:12583   */\n    tag_118:\n        /* \"#utility.yul\":12424:12463   */\n      tag_260\n        /* \"#utility.yul\":12455:12462   */\n      dup4\n        /* \"#utility.yul\":12424:12463   */\n      tag_116\n      jump\t// in\n    tag_260:\n        /* \"#utility.yul\":12485:12576   */\n      tag_261\n        /* \"#utility.yul\":12534:12575   */\n      tag_262\n        /* \"#utility.yul\":12558:12574   */\n      dup3\n        /* \"#utility.yul\":12534:12575   */\n      tag_117\n      jump\t// in\n    tag_262:\n        /* \"#utility.yul\":12526:12532   */\n      dup5\n        /* \"#utility.yul\":12519:12523   */\n      dup5\n        /* \"#utility.yul\":12513:12524   */\n      sload\n        /* \"#utility.yul\":12485:12576   */\n      tag_114\n      jump\t// in\n    tag_261:\n        /* \"#utility.yul\":12479:12483   */\n      dup3\n        /* \"#utility.yul\":12472:12577   */\n      sstore\n        /* \"#utility.yul\":12390:12583   */\n      pop\n        /* \"#utility.yul\":12314:12583   */\n      pop\n      pop\n      pop\n      jump\t// out\n        /* \"#utility.yul\":12589:12662   */\n    tag_119:\n        /* \"#utility.yul\":12634:12637   */\n      0x00\n        /* \"#utility.yul\":12589:12662   */\n      swap1\n      jump\t// out\n        /* \"#utility.yul\":12668:12857   */\n    tag_120:\n        /* \"#utility.yul\":12745:12777   */\n      tag_265\n      tag_119\n      jump\t// in\n    tag_265:\n        /* \"#utility.yul\":12786:12851   */\n      tag_266\n        /* \"#utility.yul\":12844:12850   */\n      dup2\n        /* \"#utility.yul\":12836:12842   */\n      dup5\n        /* \"#utility.yul\":12830:12834   */\n      dup5\n        /* \"#utility.yul\":12786:12851   */\n      tag_118\n      jump\t// in\n    tag_266:\n        /* \"#utility.yul\":12721:12857   */\n      pop\n        /* \"#utility.yul\":12668:12857   */\n      pop\n      pop\n      jump\t// out\n        /* \"#utility.yul\":12863:13049   */\n    tag_121:\n        /* \"#utility.yul\":12923:13043   */\n    tag_268:\n        /* \"#utility.yul\":12940:12943   */\n      dup2\n        /* \"#utility.yul\":12933:12938   */\n      dup2\n        /* \"#utility.yul\":12930:12944   */\n      lt\n        /* \"#utility.yul\":12923:13043   */\n      iszero\n      tag_270\n      jumpi\n        /* \"#utility.yul\":12994:13033   */\n      tag_271\n        /* \"#utility.yul\":13031:13032   */\n      0x00\n        /* \"#utility.yul\":13024:13029   */\n      dup3\n        /* \"#utility.yul\":12994:13033   */\n      tag_120\n      jump\t// in\n    tag_271:\n        /* \"#utility.yul\":12967:12968   */\n      0x01\n        /* \"#utility.yul\":12960:12965   */\n      dup2\n        /* \"#utility.yul\":12956:12969   */\n      add\n        /* \"#utility.yul\":12947:12969   */\n      swap1\n      pop\n        /* \"#utility.yul\":12923:13043   */\n      jump(tag_268)\n    tag_270:\n        /* \"#utility.yul\":12863:13049   */\n      pop\n      pop\n      jump\t// out\n        /* \"#utility.yul\":13055:13598   */\n    tag_122:\n        /* \"#utility.yul\":13156:13158   */\n      0x1f\n        /* \"#utility.yul\":13151:13154   */\n      dup3\n        /* \"#utility.yul\":13148:13159   */\n      gt\n        /* \"#utility.yul\":13145:13591   */\n      iszero\n      tag_273\n      jumpi\n        /* \"#utility.yul\":13190:13228   */\n      tag_274\n        /* \"#utility.yul\":13222:13227   */\n      dup2\n        /* \"#utility.yul\":13190:13228   */\n      tag_111\n      jump\t// in\n    tag_274:\n        /* \"#utility.yul\":13274:13303   */\n      tag_275\n        /* \"#utility.yul\":13292:13302   */\n      dup5\n        /* \"#utility.yul\":13274:13303   */\n      tag_112\n      jump\t// in\n    tag_275:\n        /* \"#utility.yul\":13264:13272   */\n      dup2\n        /* \"#utility.yul\":13260:13304   */\n      add\n        /* \"#utility.yul\":13457:13459   */\n      0x20\n        /* \"#utility.yul\":13445:13455   */\n      dup6\n        /* \"#utility.yul\":13442:13460   */\n      lt\n        /* \"#utility.yul\":13439:13488   */\n      iszero\n      tag_276\n      jumpi\n        /* \"#utility.yul\":13478:13486   */\n      dup2\n        /* \"#utility.yul\":13463:13486   */\n      swap1\n      pop\n        /* \"#utility.yul\":13439:13488   */\n    tag_276:\n        /* \"#utility.yul\":13501:13581   */\n      tag_277\n        /* \"#utility.yul\":13557:13579   */\n      tag_278\n        /* \"#utility.yul\":13575:13578   */\n      dup6\n        /* \"#utility.yul\":13557:13579   */\n      tag_112\n      jump\t// in\n    tag_278:\n        /* \"#utility.yul\":13547:13555   */\n      dup4\n        /* \"#utility.yul\":13543:13580   */\n      add\n        /* \"#utility.yul\":13530:13541   */\n      dup3\n        /* \"#utility.yul\":13501:13581   */\n      tag_121\n      jump\t// in\n    tag_277:\n        /* \"#utility.yul\":13160:13591   */\n      pop\n      pop\n        /* \"#utility.yul\":13145:13591   */\n    tag_273:\n        /* \"#utility.yul\":13055:13598   */\n      pop\n      pop\n      pop\n      jump\t// out\n        /* \"#utility.yul\":13604:13721   */\n    tag_123:\n        /* \"#utility.yul\":13658:13666   */\n      0x00\n        /* \"#utility.yul\":13708:13713   */\n      dup3\n        /* \"#utility.yul\":13702:13706   */\n      dup3\n        /* \"#utility.yul\":13698:13714   */\n      shr\n        /* \"#utility.yul\":13677:13714   */\n      swap1\n      pop\n        /* \"#utility.yul\":13604:13721   */\n      swap3\n      swap2\n      pop\n      pop\n      jump\t// out\n        /* \"#utility.yul\":13727:13896   */\n    tag_124:\n        /* \"#utility.yul\":13771:13777   */\n      0x00\n        /* \"#utility.yul\":13804:13855   */\n      tag_281\n        /* \"#utility.yul\":13852:13853   */\n      0x00\n        /* \"#utility.yul\":13848:13854   */\n      not\n        /* \"#utility.yul\":13840:13845   */\n      dup5\n        /* \"#utility.yul\":13837:13838   */\n      0x08\n        /* \"#utility.yul\":13833:13846   */\n      mul\n        /* \"#utility.yul\":13804:13855   */\n      tag_123\n      jump\t// in\n    tag_281:\n        /* \"#utility.yul\":13800:13856   */\n      not\n        /* \"#utility.yul\":13885:13889   */\n      dup1\n        /* \"#utility.yul\":13879:13883   */\n      dup4\n        /* \"#utility.yul\":13875:13890   */\n      and\n        /* \"#utility.yul\":13865:13890   */\n      swap2\n      pop\n        /* \"#utility.yul\":13778:13896   */\n      pop\n        /* \"#utility.yul\":13727:13896   */\n      swap3\n      swap2\n      pop\n      pop\n      jump\t// out\n        /* \"#utility.yul\":13901:14196   */\n    tag_125:\n        /* \"#utility.yul\":13977:13981   */\n      0x00\n        /* \"#utility.yul\":14123:14152   */\n      tag_283\n        /* \"#utility.yul\":14148:14151   */\n      dup4\n        /* \"#utility.yul\":14142:14146   */\n      dup4\n        /* \"#utility.yul\":14123:14152   */\n      tag_124\n      jump\t// in\n    tag_283:\n        /* \"#utility.yul\":14115:14152   */\n      swap2\n      pop\n        /* \"#utility.yul\":14185:14188   */\n      dup3\n        /* \"#utility.yul\":14182:14183   */\n      0x02\n        /* \"#utility.yul\":14178:14189   */\n      mul\n        /* \"#utility.yul\":14172:14176   */\n      dup3\n        /* \"#utility.yul\":14169:14190   */\n      or\n        /* \"#utility.yul\":14161:14190   */\n      swap1\n      pop\n        /* \"#utility.yul\":13901:14196   */\n      swap3\n      swap2\n      pop\n      pop\n      jump\t// out\n        /* \"#utility.yul\":14201:15596   */\n    tag_67:\n        /* \"#utility.yul\":14318:14355   */\n      tag_285\n        /* \"#utility.yul\":14351:14354   */\n      dup3\n        /* \"#utility.yul\":14318:14355   */\n      tag_79\n      jump\t// in\n    tag_285:\n        /* \"#utility.yul\":14420:14438   */\n      0xffffffffffffffff\n        /* \"#utility.yul\":14412:14418   */\n      dup2\n        /* \"#utility.yul\":14409:14439   */\n      gt\n        /* \"#utility.yul\":14406:14462   */\n      iszero\n      tag_286\n      jumpi\n        /* \"#utility.yul\":14442:14460   */\n      tag_287\n      tag_34\n      jump\t// in\n    tag_287:\n        /* \"#utility.yul\":14406:14462   */\n    tag_286:\n        /* \"#utility.yul\":14486:14524   */\n      tag_288\n        /* \"#utility.yul\":14518:14522   */\n      dup3\n        /* \"#utility.yul\":14512:14523   */\n      sload\n        /* \"#utility.yul\":14486:14524   */\n      tag_41\n      jump\t// in\n    tag_288:\n        /* \"#utility.yul\":14571:14638   */\n      tag_289\n        /* \"#utility.yul\":14631:14637   */\n      dup3\n        /* \"#utility.yul\":14623:14629   */\n      dup3\n        /* \"#utility.yul\":14617:14621   */\n      dup6\n        /* \"#utility.yul\":14571:14638   */\n      tag_122\n      jump\t// in\n    tag_289:\n        /* \"#utility.yul\":14665:14666   */\n      0x00\n        /* \"#utility.yul\":14689:14693   */\n      0x20\n        /* \"#utility.yul\":14676:14693   */\n      swap1\n      pop\n        /* \"#utility.yul\":14721:14723   */\n      0x1f\n        /* \"#utility.yul\":14713:14719   */\n      dup4\n        /* \"#utility.yul\":14710:14724   */\n      gt\n        /* \"#utility.yul\":14738:14739   */\n      0x01\n        /* \"#utility.yul\":14733:15351   */\n      dup2\n      eq\n      tag_291\n      jumpi\n        /* \"#utility.yul\":15395:15396   */\n      0x00\n        /* \"#utility.yul\":15412:15418   */\n      dup5\n        /* \"#utility.yul\":15409:15486   */\n      iszero\n      tag_292\n      jumpi\n        /* \"#utility.yul\":15461:15470   */\n      dup3\n        /* \"#utility.yul\":15456:15459   */\n      dup8\n        /* \"#utility.yul\":15452:15471   */\n      add\n        /* \"#utility.yul\":15446:15472   */\n      mload\n        /* \"#utility.yul\":15437:15472   */\n      swap1\n      pop\n        /* \"#utility.yul\":15409:15486   */\n    tag_292:\n        /* \"#utility.yul\":15512:15579   */\n      tag_293\n        /* \"#utility.yul\":15572:15578   */\n      dup6\n        /* \"#utility.yul\":15565:15570   */\n      dup3\n        /* \"#utility.yul\":15512:15579   */\n      tag_125\n      jump\t// in\n    tag_293:\n        /* \"#utility.yul\":15506:15510   */\n      dup7\n        /* \"#utility.yul\":15499:15580   */\n      sstore\n        /* \"#utility.yul\":15368:15590   */\n      pop\n        /* \"#utility.yul\":14703:15590   */\n      jump(tag_290)\n        /* \"#utility.yul\":14733:15351   */\n    tag_291:\n        /* \"#utility.yul\":14785:14789   */\n      0x1f\n        /* \"#utility.yul\":14781:14790   */\n      not\n        /* \"#utility.yul\":14773:14779   */\n      dup5\n        /* \"#utility.yul\":14769:14791   */\n      and\n        /* \"#utility.yul\":14819:14856   */\n      tag_294\n        /* \"#utility.yul\":14851:14855   */\n      dup7\n        /* \"#utility.yul\":14819:14856   */\n      tag_111\n      jump\t// in\n    tag_294:\n        /* \"#utility.yul\":14878:14879   */\n      0x00\n        /* \"#utility.yul\":14892:15100   */\n    tag_295:\n        /* \"#utility.yul\":14906:14913   */\n      dup3\n        /* \"#utility.yul\":14903:14904   */\n      dup2\n        /* \"#utility.yul\":14900:14914   */\n      lt\n        /* \"#utility.yul\":14892:15100   */\n      iszero\n      tag_297\n      jumpi\n        /* \"#utility.yul\":14985:14994   */\n      dup5\n        /* \"#utility.yul\":14980:14983   */\n      dup10\n        /* \"#utility.yul\":14976:14995   */\n      add\n        /* \"#utility.yul\":14970:14996   */\n      mload\n        /* \"#utility.yul\":14962:14968   */\n      dup3\n        /* \"#utility.yul\":14955:14997   */\n      sstore\n        /* \"#utility.yul\":15036:15037   */\n      0x01\n        /* \"#utility.yul\":15028:15034   */\n      dup3\n        /* \"#utility.yul\":15024:15038   */\n      add\n        /* \"#utility.yul\":15014:15038   */\n      swap2\n      pop\n        /* \"#utility.yul\":15083:15085   */\n      0x20\n        /* \"#utility.yul\":15072:15081   */\n      dup6\n        /* \"#utility.yul\":15068:15086   */\n      add\n        /* \"#utility.yul\":15055:15086   */\n      swap5\n      pop\n        /* \"#utility.yul\":14929:14933   */\n      0x20\n        /* \"#utility.yul\":14926:14927   */\n      dup2\n        /* \"#utility.yul\":14922:14934   */\n      add\n        /* \"#utility.yul\":14917:14934   */\n      swap1\n      pop\n        /* \"#utility.yul\":14892:15100   */\n      jump(tag_295)\n    tag_297:\n        /* \"#utility.yul\":15128:15134   */\n      dup7\n        /* \"#utility.yul\":15119:15126   */\n      dup4\n        /* \"#utility.yul\":15116:15135   */\n      lt\n        /* \"#utility.yul\":15113:15292   */\n      iszero\n      tag_298\n      jumpi\n        /* \"#utility.yul\":15186:15195   */\n      dup5\n        /* \"#utility.yul\":15181:15184   */\n      dup10\n        /* \"#utility.yul\":15177:15196   */\n      add\n        /* \"#utility.yul\":15171:15197   */\n      mload\n        /* \"#utility.yul\":15229:15277   */\n      tag_299\n        /* \"#utility.yul\":15271:15275   */\n      0x1f\n        /* \"#utility.yul\":15263:15269   */\n      dup10\n        /* \"#utility.yul\":15259:15276   */\n      and\n        /* \"#utility.yul\":15248:15257   */\n      dup3\n        /* \"#utility.yul\":15229:15277   */\n      tag_124\n      jump\t// in\n    tag_299:\n        /* \"#utility.yul\":15221:15227   */\n      dup4\n        /* \"#utility.yul\":15214:15278   */\n      sstore\n        /* \"#utility.yul\":15136:15292   */\n      pop\n        /* \"#utility.yul\":15113:15292   */\n    tag_298:\n        /* \"#utility.yul\":15338:15339   */\n      0x01\n        /* \"#utility.yul\":15334:15335   */\n      0x02\n        /* \"#utility.yul\":15326:15332   */\n      dup9\n        /* \"#utility.yul\":15322:15336   */\n      mul\n        /* \"#utility.yul\":15318:15340   */\n      add\n        /* \"#utility.yul\":15312:15316   */\n      dup9\n        /* \"#utility.yul\":15305:15341   */\n      sstore\n        /* \"#utility.yul\":14740:15351   */\n      pop\n      pop\n      pop\n        /* \"#utility.yul\":14703:15590   */\n    tag_290:\n      pop\n        /* \"#utility.yul\":14293:15596   */\n      pop\n      pop\n      pop\n        /* \"#utility.yul\":14201:15596   */\n      pop\n      pop\n      jump\t// out\n\n    auxdata: 0xa2646970667358221220efd4933f1426a85d4c1708da747781ab4561ab10545270ea8b437548472d09e464736f6c63430008120033\n}\n",
				"bytecode": {
					"linkReferences": {},
					"object": "608060405234801561001057600080fd5b50610e28806100206000396000f3fe608060405234801561001057600080fd5b50600436106100575760003560e01c806307a290ad1461005c5780634fe8b4c11461007a57806361bc221a14610096578063bb58e356146100b4578063f1ab1b73146100e7575b600080fd5b610064610103565b6040516100719190610685565b60405180910390f35b610094600480360381019061008f91906106f1565b610249565b005b61009e6102b1565b6040516100ab919061072d565b60405180910390f35b6100ce60048036038101906100c991906106f1565b6102b7565b6040516100de94939291906107d3565b60405180910390f35b61010160048036038101906100fc9190610987565b610417565b005b6060600060016000546101169190610a69565b67ffffffffffffffff81111561012f5761012e610830565b5b60405190808252806020026020018201604052801561016257816020015b606081526020019060019003908161014d5790505b50905060005b60005481116102415760026000828152602001908152602001600020600001805461019290610acc565b80601f01602080910402602001604051908101604052809291908181526020018280546101be90610acc565b801561020b5780601f106101e05761010080835404028352916020019161020b565b820191906000526020600020905b8154815290600101906020018083116101ee57829003601f168201915b505050505082828151811061022357610222610afd565b5b6020026020010181905250808061023990610b2c565b915050610168565b508091505090565b600260008281526020019081526020016000206000808201600061026d91906104d6565b600182016000905560028201600061028591906104d6565b6003820160006101000a81549073ffffffffffffffffffffffffffffffffffffffff0219169055505050565b60005481565b60026020528060005260406000206000915090508060000180546102da90610acc565b80601f016020809104026020016040519081016040528092919081815260200182805461030690610acc565b80156103535780601f1061032857610100808354040283529160200191610353565b820191906000526020600020905b81548152906001019060200180831161033657829003601f168201915b50505050509080600101549080600201805461036e90610acc565b80601f016020809104026020016040519081016040528092919081815260200182805461039a90610acc565b80156103e75780601f106103bc576101008083540402835291602001916103e7565b820191906000526020600020905b8154815290600101906020018083116103ca57829003601f168201915b5050505050908060030160009054906101000a900473ffffffffffffffffffffffffffffffffffffffff16905084565b8360026000878152602001908152602001600020600001908161043a9190610d20565b50826002600087815260200190815260200160002060010181905550816002600087815260200190815260200160002060020190816104799190610d20565b50806002600087815260200190815260200160002060030160006101000a81548173ffffffffffffffffffffffffffffffffffffffff021916908373ffffffffffffffffffffffffffffffffffffffff1602179055505050505050565b5080546104e290610acc565b6000825580601f106104f45750610513565b601f0160209004906000526020600020908101906105129190610516565b5b50565b5b8082111561052f576000816000905550600101610517565b5090565b600081519050919050565b600082825260208201905092915050565b6000819050602082019050919050565b600081519050919050565b600082825260208201905092915050565b60005b8381101561059957808201518184015260208101905061057e565b60008484015250505050565b6000601f19601f8301169050919050565b60006105c18261055f565b6105cb818561056a565b93506105db81856020860161057b565b6105e4816105a5565b840191505092915050565b60006105fb83836105b6565b905092915050565b6000602082019050919050565b600061061b82610533565b610625818561053e565b9350836020820285016106378561054f565b8060005b85811015610673578484038952815161065485826105ef565b945061065f83610603565b925060208a0199505060018101905061063b565b50829750879550505050505092915050565b6000602082019050818103600083015261069f8184610610565b905092915050565b6000604051905090565b600080fd5b600080fd5b6000819050919050565b6106ce816106bb565b81146106d957600080fd5b50565b6000813590506106eb816106c5565b92915050565b600060208284031215610707576107066106b1565b5b6000610715848285016106dc565b91505092915050565b610727816106bb565b82525050565b6000602082019050610742600083018461071e565b92915050565b600082825260208201905092915050565b60006107648261055f565b61076e8185610748565b935061077e81856020860161057b565b610787816105a5565b840191505092915050565b600073ffffffffffffffffffffffffffffffffffffffff82169050919050565b60006107bd82610792565b9050919050565b6107cd816107b2565b82525050565b600060808201905081810360008301526107ed8187610759565b90506107fc602083018661071e565b818103604083015261080e8185610759565b905061081d60608301846107c4565b95945050505050565b600080fd5b600080fd5b7f4e487b7100000000000000000000000000000000000000000000000000000000600052604160045260246000fd5b610868826105a5565b810181811067ffffffffffffffff8211171561088757610886610830565b5b80604052505050565b600061089a6106a7565b90506108a6828261085f565b919050565b600067ffffffffffffffff8211156108c6576108c5610830565b5b6108cf826105a5565b9050602081019050919050565b82818337600083830152505050565b60006108fe6108f9846108ab565b610890565b90508281526020810184848401111561091a5761091961082b565b5b6109258482856108dc565b509392505050565b600082601f83011261094257610941610826565b5b81356109528482602086016108eb565b91505092915050565b610964816107b2565b811461096f57600080fd5b50565b6000813590506109818161095b565b92915050565b600080600080600060a086880312156109a3576109a26106b1565b5b60006109b1888289016106dc565b955050602086013567ffffffffffffffff8111156109d2576109d16106b6565b5b6109de8882890161092d565b94505060406109ef888289016106dc565b935050606086013567ffffffffffffffff811115610a1057610a0f6106b6565b5b610a1c8882890161092d565b9250506080610a2d88828901610972565b9150509295509295909350565b7f4e487b7100000000000000000000000000000000000000000000000000000000600052601160045260246000fd5b6000610a74826106bb565b9150610a7f836106bb565b9250828201905080821115610a9757610a96610a3a565b5b92915050565b7f4e487b7100000000000000000000000000000000000000000000000000000000600052602260045260246000fd5b60006002820490506001821680610ae457607f821691505b602082108103610af757610af6610a9d565b5b50919050565b7f4e487b7100000000000000000000000000000000000000000000000000000000600052603260045260246000fd5b6000610b37826106bb565b91507fffffffffffffffffffffffffffffffffffffffffffffffffffffffffffffffff8203610b6957610b68610a3a565b5b600182019050919050565b60008190508160005260206000209050919050565b60006020601f8301049050919050565b600082821b905092915050565b600060088302610bd67fffffffffffffffffffffffffffffffffffffffffffffffffffffffffffffffff82610b99565b610be08683610b99565b95508019841693508086168417925050509392505050565b6000819050919050565b6000610c1d610c18610c13846106bb565b610bf8565b6106bb565b9050919050565b6000819050919050565b610c3783610c02565b610c4b610c4382610c24565b848454610ba6565b825550505050565b600090565b610c60610c53565b610c6b818484610c2e565b505050565b5b81811015610c8f57610c84600082610c58565b600181019050610c71565b5050565b601f821115610cd457610ca581610b74565b610cae84610b89565b81016020851015610cbd578190505b610cd1610cc985610b89565b830182610c70565b50505b505050565b600082821c905092915050565b6000610cf760001984600802610cd9565b1980831691505092915050565b6000610d108383610ce6565b9150826002028217905092915050565b610d298261055f565b67ffffffffffffffff811115610d4257610d41610830565b5b610d4c8254610acc565b610d57828285610c93565b600060209050601f831160018114610d8a5760008415610d78578287015190505b610d828582610d04565b865550610dea565b601f198416610d9886610b74565b60005b82811015610dc057848901518255600182019150602085019450602081019050610d9b565b86831015610ddd5784890151610dd9601f891682610ce6565b8355505b6001600288020188555050505b50505050505056fea2646970667358221220efd4933f1426a85d4c1708da747781ab4561ab10545270ea8b437548472d09e464736f6c63430008120033",
					"opcodes": "PUSH1 0x80 PUSH1 0x40 MSTORE CALLVALUE DUP1 ISZERO PUSH2 0x10 JUMPI PUSH1 0x0 DUP1 REVERT JUMPDEST POP PUSH2 0xE28 DUP1 PUSH2 0x20 PUSH1 0x0 CODECOPY PUSH1 0x0 RETURN INVALID PUSH1 0x80 PUSH1 0x40 MSTORE CALLVALUE DUP1 ISZERO PUSH2 0x10 JUMPI PUSH1 0x0 DUP1 REVERT JUMPDEST POP PUSH1 0x4 CALLDATASIZE LT PUSH2 0x57 JUMPI PUSH1 0x0 CALLDATALOAD PUSH1 0xE0 SHR DUP1 PUSH4 0x7A290AD EQ PUSH2 0x5C JUMPI DUP1 PUSH4 0x4FE8B4C1 EQ PUSH2 0x7A JUMPI DUP1 PUSH4 0x61BC221A EQ PUSH2 0x96 JUMPI DUP1 PUSH4 0xBB58E356 EQ PUSH2 0xB4 JUMPI DUP1 PUSH4 0xF1AB1B73 EQ PUSH2 0xE7 JUMPI JUMPDEST PUSH1 0x0 DUP1 REVERT JUMPDEST PUSH2 0x64 PUSH2 0x103 JUMP JUMPDEST PUSH1 0x40 MLOAD PUSH2 0x71 SWAP2 SWAP1 PUSH2 0x685 JUMP JUMPDEST PUSH1 0x40 MLOAD DUP1 SWAP2 SUB SWAP1 RETURN JUMPDEST PUSH2 0x94 PUSH1 0x4 DUP1 CALLDATASIZE SUB DUP2 ADD SWAP1 PUSH2 0x8F SWAP2 SWAP1 PUSH2 0x6F1 JUMP JUMPDEST PUSH2 0x249 JUMP JUMPDEST STOP JUMPDEST PUSH2 0x9E PUSH2 0x2B1 JUMP JUMPDEST PUSH1 0x40 MLOAD PUSH2 0xAB SWAP2 SWAP1 PUSH2 0x72D JUMP JUMPDEST PUSH1 0x40 MLOAD DUP1 SWAP2 SUB SWAP1 RETURN JUMPDEST PUSH2 0xCE PUSH1 0x4 DUP1 CALLDATASIZE SUB DUP2 ADD SWAP1 PUSH2 0xC9 SWAP2 SWAP1 PUSH2 0x6F1 JUMP JUMPDEST PUSH2 0x2B7 JUMP JUMPDEST PUSH1 0x40 MLOAD PUSH2 0xDE SWAP5 SWAP4 SWAP3 SWAP2 SWAP1 PUSH2 0x7D3 JUMP JUMPDEST PUSH1 0x40 MLOAD DUP1 SWAP2 SUB SWAP1 RETURN JUMPDEST PUSH2 0x101 PUSH1 0x4 DUP1 CALLDATASIZE SUB DUP2 ADD SWAP1 PUSH2 0xFC SWAP2 SWAP1 PUSH2 0x987 JUMP JUMPDEST PUSH2 0x417 JUMP JUMPDEST STOP JUMPDEST PUSH1 0x60 PUSH1 0x0 PUSH1 0x1 PUSH1 0x0 SLOAD PUSH2 0x116 SWAP2 SWAP1 PUSH2 0xA69 JUMP JUMPDEST PUSH8 0xFFFFFFFFFFFFFFFF DUP2 GT ISZERO PUSH2 0x12F JUMPI PUSH2 0x12E PUSH2 0x830 JUMP JUMPDEST JUMPDEST PUSH1 0x40 MLOAD SWAP1 DUP1 DUP3 MSTORE DUP1 PUSH1 0x20 MUL PUSH1 0x20 ADD DUP3 ADD PUSH1 0x40 MSTORE DUP1 ISZERO PUSH2 0x162 JUMPI DUP2 PUSH1 0x20 ADD JUMPDEST PUSH1 0x60 DUP2 MSTORE PUSH1 0x20 ADD SWAP1 PUSH1 0x1 SWAP1 SUB SWAP1 DUP2 PUSH2 0x14D JUMPI SWAP1 POP JUMPDEST POP SWAP1 POP PUSH1 0x0 JUMPDEST PUSH1 0x0 SLOAD DUP2 GT PUSH2 0x241 JUMPI PUSH1 0x2 PUSH1 0x0 DUP3 DUP2 MSTORE PUSH1 0x20 ADD SWAP1 DUP2 MSTORE PUSH1 0x20 ADD PUSH1 0x0 KECCAK256 PUSH1 0x0 ADD DUP1 SLOAD PUSH2 0x192 SWAP1 PUSH2 0xACC JUMP JUMPDEST DUP1 PUSH1 0x1F ADD PUSH1 0x20 DUP1 SWAP2 DIV MUL PUSH1 0x20 ADD PUSH1 0x40 MLOAD SWAP1 DUP2 ADD PUSH1 0x40 MSTORE DUP1 SWAP3 SWAP2 SWAP1 DUP2 DUP2 MSTORE PUSH1 0x20 ADD DUP3 DUP1 SLOAD PUSH2 0x1BE SWAP1 PUSH2 0xACC JUMP JUMPDEST DUP1 ISZERO PUSH2 0x20B JUMPI DUP1 PUSH1 0x1F LT PUSH2 0x1E0 JUMPI PUSH2 0x100 DUP1 DUP4 SLOAD DIV MUL DUP4 MSTORE SWAP2 PUSH1 0x20 ADD SWAP2 PUSH2 0x20B JUMP JUMPDEST DUP3 ADD SWAP2 SWAP1 PUSH1 0x0 MSTORE PUSH1 0x20 PUSH1 0x0 KECCAK256 SWAP1 JUMPDEST DUP2 SLOAD DUP2 MSTORE SWAP1 PUSH1 0x1 ADD SWAP1 PUSH1 0x20 ADD DUP1 DUP4 GT PUSH2 0x1EE JUMPI DUP3 SWAP1 SUB PUSH1 0x1F AND DUP3 ADD SWAP2 JUMPDEST POP POP POP POP POP DUP3 DUP3 DUP2 MLOAD DUP2 LT PUSH2 0x223 JUMPI PUSH2 0x222 PUSH2 0xAFD JUMP JUMPDEST JUMPDEST PUSH1 0x20 MUL PUSH1 0x20 ADD ADD DUP2 SWAP1 MSTORE POP DUP1 DUP1 PUSH2 0x239 SWAP1 PUSH2 0xB2C JUMP JUMPDEST SWAP2 POP POP PUSH2 0x168 JUMP JUMPDEST POP DUP1 SWAP2 POP POP SWAP1 JUMP JUMPDEST PUSH1 0x2 PUSH1 0x0 DUP3 DUP2 MSTORE PUSH1 0x20 ADD SWAP1 DUP2 MSTORE PUSH1 0x20 ADD PUSH1 0x0 KECCAK256 PUSH1 0x0 DUP1 DUP3 ADD PUSH1 0x0 PUSH2 0x26D SWAP2 SWAP1 PUSH2 0x4D6 JUMP JUMPDEST PUSH1 0x1 DUP3 ADD PUSH1 0x0 SWAP1 SSTORE PUSH1 0x2 DUP3 ADD PUSH1 0x0 PUSH2 0x285 SWAP2 SWAP1 PUSH2 0x4D6 JUMP JUMPDEST PUSH1 0x3 DUP3 ADD PUSH1 0x0 PUSH2 0x100 EXP DUP2 SLOAD SWAP1 PUSH20 0xFFFFFFFFFFFFFFFFFFFFFFFFFFFFFFFFFFFFFFFF MUL NOT AND SWAP1 SSTORE POP POP POP JUMP JUMPDEST PUSH1 0x0 SLOAD DUP2 JUMP JUMPDEST PUSH1 0x2 PUSH1 0x20 MSTORE DUP1 PUSH1 0x0 MSTORE PUSH1 0x40 PUSH1 0x0 KECCAK256 PUSH1 0x0 SWAP2 POP SWAP1 POP DUP1 PUSH1 0x0 ADD DUP1 SLOAD PUSH2 0x2DA SWAP1 PUSH2 0xACC JUMP JUMPDEST DUP1 PUSH1 0x1F ADD PUSH1 0x20 DUP1 SWAP2 DIV MUL PUSH1 0x20 ADD PUSH1 0x40 MLOAD SWAP1 DUP2 ADD PUSH1 0x40 MSTORE DUP1 SWAP3 SWAP2 SWAP1 DUP2 DUP2 MSTORE PUSH1 0x20 ADD DUP3 DUP1 SLOAD PUSH2 0x306 SWAP1 PUSH2 0xACC JUMP JUMPDEST DUP1 ISZERO PUSH2 0x353 JUMPI DUP1 PUSH1 0x1F LT PUSH2 0x328 JUMPI PUSH2 0x100 DUP1 DUP4 SLOAD DIV MUL DUP4 MSTORE SWAP2 PUSH1 0x20 ADD SWAP2 PUSH2 0x353 JUMP JUMPDEST DUP3 ADD SWAP2 SWAP1 PUSH1 0x0 MSTORE PUSH1 0x20 PUSH1 0x0 KECCAK256 SWAP1 JUMPDEST DUP2 SLOAD DUP2 MSTORE SWAP1 PUSH1 0x1 ADD SWAP1 PUSH1 0x20 ADD DUP1 DUP4 GT PUSH2 0x336 JUMPI DUP3 SWAP1 SUB PUSH1 0x1F AND DUP3 ADD SWAP2 JUMPDEST POP POP POP POP POP SWAP1 DUP1 PUSH1 0x1 ADD SLOAD SWAP1 DUP1 PUSH1 0x2 ADD DUP1 SLOAD PUSH2 0x36E SWAP1 PUSH2 0xACC JUMP JUMPDEST DUP1 PUSH1 0x1F ADD PUSH1 0x20 DUP1 SWAP2 DIV MUL PUSH1 0x20 ADD PUSH1 0x40 MLOAD SWAP1 DUP2 ADD PUSH1 0x40 MSTORE DUP1 SWAP3 SWAP2 SWAP1 DUP2 DUP2 MSTORE PUSH1 0x20 ADD DUP3 DUP1 SLOAD PUSH2 0x39A SWAP1 PUSH2 0xACC JUMP JUMPDEST DUP1 ISZERO PUSH2 0x3E7 JUMPI DUP1 PUSH1 0x1F LT PUSH2 0x3BC JUMPI PUSH2 0x100 DUP1 DUP4 SLOAD DIV MUL DUP4 MSTORE SWAP2 PUSH1 0x20 ADD SWAP2 PUSH2 0x3E7 JUMP JUMPDEST DUP3 ADD SWAP2 SWAP1 PUSH1 0x0 MSTORE PUSH1 0x20 PUSH1 0x0 KECCAK256 SWAP1 JUMPDEST DUP2 SLOAD DUP2 MSTORE SWAP1 PUSH1 0x1 ADD SWAP1 PUSH1 0x20 ADD DUP1 DUP4 GT PUSH2 0x3CA JUMPI DUP3 SWAP1 SUB PUSH1 0x1F AND DUP3 ADD SWAP2 JUMPDEST POP POP POP POP POP SWAP1 DUP1 PUSH1 0x3 ADD PUSH1 0x0 SWAP1 SLOAD SWAP1 PUSH2 0x100 EXP SWAP1 DIV PUSH20 0xFFFFFFFFFFFFFFFFFFFFFFFFFFFFFFFFFFFFFFFF AND SWAP1 POP DUP5 JUMP JUMPDEST DUP4 PUSH1 0x2 PUSH1 0x0 DUP8 DUP2 MSTORE PUSH1 0x20 ADD SWAP1 DUP2 MSTORE PUSH1 0x20 ADD PUSH1 0x0 KECCAK256 PUSH1 0x0 ADD SWAP1 DUP2 PUSH2 0x43A SWAP2 SWAP1 PUSH2 0xD20 JUMP JUMPDEST POP DUP3 PUSH1 0x2 PUSH1 0x0 DUP8 DUP2 MSTORE PUSH1 0x20 ADD SWAP1 DUP2 MSTORE PUSH1 0x20 ADD PUSH1 0x0 KECCAK256 PUSH1 0x1 ADD DUP2 SWAP1 SSTORE POP DUP2 PUSH1 0x2 PUSH1 0x0 DUP8 DUP2 MSTORE PUSH1 0x20 ADD SWAP1 DUP2 MSTORE PUSH1 0x20 ADD PUSH1 0x0 KECCAK256 PUSH1 0x2 ADD SWAP1 DUP2 PUSH2 0x479 SWAP2 SWAP1 PUSH2 0xD20 JUMP JUMPDEST POP DUP1 PUSH1 0x2 PUSH1 0x0 DUP8 DUP2 MSTORE PUSH1 0x20 ADD SWAP1 DUP2 MSTORE PUSH1 0x20 ADD PUSH1 0x0 KECCAK256 PUSH1 0x3 ADD PUSH1 0x0 PUSH2 0x100 EXP DUP2 SLOAD DUP2 PUSH20 0xFFFFFFFFFFFFFFFFFFFFFFFFFFFFFFFFFFFFFFFF MUL NOT AND SWAP1 DUP4 PUSH20 0xFFFFFFFFFFFFFFFFFFFFFFFFFFFFFFFFFFFFFFFF AND MUL OR SWAP1 SSTORE POP POP POP POP POP POP JUMP JUMPDEST POP DUP1 SLOAD PUSH2 0x4E2 SWAP1 PUSH2 0xACC JUMP JUMPDEST PUSH1 0x0 DUP3 SSTORE DUP1 PUSH1 0x1F LT PUSH2 0x4F4 JUMPI POP PUSH2 0x513 JUMP JUMPDEST PUSH1 0x1F ADD PUSH1 0x20 SWAP1 DIV SWAP1 PUSH1 0x0 MSTORE PUSH1 0x20 PUSH1 0x0 KECCAK256 SWAP1 DUP2 ADD SWAP1 PUSH2 0x512 SWAP2 SWAP1 PUSH2 0x516 JUMP JUMPDEST JUMPDEST POP JUMP JUMPDEST JUMPDEST DUP1 DUP3 GT ISZERO PUSH2 0x52F JUMPI PUSH1 0x0 DUP2 PUSH1 0x0 SWAP1 SSTORE POP PUSH1 0x1 ADD PUSH2 0x517 JUMP JUMPDEST POP SWAP1 JUMP JUMPDEST PUSH1 0x0 DUP2 MLOAD SWAP1 POP SWAP2 SWAP1 POP JUMP JUMPDEST PUSH1 0x0 DUP3 DUP3 MSTORE PUSH1 0x20 DUP3 ADD SWAP1 POP SWAP3 SWAP2 POP POP JUMP JUMPDEST PUSH1 0x0 DUP2 SWAP1 POP PUSH1 0x20 DUP3 ADD SWAP1 POP SWAP2 SWAP1 POP JUMP JUMPDEST PUSH1 0x0 DUP2 MLOAD SWAP1 POP SWAP2 SWAP1 POP JUMP JUMPDEST PUSH1 0x0 DUP3 DUP3 MSTORE PUSH1 0x20 DUP3 ADD SWAP1 POP SWAP3 SWAP2 POP POP JUMP JUMPDEST PUSH1 0x0 JUMPDEST DUP4 DUP2 LT ISZERO PUSH2 0x599 JUMPI DUP1 DUP3 ADD MLOAD DUP2 DUP5 ADD MSTORE PUSH1 0x20 DUP2 ADD SWAP1 POP PUSH2 0x57E JUMP JUMPDEST PUSH1 0x0 DUP5 DUP5 ADD MSTORE POP POP POP POP JUMP JUMPDEST PUSH1 0x0 PUSH1 0x1F NOT PUSH1 0x1F DUP4 ADD AND SWAP1 POP SWAP2 SWAP1 POP JUMP JUMPDEST PUSH1 0x0 PUSH2 0x5C1 DUP3 PUSH2 0x55F JUMP JUMPDEST PUSH2 0x5CB DUP2 DUP6 PUSH2 0x56A JUMP JUMPDEST SWAP4 POP PUSH2 0x5DB DUP2 DUP6 PUSH1 0x20 DUP7 ADD PUSH2 0x57B JUMP JUMPDEST PUSH2 0x5E4 DUP2 PUSH2 0x5A5 JUMP JUMPDEST DUP5 ADD SWAP2 POP POP SWAP3 SWAP2 POP POP JUMP JUMPDEST PUSH1 0x0 PUSH2 0x5FB DUP4 DUP4 PUSH2 0x5B6 JUMP JUMPDEST SWAP1 POP SWAP3 SWAP2 POP POP JUMP JUMPDEST PUSH1 0x0 PUSH1 0x20 DUP3 ADD SWAP1 POP SWAP2 SWAP1 POP JUMP JUMPDEST PUSH1 0x0 PUSH2 0x61B DUP3 PUSH2 0x533 JUMP JUMPDEST PUSH2 0x625 DUP2 DUP6 PUSH2 0x53E JUMP JUMPDEST SWAP4 POP DUP4 PUSH1 0x20 DUP3 MUL DUP6 ADD PUSH2 0x637 DUP6 PUSH2 0x54F JUMP JUMPDEST DUP1 PUSH1 0x0 JUMPDEST DUP6 DUP2 LT ISZERO PUSH2 0x673 JUMPI DUP5 DUP5 SUB DUP10 MSTORE DUP2 MLOAD PUSH2 0x654 DUP6 DUP3 PUSH2 0x5EF JUMP JUMPDEST SWAP5 POP PUSH2 0x65F DUP4 PUSH2 0x603 JUMP JUMPDEST SWAP3 POP PUSH1 0x20 DUP11 ADD SWAP10 POP POP PUSH1 0x1 DUP2 ADD SWAP1 POP PUSH2 0x63B JUMP JUMPDEST POP DUP3 SWAP8 POP DUP8 SWAP6 POP POP POP POP POP POP SWAP3 SWAP2 POP POP JUMP JUMPDEST PUSH1 0x0 PUSH1 0x20 DUP3 ADD SWAP1 POP DUP2 DUP2 SUB PUSH1 0x0 DUP4 ADD MSTORE PUSH2 0x69F DUP2 DUP5 PUSH2 0x610 JUMP JUMPDEST SWAP1 POP SWAP3 SWAP2 POP POP JUMP JUMPDEST PUSH1 0x0 PUSH1 0x40 MLOAD SWAP1 POP SWAP1 JUMP JUMPDEST PUSH1 0x0 DUP1 REVERT JUMPDEST PUSH1 0x0 DUP1 REVERT JUMPDEST PUSH1 0x0 DUP2 SWAP1 POP SWAP2 SWAP1 POP JUMP JUMPDEST PUSH2 0x6CE DUP2 PUSH2 0x6BB JUMP JUMPDEST DUP2 EQ PUSH2 0x6D9 JUMPI PUSH1 0x0 DUP1 REVERT JUMPDEST POP JUMP JUMPDEST PUSH1 0x0 DUP2 CALLDATALOAD SWAP1 POP PUSH2 0x6EB DUP2 PUSH2 0x6C5 JUMP JUMPDEST SWAP3 SWAP2 POP POP JUMP JUMPDEST PUSH1 0x0 PUSH1 0x20 DUP3 DUP5 SUB SLT ISZERO PUSH2 0x707 JUMPI PUSH2 0x706 PUSH2 0x6B1 JUMP JUMPDEST JUMPDEST PUSH1 0x0 PUSH2 0x715 DUP5 DUP3 DUP6 ADD PUSH2 0x6DC JUMP JUMPDEST SWAP2 POP POP SWAP3 SWAP2 POP POP JUMP JUMPDEST PUSH2 0x727 DUP2 PUSH2 0x6BB JUMP JUMPDEST DUP3 MSTORE POP POP JUMP JUMPDEST PUSH1 0x0 PUSH1 0x20 DUP3 ADD SWAP1 POP PUSH2 0x742 PUSH1 0x0 DUP4 ADD DUP5 PUSH2 0x71E JUMP JUMPDEST SWAP3 SWAP2 POP POP JUMP JUMPDEST PUSH1 0x0 DUP3 DUP3 MSTORE PUSH1 0x20 DUP3 ADD SWAP1 POP SWAP3 SWAP2 POP POP JUMP JUMPDEST PUSH1 0x0 PUSH2 0x764 DUP3 PUSH2 0x55F JUMP JUMPDEST PUSH2 0x76E DUP2 DUP6 PUSH2 0x748 JUMP JUMPDEST SWAP4 POP PUSH2 0x77E DUP2 DUP6 PUSH1 0x20 DUP7 ADD PUSH2 0x57B JUMP JUMPDEST PUSH2 0x787 DUP2 PUSH2 0x5A5 JUMP JUMPDEST DUP5 ADD SWAP2 POP POP SWAP3 SWAP2 POP POP JUMP JUMPDEST PUSH1 0x0 PUSH20 0xFFFFFFFFFFFFFFFFFFFFFFFFFFFFFFFFFFFFFFFF DUP3 AND SWAP1 POP SWAP2 SWAP1 POP JUMP JUMPDEST PUSH1 0x0 PUSH2 0x7BD DUP3 PUSH2 0x792 JUMP JUMPDEST SWAP1 POP SWAP2 SWAP1 POP JUMP JUMPDEST PUSH2 0x7CD DUP2 PUSH2 0x7B2 JUMP JUMPDEST DUP3 MSTORE POP POP JUMP JUMPDEST PUSH1 0x0 PUSH1 0x80 DUP3 ADD SWAP1 POP DUP2 DUP2 SUB PUSH1 0x0 DUP4 ADD MSTORE PUSH2 0x7ED DUP2 DUP8 PUSH2 0x759 JUMP JUMPDEST SWAP1 POP PUSH2 0x7FC PUSH1 0x20 DUP4 ADD DUP7 PUSH2 0x71E JUMP JUMPDEST DUP2 DUP2 SUB PUSH1 0x40 DUP4 ADD MSTORE PUSH2 0x80E DUP2 DUP6 PUSH2 0x759 JUMP JUMPDEST SWAP1 POP PUSH2 0x81D PUSH1 0x60 DUP4 ADD DUP5 PUSH2 0x7C4 JUMP JUMPDEST SWAP6 SWAP5 POP POP POP POP POP JUMP JUMPDEST PUSH1 0x0 DUP1 REVERT JUMPDEST PUSH1 0x0 DUP1 REVERT JUMPDEST PUSH32 0x4E487B7100000000000000000000000000000000000000000000000000000000 PUSH1 0x0 MSTORE PUSH1 0x41 PUSH1 0x4 MSTORE PUSH1 0x24 PUSH1 0x0 REVERT JUMPDEST PUSH2 0x868 DUP3 PUSH2 0x5A5 JUMP JUMPDEST DUP2 ADD DUP2 DUP2 LT PUSH8 0xFFFFFFFFFFFFFFFF DUP3 GT OR ISZERO PUSH2 0x887 JUMPI PUSH2 0x886 PUSH2 0x830 JUMP JUMPDEST JUMPDEST DUP1 PUSH1 0x40 MSTORE POP POP POP JUMP JUMPDEST PUSH1 0x0 PUSH2 0x89A PUSH2 0x6A7 JUMP JUMPDEST SWAP1 POP PUSH2 0x8A6 DUP3 DUP3 PUSH2 0x85F JUMP JUMPDEST SWAP2 SWAP1 POP JUMP JUMPDEST PUSH1 0x0 PUSH8 0xFFFFFFFFFFFFFFFF DUP3 GT ISZERO PUSH2 0x8C6 JUMPI PUSH2 0x8C5 PUSH2 0x830 JUMP JUMPDEST JUMPDEST PUSH2 0x8CF DUP3 PUSH2 0x5A5 JUMP JUMPDEST SWAP1 POP PUSH1 0x20 DUP2 ADD SWAP1 POP SWAP2 SWAP1 POP JUMP JUMPDEST DUP3 DUP2 DUP4 CALLDATACOPY PUSH1 0x0 DUP4 DUP4 ADD MSTORE POP POP POP JUMP JUMPDEST PUSH1 0x0 PUSH2 0x8FE PUSH2 0x8F9 DUP5 PUSH2 0x8AB JUMP JUMPDEST PUSH2 0x890 JUMP JUMPDEST SWAP1 POP DUP3 DUP2 MSTORE PUSH1 0x20 DUP2 ADD DUP5 DUP5 DUP5 ADD GT ISZERO PUSH2 0x91A JUMPI PUSH2 0x919 PUSH2 0x82B JUMP JUMPDEST JUMPDEST PUSH2 0x925 DUP5 DUP3 DUP6 PUSH2 0x8DC JUMP JUMPDEST POP SWAP4 SWAP3 POP POP POP JUMP JUMPDEST PUSH1 0x0 DUP3 PUSH1 0x1F DUP4 ADD SLT PUSH2 0x942 JUMPI PUSH2 0x941 PUSH2 0x826 JUMP JUMPDEST JUMPDEST DUP2 CALLDATALOAD PUSH2 0x952 DUP5 DUP3 PUSH1 0x20 DUP7 ADD PUSH2 0x8EB JUMP JUMPDEST SWAP2 POP POP SWAP3 SWAP2 POP POP JUMP JUMPDEST PUSH2 0x964 DUP2 PUSH2 0x7B2 JUMP JUMPDEST DUP2 EQ PUSH2 0x96F JUMPI PUSH1 0x0 DUP1 REVERT JUMPDEST POP JUMP JUMPDEST PUSH1 0x0 DUP2 CALLDATALOAD SWAP1 POP PUSH2 0x981 DUP2 PUSH2 0x95B JUMP JUMPDEST SWAP3 SWAP2 POP POP JUMP JUMPDEST PUSH1 0x0 DUP1 PUSH1 0x0 DUP1 PUSH1 0x0 PUSH1 0xA0 DUP7 DUP9 SUB SLT ISZERO PUSH2 0x9A3 JUMPI PUSH2 0x9A2 PUSH2 0x6B1 JUMP JUMPDEST JUMPDEST PUSH1 0x0 PUSH2 0x9B1 DUP9 DUP3 DUP10 ADD PUSH2 0x6DC JUMP JUMPDEST SWAP6 POP POP PUSH1 0x20 DUP7 ADD CALLDATALOAD PUSH8 0xFFFFFFFFFFFFFFFF DUP2 GT ISZERO PUSH2 0x9D2 JUMPI PUSH2 0x9D1 PUSH2 0x6B6 JUMP JUMPDEST JUMPDEST PUSH2 0x9DE DUP9 DUP3 DUP10 ADD PUSH2 0x92D JUMP JUMPDEST SWAP5 POP POP PUSH1 0x40 PUSH2 0x9EF DUP9 DUP3 DUP10 ADD PUSH2 0x6DC JUMP JUMPDEST SWAP4 POP POP PUSH1 0x60 DUP7 ADD CALLDATALOAD PUSH8 0xFFFFFFFFFFFFFFFF DUP2 GT ISZERO PUSH2 0xA10 JUMPI PUSH2 0xA0F PUSH2 0x6B6 JUMP JUMPDEST JUMPDEST PUSH2 0xA1C DUP9 DUP3 DUP10 ADD PUSH2 0x92D JUMP JUMPDEST SWAP3 POP POP PUSH1 0x80 PUSH2 0xA2D DUP9 DUP3 DUP10 ADD PUSH2 0x972 JUMP JUMPDEST SWAP2 POP POP SWAP3 SWAP6 POP SWAP3 SWAP6 SWAP1 SWAP4 POP JUMP JUMPDEST PUSH32 0x4E487B7100000000000000000000000000000000000000000000000000000000 PUSH1 0x0 MSTORE PUSH1 0x11 PUSH1 0x4 MSTORE PUSH1 0x24 PUSH1 0x0 REVERT JUMPDEST PUSH1 0x0 PUSH2 0xA74 DUP3 PUSH2 0x6BB JUMP JUMPDEST SWAP2 POP PUSH2 0xA7F DUP4 PUSH2 0x6BB JUMP JUMPDEST SWAP3 POP DUP3 DUP3 ADD SWAP1 POP DUP1 DUP3 GT ISZERO PUSH2 0xA97 JUMPI PUSH2 0xA96 PUSH2 0xA3A JUMP JUMPDEST JUMPDEST SWAP3 SWAP2 POP POP JUMP JUMPDEST PUSH32 0x4E487B7100000000000000000000000000000000000000000000000000000000 PUSH1 0x0 MSTORE PUSH1 0x22 PUSH1 0x4 MSTORE PUSH1 0x24 PUSH1 0x0 REVERT JUMPDEST PUSH1 0x0 PUSH1 0x2 DUP3 DIV SWAP1 POP PUSH1 0x1 DUP3 AND DUP1 PUSH2 0xAE4 JUMPI PUSH1 0x7F DUP3 AND SWAP2 POP JUMPDEST PUSH1 0x20 DUP3 LT DUP2 SUB PUSH2 0xAF7 JUMPI PUSH2 0xAF6 PUSH2 0xA9D JUMP JUMPDEST JUMPDEST POP SWAP2 SWAP1 POP JUMP JUMPDEST PUSH32 0x4E487B7100000000000000000000000000000000000000000000000000000000 PUSH1 0x0 MSTORE PUSH1 0x32 PUSH1 0x4 MSTORE PUSH1 0x24 PUSH1 0x0 REVERT JUMPDEST PUSH1 0x0 PUSH2 0xB37 DUP3 PUSH2 0x6BB JUMP JUMPDEST SWAP2 POP PUSH32 0xFFFFFFFFFFFFFFFFFFFFFFFFFFFFFFFFFFFFFFFFFFFFFFFFFFFFFFFFFFFFFFFF DUP3 SUB PUSH2 0xB69 JUMPI PUSH2 0xB68 PUSH2 0xA3A JUMP JUMPDEST JUMPDEST PUSH1 0x1 DUP3 ADD SWAP1 POP SWAP2 SWAP1 POP JUMP JUMPDEST PUSH1 0x0 DUP2 SWAP1 POP DUP2 PUSH1 0x0 MSTORE PUSH1 0x20 PUSH1 0x0 KECCAK256 SWAP1 POP SWAP2 SWAP1 POP JUMP JUMPDEST PUSH1 0x0 PUSH1 0x20 PUSH1 0x1F DUP4 ADD DIV SWAP1 POP SWAP2 SWAP1 POP JUMP JUMPDEST PUSH1 0x0 DUP3 DUP3 SHL SWAP1 POP SWAP3 SWAP2 POP POP JUMP JUMPDEST PUSH1 0x0 PUSH1 0x8 DUP4 MUL PUSH2 0xBD6 PUSH32 0xFFFFFFFFFFFFFFFFFFFFFFFFFFFFFFFFFFFFFFFFFFFFFFFFFFFFFFFFFFFFFFFF DUP3 PUSH2 0xB99 JUMP JUMPDEST PUSH2 0xBE0 DUP7 DUP4 PUSH2 0xB99 JUMP JUMPDEST SWAP6 POP DUP1 NOT DUP5 AND SWAP4 POP DUP1 DUP7 AND DUP5 OR SWAP3 POP POP POP SWAP4 SWAP3 POP POP POP JUMP JUMPDEST PUSH1 0x0 DUP2 SWAP1 POP SWAP2 SWAP1 POP JUMP JUMPDEST PUSH1 0x0 PUSH2 0xC1D PUSH2 0xC18 PUSH2 0xC13 DUP5 PUSH2 0x6BB JUMP JUMPDEST PUSH2 0xBF8 JUMP JUMPDEST PUSH2 0x6BB JUMP JUMPDEST SWAP1 POP SWAP2 SWAP1 POP JUMP JUMPDEST PUSH1 0x0 DUP2 SWAP1 POP SWAP2 SWAP1 POP JUMP JUMPDEST PUSH2 0xC37 DUP4 PUSH2 0xC02 JUMP JUMPDEST PUSH2 0xC4B PUSH2 0xC43 DUP3 PUSH2 0xC24 JUMP JUMPDEST DUP5 DUP5 SLOAD PUSH2 0xBA6 JUMP JUMPDEST DUP3 SSTORE POP POP POP POP JUMP JUMPDEST PUSH1 0x0 SWAP1 JUMP JUMPDEST PUSH2 0xC60 PUSH2 0xC53 JUMP JUMPDEST PUSH2 0xC6B DUP2 DUP5 DUP5 PUSH2 0xC2E JUMP JUMPDEST POP POP POP JUMP JUMPDEST JUMPDEST DUP2 DUP2 LT ISZERO PUSH2 0xC8F JUMPI PUSH2 0xC84 PUSH1 0x0 DUP3 PUSH2 0xC58 JUMP JUMPDEST PUSH1 0x1 DUP2 ADD SWAP1 POP PUSH2 0xC71 JUMP JUMPDEST POP POP JUMP JUMPDEST PUSH1 0x1F DUP3 GT ISZERO PUSH2 0xCD4 JUMPI PUSH2 0xCA5 DUP2 PUSH2 0xB74 JUMP JUMPDEST PUSH2 0xCAE DUP5 PUSH2 0xB89 JUMP JUMPDEST DUP2 ADD PUSH1 0x20 DUP6 LT ISZERO PUSH2 0xCBD JUMPI DUP2 SWAP1 POP JUMPDEST PUSH2 0xCD1 PUSH2 0xCC9 DUP6 PUSH2 0xB89 JUMP JUMPDEST DUP4 ADD DUP3 PUSH2 0xC70 JUMP JUMPDEST POP POP JUMPDEST POP POP POP JUMP JUMPDEST PUSH1 0x0 DUP3 DUP3 SHR SWAP1 POP SWAP3 SWAP2 POP POP JUMP JUMPDEST PUSH1 0x0 PUSH2 0xCF7 PUSH1 0x0 NOT DUP5 PUSH1 0x8 MUL PUSH2 0xCD9 JUMP JUMPDEST NOT DUP1 DUP4 AND SWAP2 POP POP SWAP3 SWAP2 POP POP JUMP JUMPDEST PUSH1 0x0 PUSH2 0xD10 DUP4 DUP4 PUSH2 0xCE6 JUMP JUMPDEST SWAP2 POP DUP3 PUSH1 0x2 MUL DUP3 OR SWAP1 POP SWAP3 SWAP2 POP POP JUMP JUMPDEST PUSH2 0xD29 DUP3 PUSH2 0x55F JUMP JUMPDEST PUSH8 0xFFFFFFFFFFFFFFFF DUP2 GT ISZERO PUSH2 0xD42 JUMPI PUSH2 0xD41 PUSH2 0x830 JUMP JUMPDEST JUMPDEST PUSH2 0xD4C DUP3 SLOAD PUSH2 0xACC JUMP JUMPDEST PUSH2 0xD57 DUP3 DUP3 DUP6 PUSH2 0xC93 JUMP JUMPDEST PUSH1 0x0 PUSH1 0x20 SWAP1 POP PUSH1 0x1F DUP4 GT PUSH1 0x1 DUP2 EQ PUSH2 0xD8A JUMPI PUSH1 0x0 DUP5 ISZERO PUSH2 0xD78 JUMPI DUP3 DUP8 ADD MLOAD SWAP1 POP JUMPDEST PUSH2 0xD82 DUP6 DUP3 PUSH2 0xD04 JUMP JUMPDEST DUP7 SSTORE POP PUSH2 0xDEA JUMP JUMPDEST PUSH1 0x1F NOT DUP5 AND PUSH2 0xD98 DUP7 PUSH2 0xB74 JUMP JUMPDEST PUSH1 0x0 JUMPDEST DUP3 DUP2 LT ISZERO PUSH2 0xDC0 JUMPI DUP5 DUP10 ADD MLOAD DUP3 SSTORE PUSH1 0x1 DUP3 ADD SWAP2 POP PUSH1 0x20 DUP6 ADD SWAP5 POP PUSH1 0x20 DUP2 ADD SWAP1 POP PUSH2 0xD9B JUMP JUMPDEST DUP7 DUP4 LT ISZERO PUSH2 0xDDD JUMPI DUP5 DUP10 ADD MLOAD PUSH2 0xDD9 PUSH1 0x1F DUP10 AND DUP3 PUSH2 0xCE6 JUMP JUMPDEST DUP4 SSTORE POP JUMPDEST PUSH1 0x1 PUSH1 0x2 DUP9 MUL ADD DUP9 SSTORE POP POP POP JUMPDEST POP POP POP POP POP POP JUMP INVALID LOG2 PUSH5 0x6970667358 0x22 SLT KECCAK256 0xEF 0xD4 SWAP4 EXTCODEHASH EQ 0x26 0xA8 0x5D 0x4C OR ADDMOD 0xDA PUSH21 0x7781AB4561AB10545270EA8B437548472D09E46473 PUSH16 0x6C634300081200330000000000000000 "
				},
				"gasEstimates": {
					"creation": {
						"codeDepositCost": "724800",
						"executionCost": "760",
						"totalCost": "725560"
					},
					"external": {
						"GetAllName()": "infinite",
						"addData(uint256,string,uint256,string,address)": "infinite",
						"counter()": "2451",
						"deleteData(uint256)": "infinite",
						"mymapping(uint256)": "infinite"
					}
				},
				"methodIdentifiers": {
					"GetAllName()": "07a290ad",
					"addData(uint256,string,uint256,string,address)": "f1ab1b73",
					"counter()": "61bc221a",
					"deleteData(uint256)": "4fe8b4c1",
					"mymapping(uint256)": "bb58e356"
				}
			},
			"storageLayout": {
				"storage": [
					{
						"astId": 3,
						"contract": "contracts/mapping.sol:mapping1",
						"label": "counter",
						"offset": 0,
						"slot": "0",
						"type": "t_uint256"
					},
					{
						"astId": 6,
						"contract": "contracts/mapping.sol:mapping1",
						"label": "myarray",
						"offset": 0,
						"slot": "1",
						"type": "t_array(t_uint256)dyn_storage"
					},
					{
						"astId": 20,
						"contract": "contracts/mapping.sol:mapping1",
						"label": "mymapping",
						"offset": 0,
						"slot": "2",
						"type": "t_mapping(t_uint256,t_struct(student)15_storage)"
					}
				],
				"types": {
					"t_address": {
						"encoding": "inplace",
						"label": "address",
						"numberOfBytes": "20"
					},
					"t_array(t_uint256)dyn_storage": {
						"base": "t_uint256",
						"encoding": "dynamic_array",
						"label": "uint256[]",
						"numberOfBytes": "32"
					},
					"t_mapping(t_uint256,t_struct(student)15_storage)": {
						"encoding": "mapping",
						"key": "t_uint256",
						"label": "mapping(uint256 => struct mapping1.student)",
						"numberOfBytes": "32",
						"value": "t_struct(student)15_storage"
					},
					"t_string_storage": {
						"encoding": "bytes",
						"label": "string",
						"numberOfBytes": "32"
					},
					"t_struct(student)15_storage": {
						"encoding": "inplace",
						"label": "struct mapping1.student",
						"members": [
							{
								"astId": 8,
								"contract": "contracts/mapping.sol:mapping1",
								"label": "name",
								"offset": 0,
								"slot": "0",
								"type": "t_string_storage"
							},
							{
								"astId": 10,
								"contract": "contracts/mapping.sol:mapping1",
								"label": "rollno",
								"offset": 0,
								"slot": "1",
								"type": "t_uint256"
							},
							{
								"astId": 12,
								"contract": "contracts/mapping.sol:mapping1",
								"label": "uni",
								"offset": 0,
								"slot": "2",
								"type": "t_string_storage"
							},
							{
								"astId": 14,
								"contract": "contracts/mapping.sol:mapping1",
								"label": "account",
								"offset": 0,
								"slot": "3",
								"type": "t_address"
							}
						],
						"numberOfBytes": "128"
					},
					"t_uint256": {
						"encoding": "inplace",
						"label": "uint256",
						"numberOfBytes": "32"
					}
				}
			},
			"userdoc": {
				"kind": "user",
				"methods": {},
				"version": 1
			}
		}
	}
}