{
	"contracts/enum.sol": {
		"order": {
			"abi": [
				{
					"inputs": [],
					"name": "accepted",
					"outputs": [],
					"stateMutability": "nonpayable",
					"type": "function"
				},
				{
					"inputs": [],
					"name": "currentstatus",
					"outputs": [
						{
							"internalType": "enum order.status",
							"name": "",
							"type": "uint8"
						}
					],
					"stateMutability": "view",
					"type": "function"
				},
				{
					"inputs": [],
					"name": "pending",
					"outputs": [],
					"stateMutability": "nonpayable",
					"type": "function"
				},
				{
					"inputs": [],
					"name": "rejected",
					"outputs": [],
					"stateMutability": "nonpayable",
					"type": "function"
				},
				{
					"inputs": [],
					"name": "shipped",
					"outputs": [],
					"stateMutability": "nonpayable",
					"type": "function"
				}
			],
			"devdoc": {
				"kind": "dev",
				"methods": {},
				"version": 1
			},
			"evm": {
				"assembly": "    /* \"contracts/enum.sol\":66:617  contract order{... */\n  mstore(0x40, 0x80)\n  callvalue\n  dup1\n  iszero\n  tag_1\n  jumpi\n  0x00\n  dup1\n  revert\ntag_1:\n  pop\n  dataSize(sub_0)\n  dup1\n  dataOffset(sub_0)\n  0x00\n  codecopy\n  0x00\n  return\nstop\n\nsub_0: assembly {\n        /* \"contracts/enum.sol\":66:617  contract order{... */\n      mstore(0x40, 0x80)\n      callvalue\n      dup1\n      iszero\n      tag_1\n      jumpi\n      0x00\n      dup1\n      revert\n    tag_1:\n      pop\n      jumpi(tag_2, lt(calldatasize, 0x04))\n      shr(0xe0, calldataload(0x00))\n      dup1\n      0x67fe5a0c\n      eq\n      tag_3\n      jumpi\n      dup1\n      0x9e14e2b9\n      eq\n      tag_4\n      jumpi\n      dup1\n      0xba446ae9\n      eq\n      tag_5\n      jumpi\n      dup1\n      0xd13b0e64\n      eq\n      tag_6\n      jumpi\n      dup1\n      0xe20ccec3\n      eq\n      tag_7\n      jumpi\n    tag_2:\n      0x00\n      dup1\n      revert\n        /* \"contracts/enum.sol\":379:454  function accepted()public{... */\n    tag_3:\n      tag_8\n      tag_9\n      jump\t// in\n    tag_8:\n      stop\n        /* \"contracts/enum.sol\":204:231  status public currentstatus */\n    tag_4:\n      tag_10\n      tag_11\n      jump\t// in\n    tag_10:\n      mload(0x40)\n      tag_12\n      swap2\n      swap1\n      tag_13\n      jump\t// in\n    tag_12:\n      mload(0x40)\n      dup1\n      swap2\n      sub\n      swap1\n      return\n        /* \"contracts/enum.sol\":541:614  function shipped()public{... */\n    tag_5:\n      tag_14\n      tag_15\n      jump\t// in\n    tag_14:\n      stop\n        /* \"contracts/enum.sol\":460:535  function rejected()public{... */\n    tag_6:\n      tag_16\n      tag_17\n      jump\t// in\n    tag_16:\n      stop\n        /* \"contracts/enum.sol\":246:373  function pending()public{... */\n    tag_7:\n      tag_18\n      tag_19\n      jump\t// in\n    tag_18:\n      stop\n        /* \"contracts/enum.sol\":379:454  function accepted()public{... */\n    tag_9:\n        /* \"contracts/enum.sol\":431:446  status.accepted */\n      0x02\n        /* \"contracts/enum.sol\":415:428  currentstatus */\n      0x00\n      dup1\n        /* \"contracts/enum.sol\":415:446  currentstatus = status.accepted */\n      0x0100\n      exp\n      dup2\n      sload\n      dup2\n      0xff\n      mul\n      not\n      and\n      swap1\n      dup4\n      0x04\n      dup2\n      gt\n      iszero\n      tag_21\n      jumpi\n      tag_22\n      tag_23\n      jump\t// in\n    tag_22:\n    tag_21:\n      mul\n      or\n      swap1\n      sstore\n      pop\n        /* \"contracts/enum.sol\":379:454  function accepted()public{... */\n      jump\t// out\n        /* \"contracts/enum.sol\":204:231  status public currentstatus */\n    tag_11:\n      0x00\n      dup1\n      sload\n      swap1\n      0x0100\n      exp\n      swap1\n      div\n      0xff\n      and\n      dup2\n      jump\t// out\n        /* \"contracts/enum.sol\":541:614  function shipped()public{... */\n    tag_15:\n        /* \"contracts/enum.sol\":592:606  status.shipped */\n      0x04\n        /* \"contracts/enum.sol\":576:589  currentstatus */\n      0x00\n      dup1\n        /* \"contracts/enum.sol\":576:606  currentstatus = status.shipped */\n      0x0100\n      exp\n      dup2\n      sload\n      dup2\n      0xff\n      mul\n      not\n      and\n      swap1\n      dup4\n      0x04\n      dup2\n      gt\n      iszero\n      tag_25\n      jumpi\n      tag_26\n      tag_23\n      jump\t// in\n    tag_26:\n    tag_25:\n      mul\n      or\n      swap1\n      sstore\n      pop\n        /* \"contracts/enum.sol\":541:614  function shipped()public{... */\n      jump\t// out\n        /* \"contracts/enum.sol\":460:535  function rejected()public{... */\n    tag_17:\n        /* \"contracts/enum.sol\":512:527  status.rejected */\n      0x03\n        /* \"contracts/enum.sol\":496:509  currentstatus */\n      0x00\n      dup1\n        /* \"contracts/enum.sol\":496:527  currentstatus = status.rejected */\n      0x0100\n      exp\n      dup2\n      sload\n      dup2\n      0xff\n      mul\n      not\n      and\n      swap1\n      dup4\n      0x04\n      dup2\n      gt\n      iszero\n      tag_28\n      jumpi\n      tag_29\n      tag_23\n      jump\t// in\n    tag_29:\n    tag_28:\n      mul\n      or\n      swap1\n      sstore\n      pop\n        /* \"contracts/enum.sol\":460:535  function rejected()public{... */\n      jump\t// out\n        /* \"contracts/enum.sol\":246:373  function pending()public{... */\n    tag_19:\n        /* \"contracts/enum.sol\":301:312  status.none */\n      0x00\n        /* \"contracts/enum.sol\":285:312  currentstatus ==status.none */\n      0x04\n      dup2\n      gt\n      iszero\n      tag_31\n      jumpi\n      tag_32\n      tag_23\n      jump\t// in\n    tag_32:\n    tag_31:\n        /* \"contracts/enum.sol\":285:298  currentstatus */\n      0x00\n      dup1\n      sload\n      swap1\n      0x0100\n      exp\n      swap1\n      div\n      0xff\n      and\n        /* \"contracts/enum.sol\":285:312  currentstatus ==status.none */\n      0x04\n      dup2\n      gt\n      iszero\n      tag_33\n      jumpi\n      tag_34\n      tag_23\n      jump\t// in\n    tag_34:\n    tag_33:\n      eq\n        /* \"contracts/enum.sol\":277:324  require(currentstatus ==status.none,\"invalid\" ) */\n      tag_35\n      jumpi\n      mload(0x40)\n      0x08c379a000000000000000000000000000000000000000000000000000000000\n      dup2\n      mstore\n      0x04\n      add\n      tag_36\n      swap1\n      tag_37\n      jump\t// in\n    tag_36:\n      mload(0x40)\n      dup1\n      swap2\n      sub\n      swap1\n      revert\n    tag_35:\n        /* \"contracts/enum.sol\":351:365  status.pending */\n      0x01\n        /* \"contracts/enum.sol\":335:348  currentstatus */\n      0x00\n      dup1\n        /* \"contracts/enum.sol\":335:365  currentstatus = status.pending */\n      0x0100\n      exp\n      dup2\n      sload\n      dup2\n      0xff\n      mul\n      not\n      and\n      swap1\n      dup4\n      0x04\n      dup2\n      gt\n      iszero\n      tag_38\n      jumpi\n      tag_39\n      tag_23\n      jump\t// in\n    tag_39:\n    tag_38:\n      mul\n      or\n      swap1\n      sstore\n      pop\n        /* \"contracts/enum.sol\":246:373  function pending()public{... */\n      jump\t// out\n        /* \"#utility.yul\":7:187   */\n    tag_23:\n        /* \"#utility.yul\":55:132   */\n      0x4e487b7100000000000000000000000000000000000000000000000000000000\n        /* \"#utility.yul\":52:53   */\n      0x00\n        /* \"#utility.yul\":45:133   */\n      mstore\n        /* \"#utility.yul\":152:156   */\n      0x21\n        /* \"#utility.yul\":149:150   */\n      0x04\n        /* \"#utility.yul\":142:157   */\n      mstore\n        /* \"#utility.yul\":176:180   */\n      0x24\n        /* \"#utility.yul\":173:174   */\n      0x00\n        /* \"#utility.yul\":166:181   */\n      revert\n        /* \"#utility.yul\":193:306   */\n    tag_40:\n        /* \"#utility.yul\":274:275   */\n      0x05\n        /* \"#utility.yul\":267:272   */\n      dup2\n        /* \"#utility.yul\":264:276   */\n      lt\n        /* \"#utility.yul\":254:300   */\n      tag_50\n      jumpi\n        /* \"#utility.yul\":280:298   */\n      tag_51\n      tag_23\n      jump\t// in\n    tag_51:\n        /* \"#utility.yul\":254:300   */\n    tag_50:\n        /* \"#utility.yul\":193:306   */\n      pop\n      jump\t// out\n        /* \"#utility.yul\":312:439   */\n    tag_41:\n        /* \"#utility.yul\":357:364   */\n      0x00\n        /* \"#utility.yul\":386:391   */\n      dup2\n        /* \"#utility.yul\":375:391   */\n      swap1\n      pop\n        /* \"#utility.yul\":392:433   */\n      tag_53\n        /* \"#utility.yul\":427:432   */\n      dup3\n        /* \"#utility.yul\":392:433   */\n      tag_40\n      jump\t// in\n    tag_53:\n        /* \"#utility.yul\":312:439   */\n      swap2\n      swap1\n      pop\n      jump\t// out\n        /* \"#utility.yul\":445:572   */\n    tag_42:\n        /* \"#utility.yul\":501:510   */\n      0x00\n        /* \"#utility.yul\":534:566   */\n      tag_55\n        /* \"#utility.yul\":560:565   */\n      dup3\n        /* \"#utility.yul\":534:566   */\n      tag_41\n      jump\t// in\n    tag_55:\n        /* \"#utility.yul\":521:566   */\n      swap1\n      pop\n        /* \"#utility.yul\":445:572   */\n      swap2\n      swap1\n      pop\n      jump\t// out\n        /* \"#utility.yul\":578:721   */\n    tag_43:\n        /* \"#utility.yul\":671:714   */\n      tag_57\n        /* \"#utility.yul\":708:713   */\n      dup2\n        /* \"#utility.yul\":671:714   */\n      tag_42\n      jump\t// in\n    tag_57:\n        /* \"#utility.yul\":666:669   */\n      dup3\n        /* \"#utility.yul\":659:715   */\n      mstore\n        /* \"#utility.yul\":578:721   */\n      pop\n      pop\n      jump\t// out\n        /* \"#utility.yul\":727:961   */\n    tag_13:\n        /* \"#utility.yul\":826:830   */\n      0x00\n        /* \"#utility.yul\":864:866   */\n      0x20\n        /* \"#utility.yul\":853:862   */\n      dup3\n        /* \"#utility.yul\":849:867   */\n      add\n        /* \"#utility.yul\":841:867   */\n      swap1\n      pop\n        /* \"#utility.yul\":877:954   */\n      tag_59\n        /* \"#utility.yul\":951:952   */\n      0x00\n        /* \"#utility.yul\":940:949   */\n      dup4\n        /* \"#utility.yul\":936:953   */\n      add\n        /* \"#utility.yul\":927:933   */\n      dup5\n        /* \"#utility.yul\":877:954   */\n      tag_43\n      jump\t// in\n    tag_59:\n        /* \"#utility.yul\":727:961   */\n      swap3\n      swap2\n      pop\n      pop\n      jump\t// out\n        /* \"#utility.yul\":967:1136   */\n    tag_44:\n        /* \"#utility.yul\":1051:1062   */\n      0x00\n        /* \"#utility.yul\":1085:1091   */\n      dup3\n        /* \"#utility.yul\":1080:1083   */\n      dup3\n        /* \"#utility.yul\":1073:1092   */\n      mstore\n        /* \"#utility.yul\":1125:1129   */\n      0x20\n        /* \"#utility.yul\":1120:1123   */\n      dup3\n        /* \"#utility.yul\":1116:1130   */\n      add\n        /* \"#utility.yul\":1101:1130   */\n      swap1\n      pop\n        /* \"#utility.yul\":967:1136   */\n      swap3\n      swap2\n      pop\n      pop\n      jump\t// out\n        /* \"#utility.yul\":1142:1299   */\n    tag_45:\n        /* \"#utility.yul\":1282:1291   */\n      0x696e76616c696400000000000000000000000000000000000000000000000000\n        /* \"#utility.yul\":1278:1279   */\n      0x00\n        /* \"#utility.yul\":1270:1276   */\n      dup3\n        /* \"#utility.yul\":1266:1280   */\n      add\n        /* \"#utility.yul\":1259:1292   */\n      mstore\n        /* \"#utility.yul\":1142:1299   */\n      pop\n      jump\t// out\n        /* \"#utility.yul\":1305:1670   */\n    tag_46:\n        /* \"#utility.yul\":1447:1450   */\n      0x00\n        /* \"#utility.yul\":1468:1534   */\n      tag_63\n        /* \"#utility.yul\":1532:1533   */\n      0x07\n        /* \"#utility.yul\":1527:1530   */\n      dup4\n        /* \"#utility.yul\":1468:1534   */\n      tag_44\n      jump\t// in\n    tag_63:\n        /* \"#utility.yul\":1461:1534   */\n      swap2\n      pop\n        /* \"#utility.yul\":1543:1636   */\n      tag_64\n        /* \"#utility.yul\":1632:1635   */\n      dup3\n        /* \"#utility.yul\":1543:1636   */\n      tag_45\n      jump\t// in\n    tag_64:\n        /* \"#utility.yul\":1661:1663   */\n      0x20\n        /* \"#utility.yul\":1656:1659   */\n      dup3\n        /* \"#utility.yul\":1652:1664   */\n      add\n        /* \"#utility.yul\":1645:1664   */\n      swap1\n      pop\n        /* \"#utility.yul\":1305:1670   */\n      swap2\n      swap1\n      pop\n      jump\t// out\n        /* \"#utility.yul\":1676:2095   */\n    tag_37:\n        /* \"#utility.yul\":1842:1846   */\n      0x00\n        /* \"#utility.yul\":1880:1882   */\n      0x20\n        /* \"#utility.yul\":1869:1878   */\n      dup3\n        /* \"#utility.yul\":1865:1883   */\n      add\n        /* \"#utility.yul\":1857:1883   */\n      swap1\n      pop\n        /* \"#utility.yul\":1929:1938   */\n      dup2\n        /* \"#utility.yul\":1923:1927   */\n      dup2\n        /* \"#utility.yul\":1919:1939   */\n      sub\n        /* \"#utility.yul\":1915:1916   */\n      0x00\n        /* \"#utility.yul\":1904:1913   */\n      dup4\n        /* \"#utility.yul\":1900:1917   */\n      add\n        /* \"#utility.yul\":1893:1940   */\n      mstore\n        /* \"#utility.yul\":1957:2088   */\n      tag_66\n        /* \"#utility.yul\":2083:2087   */\n      dup2\n        /* \"#utility.yul\":1957:2088   */\n      tag_46\n      jump\t// in\n    tag_66:\n        /* \"#utility.yul\":1949:2088   */\n      swap1\n      pop\n        /* \"#utility.yul\":1676:2095   */\n      swap2\n      swap1\n      pop\n      jump\t// out\n\n    auxdata: 0xa2646970667358221220655b29ecbd72e45560b1aca6cde5b0f72df22913754a22e6671e8ddcbe45696b64736f6c63430008120033\n}\n",
				"bytecode": {
					"linkReferences": {},
					"object": "608060405234801561001057600080fd5b5061031c806100206000396000f3fe608060405234801561001057600080fd5b50600436106100575760003560e01c806367fe5a0c1461005c5780639e14e2b914610066578063ba446ae914610084578063d13b0e641461008e578063e20ccec314610098575b600080fd5b6100646100a2565b005b61006e6100ce565b60405161007b919061024e565b60405180910390f35b61008c6100df565b005b61009661010b565b005b6100a0610137565b005b60026000806101000a81548160ff021916908360048111156100c7576100c66101d7565b5b0217905550565b60008054906101000a900460ff1681565b60046000806101000a81548160ff02191690836004811115610104576101036101d7565b5b0217905550565b60036000806101000a81548160ff021916908360048111156101305761012f6101d7565b5b0217905550565b6000600481111561014b5761014a6101d7565b5b60008054906101000a900460ff16600481111561016b5761016a6101d7565b5b146101ab576040517f08c379a00000000000000000000000000000000000000000000000000000000081526004016101a2906102c6565b60405180910390fd5b60016000806101000a81548160ff021916908360048111156101d0576101cf6101d7565b5b0217905550565b7f4e487b7100000000000000000000000000000000000000000000000000000000600052602160045260246000fd5b60058110610217576102166101d7565b5b50565b600081905061022882610206565b919050565b60006102388261021a565b9050919050565b6102488161022d565b82525050565b6000602082019050610263600083018461023f565b92915050565b600082825260208201905092915050565b7f696e76616c696400000000000000000000000000000000000000000000000000600082015250565b60006102b0600783610269565b91506102bb8261027a565b602082019050919050565b600060208201905081810360008301526102df816102a3565b905091905056fea2646970667358221220655b29ecbd72e45560b1aca6cde5b0f72df22913754a22e6671e8ddcbe45696b64736f6c63430008120033",
					"opcodes": "PUSH1 0x80 PUSH1 0x40 MSTORE CALLVALUE DUP1 ISZERO PUSH2 0x10 JUMPI PUSH1 0x0 DUP1 REVERT JUMPDEST POP PUSH2 0x31C DUP1 PUSH2 0x20 PUSH1 0x0 CODECOPY PUSH1 0x0 RETURN INVALID PUSH1 0x80 PUSH1 0x40 MSTORE CALLVALUE DUP1 ISZERO PUSH2 0x10 JUMPI PUSH1 0x0 DUP1 REVERT JUMPDEST POP PUSH1 0x4 CALLDATASIZE LT PUSH2 0x57 JUMPI PUSH1 0x0 CALLDATALOAD PUSH1 0xE0 SHR DUP1 PUSH4 0x67FE5A0C EQ PUSH2 0x5C JUMPI DUP1 PUSH4 0x9E14E2B9 EQ PUSH2 0x66 JUMPI DUP1 PUSH4 0xBA446AE9 EQ PUSH2 0x84 JUMPI DUP1 PUSH4 0xD13B0E64 EQ PUSH2 0x8E JUMPI DUP1 PUSH4 0xE20CCEC3 EQ PUSH2 0x98 JUMPI JUMPDEST PUSH1 0x0 DUP1 REVERT JUMPDEST PUSH2 0x64 PUSH2 0xA2 JUMP JUMPDEST STOP JUMPDEST PUSH2 0x6E PUSH2 0xCE JUMP JUMPDEST PUSH1 0x40 MLOAD PUSH2 0x7B SWAP2 SWAP1 PUSH2 0x24E JUMP JUMPDEST PUSH1 0x40 MLOAD DUP1 SWAP2 SUB SWAP1 RETURN JUMPDEST PUSH2 0x8C PUSH2 0xDF JUMP JUMPDEST STOP JUMPDEST PUSH2 0x96 PUSH2 0x10B JUMP JUMPDEST STOP JUMPDEST PUSH2 0xA0 PUSH2 0x137 JUMP JUMPDEST STOP JUMPDEST PUSH1 0x2 PUSH1 0x0 DUP1 PUSH2 0x100 EXP DUP2 SLOAD DUP2 PUSH1 0xFF MUL NOT AND SWAP1 DUP4 PUSH1 0x4 DUP2 GT ISZERO PUSH2 0xC7 JUMPI PUSH2 0xC6 PUSH2 0x1D7 JUMP JUMPDEST JUMPDEST MUL OR SWAP1 SSTORE POP JUMP JUMPDEST PUSH1 0x0 DUP1 SLOAD SWAP1 PUSH2 0x100 EXP SWAP1 DIV PUSH1 0xFF AND DUP2 JUMP JUMPDEST PUSH1 0x4 PUSH1 0x0 DUP1 PUSH2 0x100 EXP DUP2 SLOAD DUP2 PUSH1 0xFF MUL NOT AND SWAP1 DUP4 PUSH1 0x4 DUP2 GT ISZERO PUSH2 0x104 JUMPI PUSH2 0x103 PUSH2 0x1D7 JUMP JUMPDEST JUMPDEST MUL OR SWAP1 SSTORE POP JUMP JUMPDEST PUSH1 0x3 PUSH1 0x0 DUP1 PUSH2 0x100 EXP DUP2 SLOAD DUP2 PUSH1 0xFF MUL NOT AND SWAP1 DUP4 PUSH1 0x4 DUP2 GT ISZERO PUSH2 0x130 JUMPI PUSH2 0x12F PUSH2 0x1D7 JUMP JUMPDEST JUMPDEST MUL OR SWAP1 SSTORE POP JUMP JUMPDEST PUSH1 0x0 PUSH1 0x4 DUP2 GT ISZERO PUSH2 0x14B JUMPI PUSH2 0x14A PUSH2 0x1D7 JUMP JUMPDEST JUMPDEST PUSH1 0x0 DUP1 SLOAD SWAP1 PUSH2 0x100 EXP SWAP1 DIV PUSH1 0xFF AND PUSH1 0x4 DUP2 GT ISZERO PUSH2 0x16B JUMPI PUSH2 0x16A PUSH2 0x1D7 JUMP JUMPDEST JUMPDEST EQ PUSH2 0x1AB JUMPI PUSH1 0x40 MLOAD PUSH32 0x8C379A000000000000000000000000000000000000000000000000000000000 DUP2 MSTORE PUSH1 0x4 ADD PUSH2 0x1A2 SWAP1 PUSH2 0x2C6 JUMP JUMPDEST PUSH1 0x40 MLOAD DUP1 SWAP2 SUB SWAP1 REVERT JUMPDEST PUSH1 0x1 PUSH1 0x0 DUP1 PUSH2 0x100 EXP DUP2 SLOAD DUP2 PUSH1 0xFF MUL NOT AND SWAP1 DUP4 PUSH1 0x4 DUP2 GT ISZERO PUSH2 0x1D0 JUMPI PUSH2 0x1CF PUSH2 0x1D7 JUMP JUMPDEST JUMPDEST MUL OR SWAP1 SSTORE POP JUMP JUMPDEST PUSH32 0x4E487B7100000000000000000000000000000000000000000000000000000000 PUSH1 0x0 MSTORE PUSH1 0x21 PUSH1 0x4 MSTORE PUSH1 0x24 PUSH1 0x0 REVERT JUMPDEST PUSH1 0x5 DUP2 LT PUSH2 0x217 JUMPI PUSH2 0x216 PUSH2 0x1D7 JUMP JUMPDEST JUMPDEST POP JUMP JUMPDEST PUSH1 0x0 DUP2 SWAP1 POP PUSH2 0x228 DUP3 PUSH2 0x206 JUMP JUMPDEST SWAP2 SWAP1 POP JUMP JUMPDEST PUSH1 0x0 PUSH2 0x238 DUP3 PUSH2 0x21A JUMP JUMPDEST SWAP1 POP SWAP2 SWAP1 POP JUMP JUMPDEST PUSH2 0x248 DUP2 PUSH2 0x22D JUMP JUMPDEST DUP3 MSTORE POP POP JUMP JUMPDEST PUSH1 0x0 PUSH1 0x20 DUP3 ADD SWAP1 POP PUSH2 0x263 PUSH1 0x0 DUP4 ADD DUP5 PUSH2 0x23F JUMP JUMPDEST SWAP3 SWAP2 POP POP JUMP JUMPDEST PUSH1 0x0 DUP3 DUP3 MSTORE PUSH1 0x20 DUP3 ADD SWAP1 POP SWAP3 SWAP2 POP POP JUMP JUMPDEST PUSH32 0x696E76616C696400000000000000000000000000000000000000000000000000 PUSH1 0x0 DUP3 ADD MSTORE POP JUMP JUMPDEST PUSH1 0x0 PUSH2 0x2B0 PUSH1 0x7 DUP4 PUSH2 0x269 JUMP JUMPDEST SWAP2 POP PUSH2 0x2BB DUP3 PUSH2 0x27A JUMP JUMPDEST PUSH1 0x20 DUP3 ADD SWAP1 POP SWAP2 SWAP1 POP JUMP JUMPDEST PUSH1 0x0 PUSH1 0x20 DUP3 ADD SWAP1 POP DUP2 DUP2 SUB PUSH1 0x0 DUP4 ADD MSTORE PUSH2 0x2DF DUP2 PUSH2 0x2A3 JUMP JUMPDEST SWAP1 POP SWAP2 SWAP1 POP JUMP INVALID LOG2 PUSH5 0x6970667358 0x22 SLT KECCAK256 PUSH6 0x5B29ECBD72E4 SSTORE PUSH1 0xB1 0xAC 0xA6 0xCD 0xE5 0xB0 0xF7 0x2D CALLCODE 0x29 SGT PUSH22 0x4A22E6671E8DDCBE45696B64736F6C63430008120033 "
				},
				"gasEstimates": {
					"creation": {
						"codeDepositCost": "159200",
						"executionCost": "202",
						"totalCost": "159402"
					},
					"external": {
						"accepted()": "24409",
						"currentstatus()": "2557",
						"pending()": "26705",
						"rejected()": "24475",
						"shipped()": "24453"
					}
				},
				"methodIdentifiers": {
					"accepted()": "67fe5a0c",
					"currentstatus()": "9e14e2b9",
					"pending()": "e20ccec3",
					"rejected()": "d13b0e64",
					"shipped()": "ba446ae9"
				}
			},
			"storageLayout": {
				"storage": [
					{
						"astId": 10,
						"contract": "contracts/enum.sol:order",
						"label": "currentstatus",
						"offset": 0,
						"slot": "0",
						"type": "t_enum(status)7"
					}
				],
				"types": {
					"t_enum(status)7": {
						"encoding": "inplace",
						"label": "enum order.status",
						"numberOfBytes": "1"
					}
				}
			},
			"userdoc": {
				"kind": "user",
				"methods": {},
				"version": 1
			}
		}
	}
}