{
	"contracts/mappingName.sol": {
		"addnameMapping": {
			"abi": [
				{
					"inputs": [],
					"name": "GetAllValue",
					"outputs": [
						{
							"internalType": "string[]",
							"name": "",
							"type": "string[]"
						}
					],
					"stateMutability": "nonpayable",
					"type": "function"
				},
				{
					"inputs": [
						{
							"internalType": "string",
							"name": "name",
							"type": "string"
						}
					],
					"name": "addName",
					"outputs": [],
					"stateMutability": "nonpayable",
					"type": "function"
				},
				{
					"inputs": [
						{
							"internalType": "uint256",
							"name": "",
							"type": "uint256"
						}
					],
					"name": "myarray",
					"outputs": [
						{
							"internalType": "string",
							"name": "",
							"type": "string"
						}
					],
					"stateMutability": "view",
					"type": "function"
				},
				{
					"inputs": [
						{
							"internalType": "uint256",
							"name": "",
							"type": "uint256"
						}
					],
					"name": "mymapping",
					"outputs": [
						{
							"internalType": "string",
							"name": "",
							"type": "string"
						}
					],
					"stateMutability": "view",
					"type": "function"
				}
			],
			"devdoc": {
				"kind": "dev",
				"methods": {},
				"version": 1
			},
			"evm": {
				"assembly": "    /* \"contracts/mappingName.sol\":66:524  contract addnameMapping{... */\n  mstore(0x40, 0x80)\n  callvalue\n  dup1\n  iszero\n  tag_1\n  jumpi\n  0x00\n  dup1\n  revert\ntag_1:\n  pop\n  dataSize(sub_0)\n  dup1\n  dataOffset(sub_0)\n  0x00\n  codecopy\n  0x00\n  return\nstop\n\nsub_0: assembly {\n        /* \"contracts/mappingName.sol\":66:524  contract addnameMapping{... */\n      mstore(0x40, 0x80)\n      callvalue\n      dup1\n      iszero\n      tag_1\n      jumpi\n      0x00\n      dup1\n      revert\n    tag_1:\n      pop\n      jumpi(tag_2, lt(calldatasize, 0x04))\n      shr(0xe0, calldataload(0x00))\n      dup1\n      0x11456b47\n      eq\n      tag_3\n      jumpi\n      dup1\n      0x4a4c5cb8\n      eq\n      tag_4\n      jumpi\n      dup1\n      0xb10a4c6c\n      eq\n      tag_5\n      jumpi\n      dup1\n      0xbb58e356\n      eq\n      tag_6\n      jumpi\n    tag_2:\n      0x00\n      dup1\n      revert\n        /* \"contracts/mappingName.sol\":202:313  function addName(string memory name)public{... */\n    tag_3:\n      tag_7\n      0x04\n      dup1\n      calldatasize\n      sub\n      dup2\n      add\n      swap1\n      tag_8\n      swap2\n      swap1\n      tag_9\n      jump\t// in\n    tag_8:\n      tag_10\n      jump\t// in\n    tag_7:\n      stop\n        /* \"contracts/mappingName.sol\":321:519  function GetAllValue() public returns (string[] memory) {... */\n    tag_4:\n      tag_11\n      tag_12\n      jump\t// in\n    tag_11:\n      mload(0x40)\n      tag_13\n      swap2\n      swap1\n      tag_14\n      jump\t// in\n    tag_13:\n      mload(0x40)\n      dup1\n      swap2\n      sub\n      swap1\n      return\n        /* \"contracts/mappingName.sol\":98:122  string [] public myarray */\n    tag_5:\n      tag_15\n      0x04\n      dup1\n      calldatasize\n      sub\n      dup2\n      add\n      swap1\n      tag_16\n      swap2\n      swap1\n      tag_17\n      jump\t// in\n    tag_16:\n      tag_18\n      jump\t// in\n    tag_15:\n      mload(0x40)\n      tag_19\n      swap2\n      swap1\n      tag_20\n      jump\t// in\n    tag_19:\n      mload(0x40)\n      dup1\n      swap2\n      sub\n      swap1\n      return\n        /* \"contracts/mappingName.sol\":154:193  mapping(uint => string)public mymapping */\n    tag_6:\n      tag_21\n      0x04\n      dup1\n      calldatasize\n      sub\n      dup2\n      add\n      swap1\n      tag_22\n      swap2\n      swap1\n      tag_17\n      jump\t// in\n    tag_22:\n      tag_23\n      jump\t// in\n    tag_21:\n      mload(0x40)\n      tag_24\n      swap2\n      swap1\n      tag_20\n      jump\t// in\n    tag_24:\n      mload(0x40)\n      dup1\n      swap2\n      sub\n      swap1\n      return\n        /* \"contracts/mappingName.sol\":202:313  function addName(string memory name)public{... */\n    tag_10:\n        /* \"contracts/mappingName.sol\":258:265  counter */\n      0x01\n      0x00\n        /* \"contracts/mappingName.sol\":258:267  counter++ */\n      dup2\n      sload\n      dup1\n      swap3\n      swap2\n      swap1\n      tag_26\n      swap1\n      tag_27\n      jump\t// in\n    tag_26:\n      swap2\n      swap1\n      pop\n      sstore\n      pop\n        /* \"contracts/mappingName.sol\":299:303  name */\n      dup1\n        /* \"contracts/mappingName.sol\":278:287  mymapping */\n      0x02\n        /* \"contracts/mappingName.sol\":278:296  mymapping[counter] */\n      0x00\n        /* \"contracts/mappingName.sol\":288:295  counter */\n      sload(0x01)\n        /* \"contracts/mappingName.sol\":278:296  mymapping[counter] */\n      dup2\n      mstore\n      0x20\n      add\n      swap1\n      dup2\n      mstore\n      0x20\n      add\n      0x00\n      keccak256\n        /* \"contracts/mappingName.sol\":278:303  mymapping[counter] = name */\n      swap1\n      dup2\n      tag_28\n      swap2\n      swap1\n      tag_29\n      jump\t// in\n    tag_28:\n      pop\n        /* \"contracts/mappingName.sol\":202:313  function addName(string memory name)public{... */\n      pop\n      jump\t// out\n        /* \"contracts/mappingName.sol\":321:519  function GetAllValue() public returns (string[] memory) {... */\n    tag_12:\n        /* \"contracts/mappingName.sol\":360:375  string[] memory */\n      0x60\n        /* \"contracts/mappingName.sol\":403:409  uint i */\n      0x00\n        /* \"contracts/mappingName.sol\":412:413  1 */\n      0x01\n        /* \"contracts/mappingName.sol\":403:413  uint i = 1 */\n      swap1\n      pop\n        /* \"contracts/mappingName.sol\":398:487  for (uint i = 1; i <= counter; i++) {... */\n    tag_31:\n        /* \"contracts/mappingName.sol\":420:427  counter */\n      sload(0x01)\n        /* \"contracts/mappingName.sol\":415:416  i */\n      dup2\n        /* \"contracts/mappingName.sol\":415:427  i <= counter */\n      gt\n        /* \"contracts/mappingName.sol\":398:487  for (uint i = 1; i <= counter; i++) {... */\n      tag_32\n      jumpi\n        /* \"contracts/mappingName.sol\":449:456  myarray */\n      0x00\n        /* \"contracts/mappingName.sol\":462:471  mymapping */\n      0x02\n        /* \"contracts/mappingName.sol\":462:474  mymapping[i] */\n      0x00\n        /* \"contracts/mappingName.sol\":472:473  i */\n      dup4\n        /* \"contracts/mappingName.sol\":462:474  mymapping[i] */\n      dup2\n      mstore\n      0x20\n      add\n      swap1\n      dup2\n      mstore\n      0x20\n      add\n      0x00\n      keccak256\n        /* \"contracts/mappingName.sol\":449:475  myarray.push(mymapping[i]) */\n      swap1\n      dup1\n      0x01\n      dup2\n      sload\n      add\n      dup1\n      dup3\n      sstore\n      dup1\n      swap2\n      pop\n      pop\n      0x01\n      swap1\n      sub\n      swap1\n      0x00\n      mstore\n      keccak256(0x00, 0x20)\n      add\n      0x00\n      swap1\n      swap2\n      swap1\n      swap2\n      swap1\n      swap2\n      pop\n      swap1\n      dup2\n      tag_35\n      swap2\n      swap1\n      tag_36\n      jump\t// in\n    tag_35:\n      pop\n        /* \"contracts/mappingName.sol\":429:432  i++ */\n      dup1\n      dup1\n      tag_37\n      swap1\n      tag_27\n      jump\t// in\n    tag_37:\n      swap2\n      pop\n      pop\n        /* \"contracts/mappingName.sol\":398:487  for (uint i = 1; i <= counter; i++) {... */\n      jump(tag_31)\n    tag_32:\n      pop\n        /* \"contracts/mappingName.sol\":504:511  myarray */\n      0x00\n        /* \"contracts/mappingName.sol\":497:511  return myarray */\n      dup1\n      sload\n      dup1\n      0x20\n      mul\n      0x20\n      add\n      mload(0x40)\n      swap1\n      dup2\n      add\n      0x40\n      mstore\n      dup1\n      swap3\n      swap2\n      swap1\n      dup2\n      dup2\n      mstore\n      0x20\n      add\n      0x00\n      swap1\n    tag_38:\n      dup3\n      dup3\n      lt\n      iszero\n      tag_39\n      jumpi\n      dup4\n      dup3\n      swap1\n      0x00\n      mstore\n      keccak256(0x00, 0x20)\n      add\n      dup1\n      sload\n      tag_41\n      swap1\n      tag_42\n      jump\t// in\n    tag_41:\n      dup1\n      0x1f\n      add\n      0x20\n      dup1\n      swap2\n      div\n      mul\n      0x20\n      add\n      mload(0x40)\n      swap1\n      dup2\n      add\n      0x40\n      mstore\n      dup1\n      swap3\n      swap2\n      swap1\n      dup2\n      dup2\n      mstore\n      0x20\n      add\n      dup3\n      dup1\n      sload\n      tag_43\n      swap1\n      tag_42\n      jump\t// in\n    tag_43:\n      dup1\n      iszero\n      tag_44\n      jumpi\n      dup1\n      0x1f\n      lt\n      tag_45\n      jumpi\n      0x0100\n      dup1\n      dup4\n      sload\n      div\n      mul\n      dup4\n      mstore\n      swap2\n      0x20\n      add\n      swap2\n      jump(tag_44)\n    tag_45:\n      dup3\n      add\n      swap2\n      swap1\n      0x00\n      mstore\n      keccak256(0x00, 0x20)\n      swap1\n    tag_46:\n      dup2\n      sload\n      dup2\n      mstore\n      swap1\n      0x01\n      add\n      swap1\n      0x20\n      add\n      dup1\n      dup4\n      gt\n      tag_46\n      jumpi\n      dup3\n      swap1\n      sub\n      0x1f\n      and\n      dup3\n      add\n      swap2\n    tag_44:\n      pop\n      pop\n      pop\n      pop\n      pop\n      dup2\n      mstore\n      0x20\n      add\n      swap1\n      0x01\n      add\n      swap1\n      jump(tag_38)\n    tag_39:\n      pop\n      pop\n      pop\n      pop\n      swap1\n      pop\n        /* \"contracts/mappingName.sol\":321:519  function GetAllValue() public returns (string[] memory) {... */\n      swap1\n      jump\t// out\n        /* \"contracts/mappingName.sol\":98:122  string [] public myarray */\n    tag_18:\n      0x00\n      dup2\n      dup2\n      sload\n      dup2\n      lt\n      tag_47\n      jumpi\n      0x00\n      dup1\n      revert\n    tag_47:\n      swap1\n      0x00\n      mstore\n      keccak256(0x00, 0x20)\n      add\n      0x00\n      swap2\n      pop\n      swap1\n      pop\n      dup1\n      sload\n      tag_49\n      swap1\n      tag_42\n      jump\t// in\n    tag_49:\n      dup1\n      0x1f\n      add\n      0x20\n      dup1\n      swap2\n      div\n      mul\n      0x20\n      add\n      mload(0x40)\n      swap1\n      dup2\n      add\n      0x40\n      mstore\n      dup1\n      swap3\n      swap2\n      swap1\n      dup2\n      dup2\n      mstore\n      0x20\n      add\n      dup3\n      dup1\n      sload\n      tag_50\n      swap1\n      tag_42\n      jump\t// in\n    tag_50:\n      dup1\n      iszero\n      tag_51\n      jumpi\n      dup1\n      0x1f\n      lt\n      tag_52\n      jumpi\n      0x0100\n      dup1\n      dup4\n      sload\n      div\n      mul\n      dup4\n      mstore\n      swap2\n      0x20\n      add\n      swap2\n      jump(tag_51)\n    tag_52:\n      dup3\n      add\n      swap2\n      swap1\n      0x00\n      mstore\n      keccak256(0x00, 0x20)\n      swap1\n    tag_53:\n      dup2\n      sload\n      dup2\n      mstore\n      swap1\n      0x01\n      add\n      swap1\n      0x20\n      add\n      dup1\n      dup4\n      gt\n      tag_53\n      jumpi\n      dup3\n      swap1\n      sub\n      0x1f\n      and\n      dup3\n      add\n      swap2\n    tag_51:\n      pop\n      pop\n      pop\n      pop\n      pop\n      dup2\n      jump\t// out\n        /* \"contracts/mappingName.sol\":154:193  mapping(uint => string)public mymapping */\n    tag_23:\n      mstore(0x20, 0x02)\n      dup1\n      0x00\n      mstore\n      keccak256(0x00, 0x40)\n      0x00\n      swap2\n      pop\n      swap1\n      pop\n      dup1\n      sload\n      tag_54\n      swap1\n      tag_42\n      jump\t// in\n    tag_54:\n      dup1\n      0x1f\n      add\n      0x20\n      dup1\n      swap2\n      div\n      mul\n      0x20\n      add\n      mload(0x40)\n      swap1\n      dup2\n      add\n      0x40\n      mstore\n      dup1\n      swap3\n      swap2\n      swap1\n      dup2\n      dup2\n      mstore\n      0x20\n      add\n      dup3\n      dup1\n      sload\n      tag_55\n      swap1\n      tag_42\n      jump\t// in\n    tag_55:\n      dup1\n      iszero\n      tag_56\n      jumpi\n      dup1\n      0x1f\n      lt\n      tag_57\n      jumpi\n      0x0100\n      dup1\n      dup4\n      sload\n      div\n      mul\n      dup4\n      mstore\n      swap2\n      0x20\n      add\n      swap2\n      jump(tag_56)\n    tag_57:\n      dup3\n      add\n      swap2\n      swap1\n      0x00\n      mstore\n      keccak256(0x00, 0x20)\n      swap1\n    tag_58:\n      dup2\n      sload\n      dup2\n      mstore\n      swap1\n      0x01\n      add\n      swap1\n      0x20\n      add\n      dup1\n      dup4\n      gt\n      tag_58\n      jumpi\n      dup3\n      swap1\n      sub\n      0x1f\n      and\n      dup3\n      add\n      swap2\n    tag_56:\n      pop\n      pop\n      pop\n      pop\n      pop\n      dup2\n      jump\t// out\n        /* \"#utility.yul\":7:82   */\n    tag_59:\n        /* \"#utility.yul\":40:46   */\n      0x00\n        /* \"#utility.yul\":73:75   */\n      0x40\n        /* \"#utility.yul\":67:76   */\n      mload\n        /* \"#utility.yul\":57:76   */\n      swap1\n      pop\n        /* \"#utility.yul\":7:82   */\n      swap1\n      jump\t// out\n        /* \"#utility.yul\":88:205   */\n    tag_60:\n        /* \"#utility.yul\":197:198   */\n      0x00\n        /* \"#utility.yul\":194:195   */\n      dup1\n        /* \"#utility.yul\":187:199   */\n      revert\n        /* \"#utility.yul\":211:328   */\n    tag_61:\n        /* \"#utility.yul\":320:321   */\n      0x00\n        /* \"#utility.yul\":317:318   */\n      dup1\n        /* \"#utility.yul\":310:322   */\n      revert\n        /* \"#utility.yul\":334:451   */\n    tag_62:\n        /* \"#utility.yul\":443:444   */\n      0x00\n        /* \"#utility.yul\":440:441   */\n      dup1\n        /* \"#utility.yul\":433:445   */\n      revert\n        /* \"#utility.yul\":457:574   */\n    tag_63:\n        /* \"#utility.yul\":566:567   */\n      0x00\n        /* \"#utility.yul\":563:564   */\n      dup1\n        /* \"#utility.yul\":556:568   */\n      revert\n        /* \"#utility.yul\":580:682   */\n    tag_64:\n        /* \"#utility.yul\":621:627   */\n      0x00\n        /* \"#utility.yul\":672:674   */\n      0x1f\n        /* \"#utility.yul\":668:675   */\n      not\n        /* \"#utility.yul\":663:665   */\n      0x1f\n        /* \"#utility.yul\":656:661   */\n      dup4\n        /* \"#utility.yul\":652:666   */\n      add\n        /* \"#utility.yul\":648:676   */\n      and\n        /* \"#utility.yul\":638:676   */\n      swap1\n      pop\n        /* \"#utility.yul\":580:682   */\n      swap2\n      swap1\n      pop\n      jump\t// out\n        /* \"#utility.yul\":688:868   */\n    tag_65:\n        /* \"#utility.yul\":736:813   */\n      0x4e487b7100000000000000000000000000000000000000000000000000000000\n        /* \"#utility.yul\":733:734   */\n      0x00\n        /* \"#utility.yul\":726:814   */\n      mstore\n        /* \"#utility.yul\":833:837   */\n      0x41\n        /* \"#utility.yul\":830:831   */\n      0x04\n        /* \"#utility.yul\":823:838   */\n      mstore\n        /* \"#utility.yul\":857:861   */\n      0x24\n        /* \"#utility.yul\":854:855   */\n      0x00\n        /* \"#utility.yul\":847:862   */\n      revert\n        /* \"#utility.yul\":874:1155   */\n    tag_66:\n        /* \"#utility.yul\":957:984   */\n      tag_115\n        /* \"#utility.yul\":979:983   */\n      dup3\n        /* \"#utility.yul\":957:984   */\n      tag_64\n      jump\t// in\n    tag_115:\n        /* \"#utility.yul\":949:955   */\n      dup2\n        /* \"#utility.yul\":945:985   */\n      add\n        /* \"#utility.yul\":1087:1093   */\n      dup2\n        /* \"#utility.yul\":1075:1085   */\n      dup2\n        /* \"#utility.yul\":1072:1094   */\n      lt\n        /* \"#utility.yul\":1051:1069   */\n      0xffffffffffffffff\n        /* \"#utility.yul\":1039:1049   */\n      dup3\n        /* \"#utility.yul\":1036:1070   */\n      gt\n        /* \"#utility.yul\":1033:1095   */\n      or\n        /* \"#utility.yul\":1030:1118   */\n      iszero\n      tag_116\n      jumpi\n        /* \"#utility.yul\":1098:1116   */\n      tag_117\n      tag_65\n      jump\t// in\n    tag_117:\n        /* \"#utility.yul\":1030:1118   */\n    tag_116:\n        /* \"#utility.yul\":1138:1148   */\n      dup1\n        /* \"#utility.yul\":1134:1136   */\n      0x40\n        /* \"#utility.yul\":1127:1149   */\n      mstore\n        /* \"#utility.yul\":917:1155   */\n      pop\n        /* \"#utility.yul\":874:1155   */\n      pop\n      pop\n      jump\t// out\n        /* \"#utility.yul\":1161:1290   */\n    tag_67:\n        /* \"#utility.yul\":1195:1201   */\n      0x00\n        /* \"#utility.yul\":1222:1242   */\n      tag_119\n      tag_59\n      jump\t// in\n    tag_119:\n        /* \"#utility.yul\":1212:1242   */\n      swap1\n      pop\n        /* \"#utility.yul\":1251:1284   */\n      tag_120\n        /* \"#utility.yul\":1279:1283   */\n      dup3\n        /* \"#utility.yul\":1271:1277   */\n      dup3\n        /* \"#utility.yul\":1251:1284   */\n      tag_66\n      jump\t// in\n    tag_120:\n        /* \"#utility.yul\":1161:1290   */\n      swap2\n      swap1\n      pop\n      jump\t// out\n        /* \"#utility.yul\":1296:1604   */\n    tag_68:\n        /* \"#utility.yul\":1358:1362   */\n      0x00\n        /* \"#utility.yul\":1448:1466   */\n      0xffffffffffffffff\n        /* \"#utility.yul\":1440:1446   */\n      dup3\n        /* \"#utility.yul\":1437:1467   */\n      gt\n        /* \"#utility.yul\":1434:1490   */\n      iszero\n      tag_122\n      jumpi\n        /* \"#utility.yul\":1470:1488   */\n      tag_123\n      tag_65\n      jump\t// in\n    tag_123:\n        /* \"#utility.yul\":1434:1490   */\n    tag_122:\n        /* \"#utility.yul\":1508:1537   */\n      tag_124\n        /* \"#utility.yul\":1530:1536   */\n      dup3\n        /* \"#utility.yul\":1508:1537   */\n      tag_64\n      jump\t// in\n    tag_124:\n        /* \"#utility.yul\":1500:1537   */\n      swap1\n      pop\n        /* \"#utility.yul\":1592:1596   */\n      0x20\n        /* \"#utility.yul\":1586:1590   */\n      dup2\n        /* \"#utility.yul\":1582:1597   */\n      add\n        /* \"#utility.yul\":1574:1597   */\n      swap1\n      pop\n        /* \"#utility.yul\":1296:1604   */\n      swap2\n      swap1\n      pop\n      jump\t// out\n        /* \"#utility.yul\":1610:1756   */\n    tag_69:\n        /* \"#utility.yul\":1707:1713   */\n      dup3\n        /* \"#utility.yul\":1702:1705   */\n      dup2\n        /* \"#utility.yul\":1697:1700   */\n      dup4\n        /* \"#utility.yul\":1684:1714   */\n      calldatacopy\n        /* \"#utility.yul\":1748:1749   */\n      0x00\n        /* \"#utility.yul\":1739:1745   */\n      dup4\n        /* \"#utility.yul\":1734:1737   */\n      dup4\n        /* \"#utility.yul\":1730:1746   */\n      add\n        /* \"#utility.yul\":1723:1750   */\n      mstore\n        /* \"#utility.yul\":1610:1756   */\n      pop\n      pop\n      pop\n      jump\t// out\n        /* \"#utility.yul\":1762:2187   */\n    tag_70:\n        /* \"#utility.yul\":1840:1845   */\n      0x00\n        /* \"#utility.yul\":1865:1931   */\n      tag_127\n        /* \"#utility.yul\":1881:1930   */\n      tag_128\n        /* \"#utility.yul\":1923:1929   */\n      dup5\n        /* \"#utility.yul\":1881:1930   */\n      tag_68\n      jump\t// in\n    tag_128:\n        /* \"#utility.yul\":1865:1931   */\n      tag_67\n      jump\t// in\n    tag_127:\n        /* \"#utility.yul\":1856:1931   */\n      swap1\n      pop\n        /* \"#utility.yul\":1954:1960   */\n      dup3\n        /* \"#utility.yul\":1947:1952   */\n      dup2\n        /* \"#utility.yul\":1940:1961   */\n      mstore\n        /* \"#utility.yul\":1992:1996   */\n      0x20\n        /* \"#utility.yul\":1985:1990   */\n      dup2\n        /* \"#utility.yul\":1981:1997   */\n      add\n        /* \"#utility.yul\":2030:2033   */\n      dup5\n        /* \"#utility.yul\":2021:2027   */\n      dup5\n        /* \"#utility.yul\":2016:2019   */\n      dup5\n        /* \"#utility.yul\":2012:2028   */\n      add\n        /* \"#utility.yul\":2009:2034   */\n      gt\n        /* \"#utility.yul\":2006:2118   */\n      iszero\n      tag_129\n      jumpi\n        /* \"#utility.yul\":2037:2116   */\n      tag_130\n      tag_63\n      jump\t// in\n    tag_130:\n        /* \"#utility.yul\":2006:2118   */\n    tag_129:\n        /* \"#utility.yul\":2127:2181   */\n      tag_131\n        /* \"#utility.yul\":2174:2180   */\n      dup5\n        /* \"#utility.yul\":2169:2172   */\n      dup3\n        /* \"#utility.yul\":2164:2167   */\n      dup6\n        /* \"#utility.yul\":2127:2181   */\n      tag_69\n      jump\t// in\n    tag_131:\n        /* \"#utility.yul\":1846:2187   */\n      pop\n        /* \"#utility.yul\":1762:2187   */\n      swap4\n      swap3\n      pop\n      pop\n      pop\n      jump\t// out\n        /* \"#utility.yul\":2207:2547   */\n    tag_71:\n        /* \"#utility.yul\":2263:2268   */\n      0x00\n        /* \"#utility.yul\":2312:2315   */\n      dup3\n        /* \"#utility.yul\":2305:2309   */\n      0x1f\n        /* \"#utility.yul\":2297:2303   */\n      dup4\n        /* \"#utility.yul\":2293:2310   */\n      add\n        /* \"#utility.yul\":2289:2316   */\n      slt\n        /* \"#utility.yul\":2279:2401   */\n      tag_133\n      jumpi\n        /* \"#utility.yul\":2320:2399   */\n      tag_134\n      tag_62\n      jump\t// in\n    tag_134:\n        /* \"#utility.yul\":2279:2401   */\n    tag_133:\n        /* \"#utility.yul\":2437:2443   */\n      dup2\n        /* \"#utility.yul\":2424:2444   */\n      calldataload\n        /* \"#utility.yul\":2462:2541   */\n      tag_135\n        /* \"#utility.yul\":2537:2540   */\n      dup5\n        /* \"#utility.yul\":2529:2535   */\n      dup3\n        /* \"#utility.yul\":2522:2526   */\n      0x20\n        /* \"#utility.yul\":2514:2520   */\n      dup7\n        /* \"#utility.yul\":2510:2527   */\n      add\n        /* \"#utility.yul\":2462:2541   */\n      tag_70\n      jump\t// in\n    tag_135:\n        /* \"#utility.yul\":2453:2541   */\n      swap2\n      pop\n        /* \"#utility.yul\":2269:2547   */\n      pop\n        /* \"#utility.yul\":2207:2547   */\n      swap3\n      swap2\n      pop\n      pop\n      jump\t// out\n        /* \"#utility.yul\":2553:3062   */\n    tag_9:\n        /* \"#utility.yul\":2622:2628   */\n      0x00\n        /* \"#utility.yul\":2671:2673   */\n      0x20\n        /* \"#utility.yul\":2659:2668   */\n      dup3\n        /* \"#utility.yul\":2650:2657   */\n      dup5\n        /* \"#utility.yul\":2646:2669   */\n      sub\n        /* \"#utility.yul\":2642:2674   */\n      slt\n        /* \"#utility.yul\":2639:2758   */\n      iszero\n      tag_137\n      jumpi\n        /* \"#utility.yul\":2677:2756   */\n      tag_138\n      tag_60\n      jump\t// in\n    tag_138:\n        /* \"#utility.yul\":2639:2758   */\n    tag_137:\n        /* \"#utility.yul\":2825:2826   */\n      0x00\n        /* \"#utility.yul\":2814:2823   */\n      dup3\n        /* \"#utility.yul\":2810:2827   */\n      add\n        /* \"#utility.yul\":2797:2828   */\n      calldataload\n        /* \"#utility.yul\":2855:2873   */\n      0xffffffffffffffff\n        /* \"#utility.yul\":2847:2853   */\n      dup2\n        /* \"#utility.yul\":2844:2874   */\n      gt\n        /* \"#utility.yul\":2841:2958   */\n      iszero\n      tag_139\n      jumpi\n        /* \"#utility.yul\":2877:2956   */\n      tag_140\n      tag_61\n      jump\t// in\n    tag_140:\n        /* \"#utility.yul\":2841:2958   */\n    tag_139:\n        /* \"#utility.yul\":2982:3045   */\n      tag_141\n        /* \"#utility.yul\":3037:3044   */\n      dup5\n        /* \"#utility.yul\":3028:3034   */\n      dup3\n        /* \"#utility.yul\":3017:3026   */\n      dup6\n        /* \"#utility.yul\":3013:3035   */\n      add\n        /* \"#utility.yul\":2982:3045   */\n      tag_71\n      jump\t// in\n    tag_141:\n        /* \"#utility.yul\":2972:3045   */\n      swap2\n      pop\n        /* \"#utility.yul\":2768:3055   */\n      pop\n        /* \"#utility.yul\":2553:3062   */\n      swap3\n      swap2\n      pop\n      pop\n      jump\t// out\n        /* \"#utility.yul\":3068:3192   */\n    tag_72:\n        /* \"#utility.yul\":3145:3151   */\n      0x00\n        /* \"#utility.yul\":3179:3184   */\n      dup2\n        /* \"#utility.yul\":3173:3185   */\n      mload\n        /* \"#utility.yul\":3163:3185   */\n      swap1\n      pop\n        /* \"#utility.yul\":3068:3192   */\n      swap2\n      swap1\n      pop\n      jump\t// out\n        /* \"#utility.yul\":3198:3392   */\n    tag_73:\n        /* \"#utility.yul\":3307:3318   */\n      0x00\n        /* \"#utility.yul\":3341:3347   */\n      dup3\n        /* \"#utility.yul\":3336:3339   */\n      dup3\n        /* \"#utility.yul\":3329:3348   */\n      mstore\n        /* \"#utility.yul\":3381:3385   */\n      0x20\n        /* \"#utility.yul\":3376:3379   */\n      dup3\n        /* \"#utility.yul\":3372:3386   */\n      add\n        /* \"#utility.yul\":3357:3386   */\n      swap1\n      pop\n        /* \"#utility.yul\":3198:3392   */\n      swap3\n      swap2\n      pop\n      pop\n      jump\t// out\n        /* \"#utility.yul\":3398:3540   */\n    tag_74:\n        /* \"#utility.yul\":3475:3479   */\n      0x00\n        /* \"#utility.yul\":3498:3501   */\n      dup2\n        /* \"#utility.yul\":3490:3501   */\n      swap1\n      pop\n        /* \"#utility.yul\":3528:3532   */\n      0x20\n        /* \"#utility.yul\":3523:3526   */\n      dup3\n        /* \"#utility.yul\":3519:3533   */\n      add\n        /* \"#utility.yul\":3511:3533   */\n      swap1\n      pop\n        /* \"#utility.yul\":3398:3540   */\n      swap2\n      swap1\n      pop\n      jump\t// out\n        /* \"#utility.yul\":3546:3645   */\n    tag_75:\n        /* \"#utility.yul\":3598:3604   */\n      0x00\n        /* \"#utility.yul\":3632:3637   */\n      dup2\n        /* \"#utility.yul\":3626:3638   */\n      mload\n        /* \"#utility.yul\":3616:3638   */\n      swap1\n      pop\n        /* \"#utility.yul\":3546:3645   */\n      swap2\n      swap1\n      pop\n      jump\t// out\n        /* \"#utility.yul\":3651:3810   */\n    tag_76:\n        /* \"#utility.yul\":3725:3736   */\n      0x00\n        /* \"#utility.yul\":3759:3765   */\n      dup3\n        /* \"#utility.yul\":3754:3757   */\n      dup3\n        /* \"#utility.yul\":3747:3766   */\n      mstore\n        /* \"#utility.yul\":3799:3803   */\n      0x20\n        /* \"#utility.yul\":3794:3797   */\n      dup3\n        /* \"#utility.yul\":3790:3804   */\n      add\n        /* \"#utility.yul\":3775:3804   */\n      swap1\n      pop\n        /* \"#utility.yul\":3651:3810   */\n      swap3\n      swap2\n      pop\n      pop\n      jump\t// out\n        /* \"#utility.yul\":3816:4062   */\n    tag_77:\n        /* \"#utility.yul\":3897:3898   */\n      0x00\n        /* \"#utility.yul\":3907:4020   */\n    tag_148:\n        /* \"#utility.yul\":3921:3927   */\n      dup4\n        /* \"#utility.yul\":3918:3919   */\n      dup2\n        /* \"#utility.yul\":3915:3928   */\n      lt\n        /* \"#utility.yul\":3907:4020   */\n      iszero\n      tag_150\n      jumpi\n        /* \"#utility.yul\":4006:4007   */\n      dup1\n        /* \"#utility.yul\":4001:4004   */\n      dup3\n        /* \"#utility.yul\":3997:4008   */\n      add\n        /* \"#utility.yul\":3991:4009   */\n      mload\n        /* \"#utility.yul\":3987:3988   */\n      dup2\n        /* \"#utility.yul\":3982:3985   */\n      dup5\n        /* \"#utility.yul\":3978:3989   */\n      add\n        /* \"#utility.yul\":3971:4010   */\n      mstore\n        /* \"#utility.yul\":3943:3945   */\n      0x20\n        /* \"#utility.yul\":3940:3941   */\n      dup2\n        /* \"#utility.yul\":3936:3946   */\n      add\n        /* \"#utility.yul\":3931:3946   */\n      swap1\n      pop\n        /* \"#utility.yul\":3907:4020   */\n      jump(tag_148)\n    tag_150:\n        /* \"#utility.yul\":4054:4055   */\n      0x00\n        /* \"#utility.yul\":4045:4051   */\n      dup5\n        /* \"#utility.yul\":4040:4043   */\n      dup5\n        /* \"#utility.yul\":4036:4052   */\n      add\n        /* \"#utility.yul\":4029:4056   */\n      mstore\n        /* \"#utility.yul\":3878:4062   */\n      pop\n        /* \"#utility.yul\":3816:4062   */\n      pop\n      pop\n      pop\n      jump\t// out\n        /* \"#utility.yul\":4068:4425   */\n    tag_78:\n        /* \"#utility.yul\":4146:4149   */\n      0x00\n        /* \"#utility.yul\":4174:4213   */\n      tag_152\n        /* \"#utility.yul\":4207:4212   */\n      dup3\n        /* \"#utility.yul\":4174:4213   */\n      tag_75\n      jump\t// in\n    tag_152:\n        /* \"#utility.yul\":4229:4290   */\n      tag_153\n        /* \"#utility.yul\":4283:4289   */\n      dup2\n        /* \"#utility.yul\":4278:4281   */\n      dup6\n        /* \"#utility.yul\":4229:4290   */\n      tag_76\n      jump\t// in\n    tag_153:\n        /* \"#utility.yul\":4222:4290   */\n      swap4\n      pop\n        /* \"#utility.yul\":4299:4364   */\n      tag_154\n        /* \"#utility.yul\":4357:4363   */\n      dup2\n        /* \"#utility.yul\":4352:4355   */\n      dup6\n        /* \"#utility.yul\":4345:4349   */\n      0x20\n        /* \"#utility.yul\":4338:4343   */\n      dup7\n        /* \"#utility.yul\":4334:4350   */\n      add\n        /* \"#utility.yul\":4299:4364   */\n      tag_77\n      jump\t// in\n    tag_154:\n        /* \"#utility.yul\":4389:4418   */\n      tag_155\n        /* \"#utility.yul\":4411:4417   */\n      dup2\n        /* \"#utility.yul\":4389:4418   */\n      tag_64\n      jump\t// in\n    tag_155:\n        /* \"#utility.yul\":4384:4387   */\n      dup5\n        /* \"#utility.yul\":4380:4419   */\n      add\n        /* \"#utility.yul\":4373:4419   */\n      swap2\n      pop\n        /* \"#utility.yul\":4150:4425   */\n      pop\n        /* \"#utility.yul\":4068:4425   */\n      swap3\n      swap2\n      pop\n      pop\n      jump\t// out\n        /* \"#utility.yul\":4431:4627   */\n    tag_79:\n        /* \"#utility.yul\":4520:4530   */\n      0x00\n        /* \"#utility.yul\":4555:4621   */\n      tag_157\n        /* \"#utility.yul\":4617:4620   */\n      dup4\n        /* \"#utility.yul\":4609:4615   */\n      dup4\n        /* \"#utility.yul\":4555:4621   */\n      tag_78\n      jump\t// in\n    tag_157:\n        /* \"#utility.yul\":4541:4621   */\n      swap1\n      pop\n        /* \"#utility.yul\":4431:4627   */\n      swap3\n      swap2\n      pop\n      pop\n      jump\t// out\n        /* \"#utility.yul\":4633:4756   */\n    tag_80:\n        /* \"#utility.yul\":4713:4717   */\n      0x00\n        /* \"#utility.yul\":4745:4749   */\n      0x20\n        /* \"#utility.yul\":4740:4743   */\n      dup3\n        /* \"#utility.yul\":4736:4750   */\n      add\n        /* \"#utility.yul\":4728:4750   */\n      swap1\n      pop\n        /* \"#utility.yul\":4633:4756   */\n      swap2\n      swap1\n      pop\n      jump\t// out\n        /* \"#utility.yul\":4790:5781   */\n    tag_81:\n        /* \"#utility.yul\":4929:4932   */\n      0x00\n        /* \"#utility.yul\":4958:5022   */\n      tag_160\n        /* \"#utility.yul\":5016:5021   */\n      dup3\n        /* \"#utility.yul\":4958:5022   */\n      tag_72\n      jump\t// in\n    tag_160:\n        /* \"#utility.yul\":5038:5134   */\n      tag_161\n        /* \"#utility.yul\":5127:5133   */\n      dup2\n        /* \"#utility.yul\":5122:5125   */\n      dup6\n        /* \"#utility.yul\":5038:5134   */\n      tag_73\n      jump\t// in\n    tag_161:\n        /* \"#utility.yul\":5031:5134   */\n      swap4\n      pop\n        /* \"#utility.yul\":5160:5163   */\n      dup4\n        /* \"#utility.yul\":5205:5209   */\n      0x20\n        /* \"#utility.yul\":5197:5203   */\n      dup3\n        /* \"#utility.yul\":5193:5210   */\n      mul\n        /* \"#utility.yul\":5188:5191   */\n      dup6\n        /* \"#utility.yul\":5184:5211   */\n      add\n        /* \"#utility.yul\":5235:5301   */\n      tag_162\n        /* \"#utility.yul\":5295:5300   */\n      dup6\n        /* \"#utility.yul\":5235:5301   */\n      tag_74\n      jump\t// in\n    tag_162:\n        /* \"#utility.yul\":5324:5331   */\n      dup1\n        /* \"#utility.yul\":5355:5356   */\n      0x00\n        /* \"#utility.yul\":5340:5736   */\n    tag_163:\n        /* \"#utility.yul\":5365:5371   */\n      dup6\n        /* \"#utility.yul\":5362:5363   */\n      dup2\n        /* \"#utility.yul\":5359:5372   */\n      lt\n        /* \"#utility.yul\":5340:5736   */\n      iszero\n      tag_165\n      jumpi\n        /* \"#utility.yul\":5436:5445   */\n      dup5\n        /* \"#utility.yul\":5430:5434   */\n      dup5\n        /* \"#utility.yul\":5426:5446   */\n      sub\n        /* \"#utility.yul\":5421:5424   */\n      dup10\n        /* \"#utility.yul\":5414:5447   */\n      mstore\n        /* \"#utility.yul\":5487:5493   */\n      dup2\n        /* \"#utility.yul\":5481:5494   */\n      mload\n        /* \"#utility.yul\":5515:5599   */\n      tag_166\n        /* \"#utility.yul\":5594:5598   */\n      dup6\n        /* \"#utility.yul\":5579:5592   */\n      dup3\n        /* \"#utility.yul\":5515:5599   */\n      tag_79\n      jump\t// in\n    tag_166:\n        /* \"#utility.yul\":5507:5599   */\n      swap5\n      pop\n        /* \"#utility.yul\":5622:5692   */\n      tag_167\n        /* \"#utility.yul\":5685:5691   */\n      dup4\n        /* \"#utility.yul\":5622:5692   */\n      tag_80\n      jump\t// in\n    tag_167:\n        /* \"#utility.yul\":5612:5692   */\n      swap3\n      pop\n        /* \"#utility.yul\":5721:5725   */\n      0x20\n        /* \"#utility.yul\":5716:5719   */\n      dup11\n        /* \"#utility.yul\":5712:5726   */\n      add\n        /* \"#utility.yul\":5705:5726   */\n      swap10\n      pop\n        /* \"#utility.yul\":5400:5736   */\n      pop\n        /* \"#utility.yul\":5387:5388   */\n      0x01\n        /* \"#utility.yul\":5384:5385   */\n      dup2\n        /* \"#utility.yul\":5380:5389   */\n      add\n        /* \"#utility.yul\":5375:5389   */\n      swap1\n      pop\n        /* \"#utility.yul\":5340:5736   */\n      jump(tag_163)\n    tag_165:\n        /* \"#utility.yul\":5344:5358   */\n      pop\n        /* \"#utility.yul\":5752:5756   */\n      dup3\n        /* \"#utility.yul\":5745:5756   */\n      swap8\n      pop\n        /* \"#utility.yul\":5772:5775   */\n      dup8\n        /* \"#utility.yul\":5765:5775   */\n      swap6\n      pop\n        /* \"#utility.yul\":4934:5781   */\n      pop\n      pop\n      pop\n      pop\n      pop\n        /* \"#utility.yul\":4790:5781   */\n      swap3\n      swap2\n      pop\n      pop\n      jump\t// out\n        /* \"#utility.yul\":5787:6200   */\n    tag_14:\n        /* \"#utility.yul\":5950:5954   */\n      0x00\n        /* \"#utility.yul\":5988:5990   */\n      0x20\n        /* \"#utility.yul\":5977:5986   */\n      dup3\n        /* \"#utility.yul\":5973:5991   */\n      add\n        /* \"#utility.yul\":5965:5991   */\n      swap1\n      pop\n        /* \"#utility.yul\":6037:6046   */\n      dup2\n        /* \"#utility.yul\":6031:6035   */\n      dup2\n        /* \"#utility.yul\":6027:6047   */\n      sub\n        /* \"#utility.yul\":6023:6024   */\n      0x00\n        /* \"#utility.yul\":6012:6021   */\n      dup4\n        /* \"#utility.yul\":6008:6025   */\n      add\n        /* \"#utility.yul\":6001:6048   */\n      mstore\n        /* \"#utility.yul\":6065:6193   */\n      tag_169\n        /* \"#utility.yul\":6188:6192   */\n      dup2\n        /* \"#utility.yul\":6179:6185   */\n      dup5\n        /* \"#utility.yul\":6065:6193   */\n      tag_81\n      jump\t// in\n    tag_169:\n        /* \"#utility.yul\":6057:6193   */\n      swap1\n      pop\n        /* \"#utility.yul\":5787:6200   */\n      swap3\n      swap2\n      pop\n      pop\n      jump\t// out\n        /* \"#utility.yul\":6206:6283   */\n    tag_82:\n        /* \"#utility.yul\":6243:6250   */\n      0x00\n        /* \"#utility.yul\":6272:6277   */\n      dup2\n        /* \"#utility.yul\":6261:6277   */\n      swap1\n      pop\n        /* \"#utility.yul\":6206:6283   */\n      swap2\n      swap1\n      pop\n      jump\t// out\n        /* \"#utility.yul\":6289:6411   */\n    tag_83:\n        /* \"#utility.yul\":6362:6386   */\n      tag_172\n        /* \"#utility.yul\":6380:6385   */\n      dup2\n        /* \"#utility.yul\":6362:6386   */\n      tag_82\n      jump\t// in\n    tag_172:\n        /* \"#utility.yul\":6355:6360   */\n      dup2\n        /* \"#utility.yul\":6352:6387   */\n      eq\n        /* \"#utility.yul\":6342:6405   */\n      tag_173\n      jumpi\n        /* \"#utility.yul\":6401:6402   */\n      0x00\n        /* \"#utility.yul\":6398:6399   */\n      dup1\n        /* \"#utility.yul\":6391:6403   */\n      revert\n        /* \"#utility.yul\":6342:6405   */\n    tag_173:\n        /* \"#utility.yul\":6289:6411   */\n      pop\n      jump\t// out\n        /* \"#utility.yul\":6417:6556   */\n    tag_84:\n        /* \"#utility.yul\":6463:6468   */\n      0x00\n        /* \"#utility.yul\":6501:6507   */\n      dup2\n        /* \"#utility.yul\":6488:6508   */\n      calldataload\n        /* \"#utility.yul\":6479:6508   */\n      swap1\n      pop\n        /* \"#utility.yul\":6517:6550   */\n      tag_175\n        /* \"#utility.yul\":6544:6549   */\n      dup2\n        /* \"#utility.yul\":6517:6550   */\n      tag_83\n      jump\t// in\n    tag_175:\n        /* \"#utility.yul\":6417:6556   */\n      swap3\n      swap2\n      pop\n      pop\n      jump\t// out\n        /* \"#utility.yul\":6562:6891   */\n    tag_17:\n        /* \"#utility.yul\":6621:6627   */\n      0x00\n        /* \"#utility.yul\":6670:6672   */\n      0x20\n        /* \"#utility.yul\":6658:6667   */\n      dup3\n        /* \"#utility.yul\":6649:6656   */\n      dup5\n        /* \"#utility.yul\":6645:6668   */\n      sub\n        /* \"#utility.yul\":6641:6673   */\n      slt\n        /* \"#utility.yul\":6638:6757   */\n      iszero\n      tag_177\n      jumpi\n        /* \"#utility.yul\":6676:6755   */\n      tag_178\n      tag_60\n      jump\t// in\n    tag_178:\n        /* \"#utility.yul\":6638:6757   */\n    tag_177:\n        /* \"#utility.yul\":6796:6797   */\n      0x00\n        /* \"#utility.yul\":6821:6874   */\n      tag_179\n        /* \"#utility.yul\":6866:6873   */\n      dup5\n        /* \"#utility.yul\":6857:6863   */\n      dup3\n        /* \"#utility.yul\":6846:6855   */\n      dup6\n        /* \"#utility.yul\":6842:6864   */\n      add\n        /* \"#utility.yul\":6821:6874   */\n      tag_84\n      jump\t// in\n    tag_179:\n        /* \"#utility.yul\":6811:6874   */\n      swap2\n      pop\n        /* \"#utility.yul\":6767:6884   */\n      pop\n        /* \"#utility.yul\":6562:6891   */\n      swap3\n      swap2\n      pop\n      pop\n      jump\t// out\n        /* \"#utility.yul\":6897:7066   */\n    tag_85:\n        /* \"#utility.yul\":6981:6992   */\n      0x00\n        /* \"#utility.yul\":7015:7021   */\n      dup3\n        /* \"#utility.yul\":7010:7013   */\n      dup3\n        /* \"#utility.yul\":7003:7022   */\n      mstore\n        /* \"#utility.yul\":7055:7059   */\n      0x20\n        /* \"#utility.yul\":7050:7053   */\n      dup3\n        /* \"#utility.yul\":7046:7060   */\n      add\n        /* \"#utility.yul\":7031:7060   */\n      swap1\n      pop\n        /* \"#utility.yul\":6897:7066   */\n      swap3\n      swap2\n      pop\n      pop\n      jump\t// out\n        /* \"#utility.yul\":7072:7449   */\n    tag_86:\n        /* \"#utility.yul\":7160:7163   */\n      0x00\n        /* \"#utility.yul\":7188:7227   */\n      tag_182\n        /* \"#utility.yul\":7221:7226   */\n      dup3\n        /* \"#utility.yul\":7188:7227   */\n      tag_75\n      jump\t// in\n    tag_182:\n        /* \"#utility.yul\":7243:7314   */\n      tag_183\n        /* \"#utility.yul\":7307:7313   */\n      dup2\n        /* \"#utility.yul\":7302:7305   */\n      dup6\n        /* \"#utility.yul\":7243:7314   */\n      tag_85\n      jump\t// in\n    tag_183:\n        /* \"#utility.yul\":7236:7314   */\n      swap4\n      pop\n        /* \"#utility.yul\":7323:7388   */\n      tag_184\n        /* \"#utility.yul\":7381:7387   */\n      dup2\n        /* \"#utility.yul\":7376:7379   */\n      dup6\n        /* \"#utility.yul\":7369:7373   */\n      0x20\n        /* \"#utility.yul\":7362:7367   */\n      dup7\n        /* \"#utility.yul\":7358:7374   */\n      add\n        /* \"#utility.yul\":7323:7388   */\n      tag_77\n      jump\t// in\n    tag_184:\n        /* \"#utility.yul\":7413:7442   */\n      tag_185\n        /* \"#utility.yul\":7435:7441   */\n      dup2\n        /* \"#utility.yul\":7413:7442   */\n      tag_64\n      jump\t// in\n    tag_185:\n        /* \"#utility.yul\":7408:7411   */\n      dup5\n        /* \"#utility.yul\":7404:7443   */\n      add\n        /* \"#utility.yul\":7397:7443   */\n      swap2\n      pop\n        /* \"#utility.yul\":7164:7449   */\n      pop\n        /* \"#utility.yul\":7072:7449   */\n      swap3\n      swap2\n      pop\n      pop\n      jump\t// out\n        /* \"#utility.yul\":7455:7768   */\n    tag_20:\n        /* \"#utility.yul\":7568:7572   */\n      0x00\n        /* \"#utility.yul\":7606:7608   */\n      0x20\n        /* \"#utility.yul\":7595:7604   */\n      dup3\n        /* \"#utility.yul\":7591:7609   */\n      add\n        /* \"#utility.yul\":7583:7609   */\n      swap1\n      pop\n        /* \"#utility.yul\":7655:7664   */\n      dup2\n        /* \"#utility.yul\":7649:7653   */\n      dup2\n        /* \"#utility.yul\":7645:7665   */\n      sub\n        /* \"#utility.yul\":7641:7642   */\n      0x00\n        /* \"#utility.yul\":7630:7639   */\n      dup4\n        /* \"#utility.yul\":7626:7643   */\n      add\n        /* \"#utility.yul\":7619:7666   */\n      mstore\n        /* \"#utility.yul\":7683:7761   */\n      tag_187\n        /* \"#utility.yul\":7756:7760   */\n      dup2\n        /* \"#utility.yul\":7747:7753   */\n      dup5\n        /* \"#utility.yul\":7683:7761   */\n      tag_86\n      jump\t// in\n    tag_187:\n        /* \"#utility.yul\":7675:7761   */\n      swap1\n      pop\n        /* \"#utility.yul\":7455:7768   */\n      swap3\n      swap2\n      pop\n      pop\n      jump\t// out\n        /* \"#utility.yul\":7774:7954   */\n    tag_87:\n        /* \"#utility.yul\":7822:7899   */\n      0x4e487b7100000000000000000000000000000000000000000000000000000000\n        /* \"#utility.yul\":7819:7820   */\n      0x00\n        /* \"#utility.yul\":7812:7900   */\n      mstore\n        /* \"#utility.yul\":7919:7923   */\n      0x11\n        /* \"#utility.yul\":7916:7917   */\n      0x04\n        /* \"#utility.yul\":7909:7924   */\n      mstore\n        /* \"#utility.yul\":7943:7947   */\n      0x24\n        /* \"#utility.yul\":7940:7941   */\n      0x00\n        /* \"#utility.yul\":7933:7948   */\n      revert\n        /* \"#utility.yul\":7960:8193   */\n    tag_27:\n        /* \"#utility.yul\":7999:8002   */\n      0x00\n        /* \"#utility.yul\":8022:8046   */\n      tag_190\n        /* \"#utility.yul\":8040:8045   */\n      dup3\n        /* \"#utility.yul\":8022:8046   */\n      tag_82\n      jump\t// in\n    tag_190:\n        /* \"#utility.yul\":8013:8046   */\n      swap2\n      pop\n        /* \"#utility.yul\":8068:8134   */\n      0xffffffffffffffffffffffffffffffffffffffffffffffffffffffffffffffff\n        /* \"#utility.yul\":8061:8066   */\n      dup3\n        /* \"#utility.yul\":8058:8135   */\n      sub\n        /* \"#utility.yul\":8055:8158   */\n      tag_191\n      jumpi\n        /* \"#utility.yul\":8138:8156   */\n      tag_192\n      tag_87\n      jump\t// in\n    tag_192:\n        /* \"#utility.yul\":8055:8158   */\n    tag_191:\n        /* \"#utility.yul\":8185:8186   */\n      0x01\n        /* \"#utility.yul\":8178:8183   */\n      dup3\n        /* \"#utility.yul\":8174:8187   */\n      add\n        /* \"#utility.yul\":8167:8187   */\n      swap1\n      pop\n        /* \"#utility.yul\":7960:8193   */\n      swap2\n      swap1\n      pop\n      jump\t// out\n        /* \"#utility.yul\":8199:8379   */\n    tag_88:\n        /* \"#utility.yul\":8247:8324   */\n      0x4e487b7100000000000000000000000000000000000000000000000000000000\n        /* \"#utility.yul\":8244:8245   */\n      0x00\n        /* \"#utility.yul\":8237:8325   */\n      mstore\n        /* \"#utility.yul\":8344:8348   */\n      0x22\n        /* \"#utility.yul\":8341:8342   */\n      0x04\n        /* \"#utility.yul\":8334:8349   */\n      mstore\n        /* \"#utility.yul\":8368:8372   */\n      0x24\n        /* \"#utility.yul\":8365:8366   */\n      0x00\n        /* \"#utility.yul\":8358:8373   */\n      revert\n        /* \"#utility.yul\":8385:8705   */\n    tag_42:\n        /* \"#utility.yul\":8429:8435   */\n      0x00\n        /* \"#utility.yul\":8466:8467   */\n      0x02\n        /* \"#utility.yul\":8460:8464   */\n      dup3\n        /* \"#utility.yul\":8456:8468   */\n      div\n        /* \"#utility.yul\":8446:8468   */\n      swap1\n      pop\n        /* \"#utility.yul\":8513:8514   */\n      0x01\n        /* \"#utility.yul\":8507:8511   */\n      dup3\n        /* \"#utility.yul\":8503:8515   */\n      and\n        /* \"#utility.yul\":8534:8552   */\n      dup1\n        /* \"#utility.yul\":8524:8605   */\n      tag_195\n      jumpi\n        /* \"#utility.yul\":8590:8594   */\n      0x7f\n        /* \"#utility.yul\":8582:8588   */\n      dup3\n        /* \"#utility.yul\":8578:8595   */\n      and\n        /* \"#utility.yul\":8568:8595   */\n      swap2\n      pop\n        /* \"#utility.yul\":8524:8605   */\n    tag_195:\n        /* \"#utility.yul\":8652:8654   */\n      0x20\n        /* \"#utility.yul\":8644:8650   */\n      dup3\n        /* \"#utility.yul\":8641:8655   */\n      lt\n        /* \"#utility.yul\":8621:8639   */\n      dup2\n        /* \"#utility.yul\":8618:8656   */\n      sub\n        /* \"#utility.yul\":8615:8699   */\n      tag_196\n      jumpi\n        /* \"#utility.yul\":8671:8689   */\n      tag_197\n      tag_88\n      jump\t// in\n    tag_197:\n        /* \"#utility.yul\":8615:8699   */\n    tag_196:\n        /* \"#utility.yul\":8436:8705   */\n      pop\n        /* \"#utility.yul\":8385:8705   */\n      swap2\n      swap1\n      pop\n      jump\t// out\n        /* \"#utility.yul\":8711:8852   */\n    tag_89:\n        /* \"#utility.yul\":8760:8764   */\n      0x00\n        /* \"#utility.yul\":8783:8786   */\n      dup2\n        /* \"#utility.yul\":8775:8786   */\n      swap1\n      pop\n        /* \"#utility.yul\":8806:8809   */\n      dup2\n        /* \"#utility.yul\":8803:8804   */\n      0x00\n        /* \"#utility.yul\":8796:8810   */\n      mstore\n        /* \"#utility.yul\":8840:8844   */\n      0x20\n        /* \"#utility.yul\":8837:8838   */\n      0x00\n        /* \"#utility.yul\":8827:8845   */\n      keccak256\n        /* \"#utility.yul\":8819:8845   */\n      swap1\n      pop\n        /* \"#utility.yul\":8711:8852   */\n      swap2\n      swap1\n      pop\n      jump\t// out\n        /* \"#utility.yul\":8858:8951   */\n    tag_90:\n        /* \"#utility.yul\":8895:8901   */\n      0x00\n        /* \"#utility.yul\":8942:8944   */\n      0x20\n        /* \"#utility.yul\":8937:8939   */\n      0x1f\n        /* \"#utility.yul\":8930:8935   */\n      dup4\n        /* \"#utility.yul\":8926:8940   */\n      add\n        /* \"#utility.yul\":8922:8945   */\n      div\n        /* \"#utility.yul\":8912:8945   */\n      swap1\n      pop\n        /* \"#utility.yul\":8858:8951   */\n      swap2\n      swap1\n      pop\n      jump\t// out\n        /* \"#utility.yul\":8957:9064   */\n    tag_91:\n        /* \"#utility.yul\":9001:9009   */\n      0x00\n        /* \"#utility.yul\":9051:9056   */\n      dup3\n        /* \"#utility.yul\":9045:9049   */\n      dup3\n        /* \"#utility.yul\":9041:9057   */\n      shl\n        /* \"#utility.yul\":9020:9057   */\n      swap1\n      pop\n        /* \"#utility.yul\":8957:9064   */\n      swap3\n      swap2\n      pop\n      pop\n      jump\t// out\n        /* \"#utility.yul\":9070:9463   */\n    tag_92:\n        /* \"#utility.yul\":9139:9145   */\n      0x00\n        /* \"#utility.yul\":9189:9190   */\n      0x08\n        /* \"#utility.yul\":9177:9187   */\n      dup4\n        /* \"#utility.yul\":9173:9191   */\n      mul\n        /* \"#utility.yul\":9212:9309   */\n      tag_202\n        /* \"#utility.yul\":9242:9308   */\n      0xffffffffffffffffffffffffffffffffffffffffffffffffffffffffffffffff\n        /* \"#utility.yul\":9231:9240   */\n      dup3\n        /* \"#utility.yul\":9212:9309   */\n      tag_91\n      jump\t// in\n    tag_202:\n        /* \"#utility.yul\":9330:9369   */\n      tag_203\n        /* \"#utility.yul\":9360:9368   */\n      dup7\n        /* \"#utility.yul\":9349:9358   */\n      dup4\n        /* \"#utility.yul\":9330:9369   */\n      tag_91\n      jump\t// in\n    tag_203:\n        /* \"#utility.yul\":9318:9369   */\n      swap6\n      pop\n        /* \"#utility.yul\":9402:9406   */\n      dup1\n        /* \"#utility.yul\":9398:9407   */\n      not\n        /* \"#utility.yul\":9391:9396   */\n      dup5\n        /* \"#utility.yul\":9387:9408   */\n      and\n        /* \"#utility.yul\":9378:9408   */\n      swap4\n      pop\n        /* \"#utility.yul\":9451:9455   */\n      dup1\n        /* \"#utility.yul\":9441:9449   */\n      dup7\n        /* \"#utility.yul\":9437:9456   */\n      and\n        /* \"#utility.yul\":9430:9435   */\n      dup5\n        /* \"#utility.yul\":9427:9457   */\n      or\n        /* \"#utility.yul\":9417:9457   */\n      swap3\n      pop\n        /* \"#utility.yul\":9146:9463   */\n      pop\n      pop\n        /* \"#utility.yul\":9070:9463   */\n      swap4\n      swap3\n      pop\n      pop\n      pop\n      jump\t// out\n        /* \"#utility.yul\":9469:9529   */\n    tag_93:\n        /* \"#utility.yul\":9497:9500   */\n      0x00\n        /* \"#utility.yul\":9518:9523   */\n      dup2\n        /* \"#utility.yul\":9511:9523   */\n      swap1\n      pop\n        /* \"#utility.yul\":9469:9529   */\n      swap2\n      swap1\n      pop\n      jump\t// out\n        /* \"#utility.yul\":9535:9677   */\n    tag_94:\n        /* \"#utility.yul\":9585:9594   */\n      0x00\n        /* \"#utility.yul\":9618:9671   */\n      tag_206\n        /* \"#utility.yul\":9636:9670   */\n      tag_207\n        /* \"#utility.yul\":9645:9669   */\n      tag_208\n        /* \"#utility.yul\":9663:9668   */\n      dup5\n        /* \"#utility.yul\":9645:9669   */\n      tag_82\n      jump\t// in\n    tag_208:\n        /* \"#utility.yul\":9636:9670   */\n      tag_93\n      jump\t// in\n    tag_207:\n        /* \"#utility.yul\":9618:9671   */\n      tag_82\n      jump\t// in\n    tag_206:\n        /* \"#utility.yul\":9605:9671   */\n      swap1\n      pop\n        /* \"#utility.yul\":9535:9677   */\n      swap2\n      swap1\n      pop\n      jump\t// out\n        /* \"#utility.yul\":9683:9758   */\n    tag_95:\n        /* \"#utility.yul\":9726:9729   */\n      0x00\n        /* \"#utility.yul\":9747:9752   */\n      dup2\n        /* \"#utility.yul\":9740:9752   */\n      swap1\n      pop\n        /* \"#utility.yul\":9683:9758   */\n      swap2\n      swap1\n      pop\n      jump\t// out\n        /* \"#utility.yul\":9764:10033   */\n    tag_96:\n        /* \"#utility.yul\":9874:9913   */\n      tag_211\n        /* \"#utility.yul\":9905:9912   */\n      dup4\n        /* \"#utility.yul\":9874:9913   */\n      tag_94\n      jump\t// in\n    tag_211:\n        /* \"#utility.yul\":9935:10026   */\n      tag_212\n        /* \"#utility.yul\":9984:10025   */\n      tag_213\n        /* \"#utility.yul\":10008:10024   */\n      dup3\n        /* \"#utility.yul\":9984:10025   */\n      tag_95\n      jump\t// in\n    tag_213:\n        /* \"#utility.yul\":9976:9982   */\n      dup5\n        /* \"#utility.yul\":9969:9973   */\n      dup5\n        /* \"#utility.yul\":9963:9974   */\n      sload\n        /* \"#utility.yul\":9935:10026   */\n      tag_92\n      jump\t// in\n    tag_212:\n        /* \"#utility.yul\":9929:9933   */\n      dup3\n        /* \"#utility.yul\":9922:10027   */\n      sstore\n        /* \"#utility.yul\":9840:10033   */\n      pop\n        /* \"#utility.yul\":9764:10033   */\n      pop\n      pop\n      pop\n      jump\t// out\n        /* \"#utility.yul\":10039:10112   */\n    tag_97:\n        /* \"#utility.yul\":10084:10087   */\n      0x00\n        /* \"#utility.yul\":10039:10112   */\n      swap1\n      jump\t// out\n        /* \"#utility.yul\":10118:10307   */\n    tag_98:\n        /* \"#utility.yul\":10195:10227   */\n      tag_216\n      tag_97\n      jump\t// in\n    tag_216:\n        /* \"#utility.yul\":10236:10301   */\n      tag_217\n        /* \"#utility.yul\":10294:10300   */\n      dup2\n        /* \"#utility.yul\":10286:10292   */\n      dup5\n        /* \"#utility.yul\":10280:10284   */\n      dup5\n        /* \"#utility.yul\":10236:10301   */\n      tag_96\n      jump\t// in\n    tag_217:\n        /* \"#utility.yul\":10171:10307   */\n      pop\n        /* \"#utility.yul\":10118:10307   */\n      pop\n      pop\n      jump\t// out\n        /* \"#utility.yul\":10313:10499   */\n    tag_99:\n        /* \"#utility.yul\":10373:10493   */\n    tag_219:\n        /* \"#utility.yul\":10390:10393   */\n      dup2\n        /* \"#utility.yul\":10383:10388   */\n      dup2\n        /* \"#utility.yul\":10380:10394   */\n      lt\n        /* \"#utility.yul\":10373:10493   */\n      iszero\n      tag_221\n      jumpi\n        /* \"#utility.yul\":10444:10483   */\n      tag_222\n        /* \"#utility.yul\":10481:10482   */\n      0x00\n        /* \"#utility.yul\":10474:10479   */\n      dup3\n        /* \"#utility.yul\":10444:10483   */\n      tag_98\n      jump\t// in\n    tag_222:\n        /* \"#utility.yul\":10417:10418   */\n      0x01\n        /* \"#utility.yul\":10410:10415   */\n      dup2\n        /* \"#utility.yul\":10406:10419   */\n      add\n        /* \"#utility.yul\":10397:10419   */\n      swap1\n      pop\n        /* \"#utility.yul\":10373:10493   */\n      jump(tag_219)\n    tag_221:\n        /* \"#utility.yul\":10313:10499   */\n      pop\n      pop\n      jump\t// out\n        /* \"#utility.yul\":10505:11048   */\n    tag_100:\n        /* \"#utility.yul\":10606:10608   */\n      0x1f\n        /* \"#utility.yul\":10601:10604   */\n      dup3\n        /* \"#utility.yul\":10598:10609   */\n      gt\n        /* \"#utility.yul\":10595:11041   */\n      iszero\n      tag_224\n      jumpi\n        /* \"#utility.yul\":10640:10678   */\n      tag_225\n        /* \"#utility.yul\":10672:10677   */\n      dup2\n        /* \"#utility.yul\":10640:10678   */\n      tag_89\n      jump\t// in\n    tag_225:\n        /* \"#utility.yul\":10724:10753   */\n      tag_226\n        /* \"#utility.yul\":10742:10752   */\n      dup5\n        /* \"#utility.yul\":10724:10753   */\n      tag_90\n      jump\t// in\n    tag_226:\n        /* \"#utility.yul\":10714:10722   */\n      dup2\n        /* \"#utility.yul\":10710:10754   */\n      add\n        /* \"#utility.yul\":10907:10909   */\n      0x20\n        /* \"#utility.yul\":10895:10905   */\n      dup6\n        /* \"#utility.yul\":10892:10910   */\n      lt\n        /* \"#utility.yul\":10889:10938   */\n      iszero\n      tag_227\n      jumpi\n        /* \"#utility.yul\":10928:10936   */\n      dup2\n        /* \"#utility.yul\":10913:10936   */\n      swap1\n      pop\n        /* \"#utility.yul\":10889:10938   */\n    tag_227:\n        /* \"#utility.yul\":10951:11031   */\n      tag_228\n        /* \"#utility.yul\":11007:11029   */\n      tag_229\n        /* \"#utility.yul\":11025:11028   */\n      dup6\n        /* \"#utility.yul\":11007:11029   */\n      tag_90\n      jump\t// in\n    tag_229:\n        /* \"#utility.yul\":10997:11005   */\n      dup4\n        /* \"#utility.yul\":10993:11030   */\n      add\n        /* \"#utility.yul\":10980:10991   */\n      dup3\n        /* \"#utility.yul\":10951:11031   */\n      tag_99\n      jump\t// in\n    tag_228:\n        /* \"#utility.yul\":10610:11041   */\n      pop\n      pop\n        /* \"#utility.yul\":10595:11041   */\n    tag_224:\n        /* \"#utility.yul\":10505:11048   */\n      pop\n      pop\n      pop\n      jump\t// out\n        /* \"#utility.yul\":11054:11171   */\n    tag_101:\n        /* \"#utility.yul\":11108:11116   */\n      0x00\n        /* \"#utility.yul\":11158:11163   */\n      dup3\n        /* \"#utility.yul\":11152:11156   */\n      dup3\n        /* \"#utility.yul\":11148:11164   */\n      shr\n        /* \"#utility.yul\":11127:11164   */\n      swap1\n      pop\n        /* \"#utility.yul\":11054:11171   */\n      swap3\n      swap2\n      pop\n      pop\n      jump\t// out\n        /* \"#utility.yul\":11177:11346   */\n    tag_102:\n        /* \"#utility.yul\":11221:11227   */\n      0x00\n        /* \"#utility.yul\":11254:11305   */\n      tag_232\n        /* \"#utility.yul\":11302:11303   */\n      0x00\n        /* \"#utility.yul\":11298:11304   */\n      not\n        /* \"#utility.yul\":11290:11295   */\n      dup5\n        /* \"#utility.yul\":11287:11288   */\n      0x08\n        /* \"#utility.yul\":11283:11296   */\n      mul\n        /* \"#utility.yul\":11254:11305   */\n      tag_101\n      jump\t// in\n    tag_232:\n        /* \"#utility.yul\":11250:11306   */\n      not\n        /* \"#utility.yul\":11335:11339   */\n      dup1\n        /* \"#utility.yul\":11329:11333   */\n      dup4\n        /* \"#utility.yul\":11325:11340   */\n      and\n        /* \"#utility.yul\":11315:11340   */\n      swap2\n      pop\n        /* \"#utility.yul\":11228:11346   */\n      pop\n        /* \"#utility.yul\":11177:11346   */\n      swap3\n      swap2\n      pop\n      pop\n      jump\t// out\n        /* \"#utility.yul\":11351:11646   */\n    tag_103:\n        /* \"#utility.yul\":11427:11431   */\n      0x00\n        /* \"#utility.yul\":11573:11602   */\n      tag_234\n        /* \"#utility.yul\":11598:11601   */\n      dup4\n        /* \"#utility.yul\":11592:11596   */\n      dup4\n        /* \"#utility.yul\":11573:11602   */\n      tag_102\n      jump\t// in\n    tag_234:\n        /* \"#utility.yul\":11565:11602   */\n      swap2\n      pop\n        /* \"#utility.yul\":11635:11638   */\n      dup3\n        /* \"#utility.yul\":11632:11633   */\n      0x02\n        /* \"#utility.yul\":11628:11639   */\n      mul\n        /* \"#utility.yul\":11622:11626   */\n      dup3\n        /* \"#utility.yul\":11619:11640   */\n      or\n        /* \"#utility.yul\":11611:11640   */\n      swap1\n      pop\n        /* \"#utility.yul\":11351:11646   */\n      swap3\n      swap2\n      pop\n      pop\n      jump\t// out\n        /* \"#utility.yul\":11651:13046   */\n    tag_29:\n        /* \"#utility.yul\":11768:11805   */\n      tag_236\n        /* \"#utility.yul\":11801:11804   */\n      dup3\n        /* \"#utility.yul\":11768:11805   */\n      tag_75\n      jump\t// in\n    tag_236:\n        /* \"#utility.yul\":11870:11888   */\n      0xffffffffffffffff\n        /* \"#utility.yul\":11862:11868   */\n      dup2\n        /* \"#utility.yul\":11859:11889   */\n      gt\n        /* \"#utility.yul\":11856:11912   */\n      iszero\n      tag_237\n      jumpi\n        /* \"#utility.yul\":11892:11910   */\n      tag_238\n      tag_65\n      jump\t// in\n    tag_238:\n        /* \"#utility.yul\":11856:11912   */\n    tag_237:\n        /* \"#utility.yul\":11936:11974   */\n      tag_239\n        /* \"#utility.yul\":11968:11972   */\n      dup3\n        /* \"#utility.yul\":11962:11973   */\n      sload\n        /* \"#utility.yul\":11936:11974   */\n      tag_42\n      jump\t// in\n    tag_239:\n        /* \"#utility.yul\":12021:12088   */\n      tag_240\n        /* \"#utility.yul\":12081:12087   */\n      dup3\n        /* \"#utility.yul\":12073:12079   */\n      dup3\n        /* \"#utility.yul\":12067:12071   */\n      dup6\n        /* \"#utility.yul\":12021:12088   */\n      tag_100\n      jump\t// in\n    tag_240:\n        /* \"#utility.yul\":12115:12116   */\n      0x00\n        /* \"#utility.yul\":12139:12143   */\n      0x20\n        /* \"#utility.yul\":12126:12143   */\n      swap1\n      pop\n        /* \"#utility.yul\":12171:12173   */\n      0x1f\n        /* \"#utility.yul\":12163:12169   */\n      dup4\n        /* \"#utility.yul\":12160:12174   */\n      gt\n        /* \"#utility.yul\":12188:12189   */\n      0x01\n        /* \"#utility.yul\":12183:12801   */\n      dup2\n      eq\n      tag_242\n      jumpi\n        /* \"#utility.yul\":12845:12846   */\n      0x00\n        /* \"#utility.yul\":12862:12868   */\n      dup5\n        /* \"#utility.yul\":12859:12936   */\n      iszero\n      tag_243\n      jumpi\n        /* \"#utility.yul\":12911:12920   */\n      dup3\n        /* \"#utility.yul\":12906:12909   */\n      dup8\n        /* \"#utility.yul\":12902:12921   */\n      add\n        /* \"#utility.yul\":12896:12922   */\n      mload\n        /* \"#utility.yul\":12887:12922   */\n      swap1\n      pop\n        /* \"#utility.yul\":12859:12936   */\n    tag_243:\n        /* \"#utility.yul\":12962:13029   */\n      tag_244\n        /* \"#utility.yul\":13022:13028   */\n      dup6\n        /* \"#utility.yul\":13015:13020   */\n      dup3\n        /* \"#utility.yul\":12962:13029   */\n      tag_103\n      jump\t// in\n    tag_244:\n        /* \"#utility.yul\":12956:12960   */\n      dup7\n        /* \"#utility.yul\":12949:13030   */\n      sstore\n        /* \"#utility.yul\":12818:13040   */\n      pop\n        /* \"#utility.yul\":12153:13040   */\n      jump(tag_241)\n        /* \"#utility.yul\":12183:12801   */\n    tag_242:\n        /* \"#utility.yul\":12235:12239   */\n      0x1f\n        /* \"#utility.yul\":12231:12240   */\n      not\n        /* \"#utility.yul\":12223:12229   */\n      dup5\n        /* \"#utility.yul\":12219:12241   */\n      and\n        /* \"#utility.yul\":12269:12306   */\n      tag_245\n        /* \"#utility.yul\":12301:12305   */\n      dup7\n        /* \"#utility.yul\":12269:12306   */\n      tag_89\n      jump\t// in\n    tag_245:\n        /* \"#utility.yul\":12328:12329   */\n      0x00\n        /* \"#utility.yul\":12342:12550   */\n    tag_246:\n        /* \"#utility.yul\":12356:12363   */\n      dup3\n        /* \"#utility.yul\":12353:12354   */\n      dup2\n        /* \"#utility.yul\":12350:12364   */\n      lt\n        /* \"#utility.yul\":12342:12550   */\n      iszero\n      tag_248\n      jumpi\n        /* \"#utility.yul\":12435:12444   */\n      dup5\n        /* \"#utility.yul\":12430:12433   */\n      dup10\n        /* \"#utility.yul\":12426:12445   */\n      add\n        /* \"#utility.yul\":12420:12446   */\n      mload\n        /* \"#utility.yul\":12412:12418   */\n      dup3\n        /* \"#utility.yul\":12405:12447   */\n      sstore\n        /* \"#utility.yul\":12486:12487   */\n      0x01\n        /* \"#utility.yul\":12478:12484   */\n      dup3\n        /* \"#utility.yul\":12474:12488   */\n      add\n        /* \"#utility.yul\":12464:12488   */\n      swap2\n      pop\n        /* \"#utility.yul\":12533:12535   */\n      0x20\n        /* \"#utility.yul\":12522:12531   */\n      dup6\n        /* \"#utility.yul\":12518:12536   */\n      add\n        /* \"#utility.yul\":12505:12536   */\n      swap5\n      pop\n        /* \"#utility.yul\":12379:12383   */\n      0x20\n        /* \"#utility.yul\":12376:12377   */\n      dup2\n        /* \"#utility.yul\":12372:12384   */\n      add\n        /* \"#utility.yul\":12367:12384   */\n      swap1\n      pop\n        /* \"#utility.yul\":12342:12550   */\n      jump(tag_246)\n    tag_248:\n        /* \"#utility.yul\":12578:12584   */\n      dup7\n        /* \"#utility.yul\":12569:12576   */\n      dup4\n        /* \"#utility.yul\":12566:12585   */\n      lt\n        /* \"#utility.yul\":12563:12742   */\n      iszero\n      tag_249\n      jumpi\n        /* \"#utility.yul\":12636:12645   */\n      dup5\n        /* \"#utility.yul\":12631:12634   */\n      dup10\n        /* \"#utility.yul\":12627:12646   */\n      add\n        /* \"#utility.yul\":12621:12647   */\n      mload\n        /* \"#utility.yul\":12679:12727   */\n      tag_250\n        /* \"#utility.yul\":12721:12725   */\n      0x1f\n        /* \"#utility.yul\":12713:12719   */\n      dup10\n        /* \"#utility.yul\":12709:12726   */\n      and\n        /* \"#utility.yul\":12698:12707   */\n      dup3\n        /* \"#utility.yul\":12679:12727   */\n      tag_102\n      jump\t// in\n    tag_250:\n        /* \"#utility.yul\":12671:12677   */\n      dup4\n        /* \"#utility.yul\":12664:12728   */\n      sstore\n        /* \"#utility.yul\":12586:12742   */\n      pop\n        /* \"#utility.yul\":12563:12742   */\n    tag_249:\n        /* \"#utility.yul\":12788:12789   */\n      0x01\n        /* \"#utility.yul\":12784:12785   */\n      0x02\n        /* \"#utility.yul\":12776:12782   */\n      dup9\n        /* \"#utility.yul\":12772:12786   */\n      mul\n        /* \"#utility.yul\":12768:12790   */\n      add\n        /* \"#utility.yul\":12762:12766   */\n      dup9\n        /* \"#utility.yul\":12755:12791   */\n      sstore\n        /* \"#utility.yul\":12190:12801   */\n      pop\n      pop\n      pop\n        /* \"#utility.yul\":12153:13040   */\n    tag_241:\n      pop\n        /* \"#utility.yul\":11743:13046   */\n      pop\n      pop\n      pop\n        /* \"#utility.yul\":11651:13046   */\n      pop\n      pop\n      jump\t// out\n        /* \"#utility.yul\":13052:13205   */\n    tag_104:\n        /* \"#utility.yul\":13105:13111   */\n      0x00\n        /* \"#utility.yul\":13139:13144   */\n      dup2\n        /* \"#utility.yul\":13133:13145   */\n      sload\n        /* \"#utility.yul\":13123:13145   */\n      swap1\n      pop\n        /* \"#utility.yul\":13165:13198   */\n      tag_252\n        /* \"#utility.yul\":13191:13197   */\n      dup2\n        /* \"#utility.yul\":13165:13198   */\n      tag_42\n      jump\t// in\n    tag_252:\n        /* \"#utility.yul\":13155:13198   */\n      swap1\n      pop\n        /* \"#utility.yul\":13052:13205   */\n      swap2\n      swap1\n      pop\n      jump\t// out\n        /* \"#utility.yul\":13211:13356   */\n    tag_105:\n        /* \"#utility.yul\":13264:13268   */\n      0x00\n        /* \"#utility.yul\":13287:13290   */\n      dup2\n        /* \"#utility.yul\":13279:13290   */\n      swap1\n      pop\n        /* \"#utility.yul\":13310:13313   */\n      dup2\n        /* \"#utility.yul\":13307:13308   */\n      0x00\n        /* \"#utility.yul\":13300:13314   */\n      mstore\n        /* \"#utility.yul\":13344:13348   */\n      0x20\n        /* \"#utility.yul\":13341:13342   */\n      0x00\n        /* \"#utility.yul\":13331:13349   */\n      keccak256\n        /* \"#utility.yul\":13323:13349   */\n      swap1\n      pop\n        /* \"#utility.yul\":13211:13356   */\n      swap2\n      swap1\n      pop\n      jump\t// out\n        /* \"#utility.yul\":13362:14825   */\n    tag_36:\n        /* \"#utility.yul\":13477:13480   */\n      dup2\n        /* \"#utility.yul\":13471:13475   */\n      dup2\n        /* \"#utility.yul\":13468:13481   */\n      sub\n        /* \"#utility.yul\":13465:13491   */\n      tag_255\n      jumpi\n        /* \"#utility.yul\":13484:13489   */\n      pop\n      pop\n      jump(tag_254)\n        /* \"#utility.yul\":13465:13491   */\n    tag_255:\n        /* \"#utility.yul\":13515:13553   */\n      tag_256\n        /* \"#utility.yul\":13549:13552   */\n      dup3\n        /* \"#utility.yul\":13515:13553   */\n      tag_104\n      jump\t// in\n    tag_256:\n        /* \"#utility.yul\":13618:13636   */\n      0xffffffffffffffff\n        /* \"#utility.yul\":13610:13616   */\n      dup2\n        /* \"#utility.yul\":13607:13637   */\n      gt\n        /* \"#utility.yul\":13604:13660   */\n      iszero\n      tag_257\n      jumpi\n        /* \"#utility.yul\":13640:13658   */\n      tag_258\n      tag_65\n      jump\t// in\n    tag_258:\n        /* \"#utility.yul\":13604:13660   */\n    tag_257:\n        /* \"#utility.yul\":13684:13722   */\n      tag_259\n        /* \"#utility.yul\":13716:13720   */\n      dup3\n        /* \"#utility.yul\":13710:13721   */\n      sload\n        /* \"#utility.yul\":13684:13722   */\n      tag_42\n      jump\t// in\n    tag_259:\n        /* \"#utility.yul\":13769:13836   */\n      tag_260\n        /* \"#utility.yul\":13829:13835   */\n      dup3\n        /* \"#utility.yul\":13821:13827   */\n      dup3\n        /* \"#utility.yul\":13815:13819   */\n      dup6\n        /* \"#utility.yul\":13769:13836   */\n      tag_100\n      jump\t// in\n    tag_260:\n        /* \"#utility.yul\":13863:13864   */\n      0x00\n        /* \"#utility.yul\":13892:13894   */\n      0x1f\n        /* \"#utility.yul\":13884:13890   */\n      dup4\n        /* \"#utility.yul\":13881:13895   */\n      gt\n        /* \"#utility.yul\":13909:13910   */\n      0x01\n        /* \"#utility.yul\":13904:14580   */\n      dup2\n      eq\n      tag_262\n      jumpi\n        /* \"#utility.yul\":14624:14625   */\n      0x00\n        /* \"#utility.yul\":14641:14647   */\n      dup5\n        /* \"#utility.yul\":14638:14715   */\n      iszero\n      tag_263\n      jumpi\n        /* \"#utility.yul\":14690:14699   */\n      dup3\n        /* \"#utility.yul\":14685:14688   */\n      dup8\n        /* \"#utility.yul\":14681:14700   */\n      add\n        /* \"#utility.yul\":14675:14701   */\n      sload\n        /* \"#utility.yul\":14666:14701   */\n      swap1\n      pop\n        /* \"#utility.yul\":14638:14715   */\n    tag_263:\n        /* \"#utility.yul\":14741:14808   */\n      tag_264\n        /* \"#utility.yul\":14801:14807   */\n      dup6\n        /* \"#utility.yul\":14794:14799   */\n      dup3\n        /* \"#utility.yul\":14741:14808   */\n      tag_103\n      jump\t// in\n    tag_264:\n        /* \"#utility.yul\":14735:14739   */\n      dup7\n        /* \"#utility.yul\":14728:14809   */\n      sstore\n        /* \"#utility.yul\":14597:14819   */\n      pop\n        /* \"#utility.yul\":13874:14819   */\n      jump(tag_261)\n        /* \"#utility.yul\":13904:14580   */\n    tag_262:\n        /* \"#utility.yul\":13956:13960   */\n      0x1f\n        /* \"#utility.yul\":13952:13961   */\n      not\n        /* \"#utility.yul\":13944:13950   */\n      dup5\n        /* \"#utility.yul\":13940:13962   */\n      and\n        /* \"#utility.yul\":13982:14022   */\n      tag_265\n        /* \"#utility.yul\":14018:14021   */\n      dup8\n        /* \"#utility.yul\":13982:14022   */\n      tag_105\n      jump\t// in\n    tag_265:\n        /* \"#utility.yul\":13975:14022   */\n      swap7\n      pop\n        /* \"#utility.yul\":14049:14086   */\n      tag_266\n        /* \"#utility.yul\":14081:14085   */\n      dup7\n        /* \"#utility.yul\":14049:14086   */\n      tag_89\n      jump\t// in\n    tag_266:\n        /* \"#utility.yul\":14108:14109   */\n      0x00\n        /* \"#utility.yul\":14122:14329   */\n    tag_267:\n        /* \"#utility.yul\":14136:14143   */\n      dup3\n        /* \"#utility.yul\":14133:14134   */\n      dup2\n        /* \"#utility.yul\":14130:14144   */\n      lt\n        /* \"#utility.yul\":14122:14329   */\n      iszero\n      tag_269\n      jumpi\n        /* \"#utility.yul\":14215:14224   */\n      dup5\n        /* \"#utility.yul\":14210:14213   */\n      dup10\n        /* \"#utility.yul\":14206:14225   */\n      add\n        /* \"#utility.yul\":14200:14226   */\n      sload\n        /* \"#utility.yul\":14192:14198   */\n      dup3\n        /* \"#utility.yul\":14185:14227   */\n      sstore\n        /* \"#utility.yul\":14266:14267   */\n      0x01\n        /* \"#utility.yul\":14258:14264   */\n      dup3\n        /* \"#utility.yul\":14254:14268   */\n      add\n        /* \"#utility.yul\":14244:14268   */\n      swap2\n      pop\n        /* \"#utility.yul\":14313:14314   */\n      0x01\n        /* \"#utility.yul\":14302:14311   */\n      dup6\n        /* \"#utility.yul\":14298:14315   */\n      add\n        /* \"#utility.yul\":14285:14315   */\n      swap5\n      pop\n        /* \"#utility.yul\":14159:14163   */\n      0x20\n        /* \"#utility.yul\":14156:14157   */\n      dup2\n        /* \"#utility.yul\":14152:14164   */\n      add\n        /* \"#utility.yul\":14147:14164   */\n      swap1\n      pop\n        /* \"#utility.yul\":14122:14329   */\n      jump(tag_267)\n    tag_269:\n        /* \"#utility.yul\":14357:14363   */\n      dup7\n        /* \"#utility.yul\":14348:14355   */\n      dup4\n        /* \"#utility.yul\":14345:14364   */\n      lt\n        /* \"#utility.yul\":14342:14521   */\n      iszero\n      tag_270\n      jumpi\n        /* \"#utility.yul\":14415:14424   */\n      dup5\n        /* \"#utility.yul\":14410:14413   */\n      dup10\n        /* \"#utility.yul\":14406:14425   */\n      add\n        /* \"#utility.yul\":14400:14426   */\n      sload\n        /* \"#utility.yul\":14458:14506   */\n      tag_271\n        /* \"#utility.yul\":14500:14504   */\n      0x1f\n        /* \"#utility.yul\":14492:14498   */\n      dup10\n        /* \"#utility.yul\":14488:14505   */\n      and\n        /* \"#utility.yul\":14477:14486   */\n      dup3\n        /* \"#utility.yul\":14458:14506   */\n      tag_102\n      jump\t// in\n    tag_271:\n        /* \"#utility.yul\":14450:14456   */\n      dup4\n        /* \"#utility.yul\":14443:14507   */\n      sstore\n        /* \"#utility.yul\":14365:14521   */\n      pop\n        /* \"#utility.yul\":14342:14521   */\n    tag_270:\n        /* \"#utility.yul\":14567:14568   */\n      0x01\n        /* \"#utility.yul\":14563:14564   */\n      0x02\n        /* \"#utility.yul\":14555:14561   */\n      dup9\n        /* \"#utility.yul\":14551:14565   */\n      mul\n        /* \"#utility.yul\":14547:14569   */\n      add\n        /* \"#utility.yul\":14541:14545   */\n      dup9\n        /* \"#utility.yul\":14534:14570   */\n      sstore\n        /* \"#utility.yul\":13911:14580   */\n      pop\n      pop\n      pop\n        /* \"#utility.yul\":13874:14819   */\n    tag_261:\n      pop\n        /* \"#utility.yul\":13455:14825   */\n      pop\n      pop\n      pop\n        /* \"#utility.yul\":13362:14825   */\n      pop\n      pop\n    tag_254:\n      jump\t// out\n\n    auxdata: 0xa26469706673582212201d06ffb825d524ea4c783917551b69be328618818075371f8bd9a191b235a3e464736f6c63430008120033\n}\n",
				"bytecode": {
					"linkReferences": {},
					"object": "608060405234801561001057600080fd5b50610c2c806100206000396000f3fe608060405234801561001057600080fd5b506004361061004c5760003560e01c806311456b47146100515780634a4c5cb81461006d578063b10a4c6c1461008b578063bb58e356146100bb575b600080fd5b61006b60048036038101906100669190610513565b6100eb565b005b610075610129565b604051610082919061069d565b60405180910390f35b6100a560048036038101906100a091906106f5565b61026d565b6040516100b2919061076c565b60405180910390f35b6100d560048036038101906100d091906106f5565b610319565b6040516100e2919061076c565b60405180910390f35b600160008154809291906100fe906107bd565b91905055508060026000600154815260200190815260200160002090816101259190610a11565b5050565b60606000600190505b6001548111610195576000600260008381526020019081526020016000209080600181540180825580915050600190039060005260206000200160009091909190915090816101819190610b0e565b50808061018d906107bd565b915050610132565b506000805480602002602001604051908101604052809291908181526020016000905b828210156102645783829060005260206000200180546101d790610834565b80601f016020809104026020016040519081016040528092919081815260200182805461020390610834565b80156102505780601f1061022557610100808354040283529160200191610250565b820191906000526020600020905b81548152906001019060200180831161023357829003601f168201915b5050505050815260200190600101906101b8565b50505050905090565b6000818154811061027d57600080fd5b90600052602060002001600091509050805461029890610834565b80601f01602080910402602001604051908101604052809291908181526020018280546102c490610834565b80156103115780601f106102e657610100808354040283529160200191610311565b820191906000526020600020905b8154815290600101906020018083116102f457829003601f168201915b505050505081565b6002602052806000526040600020600091509050805461033890610834565b80601f016020809104026020016040519081016040528092919081815260200182805461036490610834565b80156103b15780601f10610386576101008083540402835291602001916103b1565b820191906000526020600020905b81548152906001019060200180831161039457829003601f168201915b505050505081565b6000604051905090565b600080fd5b600080fd5b600080fd5b600080fd5b6000601f19601f8301169050919050565b7f4e487b7100000000000000000000000000000000000000000000000000000000600052604160045260246000fd5b610420826103d7565b810181811067ffffffffffffffff8211171561043f5761043e6103e8565b5b80604052505050565b60006104526103b9565b905061045e8282610417565b919050565b600067ffffffffffffffff82111561047e5761047d6103e8565b5b610487826103d7565b9050602081019050919050565b82818337600083830152505050565b60006104b66104b184610463565b610448565b9050828152602081018484840111156104d2576104d16103d2565b5b6104dd848285610494565b509392505050565b600082601f8301126104fa576104f96103cd565b5b813561050a8482602086016104a3565b91505092915050565b600060208284031215610529576105286103c3565b5b600082013567ffffffffffffffff811115610547576105466103c8565b5b610553848285016104e5565b91505092915050565b600081519050919050565b600082825260208201905092915050565b6000819050602082019050919050565b600081519050919050565b600082825260208201905092915050565b60005b838110156105c25780820151818401526020810190506105a7565b60008484015250505050565b60006105d982610588565b6105e38185610593565b93506105f38185602086016105a4565b6105fc816103d7565b840191505092915050565b600061061383836105ce565b905092915050565b6000602082019050919050565b60006106338261055c565b61063d8185610567565b93508360208202850161064f85610578565b8060005b8581101561068b578484038952815161066c8582610607565b94506106778361061b565b925060208a01995050600181019050610653565b50829750879550505050505092915050565b600060208201905081810360008301526106b78184610628565b905092915050565b6000819050919050565b6106d2816106bf565b81146106dd57600080fd5b50565b6000813590506106ef816106c9565b92915050565b60006020828403121561070b5761070a6103c3565b5b6000610719848285016106e0565b91505092915050565b600082825260208201905092915050565b600061073e82610588565b6107488185610722565b93506107588185602086016105a4565b610761816103d7565b840191505092915050565b600060208201905081810360008301526107868184610733565b905092915050565b7f4e487b7100000000000000000000000000000000000000000000000000000000600052601160045260246000fd5b60006107c8826106bf565b91507fffffffffffffffffffffffffffffffffffffffffffffffffffffffffffffffff82036107fa576107f961078e565b5b600182019050919050565b7f4e487b7100000000000000000000000000000000000000000000000000000000600052602260045260246000fd5b6000600282049050600182168061084c57607f821691505b60208210810361085f5761085e610805565b5b50919050565b60008190508160005260206000209050919050565b60006020601f8301049050919050565b600082821b905092915050565b6000600883026108c77fffffffffffffffffffffffffffffffffffffffffffffffffffffffffffffffff8261088a565b6108d1868361088a565b95508019841693508086168417925050509392505050565b6000819050919050565b600061090e610909610904846106bf565b6108e9565b6106bf565b9050919050565b6000819050919050565b610928836108f3565b61093c61093482610915565b848454610897565b825550505050565b600090565b610951610944565b61095c81848461091f565b505050565b5b8181101561098057610975600082610949565b600181019050610962565b5050565b601f8211156109c55761099681610865565b61099f8461087a565b810160208510156109ae578190505b6109c26109ba8561087a565b830182610961565b50505b505050565b600082821c905092915050565b60006109e8600019846008026109ca565b1980831691505092915050565b6000610a0183836109d7565b9150826002028217905092915050565b610a1a82610588565b67ffffffffffffffff811115610a3357610a326103e8565b5b610a3d8254610834565b610a48828285610984565b600060209050601f831160018114610a7b5760008415610a69578287015190505b610a7385826109f5565b865550610adb565b601f198416610a8986610865565b60005b82811015610ab157848901518255600182019150602085019450602081019050610a8c565b86831015610ace5784890151610aca601f8916826109d7565b8355505b6001600288020188555050505b505050505050565b600081549050610af281610834565b9050919050565b60008190508160005260206000209050919050565b818103610b1c575050610bf4565b610b2582610ae3565b67ffffffffffffffff811115610b3e57610b3d6103e8565b5b610b488254610834565b610b53828285610984565b6000601f831160018114610b825760008415610b70578287015490505b610b7a85826109f5565b865550610bed565b601f198416610b9087610af9565b9650610b9b86610865565b60005b82811015610bc357848901548255600182019150600185019450602081019050610b9e565b86831015610be05784890154610bdc601f8916826109d7565b8355505b6001600288020188555050505b5050505050505b56fea26469706673582212201d06ffb825d524ea4c783917551b69be328618818075371f8bd9a191b235a3e464736f6c63430008120033",
					"opcodes": "PUSH1 0x80 PUSH1 0x40 MSTORE CALLVALUE DUP1 ISZERO PUSH2 0x10 JUMPI PUSH1 0x0 DUP1 REVERT JUMPDEST POP PUSH2 0xC2C DUP1 PUSH2 0x20 PUSH1 0x0 CODECOPY PUSH1 0x0 RETURN INVALID PUSH1 0x80 PUSH1 0x40 MSTORE CALLVALUE DUP1 ISZERO PUSH2 0x10 JUMPI PUSH1 0x0 DUP1 REVERT JUMPDEST POP PUSH1 0x4 CALLDATASIZE LT PUSH2 0x4C JUMPI PUSH1 0x0 CALLDATALOAD PUSH1 0xE0 SHR DUP1 PUSH4 0x11456B47 EQ PUSH2 0x51 JUMPI DUP1 PUSH4 0x4A4C5CB8 EQ PUSH2 0x6D JUMPI DUP1 PUSH4 0xB10A4C6C EQ PUSH2 0x8B JUMPI DUP1 PUSH4 0xBB58E356 EQ PUSH2 0xBB JUMPI JUMPDEST PUSH1 0x0 DUP1 REVERT JUMPDEST PUSH2 0x6B PUSH1 0x4 DUP1 CALLDATASIZE SUB DUP2 ADD SWAP1 PUSH2 0x66 SWAP2 SWAP1 PUSH2 0x513 JUMP JUMPDEST PUSH2 0xEB JUMP JUMPDEST STOP JUMPDEST PUSH2 0x75 PUSH2 0x129 JUMP JUMPDEST PUSH1 0x40 MLOAD PUSH2 0x82 SWAP2 SWAP1 PUSH2 0x69D JUMP JUMPDEST PUSH1 0x40 MLOAD DUP1 SWAP2 SUB SWAP1 RETURN JUMPDEST PUSH2 0xA5 PUSH1 0x4 DUP1 CALLDATASIZE SUB DUP2 ADD SWAP1 PUSH2 0xA0 SWAP2 SWAP1 PUSH2 0x6F5 JUMP JUMPDEST PUSH2 0x26D JUMP JUMPDEST PUSH1 0x40 MLOAD PUSH2 0xB2 SWAP2 SWAP1 PUSH2 0x76C JUMP JUMPDEST PUSH1 0x40 MLOAD DUP1 SWAP2 SUB SWAP1 RETURN JUMPDEST PUSH2 0xD5 PUSH1 0x4 DUP1 CALLDATASIZE SUB DUP2 ADD SWAP1 PUSH2 0xD0 SWAP2 SWAP1 PUSH2 0x6F5 JUMP JUMPDEST PUSH2 0x319 JUMP JUMPDEST PUSH1 0x40 MLOAD PUSH2 0xE2 SWAP2 SWAP1 PUSH2 0x76C JUMP JUMPDEST PUSH1 0x40 MLOAD DUP1 SWAP2 SUB SWAP1 RETURN JUMPDEST PUSH1 0x1 PUSH1 0x0 DUP2 SLOAD DUP1 SWAP3 SWAP2 SWAP1 PUSH2 0xFE SWAP1 PUSH2 0x7BD JUMP JUMPDEST SWAP2 SWAP1 POP SSTORE POP DUP1 PUSH1 0x2 PUSH1 0x0 PUSH1 0x1 SLOAD DUP2 MSTORE PUSH1 0x20 ADD SWAP1 DUP2 MSTORE PUSH1 0x20 ADD PUSH1 0x0 KECCAK256 SWAP1 DUP2 PUSH2 0x125 SWAP2 SWAP1 PUSH2 0xA11 JUMP JUMPDEST POP POP JUMP JUMPDEST PUSH1 0x60 PUSH1 0x0 PUSH1 0x1 SWAP1 POP JUMPDEST PUSH1 0x1 SLOAD DUP2 GT PUSH2 0x195 JUMPI PUSH1 0x0 PUSH1 0x2 PUSH1 0x0 DUP4 DUP2 MSTORE PUSH1 0x20 ADD SWAP1 DUP2 MSTORE PUSH1 0x20 ADD PUSH1 0x0 KECCAK256 SWAP1 DUP1 PUSH1 0x1 DUP2 SLOAD ADD DUP1 DUP3 SSTORE DUP1 SWAP2 POP POP PUSH1 0x1 SWAP1 SUB SWAP1 PUSH1 0x0 MSTORE PUSH1 0x20 PUSH1 0x0 KECCAK256 ADD PUSH1 0x0 SWAP1 SWAP2 SWAP1 SWAP2 SWAP1 SWAP2 POP SWAP1 DUP2 PUSH2 0x181 SWAP2 SWAP1 PUSH2 0xB0E JUMP JUMPDEST POP DUP1 DUP1 PUSH2 0x18D SWAP1 PUSH2 0x7BD JUMP JUMPDEST SWAP2 POP POP PUSH2 0x132 JUMP JUMPDEST POP PUSH1 0x0 DUP1 SLOAD DUP1 PUSH1 0x20 MUL PUSH1 0x20 ADD PUSH1 0x40 MLOAD SWAP1 DUP2 ADD PUSH1 0x40 MSTORE DUP1 SWAP3 SWAP2 SWAP1 DUP2 DUP2 MSTORE PUSH1 0x20 ADD PUSH1 0x0 SWAP1 JUMPDEST DUP3 DUP3 LT ISZERO PUSH2 0x264 JUMPI DUP4 DUP3 SWAP1 PUSH1 0x0 MSTORE PUSH1 0x20 PUSH1 0x0 KECCAK256 ADD DUP1 SLOAD PUSH2 0x1D7 SWAP1 PUSH2 0x834 JUMP JUMPDEST DUP1 PUSH1 0x1F ADD PUSH1 0x20 DUP1 SWAP2 DIV MUL PUSH1 0x20 ADD PUSH1 0x40 MLOAD SWAP1 DUP2 ADD PUSH1 0x40 MSTORE DUP1 SWAP3 SWAP2 SWAP1 DUP2 DUP2 MSTORE PUSH1 0x20 ADD DUP3 DUP1 SLOAD PUSH2 0x203 SWAP1 PUSH2 0x834 JUMP JUMPDEST DUP1 ISZERO PUSH2 0x250 JUMPI DUP1 PUSH1 0x1F LT PUSH2 0x225 JUMPI PUSH2 0x100 DUP1 DUP4 SLOAD DIV MUL DUP4 MSTORE SWAP2 PUSH1 0x20 ADD SWAP2 PUSH2 0x250 JUMP JUMPDEST DUP3 ADD SWAP2 SWAP1 PUSH1 0x0 MSTORE PUSH1 0x20 PUSH1 0x0 KECCAK256 SWAP1 JUMPDEST DUP2 SLOAD DUP2 MSTORE SWAP1 PUSH1 0x1 ADD SWAP1 PUSH1 0x20 ADD DUP1 DUP4 GT PUSH2 0x233 JUMPI DUP3 SWAP1 SUB PUSH1 0x1F AND DUP3 ADD SWAP2 JUMPDEST POP POP POP POP POP DUP2 MSTORE PUSH1 0x20 ADD SWAP1 PUSH1 0x1 ADD SWAP1 PUSH2 0x1B8 JUMP JUMPDEST POP POP POP POP SWAP1 POP SWAP1 JUMP JUMPDEST PUSH1 0x0 DUP2 DUP2 SLOAD DUP2 LT PUSH2 0x27D JUMPI PUSH1 0x0 DUP1 REVERT JUMPDEST SWAP1 PUSH1 0x0 MSTORE PUSH1 0x20 PUSH1 0x0 KECCAK256 ADD PUSH1 0x0 SWAP2 POP SWAP1 POP DUP1 SLOAD PUSH2 0x298 SWAP1 PUSH2 0x834 JUMP JUMPDEST DUP1 PUSH1 0x1F ADD PUSH1 0x20 DUP1 SWAP2 DIV MUL PUSH1 0x20 ADD PUSH1 0x40 MLOAD SWAP1 DUP2 ADD PUSH1 0x40 MSTORE DUP1 SWAP3 SWAP2 SWAP1 DUP2 DUP2 MSTORE PUSH1 0x20 ADD DUP3 DUP1 SLOAD PUSH2 0x2C4 SWAP1 PUSH2 0x834 JUMP JUMPDEST DUP1 ISZERO PUSH2 0x311 JUMPI DUP1 PUSH1 0x1F LT PUSH2 0x2E6 JUMPI PUSH2 0x100 DUP1 DUP4 SLOAD DIV MUL DUP4 MSTORE SWAP2 PUSH1 0x20 ADD SWAP2 PUSH2 0x311 JUMP JUMPDEST DUP3 ADD SWAP2 SWAP1 PUSH1 0x0 MSTORE PUSH1 0x20 PUSH1 0x0 KECCAK256 SWAP1 JUMPDEST DUP2 SLOAD DUP2 MSTORE SWAP1 PUSH1 0x1 ADD SWAP1 PUSH1 0x20 ADD DUP1 DUP4 GT PUSH2 0x2F4 JUMPI DUP3 SWAP1 SUB PUSH1 0x1F AND DUP3 ADD SWAP2 JUMPDEST POP POP POP POP POP DUP2 JUMP JUMPDEST PUSH1 0x2 PUSH1 0x20 MSTORE DUP1 PUSH1 0x0 MSTORE PUSH1 0x40 PUSH1 0x0 KECCAK256 PUSH1 0x0 SWAP2 POP SWAP1 POP DUP1 SLOAD PUSH2 0x338 SWAP1 PUSH2 0x834 JUMP JUMPDEST DUP1 PUSH1 0x1F ADD PUSH1 0x20 DUP1 SWAP2 DIV MUL PUSH1 0x20 ADD PUSH1 0x40 MLOAD SWAP1 DUP2 ADD PUSH1 0x40 MSTORE DUP1 SWAP3 SWAP2 SWAP1 DUP2 DUP2 MSTORE PUSH1 0x20 ADD DUP3 DUP1 SLOAD PUSH2 0x364 SWAP1 PUSH2 0x834 JUMP JUMPDEST DUP1 ISZERO PUSH2 0x3B1 JUMPI DUP1 PUSH1 0x1F LT PUSH2 0x386 JUMPI PUSH2 0x100 DUP1 DUP4 SLOAD DIV MUL DUP4 MSTORE SWAP2 PUSH1 0x20 ADD SWAP2 PUSH2 0x3B1 JUMP JUMPDEST DUP3 ADD SWAP2 SWAP1 PUSH1 0x0 MSTORE PUSH1 0x20 PUSH1 0x0 KECCAK256 SWAP1 JUMPDEST DUP2 SLOAD DUP2 MSTORE SWAP1 PUSH1 0x1 ADD SWAP1 PUSH1 0x20 ADD DUP1 DUP4 GT PUSH2 0x394 JUMPI DUP3 SWAP1 SUB PUSH1 0x1F AND DUP3 ADD SWAP2 JUMPDEST POP POP POP POP POP DUP2 JUMP JUMPDEST PUSH1 0x0 PUSH1 0x40 MLOAD SWAP1 POP SWAP1 JUMP JUMPDEST PUSH1 0x0 DUP1 REVERT JUMPDEST PUSH1 0x0 DUP1 REVERT JUMPDEST PUSH1 0x0 DUP1 REVERT JUMPDEST PUSH1 0x0 DUP1 REVERT JUMPDEST PUSH1 0x0 PUSH1 0x1F NOT PUSH1 0x1F DUP4 ADD AND SWAP1 POP SWAP2 SWAP1 POP JUMP JUMPDEST PUSH32 0x4E487B7100000000000000000000000000000000000000000000000000000000 PUSH1 0x0 MSTORE PUSH1 0x41 PUSH1 0x4 MSTORE PUSH1 0x24 PUSH1 0x0 REVERT JUMPDEST PUSH2 0x420 DUP3 PUSH2 0x3D7 JUMP JUMPDEST DUP2 ADD DUP2 DUP2 LT PUSH8 0xFFFFFFFFFFFFFFFF DUP3 GT OR ISZERO PUSH2 0x43F JUMPI PUSH2 0x43E PUSH2 0x3E8 JUMP JUMPDEST JUMPDEST DUP1 PUSH1 0x40 MSTORE POP POP POP JUMP JUMPDEST PUSH1 0x0 PUSH2 0x452 PUSH2 0x3B9 JUMP JUMPDEST SWAP1 POP PUSH2 0x45E DUP3 DUP3 PUSH2 0x417 JUMP JUMPDEST SWAP2 SWAP1 POP JUMP JUMPDEST PUSH1 0x0 PUSH8 0xFFFFFFFFFFFFFFFF DUP3 GT ISZERO PUSH2 0x47E JUMPI PUSH2 0x47D PUSH2 0x3E8 JUMP JUMPDEST JUMPDEST PUSH2 0x487 DUP3 PUSH2 0x3D7 JUMP JUMPDEST SWAP1 POP PUSH1 0x20 DUP2 ADD SWAP1 POP SWAP2 SWAP1 POP JUMP JUMPDEST DUP3 DUP2 DUP4 CALLDATACOPY PUSH1 0x0 DUP4 DUP4 ADD MSTORE POP POP POP JUMP JUMPDEST PUSH1 0x0 PUSH2 0x4B6 PUSH2 0x4B1 DUP5 PUSH2 0x463 JUMP JUMPDEST PUSH2 0x448 JUMP JUMPDEST SWAP1 POP DUP3 DUP2 MSTORE PUSH1 0x20 DUP2 ADD DUP5 DUP5 DUP5 ADD GT ISZERO PUSH2 0x4D2 JUMPI PUSH2 0x4D1 PUSH2 0x3D2 JUMP JUMPDEST JUMPDEST PUSH2 0x4DD DUP5 DUP3 DUP6 PUSH2 0x494 JUMP JUMPDEST POP SWAP4 SWAP3 POP POP POP JUMP JUMPDEST PUSH1 0x0 DUP3 PUSH1 0x1F DUP4 ADD SLT PUSH2 0x4FA JUMPI PUSH2 0x4F9 PUSH2 0x3CD JUMP JUMPDEST JUMPDEST DUP2 CALLDATALOAD PUSH2 0x50A DUP5 DUP3 PUSH1 0x20 DUP7 ADD PUSH2 0x4A3 JUMP JUMPDEST SWAP2 POP POP SWAP3 SWAP2 POP POP JUMP JUMPDEST PUSH1 0x0 PUSH1 0x20 DUP3 DUP5 SUB SLT ISZERO PUSH2 0x529 JUMPI PUSH2 0x528 PUSH2 0x3C3 JUMP JUMPDEST JUMPDEST PUSH1 0x0 DUP3 ADD CALLDATALOAD PUSH8 0xFFFFFFFFFFFFFFFF DUP2 GT ISZERO PUSH2 0x547 JUMPI PUSH2 0x546 PUSH2 0x3C8 JUMP JUMPDEST JUMPDEST PUSH2 0x553 DUP5 DUP3 DUP6 ADD PUSH2 0x4E5 JUMP JUMPDEST SWAP2 POP POP SWAP3 SWAP2 POP POP JUMP JUMPDEST PUSH1 0x0 DUP2 MLOAD SWAP1 POP SWAP2 SWAP1 POP JUMP JUMPDEST PUSH1 0x0 DUP3 DUP3 MSTORE PUSH1 0x20 DUP3 ADD SWAP1 POP SWAP3 SWAP2 POP POP JUMP JUMPDEST PUSH1 0x0 DUP2 SWAP1 POP PUSH1 0x20 DUP3 ADD SWAP1 POP SWAP2 SWAP1 POP JUMP JUMPDEST PUSH1 0x0 DUP2 MLOAD SWAP1 POP SWAP2 SWAP1 POP JUMP JUMPDEST PUSH1 0x0 DUP3 DUP3 MSTORE PUSH1 0x20 DUP3 ADD SWAP1 POP SWAP3 SWAP2 POP POP JUMP JUMPDEST PUSH1 0x0 JUMPDEST DUP4 DUP2 LT ISZERO PUSH2 0x5C2 JUMPI DUP1 DUP3 ADD MLOAD DUP2 DUP5 ADD MSTORE PUSH1 0x20 DUP2 ADD SWAP1 POP PUSH2 0x5A7 JUMP JUMPDEST PUSH1 0x0 DUP5 DUP5 ADD MSTORE POP POP POP POP JUMP JUMPDEST PUSH1 0x0 PUSH2 0x5D9 DUP3 PUSH2 0x588 JUMP JUMPDEST PUSH2 0x5E3 DUP2 DUP6 PUSH2 0x593 JUMP JUMPDEST SWAP4 POP PUSH2 0x5F3 DUP2 DUP6 PUSH1 0x20 DUP7 ADD PUSH2 0x5A4 JUMP JUMPDEST PUSH2 0x5FC DUP2 PUSH2 0x3D7 JUMP JUMPDEST DUP5 ADD SWAP2 POP POP SWAP3 SWAP2 POP POP JUMP JUMPDEST PUSH1 0x0 PUSH2 0x613 DUP4 DUP4 PUSH2 0x5CE JUMP JUMPDEST SWAP1 POP SWAP3 SWAP2 POP POP JUMP JUMPDEST PUSH1 0x0 PUSH1 0x20 DUP3 ADD SWAP1 POP SWAP2 SWAP1 POP JUMP JUMPDEST PUSH1 0x0 PUSH2 0x633 DUP3 PUSH2 0x55C JUMP JUMPDEST PUSH2 0x63D DUP2 DUP6 PUSH2 0x567 JUMP JUMPDEST SWAP4 POP DUP4 PUSH1 0x20 DUP3 MUL DUP6 ADD PUSH2 0x64F DUP6 PUSH2 0x578 JUMP JUMPDEST DUP1 PUSH1 0x0 JUMPDEST DUP6 DUP2 LT ISZERO PUSH2 0x68B JUMPI DUP5 DUP5 SUB DUP10 MSTORE DUP2 MLOAD PUSH2 0x66C DUP6 DUP3 PUSH2 0x607 JUMP JUMPDEST SWAP5 POP PUSH2 0x677 DUP4 PUSH2 0x61B JUMP JUMPDEST SWAP3 POP PUSH1 0x20 DUP11 ADD SWAP10 POP POP PUSH1 0x1 DUP2 ADD SWAP1 POP PUSH2 0x653 JUMP JUMPDEST POP DUP3 SWAP8 POP DUP8 SWAP6 POP POP POP POP POP POP SWAP3 SWAP2 POP POP JUMP JUMPDEST PUSH1 0x0 PUSH1 0x20 DUP3 ADD SWAP1 POP DUP2 DUP2 SUB PUSH1 0x0 DUP4 ADD MSTORE PUSH2 0x6B7 DUP2 DUP5 PUSH2 0x628 JUMP JUMPDEST SWAP1 POP SWAP3 SWAP2 POP POP JUMP JUMPDEST PUSH1 0x0 DUP2 SWAP1 POP SWAP2 SWAP1 POP JUMP JUMPDEST PUSH2 0x6D2 DUP2 PUSH2 0x6BF JUMP JUMPDEST DUP2 EQ PUSH2 0x6DD JUMPI PUSH1 0x0 DUP1 REVERT JUMPDEST POP JUMP JUMPDEST PUSH1 0x0 DUP2 CALLDATALOAD SWAP1 POP PUSH2 0x6EF DUP2 PUSH2 0x6C9 JUMP JUMPDEST SWAP3 SWAP2 POP POP JUMP JUMPDEST PUSH1 0x0 PUSH1 0x20 DUP3 DUP5 SUB SLT ISZERO PUSH2 0x70B JUMPI PUSH2 0x70A PUSH2 0x3C3 JUMP JUMPDEST JUMPDEST PUSH1 0x0 PUSH2 0x719 DUP5 DUP3 DUP6 ADD PUSH2 0x6E0 JUMP JUMPDEST SWAP2 POP POP SWAP3 SWAP2 POP POP JUMP JUMPDEST PUSH1 0x0 DUP3 DUP3 MSTORE PUSH1 0x20 DUP3 ADD SWAP1 POP SWAP3 SWAP2 POP POP JUMP JUMPDEST PUSH1 0x0 PUSH2 0x73E DUP3 PUSH2 0x588 JUMP JUMPDEST PUSH2 0x748 DUP2 DUP6 PUSH2 0x722 JUMP JUMPDEST SWAP4 POP PUSH2 0x758 DUP2 DUP6 PUSH1 0x20 DUP7 ADD PUSH2 0x5A4 JUMP JUMPDEST PUSH2 0x761 DUP2 PUSH2 0x3D7 JUMP JUMPDEST DUP5 ADD SWAP2 POP POP SWAP3 SWAP2 POP POP JUMP JUMPDEST PUSH1 0x0 PUSH1 0x20 DUP3 ADD SWAP1 POP DUP2 DUP2 SUB PUSH1 0x0 DUP4 ADD MSTORE PUSH2 0x786 DUP2 DUP5 PUSH2 0x733 JUMP JUMPDEST SWAP1 POP SWAP3 SWAP2 POP POP JUMP JUMPDEST PUSH32 0x4E487B7100000000000000000000000000000000000000000000000000000000 PUSH1 0x0 MSTORE PUSH1 0x11 PUSH1 0x4 MSTORE PUSH1 0x24 PUSH1 0x0 REVERT JUMPDEST PUSH1 0x0 PUSH2 0x7C8 DUP3 PUSH2 0x6BF JUMP JUMPDEST SWAP2 POP PUSH32 0xFFFFFFFFFFFFFFFFFFFFFFFFFFFFFFFFFFFFFFFFFFFFFFFFFFFFFFFFFFFFFFFF DUP3 SUB PUSH2 0x7FA JUMPI PUSH2 0x7F9 PUSH2 0x78E JUMP JUMPDEST JUMPDEST PUSH1 0x1 DUP3 ADD SWAP1 POP SWAP2 SWAP1 POP JUMP JUMPDEST PUSH32 0x4E487B7100000000000000000000000000000000000000000000000000000000 PUSH1 0x0 MSTORE PUSH1 0x22 PUSH1 0x4 MSTORE PUSH1 0x24 PUSH1 0x0 REVERT JUMPDEST PUSH1 0x0 PUSH1 0x2 DUP3 DIV SWAP1 POP PUSH1 0x1 DUP3 AND DUP1 PUSH2 0x84C JUMPI PUSH1 0x7F DUP3 AND SWAP2 POP JUMPDEST PUSH1 0x20 DUP3 LT DUP2 SUB PUSH2 0x85F JUMPI PUSH2 0x85E PUSH2 0x805 JUMP JUMPDEST JUMPDEST POP SWAP2 SWAP1 POP JUMP JUMPDEST PUSH1 0x0 DUP2 SWAP1 POP DUP2 PUSH1 0x0 MSTORE PUSH1 0x20 PUSH1 0x0 KECCAK256 SWAP1 POP SWAP2 SWAP1 POP JUMP JUMPDEST PUSH1 0x0 PUSH1 0x20 PUSH1 0x1F DUP4 ADD DIV SWAP1 POP SWAP2 SWAP1 POP JUMP JUMPDEST PUSH1 0x0 DUP3 DUP3 SHL SWAP1 POP SWAP3 SWAP2 POP POP JUMP JUMPDEST PUSH1 0x0 PUSH1 0x8 DUP4 MUL PUSH2 0x8C7 PUSH32 0xFFFFFFFFFFFFFFFFFFFFFFFFFFFFFFFFFFFFFFFFFFFFFFFFFFFFFFFFFFFFFFFF DUP3 PUSH2 0x88A JUMP JUMPDEST PUSH2 0x8D1 DUP7 DUP4 PUSH2 0x88A JUMP JUMPDEST SWAP6 POP DUP1 NOT DUP5 AND SWAP4 POP DUP1 DUP7 AND DUP5 OR SWAP3 POP POP POP SWAP4 SWAP3 POP POP POP JUMP JUMPDEST PUSH1 0x0 DUP2 SWAP1 POP SWAP2 SWAP1 POP JUMP JUMPDEST PUSH1 0x0 PUSH2 0x90E PUSH2 0x909 PUSH2 0x904 DUP5 PUSH2 0x6BF JUMP JUMPDEST PUSH2 0x8E9 JUMP JUMPDEST PUSH2 0x6BF JUMP JUMPDEST SWAP1 POP SWAP2 SWAP1 POP JUMP JUMPDEST PUSH1 0x0 DUP2 SWAP1 POP SWAP2 SWAP1 POP JUMP JUMPDEST PUSH2 0x928 DUP4 PUSH2 0x8F3 JUMP JUMPDEST PUSH2 0x93C PUSH2 0x934 DUP3 PUSH2 0x915 JUMP JUMPDEST DUP5 DUP5 SLOAD PUSH2 0x897 JUMP JUMPDEST DUP3 SSTORE POP POP POP POP JUMP JUMPDEST PUSH1 0x0 SWAP1 JUMP JUMPDEST PUSH2 0x951 PUSH2 0x944 JUMP JUMPDEST PUSH2 0x95C DUP2 DUP5 DUP5 PUSH2 0x91F JUMP JUMPDEST POP POP POP JUMP JUMPDEST JUMPDEST DUP2 DUP2 LT ISZERO PUSH2 0x980 JUMPI PUSH2 0x975 PUSH1 0x0 DUP3 PUSH2 0x949 JUMP JUMPDEST PUSH1 0x1 DUP2 ADD SWAP1 POP PUSH2 0x962 JUMP JUMPDEST POP POP JUMP JUMPDEST PUSH1 0x1F DUP3 GT ISZERO PUSH2 0x9C5 JUMPI PUSH2 0x996 DUP2 PUSH2 0x865 JUMP JUMPDEST PUSH2 0x99F DUP5 PUSH2 0x87A JUMP JUMPDEST DUP2 ADD PUSH1 0x20 DUP6 LT ISZERO PUSH2 0x9AE JUMPI DUP2 SWAP1 POP JUMPDEST PUSH2 0x9C2 PUSH2 0x9BA DUP6 PUSH2 0x87A JUMP JUMPDEST DUP4 ADD DUP3 PUSH2 0x961 JUMP JUMPDEST POP POP JUMPDEST POP POP POP JUMP JUMPDEST PUSH1 0x0 DUP3 DUP3 SHR SWAP1 POP SWAP3 SWAP2 POP POP JUMP JUMPDEST PUSH1 0x0 PUSH2 0x9E8 PUSH1 0x0 NOT DUP5 PUSH1 0x8 MUL PUSH2 0x9CA JUMP JUMPDEST NOT DUP1 DUP4 AND SWAP2 POP POP SWAP3 SWAP2 POP POP JUMP JUMPDEST PUSH1 0x0 PUSH2 0xA01 DUP4 DUP4 PUSH2 0x9D7 JUMP JUMPDEST SWAP2 POP DUP3 PUSH1 0x2 MUL DUP3 OR SWAP1 POP SWAP3 SWAP2 POP POP JUMP JUMPDEST PUSH2 0xA1A DUP3 PUSH2 0x588 JUMP JUMPDEST PUSH8 0xFFFFFFFFFFFFFFFF DUP2 GT ISZERO PUSH2 0xA33 JUMPI PUSH2 0xA32 PUSH2 0x3E8 JUMP JUMPDEST JUMPDEST PUSH2 0xA3D DUP3 SLOAD PUSH2 0x834 JUMP JUMPDEST PUSH2 0xA48 DUP3 DUP3 DUP6 PUSH2 0x984 JUMP JUMPDEST PUSH1 0x0 PUSH1 0x20 SWAP1 POP PUSH1 0x1F DUP4 GT PUSH1 0x1 DUP2 EQ PUSH2 0xA7B JUMPI PUSH1 0x0 DUP5 ISZERO PUSH2 0xA69 JUMPI DUP3 DUP8 ADD MLOAD SWAP1 POP JUMPDEST PUSH2 0xA73 DUP6 DUP3 PUSH2 0x9F5 JUMP JUMPDEST DUP7 SSTORE POP PUSH2 0xADB JUMP JUMPDEST PUSH1 0x1F NOT DUP5 AND PUSH2 0xA89 DUP7 PUSH2 0x865 JUMP JUMPDEST PUSH1 0x0 JUMPDEST DUP3 DUP2 LT ISZERO PUSH2 0xAB1 JUMPI DUP5 DUP10 ADD MLOAD DUP3 SSTORE PUSH1 0x1 DUP3 ADD SWAP2 POP PUSH1 0x20 DUP6 ADD SWAP5 POP PUSH1 0x20 DUP2 ADD SWAP1 POP PUSH2 0xA8C JUMP JUMPDEST DUP7 DUP4 LT ISZERO PUSH2 0xACE JUMPI DUP5 DUP10 ADD MLOAD PUSH2 0xACA PUSH1 0x1F DUP10 AND DUP3 PUSH2 0x9D7 JUMP JUMPDEST DUP4 SSTORE POP JUMPDEST PUSH1 0x1 PUSH1 0x2 DUP9 MUL ADD DUP9 SSTORE POP POP POP JUMPDEST POP POP POP POP POP POP JUMP JUMPDEST PUSH1 0x0 DUP2 SLOAD SWAP1 POP PUSH2 0xAF2 DUP2 PUSH2 0x834 JUMP JUMPDEST SWAP1 POP SWAP2 SWAP1 POP JUMP JUMPDEST PUSH1 0x0 DUP2 SWAP1 POP DUP2 PUSH1 0x0 MSTORE PUSH1 0x20 PUSH1 0x0 KECCAK256 SWAP1 POP SWAP2 SWAP1 POP JUMP JUMPDEST DUP2 DUP2 SUB PUSH2 0xB1C JUMPI POP POP PUSH2 0xBF4 JUMP JUMPDEST PUSH2 0xB25 DUP3 PUSH2 0xAE3 JUMP JUMPDEST PUSH8 0xFFFFFFFFFFFFFFFF DUP2 GT ISZERO PUSH2 0xB3E JUMPI PUSH2 0xB3D PUSH2 0x3E8 JUMP JUMPDEST JUMPDEST PUSH2 0xB48 DUP3 SLOAD PUSH2 0x834 JUMP JUMPDEST PUSH2 0xB53 DUP3 DUP3 DUP6 PUSH2 0x984 JUMP JUMPDEST PUSH1 0x0 PUSH1 0x1F DUP4 GT PUSH1 0x1 DUP2 EQ PUSH2 0xB82 JUMPI PUSH1 0x0 DUP5 ISZERO PUSH2 0xB70 JUMPI DUP3 DUP8 ADD SLOAD SWAP1 POP JUMPDEST PUSH2 0xB7A DUP6 DUP3 PUSH2 0x9F5 JUMP JUMPDEST DUP7 SSTORE POP PUSH2 0xBED JUMP JUMPDEST PUSH1 0x1F NOT DUP5 AND PUSH2 0xB90 DUP8 PUSH2 0xAF9 JUMP JUMPDEST SWAP7 POP PUSH2 0xB9B DUP7 PUSH2 0x865 JUMP JUMPDEST PUSH1 0x0 JUMPDEST DUP3 DUP2 LT ISZERO PUSH2 0xBC3 JUMPI DUP5 DUP10 ADD SLOAD DUP3 SSTORE PUSH1 0x1 DUP3 ADD SWAP2 POP PUSH1 0x1 DUP6 ADD SWAP5 POP PUSH1 0x20 DUP2 ADD SWAP1 POP PUSH2 0xB9E JUMP JUMPDEST DUP7 DUP4 LT ISZERO PUSH2 0xBE0 JUMPI DUP5 DUP10 ADD SLOAD PUSH2 0xBDC PUSH1 0x1F DUP10 AND DUP3 PUSH2 0x9D7 JUMP JUMPDEST DUP4 SSTORE POP JUMPDEST PUSH1 0x1 PUSH1 0x2 DUP9 MUL ADD DUP9 SSTORE POP POP POP JUMPDEST POP POP POP POP POP POP JUMPDEST JUMP INVALID LOG2 PUSH5 0x6970667358 0x22 SLT KECCAK256 SAR MOD SELFDESTRUCT 0xB8 0x25 0xD5 0x24 0xEA 0x4C PUSH25 0x3917551B69BE328618818075371F8BD9A191B235A3E464736F PUSH13 0x63430008120033000000000000 "
				},
				"gasEstimates": {
					"creation": {
						"codeDepositCost": "623200",
						"executionCost": "657",
						"totalCost": "623857"
					},
					"external": {
						"GetAllValue()": "infinite",
						"addName(string)": "infinite",
						"myarray(uint256)": "infinite",
						"mymapping(uint256)": "infinite"
					}
				},
				"methodIdentifiers": {
					"GetAllValue()": "4a4c5cb8",
					"addName(string)": "11456b47",
					"myarray(uint256)": "b10a4c6c",
					"mymapping(uint256)": "bb58e356"
				}
			},
			"storageLayout": {
				"storage": [
					{
						"astId": 4,
						"contract": "contracts/mappingName.sol:addnameMapping",
						"label": "myarray",
						"offset": 0,
						"slot": "0",
						"type": "t_array(t_string_storage)dyn_storage"
					},
					{
						"astId": 6,
						"contract": "contracts/mappingName.sol:addnameMapping",
						"label": "counter",
						"offset": 0,
						"slot": "1",
						"type": "t_uint256"
					},
					{
						"astId": 10,
						"contract": "contracts/mappingName.sol:addnameMapping",
						"label": "mymapping",
						"offset": 0,
						"slot": "2",
						"type": "t_mapping(t_uint256,t_string_storage)"
					}
				],
				"types": {
					"t_array(t_string_storage)dyn_storage": {
						"base": "t_string_storage",
						"encoding": "dynamic_array",
						"label": "string[]",
						"numberOfBytes": "32"
					},
					"t_mapping(t_uint256,t_string_storage)": {
						"encoding": "mapping",
						"key": "t_uint256",
						"label": "mapping(uint256 => string)",
						"numberOfBytes": "32",
						"value": "t_string_storage"
					},
					"t_string_storage": {
						"encoding": "bytes",
						"label": "string",
						"numberOfBytes": "32"
					},
					"t_uint256": {
						"encoding": "inplace",
						"label": "uint256",
						"numberOfBytes": "32"
					}
				}
			},
			"userdoc": {
				"kind": "user",
				"methods": {},
				"version": 1
			}
		}
	}
}