{
	"contracts/walletKYOC.sol": {
		"Wallet": {
			"abi": [
				{
					"inputs": [],
					"stateMutability": "nonpayable",
					"type": "constructor"
				},
				{
					"inputs": [
						{
							"internalType": "uint256",
							"name": "_id",
							"type": "uint256"
						},
						{
							"internalType": "string",
							"name": "_name",
							"type": "string"
						},
						{
							"internalType": "uint256",
							"name": "_balance",
							"type": "uint256"
						},
						{
							"internalType": "address",
							"name": "addr",
							"type": "address"
						}
					],
					"name": "AddUser",
					"outputs": [],
					"stateMutability": "nonpayable",
					"type": "function"
				},
				{
					"inputs": [],
					"name": "Deposit",
					"outputs": [],
					"stateMutability": "payable",
					"type": "function"
				},
				{
					"inputs": [
						{
							"internalType": "address",
							"name": "userId",
							"type": "address"
						}
					],
					"name": "KYOC",
					"outputs": [],
					"stateMutability": "nonpayable",
					"type": "function"
				},
				{
					"inputs": [
						{
							"internalType": "address",
							"name": "",
							"type": "address"
						}
					],
					"name": "Users",
					"outputs": [
						{
							"internalType": "uint256",
							"name": "Id",
							"type": "uint256"
						},
						{
							"internalType": "string",
							"name": "name",
							"type": "string"
						},
						{
							"internalType": "uint256",
							"name": "balance",
							"type": "uint256"
						},
						{
							"internalType": "bool",
							"name": "kyoc",
							"type": "bool"
						}
					],
					"stateMutability": "view",
					"type": "function"
				},
				{
					"inputs": [
						{
							"internalType": "uint256",
							"name": "amount",
							"type": "uint256"
						}
					],
					"name": "Withdraw",
					"outputs": [],
					"stateMutability": "payable",
					"type": "function"
				},
				{
					"inputs": [],
					"name": "balance",
					"outputs": [
						{
							"internalType": "uint256",
							"name": "",
							"type": "uint256"
						}
					],
					"stateMutability": "view",
					"type": "function"
				}
			],
			"devdoc": {
				"kind": "dev",
				"methods": {},
				"version": 1
			},
			"evm": {
				"assembly": "    /* \"contracts/walletKYOC.sol\":66:1379  contract Wallet{... */\n  mstore(0x40, 0x80)\n    /* \"contracts/walletKYOC.sol\":370:424  constructor (){... */\n  callvalue\n  dup1\n  iszero\n  tag_1\n  jumpi\n  0x00\n  dup1\n  revert\ntag_1:\n  pop\n    /* \"contracts/walletKYOC.sol\":403:413  msg.sender */\n  caller\n    /* \"contracts/walletKYOC.sol\":395:400  owner */\n  0x00\n  dup1\n    /* \"contracts/walletKYOC.sol\":395:413  owner = msg.sender */\n  0x0100\n  exp\n  dup2\n  sload\n  dup2\n  0xffffffffffffffffffffffffffffffffffffffff\n  mul\n  not\n  and\n  swap1\n  dup4\n  0xffffffffffffffffffffffffffffffffffffffff\n  and\n  mul\n  or\n  swap1\n  sstore\n  pop\n    /* \"contracts/walletKYOC.sol\":66:1379  contract Wallet{... */\n  dataSize(sub_0)\n  dup1\n  dataOffset(sub_0)\n  0x00\n  codecopy\n  0x00\n  return\nstop\n\nsub_0: assembly {\n        /* \"contracts/walletKYOC.sol\":66:1379  contract Wallet{... */\n      mstore(0x40, 0x80)\n      jumpi(tag_1, lt(calldatasize, 0x04))\n      shr(0xe0, calldataload(0x00))\n      dup1\n      0x5b6b431d\n      eq\n      tag_2\n      jumpi\n      dup1\n      0x99b956a0\n      eq\n      tag_3\n      jumpi\n      dup1\n      0x9f2b3d30\n      eq\n      tag_4\n      jumpi\n      dup1\n      0xb69ef8a8\n      eq\n      tag_5\n      jumpi\n      dup1\n      0xbf66b3d7\n      eq\n      tag_6\n      jumpi\n      dup1\n      0xed21248c\n      eq\n      tag_7\n      jumpi\n    tag_1:\n      0x00\n      dup1\n      revert\n        /* \"contracts/walletKYOC.sol\":1024:1372  function Withdraw(uint amount)public payable{... */\n    tag_2:\n      tag_8\n      0x04\n      dup1\n      calldatasize\n      sub\n      dup2\n      add\n      swap1\n      tag_9\n      swap2\n      swap1\n      tag_10\n      jump\t// in\n    tag_9:\n      tag_11\n      jump\t// in\n    tag_8:\n      stop\n        /* \"contracts/walletKYOC.sol\":163:201  mapping (address => user) public Users */\n    tag_3:\n      callvalue\n      dup1\n      iszero\n      tag_12\n      jumpi\n      0x00\n      dup1\n      revert\n    tag_12:\n      pop\n      tag_13\n      0x04\n      dup1\n      calldatasize\n      sub\n      dup2\n      add\n      swap1\n      tag_14\n      swap2\n      swap1\n      tag_15\n      jump\t// in\n    tag_14:\n      tag_16\n      jump\t// in\n    tag_13:\n      mload(0x40)\n      tag_17\n      swap5\n      swap4\n      swap3\n      swap2\n      swap1\n      tag_18\n      jump\t// in\n    tag_17:\n      mload(0x40)\n      dup1\n      swap2\n      sub\n      swap1\n      return\n        /* \"contracts/walletKYOC.sol\":541:774  function AddUser(uint _id, string memory _name, uint _balance, address addr) public{... */\n    tag_4:\n      callvalue\n      dup1\n      iszero\n      tag_19\n      jumpi\n      0x00\n      dup1\n      revert\n    tag_19:\n      pop\n      tag_20\n      0x04\n      dup1\n      calldatasize\n      sub\n      dup2\n      add\n      swap1\n      tag_21\n      swap2\n      swap1\n      tag_22\n      jump\t// in\n    tag_21:\n      tag_23\n      jump\t// in\n    tag_20:\n      stop\n        /* \"contracts/walletKYOC.sol\":112:131  uint public balance */\n    tag_5:\n      callvalue\n      dup1\n      iszero\n      tag_24\n      jumpi\n      0x00\n      dup1\n      revert\n    tag_24:\n      pop\n      tag_25\n      tag_26\n      jump\t// in\n    tag_25:\n      mload(0x40)\n      tag_27\n      swap2\n      swap1\n      tag_28\n      jump\t// in\n    tag_27:\n      mload(0x40)\n      dup1\n      swap2\n      sub\n      swap1\n      return\n        /* \"contracts/walletKYOC.sol\":780:873  function KYOC(address userId) public onlyowner{... */\n    tag_6:\n      callvalue\n      dup1\n      iszero\n      tag_29\n      jumpi\n      0x00\n      dup1\n      revert\n    tag_29:\n      pop\n      tag_30\n      0x04\n      dup1\n      calldatasize\n      sub\n      dup2\n      add\n      swap1\n      tag_31\n      swap2\n      swap1\n      tag_15\n      jump\t// in\n    tag_31:\n      tag_32\n      jump\t// in\n    tag_30:\n      stop\n        /* \"contracts/walletKYOC.sol\":885:1015  function Deposit() public payable{... */\n    tag_7:\n      tag_33\n      tag_34\n      jump\t// in\n    tag_33:\n      stop\n        /* \"contracts/walletKYOC.sol\":1024:1372  function Withdraw(uint amount)public payable{... */\n    tag_11:\n        /* \"contracts/walletKYOC.sol\":1088:1093  Users */\n      0x03\n        /* \"contracts/walletKYOC.sol\":1088:1105  Users[msg.sender] */\n      0x00\n        /* \"contracts/walletKYOC.sol\":1094:1104  msg.sender */\n      caller\n        /* \"contracts/walletKYOC.sol\":1088:1105  Users[msg.sender] */\n      0xffffffffffffffffffffffffffffffffffffffff\n      and\n      0xffffffffffffffffffffffffffffffffffffffff\n      and\n      dup2\n      mstore\n      0x20\n      add\n      swap1\n      dup2\n      mstore\n      0x20\n      add\n      0x00\n      keccak256\n        /* \"contracts/walletKYOC.sol\":1088:1110  Users[msg.sender].kyoc */\n      0x03\n      add\n      0x00\n      swap1\n      sload\n      swap1\n      0x0100\n      exp\n      swap1\n      div\n      0xff\n      and\n        /* \"contracts/walletKYOC.sol\":1079:1126  require (Users[msg.sender].kyoc, \"Not APPROVE\") */\n      tag_36\n      jumpi\n      mload(0x40)\n      0x08c379a000000000000000000000000000000000000000000000000000000000\n      dup2\n      mstore\n      0x04\n      add\n      tag_37\n      swap1\n      tag_38\n      jump\t// in\n    tag_37:\n      mload(0x40)\n      dup1\n      swap2\n      sub\n      swap1\n      revert\n    tag_36:\n        /* \"contracts/walletKYOC.sol\":1156:1163  balance */\n      sload(0x01)\n        /* \"contracts/walletKYOC.sol\":1146:1152  amount */\n      dup2\n        /* \"contracts/walletKYOC.sol\":1146:1163  amount <= balance */\n      gt\n      iszero\n        /* \"contracts/walletKYOC.sol\":1137:1197  require (amount <= balance,\"you do not have enough balance\") */\n      tag_39\n      jumpi\n      mload(0x40)\n      0x08c379a000000000000000000000000000000000000000000000000000000000\n      dup2\n      mstore\n      0x04\n      add\n      tag_40\n      swap1\n      tag_41\n      jump\t// in\n    tag_40:\n      mload(0x40)\n      dup1\n      swap2\n      sub\n      swap1\n      revert\n    tag_39:\n        /* \"contracts/walletKYOC.sol\":1219:1228  bool sent */\n      0x00\n        /* \"contracts/walletKYOC.sol\":1230:1247  bytes memory data */\n      dup1\n        /* \"contracts/walletKYOC.sol\":1251:1261  msg.sender */\n      caller\n        /* \"contracts/walletKYOC.sol\":1251:1266  msg.sender.call */\n      0xffffffffffffffffffffffffffffffffffffffff\n      and\n        /* \"contracts/walletKYOC.sol\":1273:1279  amount */\n      dup4\n        /* \"contracts/walletKYOC.sol\":1284:1288  2000 */\n      0x07d0\n        /* \"contracts/walletKYOC.sol\":1251:1293  msg.sender.call{value:amount,gas:2000}(\"\") */\n      swap1\n      mload(0x40)\n      tag_42\n      swap1\n      tag_43\n      jump\t// in\n    tag_42:\n      0x00\n      mload(0x40)\n      dup1\n      dup4\n      sub\n      dup2\n      dup6\n      dup9\n      dup9\n      call\n      swap4\n      pop\n      pop\n      pop\n      pop\n      returndatasize\n      dup1\n      0x00\n      dup2\n      eq\n      tag_46\n      jumpi\n      mload(0x40)\n      swap2\n      pop\n      and(add(returndatasize, 0x3f), not(0x1f))\n      dup3\n      add\n      0x40\n      mstore\n      returndatasize\n      dup3\n      mstore\n      returndatasize\n      0x00\n      0x20\n      dup5\n      add\n      returndatacopy\n      jump(tag_45)\n    tag_46:\n      0x60\n      swap2\n      pop\n    tag_45:\n      pop\n        /* \"contracts/walletKYOC.sol\":1218:1294  (bool sent, bytes memory data) =(msg.sender.call{value:amount,gas:2000}(\"\")) */\n      swap2\n      pop\n      swap2\n      pop\n        /* \"contracts/walletKYOC.sol\":1336:1340  sent */\n      dup2\n        /* \"contracts/walletKYOC.sol\":1327:1364  require (sent, \"transsaction failed\") */\n      tag_47\n      jumpi\n      mload(0x40)\n      0x08c379a000000000000000000000000000000000000000000000000000000000\n      dup2\n      mstore\n      0x04\n      add\n      tag_48\n      swap1\n      tag_49\n      jump\t// in\n    tag_48:\n      mload(0x40)\n      dup1\n      swap2\n      sub\n      swap1\n      revert\n    tag_47:\n        /* \"contracts/walletKYOC.sol\":1068:1372  {... */\n      pop\n      pop\n        /* \"contracts/walletKYOC.sol\":1024:1372  function Withdraw(uint amount)public payable{... */\n      pop\n      jump\t// out\n        /* \"contracts/walletKYOC.sol\":163:201  mapping (address => user) public Users */\n    tag_16:\n      mstore(0x20, 0x03)\n      dup1\n      0x00\n      mstore\n      keccak256(0x00, 0x40)\n      0x00\n      swap2\n      pop\n      swap1\n      pop\n      dup1\n      0x00\n      add\n      sload\n      swap1\n      dup1\n      0x01\n      add\n      dup1\n      sload\n      tag_50\n      swap1\n      tag_51\n      jump\t// in\n    tag_50:\n      dup1\n      0x1f\n      add\n      0x20\n      dup1\n      swap2\n      div\n      mul\n      0x20\n      add\n      mload(0x40)\n      swap1\n      dup2\n      add\n      0x40\n      mstore\n      dup1\n      swap3\n      swap2\n      swap1\n      dup2\n      dup2\n      mstore\n      0x20\n      add\n      dup3\n      dup1\n      sload\n      tag_52\n      swap1\n      tag_51\n      jump\t// in\n    tag_52:\n      dup1\n      iszero\n      tag_53\n      jumpi\n      dup1\n      0x1f\n      lt\n      tag_54\n      jumpi\n      0x0100\n      dup1\n      dup4\n      sload\n      div\n      mul\n      dup4\n      mstore\n      swap2\n      0x20\n      add\n      swap2\n      jump(tag_53)\n    tag_54:\n      dup3\n      add\n      swap2\n      swap1\n      0x00\n      mstore\n      keccak256(0x00, 0x20)\n      swap1\n    tag_55:\n      dup2\n      sload\n      dup2\n      mstore\n      swap1\n      0x01\n      add\n      swap1\n      0x20\n      add\n      dup1\n      dup4\n      gt\n      tag_55\n      jumpi\n      dup3\n      swap1\n      sub\n      0x1f\n      and\n      dup3\n      add\n      swap2\n    tag_53:\n      pop\n      pop\n      pop\n      pop\n      pop\n      swap1\n      dup1\n      0x02\n      add\n      sload\n      swap1\n      dup1\n      0x03\n      add\n      0x00\n      swap1\n      sload\n      swap1\n      0x0100\n      exp\n      swap1\n      div\n      0xff\n      and\n      swap1\n      pop\n      dup5\n      jump\t// out\n        /* \"contracts/walletKYOC.sol\":541:774  function AddUser(uint _id, string memory _name, uint _balance, address addr) public{... */\n    tag_23:\n        /* \"contracts/walletKYOC.sol\":652:655  _id */\n      dup4\n        /* \"contracts/walletKYOC.sol\":635:640  Users */\n      0x03\n        /* \"contracts/walletKYOC.sol\":635:646  Users[addr] */\n      0x00\n        /* \"contracts/walletKYOC.sol\":641:645  addr */\n      dup4\n        /* \"contracts/walletKYOC.sol\":635:646  Users[addr] */\n      0xffffffffffffffffffffffffffffffffffffffff\n      and\n      0xffffffffffffffffffffffffffffffffffffffff\n      and\n      dup2\n      mstore\n      0x20\n      add\n      swap1\n      dup2\n      mstore\n      0x20\n      add\n      0x00\n      keccak256\n        /* \"contracts/walletKYOC.sol\":635:649  Users[addr].Id */\n      0x00\n      add\n        /* \"contracts/walletKYOC.sol\":635:655  Users[addr].Id = _id */\n      dup2\n      swap1\n      sstore\n      pop\n        /* \"contracts/walletKYOC.sol\":685:690  _name */\n      dup3\n        /* \"contracts/walletKYOC.sol\":666:671  Users */\n      0x03\n        /* \"contracts/walletKYOC.sol\":666:677  Users[addr] */\n      0x00\n        /* \"contracts/walletKYOC.sol\":672:676  addr */\n      dup4\n        /* \"contracts/walletKYOC.sol\":666:677  Users[addr] */\n      0xffffffffffffffffffffffffffffffffffffffff\n      and\n      0xffffffffffffffffffffffffffffffffffffffff\n      and\n      dup2\n      mstore\n      0x20\n      add\n      swap1\n      dup2\n      mstore\n      0x20\n      add\n      0x00\n      keccak256\n        /* \"contracts/walletKYOC.sol\":666:682  Users[addr].name */\n      0x01\n      add\n        /* \"contracts/walletKYOC.sol\":666:690  Users[addr].name = _name */\n      swap1\n      dup2\n      tag_57\n      swap2\n      swap1\n      tag_58\n      jump\t// in\n    tag_57:\n      pop\n        /* \"contracts/walletKYOC.sol\":723:731  _balance */\n      dup2\n        /* \"contracts/walletKYOC.sol\":701:706  Users */\n      0x03\n        /* \"contracts/walletKYOC.sol\":701:712  Users[addr] */\n      0x00\n        /* \"contracts/walletKYOC.sol\":707:711  addr */\n      dup4\n        /* \"contracts/walletKYOC.sol\":701:712  Users[addr] */\n      0xffffffffffffffffffffffffffffffffffffffff\n      and\n      0xffffffffffffffffffffffffffffffffffffffff\n      and\n      dup2\n      mstore\n      0x20\n      add\n      swap1\n      dup2\n      mstore\n      0x20\n      add\n      0x00\n      keccak256\n        /* \"contracts/walletKYOC.sol\":701:720  Users[addr].balance */\n      0x02\n      add\n        /* \"contracts/walletKYOC.sol\":701:731  Users[addr].balance = _balance */\n      dup2\n      swap1\n      sstore\n      pop\n        /* \"contracts/walletKYOC.sol\":761:766  false */\n      0x00\n        /* \"contracts/walletKYOC.sol\":742:747  Users */\n      0x03\n        /* \"contracts/walletKYOC.sol\":742:753  Users[addr] */\n      0x00\n        /* \"contracts/walletKYOC.sol\":748:752  addr */\n      dup4\n        /* \"contracts/walletKYOC.sol\":742:753  Users[addr] */\n      0xffffffffffffffffffffffffffffffffffffffff\n      and\n      0xffffffffffffffffffffffffffffffffffffffff\n      and\n      dup2\n      mstore\n      0x20\n      add\n      swap1\n      dup2\n      mstore\n      0x20\n      add\n      0x00\n      keccak256\n        /* \"contracts/walletKYOC.sol\":742:758  Users[addr].kyoc */\n      0x03\n      add\n      0x00\n        /* \"contracts/walletKYOC.sol\":742:766  Users[addr].kyoc = false */\n      0x0100\n      exp\n      dup2\n      sload\n      dup2\n      0xff\n      mul\n      not\n      and\n      swap1\n      dup4\n      iszero\n      iszero\n      mul\n      or\n      swap1\n      sstore\n      pop\n        /* \"contracts/walletKYOC.sol\":541:774  function AddUser(uint _id, string memory _name, uint _balance, address addr) public{... */\n      pop\n      pop\n      pop\n      pop\n      jump\t// out\n        /* \"contracts/walletKYOC.sol\":112:131  uint public balance */\n    tag_26:\n      sload(0x01)\n      dup2\n      jump\t// out\n        /* \"contracts/walletKYOC.sol\":780:873  function KYOC(address userId) public onlyowner{... */\n    tag_32:\n        /* \"contracts/walletKYOC.sol\":482:487  owner */\n      0x00\n      dup1\n      sload\n      swap1\n      0x0100\n      exp\n      swap1\n      div\n      0xffffffffffffffffffffffffffffffffffffffff\n      and\n        /* \"contracts/walletKYOC.sol\":468:487  msg.sender == owner */\n      0xffffffffffffffffffffffffffffffffffffffff\n      and\n        /* \"contracts/walletKYOC.sol\":468:478  msg.sender */\n      caller\n        /* \"contracts/walletKYOC.sol\":468:487  msg.sender == owner */\n      0xffffffffffffffffffffffffffffffffffffffff\n      and\n      eq\n        /* \"contracts/walletKYOC.sol\":459:513  require (msg.sender == owner, \"you are not and owner\") */\n      tag_60\n      jumpi\n      mload(0x40)\n      0x08c379a000000000000000000000000000000000000000000000000000000000\n      dup2\n      mstore\n      0x04\n      add\n      tag_61\n      swap1\n      tag_62\n      jump\t// in\n    tag_61:\n      mload(0x40)\n      dup1\n      swap2\n      sub\n      swap1\n      revert\n    tag_60:\n        /* \"contracts/walletKYOC.sol\":858:862  true */\n      0x01\n        /* \"contracts/walletKYOC.sol\":837:842  Users */\n      0x03\n        /* \"contracts/walletKYOC.sol\":837:850  Users[userId] */\n      0x00\n        /* \"contracts/walletKYOC.sol\":843:849  userId */\n      dup4\n        /* \"contracts/walletKYOC.sol\":837:850  Users[userId] */\n      0xffffffffffffffffffffffffffffffffffffffff\n      and\n      0xffffffffffffffffffffffffffffffffffffffff\n      and\n      dup2\n      mstore\n      0x20\n      add\n      swap1\n      dup2\n      mstore\n      0x20\n      add\n      0x00\n      keccak256\n        /* \"contracts/walletKYOC.sol\":837:855  Users[userId].kyoc */\n      0x03\n      add\n      0x00\n        /* \"contracts/walletKYOC.sol\":837:862  Users[userId].kyoc = true */\n      0x0100\n      exp\n      dup2\n      sload\n      dup2\n      0xff\n      mul\n      not\n      and\n      swap1\n      dup4\n      iszero\n      iszero\n      mul\n      or\n      swap1\n      sstore\n      pop\n        /* \"contracts/walletKYOC.sol\":780:873  function KYOC(address userId) public onlyowner{... */\n      pop\n      jump\t// out\n        /* \"contracts/walletKYOC.sol\":885:1015  function Deposit() public payable{... */\n    tag_34:\n        /* \"contracts/walletKYOC.sol\":938:943  Users */\n      0x03\n        /* \"contracts/walletKYOC.sol\":938:955  Users[msg.sender] */\n      0x00\n        /* \"contracts/walletKYOC.sol\":944:954  msg.sender */\n      caller\n        /* \"contracts/walletKYOC.sol\":938:955  Users[msg.sender] */\n      0xffffffffffffffffffffffffffffffffffffffff\n      and\n      0xffffffffffffffffffffffffffffffffffffffff\n      and\n      dup2\n      mstore\n      0x20\n      add\n      swap1\n      dup2\n      mstore\n      0x20\n      add\n      0x00\n      keccak256\n        /* \"contracts/walletKYOC.sol\":938:960  Users[msg.sender].kyoc */\n      0x03\n      add\n      0x00\n      swap1\n      sload\n      swap1\n      0x0100\n      exp\n      swap1\n      div\n      0xff\n      and\n        /* \"contracts/walletKYOC.sol\":929:976  require (Users[msg.sender].kyoc, \"Not APPROVE\") */\n      tag_65\n      jumpi\n      mload(0x40)\n      0x08c379a000000000000000000000000000000000000000000000000000000000\n      dup2\n      mstore\n      0x04\n      add\n      tag_66\n      swap1\n      tag_38\n      jump\t// in\n    tag_66:\n      mload(0x40)\n      dup1\n      swap2\n      sub\n      swap1\n      revert\n    tag_65:\n        /* \"contracts/walletKYOC.sol\":997:1006  msg.value */\n      callvalue\n        /* \"contracts/walletKYOC.sol\":987:994  balance */\n      0x01\n      0x00\n        /* \"contracts/walletKYOC.sol\":987:1006  balance +=msg.value */\n      dup3\n      dup3\n      sload\n      tag_67\n      swap2\n      swap1\n      tag_68\n      jump\t// in\n    tag_67:\n      swap3\n      pop\n      pop\n      dup2\n      swap1\n      sstore\n      pop\n        /* \"contracts/walletKYOC.sol\":885:1015  function Deposit() public payable{... */\n      jump\t// out\n        /* \"#utility.yul\":7:82   */\n    tag_69:\n        /* \"#utility.yul\":40:46   */\n      0x00\n        /* \"#utility.yul\":73:75   */\n      0x40\n        /* \"#utility.yul\":67:76   */\n      mload\n        /* \"#utility.yul\":57:76   */\n      swap1\n      pop\n        /* \"#utility.yul\":7:82   */\n      swap1\n      jump\t// out\n        /* \"#utility.yul\":88:205   */\n    tag_70:\n        /* \"#utility.yul\":197:198   */\n      0x00\n        /* \"#utility.yul\":194:195   */\n      dup1\n        /* \"#utility.yul\":187:199   */\n      revert\n        /* \"#utility.yul\":211:328   */\n    tag_71:\n        /* \"#utility.yul\":320:321   */\n      0x00\n        /* \"#utility.yul\":317:318   */\n      dup1\n        /* \"#utility.yul\":310:322   */\n      revert\n        /* \"#utility.yul\":334:411   */\n    tag_72:\n        /* \"#utility.yul\":371:378   */\n      0x00\n        /* \"#utility.yul\":400:405   */\n      dup2\n        /* \"#utility.yul\":389:405   */\n      swap1\n      pop\n        /* \"#utility.yul\":334:411   */\n      swap2\n      swap1\n      pop\n      jump\t// out\n        /* \"#utility.yul\":417:539   */\n    tag_73:\n        /* \"#utility.yul\":490:514   */\n      tag_130\n        /* \"#utility.yul\":508:513   */\n      dup2\n        /* \"#utility.yul\":490:514   */\n      tag_72\n      jump\t// in\n    tag_130:\n        /* \"#utility.yul\":483:488   */\n      dup2\n        /* \"#utility.yul\":480:515   */\n      eq\n        /* \"#utility.yul\":470:533   */\n      tag_131\n      jumpi\n        /* \"#utility.yul\":529:530   */\n      0x00\n        /* \"#utility.yul\":526:527   */\n      dup1\n        /* \"#utility.yul\":519:531   */\n      revert\n        /* \"#utility.yul\":470:533   */\n    tag_131:\n        /* \"#utility.yul\":417:539   */\n      pop\n      jump\t// out\n        /* \"#utility.yul\":545:684   */\n    tag_74:\n        /* \"#utility.yul\":591:596   */\n      0x00\n        /* \"#utility.yul\":629:635   */\n      dup2\n        /* \"#utility.yul\":616:636   */\n      calldataload\n        /* \"#utility.yul\":607:636   */\n      swap1\n      pop\n        /* \"#utility.yul\":645:678   */\n      tag_133\n        /* \"#utility.yul\":672:677   */\n      dup2\n        /* \"#utility.yul\":645:678   */\n      tag_73\n      jump\t// in\n    tag_133:\n        /* \"#utility.yul\":545:684   */\n      swap3\n      swap2\n      pop\n      pop\n      jump\t// out\n        /* \"#utility.yul\":690:1019   */\n    tag_10:\n        /* \"#utility.yul\":749:755   */\n      0x00\n        /* \"#utility.yul\":798:800   */\n      0x20\n        /* \"#utility.yul\":786:795   */\n      dup3\n        /* \"#utility.yul\":777:784   */\n      dup5\n        /* \"#utility.yul\":773:796   */\n      sub\n        /* \"#utility.yul\":769:801   */\n      slt\n        /* \"#utility.yul\":766:885   */\n      iszero\n      tag_135\n      jumpi\n        /* \"#utility.yul\":804:883   */\n      tag_136\n      tag_70\n      jump\t// in\n    tag_136:\n        /* \"#utility.yul\":766:885   */\n    tag_135:\n        /* \"#utility.yul\":924:925   */\n      0x00\n        /* \"#utility.yul\":949:1002   */\n      tag_137\n        /* \"#utility.yul\":994:1001   */\n      dup5\n        /* \"#utility.yul\":985:991   */\n      dup3\n        /* \"#utility.yul\":974:983   */\n      dup6\n        /* \"#utility.yul\":970:992   */\n      add\n        /* \"#utility.yul\":949:1002   */\n      tag_74\n      jump\t// in\n    tag_137:\n        /* \"#utility.yul\":939:1002   */\n      swap2\n      pop\n        /* \"#utility.yul\":895:1012   */\n      pop\n        /* \"#utility.yul\":690:1019   */\n      swap3\n      swap2\n      pop\n      pop\n      jump\t// out\n        /* \"#utility.yul\":1025:1151   */\n    tag_75:\n        /* \"#utility.yul\":1062:1069   */\n      0x00\n        /* \"#utility.yul\":1102:1144   */\n      0xffffffffffffffffffffffffffffffffffffffff\n        /* \"#utility.yul\":1095:1100   */\n      dup3\n        /* \"#utility.yul\":1091:1145   */\n      and\n        /* \"#utility.yul\":1080:1145   */\n      swap1\n      pop\n        /* \"#utility.yul\":1025:1151   */\n      swap2\n      swap1\n      pop\n      jump\t// out\n        /* \"#utility.yul\":1157:1253   */\n    tag_76:\n        /* \"#utility.yul\":1194:1201   */\n      0x00\n        /* \"#utility.yul\":1223:1247   */\n      tag_140\n        /* \"#utility.yul\":1241:1246   */\n      dup3\n        /* \"#utility.yul\":1223:1247   */\n      tag_75\n      jump\t// in\n    tag_140:\n        /* \"#utility.yul\":1212:1247   */\n      swap1\n      pop\n        /* \"#utility.yul\":1157:1253   */\n      swap2\n      swap1\n      pop\n      jump\t// out\n        /* \"#utility.yul\":1259:1381   */\n    tag_77:\n        /* \"#utility.yul\":1332:1356   */\n      tag_142\n        /* \"#utility.yul\":1350:1355   */\n      dup2\n        /* \"#utility.yul\":1332:1356   */\n      tag_76\n      jump\t// in\n    tag_142:\n        /* \"#utility.yul\":1325:1330   */\n      dup2\n        /* \"#utility.yul\":1322:1357   */\n      eq\n        /* \"#utility.yul\":1312:1375   */\n      tag_143\n      jumpi\n        /* \"#utility.yul\":1371:1372   */\n      0x00\n        /* \"#utility.yul\":1368:1369   */\n      dup1\n        /* \"#utility.yul\":1361:1373   */\n      revert\n        /* \"#utility.yul\":1312:1375   */\n    tag_143:\n        /* \"#utility.yul\":1259:1381   */\n      pop\n      jump\t// out\n        /* \"#utility.yul\":1387:1526   */\n    tag_78:\n        /* \"#utility.yul\":1433:1438   */\n      0x00\n        /* \"#utility.yul\":1471:1477   */\n      dup2\n        /* \"#utility.yul\":1458:1478   */\n      calldataload\n        /* \"#utility.yul\":1449:1478   */\n      swap1\n      pop\n        /* \"#utility.yul\":1487:1520   */\n      tag_145\n        /* \"#utility.yul\":1514:1519   */\n      dup2\n        /* \"#utility.yul\":1487:1520   */\n      tag_77\n      jump\t// in\n    tag_145:\n        /* \"#utility.yul\":1387:1526   */\n      swap3\n      swap2\n      pop\n      pop\n      jump\t// out\n        /* \"#utility.yul\":1532:1861   */\n    tag_15:\n        /* \"#utility.yul\":1591:1597   */\n      0x00\n        /* \"#utility.yul\":1640:1642   */\n      0x20\n        /* \"#utility.yul\":1628:1637   */\n      dup3\n        /* \"#utility.yul\":1619:1626   */\n      dup5\n        /* \"#utility.yul\":1615:1638   */\n      sub\n        /* \"#utility.yul\":1611:1643   */\n      slt\n        /* \"#utility.yul\":1608:1727   */\n      iszero\n      tag_147\n      jumpi\n        /* \"#utility.yul\":1646:1725   */\n      tag_148\n      tag_70\n      jump\t// in\n    tag_148:\n        /* \"#utility.yul\":1608:1727   */\n    tag_147:\n        /* \"#utility.yul\":1766:1767   */\n      0x00\n        /* \"#utility.yul\":1791:1844   */\n      tag_149\n        /* \"#utility.yul\":1836:1843   */\n      dup5\n        /* \"#utility.yul\":1827:1833   */\n      dup3\n        /* \"#utility.yul\":1816:1825   */\n      dup6\n        /* \"#utility.yul\":1812:1834   */\n      add\n        /* \"#utility.yul\":1791:1844   */\n      tag_78\n      jump\t// in\n    tag_149:\n        /* \"#utility.yul\":1781:1844   */\n      swap2\n      pop\n        /* \"#utility.yul\":1737:1854   */\n      pop\n        /* \"#utility.yul\":1532:1861   */\n      swap3\n      swap2\n      pop\n      pop\n      jump\t// out\n        /* \"#utility.yul\":1867:1985   */\n    tag_79:\n        /* \"#utility.yul\":1954:1978   */\n      tag_151\n        /* \"#utility.yul\":1972:1977   */\n      dup2\n        /* \"#utility.yul\":1954:1978   */\n      tag_72\n      jump\t// in\n    tag_151:\n        /* \"#utility.yul\":1949:1952   */\n      dup3\n        /* \"#utility.yul\":1942:1979   */\n      mstore\n        /* \"#utility.yul\":1867:1985   */\n      pop\n      pop\n      jump\t// out\n        /* \"#utility.yul\":1991:2090   */\n    tag_80:\n        /* \"#utility.yul\":2043:2049   */\n      0x00\n        /* \"#utility.yul\":2077:2082   */\n      dup2\n        /* \"#utility.yul\":2071:2083   */\n      mload\n        /* \"#utility.yul\":2061:2083   */\n      swap1\n      pop\n        /* \"#utility.yul\":1991:2090   */\n      swap2\n      swap1\n      pop\n      jump\t// out\n        /* \"#utility.yul\":2096:2265   */\n    tag_81:\n        /* \"#utility.yul\":2180:2191   */\n      0x00\n        /* \"#utility.yul\":2214:2220   */\n      dup3\n        /* \"#utility.yul\":2209:2212   */\n      dup3\n        /* \"#utility.yul\":2202:2221   */\n      mstore\n        /* \"#utility.yul\":2254:2258   */\n      0x20\n        /* \"#utility.yul\":2249:2252   */\n      dup3\n        /* \"#utility.yul\":2245:2259   */\n      add\n        /* \"#utility.yul\":2230:2259   */\n      swap1\n      pop\n        /* \"#utility.yul\":2096:2265   */\n      swap3\n      swap2\n      pop\n      pop\n      jump\t// out\n        /* \"#utility.yul\":2271:2517   */\n    tag_82:\n        /* \"#utility.yul\":2352:2353   */\n      0x00\n        /* \"#utility.yul\":2362:2475   */\n    tag_155:\n        /* \"#utility.yul\":2376:2382   */\n      dup4\n        /* \"#utility.yul\":2373:2374   */\n      dup2\n        /* \"#utility.yul\":2370:2383   */\n      lt\n        /* \"#utility.yul\":2362:2475   */\n      iszero\n      tag_157\n      jumpi\n        /* \"#utility.yul\":2461:2462   */\n      dup1\n        /* \"#utility.yul\":2456:2459   */\n      dup3\n        /* \"#utility.yul\":2452:2463   */\n      add\n        /* \"#utility.yul\":2446:2464   */\n      mload\n        /* \"#utility.yul\":2442:2443   */\n      dup2\n        /* \"#utility.yul\":2437:2440   */\n      dup5\n        /* \"#utility.yul\":2433:2444   */\n      add\n        /* \"#utility.yul\":2426:2465   */\n      mstore\n        /* \"#utility.yul\":2398:2400   */\n      0x20\n        /* \"#utility.yul\":2395:2396   */\n      dup2\n        /* \"#utility.yul\":2391:2401   */\n      add\n        /* \"#utility.yul\":2386:2401   */\n      swap1\n      pop\n        /* \"#utility.yul\":2362:2475   */\n      jump(tag_155)\n    tag_157:\n        /* \"#utility.yul\":2509:2510   */\n      0x00\n        /* \"#utility.yul\":2500:2506   */\n      dup5\n        /* \"#utility.yul\":2495:2498   */\n      dup5\n        /* \"#utility.yul\":2491:2507   */\n      add\n        /* \"#utility.yul\":2484:2511   */\n      mstore\n        /* \"#utility.yul\":2333:2517   */\n      pop\n        /* \"#utility.yul\":2271:2517   */\n      pop\n      pop\n      pop\n      jump\t// out\n        /* \"#utility.yul\":2523:2625   */\n    tag_83:\n        /* \"#utility.yul\":2564:2570   */\n      0x00\n        /* \"#utility.yul\":2615:2617   */\n      0x1f\n        /* \"#utility.yul\":2611:2618   */\n      not\n        /* \"#utility.yul\":2606:2608   */\n      0x1f\n        /* \"#utility.yul\":2599:2604   */\n      dup4\n        /* \"#utility.yul\":2595:2609   */\n      add\n        /* \"#utility.yul\":2591:2619   */\n      and\n        /* \"#utility.yul\":2581:2619   */\n      swap1\n      pop\n        /* \"#utility.yul\":2523:2625   */\n      swap2\n      swap1\n      pop\n      jump\t// out\n        /* \"#utility.yul\":2631:3008   */\n    tag_84:\n        /* \"#utility.yul\":2719:2722   */\n      0x00\n        /* \"#utility.yul\":2747:2786   */\n      tag_160\n        /* \"#utility.yul\":2780:2785   */\n      dup3\n        /* \"#utility.yul\":2747:2786   */\n      tag_80\n      jump\t// in\n    tag_160:\n        /* \"#utility.yul\":2802:2873   */\n      tag_161\n        /* \"#utility.yul\":2866:2872   */\n      dup2\n        /* \"#utility.yul\":2861:2864   */\n      dup6\n        /* \"#utility.yul\":2802:2873   */\n      tag_81\n      jump\t// in\n    tag_161:\n        /* \"#utility.yul\":2795:2873   */\n      swap4\n      pop\n        /* \"#utility.yul\":2882:2947   */\n      tag_162\n        /* \"#utility.yul\":2940:2946   */\n      dup2\n        /* \"#utility.yul\":2935:2938   */\n      dup6\n        /* \"#utility.yul\":2928:2932   */\n      0x20\n        /* \"#utility.yul\":2921:2926   */\n      dup7\n        /* \"#utility.yul\":2917:2933   */\n      add\n        /* \"#utility.yul\":2882:2947   */\n      tag_82\n      jump\t// in\n    tag_162:\n        /* \"#utility.yul\":2972:3001   */\n      tag_163\n        /* \"#utility.yul\":2994:3000   */\n      dup2\n        /* \"#utility.yul\":2972:3001   */\n      tag_83\n      jump\t// in\n    tag_163:\n        /* \"#utility.yul\":2967:2970   */\n      dup5\n        /* \"#utility.yul\":2963:3002   */\n      add\n        /* \"#utility.yul\":2956:3002   */\n      swap2\n      pop\n        /* \"#utility.yul\":2723:3008   */\n      pop\n        /* \"#utility.yul\":2631:3008   */\n      swap3\n      swap2\n      pop\n      pop\n      jump\t// out\n        /* \"#utility.yul\":3014:3104   */\n    tag_85:\n        /* \"#utility.yul\":3048:3055   */\n      0x00\n        /* \"#utility.yul\":3091:3096   */\n      dup2\n        /* \"#utility.yul\":3084:3097   */\n      iszero\n        /* \"#utility.yul\":3077:3098   */\n      iszero\n        /* \"#utility.yul\":3066:3098   */\n      swap1\n      pop\n        /* \"#utility.yul\":3014:3104   */\n      swap2\n      swap1\n      pop\n      jump\t// out\n        /* \"#utility.yul\":3110:3219   */\n    tag_86:\n        /* \"#utility.yul\":3191:3212   */\n      tag_166\n        /* \"#utility.yul\":3206:3211   */\n      dup2\n        /* \"#utility.yul\":3191:3212   */\n      tag_85\n      jump\t// in\n    tag_166:\n        /* \"#utility.yul\":3186:3189   */\n      dup3\n        /* \"#utility.yul\":3179:3213   */\n      mstore\n        /* \"#utility.yul\":3110:3219   */\n      pop\n      pop\n      jump\t// out\n        /* \"#utility.yul\":3225:3857   */\n    tag_18:\n        /* \"#utility.yul\":3416:3420   */\n      0x00\n        /* \"#utility.yul\":3454:3457   */\n      0x80\n        /* \"#utility.yul\":3443:3452   */\n      dup3\n        /* \"#utility.yul\":3439:3458   */\n      add\n        /* \"#utility.yul\":3431:3458   */\n      swap1\n      pop\n        /* \"#utility.yul\":3468:3539   */\n      tag_168\n        /* \"#utility.yul\":3536:3537   */\n      0x00\n        /* \"#utility.yul\":3525:3534   */\n      dup4\n        /* \"#utility.yul\":3521:3538   */\n      add\n        /* \"#utility.yul\":3512:3518   */\n      dup8\n        /* \"#utility.yul\":3468:3539   */\n      tag_79\n      jump\t// in\n    tag_168:\n        /* \"#utility.yul\":3586:3595   */\n      dup2\n        /* \"#utility.yul\":3580:3584   */\n      dup2\n        /* \"#utility.yul\":3576:3596   */\n      sub\n        /* \"#utility.yul\":3571:3573   */\n      0x20\n        /* \"#utility.yul\":3560:3569   */\n      dup4\n        /* \"#utility.yul\":3556:3574   */\n      add\n        /* \"#utility.yul\":3549:3597   */\n      mstore\n        /* \"#utility.yul\":3614:3692   */\n      tag_169\n        /* \"#utility.yul\":3687:3691   */\n      dup2\n        /* \"#utility.yul\":3678:3684   */\n      dup7\n        /* \"#utility.yul\":3614:3692   */\n      tag_84\n      jump\t// in\n    tag_169:\n        /* \"#utility.yul\":3606:3692   */\n      swap1\n      pop\n        /* \"#utility.yul\":3702:3774   */\n      tag_170\n        /* \"#utility.yul\":3770:3772   */\n      0x40\n        /* \"#utility.yul\":3759:3768   */\n      dup4\n        /* \"#utility.yul\":3755:3773   */\n      add\n        /* \"#utility.yul\":3746:3752   */\n      dup6\n        /* \"#utility.yul\":3702:3774   */\n      tag_79\n      jump\t// in\n    tag_170:\n        /* \"#utility.yul\":3784:3850   */\n      tag_171\n        /* \"#utility.yul\":3846:3848   */\n      0x60\n        /* \"#utility.yul\":3835:3844   */\n      dup4\n        /* \"#utility.yul\":3831:3849   */\n      add\n        /* \"#utility.yul\":3822:3828   */\n      dup5\n        /* \"#utility.yul\":3784:3850   */\n      tag_86\n      jump\t// in\n    tag_171:\n        /* \"#utility.yul\":3225:3857   */\n      swap6\n      swap5\n      pop\n      pop\n      pop\n      pop\n      pop\n      jump\t// out\n        /* \"#utility.yul\":3863:3980   */\n    tag_87:\n        /* \"#utility.yul\":3972:3973   */\n      0x00\n        /* \"#utility.yul\":3969:3970   */\n      dup1\n        /* \"#utility.yul\":3962:3974   */\n      revert\n        /* \"#utility.yul\":3986:4103   */\n    tag_88:\n        /* \"#utility.yul\":4095:4096   */\n      0x00\n        /* \"#utility.yul\":4092:4093   */\n      dup1\n        /* \"#utility.yul\":4085:4097   */\n      revert\n        /* \"#utility.yul\":4109:4289   */\n    tag_89:\n        /* \"#utility.yul\":4157:4234   */\n      0x4e487b7100000000000000000000000000000000000000000000000000000000\n        /* \"#utility.yul\":4154:4155   */\n      0x00\n        /* \"#utility.yul\":4147:4235   */\n      mstore\n        /* \"#utility.yul\":4254:4258   */\n      0x41\n        /* \"#utility.yul\":4251:4252   */\n      0x04\n        /* \"#utility.yul\":4244:4259   */\n      mstore\n        /* \"#utility.yul\":4278:4282   */\n      0x24\n        /* \"#utility.yul\":4275:4276   */\n      0x00\n        /* \"#utility.yul\":4268:4283   */\n      revert\n        /* \"#utility.yul\":4295:4576   */\n    tag_90:\n        /* \"#utility.yul\":4378:4405   */\n      tag_176\n        /* \"#utility.yul\":4400:4404   */\n      dup3\n        /* \"#utility.yul\":4378:4405   */\n      tag_83\n      jump\t// in\n    tag_176:\n        /* \"#utility.yul\":4370:4376   */\n      dup2\n        /* \"#utility.yul\":4366:4406   */\n      add\n        /* \"#utility.yul\":4508:4514   */\n      dup2\n        /* \"#utility.yul\":4496:4506   */\n      dup2\n        /* \"#utility.yul\":4493:4515   */\n      lt\n        /* \"#utility.yul\":4472:4490   */\n      0xffffffffffffffff\n        /* \"#utility.yul\":4460:4470   */\n      dup3\n        /* \"#utility.yul\":4457:4491   */\n      gt\n        /* \"#utility.yul\":4454:4516   */\n      or\n        /* \"#utility.yul\":4451:4539   */\n      iszero\n      tag_177\n      jumpi\n        /* \"#utility.yul\":4519:4537   */\n      tag_178\n      tag_89\n      jump\t// in\n    tag_178:\n        /* \"#utility.yul\":4451:4539   */\n    tag_177:\n        /* \"#utility.yul\":4559:4569   */\n      dup1\n        /* \"#utility.yul\":4555:4557   */\n      0x40\n        /* \"#utility.yul\":4548:4570   */\n      mstore\n        /* \"#utility.yul\":4338:4576   */\n      pop\n        /* \"#utility.yul\":4295:4576   */\n      pop\n      pop\n      jump\t// out\n        /* \"#utility.yul\":4582:4711   */\n    tag_91:\n        /* \"#utility.yul\":4616:4622   */\n      0x00\n        /* \"#utility.yul\":4643:4663   */\n      tag_180\n      tag_69\n      jump\t// in\n    tag_180:\n        /* \"#utility.yul\":4633:4663   */\n      swap1\n      pop\n        /* \"#utility.yul\":4672:4705   */\n      tag_181\n        /* \"#utility.yul\":4700:4704   */\n      dup3\n        /* \"#utility.yul\":4692:4698   */\n      dup3\n        /* \"#utility.yul\":4672:4705   */\n      tag_90\n      jump\t// in\n    tag_181:\n        /* \"#utility.yul\":4582:4711   */\n      swap2\n      swap1\n      pop\n      jump\t// out\n        /* \"#utility.yul\":4717:5025   */\n    tag_92:\n        /* \"#utility.yul\":4779:4783   */\n      0x00\n        /* \"#utility.yul\":4869:4887   */\n      0xffffffffffffffff\n        /* \"#utility.yul\":4861:4867   */\n      dup3\n        /* \"#utility.yul\":4858:4888   */\n      gt\n        /* \"#utility.yul\":4855:4911   */\n      iszero\n      tag_183\n      jumpi\n        /* \"#utility.yul\":4891:4909   */\n      tag_184\n      tag_89\n      jump\t// in\n    tag_184:\n        /* \"#utility.yul\":4855:4911   */\n    tag_183:\n        /* \"#utility.yul\":4929:4958   */\n      tag_185\n        /* \"#utility.yul\":4951:4957   */\n      dup3\n        /* \"#utility.yul\":4929:4958   */\n      tag_83\n      jump\t// in\n    tag_185:\n        /* \"#utility.yul\":4921:4958   */\n      swap1\n      pop\n        /* \"#utility.yul\":5013:5017   */\n      0x20\n        /* \"#utility.yul\":5007:5011   */\n      dup2\n        /* \"#utility.yul\":5003:5018   */\n      add\n        /* \"#utility.yul\":4995:5018   */\n      swap1\n      pop\n        /* \"#utility.yul\":4717:5025   */\n      swap2\n      swap1\n      pop\n      jump\t// out\n        /* \"#utility.yul\":5031:5177   */\n    tag_93:\n        /* \"#utility.yul\":5128:5134   */\n      dup3\n        /* \"#utility.yul\":5123:5126   */\n      dup2\n        /* \"#utility.yul\":5118:5121   */\n      dup4\n        /* \"#utility.yul\":5105:5135   */\n      calldatacopy\n        /* \"#utility.yul\":5169:5170   */\n      0x00\n        /* \"#utility.yul\":5160:5166   */\n      dup4\n        /* \"#utility.yul\":5155:5158   */\n      dup4\n        /* \"#utility.yul\":5151:5167   */\n      add\n        /* \"#utility.yul\":5144:5171   */\n      mstore\n        /* \"#utility.yul\":5031:5177   */\n      pop\n      pop\n      pop\n      jump\t// out\n        /* \"#utility.yul\":5183:5608   */\n    tag_94:\n        /* \"#utility.yul\":5261:5266   */\n      0x00\n        /* \"#utility.yul\":5286:5352   */\n      tag_188\n        /* \"#utility.yul\":5302:5351   */\n      tag_189\n        /* \"#utility.yul\":5344:5350   */\n      dup5\n        /* \"#utility.yul\":5302:5351   */\n      tag_92\n      jump\t// in\n    tag_189:\n        /* \"#utility.yul\":5286:5352   */\n      tag_91\n      jump\t// in\n    tag_188:\n        /* \"#utility.yul\":5277:5352   */\n      swap1\n      pop\n        /* \"#utility.yul\":5375:5381   */\n      dup3\n        /* \"#utility.yul\":5368:5373   */\n      dup2\n        /* \"#utility.yul\":5361:5382   */\n      mstore\n        /* \"#utility.yul\":5413:5417   */\n      0x20\n        /* \"#utility.yul\":5406:5411   */\n      dup2\n        /* \"#utility.yul\":5402:5418   */\n      add\n        /* \"#utility.yul\":5451:5454   */\n      dup5\n        /* \"#utility.yul\":5442:5448   */\n      dup5\n        /* \"#utility.yul\":5437:5440   */\n      dup5\n        /* \"#utility.yul\":5433:5449   */\n      add\n        /* \"#utility.yul\":5430:5455   */\n      gt\n        /* \"#utility.yul\":5427:5539   */\n      iszero\n      tag_190\n      jumpi\n        /* \"#utility.yul\":5458:5537   */\n      tag_191\n      tag_88\n      jump\t// in\n    tag_191:\n        /* \"#utility.yul\":5427:5539   */\n    tag_190:\n        /* \"#utility.yul\":5548:5602   */\n      tag_192\n        /* \"#utility.yul\":5595:5601   */\n      dup5\n        /* \"#utility.yul\":5590:5593   */\n      dup3\n        /* \"#utility.yul\":5585:5588   */\n      dup6\n        /* \"#utility.yul\":5548:5602   */\n      tag_93\n      jump\t// in\n    tag_192:\n        /* \"#utility.yul\":5267:5608   */\n      pop\n        /* \"#utility.yul\":5183:5608   */\n      swap4\n      swap3\n      pop\n      pop\n      pop\n      jump\t// out\n        /* \"#utility.yul\":5628:5968   */\n    tag_95:\n        /* \"#utility.yul\":5684:5689   */\n      0x00\n        /* \"#utility.yul\":5733:5736   */\n      dup3\n        /* \"#utility.yul\":5726:5730   */\n      0x1f\n        /* \"#utility.yul\":5718:5724   */\n      dup4\n        /* \"#utility.yul\":5714:5731   */\n      add\n        /* \"#utility.yul\":5710:5737   */\n      slt\n        /* \"#utility.yul\":5700:5822   */\n      tag_194\n      jumpi\n        /* \"#utility.yul\":5741:5820   */\n      tag_195\n      tag_87\n      jump\t// in\n    tag_195:\n        /* \"#utility.yul\":5700:5822   */\n    tag_194:\n        /* \"#utility.yul\":5858:5864   */\n      dup2\n        /* \"#utility.yul\":5845:5865   */\n      calldataload\n        /* \"#utility.yul\":5883:5962   */\n      tag_196\n        /* \"#utility.yul\":5958:5961   */\n      dup5\n        /* \"#utility.yul\":5950:5956   */\n      dup3\n        /* \"#utility.yul\":5943:5947   */\n      0x20\n        /* \"#utility.yul\":5935:5941   */\n      dup7\n        /* \"#utility.yul\":5931:5948   */\n      add\n        /* \"#utility.yul\":5883:5962   */\n      tag_94\n      jump\t// in\n    tag_196:\n        /* \"#utility.yul\":5874:5962   */\n      swap2\n      pop\n        /* \"#utility.yul\":5690:5968   */\n      pop\n        /* \"#utility.yul\":5628:5968   */\n      swap3\n      swap2\n      pop\n      pop\n      jump\t// out\n        /* \"#utility.yul\":5974:6919   */\n    tag_22:\n        /* \"#utility.yul\":6070:6076   */\n      0x00\n        /* \"#utility.yul\":6078:6084   */\n      dup1\n        /* \"#utility.yul\":6086:6092   */\n      0x00\n        /* \"#utility.yul\":6094:6100   */\n      dup1\n        /* \"#utility.yul\":6143:6146   */\n      0x80\n        /* \"#utility.yul\":6131:6140   */\n      dup6\n        /* \"#utility.yul\":6122:6129   */\n      dup8\n        /* \"#utility.yul\":6118:6141   */\n      sub\n        /* \"#utility.yul\":6114:6147   */\n      slt\n        /* \"#utility.yul\":6111:6231   */\n      iszero\n      tag_198\n      jumpi\n        /* \"#utility.yul\":6150:6229   */\n      tag_199\n      tag_70\n      jump\t// in\n    tag_199:\n        /* \"#utility.yul\":6111:6231   */\n    tag_198:\n        /* \"#utility.yul\":6270:6271   */\n      0x00\n        /* \"#utility.yul\":6295:6348   */\n      tag_200\n        /* \"#utility.yul\":6340:6347   */\n      dup8\n        /* \"#utility.yul\":6331:6337   */\n      dup3\n        /* \"#utility.yul\":6320:6329   */\n      dup9\n        /* \"#utility.yul\":6316:6338   */\n      add\n        /* \"#utility.yul\":6295:6348   */\n      tag_74\n      jump\t// in\n    tag_200:\n        /* \"#utility.yul\":6285:6348   */\n      swap5\n      pop\n        /* \"#utility.yul\":6241:6358   */\n      pop\n        /* \"#utility.yul\":6425:6427   */\n      0x20\n        /* \"#utility.yul\":6414:6423   */\n      dup6\n        /* \"#utility.yul\":6410:6428   */\n      add\n        /* \"#utility.yul\":6397:6429   */\n      calldataload\n        /* \"#utility.yul\":6456:6474   */\n      0xffffffffffffffff\n        /* \"#utility.yul\":6448:6454   */\n      dup2\n        /* \"#utility.yul\":6445:6475   */\n      gt\n        /* \"#utility.yul\":6442:6559   */\n      iszero\n      tag_201\n      jumpi\n        /* \"#utility.yul\":6478:6557   */\n      tag_202\n      tag_71\n      jump\t// in\n    tag_202:\n        /* \"#utility.yul\":6442:6559   */\n    tag_201:\n        /* \"#utility.yul\":6583:6646   */\n      tag_203\n        /* \"#utility.yul\":6638:6645   */\n      dup8\n        /* \"#utility.yul\":6629:6635   */\n      dup3\n        /* \"#utility.yul\":6618:6627   */\n      dup9\n        /* \"#utility.yul\":6614:6636   */\n      add\n        /* \"#utility.yul\":6583:6646   */\n      tag_95\n      jump\t// in\n    tag_203:\n        /* \"#utility.yul\":6573:6646   */\n      swap4\n      pop\n        /* \"#utility.yul\":6368:6656   */\n      pop\n        /* \"#utility.yul\":6695:6697   */\n      0x40\n        /* \"#utility.yul\":6721:6774   */\n      tag_204\n        /* \"#utility.yul\":6766:6773   */\n      dup8\n        /* \"#utility.yul\":6757:6763   */\n      dup3\n        /* \"#utility.yul\":6746:6755   */\n      dup9\n        /* \"#utility.yul\":6742:6764   */\n      add\n        /* \"#utility.yul\":6721:6774   */\n      tag_74\n      jump\t// in\n    tag_204:\n        /* \"#utility.yul\":6711:6774   */\n      swap3\n      pop\n        /* \"#utility.yul\":6666:6784   */\n      pop\n        /* \"#utility.yul\":6823:6825   */\n      0x60\n        /* \"#utility.yul\":6849:6902   */\n      tag_205\n        /* \"#utility.yul\":6894:6901   */\n      dup8\n        /* \"#utility.yul\":6885:6891   */\n      dup3\n        /* \"#utility.yul\":6874:6883   */\n      dup9\n        /* \"#utility.yul\":6870:6892   */\n      add\n        /* \"#utility.yul\":6849:6902   */\n      tag_78\n      jump\t// in\n    tag_205:\n        /* \"#utility.yul\":6839:6902   */\n      swap2\n      pop\n        /* \"#utility.yul\":6794:6912   */\n      pop\n        /* \"#utility.yul\":5974:6919   */\n      swap3\n      swap6\n      swap2\n      swap5\n      pop\n      swap3\n      pop\n      jump\t// out\n        /* \"#utility.yul\":6925:7147   */\n    tag_28:\n        /* \"#utility.yul\":7018:7022   */\n      0x00\n        /* \"#utility.yul\":7056:7058   */\n      0x20\n        /* \"#utility.yul\":7045:7054   */\n      dup3\n        /* \"#utility.yul\":7041:7059   */\n      add\n        /* \"#utility.yul\":7033:7059   */\n      swap1\n      pop\n        /* \"#utility.yul\":7069:7140   */\n      tag_207\n        /* \"#utility.yul\":7137:7138   */\n      0x00\n        /* \"#utility.yul\":7126:7135   */\n      dup4\n        /* \"#utility.yul\":7122:7139   */\n      add\n        /* \"#utility.yul\":7113:7119   */\n      dup5\n        /* \"#utility.yul\":7069:7140   */\n      tag_79\n      jump\t// in\n    tag_207:\n        /* \"#utility.yul\":6925:7147   */\n      swap3\n      swap2\n      pop\n      pop\n      jump\t// out\n        /* \"#utility.yul\":7153:7314   */\n    tag_96:\n        /* \"#utility.yul\":7293:7306   */\n      0x4e6f7420415050524f5645000000000000000000000000000000000000000000\n        /* \"#utility.yul\":7289:7290   */\n      0x00\n        /* \"#utility.yul\":7281:7287   */\n      dup3\n        /* \"#utility.yul\":7277:7291   */\n      add\n        /* \"#utility.yul\":7270:7307   */\n      mstore\n        /* \"#utility.yul\":7153:7314   */\n      pop\n      jump\t// out\n        /* \"#utility.yul\":7320:7686   */\n    tag_97:\n        /* \"#utility.yul\":7462:7465   */\n      0x00\n        /* \"#utility.yul\":7483:7550   */\n      tag_210\n        /* \"#utility.yul\":7547:7549   */\n      0x0b\n        /* \"#utility.yul\":7542:7545   */\n      dup4\n        /* \"#utility.yul\":7483:7550   */\n      tag_81\n      jump\t// in\n    tag_210:\n        /* \"#utility.yul\":7476:7550   */\n      swap2\n      pop\n        /* \"#utility.yul\":7559:7652   */\n      tag_211\n        /* \"#utility.yul\":7648:7651   */\n      dup3\n        /* \"#utility.yul\":7559:7652   */\n      tag_96\n      jump\t// in\n    tag_211:\n        /* \"#utility.yul\":7677:7679   */\n      0x20\n        /* \"#utility.yul\":7672:7675   */\n      dup3\n        /* \"#utility.yul\":7668:7680   */\n      add\n        /* \"#utility.yul\":7661:7680   */\n      swap1\n      pop\n        /* \"#utility.yul\":7320:7686   */\n      swap2\n      swap1\n      pop\n      jump\t// out\n        /* \"#utility.yul\":7692:8111   */\n    tag_38:\n        /* \"#utility.yul\":7858:7862   */\n      0x00\n        /* \"#utility.yul\":7896:7898   */\n      0x20\n        /* \"#utility.yul\":7885:7894   */\n      dup3\n        /* \"#utility.yul\":7881:7899   */\n      add\n        /* \"#utility.yul\":7873:7899   */\n      swap1\n      pop\n        /* \"#utility.yul\":7945:7954   */\n      dup2\n        /* \"#utility.yul\":7939:7943   */\n      dup2\n        /* \"#utility.yul\":7935:7955   */\n      sub\n        /* \"#utility.yul\":7931:7932   */\n      0x00\n        /* \"#utility.yul\":7920:7929   */\n      dup4\n        /* \"#utility.yul\":7916:7933   */\n      add\n        /* \"#utility.yul\":7909:7956   */\n      mstore\n        /* \"#utility.yul\":7973:8104   */\n      tag_213\n        /* \"#utility.yul\":8099:8103   */\n      dup2\n        /* \"#utility.yul\":7973:8104   */\n      tag_97\n      jump\t// in\n    tag_213:\n        /* \"#utility.yul\":7965:8104   */\n      swap1\n      pop\n        /* \"#utility.yul\":7692:8111   */\n      swap2\n      swap1\n      pop\n      jump\t// out\n        /* \"#utility.yul\":8117:8297   */\n    tag_98:\n        /* \"#utility.yul\":8257:8289   */\n      0x796f7520646f206e6f74206861766520656e6f7567682062616c616e63650000\n        /* \"#utility.yul\":8253:8254   */\n      0x00\n        /* \"#utility.yul\":8245:8251   */\n      dup3\n        /* \"#utility.yul\":8241:8255   */\n      add\n        /* \"#utility.yul\":8234:8290   */\n      mstore\n        /* \"#utility.yul\":8117:8297   */\n      pop\n      jump\t// out\n        /* \"#utility.yul\":8303:8669   */\n    tag_99:\n        /* \"#utility.yul\":8445:8448   */\n      0x00\n        /* \"#utility.yul\":8466:8533   */\n      tag_216\n        /* \"#utility.yul\":8530:8532   */\n      0x1e\n        /* \"#utility.yul\":8525:8528   */\n      dup4\n        /* \"#utility.yul\":8466:8533   */\n      tag_81\n      jump\t// in\n    tag_216:\n        /* \"#utility.yul\":8459:8533   */\n      swap2\n      pop\n        /* \"#utility.yul\":8542:8635   */\n      tag_217\n        /* \"#utility.yul\":8631:8634   */\n      dup3\n        /* \"#utility.yul\":8542:8635   */\n      tag_98\n      jump\t// in\n    tag_217:\n        /* \"#utility.yul\":8660:8662   */\n      0x20\n        /* \"#utility.yul\":8655:8658   */\n      dup3\n        /* \"#utility.yul\":8651:8663   */\n      add\n        /* \"#utility.yul\":8644:8663   */\n      swap1\n      pop\n        /* \"#utility.yul\":8303:8669   */\n      swap2\n      swap1\n      pop\n      jump\t// out\n        /* \"#utility.yul\":8675:9094   */\n    tag_41:\n        /* \"#utility.yul\":8841:8845   */\n      0x00\n        /* \"#utility.yul\":8879:8881   */\n      0x20\n        /* \"#utility.yul\":8868:8877   */\n      dup3\n        /* \"#utility.yul\":8864:8882   */\n      add\n        /* \"#utility.yul\":8856:8882   */\n      swap1\n      pop\n        /* \"#utility.yul\":8928:8937   */\n      dup2\n        /* \"#utility.yul\":8922:8926   */\n      dup2\n        /* \"#utility.yul\":8918:8938   */\n      sub\n        /* \"#utility.yul\":8914:8915   */\n      0x00\n        /* \"#utility.yul\":8903:8912   */\n      dup4\n        /* \"#utility.yul\":8899:8916   */\n      add\n        /* \"#utility.yul\":8892:8939   */\n      mstore\n        /* \"#utility.yul\":8956:9087   */\n      tag_219\n        /* \"#utility.yul\":9082:9086   */\n      dup2\n        /* \"#utility.yul\":8956:9087   */\n      tag_99\n      jump\t// in\n    tag_219:\n        /* \"#utility.yul\":8948:9087   */\n      swap1\n      pop\n        /* \"#utility.yul\":8675:9094   */\n      swap2\n      swap1\n      pop\n      jump\t// out\n        /* \"#utility.yul\":9100:9247   */\n    tag_100:\n        /* \"#utility.yul\":9201:9212   */\n      0x00\n        /* \"#utility.yul\":9238:9241   */\n      dup2\n        /* \"#utility.yul\":9223:9241   */\n      swap1\n      pop\n        /* \"#utility.yul\":9100:9247   */\n      swap3\n      swap2\n      pop\n      pop\n      jump\t// out\n        /* \"#utility.yul\":9253:9367   */\n    tag_101:\n      pop\n      jump\t// out\n        /* \"#utility.yul\":9373:9771   */\n    tag_102:\n        /* \"#utility.yul\":9532:9535   */\n      0x00\n        /* \"#utility.yul\":9553:9636   */\n      tag_223\n        /* \"#utility.yul\":9634:9635   */\n      0x00\n        /* \"#utility.yul\":9629:9632   */\n      dup4\n        /* \"#utility.yul\":9553:9636   */\n      tag_100\n      jump\t// in\n    tag_223:\n        /* \"#utility.yul\":9546:9636   */\n      swap2\n      pop\n        /* \"#utility.yul\":9645:9738   */\n      tag_224\n        /* \"#utility.yul\":9734:9737   */\n      dup3\n        /* \"#utility.yul\":9645:9738   */\n      tag_101\n      jump\t// in\n    tag_224:\n        /* \"#utility.yul\":9763:9764   */\n      0x00\n        /* \"#utility.yul\":9758:9761   */\n      dup3\n        /* \"#utility.yul\":9754:9765   */\n      add\n        /* \"#utility.yul\":9747:9765   */\n      swap1\n      pop\n        /* \"#utility.yul\":9373:9771   */\n      swap2\n      swap1\n      pop\n      jump\t// out\n        /* \"#utility.yul\":9777:10156   */\n    tag_43:\n        /* \"#utility.yul\":9961:9964   */\n      0x00\n        /* \"#utility.yul\":9983:10130   */\n      tag_226\n        /* \"#utility.yul\":10126:10129   */\n      dup3\n        /* \"#utility.yul\":9983:10130   */\n      tag_102\n      jump\t// in\n    tag_226:\n        /* \"#utility.yul\":9976:10130   */\n      swap2\n      pop\n        /* \"#utility.yul\":10147:10150   */\n      dup2\n        /* \"#utility.yul\":10140:10150   */\n      swap1\n      pop\n        /* \"#utility.yul\":9777:10156   */\n      swap2\n      swap1\n      pop\n      jump\t// out\n        /* \"#utility.yul\":10162:10331   */\n    tag_103:\n        /* \"#utility.yul\":10302:10323   */\n      0x7472616e7373616374696f6e206661696c656400000000000000000000000000\n        /* \"#utility.yul\":10298:10299   */\n      0x00\n        /* \"#utility.yul\":10290:10296   */\n      dup3\n        /* \"#utility.yul\":10286:10300   */\n      add\n        /* \"#utility.yul\":10279:10324   */\n      mstore\n        /* \"#utility.yul\":10162:10331   */\n      pop\n      jump\t// out\n        /* \"#utility.yul\":10337:10703   */\n    tag_104:\n        /* \"#utility.yul\":10479:10482   */\n      0x00\n        /* \"#utility.yul\":10500:10567   */\n      tag_229\n        /* \"#utility.yul\":10564:10566   */\n      0x13\n        /* \"#utility.yul\":10559:10562   */\n      dup4\n        /* \"#utility.yul\":10500:10567   */\n      tag_81\n      jump\t// in\n    tag_229:\n        /* \"#utility.yul\":10493:10567   */\n      swap2\n      pop\n        /* \"#utility.yul\":10576:10669   */\n      tag_230\n        /* \"#utility.yul\":10665:10668   */\n      dup3\n        /* \"#utility.yul\":10576:10669   */\n      tag_103\n      jump\t// in\n    tag_230:\n        /* \"#utility.yul\":10694:10696   */\n      0x20\n        /* \"#utility.yul\":10689:10692   */\n      dup3\n        /* \"#utility.yul\":10685:10697   */\n      add\n        /* \"#utility.yul\":10678:10697   */\n      swap1\n      pop\n        /* \"#utility.yul\":10337:10703   */\n      swap2\n      swap1\n      pop\n      jump\t// out\n        /* \"#utility.yul\":10709:11128   */\n    tag_49:\n        /* \"#utility.yul\":10875:10879   */\n      0x00\n        /* \"#utility.yul\":10913:10915   */\n      0x20\n        /* \"#utility.yul\":10902:10911   */\n      dup3\n        /* \"#utility.yul\":10898:10916   */\n      add\n        /* \"#utility.yul\":10890:10916   */\n      swap1\n      pop\n        /* \"#utility.yul\":10962:10971   */\n      dup2\n        /* \"#utility.yul\":10956:10960   */\n      dup2\n        /* \"#utility.yul\":10952:10972   */\n      sub\n        /* \"#utility.yul\":10948:10949   */\n      0x00\n        /* \"#utility.yul\":10937:10946   */\n      dup4\n        /* \"#utility.yul\":10933:10950   */\n      add\n        /* \"#utility.yul\":10926:10973   */\n      mstore\n        /* \"#utility.yul\":10990:11121   */\n      tag_232\n        /* \"#utility.yul\":11116:11120   */\n      dup2\n        /* \"#utility.yul\":10990:11121   */\n      tag_104\n      jump\t// in\n    tag_232:\n        /* \"#utility.yul\":10982:11121   */\n      swap1\n      pop\n        /* \"#utility.yul\":10709:11128   */\n      swap2\n      swap1\n      pop\n      jump\t// out\n        /* \"#utility.yul\":11134:11314   */\n    tag_105:\n        /* \"#utility.yul\":11182:11259   */\n      0x4e487b7100000000000000000000000000000000000000000000000000000000\n        /* \"#utility.yul\":11179:11180   */\n      0x00\n        /* \"#utility.yul\":11172:11260   */\n      mstore\n        /* \"#utility.yul\":11279:11283   */\n      0x22\n        /* \"#utility.yul\":11276:11277   */\n      0x04\n        /* \"#utility.yul\":11269:11284   */\n      mstore\n        /* \"#utility.yul\":11303:11307   */\n      0x24\n        /* \"#utility.yul\":11300:11301   */\n      0x00\n        /* \"#utility.yul\":11293:11308   */\n      revert\n        /* \"#utility.yul\":11320:11640   */\n    tag_51:\n        /* \"#utility.yul\":11364:11370   */\n      0x00\n        /* \"#utility.yul\":11401:11402   */\n      0x02\n        /* \"#utility.yul\":11395:11399   */\n      dup3\n        /* \"#utility.yul\":11391:11403   */\n      div\n        /* \"#utility.yul\":11381:11403   */\n      swap1\n      pop\n        /* \"#utility.yul\":11448:11449   */\n      0x01\n        /* \"#utility.yul\":11442:11446   */\n      dup3\n        /* \"#utility.yul\":11438:11450   */\n      and\n        /* \"#utility.yul\":11469:11487   */\n      dup1\n        /* \"#utility.yul\":11459:11540   */\n      tag_235\n      jumpi\n        /* \"#utility.yul\":11525:11529   */\n      0x7f\n        /* \"#utility.yul\":11517:11523   */\n      dup3\n        /* \"#utility.yul\":11513:11530   */\n      and\n        /* \"#utility.yul\":11503:11530   */\n      swap2\n      pop\n        /* \"#utility.yul\":11459:11540   */\n    tag_235:\n        /* \"#utility.yul\":11587:11589   */\n      0x20\n        /* \"#utility.yul\":11579:11585   */\n      dup3\n        /* \"#utility.yul\":11576:11590   */\n      lt\n        /* \"#utility.yul\":11556:11574   */\n      dup2\n        /* \"#utility.yul\":11553:11591   */\n      sub\n        /* \"#utility.yul\":11550:11634   */\n      tag_236\n      jumpi\n        /* \"#utility.yul\":11606:11624   */\n      tag_237\n      tag_105\n      jump\t// in\n    tag_237:\n        /* \"#utility.yul\":11550:11634   */\n    tag_236:\n        /* \"#utility.yul\":11371:11640   */\n      pop\n        /* \"#utility.yul\":11320:11640   */\n      swap2\n      swap1\n      pop\n      jump\t// out\n        /* \"#utility.yul\":11646:11787   */\n    tag_106:\n        /* \"#utility.yul\":11695:11699   */\n      0x00\n        /* \"#utility.yul\":11718:11721   */\n      dup2\n        /* \"#utility.yul\":11710:11721   */\n      swap1\n      pop\n        /* \"#utility.yul\":11741:11744   */\n      dup2\n        /* \"#utility.yul\":11738:11739   */\n      0x00\n        /* \"#utility.yul\":11731:11745   */\n      mstore\n        /* \"#utility.yul\":11775:11779   */\n      0x20\n        /* \"#utility.yul\":11772:11773   */\n      0x00\n        /* \"#utility.yul\":11762:11780   */\n      keccak256\n        /* \"#utility.yul\":11754:11780   */\n      swap1\n      pop\n        /* \"#utility.yul\":11646:11787   */\n      swap2\n      swap1\n      pop\n      jump\t// out\n        /* \"#utility.yul\":11793:11886   */\n    tag_107:\n        /* \"#utility.yul\":11830:11836   */\n      0x00\n        /* \"#utility.yul\":11877:11879   */\n      0x20\n        /* \"#utility.yul\":11872:11874   */\n      0x1f\n        /* \"#utility.yul\":11865:11870   */\n      dup4\n        /* \"#utility.yul\":11861:11875   */\n      add\n        /* \"#utility.yul\":11857:11880   */\n      div\n        /* \"#utility.yul\":11847:11880   */\n      swap1\n      pop\n        /* \"#utility.yul\":11793:11886   */\n      swap2\n      swap1\n      pop\n      jump\t// out\n        /* \"#utility.yul\":11892:11999   */\n    tag_108:\n        /* \"#utility.yul\":11936:11944   */\n      0x00\n        /* \"#utility.yul\":11986:11991   */\n      dup3\n        /* \"#utility.yul\":11980:11984   */\n      dup3\n        /* \"#utility.yul\":11976:11992   */\n      shl\n        /* \"#utility.yul\":11955:11992   */\n      swap1\n      pop\n        /* \"#utility.yul\":11892:11999   */\n      swap3\n      swap2\n      pop\n      pop\n      jump\t// out\n        /* \"#utility.yul\":12005:12398   */\n    tag_109:\n        /* \"#utility.yul\":12074:12080   */\n      0x00\n        /* \"#utility.yul\":12124:12125   */\n      0x08\n        /* \"#utility.yul\":12112:12122   */\n      dup4\n        /* \"#utility.yul\":12108:12126   */\n      mul\n        /* \"#utility.yul\":12147:12244   */\n      tag_242\n        /* \"#utility.yul\":12177:12243   */\n      0xffffffffffffffffffffffffffffffffffffffffffffffffffffffffffffffff\n        /* \"#utility.yul\":12166:12175   */\n      dup3\n        /* \"#utility.yul\":12147:12244   */\n      tag_108\n      jump\t// in\n    tag_242:\n        /* \"#utility.yul\":12265:12304   */\n      tag_243\n        /* \"#utility.yul\":12295:12303   */\n      dup7\n        /* \"#utility.yul\":12284:12293   */\n      dup4\n        /* \"#utility.yul\":12265:12304   */\n      tag_108\n      jump\t// in\n    tag_243:\n        /* \"#utility.yul\":12253:12304   */\n      swap6\n      pop\n        /* \"#utility.yul\":12337:12341   */\n      dup1\n        /* \"#utility.yul\":12333:12342   */\n      not\n        /* \"#utility.yul\":12326:12331   */\n      dup5\n        /* \"#utility.yul\":12322:12343   */\n      and\n        /* \"#utility.yul\":12313:12343   */\n      swap4\n      pop\n        /* \"#utility.yul\":12386:12390   */\n      dup1\n        /* \"#utility.yul\":12376:12384   */\n      dup7\n        /* \"#utility.yul\":12372:12391   */\n      and\n        /* \"#utility.yul\":12365:12370   */\n      dup5\n        /* \"#utility.yul\":12362:12392   */\n      or\n        /* \"#utility.yul\":12352:12392   */\n      swap3\n      pop\n        /* \"#utility.yul\":12081:12398   */\n      pop\n      pop\n        /* \"#utility.yul\":12005:12398   */\n      swap4\n      swap3\n      pop\n      pop\n      pop\n      jump\t// out\n        /* \"#utility.yul\":12404:12464   */\n    tag_110:\n        /* \"#utility.yul\":12432:12435   */\n      0x00\n        /* \"#utility.yul\":12453:12458   */\n      dup2\n        /* \"#utility.yul\":12446:12458   */\n      swap1\n      pop\n        /* \"#utility.yul\":12404:12464   */\n      swap2\n      swap1\n      pop\n      jump\t// out\n        /* \"#utility.yul\":12470:12612   */\n    tag_111:\n        /* \"#utility.yul\":12520:12529   */\n      0x00\n        /* \"#utility.yul\":12553:12606   */\n      tag_246\n        /* \"#utility.yul\":12571:12605   */\n      tag_247\n        /* \"#utility.yul\":12580:12604   */\n      tag_248\n        /* \"#utility.yul\":12598:12603   */\n      dup5\n        /* \"#utility.yul\":12580:12604   */\n      tag_72\n      jump\t// in\n    tag_248:\n        /* \"#utility.yul\":12571:12605   */\n      tag_110\n      jump\t// in\n    tag_247:\n        /* \"#utility.yul\":12553:12606   */\n      tag_72\n      jump\t// in\n    tag_246:\n        /* \"#utility.yul\":12540:12606   */\n      swap1\n      pop\n        /* \"#utility.yul\":12470:12612   */\n      swap2\n      swap1\n      pop\n      jump\t// out\n        /* \"#utility.yul\":12618:12693   */\n    tag_112:\n        /* \"#utility.yul\":12661:12664   */\n      0x00\n        /* \"#utility.yul\":12682:12687   */\n      dup2\n        /* \"#utility.yul\":12675:12687   */\n      swap1\n      pop\n        /* \"#utility.yul\":12618:12693   */\n      swap2\n      swap1\n      pop\n      jump\t// out\n        /* \"#utility.yul\":12699:12968   */\n    tag_113:\n        /* \"#utility.yul\":12809:12848   */\n      tag_251\n        /* \"#utility.yul\":12840:12847   */\n      dup4\n        /* \"#utility.yul\":12809:12848   */\n      tag_111\n      jump\t// in\n    tag_251:\n        /* \"#utility.yul\":12870:12961   */\n      tag_252\n        /* \"#utility.yul\":12919:12960   */\n      tag_253\n        /* \"#utility.yul\":12943:12959   */\n      dup3\n        /* \"#utility.yul\":12919:12960   */\n      tag_112\n      jump\t// in\n    tag_253:\n        /* \"#utility.yul\":12911:12917   */\n      dup5\n        /* \"#utility.yul\":12904:12908   */\n      dup5\n        /* \"#utility.yul\":12898:12909   */\n      sload\n        /* \"#utility.yul\":12870:12961   */\n      tag_109\n      jump\t// in\n    tag_252:\n        /* \"#utility.yul\":12864:12868   */\n      dup3\n        /* \"#utility.yul\":12857:12962   */\n      sstore\n        /* \"#utility.yul\":12775:12968   */\n      pop\n        /* \"#utility.yul\":12699:12968   */\n      pop\n      pop\n      pop\n      jump\t// out\n        /* \"#utility.yul\":12974:13047   */\n    tag_114:\n        /* \"#utility.yul\":13019:13022   */\n      0x00\n        /* \"#utility.yul\":12974:13047   */\n      swap1\n      jump\t// out\n        /* \"#utility.yul\":13053:13242   */\n    tag_115:\n        /* \"#utility.yul\":13130:13162   */\n      tag_256\n      tag_114\n      jump\t// in\n    tag_256:\n        /* \"#utility.yul\":13171:13236   */\n      tag_257\n        /* \"#utility.yul\":13229:13235   */\n      dup2\n        /* \"#utility.yul\":13221:13227   */\n      dup5\n        /* \"#utility.yul\":13215:13219   */\n      dup5\n        /* \"#utility.yul\":13171:13236   */\n      tag_113\n      jump\t// in\n    tag_257:\n        /* \"#utility.yul\":13106:13242   */\n      pop\n        /* \"#utility.yul\":13053:13242   */\n      pop\n      pop\n      jump\t// out\n        /* \"#utility.yul\":13248:13434   */\n    tag_116:\n        /* \"#utility.yul\":13308:13428   */\n    tag_259:\n        /* \"#utility.yul\":13325:13328   */\n      dup2\n        /* \"#utility.yul\":13318:13323   */\n      dup2\n        /* \"#utility.yul\":13315:13329   */\n      lt\n        /* \"#utility.yul\":13308:13428   */\n      iszero\n      tag_261\n      jumpi\n        /* \"#utility.yul\":13379:13418   */\n      tag_262\n        /* \"#utility.yul\":13416:13417   */\n      0x00\n        /* \"#utility.yul\":13409:13414   */\n      dup3\n        /* \"#utility.yul\":13379:13418   */\n      tag_115\n      jump\t// in\n    tag_262:\n        /* \"#utility.yul\":13352:13353   */\n      0x01\n        /* \"#utility.yul\":13345:13350   */\n      dup2\n        /* \"#utility.yul\":13341:13354   */\n      add\n        /* \"#utility.yul\":13332:13354   */\n      swap1\n      pop\n        /* \"#utility.yul\":13308:13428   */\n      jump(tag_259)\n    tag_261:\n        /* \"#utility.yul\":13248:13434   */\n      pop\n      pop\n      jump\t// out\n        /* \"#utility.yul\":13440:13983   */\n    tag_117:\n        /* \"#utility.yul\":13541:13543   */\n      0x1f\n        /* \"#utility.yul\":13536:13539   */\n      dup3\n        /* \"#utility.yul\":13533:13544   */\n      gt\n        /* \"#utility.yul\":13530:13976   */\n      iszero\n      tag_264\n      jumpi\n        /* \"#utility.yul\":13575:13613   */\n      tag_265\n        /* \"#utility.yul\":13607:13612   */\n      dup2\n        /* \"#utility.yul\":13575:13613   */\n      tag_106\n      jump\t// in\n    tag_265:\n        /* \"#utility.yul\":13659:13688   */\n      tag_266\n        /* \"#utility.yul\":13677:13687   */\n      dup5\n        /* \"#utility.yul\":13659:13688   */\n      tag_107\n      jump\t// in\n    tag_266:\n        /* \"#utility.yul\":13649:13657   */\n      dup2\n        /* \"#utility.yul\":13645:13689   */\n      add\n        /* \"#utility.yul\":13842:13844   */\n      0x20\n        /* \"#utility.yul\":13830:13840   */\n      dup6\n        /* \"#utility.yul\":13827:13845   */\n      lt\n        /* \"#utility.yul\":13824:13873   */\n      iszero\n      tag_267\n      jumpi\n        /* \"#utility.yul\":13863:13871   */\n      dup2\n        /* \"#utility.yul\":13848:13871   */\n      swap1\n      pop\n        /* \"#utility.yul\":13824:13873   */\n    tag_267:\n        /* \"#utility.yul\":13886:13966   */\n      tag_268\n        /* \"#utility.yul\":13942:13964   */\n      tag_269\n        /* \"#utility.yul\":13960:13963   */\n      dup6\n        /* \"#utility.yul\":13942:13964   */\n      tag_107\n      jump\t// in\n    tag_269:\n        /* \"#utility.yul\":13932:13940   */\n      dup4\n        /* \"#utility.yul\":13928:13965   */\n      add\n        /* \"#utility.yul\":13915:13926   */\n      dup3\n        /* \"#utility.yul\":13886:13966   */\n      tag_116\n      jump\t// in\n    tag_268:\n        /* \"#utility.yul\":13545:13976   */\n      pop\n      pop\n        /* \"#utility.yul\":13530:13976   */\n    tag_264:\n        /* \"#utility.yul\":13440:13983   */\n      pop\n      pop\n      pop\n      jump\t// out\n        /* \"#utility.yul\":13989:14106   */\n    tag_118:\n        /* \"#utility.yul\":14043:14051   */\n      0x00\n        /* \"#utility.yul\":14093:14098   */\n      dup3\n        /* \"#utility.yul\":14087:14091   */\n      dup3\n        /* \"#utility.yul\":14083:14099   */\n      shr\n        /* \"#utility.yul\":14062:14099   */\n      swap1\n      pop\n        /* \"#utility.yul\":13989:14106   */\n      swap3\n      swap2\n      pop\n      pop\n      jump\t// out\n        /* \"#utility.yul\":14112:14281   */\n    tag_119:\n        /* \"#utility.yul\":14156:14162   */\n      0x00\n        /* \"#utility.yul\":14189:14240   */\n      tag_272\n        /* \"#utility.yul\":14237:14238   */\n      0x00\n        /* \"#utility.yul\":14233:14239   */\n      not\n        /* \"#utility.yul\":14225:14230   */\n      dup5\n        /* \"#utility.yul\":14222:14223   */\n      0x08\n        /* \"#utility.yul\":14218:14231   */\n      mul\n        /* \"#utility.yul\":14189:14240   */\n      tag_118\n      jump\t// in\n    tag_272:\n        /* \"#utility.yul\":14185:14241   */\n      not\n        /* \"#utility.yul\":14270:14274   */\n      dup1\n        /* \"#utility.yul\":14264:14268   */\n      dup4\n        /* \"#utility.yul\":14260:14275   */\n      and\n        /* \"#utility.yul\":14250:14275   */\n      swap2\n      pop\n        /* \"#utility.yul\":14163:14281   */\n      pop\n        /* \"#utility.yul\":14112:14281   */\n      swap3\n      swap2\n      pop\n      pop\n      jump\t// out\n        /* \"#utility.yul\":14286:14581   */\n    tag_120:\n        /* \"#utility.yul\":14362:14366   */\n      0x00\n        /* \"#utility.yul\":14508:14537   */\n      tag_274\n        /* \"#utility.yul\":14533:14536   */\n      dup4\n        /* \"#utility.yul\":14527:14531   */\n      dup4\n        /* \"#utility.yul\":14508:14537   */\n      tag_119\n      jump\t// in\n    tag_274:\n        /* \"#utility.yul\":14500:14537   */\n      swap2\n      pop\n        /* \"#utility.yul\":14570:14573   */\n      dup3\n        /* \"#utility.yul\":14567:14568   */\n      0x02\n        /* \"#utility.yul\":14563:14574   */\n      mul\n        /* \"#utility.yul\":14557:14561   */\n      dup3\n        /* \"#utility.yul\":14554:14575   */\n      or\n        /* \"#utility.yul\":14546:14575   */\n      swap1\n      pop\n        /* \"#utility.yul\":14286:14581   */\n      swap3\n      swap2\n      pop\n      pop\n      jump\t// out\n        /* \"#utility.yul\":14586:15981   */\n    tag_58:\n        /* \"#utility.yul\":14703:14740   */\n      tag_276\n        /* \"#utility.yul\":14736:14739   */\n      dup3\n        /* \"#utility.yul\":14703:14740   */\n      tag_80\n      jump\t// in\n    tag_276:\n        /* \"#utility.yul\":14805:14823   */\n      0xffffffffffffffff\n        /* \"#utility.yul\":14797:14803   */\n      dup2\n        /* \"#utility.yul\":14794:14824   */\n      gt\n        /* \"#utility.yul\":14791:14847   */\n      iszero\n      tag_277\n      jumpi\n        /* \"#utility.yul\":14827:14845   */\n      tag_278\n      tag_89\n      jump\t// in\n    tag_278:\n        /* \"#utility.yul\":14791:14847   */\n    tag_277:\n        /* \"#utility.yul\":14871:14909   */\n      tag_279\n        /* \"#utility.yul\":14903:14907   */\n      dup3\n        /* \"#utility.yul\":14897:14908   */\n      sload\n        /* \"#utility.yul\":14871:14909   */\n      tag_51\n      jump\t// in\n    tag_279:\n        /* \"#utility.yul\":14956:15023   */\n      tag_280\n        /* \"#utility.yul\":15016:15022   */\n      dup3\n        /* \"#utility.yul\":15008:15014   */\n      dup3\n        /* \"#utility.yul\":15002:15006   */\n      dup6\n        /* \"#utility.yul\":14956:15023   */\n      tag_117\n      jump\t// in\n    tag_280:\n        /* \"#utility.yul\":15050:15051   */\n      0x00\n        /* \"#utility.yul\":15074:15078   */\n      0x20\n        /* \"#utility.yul\":15061:15078   */\n      swap1\n      pop\n        /* \"#utility.yul\":15106:15108   */\n      0x1f\n        /* \"#utility.yul\":15098:15104   */\n      dup4\n        /* \"#utility.yul\":15095:15109   */\n      gt\n        /* \"#utility.yul\":15123:15124   */\n      0x01\n        /* \"#utility.yul\":15118:15736   */\n      dup2\n      eq\n      tag_282\n      jumpi\n        /* \"#utility.yul\":15780:15781   */\n      0x00\n        /* \"#utility.yul\":15797:15803   */\n      dup5\n        /* \"#utility.yul\":15794:15871   */\n      iszero\n      tag_283\n      jumpi\n        /* \"#utility.yul\":15846:15855   */\n      dup3\n        /* \"#utility.yul\":15841:15844   */\n      dup8\n        /* \"#utility.yul\":15837:15856   */\n      add\n        /* \"#utility.yul\":15831:15857   */\n      mload\n        /* \"#utility.yul\":15822:15857   */\n      swap1\n      pop\n        /* \"#utility.yul\":15794:15871   */\n    tag_283:\n        /* \"#utility.yul\":15897:15964   */\n      tag_284\n        /* \"#utility.yul\":15957:15963   */\n      dup6\n        /* \"#utility.yul\":15950:15955   */\n      dup3\n        /* \"#utility.yul\":15897:15964   */\n      tag_120\n      jump\t// in\n    tag_284:\n        /* \"#utility.yul\":15891:15895   */\n      dup7\n        /* \"#utility.yul\":15884:15965   */\n      sstore\n        /* \"#utility.yul\":15753:15975   */\n      pop\n        /* \"#utility.yul\":15088:15975   */\n      jump(tag_281)\n        /* \"#utility.yul\":15118:15736   */\n    tag_282:\n        /* \"#utility.yul\":15170:15174   */\n      0x1f\n        /* \"#utility.yul\":15166:15175   */\n      not\n        /* \"#utility.yul\":15158:15164   */\n      dup5\n        /* \"#utility.yul\":15154:15176   */\n      and\n        /* \"#utility.yul\":15204:15241   */\n      tag_285\n        /* \"#utility.yul\":15236:15240   */\n      dup7\n        /* \"#utility.yul\":15204:15241   */\n      tag_106\n      jump\t// in\n    tag_285:\n        /* \"#utility.yul\":15263:15264   */\n      0x00\n        /* \"#utility.yul\":15277:15485   */\n    tag_286:\n        /* \"#utility.yul\":15291:15298   */\n      dup3\n        /* \"#utility.yul\":15288:15289   */\n      dup2\n        /* \"#utility.yul\":15285:15299   */\n      lt\n        /* \"#utility.yul\":15277:15485   */\n      iszero\n      tag_288\n      jumpi\n        /* \"#utility.yul\":15370:15379   */\n      dup5\n        /* \"#utility.yul\":15365:15368   */\n      dup10\n        /* \"#utility.yul\":15361:15380   */\n      add\n        /* \"#utility.yul\":15355:15381   */\n      mload\n        /* \"#utility.yul\":15347:15353   */\n      dup3\n        /* \"#utility.yul\":15340:15382   */\n      sstore\n        /* \"#utility.yul\":15421:15422   */\n      0x01\n        /* \"#utility.yul\":15413:15419   */\n      dup3\n        /* \"#utility.yul\":15409:15423   */\n      add\n        /* \"#utility.yul\":15399:15423   */\n      swap2\n      pop\n        /* \"#utility.yul\":15468:15470   */\n      0x20\n        /* \"#utility.yul\":15457:15466   */\n      dup6\n        /* \"#utility.yul\":15453:15471   */\n      add\n        /* \"#utility.yul\":15440:15471   */\n      swap5\n      pop\n        /* \"#utility.yul\":15314:15318   */\n      0x20\n        /* \"#utility.yul\":15311:15312   */\n      dup2\n        /* \"#utility.yul\":15307:15319   */\n      add\n        /* \"#utility.yul\":15302:15319   */\n      swap1\n      pop\n        /* \"#utility.yul\":15277:15485   */\n      jump(tag_286)\n    tag_288:\n        /* \"#utility.yul\":15513:15519   */\n      dup7\n        /* \"#utility.yul\":15504:15511   */\n      dup4\n        /* \"#utility.yul\":15501:15520   */\n      lt\n        /* \"#utility.yul\":15498:15677   */\n      iszero\n      tag_289\n      jumpi\n        /* \"#utility.yul\":15571:15580   */\n      dup5\n        /* \"#utility.yul\":15566:15569   */\n      dup10\n        /* \"#utility.yul\":15562:15581   */\n      add\n        /* \"#utility.yul\":15556:15582   */\n      mload\n        /* \"#utility.yul\":15614:15662   */\n      tag_290\n        /* \"#utility.yul\":15656:15660   */\n      0x1f\n        /* \"#utility.yul\":15648:15654   */\n      dup10\n        /* \"#utility.yul\":15644:15661   */\n      and\n        /* \"#utility.yul\":15633:15642   */\n      dup3\n        /* \"#utility.yul\":15614:15662   */\n      tag_119\n      jump\t// in\n    tag_290:\n        /* \"#utility.yul\":15606:15612   */\n      dup4\n        /* \"#utility.yul\":15599:15663   */\n      sstore\n        /* \"#utility.yul\":15521:15677   */\n      pop\n        /* \"#utility.yul\":15498:15677   */\n    tag_289:\n        /* \"#utility.yul\":15723:15724   */\n      0x01\n        /* \"#utility.yul\":15719:15720   */\n      0x02\n        /* \"#utility.yul\":15711:15717   */\n      dup9\n        /* \"#utility.yul\":15707:15721   */\n      mul\n        /* \"#utility.yul\":15703:15725   */\n      add\n        /* \"#utility.yul\":15697:15701   */\n      dup9\n        /* \"#utility.yul\":15690:15726   */\n      sstore\n        /* \"#utility.yul\":15125:15736   */\n      pop\n      pop\n      pop\n        /* \"#utility.yul\":15088:15975   */\n    tag_281:\n      pop\n        /* \"#utility.yul\":14678:15981   */\n      pop\n      pop\n      pop\n        /* \"#utility.yul\":14586:15981   */\n      pop\n      pop\n      jump\t// out\n        /* \"#utility.yul\":15987:16158   */\n    tag_121:\n        /* \"#utility.yul\":16127:16150   */\n      0x796f7520617265206e6f7420616e64206f776e65720000000000000000000000\n        /* \"#utility.yul\":16123:16124   */\n      0x00\n        /* \"#utility.yul\":16115:16121   */\n      dup3\n        /* \"#utility.yul\":16111:16125   */\n      add\n        /* \"#utility.yul\":16104:16151   */\n      mstore\n        /* \"#utility.yul\":15987:16158   */\n      pop\n      jump\t// out\n        /* \"#utility.yul\":16164:16530   */\n    tag_122:\n        /* \"#utility.yul\":16306:16309   */\n      0x00\n        /* \"#utility.yul\":16327:16394   */\n      tag_293\n        /* \"#utility.yul\":16391:16393   */\n      0x15\n        /* \"#utility.yul\":16386:16389   */\n      dup4\n        /* \"#utility.yul\":16327:16394   */\n      tag_81\n      jump\t// in\n    tag_293:\n        /* \"#utility.yul\":16320:16394   */\n      swap2\n      pop\n        /* \"#utility.yul\":16403:16496   */\n      tag_294\n        /* \"#utility.yul\":16492:16495   */\n      dup3\n        /* \"#utility.yul\":16403:16496   */\n      tag_121\n      jump\t// in\n    tag_294:\n        /* \"#utility.yul\":16521:16523   */\n      0x20\n        /* \"#utility.yul\":16516:16519   */\n      dup3\n        /* \"#utility.yul\":16512:16524   */\n      add\n        /* \"#utility.yul\":16505:16524   */\n      swap1\n      pop\n        /* \"#utility.yul\":16164:16530   */\n      swap2\n      swap1\n      pop\n      jump\t// out\n        /* \"#utility.yul\":16536:16955   */\n    tag_62:\n        /* \"#utility.yul\":16702:16706   */\n      0x00\n        /* \"#utility.yul\":16740:16742   */\n      0x20\n        /* \"#utility.yul\":16729:16738   */\n      dup3\n        /* \"#utility.yul\":16725:16743   */\n      add\n        /* \"#utility.yul\":16717:16743   */\n      swap1\n      pop\n        /* \"#utility.yul\":16789:16798   */\n      dup2\n        /* \"#utility.yul\":16783:16787   */\n      dup2\n        /* \"#utility.yul\":16779:16799   */\n      sub\n        /* \"#utility.yul\":16775:16776   */\n      0x00\n        /* \"#utility.yul\":16764:16773   */\n      dup4\n        /* \"#utility.yul\":16760:16777   */\n      add\n        /* \"#utility.yul\":16753:16800   */\n      mstore\n        /* \"#utility.yul\":16817:16948   */\n      tag_296\n        /* \"#utility.yul\":16943:16947   */\n      dup2\n        /* \"#utility.yul\":16817:16948   */\n      tag_122\n      jump\t// in\n    tag_296:\n        /* \"#utility.yul\":16809:16948   */\n      swap1\n      pop\n        /* \"#utility.yul\":16536:16955   */\n      swap2\n      swap1\n      pop\n      jump\t// out\n        /* \"#utility.yul\":16961:17141   */\n    tag_123:\n        /* \"#utility.yul\":17009:17086   */\n      0x4e487b7100000000000000000000000000000000000000000000000000000000\n        /* \"#utility.yul\":17006:17007   */\n      0x00\n        /* \"#utility.yul\":16999:17087   */\n      mstore\n        /* \"#utility.yul\":17106:17110   */\n      0x11\n        /* \"#utility.yul\":17103:17104   */\n      0x04\n        /* \"#utility.yul\":17096:17111   */\n      mstore\n        /* \"#utility.yul\":17130:17134   */\n      0x24\n        /* \"#utility.yul\":17127:17128   */\n      0x00\n        /* \"#utility.yul\":17120:17135   */\n      revert\n        /* \"#utility.yul\":17147:17338   */\n    tag_68:\n        /* \"#utility.yul\":17187:17190   */\n      0x00\n        /* \"#utility.yul\":17206:17226   */\n      tag_299\n        /* \"#utility.yul\":17224:17225   */\n      dup3\n        /* \"#utility.yul\":17206:17226   */\n      tag_72\n      jump\t// in\n    tag_299:\n        /* \"#utility.yul\":17201:17226   */\n      swap2\n      pop\n        /* \"#utility.yul\":17240:17260   */\n      tag_300\n        /* \"#utility.yul\":17258:17259   */\n      dup4\n        /* \"#utility.yul\":17240:17260   */\n      tag_72\n      jump\t// in\n    tag_300:\n        /* \"#utility.yul\":17235:17260   */\n      swap3\n      pop\n        /* \"#utility.yul\":17283:17284   */\n      dup3\n        /* \"#utility.yul\":17280:17281   */\n      dup3\n        /* \"#utility.yul\":17276:17285   */\n      add\n        /* \"#utility.yul\":17269:17285   */\n      swap1\n      pop\n        /* \"#utility.yul\":17304:17307   */\n      dup1\n        /* \"#utility.yul\":17301:17302   */\n      dup3\n        /* \"#utility.yul\":17298:17308   */\n      gt\n        /* \"#utility.yul\":17295:17331   */\n      iszero\n      tag_301\n      jumpi\n        /* \"#utility.yul\":17311:17329   */\n      tag_302\n      tag_123\n      jump\t// in\n    tag_302:\n        /* \"#utility.yul\":17295:17331   */\n    tag_301:\n        /* \"#utility.yul\":17147:17338   */\n      swap3\n      swap2\n      pop\n      pop\n      jump\t// out\n\n    auxdata: 0xa2646970667358221220f08c1faf3705885bb54428d1d37e6c231a129b1eaa1f8eff7ebd55858330a90464736f6c63430008120033\n}\n",
				"bytecode": {
					"linkReferences": {},
					"object": "608060405234801561001057600080fd5b50336000806101000a81548173ffffffffffffffffffffffffffffffffffffffff021916908373ffffffffffffffffffffffffffffffffffffffff160217905550610fb1806100606000396000f3fe6080604052600436106100555760003560e01c80635b6b431d1461005a57806399b956a0146100765780639f2b3d30146100b6578063b69ef8a8146100df578063bf66b3d71461010a578063ed21248c14610133575b600080fd5b610074600480360381019061006f91906106b3565b61013d565b005b34801561008257600080fd5b5061009d6004803603810190610098919061073e565b6102c9565b6040516100ad9493929190610825565b60405180910390f35b3480156100c257600080fd5b506100dd60048036038101906100d891906109a6565b61038e565b005b3480156100eb57600080fd5b506100f46104cd565b6040516101019190610a29565b60405180910390f35b34801561011657600080fd5b50610131600480360381019061012c919061073e565b6104d3565b005b61013b6105bf565b005b600360003373ffffffffffffffffffffffffffffffffffffffff1673ffffffffffffffffffffffffffffffffffffffff16815260200190815260200160002060030160009054906101000a900460ff166101cc576040517f08c379a00000000000000000000000000000000000000000000000000000000081526004016101c390610a90565b60405180910390fd5b600154811115610211576040517f08c379a000000000000000000000000000000000000000000000000000000000815260040161020890610afc565b60405180910390fd5b6000803373ffffffffffffffffffffffffffffffffffffffff16836107d09060405161023c90610b4d565b600060405180830381858888f193505050503d806000811461027a576040519150601f19603f3d011682016040523d82523d6000602084013e61027f565b606091505b5091509150816102c4576040517f08c379a00000000000000000000000000000000000000000000000000000000081526004016102bb90610bae565b60405180910390fd5b505050565b60036020528060005260406000206000915090508060000154908060010180546102f290610bfd565b80601f016020809104026020016040519081016040528092919081815260200182805461031e90610bfd565b801561036b5780601f106103405761010080835404028352916020019161036b565b820191906000526020600020905b81548152906001019060200180831161034e57829003601f168201915b5050505050908060020154908060030160009054906101000a900460ff16905084565b83600360008373ffffffffffffffffffffffffffffffffffffffff1673ffffffffffffffffffffffffffffffffffffffff1681526020019081526020016000206000018190555082600360008373ffffffffffffffffffffffffffffffffffffffff1673ffffffffffffffffffffffffffffffffffffffff16815260200190815260200160002060010190816104249190610dda565b5081600360008373ffffffffffffffffffffffffffffffffffffffff1673ffffffffffffffffffffffffffffffffffffffff168152602001908152602001600020600201819055506000600360008373ffffffffffffffffffffffffffffffffffffffff1673ffffffffffffffffffffffffffffffffffffffff16815260200190815260200160002060030160006101000a81548160ff02191690831515021790555050505050565b60015481565b60008054906101000a900473ffffffffffffffffffffffffffffffffffffffff1673ffffffffffffffffffffffffffffffffffffffff163373ffffffffffffffffffffffffffffffffffffffff1614610561576040517f08c379a000000000000000000000000000000000000000000000000000000000815260040161055890610ef8565b60405180910390fd5b6001600360008373ffffffffffffffffffffffffffffffffffffffff1673ffffffffffffffffffffffffffffffffffffffff16815260200190815260200160002060030160006101000a81548160ff02191690831515021790555050565b600360003373ffffffffffffffffffffffffffffffffffffffff1673ffffffffffffffffffffffffffffffffffffffff16815260200190815260200160002060030160009054906101000a900460ff1661064e576040517f08c379a000000000000000000000000000000000000000000000000000000000815260040161064590610a90565b60405180910390fd5b34600160008282546106609190610f47565b92505081905550565b6000604051905090565b600080fd5b600080fd5b6000819050919050565b6106908161067d565b811461069b57600080fd5b50565b6000813590506106ad81610687565b92915050565b6000602082840312156106c9576106c8610673565b5b60006106d78482850161069e565b91505092915050565b600073ffffffffffffffffffffffffffffffffffffffff82169050919050565b600061070b826106e0565b9050919050565b61071b81610700565b811461072657600080fd5b50565b60008135905061073881610712565b92915050565b60006020828403121561075457610753610673565b5b600061076284828501610729565b91505092915050565b6107748161067d565b82525050565b600081519050919050565b600082825260208201905092915050565b60005b838110156107b4578082015181840152602081019050610799565b60008484015250505050565b6000601f19601f8301169050919050565b60006107dc8261077a565b6107e68185610785565b93506107f6818560208601610796565b6107ff816107c0565b840191505092915050565b60008115159050919050565b61081f8161080a565b82525050565b600060808201905061083a600083018761076b565b818103602083015261084c81866107d1565b905061085b604083018561076b565b6108686060830184610816565b95945050505050565b600080fd5b600080fd5b7f4e487b7100000000000000000000000000000000000000000000000000000000600052604160045260246000fd5b6108b3826107c0565b810181811067ffffffffffffffff821117156108d2576108d161087b565b5b80604052505050565b60006108e5610669565b90506108f182826108aa565b919050565b600067ffffffffffffffff8211156109115761091061087b565b5b61091a826107c0565b9050602081019050919050565b82818337600083830152505050565b6000610949610944846108f6565b6108db565b90508281526020810184848401111561096557610964610876565b5b610970848285610927565b509392505050565b600082601f83011261098d5761098c610871565b5b813561099d848260208601610936565b91505092915050565b600080600080608085870312156109c0576109bf610673565b5b60006109ce8782880161069e565b945050602085013567ffffffffffffffff8111156109ef576109ee610678565b5b6109fb87828801610978565b9350506040610a0c8782880161069e565b9250506060610a1d87828801610729565b91505092959194509250565b6000602082019050610a3e600083018461076b565b92915050565b7f4e6f7420415050524f5645000000000000000000000000000000000000000000600082015250565b6000610a7a600b83610785565b9150610a8582610a44565b602082019050919050565b60006020820190508181036000830152610aa981610a6d565b9050919050565b7f796f7520646f206e6f74206861766520656e6f7567682062616c616e63650000600082015250565b6000610ae6601e83610785565b9150610af182610ab0565b602082019050919050565b60006020820190508181036000830152610b1581610ad9565b9050919050565b600081905092915050565b50565b6000610b37600083610b1c565b9150610b4282610b27565b600082019050919050565b6000610b5882610b2a565b9150819050919050565b7f7472616e7373616374696f6e206661696c656400000000000000000000000000600082015250565b6000610b98601383610785565b9150610ba382610b62565b602082019050919050565b60006020820190508181036000830152610bc781610b8b565b9050919050565b7f4e487b7100000000000000000000000000000000000000000000000000000000600052602260045260246000fd5b60006002820490506001821680610c1557607f821691505b602082108103610c2857610c27610bce565b5b50919050565b60008190508160005260206000209050919050565b60006020601f8301049050919050565b600082821b905092915050565b600060088302610c907fffffffffffffffffffffffffffffffffffffffffffffffffffffffffffffffff82610c53565b610c9a8683610c53565b95508019841693508086168417925050509392505050565b6000819050919050565b6000610cd7610cd2610ccd8461067d565b610cb2565b61067d565b9050919050565b6000819050919050565b610cf183610cbc565b610d05610cfd82610cde565b848454610c60565b825550505050565b600090565b610d1a610d0d565b610d25818484610ce8565b505050565b5b81811015610d4957610d3e600082610d12565b600181019050610d2b565b5050565b601f821115610d8e57610d5f81610c2e565b610d6884610c43565b81016020851015610d77578190505b610d8b610d8385610c43565b830182610d2a565b50505b505050565b600082821c905092915050565b6000610db160001984600802610d93565b1980831691505092915050565b6000610dca8383610da0565b9150826002028217905092915050565b610de38261077a565b67ffffffffffffffff811115610dfc57610dfb61087b565b5b610e068254610bfd565b610e11828285610d4d565b600060209050601f831160018114610e445760008415610e32578287015190505b610e3c8582610dbe565b865550610ea4565b601f198416610e5286610c2e565b60005b82811015610e7a57848901518255600182019150602085019450602081019050610e55565b86831015610e975784890151610e93601f891682610da0565b8355505b6001600288020188555050505b505050505050565b7f796f7520617265206e6f7420616e64206f776e65720000000000000000000000600082015250565b6000610ee2601583610785565b9150610eed82610eac565b602082019050919050565b60006020820190508181036000830152610f1181610ed5565b9050919050565b7f4e487b7100000000000000000000000000000000000000000000000000000000600052601160045260246000fd5b6000610f528261067d565b9150610f5d8361067d565b9250828201905080821115610f7557610f74610f18565b5b9291505056fea2646970667358221220f08c1faf3705885bb54428d1d37e6c231a129b1eaa1f8eff7ebd55858330a90464736f6c63430008120033",
					"opcodes": "PUSH1 0x80 PUSH1 0x40 MSTORE CALLVALUE DUP1 ISZERO PUSH2 0x10 JUMPI PUSH1 0x0 DUP1 REVERT JUMPDEST POP CALLER PUSH1 0x0 DUP1 PUSH2 0x100 EXP DUP2 SLOAD DUP2 PUSH20 0xFFFFFFFFFFFFFFFFFFFFFFFFFFFFFFFFFFFFFFFF MUL NOT AND SWAP1 DUP4 PUSH20 0xFFFFFFFFFFFFFFFFFFFFFFFFFFFFFFFFFFFFFFFF AND MUL OR SWAP1 SSTORE POP PUSH2 0xFB1 DUP1 PUSH2 0x60 PUSH1 0x0 CODECOPY PUSH1 0x0 RETURN INVALID PUSH1 0x80 PUSH1 0x40 MSTORE PUSH1 0x4 CALLDATASIZE LT PUSH2 0x55 JUMPI PUSH1 0x0 CALLDATALOAD PUSH1 0xE0 SHR DUP1 PUSH4 0x5B6B431D EQ PUSH2 0x5A JUMPI DUP1 PUSH4 0x99B956A0 EQ PUSH2 0x76 JUMPI DUP1 PUSH4 0x9F2B3D30 EQ PUSH2 0xB6 JUMPI DUP1 PUSH4 0xB69EF8A8 EQ PUSH2 0xDF JUMPI DUP1 PUSH4 0xBF66B3D7 EQ PUSH2 0x10A JUMPI DUP1 PUSH4 0xED21248C EQ PUSH2 0x133 JUMPI JUMPDEST PUSH1 0x0 DUP1 REVERT JUMPDEST PUSH2 0x74 PUSH1 0x4 DUP1 CALLDATASIZE SUB DUP2 ADD SWAP1 PUSH2 0x6F SWAP2 SWAP1 PUSH2 0x6B3 JUMP JUMPDEST PUSH2 0x13D JUMP JUMPDEST STOP JUMPDEST CALLVALUE DUP1 ISZERO PUSH2 0x82 JUMPI PUSH1 0x0 DUP1 REVERT JUMPDEST POP PUSH2 0x9D PUSH1 0x4 DUP1 CALLDATASIZE SUB DUP2 ADD SWAP1 PUSH2 0x98 SWAP2 SWAP1 PUSH2 0x73E JUMP JUMPDEST PUSH2 0x2C9 JUMP JUMPDEST PUSH1 0x40 MLOAD PUSH2 0xAD SWAP5 SWAP4 SWAP3 SWAP2 SWAP1 PUSH2 0x825 JUMP JUMPDEST PUSH1 0x40 MLOAD DUP1 SWAP2 SUB SWAP1 RETURN JUMPDEST CALLVALUE DUP1 ISZERO PUSH2 0xC2 JUMPI PUSH1 0x0 DUP1 REVERT JUMPDEST POP PUSH2 0xDD PUSH1 0x4 DUP1 CALLDATASIZE SUB DUP2 ADD SWAP1 PUSH2 0xD8 SWAP2 SWAP1 PUSH2 0x9A6 JUMP JUMPDEST PUSH2 0x38E JUMP JUMPDEST STOP JUMPDEST CALLVALUE DUP1 ISZERO PUSH2 0xEB JUMPI PUSH1 0x0 DUP1 REVERT JUMPDEST POP PUSH2 0xF4 PUSH2 0x4CD JUMP JUMPDEST PUSH1 0x40 MLOAD PUSH2 0x101 SWAP2 SWAP1 PUSH2 0xA29 JUMP JUMPDEST PUSH1 0x40 MLOAD DUP1 SWAP2 SUB SWAP1 RETURN JUMPDEST CALLVALUE DUP1 ISZERO PUSH2 0x116 JUMPI PUSH1 0x0 DUP1 REVERT JUMPDEST POP PUSH2 0x131 PUSH1 0x4 DUP1 CALLDATASIZE SUB DUP2 ADD SWAP1 PUSH2 0x12C SWAP2 SWAP1 PUSH2 0x73E JUMP JUMPDEST PUSH2 0x4D3 JUMP JUMPDEST STOP JUMPDEST PUSH2 0x13B PUSH2 0x5BF JUMP JUMPDEST STOP JUMPDEST PUSH1 0x3 PUSH1 0x0 CALLER PUSH20 0xFFFFFFFFFFFFFFFFFFFFFFFFFFFFFFFFFFFFFFFF AND PUSH20 0xFFFFFFFFFFFFFFFFFFFFFFFFFFFFFFFFFFFFFFFF AND DUP2 MSTORE PUSH1 0x20 ADD SWAP1 DUP2 MSTORE PUSH1 0x20 ADD PUSH1 0x0 KECCAK256 PUSH1 0x3 ADD PUSH1 0x0 SWAP1 SLOAD SWAP1 PUSH2 0x100 EXP SWAP1 DIV PUSH1 0xFF AND PUSH2 0x1CC JUMPI PUSH1 0x40 MLOAD PUSH32 0x8C379A000000000000000000000000000000000000000000000000000000000 DUP2 MSTORE PUSH1 0x4 ADD PUSH2 0x1C3 SWAP1 PUSH2 0xA90 JUMP JUMPDEST PUSH1 0x40 MLOAD DUP1 SWAP2 SUB SWAP1 REVERT JUMPDEST PUSH1 0x1 SLOAD DUP2 GT ISZERO PUSH2 0x211 JUMPI PUSH1 0x40 MLOAD PUSH32 0x8C379A000000000000000000000000000000000000000000000000000000000 DUP2 MSTORE PUSH1 0x4 ADD PUSH2 0x208 SWAP1 PUSH2 0xAFC JUMP JUMPDEST PUSH1 0x40 MLOAD DUP1 SWAP2 SUB SWAP1 REVERT JUMPDEST PUSH1 0x0 DUP1 CALLER PUSH20 0xFFFFFFFFFFFFFFFFFFFFFFFFFFFFFFFFFFFFFFFF AND DUP4 PUSH2 0x7D0 SWAP1 PUSH1 0x40 MLOAD PUSH2 0x23C SWAP1 PUSH2 0xB4D JUMP JUMPDEST PUSH1 0x0 PUSH1 0x40 MLOAD DUP1 DUP4 SUB DUP2 DUP6 DUP9 DUP9 CALL SWAP4 POP POP POP POP RETURNDATASIZE DUP1 PUSH1 0x0 DUP2 EQ PUSH2 0x27A JUMPI PUSH1 0x40 MLOAD SWAP2 POP PUSH1 0x1F NOT PUSH1 0x3F RETURNDATASIZE ADD AND DUP3 ADD PUSH1 0x40 MSTORE RETURNDATASIZE DUP3 MSTORE RETURNDATASIZE PUSH1 0x0 PUSH1 0x20 DUP5 ADD RETURNDATACOPY PUSH2 0x27F JUMP JUMPDEST PUSH1 0x60 SWAP2 POP JUMPDEST POP SWAP2 POP SWAP2 POP DUP2 PUSH2 0x2C4 JUMPI PUSH1 0x40 MLOAD PUSH32 0x8C379A000000000000000000000000000000000000000000000000000000000 DUP2 MSTORE PUSH1 0x4 ADD PUSH2 0x2BB SWAP1 PUSH2 0xBAE JUMP JUMPDEST PUSH1 0x40 MLOAD DUP1 SWAP2 SUB SWAP1 REVERT JUMPDEST POP POP POP JUMP JUMPDEST PUSH1 0x3 PUSH1 0x20 MSTORE DUP1 PUSH1 0x0 MSTORE PUSH1 0x40 PUSH1 0x0 KECCAK256 PUSH1 0x0 SWAP2 POP SWAP1 POP DUP1 PUSH1 0x0 ADD SLOAD SWAP1 DUP1 PUSH1 0x1 ADD DUP1 SLOAD PUSH2 0x2F2 SWAP1 PUSH2 0xBFD JUMP JUMPDEST DUP1 PUSH1 0x1F ADD PUSH1 0x20 DUP1 SWAP2 DIV MUL PUSH1 0x20 ADD PUSH1 0x40 MLOAD SWAP1 DUP2 ADD PUSH1 0x40 MSTORE DUP1 SWAP3 SWAP2 SWAP1 DUP2 DUP2 MSTORE PUSH1 0x20 ADD DUP3 DUP1 SLOAD PUSH2 0x31E SWAP1 PUSH2 0xBFD JUMP JUMPDEST DUP1 ISZERO PUSH2 0x36B JUMPI DUP1 PUSH1 0x1F LT PUSH2 0x340 JUMPI PUSH2 0x100 DUP1 DUP4 SLOAD DIV MUL DUP4 MSTORE SWAP2 PUSH1 0x20 ADD SWAP2 PUSH2 0x36B JUMP JUMPDEST DUP3 ADD SWAP2 SWAP1 PUSH1 0x0 MSTORE PUSH1 0x20 PUSH1 0x0 KECCAK256 SWAP1 JUMPDEST DUP2 SLOAD DUP2 MSTORE SWAP1 PUSH1 0x1 ADD SWAP1 PUSH1 0x20 ADD DUP1 DUP4 GT PUSH2 0x34E JUMPI DUP3 SWAP1 SUB PUSH1 0x1F AND DUP3 ADD SWAP2 JUMPDEST POP POP POP POP POP SWAP1 DUP1 PUSH1 0x2 ADD SLOAD SWAP1 DUP1 PUSH1 0x3 ADD PUSH1 0x0 SWAP1 SLOAD SWAP1 PUSH2 0x100 EXP SWAP1 DIV PUSH1 0xFF AND SWAP1 POP DUP5 JUMP JUMPDEST DUP4 PUSH1 0x3 PUSH1 0x0 DUP4 PUSH20 0xFFFFFFFFFFFFFFFFFFFFFFFFFFFFFFFFFFFFFFFF AND PUSH20 0xFFFFFFFFFFFFFFFFFFFFFFFFFFFFFFFFFFFFFFFF AND DUP2 MSTORE PUSH1 0x20 ADD SWAP1 DUP2 MSTORE PUSH1 0x20 ADD PUSH1 0x0 KECCAK256 PUSH1 0x0 ADD DUP2 SWAP1 SSTORE POP DUP3 PUSH1 0x3 PUSH1 0x0 DUP4 PUSH20 0xFFFFFFFFFFFFFFFFFFFFFFFFFFFFFFFFFFFFFFFF AND PUSH20 0xFFFFFFFFFFFFFFFFFFFFFFFFFFFFFFFFFFFFFFFF AND DUP2 MSTORE PUSH1 0x20 ADD SWAP1 DUP2 MSTORE PUSH1 0x20 ADD PUSH1 0x0 KECCAK256 PUSH1 0x1 ADD SWAP1 DUP2 PUSH2 0x424 SWAP2 SWAP1 PUSH2 0xDDA JUMP JUMPDEST POP DUP2 PUSH1 0x3 PUSH1 0x0 DUP4 PUSH20 0xFFFFFFFFFFFFFFFFFFFFFFFFFFFFFFFFFFFFFFFF AND PUSH20 0xFFFFFFFFFFFFFFFFFFFFFFFFFFFFFFFFFFFFFFFF AND DUP2 MSTORE PUSH1 0x20 ADD SWAP1 DUP2 MSTORE PUSH1 0x20 ADD PUSH1 0x0 KECCAK256 PUSH1 0x2 ADD DUP2 SWAP1 SSTORE POP PUSH1 0x0 PUSH1 0x3 PUSH1 0x0 DUP4 PUSH20 0xFFFFFFFFFFFFFFFFFFFFFFFFFFFFFFFFFFFFFFFF AND PUSH20 0xFFFFFFFFFFFFFFFFFFFFFFFFFFFFFFFFFFFFFFFF AND DUP2 MSTORE PUSH1 0x20 ADD SWAP1 DUP2 MSTORE PUSH1 0x20 ADD PUSH1 0x0 KECCAK256 PUSH1 0x3 ADD PUSH1 0x0 PUSH2 0x100 EXP DUP2 SLOAD DUP2 PUSH1 0xFF MUL NOT AND SWAP1 DUP4 ISZERO ISZERO MUL OR SWAP1 SSTORE POP POP POP POP POP JUMP JUMPDEST PUSH1 0x1 SLOAD DUP2 JUMP JUMPDEST PUSH1 0x0 DUP1 SLOAD SWAP1 PUSH2 0x100 EXP SWAP1 DIV PUSH20 0xFFFFFFFFFFFFFFFFFFFFFFFFFFFFFFFFFFFFFFFF AND PUSH20 0xFFFFFFFFFFFFFFFFFFFFFFFFFFFFFFFFFFFFFFFF AND CALLER PUSH20 0xFFFFFFFFFFFFFFFFFFFFFFFFFFFFFFFFFFFFFFFF AND EQ PUSH2 0x561 JUMPI PUSH1 0x40 MLOAD PUSH32 0x8C379A000000000000000000000000000000000000000000000000000000000 DUP2 MSTORE PUSH1 0x4 ADD PUSH2 0x558 SWAP1 PUSH2 0xEF8 JUMP JUMPDEST PUSH1 0x40 MLOAD DUP1 SWAP2 SUB SWAP1 REVERT JUMPDEST PUSH1 0x1 PUSH1 0x3 PUSH1 0x0 DUP4 PUSH20 0xFFFFFFFFFFFFFFFFFFFFFFFFFFFFFFFFFFFFFFFF AND PUSH20 0xFFFFFFFFFFFFFFFFFFFFFFFFFFFFFFFFFFFFFFFF AND DUP2 MSTORE PUSH1 0x20 ADD SWAP1 DUP2 MSTORE PUSH1 0x20 ADD PUSH1 0x0 KECCAK256 PUSH1 0x3 ADD PUSH1 0x0 PUSH2 0x100 EXP DUP2 SLOAD DUP2 PUSH1 0xFF MUL NOT AND SWAP1 DUP4 ISZERO ISZERO MUL OR SWAP1 SSTORE POP POP JUMP JUMPDEST PUSH1 0x3 PUSH1 0x0 CALLER PUSH20 0xFFFFFFFFFFFFFFFFFFFFFFFFFFFFFFFFFFFFFFFF AND PUSH20 0xFFFFFFFFFFFFFFFFFFFFFFFFFFFFFFFFFFFFFFFF AND DUP2 MSTORE PUSH1 0x20 ADD SWAP1 DUP2 MSTORE PUSH1 0x20 ADD PUSH1 0x0 KECCAK256 PUSH1 0x3 ADD PUSH1 0x0 SWAP1 SLOAD SWAP1 PUSH2 0x100 EXP SWAP1 DIV PUSH1 0xFF AND PUSH2 0x64E JUMPI PUSH1 0x40 MLOAD PUSH32 0x8C379A000000000000000000000000000000000000000000000000000000000 DUP2 MSTORE PUSH1 0x4 ADD PUSH2 0x645 SWAP1 PUSH2 0xA90 JUMP JUMPDEST PUSH1 0x40 MLOAD DUP1 SWAP2 SUB SWAP1 REVERT JUMPDEST CALLVALUE PUSH1 0x1 PUSH1 0x0 DUP3 DUP3 SLOAD PUSH2 0x660 SWAP2 SWAP1 PUSH2 0xF47 JUMP JUMPDEST SWAP3 POP POP DUP2 SWAP1 SSTORE POP JUMP JUMPDEST PUSH1 0x0 PUSH1 0x40 MLOAD SWAP1 POP SWAP1 JUMP JUMPDEST PUSH1 0x0 DUP1 REVERT JUMPDEST PUSH1 0x0 DUP1 REVERT JUMPDEST PUSH1 0x0 DUP2 SWAP1 POP SWAP2 SWAP1 POP JUMP JUMPDEST PUSH2 0x690 DUP2 PUSH2 0x67D JUMP JUMPDEST DUP2 EQ PUSH2 0x69B JUMPI PUSH1 0x0 DUP1 REVERT JUMPDEST POP JUMP JUMPDEST PUSH1 0x0 DUP2 CALLDATALOAD SWAP1 POP PUSH2 0x6AD DUP2 PUSH2 0x687 JUMP JUMPDEST SWAP3 SWAP2 POP POP JUMP JUMPDEST PUSH1 0x0 PUSH1 0x20 DUP3 DUP5 SUB SLT ISZERO PUSH2 0x6C9 JUMPI PUSH2 0x6C8 PUSH2 0x673 JUMP JUMPDEST JUMPDEST PUSH1 0x0 PUSH2 0x6D7 DUP5 DUP3 DUP6 ADD PUSH2 0x69E JUMP JUMPDEST SWAP2 POP POP SWAP3 SWAP2 POP POP JUMP JUMPDEST PUSH1 0x0 PUSH20 0xFFFFFFFFFFFFFFFFFFFFFFFFFFFFFFFFFFFFFFFF DUP3 AND SWAP1 POP SWAP2 SWAP1 POP JUMP JUMPDEST PUSH1 0x0 PUSH2 0x70B DUP3 PUSH2 0x6E0 JUMP JUMPDEST SWAP1 POP SWAP2 SWAP1 POP JUMP JUMPDEST PUSH2 0x71B DUP2 PUSH2 0x700 JUMP JUMPDEST DUP2 EQ PUSH2 0x726 JUMPI PUSH1 0x0 DUP1 REVERT JUMPDEST POP JUMP JUMPDEST PUSH1 0x0 DUP2 CALLDATALOAD SWAP1 POP PUSH2 0x738 DUP2 PUSH2 0x712 JUMP JUMPDEST SWAP3 SWAP2 POP POP JUMP JUMPDEST PUSH1 0x0 PUSH1 0x20 DUP3 DUP5 SUB SLT ISZERO PUSH2 0x754 JUMPI PUSH2 0x753 PUSH2 0x673 JUMP JUMPDEST JUMPDEST PUSH1 0x0 PUSH2 0x762 DUP5 DUP3 DUP6 ADD PUSH2 0x729 JUMP JUMPDEST SWAP2 POP POP SWAP3 SWAP2 POP POP JUMP JUMPDEST PUSH2 0x774 DUP2 PUSH2 0x67D JUMP JUMPDEST DUP3 MSTORE POP POP JUMP JUMPDEST PUSH1 0x0 DUP2 MLOAD SWAP1 POP SWAP2 SWAP1 POP JUMP JUMPDEST PUSH1 0x0 DUP3 DUP3 MSTORE PUSH1 0x20 DUP3 ADD SWAP1 POP SWAP3 SWAP2 POP POP JUMP JUMPDEST PUSH1 0x0 JUMPDEST DUP4 DUP2 LT ISZERO PUSH2 0x7B4 JUMPI DUP1 DUP3 ADD MLOAD DUP2 DUP5 ADD MSTORE PUSH1 0x20 DUP2 ADD SWAP1 POP PUSH2 0x799 JUMP JUMPDEST PUSH1 0x0 DUP5 DUP5 ADD MSTORE POP POP POP POP JUMP JUMPDEST PUSH1 0x0 PUSH1 0x1F NOT PUSH1 0x1F DUP4 ADD AND SWAP1 POP SWAP2 SWAP1 POP JUMP JUMPDEST PUSH1 0x0 PUSH2 0x7DC DUP3 PUSH2 0x77A JUMP JUMPDEST PUSH2 0x7E6 DUP2 DUP6 PUSH2 0x785 JUMP JUMPDEST SWAP4 POP PUSH2 0x7F6 DUP2 DUP6 PUSH1 0x20 DUP7 ADD PUSH2 0x796 JUMP JUMPDEST PUSH2 0x7FF DUP2 PUSH2 0x7C0 JUMP JUMPDEST DUP5 ADD SWAP2 POP POP SWAP3 SWAP2 POP POP JUMP JUMPDEST PUSH1 0x0 DUP2 ISZERO ISZERO SWAP1 POP SWAP2 SWAP1 POP JUMP JUMPDEST PUSH2 0x81F DUP2 PUSH2 0x80A JUMP JUMPDEST DUP3 MSTORE POP POP JUMP JUMPDEST PUSH1 0x0 PUSH1 0x80 DUP3 ADD SWAP1 POP PUSH2 0x83A PUSH1 0x0 DUP4 ADD DUP8 PUSH2 0x76B JUMP JUMPDEST DUP2 DUP2 SUB PUSH1 0x20 DUP4 ADD MSTORE PUSH2 0x84C DUP2 DUP7 PUSH2 0x7D1 JUMP JUMPDEST SWAP1 POP PUSH2 0x85B PUSH1 0x40 DUP4 ADD DUP6 PUSH2 0x76B JUMP JUMPDEST PUSH2 0x868 PUSH1 0x60 DUP4 ADD DUP5 PUSH2 0x816 JUMP JUMPDEST SWAP6 SWAP5 POP POP POP POP POP JUMP JUMPDEST PUSH1 0x0 DUP1 REVERT JUMPDEST PUSH1 0x0 DUP1 REVERT JUMPDEST PUSH32 0x4E487B7100000000000000000000000000000000000000000000000000000000 PUSH1 0x0 MSTORE PUSH1 0x41 PUSH1 0x4 MSTORE PUSH1 0x24 PUSH1 0x0 REVERT JUMPDEST PUSH2 0x8B3 DUP3 PUSH2 0x7C0 JUMP JUMPDEST DUP2 ADD DUP2 DUP2 LT PUSH8 0xFFFFFFFFFFFFFFFF DUP3 GT OR ISZERO PUSH2 0x8D2 JUMPI PUSH2 0x8D1 PUSH2 0x87B JUMP JUMPDEST JUMPDEST DUP1 PUSH1 0x40 MSTORE POP POP POP JUMP JUMPDEST PUSH1 0x0 PUSH2 0x8E5 PUSH2 0x669 JUMP JUMPDEST SWAP1 POP PUSH2 0x8F1 DUP3 DUP3 PUSH2 0x8AA JUMP JUMPDEST SWAP2 SWAP1 POP JUMP JUMPDEST PUSH1 0x0 PUSH8 0xFFFFFFFFFFFFFFFF DUP3 GT ISZERO PUSH2 0x911 JUMPI PUSH2 0x910 PUSH2 0x87B JUMP JUMPDEST JUMPDEST PUSH2 0x91A DUP3 PUSH2 0x7C0 JUMP JUMPDEST SWAP1 POP PUSH1 0x20 DUP2 ADD SWAP1 POP SWAP2 SWAP1 POP JUMP JUMPDEST DUP3 DUP2 DUP4 CALLDATACOPY PUSH1 0x0 DUP4 DUP4 ADD MSTORE POP POP POP JUMP JUMPDEST PUSH1 0x0 PUSH2 0x949 PUSH2 0x944 DUP5 PUSH2 0x8F6 JUMP JUMPDEST PUSH2 0x8DB JUMP JUMPDEST SWAP1 POP DUP3 DUP2 MSTORE PUSH1 0x20 DUP2 ADD DUP5 DUP5 DUP5 ADD GT ISZERO PUSH2 0x965 JUMPI PUSH2 0x964 PUSH2 0x876 JUMP JUMPDEST JUMPDEST PUSH2 0x970 DUP5 DUP3 DUP6 PUSH2 0x927 JUMP JUMPDEST POP SWAP4 SWAP3 POP POP POP JUMP JUMPDEST PUSH1 0x0 DUP3 PUSH1 0x1F DUP4 ADD SLT PUSH2 0x98D JUMPI PUSH2 0x98C PUSH2 0x871 JUMP JUMPDEST JUMPDEST DUP2 CALLDATALOAD PUSH2 0x99D DUP5 DUP3 PUSH1 0x20 DUP7 ADD PUSH2 0x936 JUMP JUMPDEST SWAP2 POP POP SWAP3 SWAP2 POP POP JUMP JUMPDEST PUSH1 0x0 DUP1 PUSH1 0x0 DUP1 PUSH1 0x80 DUP6 DUP8 SUB SLT ISZERO PUSH2 0x9C0 JUMPI PUSH2 0x9BF PUSH2 0x673 JUMP JUMPDEST JUMPDEST PUSH1 0x0 PUSH2 0x9CE DUP8 DUP3 DUP9 ADD PUSH2 0x69E JUMP JUMPDEST SWAP5 POP POP PUSH1 0x20 DUP6 ADD CALLDATALOAD PUSH8 0xFFFFFFFFFFFFFFFF DUP2 GT ISZERO PUSH2 0x9EF JUMPI PUSH2 0x9EE PUSH2 0x678 JUMP JUMPDEST JUMPDEST PUSH2 0x9FB DUP8 DUP3 DUP9 ADD PUSH2 0x978 JUMP JUMPDEST SWAP4 POP POP PUSH1 0x40 PUSH2 0xA0C DUP8 DUP3 DUP9 ADD PUSH2 0x69E JUMP JUMPDEST SWAP3 POP POP PUSH1 0x60 PUSH2 0xA1D DUP8 DUP3 DUP9 ADD PUSH2 0x729 JUMP JUMPDEST SWAP2 POP POP SWAP3 SWAP6 SWAP2 SWAP5 POP SWAP3 POP JUMP JUMPDEST PUSH1 0x0 PUSH1 0x20 DUP3 ADD SWAP1 POP PUSH2 0xA3E PUSH1 0x0 DUP4 ADD DUP5 PUSH2 0x76B JUMP JUMPDEST SWAP3 SWAP2 POP POP JUMP JUMPDEST PUSH32 0x4E6F7420415050524F5645000000000000000000000000000000000000000000 PUSH1 0x0 DUP3 ADD MSTORE POP JUMP JUMPDEST PUSH1 0x0 PUSH2 0xA7A PUSH1 0xB DUP4 PUSH2 0x785 JUMP JUMPDEST SWAP2 POP PUSH2 0xA85 DUP3 PUSH2 0xA44 JUMP JUMPDEST PUSH1 0x20 DUP3 ADD SWAP1 POP SWAP2 SWAP1 POP JUMP JUMPDEST PUSH1 0x0 PUSH1 0x20 DUP3 ADD SWAP1 POP DUP2 DUP2 SUB PUSH1 0x0 DUP4 ADD MSTORE PUSH2 0xAA9 DUP2 PUSH2 0xA6D JUMP JUMPDEST SWAP1 POP SWAP2 SWAP1 POP JUMP JUMPDEST PUSH32 0x796F7520646F206E6F74206861766520656E6F7567682062616C616E63650000 PUSH1 0x0 DUP3 ADD MSTORE POP JUMP JUMPDEST PUSH1 0x0 PUSH2 0xAE6 PUSH1 0x1E DUP4 PUSH2 0x785 JUMP JUMPDEST SWAP2 POP PUSH2 0xAF1 DUP3 PUSH2 0xAB0 JUMP JUMPDEST PUSH1 0x20 DUP3 ADD SWAP1 POP SWAP2 SWAP1 POP JUMP JUMPDEST PUSH1 0x0 PUSH1 0x20 DUP3 ADD SWAP1 POP DUP2 DUP2 SUB PUSH1 0x0 DUP4 ADD MSTORE PUSH2 0xB15 DUP2 PUSH2 0xAD9 JUMP JUMPDEST SWAP1 POP SWAP2 SWAP1 POP JUMP JUMPDEST PUSH1 0x0 DUP2 SWAP1 POP SWAP3 SWAP2 POP POP JUMP JUMPDEST POP JUMP JUMPDEST PUSH1 0x0 PUSH2 0xB37 PUSH1 0x0 DUP4 PUSH2 0xB1C JUMP JUMPDEST SWAP2 POP PUSH2 0xB42 DUP3 PUSH2 0xB27 JUMP JUMPDEST PUSH1 0x0 DUP3 ADD SWAP1 POP SWAP2 SWAP1 POP JUMP JUMPDEST PUSH1 0x0 PUSH2 0xB58 DUP3 PUSH2 0xB2A JUMP JUMPDEST SWAP2 POP DUP2 SWAP1 POP SWAP2 SWAP1 POP JUMP JUMPDEST PUSH32 0x7472616E7373616374696F6E206661696C656400000000000000000000000000 PUSH1 0x0 DUP3 ADD MSTORE POP JUMP JUMPDEST PUSH1 0x0 PUSH2 0xB98 PUSH1 0x13 DUP4 PUSH2 0x785 JUMP JUMPDEST SWAP2 POP PUSH2 0xBA3 DUP3 PUSH2 0xB62 JUMP JUMPDEST PUSH1 0x20 DUP3 ADD SWAP1 POP SWAP2 SWAP1 POP JUMP JUMPDEST PUSH1 0x0 PUSH1 0x20 DUP3 ADD SWAP1 POP DUP2 DUP2 SUB PUSH1 0x0 DUP4 ADD MSTORE PUSH2 0xBC7 DUP2 PUSH2 0xB8B JUMP JUMPDEST SWAP1 POP SWAP2 SWAP1 POP JUMP JUMPDEST PUSH32 0x4E487B7100000000000000000000000000000000000000000000000000000000 PUSH1 0x0 MSTORE PUSH1 0x22 PUSH1 0x4 MSTORE PUSH1 0x24 PUSH1 0x0 REVERT JUMPDEST PUSH1 0x0 PUSH1 0x2 DUP3 DIV SWAP1 POP PUSH1 0x1 DUP3 AND DUP1 PUSH2 0xC15 JUMPI PUSH1 0x7F DUP3 AND SWAP2 POP JUMPDEST PUSH1 0x20 DUP3 LT DUP2 SUB PUSH2 0xC28 JUMPI PUSH2 0xC27 PUSH2 0xBCE JUMP JUMPDEST JUMPDEST POP SWAP2 SWAP1 POP JUMP JUMPDEST PUSH1 0x0 DUP2 SWAP1 POP DUP2 PUSH1 0x0 MSTORE PUSH1 0x20 PUSH1 0x0 KECCAK256 SWAP1 POP SWAP2 SWAP1 POP JUMP JUMPDEST PUSH1 0x0 PUSH1 0x20 PUSH1 0x1F DUP4 ADD DIV SWAP1 POP SWAP2 SWAP1 POP JUMP JUMPDEST PUSH1 0x0 DUP3 DUP3 SHL SWAP1 POP SWAP3 SWAP2 POP POP JUMP JUMPDEST PUSH1 0x0 PUSH1 0x8 DUP4 MUL PUSH2 0xC90 PUSH32 0xFFFFFFFFFFFFFFFFFFFFFFFFFFFFFFFFFFFFFFFFFFFFFFFFFFFFFFFFFFFFFFFF DUP3 PUSH2 0xC53 JUMP JUMPDEST PUSH2 0xC9A DUP7 DUP4 PUSH2 0xC53 JUMP JUMPDEST SWAP6 POP DUP1 NOT DUP5 AND SWAP4 POP DUP1 DUP7 AND DUP5 OR SWAP3 POP POP POP SWAP4 SWAP3 POP POP POP JUMP JUMPDEST PUSH1 0x0 DUP2 SWAP1 POP SWAP2 SWAP1 POP JUMP JUMPDEST PUSH1 0x0 PUSH2 0xCD7 PUSH2 0xCD2 PUSH2 0xCCD DUP5 PUSH2 0x67D JUMP JUMPDEST PUSH2 0xCB2 JUMP JUMPDEST PUSH2 0x67D JUMP JUMPDEST SWAP1 POP SWAP2 SWAP1 POP JUMP JUMPDEST PUSH1 0x0 DUP2 SWAP1 POP SWAP2 SWAP1 POP JUMP JUMPDEST PUSH2 0xCF1 DUP4 PUSH2 0xCBC JUMP JUMPDEST PUSH2 0xD05 PUSH2 0xCFD DUP3 PUSH2 0xCDE JUMP JUMPDEST DUP5 DUP5 SLOAD PUSH2 0xC60 JUMP JUMPDEST DUP3 SSTORE POP POP POP POP JUMP JUMPDEST PUSH1 0x0 SWAP1 JUMP JUMPDEST PUSH2 0xD1A PUSH2 0xD0D JUMP JUMPDEST PUSH2 0xD25 DUP2 DUP5 DUP5 PUSH2 0xCE8 JUMP JUMPDEST POP POP POP JUMP JUMPDEST JUMPDEST DUP2 DUP2 LT ISZERO PUSH2 0xD49 JUMPI PUSH2 0xD3E PUSH1 0x0 DUP3 PUSH2 0xD12 JUMP JUMPDEST PUSH1 0x1 DUP2 ADD SWAP1 POP PUSH2 0xD2B JUMP JUMPDEST POP POP JUMP JUMPDEST PUSH1 0x1F DUP3 GT ISZERO PUSH2 0xD8E JUMPI PUSH2 0xD5F DUP2 PUSH2 0xC2E JUMP JUMPDEST PUSH2 0xD68 DUP5 PUSH2 0xC43 JUMP JUMPDEST DUP2 ADD PUSH1 0x20 DUP6 LT ISZERO PUSH2 0xD77 JUMPI DUP2 SWAP1 POP JUMPDEST PUSH2 0xD8B PUSH2 0xD83 DUP6 PUSH2 0xC43 JUMP JUMPDEST DUP4 ADD DUP3 PUSH2 0xD2A JUMP JUMPDEST POP POP JUMPDEST POP POP POP JUMP JUMPDEST PUSH1 0x0 DUP3 DUP3 SHR SWAP1 POP SWAP3 SWAP2 POP POP JUMP JUMPDEST PUSH1 0x0 PUSH2 0xDB1 PUSH1 0x0 NOT DUP5 PUSH1 0x8 MUL PUSH2 0xD93 JUMP JUMPDEST NOT DUP1 DUP4 AND SWAP2 POP POP SWAP3 SWAP2 POP POP JUMP JUMPDEST PUSH1 0x0 PUSH2 0xDCA DUP4 DUP4 PUSH2 0xDA0 JUMP JUMPDEST SWAP2 POP DUP3 PUSH1 0x2 MUL DUP3 OR SWAP1 POP SWAP3 SWAP2 POP POP JUMP JUMPDEST PUSH2 0xDE3 DUP3 PUSH2 0x77A JUMP JUMPDEST PUSH8 0xFFFFFFFFFFFFFFFF DUP2 GT ISZERO PUSH2 0xDFC JUMPI PUSH2 0xDFB PUSH2 0x87B JUMP JUMPDEST JUMPDEST PUSH2 0xE06 DUP3 SLOAD PUSH2 0xBFD JUMP JUMPDEST PUSH2 0xE11 DUP3 DUP3 DUP6 PUSH2 0xD4D JUMP JUMPDEST PUSH1 0x0 PUSH1 0x20 SWAP1 POP PUSH1 0x1F DUP4 GT PUSH1 0x1 DUP2 EQ PUSH2 0xE44 JUMPI PUSH1 0x0 DUP5 ISZERO PUSH2 0xE32 JUMPI DUP3 DUP8 ADD MLOAD SWAP1 POP JUMPDEST PUSH2 0xE3C DUP6 DUP3 PUSH2 0xDBE JUMP JUMPDEST DUP7 SSTORE POP PUSH2 0xEA4 JUMP JUMPDEST PUSH1 0x1F NOT DUP5 AND PUSH2 0xE52 DUP7 PUSH2 0xC2E JUMP JUMPDEST PUSH1 0x0 JUMPDEST DUP3 DUP2 LT ISZERO PUSH2 0xE7A JUMPI DUP5 DUP10 ADD MLOAD DUP3 SSTORE PUSH1 0x1 DUP3 ADD SWAP2 POP PUSH1 0x20 DUP6 ADD SWAP5 POP PUSH1 0x20 DUP2 ADD SWAP1 POP PUSH2 0xE55 JUMP JUMPDEST DUP7 DUP4 LT ISZERO PUSH2 0xE97 JUMPI DUP5 DUP10 ADD MLOAD PUSH2 0xE93 PUSH1 0x1F DUP10 AND DUP3 PUSH2 0xDA0 JUMP JUMPDEST DUP4 SSTORE POP JUMPDEST PUSH1 0x1 PUSH1 0x2 DUP9 MUL ADD DUP9 SSTORE POP POP POP JUMPDEST POP POP POP POP POP POP JUMP JUMPDEST PUSH32 0x796F7520617265206E6F7420616E64206F776E65720000000000000000000000 PUSH1 0x0 DUP3 ADD MSTORE POP JUMP JUMPDEST PUSH1 0x0 PUSH2 0xEE2 PUSH1 0x15 DUP4 PUSH2 0x785 JUMP JUMPDEST SWAP2 POP PUSH2 0xEED DUP3 PUSH2 0xEAC JUMP JUMPDEST PUSH1 0x20 DUP3 ADD SWAP1 POP SWAP2 SWAP1 POP JUMP JUMPDEST PUSH1 0x0 PUSH1 0x20 DUP3 ADD SWAP1 POP DUP2 DUP2 SUB PUSH1 0x0 DUP4 ADD MSTORE PUSH2 0xF11 DUP2 PUSH2 0xED5 JUMP JUMPDEST SWAP1 POP SWAP2 SWAP1 POP JUMP JUMPDEST PUSH32 0x4E487B7100000000000000000000000000000000000000000000000000000000 PUSH1 0x0 MSTORE PUSH1 0x11 PUSH1 0x4 MSTORE PUSH1 0x24 PUSH1 0x0 REVERT JUMPDEST PUSH1 0x0 PUSH2 0xF52 DUP3 PUSH2 0x67D JUMP JUMPDEST SWAP2 POP PUSH2 0xF5D DUP4 PUSH2 0x67D JUMP JUMPDEST SWAP3 POP DUP3 DUP3 ADD SWAP1 POP DUP1 DUP3 GT ISZERO PUSH2 0xF75 JUMPI PUSH2 0xF74 PUSH2 0xF18 JUMP JUMPDEST JUMPDEST SWAP3 SWAP2 POP POP JUMP INVALID LOG2 PUSH5 0x6970667358 0x22 SLT KECCAK256 CREATE DUP13 0x1F 0xAF CALLDATACOPY SDIV DUP9 JUMPDEST 0xB5 PREVRANDAO 0x28 0xD1 0xD3 PUSH31 0x6C231A129B1EAA1F8EFF7EBD55858330A90464736F6C634300081200330000 "
				},
				"gasEstimates": {
					"creation": {
						"codeDepositCost": "803400",
						"executionCost": "25104",
						"totalCost": "828504"
					},
					"external": {
						"AddUser(uint256,string,uint256,address)": "infinite",
						"Deposit()": "infinite",
						"KYOC(address)": "27051",
						"Users(address)": "infinite",
						"Withdraw(uint256)": "infinite",
						"balance()": "2473"
					}
				},
				"methodIdentifiers": {
					"AddUser(uint256,string,uint256,address)": "9f2b3d30",
					"Deposit()": "ed21248c",
					"KYOC(address)": "bf66b3d7",
					"Users(address)": "99b956a0",
					"Withdraw(uint256)": "5b6b431d",
					"balance()": "b69ef8a8"
				}
			},
			"storageLayout": {
				"storage": [
					{
						"astId": 3,
						"contract": "contracts/walletKYOC.sol:Wallet",
						"label": "owner",
						"offset": 0,
						"slot": "0",
						"type": "t_address"
					},
					{
						"astId": 5,
						"contract": "contracts/walletKYOC.sol:Wallet",
						"label": "balance",
						"offset": 0,
						"slot": "1",
						"type": "t_uint256"
					},
					{
						"astId": 7,
						"contract": "contracts/walletKYOC.sol:Wallet",
						"label": "isvarifired",
						"offset": 0,
						"slot": "2",
						"type": "t_bool"
					},
					{
						"astId": 12,
						"contract": "contracts/walletKYOC.sol:Wallet",
						"label": "Users",
						"offset": 0,
						"slot": "3",
						"type": "t_mapping(t_address,t_struct(user)25_storage)"
					},
					{
						"astId": 16,
						"contract": "contracts/walletKYOC.sol:Wallet",
						"label": "isUservarified",
						"offset": 0,
						"slot": "4",
						"type": "t_mapping(t_address,t_bool)"
					}
				],
				"types": {
					"t_address": {
						"encoding": "inplace",
						"label": "address",
						"numberOfBytes": "20"
					},
					"t_bool": {
						"encoding": "inplace",
						"label": "bool",
						"numberOfBytes": "1"
					},
					"t_mapping(t_address,t_bool)": {
						"encoding": "mapping",
						"key": "t_address",
						"label": "mapping(address => bool)",
						"numberOfBytes": "32",
						"value": "t_bool"
					},
					"t_mapping(t_address,t_struct(user)25_storage)": {
						"encoding": "mapping",
						"key": "t_address",
						"label": "mapping(address => struct Wallet.user)",
						"numberOfBytes": "32",
						"value": "t_struct(user)25_storage"
					},
					"t_string_storage": {
						"encoding": "bytes",
						"label": "string",
						"numberOfBytes": "32"
					},
					"t_struct(user)25_storage": {
						"encoding": "inplace",
						"label": "struct Wallet.user",
						"members": [
							{
								"astId": 18,
								"contract": "contracts/walletKYOC.sol:Wallet",
								"label": "Id",
								"offset": 0,
								"slot": "0",
								"type": "t_uint256"
							},
							{
								"astId": 20,
								"contract": "contracts/walletKYOC.sol:Wallet",
								"label": "name",
								"offset": 0,
								"slot": "1",
								"type": "t_string_storage"
							},
							{
								"astId": 22,
								"contract": "contracts/walletKYOC.sol:Wallet",
								"label": "balance",
								"offset": 0,
								"slot": "2",
								"type": "t_uint256"
							},
							{
								"astId": 24,
								"contract": "contracts/walletKYOC.sol:Wallet",
								"label": "kyoc",
								"offset": 0,
								"slot": "3",
								"type": "t_bool"
							}
						],
						"numberOfBytes": "128"
					},
					"t_uint256": {
						"encoding": "inplace",
						"label": "uint256",
						"numberOfBytes": "32"
					}
				}
			},
			"userdoc": {
				"kind": "user",
				"methods": {},
				"version": 1
			}
		}
	}
}