{
	"data": {
		"bytecode": {
			"linkReferences": {},
			"object": "6080604052606460015534801561001557600080fd5b50610246806100256000396000f3fe608060405234801561001057600080fd5b506004361061004c5760003560e01c80630e4dc6711461005157806393ae006d1461006f5780639e8674dc1461008b578063cd1e752914610095575b600080fd5b6100596100b1565b6040516100669190610100565b60405180910390f35b6100896004803603810190610084919061014c565b6100b7565b005b6100936100ce565b005b6100af60048036038101906100aa919061014c565b6100d0565b005b60005481565b806001546100c591906101a8565b60018190555050565b565b806001546100de91906101dc565b60018190555050565b6000819050919050565b6100fa816100e7565b82525050565b600060208201905061011560008301846100f1565b92915050565b600080fd5b610129816100e7565b811461013457600080fd5b50565b60008135905061014681610120565b92915050565b6000602082840312156101625761016161011b565b5b600061017084828501610137565b91505092915050565b7f4e487b7100000000000000000000000000000000000000000000000000000000600052601160045260246000fd5b60006101b3826100e7565b91506101be836100e7565b92508282039050818111156101d6576101d5610179565b5b92915050565b60006101e7826100e7565b91506101f2836100e7565b925082820190508082111561020a57610209610179565b5b9291505056fea2646970667358221220fd74754ebd2f987ee00308a8cb635121c041c08cd890e4f37f87cd98066fa21e64736f6c63430008120033",
			"opcodes": "PUSH1 0x80 PUSH1 0x40 MSTORE PUSH1 0x64 PUSH1 0x1 SSTORE CALLVALUE DUP1 ISZERO PUSH2 0x15 JUMPI PUSH1 0x0 DUP1 REVERT JUMPDEST POP PUSH2 0x246 DUP1 PUSH2 0x25 PUSH1 0x0 CODECOPY PUSH1 0x0 RETURN INVALID PUSH1 0x80 PUSH1 0x40 MSTORE CALLVALUE DUP1 ISZERO PUSH2 0x10 JUMPI PUSH1 0x0 DUP1 REVERT JUMPDEST POP PUSH1 0x4 CALLDATASIZE LT PUSH2 0x4C JUMPI PUSH1 0x0 CALLDATALOAD PUSH1 0xE0 SHR DUP1 PUSH4 0xE4DC671 EQ PUSH2 0x51 JUMPI DUP1 PUSH4 0x93AE006D EQ PUSH2 0x6F JUMPI DUP1 PUSH4 0x9E8674DC EQ PUSH2 0x8B JUMPI DUP1 PUSH4 0xCD1E7529 EQ PUSH2 0x95 JUMPI JUMPDEST PUSH1 0x0 DUP1 REVERT JUMPDEST PUSH2 0x59 PUSH2 0xB1 JUMP JUMPDEST PUSH1 0x40 MLOAD PUSH2 0x66 SWAP2 SWAP1 PUSH2 0x100 JUMP JUMPDEST PUSH1 0x40 MLOAD DUP1 SWAP2 SUB SWAP1 RETURN JUMPDEST PUSH2 0x89 PUSH1 0x4 DUP1 CALLDATASIZE SUB DUP2 ADD SWAP1 PUSH2 0x84 SWAP2 SWAP1 PUSH2 0x14C JUMP JUMPDEST PUSH2 0xB7 JUMP JUMPDEST STOP JUMPDEST PUSH2 0x93 PUSH2 0xCE JUMP JUMPDEST STOP JUMPDEST PUSH2 0xAF PUSH1 0x4 DUP1 CALLDATASIZE SUB DUP2 ADD SWAP1 PUSH2 0xAA SWAP2 SWAP1 PUSH2 0x14C JUMP JUMPDEST PUSH2 0xD0 JUMP JUMPDEST STOP JUMPDEST PUSH1 0x0 SLOAD DUP2 JUMP JUMPDEST DUP1 PUSH1 0x1 SLOAD PUSH2 0xC5 SWAP2 SWAP1 PUSH2 0x1A8 JUMP JUMPDEST PUSH1 0x1 DUP2 SWAP1 SSTORE POP POP JUMP JUMPDEST JUMP JUMPDEST DUP1 PUSH1 0x1 SLOAD PUSH2 0xDE SWAP2 SWAP1 PUSH2 0x1DC JUMP JUMPDEST PUSH1 0x1 DUP2 SWAP1 SSTORE POP POP JUMP JUMPDEST PUSH1 0x0 DUP2 SWAP1 POP SWAP2 SWAP1 POP JUMP JUMPDEST PUSH2 0xFA DUP2 PUSH2 0xE7 JUMP JUMPDEST DUP3 MSTORE POP POP JUMP JUMPDEST PUSH1 0x0 PUSH1 0x20 DUP3 ADD SWAP1 POP PUSH2 0x115 PUSH1 0x0 DUP4 ADD DUP5 PUSH2 0xF1 JUMP JUMPDEST SWAP3 SWAP2 POP POP JUMP JUMPDEST PUSH1 0x0 DUP1 REVERT JUMPDEST PUSH2 0x129 DUP2 PUSH2 0xE7 JUMP JUMPDEST DUP2 EQ PUSH2 0x134 JUMPI PUSH1 0x0 DUP1 REVERT JUMPDEST POP JUMP JUMPDEST PUSH1 0x0 DUP2 CALLDATALOAD SWAP1 POP PUSH2 0x146 DUP2 PUSH2 0x120 JUMP JUMPDEST SWAP3 SWAP2 POP POP JUMP JUMPDEST PUSH1 0x0 PUSH1 0x20 DUP3 DUP5 SUB SLT ISZERO PUSH2 0x162 JUMPI PUSH2 0x161 PUSH2 0x11B JUMP JUMPDEST JUMPDEST PUSH1 0x0 PUSH2 0x170 DUP5 DUP3 DUP6 ADD PUSH2 0x137 JUMP JUMPDEST SWAP2 POP POP SWAP3 SWAP2 POP POP JUMP JUMPDEST PUSH32 0x4E487B7100000000000000000000000000000000000000000000000000000000 PUSH1 0x0 MSTORE PUSH1 0x11 PUSH1 0x4 MSTORE PUSH1 0x24 PUSH1 0x0 REVERT JUMPDEST PUSH1 0x0 PUSH2 0x1B3 DUP3 PUSH2 0xE7 JUMP JUMPDEST SWAP2 POP PUSH2 0x1BE DUP4 PUSH2 0xE7 JUMP JUMPDEST SWAP3 POP DUP3 DUP3 SUB SWAP1 POP DUP2 DUP2 GT ISZERO PUSH2 0x1D6 JUMPI PUSH2 0x1D5 PUSH2 0x179 JUMP JUMPDEST JUMPDEST SWAP3 SWAP2 POP POP JUMP JUMPDEST PUSH1 0x0 PUSH2 0x1E7 DUP3 PUSH2 0xE7 JUMP JUMPDEST SWAP2 POP PUSH2 0x1F2 DUP4 PUSH2 0xE7 JUMP JUMPDEST SWAP3 POP DUP3 DUP3 ADD SWAP1 POP DUP1 DUP3 GT ISZERO PUSH2 0x20A JUMPI PUSH2 0x209 PUSH2 0x179 JUMP JUMPDEST JUMPDEST SWAP3 SWAP2 POP POP JUMP INVALID LOG2 PUSH5 0x6970667358 0x22 SLT KECCAK256 REVERT PUSH21 0x754EBD2F987EE00308A8CB635121C041C08CD890E4 RETURN PUSH32 0x87CD98066FA21E64736F6C634300081200330000000000000000000000000000 "
		},
		"gasEstimates": {
			"creation": {
				"codeDepositCost": "116400",
				"executionCost": "22271",
				"totalCost": "138671"
			},
			"external": {
				"ATMPIN()": "2407",
				"addbalance(uint256)": "infinite",
				"atm()": "166",
				"withdrow(uint256)": "infinite"
			}
		},
		"methodIdentifiers": {
			"ATMPIN()": "0e4dc671",
			"addbalance(uint256)": "cd1e7529",
			"atm()": "9e8674dc",
			"withdrow(uint256)": "93ae006d"
		}
	},
	"abi": [
		{
			"inputs": [],
			"name": "ATMPIN",
			"outputs": [
				{
					"internalType": "uint256",
					"name": "",
					"type": "uint256"
				}
			],
			"stateMutability": "view",
			"type": "function"
		},
		{
			"inputs": [
				{
					"internalType": "uint256",
					"name": "amount1",
					"type": "uint256"
				}
			],
			"name": "addbalance",
			"outputs": [],
			"stateMutability": "nonpayable",
			"type": "function"
		},
		{
			"inputs": [],
			"name": "atm",
			"outputs": [],
			"stateMutability": "nonpayable",
			"type": "function"
		},
		{
			"inputs": [
				{
					"internalType": "uint256",
					"name": "amount",
					"type": "uint256"
				}
			],
			"name": "withdrow",
			"outputs": [],
			"stateMutability": "nonpayable",
			"type": "function"
		}
	]
}