{
	"data": {
		"bytecode": {
			"linkReferences": {},
			"object": "608060405234801561001057600080fd5b5061033d806100206000396000f3fe608060405234801561001057600080fd5b506004361061002b5760003560e01c806313d52a0014610030575b600080fd5b61004a60048036038101906100459190610228565b610060565b60405161005791906102e5565b60405180910390f35b6060605a8210158015610074575060648211155b156100b6576040518060400160405280601281526020017f20796f752068617665204131206772616465000000000000000000000000000081525090506101e8565b605082101580156100c75750605a82105b15610109576040518060400160405280601181526020017f20796f752068617665204120677261646500000000000000000000000000000081525090506101e8565b6046821015801561011a5750605082105b1561015c576040518060400160405280601181526020017f20796f752068617665204220677261646500000000000000000000000000000081525090506101e8565b603c821015801561016d5750604682105b156101af576040518060400160405280601181526020017f20796f752068617665204320677261646500000000000000000000000000000081525090506101e8565b6040518060400160405280600c81526020017f796f7520617265206661696c000000000000000000000000000000000000000081525090505b919050565b600080fd5b6000819050919050565b610205816101f2565b811461021057600080fd5b50565b600081359050610222816101fc565b92915050565b60006020828403121561023e5761023d6101ed565b5b600061024c84828501610213565b91505092915050565b600081519050919050565b600082825260208201905092915050565b60005b8381101561028f578082015181840152602081019050610274565b60008484015250505050565b6000601f19601f8301169050919050565b60006102b782610255565b6102c18185610260565b93506102d1818560208601610271565b6102da8161029b565b840191505092915050565b600060208201905081810360008301526102ff81846102ac565b90509291505056fea264697066735822122001f958017d243504f1d4dfd6845c15cef6403e7c14834c702d9c8ab01e3e3db464736f6c63430008120033",
			"opcodes": "PUSH1 0x80 PUSH1 0x40 MSTORE CALLVALUE DUP1 ISZERO PUSH2 0x10 JUMPI PUSH1 0x0 DUP1 REVERT JUMPDEST POP PUSH2 0x33D DUP1 PUSH2 0x20 PUSH1 0x0 CODECOPY PUSH1 0x0 RETURN INVALID PUSH1 0x80 PUSH1 0x40 MSTORE CALLVALUE DUP1 ISZERO PUSH2 0x10 JUMPI PUSH1 0x0 DUP1 REVERT JUMPDEST POP PUSH1 0x4 CALLDATASIZE LT PUSH2 0x2B JUMPI PUSH1 0x0 CALLDATALOAD PUSH1 0xE0 SHR DUP1 PUSH4 0x13D52A00 EQ PUSH2 0x30 JUMPI JUMPDEST PUSH1 0x0 DUP1 REVERT JUMPDEST PUSH2 0x4A PUSH1 0x4 DUP1 CALLDATASIZE SUB DUP2 ADD SWAP1 PUSH2 0x45 SWAP2 SWAP1 PUSH2 0x228 JUMP JUMPDEST PUSH2 0x60 JUMP JUMPDEST PUSH1 0x40 MLOAD PUSH2 0x57 SWAP2 SWAP1 PUSH2 0x2E5 JUMP JUMPDEST PUSH1 0x40 MLOAD DUP1 SWAP2 SUB SWAP1 RETURN JUMPDEST PUSH1 0x60 PUSH1 0x5A DUP3 LT ISZERO DUP1 ISZERO PUSH2 0x74 JUMPI POP PUSH1 0x64 DUP3 GT ISZERO JUMPDEST ISZERO PUSH2 0xB6 JUMPI PUSH1 0x40 MLOAD DUP1 PUSH1 0x40 ADD PUSH1 0x40 MSTORE DUP1 PUSH1 0x12 DUP2 MSTORE PUSH1 0x20 ADD PUSH32 0x20796F7520686176652041312067726164650000000000000000000000000000 DUP2 MSTORE POP SWAP1 POP PUSH2 0x1E8 JUMP JUMPDEST PUSH1 0x50 DUP3 LT ISZERO DUP1 ISZERO PUSH2 0xC7 JUMPI POP PUSH1 0x5A DUP3 LT JUMPDEST ISZERO PUSH2 0x109 JUMPI PUSH1 0x40 MLOAD DUP1 PUSH1 0x40 ADD PUSH1 0x40 MSTORE DUP1 PUSH1 0x11 DUP2 MSTORE PUSH1 0x20 ADD PUSH32 0x20796F7520686176652041206772616465000000000000000000000000000000 DUP2 MSTORE POP SWAP1 POP PUSH2 0x1E8 JUMP JUMPDEST PUSH1 0x46 DUP3 LT ISZERO DUP1 ISZERO PUSH2 0x11A JUMPI POP PUSH1 0x50 DUP3 LT JUMPDEST ISZERO PUSH2 0x15C JUMPI PUSH1 0x40 MLOAD DUP1 PUSH1 0x40 ADD PUSH1 0x40 MSTORE DUP1 PUSH1 0x11 DUP2 MSTORE PUSH1 0x20 ADD PUSH32 0x20796F7520686176652042206772616465000000000000000000000000000000 DUP2 MSTORE POP SWAP1 POP PUSH2 0x1E8 JUMP JUMPDEST PUSH1 0x3C DUP3 LT ISZERO DUP1 ISZERO PUSH2 0x16D JUMPI POP PUSH1 0x46 DUP3 LT JUMPDEST ISZERO PUSH2 0x1AF JUMPI PUSH1 0x40 MLOAD DUP1 PUSH1 0x40 ADD PUSH1 0x40 MSTORE DUP1 PUSH1 0x11 DUP2 MSTORE PUSH1 0x20 ADD PUSH32 0x20796F7520686176652043206772616465000000000000000000000000000000 DUP2 MSTORE POP SWAP1 POP PUSH2 0x1E8 JUMP JUMPDEST PUSH1 0x40 MLOAD DUP1 PUSH1 0x40 ADD PUSH1 0x40 MSTORE DUP1 PUSH1 0xC DUP2 MSTORE PUSH1 0x20 ADD PUSH32 0x796F7520617265206661696C0000000000000000000000000000000000000000 DUP2 MSTORE POP SWAP1 POP JUMPDEST SWAP2 SWAP1 POP JUMP JUMPDEST PUSH1 0x0 DUP1 REVERT JUMPDEST PUSH1 0x0 DUP2 SWAP1 POP SWAP2 SWAP1 POP JUMP JUMPDEST PUSH2 0x205 DUP2 PUSH2 0x1F2 JUMP JUMPDEST DUP2 EQ PUSH2 0x210 JUMPI PUSH1 0x0 DUP1 REVERT JUMPDEST POP JUMP JUMPDEST PUSH1 0x0 DUP2 CALLDATALOAD SWAP1 POP PUSH2 0x222 DUP2 PUSH2 0x1FC JUMP JUMPDEST SWAP3 SWAP2 POP POP JUMP JUMPDEST PUSH1 0x0 PUSH1 0x20 DUP3 DUP5 SUB SLT ISZERO PUSH2 0x23E JUMPI PUSH2 0x23D PUSH2 0x1ED JUMP JUMPDEST JUMPDEST PUSH1 0x0 PUSH2 0x24C DUP5 DUP3 DUP6 ADD PUSH2 0x213 JUMP JUMPDEST SWAP2 POP POP SWAP3 SWAP2 POP POP JUMP JUMPDEST PUSH1 0x0 DUP2 MLOAD SWAP1 POP SWAP2 SWAP1 POP JUMP JUMPDEST PUSH1 0x0 DUP3 DUP3 MSTORE PUSH1 0x20 DUP3 ADD SWAP1 POP SWAP3 SWAP2 POP POP JUMP JUMPDEST PUSH1 0x0 JUMPDEST DUP4 DUP2 LT ISZERO PUSH2 0x28F JUMPI DUP1 DUP3 ADD MLOAD DUP2 DUP5 ADD MSTORE PUSH1 0x20 DUP2 ADD SWAP1 POP PUSH2 0x274 JUMP JUMPDEST PUSH1 0x0 DUP5 DUP5 ADD MSTORE POP POP POP POP JUMP JUMPDEST PUSH1 0x0 PUSH1 0x1F NOT PUSH1 0x1F DUP4 ADD AND SWAP1 POP SWAP2 SWAP1 POP JUMP JUMPDEST PUSH1 0x0 PUSH2 0x2B7 DUP3 PUSH2 0x255 JUMP JUMPDEST PUSH2 0x2C1 DUP2 DUP6 PUSH2 0x260 JUMP JUMPDEST SWAP4 POP PUSH2 0x2D1 DUP2 DUP6 PUSH1 0x20 DUP7 ADD PUSH2 0x271 JUMP JUMPDEST PUSH2 0x2DA DUP2 PUSH2 0x29B JUMP JUMPDEST DUP5 ADD SWAP2 POP POP SWAP3 SWAP2 POP POP JUMP JUMPDEST PUSH1 0x0 PUSH1 0x20 DUP3 ADD SWAP1 POP DUP2 DUP2 SUB PUSH1 0x0 DUP4 ADD MSTORE PUSH2 0x2FF DUP2 DUP5 PUSH2 0x2AC JUMP JUMPDEST SWAP1 POP SWAP3 SWAP2 POP POP JUMP INVALID LOG2 PUSH5 0x6970667358 0x22 SLT KECCAK256 ADD 0xF9 PC ADD PUSH30 0x243504F1D4DFD6845C15CEF6403E7C14834C702D9C8AB01E3E3DB464736F PUSH13 0x63430008120033000000000000 "
		},
		"gasEstimates": {
			"creation": {
				"codeDepositCost": "165800",
				"executionCost": "208",
				"totalCost": "166008"
			},
			"external": {
				"CheckGrade(uint256)": "infinite"
			}
		},
		"methodIdentifiers": {
			"CheckGrade(uint256)": "13d52a00"
		}
	},
	"abi": [
		{
			"inputs": [
				{
					"internalType": "uint256",
					"name": "number",
					"type": "uint256"
				}
			],
			"name": "CheckGrade",
			"outputs": [
				{
					"internalType": "string",
					"name": "",
					"type": "string"
				}
			],
			"stateMutability": "pure",
			"type": "function"
		}
	]
}