{
	"data": {
		"bytecode": {
			"linkReferences": {},
			"object": "608060405234801561001057600080fd5b50336000806101000a81548173ffffffffffffffffffffffffffffffffffffffff021916908373ffffffffffffffffffffffffffffffffffffffff1602179055506103cd806100606000396000f3fe6080604052600436106100295760003560e01c806348c981e21461002e5780638da5cb5b1461004a575b600080fd5b6100486004803603810190610043919061021f565b610075565b005b34801561005657600080fd5b5061005f610198565b60405161006c919061026d565b60405180910390f35b60008054906101000a900473ffffffffffffffffffffffffffffffffffffffff1673ffffffffffffffffffffffffffffffffffffffff163373ffffffffffffffffffffffffffffffffffffffff1614610103576040517f08c379a00000000000000000000000000000000000000000000000000000000081526004016100fa906102e5565b60405180910390fd5b6729a2241af62c000034111561014e576040517f08c379a000000000000000000000000000000000000000000000000000000000815260040161014590610377565b60405180910390fd5b8073ffffffffffffffffffffffffffffffffffffffff166108fc349081150290604051600060405180830381858888f19350505050158015610194573d6000803e3d6000fd5b5050565b60008054906101000a900473ffffffffffffffffffffffffffffffffffffffff1681565b600080fd5b600073ffffffffffffffffffffffffffffffffffffffff82169050919050565b60006101ec826101c1565b9050919050565b6101fc816101e1565b811461020757600080fd5b50565b600081359050610219816101f3565b92915050565b600060208284031215610235576102346101bc565b5b60006102438482850161020a565b91505092915050565b6000610257826101c1565b9050919050565b6102678161024c565b82525050565b6000602082019050610282600083018461025e565b92915050565b600082825260208201905092915050565b7f796f7520617265206e6f7420616e206f776e65722e0000000000000000000000600082015250565b60006102cf601583610288565b91506102da82610299565b602082019050919050565b600060208201905081810360008301526102fe816102c2565b9050919050565b7f796f752063616e206e6f742073656e64206d6f7265207468616e20332065746860008201527f65722e0000000000000000000000000000000000000000000000000000000000602082015250565b6000610361602383610288565b915061036c82610305565b604082019050919050565b6000602082019050818103600083015261039081610354565b905091905056fea26469706673582212209a6e114385791e5927ef5a784dfd20fad3846613523aeb0ef664e15ec8ae584464736f6c63430008120033",
			"opcodes": "PUSH1 0x80 PUSH1 0x40 MSTORE CALLVALUE DUP1 ISZERO PUSH2 0x10 JUMPI PUSH1 0x0 DUP1 REVERT JUMPDEST POP CALLER PUSH1 0x0 DUP1 PUSH2 0x100 EXP DUP2 SLOAD DUP2 PUSH20 0xFFFFFFFFFFFFFFFFFFFFFFFFFFFFFFFFFFFFFFFF MUL NOT AND SWAP1 DUP4 PUSH20 0xFFFFFFFFFFFFFFFFFFFFFFFFFFFFFFFFFFFFFFFF AND MUL OR SWAP1 SSTORE POP PUSH2 0x3CD DUP1 PUSH2 0x60 PUSH1 0x0 CODECOPY PUSH1 0x0 RETURN INVALID PUSH1 0x80 PUSH1 0x40 MSTORE PUSH1 0x4 CALLDATASIZE LT PUSH2 0x29 JUMPI PUSH1 0x0 CALLDATALOAD PUSH1 0xE0 SHR DUP1 PUSH4 0x48C981E2 EQ PUSH2 0x2E JUMPI DUP1 PUSH4 0x8DA5CB5B EQ PUSH2 0x4A JUMPI JUMPDEST PUSH1 0x0 DUP1 REVERT JUMPDEST PUSH2 0x48 PUSH1 0x4 DUP1 CALLDATASIZE SUB DUP2 ADD SWAP1 PUSH2 0x43 SWAP2 SWAP1 PUSH2 0x21F JUMP JUMPDEST PUSH2 0x75 JUMP JUMPDEST STOP JUMPDEST CALLVALUE DUP1 ISZERO PUSH2 0x56 JUMPI PUSH1 0x0 DUP1 REVERT JUMPDEST POP PUSH2 0x5F PUSH2 0x198 JUMP JUMPDEST PUSH1 0x40 MLOAD PUSH2 0x6C SWAP2 SWAP1 PUSH2 0x26D JUMP JUMPDEST PUSH1 0x40 MLOAD DUP1 SWAP2 SUB SWAP1 RETURN JUMPDEST PUSH1 0x0 DUP1 SLOAD SWAP1 PUSH2 0x100 EXP SWAP1 DIV PUSH20 0xFFFFFFFFFFFFFFFFFFFFFFFFFFFFFFFFFFFFFFFF AND PUSH20 0xFFFFFFFFFFFFFFFFFFFFFFFFFFFFFFFFFFFFFFFF AND CALLER PUSH20 0xFFFFFFFFFFFFFFFFFFFFFFFFFFFFFFFFFFFFFFFF AND EQ PUSH2 0x103 JUMPI PUSH1 0x40 MLOAD PUSH32 0x8C379A000000000000000000000000000000000000000000000000000000000 DUP2 MSTORE PUSH1 0x4 ADD PUSH2 0xFA SWAP1 PUSH2 0x2E5 JUMP JUMPDEST PUSH1 0x40 MLOAD DUP1 SWAP2 SUB SWAP1 REVERT JUMPDEST PUSH8 0x29A2241AF62C0000 CALLVALUE GT ISZERO PUSH2 0x14E JUMPI PUSH1 0x40 MLOAD PUSH32 0x8C379A000000000000000000000000000000000000000000000000000000000 DUP2 MSTORE PUSH1 0x4 ADD PUSH2 0x145 SWAP1 PUSH2 0x377 JUMP JUMPDEST PUSH1 0x40 MLOAD DUP1 SWAP2 SUB SWAP1 REVERT JUMPDEST DUP1 PUSH20 0xFFFFFFFFFFFFFFFFFFFFFFFFFFFFFFFFFFFFFFFF AND PUSH2 0x8FC CALLVALUE SWAP1 DUP2 ISZERO MUL SWAP1 PUSH1 0x40 MLOAD PUSH1 0x0 PUSH1 0x40 MLOAD DUP1 DUP4 SUB DUP2 DUP6 DUP9 DUP9 CALL SWAP4 POP POP POP POP ISZERO DUP1 ISZERO PUSH2 0x194 JUMPI RETURNDATASIZE PUSH1 0x0 DUP1 RETURNDATACOPY RETURNDATASIZE PUSH1 0x0 REVERT JUMPDEST POP POP JUMP JUMPDEST PUSH1 0x0 DUP1 SLOAD SWAP1 PUSH2 0x100 EXP SWAP1 DIV PUSH20 0xFFFFFFFFFFFFFFFFFFFFFFFFFFFFFFFFFFFFFFFF AND DUP2 JUMP JUMPDEST PUSH1 0x0 DUP1 REVERT JUMPDEST PUSH1 0x0 PUSH20 0xFFFFFFFFFFFFFFFFFFFFFFFFFFFFFFFFFFFFFFFF DUP3 AND SWAP1 POP SWAP2 SWAP1 POP JUMP JUMPDEST PUSH1 0x0 PUSH2 0x1EC DUP3 PUSH2 0x1C1 JUMP JUMPDEST SWAP1 POP SWAP2 SWAP1 POP JUMP JUMPDEST PUSH2 0x1FC DUP2 PUSH2 0x1E1 JUMP JUMPDEST DUP2 EQ PUSH2 0x207 JUMPI PUSH1 0x0 DUP1 REVERT JUMPDEST POP JUMP JUMPDEST PUSH1 0x0 DUP2 CALLDATALOAD SWAP1 POP PUSH2 0x219 DUP2 PUSH2 0x1F3 JUMP JUMPDEST SWAP3 SWAP2 POP POP JUMP JUMPDEST PUSH1 0x0 PUSH1 0x20 DUP3 DUP5 SUB SLT ISZERO PUSH2 0x235 JUMPI PUSH2 0x234 PUSH2 0x1BC JUMP JUMPDEST JUMPDEST PUSH1 0x0 PUSH2 0x243 DUP5 DUP3 DUP6 ADD PUSH2 0x20A JUMP JUMPDEST SWAP2 POP POP SWAP3 SWAP2 POP POP JUMP JUMPDEST PUSH1 0x0 PUSH2 0x257 DUP3 PUSH2 0x1C1 JUMP JUMPDEST SWAP1 POP SWAP2 SWAP1 POP JUMP JUMPDEST PUSH2 0x267 DUP2 PUSH2 0x24C JUMP JUMPDEST DUP3 MSTORE POP POP JUMP JUMPDEST PUSH1 0x0 PUSH1 0x20 DUP3 ADD SWAP1 POP PUSH2 0x282 PUSH1 0x0 DUP4 ADD DUP5 PUSH2 0x25E JUMP JUMPDEST SWAP3 SWAP2 POP POP JUMP JUMPDEST PUSH1 0x0 DUP3 DUP3 MSTORE PUSH1 0x20 DUP3 ADD SWAP1 POP SWAP3 SWAP2 POP POP JUMP JUMPDEST PUSH32 0x796F7520617265206E6F7420616E206F776E65722E0000000000000000000000 PUSH1 0x0 DUP3 ADD MSTORE POP JUMP JUMPDEST PUSH1 0x0 PUSH2 0x2CF PUSH1 0x15 DUP4 PUSH2 0x288 JUMP JUMPDEST SWAP2 POP PUSH2 0x2DA DUP3 PUSH2 0x299 JUMP JUMPDEST PUSH1 0x20 DUP3 ADD SWAP1 POP SWAP2 SWAP1 POP JUMP JUMPDEST PUSH1 0x0 PUSH1 0x20 DUP3 ADD SWAP1 POP DUP2 DUP2 SUB PUSH1 0x0 DUP4 ADD MSTORE PUSH2 0x2FE DUP2 PUSH2 0x2C2 JUMP JUMPDEST SWAP1 POP SWAP2 SWAP1 POP JUMP JUMPDEST PUSH32 0x796F752063616E206E6F742073656E64206D6F7265207468616E203320657468 PUSH1 0x0 DUP3 ADD MSTORE PUSH32 0x65722E0000000000000000000000000000000000000000000000000000000000 PUSH1 0x20 DUP3 ADD MSTORE POP JUMP JUMPDEST PUSH1 0x0 PUSH2 0x361 PUSH1 0x23 DUP4 PUSH2 0x288 JUMP JUMPDEST SWAP2 POP PUSH2 0x36C DUP3 PUSH2 0x305 JUMP JUMPDEST PUSH1 0x40 DUP3 ADD SWAP1 POP SWAP2 SWAP1 POP JUMP JUMPDEST PUSH1 0x0 PUSH1 0x20 DUP3 ADD SWAP1 POP DUP2 DUP2 SUB PUSH1 0x0 DUP4 ADD MSTORE PUSH2 0x390 DUP2 PUSH2 0x354 JUMP JUMPDEST SWAP1 POP SWAP2 SWAP1 POP JUMP INVALID LOG2 PUSH5 0x6970667358 0x22 SLT KECCAK256 SWAP11 PUSH15 0x114385791E5927EF5A784DFD20FAD3 DUP5 PUSH7 0x13523AEB0EF664 0xE1 0x5E 0xC8 0xAE PC PREVRANDAO PUSH5 0x736F6C6343 STOP ADDMOD SLT STOP CALLER "
		},
		"gasEstimates": {
			"creation": {
				"codeDepositCost": "194600",
				"executionCost": "24504",
				"totalCost": "219104"
			},
			"external": {
				"owner()": "2511",
				"sendEther(address)": "infinite"
			}
		},
		"methodIdentifiers": {
			"owner()": "8da5cb5b",
			"sendEther(address)": "48c981e2"
		}
	},
	"abi": [
		{
			"inputs": [],
			"stateMutability": "nonpayable",
			"type": "constructor"
		},
		{
			"inputs": [],
			"name": "owner",
			"outputs": [
				{
					"internalType": "address",
					"name": "",
					"type": "address"
				}
			],
			"stateMutability": "view",
			"type": "function"
		},
		{
			"inputs": [
				{
					"internalType": "address payable",
					"name": "recipient",
					"type": "address"
				}
			],
			"name": "sendEther",
			"outputs": [],
			"stateMutability": "payable",
			"type": "function"
		}
	]
}